Archive member included to satisfy reference by file (symbol)

c:/program files (x86)/atollic/truestudio for stm32 9.1.0/armtools/bin/../lib/gcc/arm-atollic-eabi/6.3.1/../../../../arm-atollic-eabi/lib/armv7e-m/fpu\libc_nano.a(lib_a-init.o)
                              ./Startup/startup_stm32f427xx.o (__libc_init_array)
c:/program files (x86)/atollic/truestudio for stm32 9.1.0/armtools/bin/../lib/gcc/arm-atollic-eabi/6.3.1/../../../../arm-atollic-eabi/lib/armv7e-m/fpu\libc_nano.a(lib_a-memset.o)
                              ./DIMC_Files/irs_protocol_dimc.o (memset)
c:/program files (x86)/atollic/truestudio for stm32 9.1.0/armtools/bin/../lib/gcc/arm-atollic-eabi/6.3.1/armv7e-m/fpu\libgcc.a(_arm_addsubdf3.o)
                              ./DIMC_Files/voltage_meas_dimc.o (__aeabi_dsub)
c:/program files (x86)/atollic/truestudio for stm32 9.1.0/armtools/bin/../lib/gcc/arm-atollic-eabi/6.3.1/armv7e-m/fpu\libgcc.a(_arm_muldivdf3.o)
                              ./DIMC_Files/voltage_meas_dimc.o (__aeabi_dmul)
c:/program files (x86)/atollic/truestudio for stm32 9.1.0/armtools/bin/../lib/gcc/arm-atollic-eabi/6.3.1/armv7e-m/fpu\libgcc.a(_arm_cmpdf2.o)
                              ./DIMC_Files/voltage_meas_dimc.o (__aeabi_dcmpgt)
c:/program files (x86)/atollic/truestudio for stm32 9.1.0/armtools/bin/../lib/gcc/arm-atollic-eabi/6.3.1/armv7e-m/fpu\libgcc.a(_arm_truncdfsf2.o)
                              ./DIMC_Files/voltage_meas_dimc.o (__aeabi_d2f)
c:/program files (x86)/atollic/truestudio for stm32 9.1.0/armtools/bin/../lib/gcc/arm-atollic-eabi/6.3.1/armv7e-m/fpu\libgcc.a(_aeabi_uldivmod.o)
                              ./02_STM_Drivers/Src/gipsy_hal_rcc.o (__aeabi_uldivmod)
c:/program files (x86)/atollic/truestudio for stm32 9.1.0/armtools/bin/../lib/gcc/arm-atollic-eabi/6.3.1/armv7e-m/fpu\libgcc.a(_udivmoddi4.o)
                              c:/program files (x86)/atollic/truestudio for stm32 9.1.0/armtools/bin/../lib/gcc/arm-atollic-eabi/6.3.1/armv7e-m/fpu\libgcc.a(_aeabi_uldivmod.o) (__udivmoddi4)
c:/program files (x86)/atollic/truestudio for stm32 9.1.0/armtools/bin/../lib/gcc/arm-atollic-eabi/6.3.1/armv7e-m/fpu\libgcc.a(_dvmd_tls.o)
                              c:/program files (x86)/atollic/truestudio for stm32 9.1.0/armtools/bin/../lib/gcc/arm-atollic-eabi/6.3.1/armv7e-m/fpu\libgcc.a(_aeabi_uldivmod.o) (__aeabi_ldiv0)

Allocating common symbols
Common symbol       size              file

oper_curr_time      0x4               ./DIMC_Files/periodic_dimc.o

Discarded input sections

 .group         0x00000000        0x8 ./Test_Bench_Config/dimc_test_bench_config.o
 .group         0x00000000        0x8 ./Test_Bench_Config/dimc_test_bench_config.o
 .group         0x00000000        0x8 ./Test_Bench_Config/dimc_test_bench_config.o
 .group         0x00000000        0x8 ./Test_Bench_Config/dimc_test_bench_config.o
 .group         0x00000000        0x8 ./Test_Bench_Config/dimc_test_bench_config.o
 .group         0x00000000        0x8 ./Test_Bench_Config/dimc_test_bench_config.o
 .group         0x00000000        0x8 ./Test_Bench_Config/dimc_test_bench_config.o
 .group         0x00000000        0x8 ./Test_Bench_Config/dimc_test_bench_config.o
 .group         0x00000000        0x8 ./Src/gipsy_dimc_it.o
 .group         0x00000000        0x8 ./Src/gipsy_dimc_it.o
 .group         0x00000000        0x8 ./Src/gipsy_dimc_it.o
 .group         0x00000000        0x8 ./Src/gipsy_dimc_it.o
 .group         0x00000000        0x8 ./Src/gipsy_dimc_it.o
 .group         0x00000000        0x8 ./Src/gipsy_dimc_it.o
 .group         0x00000000        0x8 ./Src/gipsy_dimc_it.o
 .group         0x00000000        0x8 ./Src/gipsy_dimc_it.o
 .group         0x00000000        0x8 ./Src/gipsy_dimc_it.o
 .debug_macro   0x00000000      0x8c2 ./Src/gipsy_dimc_it.o
Memory Configuration

Name             Origin             Length             Attributes
RAM              0x20000000         0x00030000         xrw
CCMRAM           0x10000000         0x00010000         rw
FLASH            0x08000000         0x00100000         xr
*default*        0x00000000         0xffffffff

Linker script and memory map

LOAD c:/program files (x86)/atollic/truestudio for stm32 9.1.0/armtools/bin/../lib/gcc/arm-atollic-eabi/6.3.1/armv7e-m/fpu/crti.o
LOAD c:/program files (x86)/atollic/truestudio for stm32 9.1.0/armtools/bin/../lib/gcc/arm-atollic-eabi/6.3.1/armv7e-m/fpu/crtbegin.o
LOAD ./Test_Bench_Config/dimc_test_bench_config.o
LOAD ./Startup/startup_stm32f427xx.o
LOAD ./Src/gipsy_dimc_it.o
LOAD ./Src/main.o
LOAD ./DIMC_Files/can_protocol_dimc.o
LOAD ./DIMC_Files/cbit_dimc.o
LOAD ./DIMC_Files/crc16.o
LOAD ./DIMC_Files/diac_mngmnt.o
LOAD ./DIMC_Files/exflash_dimc.o
LOAD ./DIMC_Files/fault_management_dimc.o
LOAD ./DIMC_Files/flash_integrity_test.o
LOAD ./DIMC_Files/gpio_control_dimc.o
LOAD ./DIMC_Files/irs_protocol_dimc.o
LOAD ./DIMC_Files/logger_dimc.o
LOAD ./DIMC_Files/mcu_config_dimc.o
LOAD ./DIMC_Files/module_init_dimc.o
LOAD ./DIMC_Files/pbit_dimc.o
LOAD ./DIMC_Files/periodic_dimc.o
LOAD ./DIMC_Files/system_params_dimc.o
LOAD ./DIMC_Files/voltage_meas_dimc.o
LOAD ./DIMC_Files/wdog.o
LOAD ./02_STM_Drivers/Src/gipsy_hal_adc.o
LOAD ./02_STM_Drivers/Src/gipsy_hal_can.o
LOAD ./02_STM_Drivers/Src/gipsy_hal_cortex.o
LOAD ./02_STM_Drivers/Src/gipsy_hal_gpio.o
LOAD ./02_STM_Drivers/Src/gipsy_hal_i2c_dimc.o
LOAD ./02_STM_Drivers/Src/gipsy_hal_rcc.o
LOAD ./02_STM_Drivers/Src/gipsy_hal_rtc.o
LOAD ./02_STM_Drivers/Src/gipsy_hal_uart.o
                0x00000080                malloc_getpagesize_P = 0x80
START GROUP
LOAD c:/program files (x86)/atollic/truestudio for stm32 9.1.0/armtools/bin/../lib/gcc/arm-atollic-eabi/6.3.1/../../../../arm-atollic-eabi/lib/armv7e-m/fpu\libc_nano.a
LOAD c:/program files (x86)/atollic/truestudio for stm32 9.1.0/armtools/bin/../lib/gcc/arm-atollic-eabi/6.3.1/../../../../arm-atollic-eabi/lib/armv7e-m/fpu\libm.a
END GROUP
START GROUP
LOAD c:/program files (x86)/atollic/truestudio for stm32 9.1.0/armtools/bin/../lib/gcc/arm-atollic-eabi/6.3.1/armv7e-m/fpu\libgcc.a
LOAD c:/program files (x86)/atollic/truestudio for stm32 9.1.0/armtools/bin/../lib/gcc/arm-atollic-eabi/6.3.1/../../../../arm-atollic-eabi/lib/armv7e-m/fpu\libc_nano.a
END GROUP
START GROUP
LOAD c:/program files (x86)/atollic/truestudio for stm32 9.1.0/armtools/bin/../lib/gcc/arm-atollic-eabi/6.3.1/armv7e-m/fpu\libgcc.a
LOAD c:/program files (x86)/atollic/truestudio for stm32 9.1.0/armtools/bin/../lib/gcc/arm-atollic-eabi/6.3.1/../../../../arm-atollic-eabi/lib/armv7e-m/fpu\libc_nano.a
LOAD c:/program files (x86)/atollic/truestudio for stm32 9.1.0/armtools/bin/../lib/gcc/arm-atollic-eabi/6.3.1/../../../../arm-atollic-eabi/lib/armv7e-m/fpu\libnosys.a
END GROUP
START GROUP
LOAD c:/program files (x86)/atollic/truestudio for stm32 9.1.0/armtools/bin/../lib/gcc/arm-atollic-eabi/6.3.1/armv7e-m/fpu\libgcc.a
LOAD c:/program files (x86)/atollic/truestudio for stm32 9.1.0/armtools/bin/../lib/gcc/arm-atollic-eabi/6.3.1/../../../../arm-atollic-eabi/lib/armv7e-m/fpu\libc_nano.a
LOAD c:/program files (x86)/atollic/truestudio for stm32 9.1.0/armtools/bin/../lib/gcc/arm-atollic-eabi/6.3.1/../../../../arm-atollic-eabi/lib/armv7e-m/fpu\libnosys.a
END GROUP
LOAD c:/program files (x86)/atollic/truestudio for stm32 9.1.0/armtools/bin/../lib/gcc/arm-atollic-eabi/6.3.1/armv7e-m/fpu/crtend.o
LOAD c:/program files (x86)/atollic/truestudio for stm32 9.1.0/armtools/bin/../lib/gcc/arm-atollic-eabi/6.3.1/armv7e-m/fpu/crtn.o
                0x20030000                _estack = 0x20030000
                0x00000200                _Min_Heap_Size = 0x200
                0x00000400                _Min_Stack_Size = 0x400

.isr_vector     0x08000000      0x1ac
                0x08000000                . = ALIGN (0x4)
 *(.isr_vector)
 .isr_vector    0x08000000      0x1ac ./Startup/startup_stm32f427xx.o
                0x08000000                g_pfnVectors
                0x080001ac                . = ALIGN (0x4)

.text           0x080001b0     0xb8cc
                0x080001b0                . = ALIGN (0x4)
 *(.text)
 .text          0x080001b0        0x0 c:/program files (x86)/atollic/truestudio for stm32 9.1.0/armtools/bin/../lib/gcc/arm-atollic-eabi/6.3.1/armv7e-m/fpu/crti.o
 .text          0x080001b0       0x40 c:/program files (x86)/atollic/truestudio for stm32 9.1.0/armtools/bin/../lib/gcc/arm-atollic-eabi/6.3.1/armv7e-m/fpu/crtbegin.o
 .text          0x080001f0       0x68 ./Test_Bench_Config/dimc_test_bench_config.o
                0x080001f0                DIMC_Pbit_Recovery
                0x0800021c                DIMC_System_PBIT_Recovery
 .text          0x08000258       0x14 ./Startup/startup_stm32f427xx.o
 .text          0x0800026c       0x2c ./Src/gipsy_dimc_it.o
                0x0800026c                SysTick_Handler
                0x08000278                USART1_IRQHandler
                0x0800028c                CAN1_RX0_IRQHandler
 .text          0x08000298       0x84 ./Src/main.o
                0x08000298                main
                0x080002a6                SystemInit
                0x08000314                Error_Handler
 .text          0x0800031c      0x6bc ./DIMC_Files/can_protocol_dimc.o
                0x0800031c                HAL_CAN_RxFifo0MsgPendingCallback
                0x0800085c                CAN_Message_Transmit
 .text          0x080009d8      0x110 ./DIMC_Files/cbit_dimc.o
                0x080009d8                Perform_CBIT_Test
 .text          0x08000ae8       0x70 ./DIMC_Files/crc16.o
                0x08000ae8                Calculate_CRC16
 .text          0x08000b58      0x1d4 ./DIMC_Files/diac_mngmnt.o
                0x08000b58                Test_CH_A_Inputs
                0x08000c64                Diac_Control
 .text          0x08000d2c      0x634 ./DIMC_Files/exflash_dimc.o
                0x08000d2c                Write_EEPROM
                0x08000de8                Read_EEPROM
                0x08000f04                Init_Mem_Hal
                0x08000fd4                Erase_EEPROM
                0x08001038                Cbit_Mem_Test
                0x0800107c                Pbit_Mem_Test
 .text          0x08001360     0x1500 ./DIMC_Files/fault_management_dimc.o
                0x08001360                Fault_Management
 .text          0x08002860       0xa4 ./DIMC_Files/flash_integrity_test.o
                0x08002860                Flash_Integrity_Test
 .text          0x08002904      0x648 ./DIMC_Files/gpio_control_dimc.o
                0x08002904                Read_FLT_Channel_A_C_Inputs
                0x08002974                Read_OPER_Inputs
                0x080029ec                Read_IBIT_Input
                0x08002a18                Test_OPER_Inputs
                0x08002b84                Test_Flt_CH_B
                0x08002cf4                Test_CH_C_Inputs
                0x08002e60                Read_FLT_Sense_Inputs
                0x08002e90                Fault_Channel_OUT_Control
                0x08002ef0                Manage_OnBoard_Leds
 .text          0x08002f4c      0xfc8 ./DIMC_Files/irs_protocol_dimc.o
                0x08002f4c                HAL_UART1_RxCpltCallback
                0x08003074                Parse_IRS_Command
                0x08003260                IRS_Send_Msg_Operational_Status_Report
                0x0800349c                IRS_Send_Msg_Maintanance_Actuator_Data
                0x0800361c                IRS_Send_Msg_Log_Data_Report
                0x08003bd8                IRS_Send_Msg_Maintenance_Report
                0x08003ed8                IRS_UART1_Serial_Init
 .text          0x08003f14      0x338 ./DIMC_Files/logger_dimc.o
                0x08003f14                Set_Logger_Erase_Flag
                0x08003f2c                Get_Logger_Status
                0x08003f44                Set_Read_Request
                0x08003f70                Write_Event_To_Memory
                0x08004068                Read_Events_From_Memory
                0x080040c8                Erase_Memory
                0x0800417c                Proccess_Logger_Request_from_IRS
 .text          0x0800424c      0x514 ./DIMC_Files/mcu_config_dimc.o
                0x0800424c                MCU_Periph_Config
                0x08004398                MCU_CAN_Interface_Init
 .text          0x08004760       0x60 ./DIMC_Files/module_init_dimc.o
                0x08004760                DIMC_Module_Init
 .text          0x080047c0      0xa90 ./DIMC_Files/pbit_dimc.o
                0x080047c0                Perform_DIMC_PBIT_Test
                0x080048a4                Perform_System_PBIT_Test
 .text          0x08005250     0x1c98 ./DIMC_Files/periodic_dimc.o
                0x08005250                Periodic_Tasks_Scheduler
 .text          0x08006ee8      0x628 ./DIMC_Files/system_params_dimc.o
                0x08006ee8                Get_Actuator_CurrLimits
                0x08006f60                Get_Actuator_VibrLimits
                0x08006fd8                Init_Ctrys_Status_Table
                0x0800703c                Get_Actuator_Status
                0x08007090                Get_CTRY_Status
                0x080070d0                Get_CTRY_All_Actuators_Status
                0x08007114                Set_Actuator_Status
                0x080071c0                Set_CTRY_Status
                0x08007238                Set_CTRY_All_Actuators_Status_FL
                0x080072d4                Monitor_Status_Table
                0x08007374                Get_Actuator_Speed
                0x08007404                Get_Equipped_Actuators
                0x08007474                Get_CTRY_DIAC_Ch
                0x080074b4                Get_Actuator_Id
 .text          0x08007510      0x1bc ./DIMC_Files/voltage_meas_dimc.o
                0x08007510                Test_OnBoard_Voltage
 .text          0x080076cc      0x104 ./DIMC_Files/wdog.o
                0x080076cc                WDOG_Perform_Test
                0x0800776c                WDOG_Get_Test_Result
                0x08007784                WDOG_Trigger
 .text          0x080077d0      0x238 ./02_STM_Drivers/Src/gipsy_hal_adc.o
                0x080077d0                HAL_ADC_Init
                0x08007938                HAL_ADC_Perform_Conversion
 .text          0x08007a08      0x7b4 ./02_STM_Drivers/Src/gipsy_hal_can.o
                0x08007a08                HAL_CAN_Init
                0x08007e9c                HAL_CAN_Stop
                0x08007ec8                HAL_CAN_AddTxMessage
                0x08008014                HAL_CAN_GetRxMessage
                0x08008184                HAL_CAN_IRQHandler
 .text          0x080081bc      0x1ec ./02_STM_Drivers/Src/gipsy_hal_cortex.o
                0x080081bc                HAL_NVIC_SetPriorityGrouping
                0x08008224                HAL_NVIC_SetPriority
                0x0800831a                HAL_NVIC_EnableIRQ
                0x0800835c                HAL_SYSTICK_Config
 .text          0x080083a8      0x528 ./02_STM_Drivers/Src/gipsy_hal_gpio.o
                0x080083a8                HAL_GPIO_Init
                0x080086f8                HAL_GPIO_ReadPin
                0x08008794                HAL_GPIO_WritePin
                0x08008844                HAL_GPIO_TogglePin
 .text          0x080088d0     0x1134 ./02_STM_Drivers/Src/gipsy_hal_i2c_dimc.o
                0x080088d0                HAL_I2C_Init
                0x08008a7c                HAL_I2C_Mem_Write
                0x08008c94                HAL_I2C_Mem_Read
 .text          0x08009a04      0x5a0 ./02_STM_Drivers/Src/gipsy_hal_rcc.o
                0x08009a04                HAL_RCC_OscConfig
                0x08009b98                HAL_RCC_ClockConfig
                0x08009d9c                HAL_RCC_GetPCLK1Freq
                0x08009dcc                HAL_RCC_GetPCLK2Freq
                0x08009dfc                HAL_RCCEx_PeriphCLKConfig
                0x08009f34                HAL_IncTick
                0x08009f58                HAL_GetTick
                0x08009f70                HAL_Delay
 .text          0x08009fa4      0x7ec ./02_STM_Drivers/Src/gipsy_hal_rtc.o
                0x08009fa4                RTC_StartUp_Initialization
                0x0800a01c                RTC_SetDateTime
                0x0800a1b8                RTC_GetDateTime
 .text          0x0800a790      0x5d0 ./02_STM_Drivers/Src/gipsy_hal_uart.o
                0x0800a790                HAL_UART_Init
                0x0800a974                HAL_UART_Transmit
                0x0800ab3c                HAL_UART_IRQHandler
                0x0800ac46                HAL_UART_Receive_IT
 .text          0x0800ad60        0x0 c:/program files (x86)/atollic/truestudio for stm32 9.1.0/armtools/bin/../lib/gcc/arm-atollic-eabi/6.3.1/../../../../arm-atollic-eabi/lib/armv7e-m/fpu\libc_nano.a(lib_a-init.o)
 .text          0x0800ad60        0x0 c:/program files (x86)/atollic/truestudio for stm32 9.1.0/armtools/bin/../lib/gcc/arm-atollic-eabi/6.3.1/../../../../arm-atollic-eabi/lib/armv7e-m/fpu\libc_nano.a(lib_a-memset.o)
 .text          0x0800ad60      0x370 c:/program files (x86)/atollic/truestudio for stm32 9.1.0/armtools/bin/../lib/gcc/arm-atollic-eabi/6.3.1/armv7e-m/fpu\libgcc.a(_arm_addsubdf3.o)
                0x0800ad60                __aeabi_drsub
                0x0800ad68                __aeabi_dsub
                0x0800ad68                __subdf3
                0x0800ad6c                __aeabi_dadd
                0x0800ad6c                __adddf3
                0x0800afe4                __floatunsidf
                0x0800afe4                __aeabi_ui2d
                0x0800b004                __floatsidf
                0x0800b004                __aeabi_i2d
                0x0800b028                __aeabi_f2d
                0x0800b028                __extendsfdf2
                0x0800b064                __floatundidf
                0x0800b064                __aeabi_ul2d
                0x0800b074                __floatdidf
                0x0800b074                __aeabi_l2d
 .text          0x0800b0d0      0x424 c:/program files (x86)/atollic/truestudio for stm32 9.1.0/armtools/bin/../lib/gcc/arm-atollic-eabi/6.3.1/armv7e-m/fpu\libgcc.a(_arm_muldivdf3.o)
                0x0800b0d0                __aeabi_dmul
                0x0800b0d0                __muldf3
                0x0800b324                __divdf3
                0x0800b324                __aeabi_ddiv
 .text          0x0800b4f4      0x110 c:/program files (x86)/atollic/truestudio for stm32 9.1.0/armtools/bin/../lib/gcc/arm-atollic-eabi/6.3.1/armv7e-m/fpu\libgcc.a(_arm_cmpdf2.o)
                0x0800b4f4                __gtdf2
                0x0800b4f4                __gedf2
                0x0800b4fc                __ltdf2
                0x0800b4fc                __ledf2
                0x0800b504                __nedf2
                0x0800b504                __eqdf2
                0x0800b504                __cmpdf2
                0x0800b580                __aeabi_cdrcmple
                0x0800b590                __aeabi_cdcmpeq
                0x0800b590                __aeabi_cdcmple
                0x0800b5a0                __aeabi_dcmpeq
                0x0800b5b4                __aeabi_dcmplt
                0x0800b5c8                __aeabi_dcmple
                0x0800b5dc                __aeabi_dcmpge
                0x0800b5f0                __aeabi_dcmpgt
 .text          0x0800b604       0xa0 c:/program files (x86)/atollic/truestudio for stm32 9.1.0/armtools/bin/../lib/gcc/arm-atollic-eabi/6.3.1/armv7e-m/fpu\libgcc.a(_arm_truncdfsf2.o)
                0x0800b604                __truncdfsf2
                0x0800b604                __aeabi_d2f
 .text          0x0800b6a4       0x30 c:/program files (x86)/atollic/truestudio for stm32 9.1.0/armtools/bin/../lib/gcc/arm-atollic-eabi/6.3.1/armv7e-m/fpu\libgcc.a(_aeabi_uldivmod.o)
                0x0800b6a4                __aeabi_uldivmod
 .text          0x0800b6d4      0x2dc c:/program files (x86)/atollic/truestudio for stm32 9.1.0/armtools/bin/../lib/gcc/arm-atollic-eabi/6.3.1/armv7e-m/fpu\libgcc.a(_udivmoddi4.o)
                0x0800b6d4                __udivmoddi4
 .text          0x0800b9b0        0x4 c:/program files (x86)/atollic/truestudio for stm32 9.1.0/armtools/bin/../lib/gcc/arm-atollic-eabi/6.3.1/armv7e-m/fpu\libgcc.a(_dvmd_tls.o)
                0x0800b9b0                __aeabi_idiv0
                0x0800b9b0                __aeabi_ldiv0
 .text          0x0800b9b4        0x0 c:/program files (x86)/atollic/truestudio for stm32 9.1.0/armtools/bin/../lib/gcc/arm-atollic-eabi/6.3.1/armv7e-m/fpu/crtend.o
 .text          0x0800b9b4        0x0 c:/program files (x86)/atollic/truestudio for stm32 9.1.0/armtools/bin/../lib/gcc/arm-atollic-eabi/6.3.1/armv7e-m/fpu/crtn.o
 *(.text*)
 .text.Reset_Handler
                0x0800b9b4       0x50 ./Startup/startup_stm32f427xx.o
                0x0800b9b4                Reset_Handler
 .text.Default_Handler
                0x0800ba04        0x2 ./Startup/startup_stm32f427xx.o
                0x0800ba04                RTC_Alarm_IRQHandler
                0x0800ba04                HASH_RNG_IRQHandler
                0x0800ba04                EXTI2_IRQHandler
                0x0800ba04                TIM8_CC_IRQHandler
                0x0800ba04                DebugMon_Handler
                0x0800ba04                UART8_IRQHandler
                0x0800ba04                SPI4_IRQHandler
                0x0800ba04                TIM1_CC_IRQHandler
                0x0800ba04                DMA2_Stream5_IRQHandler
                0x0800ba04                HardFault_Handler
                0x0800ba04                DMA1_Stream5_IRQHandler
                0x0800ba04                PVD_IRQHandler
                0x0800ba04                SDIO_IRQHandler
                0x0800ba04                TAMP_STAMP_IRQHandler
                0x0800ba04                PendSV_Handler
                0x0800ba04                NMI_Handler
                0x0800ba04                CAN2_RX1_IRQHandler
                0x0800ba04                EXTI3_IRQHandler
                0x0800ba04                TIM8_TRG_COM_TIM14_IRQHandler
                0x0800ba04                TIM1_UP_TIM10_IRQHandler
                0x0800ba04                TIM8_UP_TIM13_IRQHandler
                0x0800ba04                I2C3_ER_IRQHandler
                0x0800ba04                EXTI0_IRQHandler
                0x0800ba04                I2C2_EV_IRQHandler
                0x0800ba04                DMA1_Stream2_IRQHandler
                0x0800ba04                FPU_IRQHandler
                0x0800ba04                OTG_HS_WKUP_IRQHandler
                0x0800ba04                UsageFault_Handler
                0x0800ba04                CAN2_SCE_IRQHandler
                0x0800ba04                DMA2_Stream2_IRQHandler
                0x0800ba04                SPI1_IRQHandler
                0x0800ba04                TIM6_DAC_IRQHandler
                0x0800ba04                TIM1_BRK_TIM9_IRQHandler
                0x0800ba04                DCMI_IRQHandler
                0x0800ba04                CAN2_RX0_IRQHandler
                0x0800ba04                DMA2_Stream3_IRQHandler
                0x0800ba04                USART6_IRQHandler
                0x0800ba04                USART3_IRQHandler
                0x0800ba04                CAN1_RX1_IRQHandler
                0x0800ba04                UART5_IRQHandler
                0x0800ba04                DMA2_Stream0_IRQHandler
                0x0800ba04                TIM4_IRQHandler
                0x0800ba04                I2C1_EV_IRQHandler
                0x0800ba04                DMA1_Stream6_IRQHandler
                0x0800ba04                DMA1_Stream1_IRQHandler
                0x0800ba04                UART4_IRQHandler
                0x0800ba04                TIM3_IRQHandler
                0x0800ba04                RCC_IRQHandler
                0x0800ba04                TIM8_BRK_TIM12_IRQHandler
                0x0800ba04                Default_Handler
                0x0800ba04                EXTI15_10_IRQHandler
                0x0800ba04                ADC_IRQHandler
                0x0800ba04                DMA1_Stream7_IRQHandler
                0x0800ba04                SPI5_IRQHandler
                0x0800ba04                TIM7_IRQHandler
                0x0800ba04                CAN2_TX_IRQHandler
                0x0800ba04                TIM5_IRQHandler
                0x0800ba04                DMA2_Stream7_IRQHandler
                0x0800ba04                I2C3_EV_IRQHandler
                0x0800ba04                EXTI9_5_IRQHandler
                0x0800ba04                RTC_WKUP_IRQHandler
                0x0800ba04                ETH_WKUP_IRQHandler
                0x0800ba04                SPI2_IRQHandler
                0x0800ba04                OTG_HS_EP1_IN_IRQHandler
                0x0800ba04                MemManage_Handler
                0x0800ba04                DMA1_Stream0_IRQHandler
                0x0800ba04                CAN1_TX_IRQHandler
                0x0800ba04                SVC_Handler
                0x0800ba04                EXTI4_IRQHandler
                0x0800ba04                ETH_IRQHandler
                0x0800ba04                OTG_HS_EP1_OUT_IRQHandler
                0x0800ba04                WWDG_IRQHandler
                0x0800ba04                SPI6_IRQHandler
                0x0800ba04                TIM2_IRQHandler
                0x0800ba04                OTG_FS_WKUP_IRQHandler
                0x0800ba04                TIM1_TRG_COM_TIM11_IRQHandler
                0x0800ba04                OTG_HS_IRQHandler
                0x0800ba04                DMA2D_IRQHandler
                0x0800ba04                EXTI1_IRQHandler
                0x0800ba04                UART7_IRQHandler
                0x0800ba04                USART2_IRQHandler
                0x0800ba04                I2C2_ER_IRQHandler
                0x0800ba04                DMA2_Stream1_IRQHandler
                0x0800ba04                CAN1_SCE_IRQHandler
                0x0800ba04                FLASH_IRQHandler
                0x0800ba04                DMA2_Stream4_IRQHandler
                0x0800ba04                BusFault_Handler
                0x0800ba04                OTG_FS_IRQHandler
                0x0800ba04                SPI3_IRQHandler
                0x0800ba04                DMA1_Stream4_IRQHandler
                0x0800ba04                I2C1_ER_IRQHandler
                0x0800ba04                FMC_IRQHandler
                0x0800ba04                DMA2_Stream6_IRQHandler
                0x0800ba04                SAI1_IRQHandler
                0x0800ba04                DMA1_Stream3_IRQHandler
 *fill*         0x0800ba06        0x2 
 .text.__libc_init_array
                0x0800ba08       0x48 c:/program files (x86)/atollic/truestudio for stm32 9.1.0/armtools/bin/../lib/gcc/arm-atollic-eabi/6.3.1/../../../../arm-atollic-eabi/lib/armv7e-m/fpu\libc_nano.a(lib_a-init.o)
                0x0800ba08                __libc_init_array
 .text.memset   0x0800ba50       0x10 c:/program files (x86)/atollic/truestudio for stm32 9.1.0/armtools/bin/../lib/gcc/arm-atollic-eabi/6.3.1/../../../../arm-atollic-eabi/lib/armv7e-m/fpu\libc_nano.a(lib_a-memset.o)
                0x0800ba50                memset
 *(.glue_7)
 .glue_7        0x0800ba60        0x0 linker stubs
 *(.glue_7t)
 .glue_7t       0x0800ba60        0x0 linker stubs
 *(.eh_frame)
 .eh_frame      0x0800ba60        0x0 c:/program files (x86)/atollic/truestudio for stm32 9.1.0/armtools/bin/../lib/gcc/arm-atollic-eabi/6.3.1/armv7e-m/fpu/crtbegin.o
 .eh_frame      0x0800ba60        0x4 c:/program files (x86)/atollic/truestudio for stm32 9.1.0/armtools/bin/../lib/gcc/arm-atollic-eabi/6.3.1/armv7e-m/fpu/crtend.o
 *(.init)
 .init          0x0800ba64        0x4 c:/program files (x86)/atollic/truestudio for stm32 9.1.0/armtools/bin/../lib/gcc/arm-atollic-eabi/6.3.1/armv7e-m/fpu/crti.o
                0x0800ba64                _init
 .init          0x0800ba68        0x8 c:/program files (x86)/atollic/truestudio for stm32 9.1.0/armtools/bin/../lib/gcc/arm-atollic-eabi/6.3.1/armv7e-m/fpu/crtn.o
 *(.fini)
 .fini          0x0800ba70        0x4 c:/program files (x86)/atollic/truestudio for stm32 9.1.0/armtools/bin/../lib/gcc/arm-atollic-eabi/6.3.1/armv7e-m/fpu/crti.o
                0x0800ba70                _fini
 .fini          0x0800ba74        0x8 c:/program files (x86)/atollic/truestudio for stm32 9.1.0/armtools/bin/../lib/gcc/arm-atollic-eabi/6.3.1/armv7e-m/fpu/crtn.o
                0x0800ba7c                . = ALIGN (0x4)
                0x0800ba7c                _etext = .

.vfp11_veneer   0x0800ba7c        0x0
 .vfp11_veneer  0x0800ba7c        0x0 linker stubs

.v4_bx          0x0800ba7c        0x0
 .v4_bx         0x0800ba7c        0x0 linker stubs

.iplt           0x0800ba7c        0x0
 .iplt          0x0800ba7c        0x0 c:/program files (x86)/atollic/truestudio for stm32 9.1.0/armtools/bin/../lib/gcc/arm-atollic-eabi/6.3.1/armv7e-m/fpu/crtbegin.o

.rodata         0x0800ba7c      0x710
                0x0800ba7c                . = ALIGN (0x4)
 *(.rodata)
 .rodata        0x0800ba7c      0x200 ./DIMC_Files/crc16.o
 .rodata        0x0800bc7c       0x24 ./DIMC_Files/diac_mngmnt.o
                0x0800bc7c                ST_DIAC_PS_PIN
 .rodata        0x0800bca0       0x68 ./DIMC_Files/gpio_control_dimc.o
                0x0800bca0                ST_FAULT_CH_OUT_PIN
 .rodata        0x0800bd08      0x44c ./DIMC_Files/system_params_dimc.o
 .rodata        0x0800c154        0x8 ./02_STM_Drivers/Src/gipsy_hal_can.o
 .rodata        0x0800c15c       0x18 ./02_STM_Drivers/Src/gipsy_hal_rcc.o
                0x0800c15c                AHBPrescTable
                0x0800c16c                APBPrescTable
 .rodata        0x0800c174       0x18 ./02_STM_Drivers/Src/gipsy_hal_rtc.o
 *(.rodata*)
                0x0800c18c                . = ALIGN (0x4)

.ARM.extab      0x0800c18c        0x0
 *(.ARM.extab* .gnu.linkonce.armextab.*)
 .ARM.extab     0x0800c18c        0x0 c:/program files (x86)/atollic/truestudio for stm32 9.1.0/armtools/bin/../lib/gcc/arm-atollic-eabi/6.3.1/armv7e-m/fpu\libgcc.a(_udivmoddi4.o)

.ARM            0x0800c18c        0x8
                0x0800c18c                __exidx_start = .
 *(.ARM.exidx*)
 .ARM.exidx     0x0800c18c        0x8 c:/program files (x86)/atollic/truestudio for stm32 9.1.0/armtools/bin/../lib/gcc/arm-atollic-eabi/6.3.1/armv7e-m/fpu\libgcc.a(_udivmoddi4.o)
                0x0800c194                __exidx_end = .

.rel.dyn        0x0800c194        0x0
 .rel.iplt      0x0800c194        0x0 c:/program files (x86)/atollic/truestudio for stm32 9.1.0/armtools/bin/../lib/gcc/arm-atollic-eabi/6.3.1/armv7e-m/fpu/crtbegin.o

.preinit_array  0x0800c194        0x0
                0x0800c194                PROVIDE (__preinit_array_start, .)
 *(.preinit_array*)
                0x0800c194                PROVIDE (__preinit_array_end, .)

.init_array     0x0800c194        0x4
                0x0800c194                PROVIDE (__init_array_start, .)
 *(SORT(.init_array.*))
 *(.init_array*)
 .init_array    0x0800c194        0x4 c:/program files (x86)/atollic/truestudio for stm32 9.1.0/armtools/bin/../lib/gcc/arm-atollic-eabi/6.3.1/armv7e-m/fpu/crtbegin.o
                0x0800c198                PROVIDE (__init_array_end, .)

.fini_array     0x0800c198        0x4
                [!provide]                PROVIDE (__fini_array_start, .)
 *(SORT(.fini_array.*))
 *(.fini_array*)
 .fini_array    0x0800c198        0x4 c:/program files (x86)/atollic/truestudio for stm32 9.1.0/armtools/bin/../lib/gcc/arm-atollic-eabi/6.3.1/armv7e-m/fpu/crtbegin.o
                [!provide]                PROVIDE (__fini_array_end, .)
                0x0800c19c                _sidata = LOADADDR (.data)

.data           0x20000000      0xc48 load address 0x0800c19c
                0x20000000                . = ALIGN (0x4)
                0x20000000                _sdata = .
 *(.data)
 .data          0x20000000        0x0 c:/program files (x86)/atollic/truestudio for stm32 9.1.0/armtools/bin/../lib/gcc/arm-atollic-eabi/6.3.1/armv7e-m/fpu/crti.o
 .data          0x20000000        0x4 c:/program files (x86)/atollic/truestudio for stm32 9.1.0/armtools/bin/../lib/gcc/arm-atollic-eabi/6.3.1/armv7e-m/fpu/crtbegin.o
                0x20000000                __dso_handle
 .data          0x20000004        0x0 ./Test_Bench_Config/dimc_test_bench_config.o
 .data          0x20000004        0x0 ./Startup/startup_stm32f427xx.o
 .data          0x20000004        0x0 ./Src/gipsy_dimc_it.o
 .data          0x20000004        0x0 ./Src/main.o
 .data          0x20000004        0x0 ./DIMC_Files/can_protocol_dimc.o
 .data          0x20000004        0x0 ./DIMC_Files/cbit_dimc.o
 .data          0x20000004        0x0 ./DIMC_Files/crc16.o
 .data          0x20000004        0x0 ./DIMC_Files/diac_mngmnt.o
 .data          0x20000004        0x8 ./DIMC_Files/exflash_dimc.o
                0x20000004                WrBuffer
 .data          0x2000000c      0x4cc ./DIMC_Files/fault_management_dimc.o
                0x2000000c                Prev_Sys_Status
 .data          0x200004d8        0x0 ./DIMC_Files/flash_integrity_test.o
 .data          0x200004d8        0x0 ./DIMC_Files/gpio_control_dimc.o
 .data          0x200004d8        0x2 ./DIMC_Files/irs_protocol_dimc.o
                0x200004d8                RX_Byte
                0x200004d9                ucCyclic_Msg_Counter
 .data          0x200004da        0x0 ./DIMC_Files/logger_dimc.o
 .data          0x200004da        0x0 ./DIMC_Files/mcu_config_dimc.o
 *fill*         0x200004da        0x2 
 .data          0x200004dc      0x534 ./DIMC_Files/module_init_dimc.o
                0x200004dc                g_CTRYs_SW_Ver
                0x20000504                g_SysStatus
                0x200009d0                g_IBIT_Result
 .data          0x20000a10        0x0 ./DIMC_Files/pbit_dimc.o
 .data          0x20000a10      0x1c0 ./DIMC_Files/periodic_dimc.o
                0x20000a10                Next_Sys_Mod
                0x20000a14                ctry_operation_data_table
                0x20000ba4                oper_handler
                0x20000bb8                Disc_Prev_State
                0x20000bc4                Disc_Curr_State
 .data          0x20000bd0        0x0 ./DIMC_Files/system_params_dimc.o
 .data          0x20000bd0        0xc ./DIMC_Files/voltage_meas_dimc.o
                0x20000bd0                g_VoltageMeasurement
                0x20000bd4                VoltHwParams
 .data          0x20000bdc        0x1 ./DIMC_Files/wdog.o
 *fill*         0x20000bdd        0x3 
 .data          0x20000be0       0x30 ./02_STM_Drivers/Src/gipsy_hal_adc.o
 .data          0x20000c10       0x28 ./02_STM_Drivers/Src/gipsy_hal_can.o
                0x20000c10                hCAN1
 .data          0x20000c38        0x0 ./02_STM_Drivers/Src/gipsy_hal_cortex.o
 .data          0x20000c38        0x0 ./02_STM_Drivers/Src/gipsy_hal_gpio.o
 .data          0x20000c38        0x0 ./02_STM_Drivers/Src/gipsy_hal_i2c_dimc.o
 .data          0x20000c38        0x8 ./02_STM_Drivers/Src/gipsy_hal_rcc.o
                0x20000c38                Tick_Freq
                0x20000c3c                SystemCoreClock
 .data          0x20000c40        0x7 ./02_STM_Drivers/Src/gipsy_hal_rtc.o
 .data          0x20000c47        0x0 ./02_STM_Drivers/Src/gipsy_hal_uart.o
 .data          0x20000c47        0x0 c:/program files (x86)/atollic/truestudio for stm32 9.1.0/armtools/bin/../lib/gcc/arm-atollic-eabi/6.3.1/../../../../arm-atollic-eabi/lib/armv7e-m/fpu\libc_nano.a(lib_a-init.o)
 .data          0x20000c47        0x0 c:/program files (x86)/atollic/truestudio for stm32 9.1.0/armtools/bin/../lib/gcc/arm-atollic-eabi/6.3.1/../../../../arm-atollic-eabi/lib/armv7e-m/fpu\libc_nano.a(lib_a-memset.o)
 .data          0x20000c47        0x0 c:/program files (x86)/atollic/truestudio for stm32 9.1.0/armtools/bin/../lib/gcc/arm-atollic-eabi/6.3.1/armv7e-m/fpu\libgcc.a(_arm_addsubdf3.o)
 .data          0x20000c47        0x0 c:/program files (x86)/atollic/truestudio for stm32 9.1.0/armtools/bin/../lib/gcc/arm-atollic-eabi/6.3.1/armv7e-m/fpu\libgcc.a(_arm_muldivdf3.o)
 .data          0x20000c47        0x0 c:/program files (x86)/atollic/truestudio for stm32 9.1.0/armtools/bin/../lib/gcc/arm-atollic-eabi/6.3.1/armv7e-m/fpu\libgcc.a(_arm_cmpdf2.o)
 .data          0x20000c47        0x0 c:/program files (x86)/atollic/truestudio for stm32 9.1.0/armtools/bin/../lib/gcc/arm-atollic-eabi/6.3.1/armv7e-m/fpu\libgcc.a(_arm_truncdfsf2.o)
 .data          0x20000c47        0x0 c:/program files (x86)/atollic/truestudio for stm32 9.1.0/armtools/bin/../lib/gcc/arm-atollic-eabi/6.3.1/armv7e-m/fpu\libgcc.a(_aeabi_uldivmod.o)
 .data          0x20000c47        0x0 c:/program files (x86)/atollic/truestudio for stm32 9.1.0/armtools/bin/../lib/gcc/arm-atollic-eabi/6.3.1/armv7e-m/fpu\libgcc.a(_udivmoddi4.o)
 .data          0x20000c47        0x0 c:/program files (x86)/atollic/truestudio for stm32 9.1.0/armtools/bin/../lib/gcc/arm-atollic-eabi/6.3.1/armv7e-m/fpu\libgcc.a(_dvmd_tls.o)
 .data          0x20000c47        0x0 c:/program files (x86)/atollic/truestudio for stm32 9.1.0/armtools/bin/../lib/gcc/arm-atollic-eabi/6.3.1/armv7e-m/fpu/crtend.o
 .data          0x20000c47        0x0 c:/program files (x86)/atollic/truestudio for stm32 9.1.0/armtools/bin/../lib/gcc/arm-atollic-eabi/6.3.1/armv7e-m/fpu/crtn.o
 *(.data*)
                0x20000c48                . = ALIGN (0x4)
 *fill*         0x20000c47        0x1 
                0x20000c48                _edata = .
                0x0800cde4                _siccmram = LOADADDR (.ccmram)

.igot.plt       0x20000c48        0x0 load address 0x0800cde4
 .igot.plt      0x20000c48        0x0 c:/program files (x86)/atollic/truestudio for stm32 9.1.0/armtools/bin/../lib/gcc/arm-atollic-eabi/6.3.1/armv7e-m/fpu/crtbegin.o

.ccmram         0x10000000        0x0 load address 0x0800cde4
                0x10000000                . = ALIGN (0x4)
                0x10000000                _sccmram = .
 *(.ccmram)
 *(.ccmram*)
                0x10000000                . = ALIGN (0x4)
                0x10000000                _eccmram = .
                0x10000000                . = ALIGN (0x4)

.bss            0x20000c48      0x724
                0x20000c48                _sbss = .
                0x20000c48                __bss_start__ = _sbss
 *(.bss)
 .bss           0x20000c48        0x0 c:/program files (x86)/atollic/truestudio for stm32 9.1.0/armtools/bin/../lib/gcc/arm-atollic-eabi/6.3.1/armv7e-m/fpu/crti.o
 .bss           0x20000c48       0x1c c:/program files (x86)/atollic/truestudio for stm32 9.1.0/armtools/bin/../lib/gcc/arm-atollic-eabi/6.3.1/armv7e-m/fpu/crtbegin.o
 .bss           0x20000c64        0x0 ./Test_Bench_Config/dimc_test_bench_config.o
 .bss           0x20000c64        0x0 ./Startup/startup_stm32f427xx.o
 .bss           0x20000c64        0x0 ./Src/gipsy_dimc_it.o
 .bss           0x20000c64        0x0 ./Src/main.o
 .bss           0x20000c64        0x0 ./DIMC_Files/can_protocol_dimc.o
 .bss           0x20000c64        0x1 ./DIMC_Files/cbit_dimc.o
                0x20000c64                Oper_Fl_Detected
 .bss           0x20000c65        0x0 ./DIMC_Files/crc16.o
 .bss           0x20000c65        0x0 ./DIMC_Files/diac_mngmnt.o
 *fill*         0x20000c65        0x3 
 .bss           0x20000c68       0x15 ./DIMC_Files/exflash_dimc.o
                0x20000c68                Mem_HAL
                0x20000c70                RdBuffer
                0x20000c78                I2C_devSelect_address_WR
                0x20000c79                I2C_devSelect_address_RD
                0x20000c7a                I2C_mem_address
                0x20000c7c                EEPROM_Status
 *fill*         0x20000c7d        0x3 
 .bss           0x20000c80       0x25 ./DIMC_Files/fault_management_dimc.o
                0x20000c80                Monitor_CTRY_Time
                0x20000c84                Number_Abnormal_Act_report
                0x20000c86                Fault_Value
                0x20000c88                Spare
                0x20000c8c                FLT_CH_Turn_On
                0x20000c8f                Flt_Ch_Activate
                0x20000c90                Current_FL_Ctrays
                0x20000c94                Prev_FL_Ctrays
                0x20000c98                Abnormal_Act_Activation_FLT_Detected
                0x20000c99                Prev_Sens_A_FLT
                0x20000c9c                Prev_Test_Status
 .bss           0x20000ca5        0x0 ./DIMC_Files/flash_integrity_test.o
 .bss           0x20000ca5        0x0 ./DIMC_Files/gpio_control_dimc.o
 *fill*         0x20000ca5        0x3 
 .bss           0x20000ca8       0x46 ./DIMC_Files/irs_protocol_dimc.o
                0x20000ca8                IRS_Errors_Counter
                0x20000cac                Ser_Rx_Buffer
                0x20000ccc                Received_Msg
                0x20000cea                bCmd_Ready_For_Parse
                0x20000ceb                Buff_index
                0x20000cec                ucLast_Message_Status
                0x20000ced                Cmd_Data_length_Bytes
 *fill*         0x20000cee        0x2 
 .bss           0x20000cf0       0xa8 ./DIMC_Files/logger_dimc.o
                0x20000cf0                g_Logger_Status
                0x20000cf1                Logger_Erase_Flag
                0x20000cf4                StReadFromLogger
                0x20000cf8                Event_buffer
 .bss           0x20000d98       0x84 ./DIMC_Files/mcu_config_dimc.o
                0x20000d98                g_HandleI2C2_ExFlash
                0x20000de4                g_HandleUart1Irs
 .bss           0x20000e1c       0x11 ./DIMC_Files/module_init_dimc.o
                0x20000e1c                g_Sys_OPER_Time_Sec
                0x20000e20                g_Sys_Acc_OPER_Time_Sec
                0x20000e24                g_SysTestsStatus
 *fill*         0x20000e2d        0x3 
 .bss           0x20000e30      0x2d0 ./DIMC_Files/pbit_dimc.o
                0x20000e30                g_CTRY_Resp
 .bss           0x20001100      0x1a8 ./DIMC_Files/periodic_dimc.o
                0x20001100                Spare_Bytes
                0x20001104                Data_Buf
                0x2000110c                Act_log_st
                0x2000116c                g_Maint_ActuatorData
                0x20001174                g_Actuator_Man_Req
                0x20001184                Timer
                0x20001284                Ctry_Status_Hal
 .bss           0x200012a8       0xa0 ./DIMC_Files/system_params_dimc.o
 .bss           0x20001348        0x0 ./DIMC_Files/voltage_meas_dimc.o
 .bss           0x20001348        0x0 ./DIMC_Files/wdog.o
 .bss           0x20001348        0x0 ./02_STM_Drivers/Src/gipsy_hal_adc.o
 .bss           0x20001348        0x0 ./02_STM_Drivers/Src/gipsy_hal_can.o
 .bss           0x20001348        0x0 ./02_STM_Drivers/Src/gipsy_hal_cortex.o
 .bss           0x20001348        0x0 ./02_STM_Drivers/Src/gipsy_hal_gpio.o
 .bss           0x20001348        0x0 ./02_STM_Drivers/Src/gipsy_hal_i2c_dimc.o
 .bss           0x20001348        0x4 ./02_STM_Drivers/Src/gipsy_hal_rcc.o
                0x20001348                Tick_Value
 .bss           0x2000134c       0x1c ./02_STM_Drivers/Src/gipsy_hal_rtc.o
                0x2000134c                hRTC
 .bss           0x20001368        0x0 ./02_STM_Drivers/Src/gipsy_hal_uart.o
 .bss           0x20001368        0x0 c:/program files (x86)/atollic/truestudio for stm32 9.1.0/armtools/bin/../lib/gcc/arm-atollic-eabi/6.3.1/../../../../arm-atollic-eabi/lib/armv7e-m/fpu\libc_nano.a(lib_a-init.o)
 .bss           0x20001368        0x0 c:/program files (x86)/atollic/truestudio for stm32 9.1.0/armtools/bin/../lib/gcc/arm-atollic-eabi/6.3.1/../../../../arm-atollic-eabi/lib/armv7e-m/fpu\libc_nano.a(lib_a-memset.o)
 .bss           0x20001368        0x0 c:/program files (x86)/atollic/truestudio for stm32 9.1.0/armtools/bin/../lib/gcc/arm-atollic-eabi/6.3.1/armv7e-m/fpu\libgcc.a(_arm_addsubdf3.o)
 .bss           0x20001368        0x0 c:/program files (x86)/atollic/truestudio for stm32 9.1.0/armtools/bin/../lib/gcc/arm-atollic-eabi/6.3.1/armv7e-m/fpu\libgcc.a(_arm_muldivdf3.o)
 .bss           0x20001368        0x0 c:/program files (x86)/atollic/truestudio for stm32 9.1.0/armtools/bin/../lib/gcc/arm-atollic-eabi/6.3.1/armv7e-m/fpu\libgcc.a(_arm_cmpdf2.o)
 .bss           0x20001368        0x0 c:/program files (x86)/atollic/truestudio for stm32 9.1.0/armtools/bin/../lib/gcc/arm-atollic-eabi/6.3.1/armv7e-m/fpu\libgcc.a(_arm_truncdfsf2.o)
 .bss           0x20001368        0x0 c:/program files (x86)/atollic/truestudio for stm32 9.1.0/armtools/bin/../lib/gcc/arm-atollic-eabi/6.3.1/armv7e-m/fpu\libgcc.a(_aeabi_uldivmod.o)
 .bss           0x20001368        0x0 c:/program files (x86)/atollic/truestudio for stm32 9.1.0/armtools/bin/../lib/gcc/arm-atollic-eabi/6.3.1/armv7e-m/fpu\libgcc.a(_udivmoddi4.o)
 .bss           0x20001368        0x0 c:/program files (x86)/atollic/truestudio for stm32 9.1.0/armtools/bin/../lib/gcc/arm-atollic-eabi/6.3.1/armv7e-m/fpu\libgcc.a(_dvmd_tls.o)
 .bss           0x20001368        0x0 c:/program files (x86)/atollic/truestudio for stm32 9.1.0/armtools/bin/../lib/gcc/arm-atollic-eabi/6.3.1/armv7e-m/fpu/crtend.o
 .bss           0x20001368        0x0 c:/program files (x86)/atollic/truestudio for stm32 9.1.0/armtools/bin/../lib/gcc/arm-atollic-eabi/6.3.1/armv7e-m/fpu/crtn.o
 *(.bss*)
 *(COMMON)
 COMMON         0x20001368        0x4 ./DIMC_Files/periodic_dimc.o
                0x20001368                oper_curr_time
                0x2000136c                . = ALIGN (0x4)
                0x2000136c                _ebss = .
                0x2000136c                __bss_end__ = _ebss

._user_heap_stack
                0x2000136c      0x600
                0x2000136c                . = ALIGN (0x4)
                [!provide]                PROVIDE (end, .)
                [!provide]                PROVIDE (_end, .)
                0x2000156c                . = (. + _Min_Heap_Size)
 *fill*         0x2000136c      0x200 
                0x2000196c                . = (. + _Min_Stack_Size)
 *fill*         0x2000156c      0x400 
                0x2000196c                . = ALIGN (0x4)

/DISCARD/
 libc.a(*)
 libm.a(*)
 libgcc.a(*)

.ARM.attributes
                0x00000000       0x30
 *(.ARM.attributes)
 .ARM.attributes
                0x00000000       0x22 c:/program files (x86)/atollic/truestudio for stm32 9.1.0/armtools/bin/../lib/gcc/arm-atollic-eabi/6.3.1/armv7e-m/fpu/crti.o
 .ARM.attributes
                0x00000022       0x34 c:/program files (x86)/atollic/truestudio for stm32 9.1.0/armtools/bin/../lib/gcc/arm-atollic-eabi/6.3.1/armv7e-m/fpu/crtbegin.o
 .ARM.attributes
                0x00000056       0x39 ./Test_Bench_Config/dimc_test_bench_config.o
 .ARM.attributes
                0x0000008f       0x21 ./Startup/startup_stm32f427xx.o
 .ARM.attributes
                0x000000b0       0x39 ./Src/gipsy_dimc_it.o
 .ARM.attributes
                0x000000e9       0x39 ./Src/main.o
 .ARM.attributes
                0x00000122       0x39 ./DIMC_Files/can_protocol_dimc.o
 .ARM.attributes
                0x0000015b       0x39 ./DIMC_Files/cbit_dimc.o
 .ARM.attributes
                0x00000194       0x39 ./DIMC_Files/crc16.o
 .ARM.attributes
                0x000001cd       0x39 ./DIMC_Files/diac_mngmnt.o
 .ARM.attributes
                0x00000206       0x39 ./DIMC_Files/exflash_dimc.o
 .ARM.attributes
                0x0000023f       0x39 ./DIMC_Files/fault_management_dimc.o
 .ARM.attributes
                0x00000278       0x39 ./DIMC_Files/flash_integrity_test.o
 .ARM.attributes
                0x000002b1       0x39 ./DIMC_Files/gpio_control_dimc.o
 .ARM.attributes
                0x000002ea       0x39 ./DIMC_Files/irs_protocol_dimc.o
 .ARM.attributes
                0x00000323       0x39 ./DIMC_Files/logger_dimc.o
 .ARM.attributes
                0x0000035c       0x39 ./DIMC_Files/mcu_config_dimc.o
 .ARM.attributes
                0x00000395       0x39 ./DIMC_Files/module_init_dimc.o
 .ARM.attributes
                0x000003ce       0x39 ./DIMC_Files/pbit_dimc.o
 .ARM.attributes
                0x00000407       0x39 ./DIMC_Files/periodic_dimc.o
 .ARM.attributes
                0x00000440       0x39 ./DIMC_Files/system_params_dimc.o
 .ARM.attributes
                0x00000479       0x39 ./DIMC_Files/voltage_meas_dimc.o
 .ARM.attributes
                0x000004b2       0x39 ./DIMC_Files/wdog.o
 .ARM.attributes
                0x000004eb       0x39 ./02_STM_Drivers/Src/gipsy_hal_adc.o
 .ARM.attributes
                0x00000524       0x39 ./02_STM_Drivers/Src/gipsy_hal_can.o
 .ARM.attributes
                0x0000055d       0x39 ./02_STM_Drivers/Src/gipsy_hal_cortex.o
 .ARM.attributes
                0x00000596       0x39 ./02_STM_Drivers/Src/gipsy_hal_gpio.o
 .ARM.attributes
                0x000005cf       0x39 ./02_STM_Drivers/Src/gipsy_hal_i2c_dimc.o
 .ARM.attributes
                0x00000608       0x39 ./02_STM_Drivers/Src/gipsy_hal_rcc.o
 .ARM.attributes
                0x00000641       0x39 ./02_STM_Drivers/Src/gipsy_hal_rtc.o
 .ARM.attributes
                0x0000067a       0x39 ./02_STM_Drivers/Src/gipsy_hal_uart.o
 .ARM.attributes
                0x000006b3       0x34 c:/program files (x86)/atollic/truestudio for stm32 9.1.0/armtools/bin/../lib/gcc/arm-atollic-eabi/6.3.1/../../../../arm-atollic-eabi/lib/armv7e-m/fpu\libc_nano.a(lib_a-init.o)
 .ARM.attributes
                0x000006e7       0x34 c:/program files (x86)/atollic/truestudio for stm32 9.1.0/armtools/bin/../lib/gcc/arm-atollic-eabi/6.3.1/../../../../arm-atollic-eabi/lib/armv7e-m/fpu\libc_nano.a(lib_a-memset.o)
 .ARM.attributes
                0x0000071b       0x22 c:/program files (x86)/atollic/truestudio for stm32 9.1.0/armtools/bin/../lib/gcc/arm-atollic-eabi/6.3.1/armv7e-m/fpu\libgcc.a(_arm_addsubdf3.o)
 .ARM.attributes
                0x0000073d       0x22 c:/program files (x86)/atollic/truestudio for stm32 9.1.0/armtools/bin/../lib/gcc/arm-atollic-eabi/6.3.1/armv7e-m/fpu\libgcc.a(_arm_muldivdf3.o)
 .ARM.attributes
                0x0000075f       0x22 c:/program files (x86)/atollic/truestudio for stm32 9.1.0/armtools/bin/../lib/gcc/arm-atollic-eabi/6.3.1/armv7e-m/fpu\libgcc.a(_arm_cmpdf2.o)
 .ARM.attributes
                0x00000781       0x22 c:/program files (x86)/atollic/truestudio for stm32 9.1.0/armtools/bin/../lib/gcc/arm-atollic-eabi/6.3.1/armv7e-m/fpu\libgcc.a(_arm_truncdfsf2.o)
 .ARM.attributes
                0x000007a3       0x22 c:/program files (x86)/atollic/truestudio for stm32 9.1.0/armtools/bin/../lib/gcc/arm-atollic-eabi/6.3.1/armv7e-m/fpu\libgcc.a(_aeabi_uldivmod.o)
 .ARM.attributes
                0x000007c5       0x34 c:/program files (x86)/atollic/truestudio for stm32 9.1.0/armtools/bin/../lib/gcc/arm-atollic-eabi/6.3.1/armv7e-m/fpu\libgcc.a(_udivmoddi4.o)
 .ARM.attributes
                0x000007f9       0x22 c:/program files (x86)/atollic/truestudio for stm32 9.1.0/armtools/bin/../lib/gcc/arm-atollic-eabi/6.3.1/armv7e-m/fpu\libgcc.a(_dvmd_tls.o)
 .ARM.attributes
                0x0000081b       0x34 c:/program files (x86)/atollic/truestudio for stm32 9.1.0/armtools/bin/../lib/gcc/arm-atollic-eabi/6.3.1/armv7e-m/fpu/crtend.o
 .ARM.attributes
                0x0000084f       0x22 c:/program files (x86)/atollic/truestudio for stm32 9.1.0/armtools/bin/../lib/gcc/arm-atollic-eabi/6.3.1/armv7e-m/fpu/crtn.o
OUTPUT(DIMC_01_11.elf elf32-littlearm)

.debug_info     0x00000000    0x11093
 .debug_info    0x00000000      0x668 ./Test_Bench_Config/dimc_test_bench_config.o
 .debug_info    0x00000668       0x93 ./Startup/startup_stm32f427xx.o
 .debug_info    0x000006fb      0x506 ./Src/gipsy_dimc_it.o
 .debug_info    0x00000c01      0x9d5 ./Src/main.o
 .debug_info    0x000015d6      0xccf ./DIMC_Files/can_protocol_dimc.o
 .debug_info    0x000022a5      0x7af ./DIMC_Files/cbit_dimc.o
 .debug_info    0x00002a54      0x110 ./DIMC_Files/crc16.o
 .debug_info    0x00002b64     0x1073 ./DIMC_Files/diac_mngmnt.o
 .debug_info    0x00003bd7      0x897 ./DIMC_Files/exflash_dimc.o
 .debug_info    0x0000446e      0xd37 ./DIMC_Files/fault_management_dimc.o
 .debug_info    0x000051a5      0x372 ./DIMC_Files/flash_integrity_test.o
 .debug_info    0x00005517     0x1085 ./DIMC_Files/gpio_control_dimc.o
 .debug_info    0x0000659c     0x1049 ./DIMC_Files/irs_protocol_dimc.o
 .debug_info    0x000075e5      0xcd1 ./DIMC_Files/logger_dimc.o
 .debug_info    0x000082b6      0xbb2 ./DIMC_Files/mcu_config_dimc.o
 .debug_info    0x00008e68      0xbf8 ./DIMC_Files/module_init_dimc.o
 .debug_info    0x00009a60     0x1255 ./DIMC_Files/pbit_dimc.o
 .debug_info    0x0000acb5     0x16cd ./DIMC_Files/periodic_dimc.o
 .debug_info    0x0000c382      0xe4c ./DIMC_Files/system_params_dimc.o
 .debug_info    0x0000d1ce      0x64d ./DIMC_Files/voltage_meas_dimc.o
 .debug_info    0x0000d81b      0x69b ./DIMC_Files/wdog.o
 .debug_info    0x0000deb6      0x360 ./02_STM_Drivers/Src/gipsy_hal_adc.o
 .debug_info    0x0000e216      0x714 ./02_STM_Drivers/Src/gipsy_hal_can.o
 .debug_info    0x0000e92a      0x732 ./02_STM_Drivers/Src/gipsy_hal_cortex.o
 .debug_info    0x0000f05c      0x318 ./02_STM_Drivers/Src/gipsy_hal_gpio.o
 .debug_info    0x0000f374      0x883 ./02_STM_Drivers/Src/gipsy_hal_i2c_dimc.o
 .debug_info    0x0000fbf7      0x85f ./02_STM_Drivers/Src/gipsy_hal_rcc.o
 .debug_info    0x00010456      0x747 ./02_STM_Drivers/Src/gipsy_hal_rtc.o
 .debug_info    0x00010b9d      0x4f6 ./02_STM_Drivers/Src/gipsy_hal_uart.o

.debug_abbrev   0x00000000     0x27f9
 .debug_abbrev  0x00000000       0xf3 ./Test_Bench_Config/dimc_test_bench_config.o
 .debug_abbrev  0x000000f3       0x12 ./Startup/startup_stm32f427xx.o
 .debug_abbrev  0x00000105       0xd4 ./Src/gipsy_dimc_it.o
 .debug_abbrev  0x000001d9      0x16c ./Src/main.o
 .debug_abbrev  0x00000345      0x18c ./DIMC_Files/can_protocol_dimc.o
 .debug_abbrev  0x000004d1       0xf2 ./DIMC_Files/cbit_dimc.o
 .debug_abbrev  0x000005c3       0x9a ./DIMC_Files/crc16.o
 .debug_abbrev  0x0000065d      0x193 ./DIMC_Files/diac_mngmnt.o
 .debug_abbrev  0x000007f0      0x1ae ./DIMC_Files/exflash_dimc.o
 .debug_abbrev  0x0000099e      0x166 ./DIMC_Files/fault_management_dimc.o
 .debug_abbrev  0x00000b04       0xe4 ./DIMC_Files/flash_integrity_test.o
 .debug_abbrev  0x00000be8      0x205 ./DIMC_Files/gpio_control_dimc.o
 .debug_abbrev  0x00000ded      0x1de ./DIMC_Files/irs_protocol_dimc.o
 .debug_abbrev  0x00000fcb      0x1f2 ./DIMC_Files/logger_dimc.o
 .debug_abbrev  0x000011bd      0x176 ./DIMC_Files/mcu_config_dimc.o
 .debug_abbrev  0x00001333      0x140 ./DIMC_Files/module_init_dimc.o
 .debug_abbrev  0x00001473      0x1a0 ./DIMC_Files/pbit_dimc.o
 .debug_abbrev  0x00001613      0x212 ./DIMC_Files/periodic_dimc.o
 .debug_abbrev  0x00001825      0x17b ./DIMC_Files/system_params_dimc.o
 .debug_abbrev  0x000019a0      0x13f ./DIMC_Files/voltage_meas_dimc.o
 .debug_abbrev  0x00001adf      0x138 ./DIMC_Files/wdog.o
 .debug_abbrev  0x00001c17       0xff ./02_STM_Drivers/Src/gipsy_hal_adc.o
 .debug_abbrev  0x00001d16      0x1ec ./02_STM_Drivers/Src/gipsy_hal_can.o
 .debug_abbrev  0x00001f02      0x176 ./02_STM_Drivers/Src/gipsy_hal_cortex.o
 .debug_abbrev  0x00002078      0x158 ./02_STM_Drivers/Src/gipsy_hal_gpio.o
 .debug_abbrev  0x000021d0      0x143 ./02_STM_Drivers/Src/gipsy_hal_i2c_dimc.o
 .debug_abbrev  0x00002313      0x19c ./02_STM_Drivers/Src/gipsy_hal_rcc.o
 .debug_abbrev  0x000024af      0x1a2 ./02_STM_Drivers/Src/gipsy_hal_rtc.o
 .debug_abbrev  0x00002651      0x1a8 ./02_STM_Drivers/Src/gipsy_hal_uart.o

.debug_aranges  0x00000000      0x3a8
 .debug_aranges
                0x00000000       0x20 ./Test_Bench_Config/dimc_test_bench_config.o
 .debug_aranges
                0x00000020       0x28 ./Startup/startup_stm32f427xx.o
 .debug_aranges
                0x00000048       0x20 ./Src/gipsy_dimc_it.o
 .debug_aranges
                0x00000068       0x20 ./Src/main.o
 .debug_aranges
                0x00000088       0x20 ./DIMC_Files/can_protocol_dimc.o
 .debug_aranges
                0x000000a8       0x20 ./DIMC_Files/cbit_dimc.o
 .debug_aranges
                0x000000c8       0x20 ./DIMC_Files/crc16.o
 .debug_aranges
                0x000000e8       0x20 ./DIMC_Files/diac_mngmnt.o
 .debug_aranges
                0x00000108       0x20 ./DIMC_Files/exflash_dimc.o
 .debug_aranges
                0x00000128       0x20 ./DIMC_Files/fault_management_dimc.o
 .debug_aranges
                0x00000148       0x20 ./DIMC_Files/flash_integrity_test.o
 .debug_aranges
                0x00000168       0x20 ./DIMC_Files/gpio_control_dimc.o
 .debug_aranges
                0x00000188       0x20 ./DIMC_Files/irs_protocol_dimc.o
 .debug_aranges
                0x000001a8       0x20 ./DIMC_Files/logger_dimc.o
 .debug_aranges
                0x000001c8       0x20 ./DIMC_Files/mcu_config_dimc.o
 .debug_aranges
                0x000001e8       0x20 ./DIMC_Files/module_init_dimc.o
 .debug_aranges
                0x00000208       0x20 ./DIMC_Files/pbit_dimc.o
 .debug_aranges
                0x00000228       0x20 ./DIMC_Files/periodic_dimc.o
 .debug_aranges
                0x00000248       0x20 ./DIMC_Files/system_params_dimc.o
 .debug_aranges
                0x00000268       0x20 ./DIMC_Files/voltage_meas_dimc.o
 .debug_aranges
                0x00000288       0x20 ./DIMC_Files/wdog.o
 .debug_aranges
                0x000002a8       0x20 ./02_STM_Drivers/Src/gipsy_hal_adc.o
 .debug_aranges
                0x000002c8       0x20 ./02_STM_Drivers/Src/gipsy_hal_can.o
 .debug_aranges
                0x000002e8       0x20 ./02_STM_Drivers/Src/gipsy_hal_cortex.o
 .debug_aranges
                0x00000308       0x20 ./02_STM_Drivers/Src/gipsy_hal_gpio.o
 .debug_aranges
                0x00000328       0x20 ./02_STM_Drivers/Src/gipsy_hal_i2c_dimc.o
 .debug_aranges
                0x00000348       0x20 ./02_STM_Drivers/Src/gipsy_hal_rcc.o
 .debug_aranges
                0x00000368       0x20 ./02_STM_Drivers/Src/gipsy_hal_rtc.o
 .debug_aranges
                0x00000388       0x20 ./02_STM_Drivers/Src/gipsy_hal_uart.o

.debug_macro    0x00000000     0x44d6
 .debug_macro   0x00000000       0x96 ./Test_Bench_Config/dimc_test_bench_config.o
 .debug_macro   0x00000096      0x8c2 ./Test_Bench_Config/dimc_test_bench_config.o
 .debug_macro   0x00000958       0x1c ./Test_Bench_Config/dimc_test_bench_config.o
 .debug_macro   0x00000974       0xe8 ./Test_Bench_Config/dimc_test_bench_config.o
 .debug_macro   0x00000a5c      0x18a ./Test_Bench_Config/dimc_test_bench_config.o
 .debug_macro   0x00000be6       0x88 ./Test_Bench_Config/dimc_test_bench_config.o
 .debug_macro   0x00000c6e      0x10c ./Test_Bench_Config/dimc_test_bench_config.o
 .debug_macro   0x00000d7a       0x16 ./Test_Bench_Config/dimc_test_bench_config.o
 .debug_macro   0x00000d90       0x3a ./Test_Bench_Config/dimc_test_bench_config.o
 .debug_macro   0x00000dca       0xbd ./Src/gipsy_dimc_it.o
 .debug_macro   0x00000e87       0x52 ./Src/gipsy_dimc_it.o
 .debug_macro   0x00000ed9       0x16 ./Src/gipsy_dimc_it.o
 .debug_macro   0x00000eef      0x154 ./Src/gipsy_dimc_it.o
 .debug_macro   0x00001043      0x154 ./Src/gipsy_dimc_it.o
 .debug_macro   0x00001197       0xa0 ./Src/main.o
 .debug_macro   0x00001237      0x108 ./DIMC_Files/can_protocol_dimc.o
 .debug_macro   0x0000133f       0x10 ./DIMC_Files/can_protocol_dimc.o
 .debug_macro   0x0000134f       0x7c ./DIMC_Files/can_protocol_dimc.o
 .debug_macro   0x000013cb       0x10 ./DIMC_Files/can_protocol_dimc.o
 .debug_macro   0x000013db       0x58 ./DIMC_Files/can_protocol_dimc.o
 .debug_macro   0x00001433       0xfc ./DIMC_Files/cbit_dimc.o
 .debug_macro   0x0000152f       0x22 ./DIMC_Files/cbit_dimc.o
 .debug_macro   0x00001551       0x6f ./DIMC_Files/crc16.o
 .debug_macro   0x000015c0      0x111 ./DIMC_Files/diac_mngmnt.o
 .debug_macro   0x000016d1      0x127 ./DIMC_Files/exflash_dimc.o
 .debug_macro   0x000017f8       0x10 ./DIMC_Files/exflash_dimc.o
 .debug_macro   0x00001808      0x132 ./DIMC_Files/fault_management_dimc.o
 .debug_macro   0x0000193a      0x100 ./DIMC_Files/fault_management_dimc.o
 .debug_macro   0x00001a3a       0x93 ./DIMC_Files/flash_integrity_test.o
 .debug_macro   0x00001acd       0xff ./DIMC_Files/gpio_control_dimc.o
 .debug_macro   0x00001bcc      0x12e ./DIMC_Files/irs_protocol_dimc.o
 .debug_macro   0x00001cfa      0x106 ./DIMC_Files/irs_protocol_dimc.o
 .debug_macro   0x00001e00       0x10 ./DIMC_Files/irs_protocol_dimc.o
 .debug_macro   0x00001e10       0x1c ./DIMC_Files/irs_protocol_dimc.o
 .debug_macro   0x00001e2c       0xf3 ./DIMC_Files/logger_dimc.o
 .debug_macro   0x00001f1f       0x1c ./DIMC_Files/logger_dimc.o
 .debug_macro   0x00001f3b      0x2c0 ./DIMC_Files/mcu_config_dimc.o
 .debug_macro   0x000021fb       0x28 ./DIMC_Files/mcu_config_dimc.o
 .debug_macro   0x00002223       0x34 ./DIMC_Files/mcu_config_dimc.o
 .debug_macro   0x00002257      0x142 ./DIMC_Files/module_init_dimc.o
 .debug_macro   0x00002399      0x1a3 ./DIMC_Files/pbit_dimc.o
 .debug_macro   0x0000253c       0x40 ./DIMC_Files/pbit_dimc.o
 .debug_macro   0x0000257c      0x14e ./DIMC_Files/pbit_dimc.o
 .debug_macro   0x000026ca      0x21a ./DIMC_Files/periodic_dimc.o
 .debug_macro   0x000028e4      0x106 ./DIMC_Files/periodic_dimc.o
 .debug_macro   0x000029ea       0xa6 ./DIMC_Files/system_params_dimc.o
 .debug_macro   0x00002a90       0xd1 ./DIMC_Files/voltage_meas_dimc.o
 .debug_macro   0x00002b61       0xe7 ./DIMC_Files/wdog.o
 .debug_macro   0x00002c48      0x1d4 ./02_STM_Drivers/Src/gipsy_hal_adc.o
 .debug_macro   0x00002e1c       0x2e ./02_STM_Drivers/Src/gipsy_hal_adc.o
 .debug_macro   0x00002e4a      0x7a0 ./02_STM_Drivers/Src/gipsy_hal_can.o
 .debug_macro   0x000035ea       0x7e ./02_STM_Drivers/Src/gipsy_hal_cortex.o
 .debug_macro   0x00003668       0x22 ./02_STM_Drivers/Src/gipsy_hal_cortex.o
 .debug_macro   0x0000368a      0x129 ./02_STM_Drivers/Src/gipsy_hal_gpio.o
 .debug_macro   0x000037b3      0x27e ./02_STM_Drivers/Src/gipsy_hal_i2c_dimc.o
 .debug_macro   0x00003a31      0x46f ./02_STM_Drivers/Src/gipsy_hal_rcc.o
 .debug_macro   0x00003ea0      0x344 ./02_STM_Drivers/Src/gipsy_hal_rtc.o
 .debug_macro   0x000041e4      0x2f2 ./02_STM_Drivers/Src/gipsy_hal_uart.o

.debug_line     0x00000000     0x4fc1
 .debug_line    0x00000000      0x1b7 ./Test_Bench_Config/dimc_test_bench_config.o
 .debug_line    0x000001b7       0x7f ./Startup/startup_stm32f427xx.o
 .debug_line    0x00000236      0x1cf ./Src/gipsy_dimc_it.o
 .debug_line    0x00000405      0x1a7 ./Src/main.o
 .debug_line    0x000005ac      0x31c ./DIMC_Files/can_protocol_dimc.o
 .debug_line    0x000008c8      0x229 ./DIMC_Files/cbit_dimc.o
 .debug_line    0x00000af1      0x15c ./DIMC_Files/crc16.o
 .debug_line    0x00000c4d      0x2a3 ./DIMC_Files/diac_mngmnt.o
 .debug_line    0x00000ef0      0x2be ./DIMC_Files/exflash_dimc.o
 .debug_line    0x000011ae      0x50e ./DIMC_Files/fault_management_dimc.o
 .debug_line    0x000016bc      0x189 ./DIMC_Files/flash_integrity_test.o
 .debug_line    0x00001845      0x33b ./DIMC_Files/gpio_control_dimc.o
 .debug_line    0x00001b80      0x471 ./DIMC_Files/irs_protocol_dimc.o
 .debug_line    0x00001ff1      0x278 ./DIMC_Files/logger_dimc.o
 .debug_line    0x00002269      0x2be ./DIMC_Files/mcu_config_dimc.o
 .debug_line    0x00002527      0x2bc ./DIMC_Files/module_init_dimc.o
 .debug_line    0x000027e3      0x482 ./DIMC_Files/pbit_dimc.o
 .debug_line    0x00002c65      0x689 ./DIMC_Files/periodic_dimc.o
 .debug_line    0x000032ee      0x331 ./DIMC_Files/system_params_dimc.o
 .debug_line    0x0000361f      0x205 ./DIMC_Files/voltage_meas_dimc.o
 .debug_line    0x00003824      0x1fb ./DIMC_Files/wdog.o
 .debug_line    0x00003a1f      0x189 ./02_STM_Drivers/Src/gipsy_hal_adc.o
 .debug_line    0x00003ba8      0x2c6 ./02_STM_Drivers/Src/gipsy_hal_can.o
 .debug_line    0x00003e6e      0x185 ./02_STM_Drivers/Src/gipsy_hal_cortex.o
 .debug_line    0x00003ff3      0x389 ./02_STM_Drivers/Src/gipsy_hal_gpio.o
 .debug_line    0x0000437c      0x515 ./02_STM_Drivers/Src/gipsy_hal_i2c_dimc.o
 .debug_line    0x00004891      0x222 ./02_STM_Drivers/Src/gipsy_hal_rcc.o
 .debug_line    0x00004ab3      0x25c ./02_STM_Drivers/Src/gipsy_hal_rtc.o
 .debug_line    0x00004d0f      0x2b2 ./02_STM_Drivers/Src/gipsy_hal_uart.o

.debug_str      0x00000000    0x14e6e
 .debug_str     0x00000000     0x4e61 ./Test_Bench_Config/dimc_test_bench_config.o
                               0x4f63 (size before relaxing)
 .debug_str     0x00004e61     0x1403 ./Src/gipsy_dimc_it.o
                               0x4b22 (size before relaxing)
 .debug_str     0x00006264      0x1a5 ./Src/main.o
                               0x50b2 (size before relaxing)
 .debug_str     0x00006409      0x5ab ./DIMC_Files/can_protocol_dimc.o
                               0x6888 (size before relaxing)
 .debug_str     0x000069b4      0x2c7 ./DIMC_Files/cbit_dimc.o
                               0x54d2 (size before relaxing)
 .debug_str     0x00006c7b       0x3a ./DIMC_Files/crc16.o
                               0x3744 (size before relaxing)
 .debug_str     0x00006cb5      0xbf5 ./DIMC_Files/diac_mngmnt.o
                               0x6faa (size before relaxing)
 .debug_str     0x000078aa      0x45e ./DIMC_Files/exflash_dimc.o
                               0x4fcc (size before relaxing)
 .debug_str     0x00007d08      0x82e ./DIMC_Files/fault_management_dimc.o
                               0x6869 (size before relaxing)
 .debug_str     0x00008536      0x1d1 ./DIMC_Files/flash_integrity_test.o
                               0x39e2 (size before relaxing)
 .debug_str     0x00008707      0x393 ./DIMC_Files/gpio_control_dimc.o
                               0x6ac7 (size before relaxing)
 .debug_str     0x00008a9a      0x487 ./DIMC_Files/irs_protocol_dimc.o
                               0x6e68 (size before relaxing)
 .debug_str     0x00008f21      0x274 ./DIMC_Files/logger_dimc.o
                               0x6282 (size before relaxing)
 .debug_str     0x00009195     0x1543 ./DIMC_Files/mcu_config_dimc.o
                               0x679b (size before relaxing)
 .debug_str     0x0000a6d8      0x112 ./DIMC_Files/module_init_dimc.o
                               0x662a (size before relaxing)
 .debug_str     0x0000a7ea      0x38b ./DIMC_Files/pbit_dimc.o
                               0x7649 (size before relaxing)
 .debug_str     0x0000ab75      0xd13 ./DIMC_Files/periodic_dimc.o
                               0x83c7 (size before relaxing)
 .debug_str     0x0000b888      0x39c ./DIMC_Files/system_params_dimc.o
                               0x5480 (size before relaxing)
 .debug_str     0x0000bc24      0x18f ./DIMC_Files/voltage_meas_dimc.o
                               0x4bcd (size before relaxing)
 .debug_str     0x0000bdb3      0x1f2 ./DIMC_Files/wdog.o
                               0x4cf8 (size before relaxing)
 .debug_str     0x0000bfa5      0x9f3 ./02_STM_Drivers/Src/gipsy_hal_adc.o
                               0x43c3 (size before relaxing)
 .debug_str     0x0000c998     0x2bbe ./02_STM_Drivers/Src/gipsy_hal_can.o
                               0x6823 (size before relaxing)
 .debug_str     0x0000f556      0x1c9 ./02_STM_Drivers/Src/gipsy_hal_cortex.o
                               0x3eff (size before relaxing)
 .debug_str     0x0000f71f      0x96f ./02_STM_Drivers/Src/gipsy_hal_gpio.o
                               0x47c9 (size before relaxing)
 .debug_str     0x0001008e     0x1402 ./02_STM_Drivers/Src/gipsy_hal_i2c_dimc.o
                               0x5039 (size before relaxing)
 .debug_str     0x00011490     0x18e5 ./02_STM_Drivers/Src/gipsy_hal_rcc.o
                               0x592a (size before relaxing)
 .debug_str     0x00012d75     0x1117 ./02_STM_Drivers/Src/gipsy_hal_rtc.o
                               0x4ae9 (size before relaxing)
 .debug_str     0x00013e8c      0xfe2 ./02_STM_Drivers/Src/gipsy_hal_uart.o
                               0x5072 (size before relaxing)

.comment        0x00000000       0x7c
 .comment       0x00000000       0x7c ./Test_Bench_Config/dimc_test_bench_config.o
                                 0x7d (size before relaxing)
 .comment       0x0000007c       0x7d ./Src/gipsy_dimc_it.o
 .comment       0x0000007c       0x7d ./Src/main.o
 .comment       0x0000007c       0x7d ./DIMC_Files/can_protocol_dimc.o
 .comment       0x0000007c       0x7d ./DIMC_Files/cbit_dimc.o
 .comment       0x0000007c       0x7d ./DIMC_Files/crc16.o
 .comment       0x0000007c       0x7d ./DIMC_Files/diac_mngmnt.o
 .comment       0x0000007c       0x7d ./DIMC_Files/exflash_dimc.o
 .comment       0x0000007c       0x7d ./DIMC_Files/fault_management_dimc.o
 .comment       0x0000007c       0x7d ./DIMC_Files/flash_integrity_test.o
 .comment       0x0000007c       0x7d ./DIMC_Files/gpio_control_dimc.o
 .comment       0x0000007c       0x7d ./DIMC_Files/irs_protocol_dimc.o
 .comment       0x0000007c       0x7d ./DIMC_Files/logger_dimc.o
 .comment       0x0000007c       0x7d ./DIMC_Files/mcu_config_dimc.o
 .comment       0x0000007c       0x7d ./DIMC_Files/module_init_dimc.o
 .comment       0x0000007c       0x7d ./DIMC_Files/pbit_dimc.o
 .comment       0x0000007c       0x7d ./DIMC_Files/periodic_dimc.o
 .comment       0x0000007c       0x7d ./DIMC_Files/system_params_dimc.o
 .comment       0x0000007c       0x7d ./DIMC_Files/voltage_meas_dimc.o
 .comment       0x0000007c       0x7d ./DIMC_Files/wdog.o
 .comment       0x0000007c       0x7d ./02_STM_Drivers/Src/gipsy_hal_adc.o
 .comment       0x0000007c       0x7d ./02_STM_Drivers/Src/gipsy_hal_can.o
 .comment       0x0000007c       0x7d ./02_STM_Drivers/Src/gipsy_hal_cortex.o
 .comment       0x0000007c       0x7d ./02_STM_Drivers/Src/gipsy_hal_gpio.o
 .comment       0x0000007c       0x7d ./02_STM_Drivers/Src/gipsy_hal_i2c_dimc.o
 .comment       0x0000007c       0x7d ./02_STM_Drivers/Src/gipsy_hal_rcc.o
 .comment       0x0000007c       0x7d ./02_STM_Drivers/Src/gipsy_hal_rtc.o
 .comment       0x0000007c       0x7d ./02_STM_Drivers/Src/gipsy_hal_uart.o

.debug_frame    0x00000000     0x1a5c
 .debug_frame   0x00000000       0x58 ./Test_Bench_Config/dimc_test_bench_config.o
 .debug_frame   0x00000058       0x64 ./Src/gipsy_dimc_it.o
 .debug_frame   0x000000bc       0x64 ./Src/main.o
 .debug_frame   0x00000120       0x5c ./DIMC_Files/can_protocol_dimc.o
 .debug_frame   0x0000017c       0x34 ./DIMC_Files/cbit_dimc.o
 .debug_frame   0x000001b0       0x38 ./DIMC_Files/crc16.o
 .debug_frame   0x000001e8       0x5c ./DIMC_Files/diac_mngmnt.o
 .debug_frame   0x00000244      0x188 ./DIMC_Files/exflash_dimc.o
 .debug_frame   0x000003cc       0xb0 ./DIMC_Files/fault_management_dimc.o
 .debug_frame   0x0000047c       0x38 ./DIMC_Files/flash_integrity_test.o
 .debug_frame   0x000004b4      0x160 ./DIMC_Files/gpio_control_dimc.o
 .debug_frame   0x00000614      0x200 ./DIMC_Files/irs_protocol_dimc.o
 .debug_frame   0x00000814      0x138 ./DIMC_Files/logger_dimc.o
 .debug_frame   0x0000094c       0xcc ./DIMC_Files/mcu_config_dimc.o
 .debug_frame   0x00000a18       0x34 ./DIMC_Files/module_init_dimc.o
 .debug_frame   0x00000a4c       0x7c ./DIMC_Files/pbit_dimc.o
 .debug_frame   0x00000ac8      0x144 ./DIMC_Files/periodic_dimc.o
 .debug_frame   0x00000c0c      0x238 ./DIMC_Files/system_params_dimc.o
 .debug_frame   0x00000e44       0x38 ./DIMC_Files/voltage_meas_dimc.o
 .debug_frame   0x00000e7c       0x78 ./DIMC_Files/wdog.o
 .debug_frame   0x00000ef4       0x5c ./02_STM_Drivers/Src/gipsy_hal_adc.o
 .debug_frame   0x00000f50      0x138 ./02_STM_Drivers/Src/gipsy_hal_can.o
 .debug_frame   0x00001088       0xd0 ./02_STM_Drivers/Src/gipsy_hal_cortex.o
 .debug_frame   0x00001158       0xb0 ./02_STM_Drivers/Src/gipsy_hal_gpio.o
 .debug_frame   0x00001208      0x1b0 ./02_STM_Drivers/Src/gipsy_hal_i2c_dimc.o
 .debug_frame   0x000013b8      0x14c ./02_STM_Drivers/Src/gipsy_hal_rcc.o
 .debug_frame   0x00001504      0x1ac ./02_STM_Drivers/Src/gipsy_hal_rtc.o
 .debug_frame   0x000016b0      0x11c ./02_STM_Drivers/Src/gipsy_hal_uart.o
 .debug_frame   0x000017cc       0x2c c:/program files (x86)/atollic/truestudio for stm32 9.1.0/armtools/bin/../lib/gcc/arm-atollic-eabi/6.3.1/../../../../arm-atollic-eabi/lib/armv7e-m/fpu\libc_nano.a(lib_a-init.o)
 .debug_frame   0x000017f8       0x20 c:/program files (x86)/atollic/truestudio for stm32 9.1.0/armtools/bin/../lib/gcc/arm-atollic-eabi/6.3.1/../../../../arm-atollic-eabi/lib/armv7e-m/fpu\libc_nano.a(lib_a-memset.o)
 .debug_frame   0x00001818       0xac c:/program files (x86)/atollic/truestudio for stm32 9.1.0/armtools/bin/../lib/gcc/arm-atollic-eabi/6.3.1/armv7e-m/fpu\libgcc.a(_arm_addsubdf3.o)
 .debug_frame   0x000018c4       0x50 c:/program files (x86)/atollic/truestudio for stm32 9.1.0/armtools/bin/../lib/gcc/arm-atollic-eabi/6.3.1/armv7e-m/fpu\libgcc.a(_arm_muldivdf3.o)
 .debug_frame   0x00001914       0xc4 c:/program files (x86)/atollic/truestudio for stm32 9.1.0/armtools/bin/../lib/gcc/arm-atollic-eabi/6.3.1/armv7e-m/fpu\libgcc.a(_arm_cmpdf2.o)
 .debug_frame   0x000019d8       0x24 c:/program files (x86)/atollic/truestudio for stm32 9.1.0/armtools/bin/../lib/gcc/arm-atollic-eabi/6.3.1/armv7e-m/fpu\libgcc.a(_arm_truncdfsf2.o)
 .debug_frame   0x000019fc       0x2c c:/program files (x86)/atollic/truestudio for stm32 9.1.0/armtools/bin/../lib/gcc/arm-atollic-eabi/6.3.1/armv7e-m/fpu\libgcc.a(_aeabi_uldivmod.o)
 .debug_frame   0x00001a28       0x34 c:/program files (x86)/atollic/truestudio for stm32 9.1.0/armtools/bin/../lib/gcc/arm-atollic-eabi/6.3.1/armv7e-m/fpu\libgcc.a(_udivmoddi4.o)

.debug_ranges   0x00000000       0x20
 .debug_ranges  0x00000000       0x20 ./Startup/startup_stm32f427xx.o

Cross Reference Table

Symbol                                            File
ADC_IRQHandler                                    ./Startup/startup_stm32f427xx.o
AHBPrescTable                                     ./02_STM_Drivers/Src/gipsy_hal_rcc.o
APBPrescTable                                     ./02_STM_Drivers/Src/gipsy_hal_rcc.o
Abnormal_Act_Activation_FLT_Detected              ./DIMC_Files/fault_management_dimc.o
Act_log_st                                        ./DIMC_Files/periodic_dimc.o
Buff_index                                        ./DIMC_Files/irs_protocol_dimc.o
BusFault_Handler                                  ./Startup/startup_stm32f427xx.o
CAN1_RX0_IRQHandler                               ./Src/gipsy_dimc_it.o
                                                  ./Startup/startup_stm32f427xx.o
CAN1_RX1_IRQHandler                               ./Startup/startup_stm32f427xx.o
CAN1_SCE_IRQHandler                               ./Startup/startup_stm32f427xx.o
CAN1_TX_IRQHandler                                ./Startup/startup_stm32f427xx.o
CAN2_RX0_IRQHandler                               ./Startup/startup_stm32f427xx.o
CAN2_RX1_IRQHandler                               ./Startup/startup_stm32f427xx.o
CAN2_SCE_IRQHandler                               ./Startup/startup_stm32f427xx.o
CAN2_TX_IRQHandler                                ./Startup/startup_stm32f427xx.o
CAN_Message_Transmit                              ./DIMC_Files/can_protocol_dimc.o
                                                  ./DIMC_Files/periodic_dimc.o
                                                  ./DIMC_Files/pbit_dimc.o
                                                  ./DIMC_Files/gpio_control_dimc.o
                                                  ./DIMC_Files/fault_management_dimc.o
Calculate_CRC16                                   ./DIMC_Files/crc16.o
                                                  ./DIMC_Files/irs_protocol_dimc.o
Cbit_Mem_Test                                     ./DIMC_Files/exflash_dimc.o
Cmd_Data_length_Bytes                             ./DIMC_Files/irs_protocol_dimc.o
Ctry_Status_Hal                                   ./DIMC_Files/periodic_dimc.o
Current_FL_Ctrays                                 ./DIMC_Files/fault_management_dimc.o
DCMI_IRQHandler                                   ./Startup/startup_stm32f427xx.o
DIMC_Module_Init                                  ./DIMC_Files/module_init_dimc.o
                                                  ./Src/main.o
DIMC_Pbit_Recovery                                ./Test_Bench_Config/dimc_test_bench_config.o
                                                  ./DIMC_Files/pbit_dimc.o
DIMC_System_PBIT_Recovery                         ./Test_Bench_Config/dimc_test_bench_config.o
                                                  ./DIMC_Files/pbit_dimc.o
DMA1_Stream0_IRQHandler                           ./Startup/startup_stm32f427xx.o
DMA1_Stream1_IRQHandler                           ./Startup/startup_stm32f427xx.o
DMA1_Stream2_IRQHandler                           ./Startup/startup_stm32f427xx.o
DMA1_Stream3_IRQHandler                           ./Startup/startup_stm32f427xx.o
DMA1_Stream4_IRQHandler                           ./Startup/startup_stm32f427xx.o
DMA1_Stream5_IRQHandler                           ./Startup/startup_stm32f427xx.o
DMA1_Stream6_IRQHandler                           ./Startup/startup_stm32f427xx.o
DMA1_Stream7_IRQHandler                           ./Startup/startup_stm32f427xx.o
DMA2D_IRQHandler                                  ./Startup/startup_stm32f427xx.o
DMA2_Stream0_IRQHandler                           ./Startup/startup_stm32f427xx.o
DMA2_Stream1_IRQHandler                           ./Startup/startup_stm32f427xx.o
DMA2_Stream2_IRQHandler                           ./Startup/startup_stm32f427xx.o
DMA2_Stream3_IRQHandler                           ./Startup/startup_stm32f427xx.o
DMA2_Stream4_IRQHandler                           ./Startup/startup_stm32f427xx.o
DMA2_Stream5_IRQHandler                           ./Startup/startup_stm32f427xx.o
DMA2_Stream6_IRQHandler                           ./Startup/startup_stm32f427xx.o
DMA2_Stream7_IRQHandler                           ./Startup/startup_stm32f427xx.o
Data_Buf                                          ./DIMC_Files/periodic_dimc.o
DebugMon_Handler                                  ./Startup/startup_stm32f427xx.o
Default_Handler                                   ./Startup/startup_stm32f427xx.o
Diac_Control                                      ./DIMC_Files/diac_mngmnt.o
                                                  ./DIMC_Files/pbit_dimc.o
                                                  ./DIMC_Files/fault_management_dimc.o
Disc_Curr_State                                   ./DIMC_Files/periodic_dimc.o
Disc_Prev_State                                   ./DIMC_Files/periodic_dimc.o
EEPROM_Status                                     ./DIMC_Files/exflash_dimc.o
ETH_IRQHandler                                    ./Startup/startup_stm32f427xx.o
ETH_WKUP_IRQHandler                               ./Startup/startup_stm32f427xx.o
EXTI0_IRQHandler                                  ./Startup/startup_stm32f427xx.o
EXTI15_10_IRQHandler                              ./Startup/startup_stm32f427xx.o
EXTI1_IRQHandler                                  ./Startup/startup_stm32f427xx.o
EXTI2_IRQHandler                                  ./Startup/startup_stm32f427xx.o
EXTI3_IRQHandler                                  ./Startup/startup_stm32f427xx.o
EXTI4_IRQHandler                                  ./Startup/startup_stm32f427xx.o
EXTI9_5_IRQHandler                                ./Startup/startup_stm32f427xx.o
Erase_EEPROM                                      ./DIMC_Files/exflash_dimc.o
                                                  ./DIMC_Files/logger_dimc.o
Erase_Memory                                      ./DIMC_Files/logger_dimc.o
Error_Handler                                     ./Src/main.o
                                                  ./DIMC_Files/mcu_config_dimc.o
Event_buffer                                      ./DIMC_Files/logger_dimc.o
FLASH_IRQHandler                                  ./Startup/startup_stm32f427xx.o
FLT_CH_Turn_On                                    ./DIMC_Files/fault_management_dimc.o
FMC_IRQHandler                                    ./Startup/startup_stm32f427xx.o
FPU_IRQHandler                                    ./Startup/startup_stm32f427xx.o
Fault_Channel_OUT_Control                         ./DIMC_Files/gpio_control_dimc.o
                                                  ./DIMC_Files/fault_management_dimc.o
                                                  ./DIMC_Files/diac_mngmnt.o
Fault_Management                                  ./DIMC_Files/fault_management_dimc.o
                                                  ./DIMC_Files/periodic_dimc.o
                                                  ./DIMC_Files/pbit_dimc.o
                                                  ./DIMC_Files/cbit_dimc.o
Fault_Value                                       ./DIMC_Files/fault_management_dimc.o
Flash_Integrity_Test                              ./DIMC_Files/flash_integrity_test.o
                                                  ./DIMC_Files/module_init_dimc.o
Flt_Ch_Activate                                   ./DIMC_Files/fault_management_dimc.o
Get_Actuator_CurrLimits                           ./DIMC_Files/system_params_dimc.o
                                                  ./DIMC_Files/periodic_dimc.o
                                                  ./DIMC_Files/pbit_dimc.o
Get_Actuator_Id                                   ./DIMC_Files/system_params_dimc.o
                                                  ./DIMC_Files/periodic_dimc.o
                                                  ./DIMC_Files/pbit_dimc.o
Get_Actuator_Speed                                ./DIMC_Files/system_params_dimc.o
                                                  ./DIMC_Files/periodic_dimc.o
Get_Actuator_Status                               ./DIMC_Files/system_params_dimc.o
                                                  ./DIMC_Files/periodic_dimc.o
Get_Actuator_VibrLimits                           ./DIMC_Files/system_params_dimc.o
                                                  ./DIMC_Files/periodic_dimc.o
                                                  ./DIMC_Files/pbit_dimc.o
Get_CTRY_All_Actuators_Status                     ./DIMC_Files/system_params_dimc.o
                                                  ./DIMC_Files/irs_protocol_dimc.o
                                                  ./DIMC_Files/fault_management_dimc.o
Get_CTRY_DIAC_Ch                                  ./DIMC_Files/system_params_dimc.o
                                                  ./DIMC_Files/fault_management_dimc.o
Get_CTRY_Status                                   ./DIMC_Files/system_params_dimc.o
                                                  ./DIMC_Files/periodic_dimc.o
                                                  ./DIMC_Files/pbit_dimc.o
                                                  ./DIMC_Files/irs_protocol_dimc.o
Get_Equipped_Actuators                            ./DIMC_Files/system_params_dimc.o
                                                  ./DIMC_Files/fault_management_dimc.o
Get_Logger_Status                                 ./DIMC_Files/logger_dimc.o
                                                  ./DIMC_Files/irs_protocol_dimc.o
HAL_ADC_Init                                      ./02_STM_Drivers/Src/gipsy_hal_adc.o
                                                  ./DIMC_Files/mcu_config_dimc.o
HAL_ADC_Perform_Conversion                        ./02_STM_Drivers/Src/gipsy_hal_adc.o
                                                  ./DIMC_Files/voltage_meas_dimc.o
HAL_CAN_AddTxMessage                              ./02_STM_Drivers/Src/gipsy_hal_can.o
                                                  ./DIMC_Files/can_protocol_dimc.o
HAL_CAN_GetRxMessage                              ./02_STM_Drivers/Src/gipsy_hal_can.o
                                                  ./DIMC_Files/can_protocol_dimc.o
HAL_CAN_IRQHandler                                ./02_STM_Drivers/Src/gipsy_hal_can.o
                                                  ./Src/gipsy_dimc_it.o
HAL_CAN_Init                                      ./02_STM_Drivers/Src/gipsy_hal_can.o
                                                  ./DIMC_Files/mcu_config_dimc.o
HAL_CAN_RxFifo0MsgPendingCallback                 ./DIMC_Files/can_protocol_dimc.o
                                                  ./02_STM_Drivers/Src/gipsy_hal_can.o
HAL_CAN_Stop                                      ./02_STM_Drivers/Src/gipsy_hal_can.o
                                                  ./DIMC_Files/fault_management_dimc.o
HAL_Delay                                         ./02_STM_Drivers/Src/gipsy_hal_rcc.o
                                                  ./02_STM_Drivers/Src/gipsy_hal_can.o
                                                  ./DIMC_Files/wdog.o
                                                  ./DIMC_Files/periodic_dimc.o
                                                  ./DIMC_Files/pbit_dimc.o
                                                  ./DIMC_Files/gpio_control_dimc.o
                                                  ./DIMC_Files/fault_management_dimc.o
                                                  ./DIMC_Files/exflash_dimc.o
                                                  ./DIMC_Files/diac_mngmnt.o
HAL_GPIO_Init                                     ./02_STM_Drivers/Src/gipsy_hal_gpio.o
                                                  ./DIMC_Files/mcu_config_dimc.o
HAL_GPIO_ReadPin                                  ./02_STM_Drivers/Src/gipsy_hal_gpio.o
                                                  ./DIMC_Files/gpio_control_dimc.o
HAL_GPIO_TogglePin                                ./02_STM_Drivers/Src/gipsy_hal_gpio.o
                                                  ./DIMC_Files/gpio_control_dimc.o
HAL_GPIO_WritePin                                 ./02_STM_Drivers/Src/gipsy_hal_gpio.o
                                                  ./DIMC_Files/wdog.o
                                                  ./DIMC_Files/pbit_dimc.o
                                                  ./DIMC_Files/mcu_config_dimc.o
                                                  ./DIMC_Files/gpio_control_dimc.o
                                                  ./DIMC_Files/diac_mngmnt.o
HAL_GetTick                                       ./02_STM_Drivers/Src/gipsy_hal_rcc.o
                                                  ./02_STM_Drivers/Src/gipsy_hal_uart.o
                                                  ./02_STM_Drivers/Src/gipsy_hal_rtc.o
                                                  ./02_STM_Drivers/Src/gipsy_hal_i2c_dimc.o
                                                  ./02_STM_Drivers/Src/gipsy_hal_can.o
                                                  ./02_STM_Drivers/Src/gipsy_hal_adc.o
                                                  ./DIMC_Files/periodic_dimc.o
                                                  ./DIMC_Files/pbit_dimc.o
                                                  ./DIMC_Files/irs_protocol_dimc.o
                                                  ./DIMC_Files/fault_management_dimc.o
                                                  ./DIMC_Files/can_protocol_dimc.o
HAL_I2C_Init                                      ./02_STM_Drivers/Src/gipsy_hal_i2c_dimc.o
                                                  ./DIMC_Files/mcu_config_dimc.o
HAL_I2C_Mem_Read                                  ./02_STM_Drivers/Src/gipsy_hal_i2c_dimc.o
                                                  ./DIMC_Files/exflash_dimc.o
HAL_I2C_Mem_Write                                 ./02_STM_Drivers/Src/gipsy_hal_i2c_dimc.o
                                                  ./DIMC_Files/exflash_dimc.o
HAL_IncTick                                       ./02_STM_Drivers/Src/gipsy_hal_rcc.o
                                                  ./Src/gipsy_dimc_it.o
HAL_NVIC_EnableIRQ                                ./02_STM_Drivers/Src/gipsy_hal_cortex.o
                                                  ./DIMC_Files/mcu_config_dimc.o
HAL_NVIC_SetPriority                              ./02_STM_Drivers/Src/gipsy_hal_cortex.o
                                                  ./02_STM_Drivers/Src/gipsy_hal_rcc.o
                                                  ./DIMC_Files/mcu_config_dimc.o
HAL_NVIC_SetPriorityGrouping                      ./02_STM_Drivers/Src/gipsy_hal_cortex.o
                                                  ./DIMC_Files/mcu_config_dimc.o
HAL_RCCEx_PeriphCLKConfig                         ./02_STM_Drivers/Src/gipsy_hal_rcc.o
                                                  ./DIMC_Files/mcu_config_dimc.o
HAL_RCC_ClockConfig                               ./02_STM_Drivers/Src/gipsy_hal_rcc.o
                                                  ./DIMC_Files/mcu_config_dimc.o
HAL_RCC_GetPCLK1Freq                              ./02_STM_Drivers/Src/gipsy_hal_rcc.o
                                                  ./02_STM_Drivers/Src/gipsy_hal_i2c_dimc.o
HAL_RCC_GetPCLK2Freq                              ./02_STM_Drivers/Src/gipsy_hal_rcc.o
                                                  ./02_STM_Drivers/Src/gipsy_hal_uart.o
HAL_RCC_OscConfig                                 ./02_STM_Drivers/Src/gipsy_hal_rcc.o
                                                  ./DIMC_Files/mcu_config_dimc.o
HAL_SYSTICK_Config                                ./02_STM_Drivers/Src/gipsy_hal_cortex.o
                                                  ./02_STM_Drivers/Src/gipsy_hal_rcc.o
HAL_UART1_RxCpltCallback                          ./DIMC_Files/irs_protocol_dimc.o
                                                  ./02_STM_Drivers/Src/gipsy_hal_uart.o
HAL_UART_IRQHandler                               ./02_STM_Drivers/Src/gipsy_hal_uart.o
                                                  ./Src/gipsy_dimc_it.o
HAL_UART_Init                                     ./02_STM_Drivers/Src/gipsy_hal_uart.o
                                                  ./DIMC_Files/mcu_config_dimc.o
HAL_UART_Receive_IT                               ./02_STM_Drivers/Src/gipsy_hal_uart.o
                                                  ./DIMC_Files/irs_protocol_dimc.o
HAL_UART_Transmit                                 ./02_STM_Drivers/Src/gipsy_hal_uart.o
                                                  ./DIMC_Files/irs_protocol_dimc.o
HASH_RNG_IRQHandler                               ./Startup/startup_stm32f427xx.o
HardFault_Handler                                 ./Startup/startup_stm32f427xx.o
I2C1_ER_IRQHandler                                ./Startup/startup_stm32f427xx.o
I2C1_EV_IRQHandler                                ./Startup/startup_stm32f427xx.o
I2C2_ER_IRQHandler                                ./Startup/startup_stm32f427xx.o
I2C2_EV_IRQHandler                                ./Startup/startup_stm32f427xx.o
I2C3_ER_IRQHandler                                ./Startup/startup_stm32f427xx.o
I2C3_EV_IRQHandler                                ./Startup/startup_stm32f427xx.o
I2C_devSelect_address_RD                          ./DIMC_Files/exflash_dimc.o
I2C_devSelect_address_WR                          ./DIMC_Files/exflash_dimc.o
I2C_mem_address                                   ./DIMC_Files/exflash_dimc.o
IRS_Errors_Counter                                ./DIMC_Files/irs_protocol_dimc.o
IRS_Send_Msg_Log_Data_Report                      ./DIMC_Files/irs_protocol_dimc.o
                                                  ./DIMC_Files/logger_dimc.o
IRS_Send_Msg_Maintanance_Actuator_Data            ./DIMC_Files/irs_protocol_dimc.o
                                                  ./DIMC_Files/periodic_dimc.o
IRS_Send_Msg_Maintenance_Report                   ./DIMC_Files/irs_protocol_dimc.o
                                                  ./DIMC_Files/logger_dimc.o
IRS_Send_Msg_Operational_Status_Report            ./DIMC_Files/irs_protocol_dimc.o
                                                  ./DIMC_Files/periodic_dimc.o
IRS_UART1_Serial_Init                             ./DIMC_Files/irs_protocol_dimc.o
                                                  ./DIMC_Files/mcu_config_dimc.o
Init_Ctrys_Status_Table                           ./DIMC_Files/system_params_dimc.o
                                                  ./DIMC_Files/module_init_dimc.o
Init_Mem_Hal                                      ./DIMC_Files/exflash_dimc.o
                                                  ./DIMC_Files/module_init_dimc.o
Logger_Erase_Flag                                 ./DIMC_Files/logger_dimc.o
MCU_CAN_Interface_Init                            ./DIMC_Files/mcu_config_dimc.o
                                                  ./DIMC_Files/module_init_dimc.o
MCU_Periph_Config                                 ./DIMC_Files/mcu_config_dimc.o
                                                  ./DIMC_Files/module_init_dimc.o
Manage_OnBoard_Leds                               ./DIMC_Files/gpio_control_dimc.o
                                                  ./DIMC_Files/periodic_dimc.o
MemManage_Handler                                 ./Startup/startup_stm32f427xx.o
Mem_HAL                                           ./DIMC_Files/exflash_dimc.o
Monitor_CTRY_Time                                 ./DIMC_Files/fault_management_dimc.o
Monitor_Status_Table                              ./DIMC_Files/system_params_dimc.o
                                                  ./DIMC_Files/cbit_dimc.o
NMI_Handler                                       ./Startup/startup_stm32f427xx.o
Next_Sys_Mod                                      ./DIMC_Files/periodic_dimc.o
Number_Abnormal_Act_report                        ./DIMC_Files/fault_management_dimc.o
OTG_FS_IRQHandler                                 ./Startup/startup_stm32f427xx.o
OTG_FS_WKUP_IRQHandler                            ./Startup/startup_stm32f427xx.o
OTG_HS_EP1_IN_IRQHandler                          ./Startup/startup_stm32f427xx.o
OTG_HS_EP1_OUT_IRQHandler                         ./Startup/startup_stm32f427xx.o
OTG_HS_IRQHandler                                 ./Startup/startup_stm32f427xx.o
OTG_HS_WKUP_IRQHandler                            ./Startup/startup_stm32f427xx.o
Oper_Fl_Detected                                  ./DIMC_Files/cbit_dimc.o
PVD_IRQHandler                                    ./Startup/startup_stm32f427xx.o
Parse_IRS_Command                                 ./DIMC_Files/irs_protocol_dimc.o
                                                  ./DIMC_Files/periodic_dimc.o
Pbit_Mem_Test                                     ./DIMC_Files/exflash_dimc.o
                                                  ./DIMC_Files/pbit_dimc.o
PendSV_Handler                                    ./Startup/startup_stm32f427xx.o
Perform_CBIT_Test                                 ./DIMC_Files/cbit_dimc.o
                                                  ./DIMC_Files/periodic_dimc.o
Perform_DIMC_PBIT_Test                            ./DIMC_Files/pbit_dimc.o
                                                  ./DIMC_Files/module_init_dimc.o
Perform_System_PBIT_Test                          ./DIMC_Files/pbit_dimc.o
                                                  ./DIMC_Files/module_init_dimc.o
Periodic_Tasks_Scheduler                          ./DIMC_Files/periodic_dimc.o
                                                  ./Src/main.o
Prev_FL_Ctrays                                    ./DIMC_Files/fault_management_dimc.o
Prev_Sens_A_FLT                                   ./DIMC_Files/fault_management_dimc.o
Prev_Sys_Status                                   ./DIMC_Files/fault_management_dimc.o
Prev_Test_Status                                  ./DIMC_Files/fault_management_dimc.o
Proccess_Logger_Request_from_IRS                  ./DIMC_Files/logger_dimc.o
                                                  ./DIMC_Files/periodic_dimc.o
RCC_IRQHandler                                    ./Startup/startup_stm32f427xx.o
RTC_Alarm_IRQHandler                              ./Startup/startup_stm32f427xx.o
RTC_GetDateTime                                   ./02_STM_Drivers/Src/gipsy_hal_rtc.o
                                                  ./DIMC_Files/logger_dimc.o
                                                  ./DIMC_Files/irs_protocol_dimc.o
RTC_SetDateTime                                   ./02_STM_Drivers/Src/gipsy_hal_rtc.o
                                                  ./DIMC_Files/irs_protocol_dimc.o
RTC_StartUp_Initialization                        ./02_STM_Drivers/Src/gipsy_hal_rtc.o
                                                  ./DIMC_Files/module_init_dimc.o
RTC_WKUP_IRQHandler                               ./Startup/startup_stm32f427xx.o
RX_Byte                                           ./DIMC_Files/irs_protocol_dimc.o
RdBuffer                                          ./DIMC_Files/exflash_dimc.o
Read_EEPROM                                       ./DIMC_Files/exflash_dimc.o
                                                  ./DIMC_Files/logger_dimc.o
Read_Events_From_Memory                           ./DIMC_Files/logger_dimc.o
Read_FLT_Channel_A_C_Inputs                       ./DIMC_Files/gpio_control_dimc.o
                                                  ./DIMC_Files/periodic_dimc.o
                                                  ./DIMC_Files/diac_mngmnt.o
                                                  ./DIMC_Files/cbit_dimc.o
Read_FLT_Sense_Inputs                             ./DIMC_Files/gpio_control_dimc.o
                                                  ./DIMC_Files/periodic_dimc.o
                                                  ./DIMC_Files/fault_management_dimc.o
                                                  ./DIMC_Files/diac_mngmnt.o
Read_IBIT_Input                                   ./DIMC_Files/gpio_control_dimc.o
                                                  ./DIMC_Files/periodic_dimc.o
Read_OPER_Inputs                                  ./DIMC_Files/gpio_control_dimc.o
                                                  ./DIMC_Files/periodic_dimc.o
                                                  ./DIMC_Files/cbit_dimc.o
Received_Msg                                      ./DIMC_Files/irs_protocol_dimc.o
Reset_Handler                                     ./Startup/startup_stm32f427xx.o
SAI1_IRQHandler                                   ./Startup/startup_stm32f427xx.o
SDIO_IRQHandler                                   ./Startup/startup_stm32f427xx.o
SPI1_IRQHandler                                   ./Startup/startup_stm32f427xx.o
SPI2_IRQHandler                                   ./Startup/startup_stm32f427xx.o
SPI3_IRQHandler                                   ./Startup/startup_stm32f427xx.o
SPI4_IRQHandler                                   ./Startup/startup_stm32f427xx.o
SPI5_IRQHandler                                   ./Startup/startup_stm32f427xx.o
SPI6_IRQHandler                                   ./Startup/startup_stm32f427xx.o
ST_DIAC_PS_PIN                                    ./DIMC_Files/diac_mngmnt.o
ST_FAULT_CH_OUT_PIN                               ./DIMC_Files/gpio_control_dimc.o
SVC_Handler                                       ./Startup/startup_stm32f427xx.o
Ser_Rx_Buffer                                     ./DIMC_Files/irs_protocol_dimc.o
Set_Actuator_Status                               ./DIMC_Files/system_params_dimc.o
                                                  ./DIMC_Files/fault_management_dimc.o
Set_CTRY_All_Actuators_Status_FL                  ./DIMC_Files/system_params_dimc.o
                                                  ./DIMC_Files/pbit_dimc.o
                                                  ./DIMC_Files/fault_management_dimc.o
Set_CTRY_Status                                   ./DIMC_Files/system_params_dimc.o
                                                  ./DIMC_Files/pbit_dimc.o
                                                  ./DIMC_Files/fault_management_dimc.o
Set_Logger_Erase_Flag                             ./DIMC_Files/logger_dimc.o
                                                  ./DIMC_Files/irs_protocol_dimc.o
Set_Read_Request                                  ./DIMC_Files/logger_dimc.o
                                                  ./DIMC_Files/irs_protocol_dimc.o
Spare                                             ./DIMC_Files/fault_management_dimc.o
Spare_Bytes                                       ./DIMC_Files/periodic_dimc.o
StReadFromLogger                                  ./DIMC_Files/logger_dimc.o
SysTick_Handler                                   ./Src/gipsy_dimc_it.o
                                                  ./Startup/startup_stm32f427xx.o
SystemCoreClock                                   ./02_STM_Drivers/Src/gipsy_hal_rcc.o
SystemInit                                        ./Src/main.o
                                                  ./Startup/startup_stm32f427xx.o
TAMP_STAMP_IRQHandler                             ./Startup/startup_stm32f427xx.o
TIM1_BRK_TIM9_IRQHandler                          ./Startup/startup_stm32f427xx.o
TIM1_CC_IRQHandler                                ./Startup/startup_stm32f427xx.o
TIM1_TRG_COM_TIM11_IRQHandler                     ./Startup/startup_stm32f427xx.o
TIM1_UP_TIM10_IRQHandler                          ./Startup/startup_stm32f427xx.o
TIM2_IRQHandler                                   ./Startup/startup_stm32f427xx.o
TIM3_IRQHandler                                   ./Startup/startup_stm32f427xx.o
TIM4_IRQHandler                                   ./Startup/startup_stm32f427xx.o
TIM5_IRQHandler                                   ./Startup/startup_stm32f427xx.o
TIM6_DAC_IRQHandler                               ./Startup/startup_stm32f427xx.o
TIM7_IRQHandler                                   ./Startup/startup_stm32f427xx.o
TIM8_BRK_TIM12_IRQHandler                         ./Startup/startup_stm32f427xx.o
TIM8_CC_IRQHandler                                ./Startup/startup_stm32f427xx.o
TIM8_TRG_COM_TIM14_IRQHandler                     ./Startup/startup_stm32f427xx.o
TIM8_UP_TIM13_IRQHandler                          ./Startup/startup_stm32f427xx.o
Test_CH_A_Inputs                                  ./DIMC_Files/diac_mngmnt.o
                                                  ./DIMC_Files/pbit_dimc.o
Test_CH_C_Inputs                                  ./DIMC_Files/gpio_control_dimc.o
                                                  ./DIMC_Files/pbit_dimc.o
Test_Flt_CH_B                                     ./DIMC_Files/gpio_control_dimc.o
                                                  ./DIMC_Files/pbit_dimc.o
Test_OPER_Inputs                                  ./DIMC_Files/gpio_control_dimc.o
                                                  ./DIMC_Files/pbit_dimc.o
Test_OnBoard_Voltage                              ./DIMC_Files/voltage_meas_dimc.o
                                                  ./DIMC_Files/pbit_dimc.o
                                                  ./DIMC_Files/cbit_dimc.o
Tick_Freq                                         ./02_STM_Drivers/Src/gipsy_hal_rcc.o
Tick_Value                                        ./02_STM_Drivers/Src/gipsy_hal_rcc.o
Timer                                             ./DIMC_Files/periodic_dimc.o
UART4_IRQHandler                                  ./Startup/startup_stm32f427xx.o
UART5_IRQHandler                                  ./Startup/startup_stm32f427xx.o
UART7_IRQHandler                                  ./Startup/startup_stm32f427xx.o
UART8_IRQHandler                                  ./Startup/startup_stm32f427xx.o
USART1_IRQHandler                                 ./Src/gipsy_dimc_it.o
                                                  ./Startup/startup_stm32f427xx.o
USART2_IRQHandler                                 ./Startup/startup_stm32f427xx.o
USART3_IRQHandler                                 ./Startup/startup_stm32f427xx.o
USART6_IRQHandler                                 ./Startup/startup_stm32f427xx.o
UsageFault_Handler                                ./Startup/startup_stm32f427xx.o
VoltHwParams                                      ./DIMC_Files/voltage_meas_dimc.o
WDOG_Get_Test_Result                              ./DIMC_Files/wdog.o
WDOG_Perform_Test                                 ./DIMC_Files/wdog.o
WDOG_Trigger                                      ./DIMC_Files/wdog.o
                                                  ./DIMC_Files/periodic_dimc.o
                                                  ./DIMC_Files/pbit_dimc.o
                                                  ./DIMC_Files/diac_mngmnt.o
WWDG_IRQHandler                                   ./Startup/startup_stm32f427xx.o
WrBuffer                                          ./DIMC_Files/exflash_dimc.o
Write_EEPROM                                      ./DIMC_Files/exflash_dimc.o
                                                  ./DIMC_Files/logger_dimc.o
Write_Event_To_Memory                             ./DIMC_Files/logger_dimc.o
                                                  ./DIMC_Files/periodic_dimc.o
                                                  ./DIMC_Files/pbit_dimc.o
                                                  ./DIMC_Files/fault_management_dimc.o
                                                  ./DIMC_Files/diac_mngmnt.o
__adddf3                                          c:/program files (x86)/atollic/truestudio for stm32 9.1.0/armtools/bin/../lib/gcc/arm-atollic-eabi/6.3.1/armv7e-m/fpu\libgcc.a(_arm_addsubdf3.o)
__aeabi_cdcmpeq                                   c:/program files (x86)/atollic/truestudio for stm32 9.1.0/armtools/bin/../lib/gcc/arm-atollic-eabi/6.3.1/armv7e-m/fpu\libgcc.a(_arm_cmpdf2.o)
__aeabi_cdcmple                                   c:/program files (x86)/atollic/truestudio for stm32 9.1.0/armtools/bin/../lib/gcc/arm-atollic-eabi/6.3.1/armv7e-m/fpu\libgcc.a(_arm_cmpdf2.o)
__aeabi_cdrcmple                                  c:/program files (x86)/atollic/truestudio for stm32 9.1.0/armtools/bin/../lib/gcc/arm-atollic-eabi/6.3.1/armv7e-m/fpu\libgcc.a(_arm_cmpdf2.o)
__aeabi_d2f                                       c:/program files (x86)/atollic/truestudio for stm32 9.1.0/armtools/bin/../lib/gcc/arm-atollic-eabi/6.3.1/armv7e-m/fpu\libgcc.a(_arm_truncdfsf2.o)
                                                  ./DIMC_Files/voltage_meas_dimc.o
__aeabi_dadd                                      c:/program files (x86)/atollic/truestudio for stm32 9.1.0/armtools/bin/../lib/gcc/arm-atollic-eabi/6.3.1/armv7e-m/fpu\libgcc.a(_arm_addsubdf3.o)
__aeabi_dcmpeq                                    c:/program files (x86)/atollic/truestudio for stm32 9.1.0/armtools/bin/../lib/gcc/arm-atollic-eabi/6.3.1/armv7e-m/fpu\libgcc.a(_arm_cmpdf2.o)
__aeabi_dcmpge                                    c:/program files (x86)/atollic/truestudio for stm32 9.1.0/armtools/bin/../lib/gcc/arm-atollic-eabi/6.3.1/armv7e-m/fpu\libgcc.a(_arm_cmpdf2.o)
__aeabi_dcmpgt                                    c:/program files (x86)/atollic/truestudio for stm32 9.1.0/armtools/bin/../lib/gcc/arm-atollic-eabi/6.3.1/armv7e-m/fpu\libgcc.a(_arm_cmpdf2.o)
                                                  ./DIMC_Files/voltage_meas_dimc.o
__aeabi_dcmple                                    c:/program files (x86)/atollic/truestudio for stm32 9.1.0/armtools/bin/../lib/gcc/arm-atollic-eabi/6.3.1/armv7e-m/fpu\libgcc.a(_arm_cmpdf2.o)
__aeabi_dcmplt                                    c:/program files (x86)/atollic/truestudio for stm32 9.1.0/armtools/bin/../lib/gcc/arm-atollic-eabi/6.3.1/armv7e-m/fpu\libgcc.a(_arm_cmpdf2.o)
__aeabi_ddiv                                      c:/program files (x86)/atollic/truestudio for stm32 9.1.0/armtools/bin/../lib/gcc/arm-atollic-eabi/6.3.1/armv7e-m/fpu\libgcc.a(_arm_muldivdf3.o)
__aeabi_dmul                                      c:/program files (x86)/atollic/truestudio for stm32 9.1.0/armtools/bin/../lib/gcc/arm-atollic-eabi/6.3.1/armv7e-m/fpu\libgcc.a(_arm_muldivdf3.o)
                                                  ./DIMC_Files/voltage_meas_dimc.o
__aeabi_drsub                                     c:/program files (x86)/atollic/truestudio for stm32 9.1.0/armtools/bin/../lib/gcc/arm-atollic-eabi/6.3.1/armv7e-m/fpu\libgcc.a(_arm_addsubdf3.o)
__aeabi_dsub                                      c:/program files (x86)/atollic/truestudio for stm32 9.1.0/armtools/bin/../lib/gcc/arm-atollic-eabi/6.3.1/armv7e-m/fpu\libgcc.a(_arm_addsubdf3.o)
                                                  ./DIMC_Files/voltage_meas_dimc.o
__aeabi_f2d                                       c:/program files (x86)/atollic/truestudio for stm32 9.1.0/armtools/bin/../lib/gcc/arm-atollic-eabi/6.3.1/armv7e-m/fpu\libgcc.a(_arm_addsubdf3.o)
__aeabi_i2d                                       c:/program files (x86)/atollic/truestudio for stm32 9.1.0/armtools/bin/../lib/gcc/arm-atollic-eabi/6.3.1/armv7e-m/fpu\libgcc.a(_arm_addsubdf3.o)
                                                  ./DIMC_Files/voltage_meas_dimc.o
__aeabi_idiv0                                     c:/program files (x86)/atollic/truestudio for stm32 9.1.0/armtools/bin/../lib/gcc/arm-atollic-eabi/6.3.1/armv7e-m/fpu\libgcc.a(_dvmd_tls.o)
__aeabi_l2d                                       c:/program files (x86)/atollic/truestudio for stm32 9.1.0/armtools/bin/../lib/gcc/arm-atollic-eabi/6.3.1/armv7e-m/fpu\libgcc.a(_arm_addsubdf3.o)
__aeabi_ldiv0                                     c:/program files (x86)/atollic/truestudio for stm32 9.1.0/armtools/bin/../lib/gcc/arm-atollic-eabi/6.3.1/armv7e-m/fpu\libgcc.a(_dvmd_tls.o)
                                                  c:/program files (x86)/atollic/truestudio for stm32 9.1.0/armtools/bin/../lib/gcc/arm-atollic-eabi/6.3.1/armv7e-m/fpu\libgcc.a(_aeabi_uldivmod.o)
__aeabi_ui2d                                      c:/program files (x86)/atollic/truestudio for stm32 9.1.0/armtools/bin/../lib/gcc/arm-atollic-eabi/6.3.1/armv7e-m/fpu\libgcc.a(_arm_addsubdf3.o)
__aeabi_ul2d                                      c:/program files (x86)/atollic/truestudio for stm32 9.1.0/armtools/bin/../lib/gcc/arm-atollic-eabi/6.3.1/armv7e-m/fpu\libgcc.a(_arm_addsubdf3.o)
__aeabi_uldivmod                                  c:/program files (x86)/atollic/truestudio for stm32 9.1.0/armtools/bin/../lib/gcc/arm-atollic-eabi/6.3.1/armv7e-m/fpu\libgcc.a(_aeabi_uldivmod.o)
                                                  ./02_STM_Drivers/Src/gipsy_hal_rcc.o
__cmpdf2                                          c:/program files (x86)/atollic/truestudio for stm32 9.1.0/armtools/bin/../lib/gcc/arm-atollic-eabi/6.3.1/armv7e-m/fpu\libgcc.a(_arm_cmpdf2.o)
__deregister_frame_info                           c:/program files (x86)/atollic/truestudio for stm32 9.1.0/armtools/bin/../lib/gcc/arm-atollic-eabi/6.3.1/armv7e-m/fpu/crtbegin.o
__divdf3                                          c:/program files (x86)/atollic/truestudio for stm32 9.1.0/armtools/bin/../lib/gcc/arm-atollic-eabi/6.3.1/armv7e-m/fpu\libgcc.a(_arm_muldivdf3.o)
__dso_handle                                      c:/program files (x86)/atollic/truestudio for stm32 9.1.0/armtools/bin/../lib/gcc/arm-atollic-eabi/6.3.1/armv7e-m/fpu/crtbegin.o
__eqdf2                                           c:/program files (x86)/atollic/truestudio for stm32 9.1.0/armtools/bin/../lib/gcc/arm-atollic-eabi/6.3.1/armv7e-m/fpu\libgcc.a(_arm_cmpdf2.o)
__extendsfdf2                                     c:/program files (x86)/atollic/truestudio for stm32 9.1.0/armtools/bin/../lib/gcc/arm-atollic-eabi/6.3.1/armv7e-m/fpu\libgcc.a(_arm_addsubdf3.o)
__floatdidf                                       c:/program files (x86)/atollic/truestudio for stm32 9.1.0/armtools/bin/../lib/gcc/arm-atollic-eabi/6.3.1/armv7e-m/fpu\libgcc.a(_arm_addsubdf3.o)
__floatsidf                                       c:/program files (x86)/atollic/truestudio for stm32 9.1.0/armtools/bin/../lib/gcc/arm-atollic-eabi/6.3.1/armv7e-m/fpu\libgcc.a(_arm_addsubdf3.o)
__floatundidf                                     c:/program files (x86)/atollic/truestudio for stm32 9.1.0/armtools/bin/../lib/gcc/arm-atollic-eabi/6.3.1/armv7e-m/fpu\libgcc.a(_arm_addsubdf3.o)
__floatunsidf                                     c:/program files (x86)/atollic/truestudio for stm32 9.1.0/armtools/bin/../lib/gcc/arm-atollic-eabi/6.3.1/armv7e-m/fpu\libgcc.a(_arm_addsubdf3.o)
__gedf2                                           c:/program files (x86)/atollic/truestudio for stm32 9.1.0/armtools/bin/../lib/gcc/arm-atollic-eabi/6.3.1/armv7e-m/fpu\libgcc.a(_arm_cmpdf2.o)
__gtdf2                                           c:/program files (x86)/atollic/truestudio for stm32 9.1.0/armtools/bin/../lib/gcc/arm-atollic-eabi/6.3.1/armv7e-m/fpu\libgcc.a(_arm_cmpdf2.o)
__init_array_end                                  c:/program files (x86)/atollic/truestudio for stm32 9.1.0/armtools/bin/../lib/gcc/arm-atollic-eabi/6.3.1/../../../../arm-atollic-eabi/lib/armv7e-m/fpu\libc_nano.a(lib_a-init.o)
__init_array_start                                c:/program files (x86)/atollic/truestudio for stm32 9.1.0/armtools/bin/../lib/gcc/arm-atollic-eabi/6.3.1/../../../../arm-atollic-eabi/lib/armv7e-m/fpu\libc_nano.a(lib_a-init.o)
__ledf2                                           c:/program files (x86)/atollic/truestudio for stm32 9.1.0/armtools/bin/../lib/gcc/arm-atollic-eabi/6.3.1/armv7e-m/fpu\libgcc.a(_arm_cmpdf2.o)
__libc_init_array                                 c:/program files (x86)/atollic/truestudio for stm32 9.1.0/armtools/bin/../lib/gcc/arm-atollic-eabi/6.3.1/../../../../arm-atollic-eabi/lib/armv7e-m/fpu\libc_nano.a(lib_a-init.o)
                                                  ./Startup/startup_stm32f427xx.o
__ltdf2                                           c:/program files (x86)/atollic/truestudio for stm32 9.1.0/armtools/bin/../lib/gcc/arm-atollic-eabi/6.3.1/armv7e-m/fpu\libgcc.a(_arm_cmpdf2.o)
__muldf3                                          c:/program files (x86)/atollic/truestudio for stm32 9.1.0/armtools/bin/../lib/gcc/arm-atollic-eabi/6.3.1/armv7e-m/fpu\libgcc.a(_arm_muldivdf3.o)
__nedf2                                           c:/program files (x86)/atollic/truestudio for stm32 9.1.0/armtools/bin/../lib/gcc/arm-atollic-eabi/6.3.1/armv7e-m/fpu\libgcc.a(_arm_cmpdf2.o)
__preinit_array_end                               c:/program files (x86)/atollic/truestudio for stm32 9.1.0/armtools/bin/../lib/gcc/arm-atollic-eabi/6.3.1/../../../../arm-atollic-eabi/lib/armv7e-m/fpu\libc_nano.a(lib_a-init.o)
__preinit_array_start                             c:/program files (x86)/atollic/truestudio for stm32 9.1.0/armtools/bin/../lib/gcc/arm-atollic-eabi/6.3.1/../../../../arm-atollic-eabi/lib/armv7e-m/fpu\libc_nano.a(lib_a-init.o)
__register_frame_info                             c:/program files (x86)/atollic/truestudio for stm32 9.1.0/armtools/bin/../lib/gcc/arm-atollic-eabi/6.3.1/armv7e-m/fpu/crtbegin.o
__subdf3                                          c:/program files (x86)/atollic/truestudio for stm32 9.1.0/armtools/bin/../lib/gcc/arm-atollic-eabi/6.3.1/armv7e-m/fpu\libgcc.a(_arm_addsubdf3.o)
__truncdfsf2                                      c:/program files (x86)/atollic/truestudio for stm32 9.1.0/armtools/bin/../lib/gcc/arm-atollic-eabi/6.3.1/armv7e-m/fpu\libgcc.a(_arm_truncdfsf2.o)
__udivmoddi4                                      c:/program files (x86)/atollic/truestudio for stm32 9.1.0/armtools/bin/../lib/gcc/arm-atollic-eabi/6.3.1/armv7e-m/fpu\libgcc.a(_udivmoddi4.o)
                                                  c:/program files (x86)/atollic/truestudio for stm32 9.1.0/armtools/bin/../lib/gcc/arm-atollic-eabi/6.3.1/armv7e-m/fpu\libgcc.a(_aeabi_uldivmod.o)
_ebss                                             ./Startup/startup_stm32f427xx.o
_edata                                            ./Startup/startup_stm32f427xx.o
_estack                                           ./Startup/startup_stm32f427xx.o
_fini                                             c:/program files (x86)/atollic/truestudio for stm32 9.1.0/armtools/bin/../lib/gcc/arm-atollic-eabi/6.3.1/armv7e-m/fpu/crti.o
_init                                             c:/program files (x86)/atollic/truestudio for stm32 9.1.0/armtools/bin/../lib/gcc/arm-atollic-eabi/6.3.1/armv7e-m/fpu/crti.o
                                                  c:/program files (x86)/atollic/truestudio for stm32 9.1.0/armtools/bin/../lib/gcc/arm-atollic-eabi/6.3.1/../../../../arm-atollic-eabi/lib/armv7e-m/fpu\libc_nano.a(lib_a-init.o)
_sbss                                             ./Startup/startup_stm32f427xx.o
_sdata                                            ./Startup/startup_stm32f427xx.o
_sidata                                           ./Startup/startup_stm32f427xx.o
bCmd_Ready_For_Parse                              ./DIMC_Files/irs_protocol_dimc.o
ctry_operation_data_table                         ./DIMC_Files/periodic_dimc.o
g_Actuator_Man_Req                                ./DIMC_Files/periodic_dimc.o
                                                  ./DIMC_Files/irs_protocol_dimc.o
                                                  ./DIMC_Files/fault_management_dimc.o
g_CTRY_Resp                                       ./DIMC_Files/pbit_dimc.o
                                                  ./DIMC_Files/can_protocol_dimc.o
g_CTRYs_SW_Ver                                    ./DIMC_Files/module_init_dimc.o
                                                  ./DIMC_Files/pbit_dimc.o
                                                  ./DIMC_Files/irs_protocol_dimc.o
                                                  ./DIMC_Files/can_protocol_dimc.o
g_HandleI2C2_ExFlash                              ./DIMC_Files/mcu_config_dimc.o
                                                  ./DIMC_Files/exflash_dimc.o
g_HandleUart1Irs                                  ./DIMC_Files/mcu_config_dimc.o
                                                  ./DIMC_Files/irs_protocol_dimc.o
                                                  ./Src/gipsy_dimc_it.o
g_IBIT_Result                                     ./DIMC_Files/module_init_dimc.o
                                                  ./DIMC_Files/periodic_dimc.o
                                                  ./DIMC_Files/irs_protocol_dimc.o
g_Logger_Status                                   ./DIMC_Files/logger_dimc.o
                                                  ./DIMC_Files/exflash_dimc.o
g_Maint_ActuatorData                              ./DIMC_Files/periodic_dimc.o
                                                  ./DIMC_Files/irs_protocol_dimc.o
g_SysStatus                                       ./DIMC_Files/module_init_dimc.o
                                                  ./DIMC_Files/system_params_dimc.o
                                                  ./DIMC_Files/periodic_dimc.o
                                                  ./DIMC_Files/pbit_dimc.o
                                                  ./DIMC_Files/logger_dimc.o
                                                  ./DIMC_Files/irs_protocol_dimc.o
                                                  ./DIMC_Files/gpio_control_dimc.o
                                                  ./DIMC_Files/fault_management_dimc.o
                                                  ./DIMC_Files/diac_mngmnt.o
                                                  ./DIMC_Files/cbit_dimc.o
                                                  ./DIMC_Files/can_protocol_dimc.o
                                                  ./Test_Bench_Config/dimc_test_bench_config.o
g_SysTestsStatus                                  ./DIMC_Files/module_init_dimc.o
                                                  ./DIMC_Files/periodic_dimc.o
                                                  ./DIMC_Files/pbit_dimc.o
                                                  ./DIMC_Files/fault_management_dimc.o
                                                  ./DIMC_Files/cbit_dimc.o
                                                  ./DIMC_Files/can_protocol_dimc.o
                                                  ./Test_Bench_Config/dimc_test_bench_config.o
g_Sys_Acc_OPER_Time_Sec                           ./DIMC_Files/module_init_dimc.o
                                                  ./DIMC_Files/periodic_dimc.o
                                                  ./DIMC_Files/irs_protocol_dimc.o
                                                  ./DIMC_Files/fault_management_dimc.o
g_Sys_OPER_Time_Sec                               ./DIMC_Files/module_init_dimc.o
                                                  ./DIMC_Files/periodic_dimc.o
                                                  ./DIMC_Files/irs_protocol_dimc.o
                                                  ./DIMC_Files/fault_management_dimc.o
g_VoltageMeasurement                              ./DIMC_Files/voltage_meas_dimc.o
                                                  ./DIMC_Files/fault_management_dimc.o
g_pfnVectors                                      ./Startup/startup_stm32f427xx.o
hCAN1                                             ./02_STM_Drivers/Src/gipsy_hal_can.o
hRTC                                              ./02_STM_Drivers/Src/gipsy_hal_rtc.o
main                                              ./Src/main.o
                                                  ./Startup/startup_stm32f427xx.o
memset                                            c:/program files (x86)/atollic/truestudio for stm32 9.1.0/armtools/bin/../lib/gcc/arm-atollic-eabi/6.3.1/../../../../arm-atollic-eabi/lib/armv7e-m/fpu\libc_nano.a(lib_a-memset.o)
                                                  ./DIMC_Files/irs_protocol_dimc.o
oper_curr_time                                    ./DIMC_Files/periodic_dimc.o
oper_handler                                      ./DIMC_Files/periodic_dimc.o
ucCyclic_Msg_Counter                              ./DIMC_Files/irs_protocol_dimc.o
ucLast_Message_Status                             ./DIMC_Files/irs_protocol_dimc.o
