
DIMC_01_10.elf:     file format elf32-littlearm

Sections:
Idx Name          Size      VMA       LMA       File off  Algn
  0 .isr_vector   000001ac  08000000  08000000  00010000  2**0
                  CONTENTS, ALLOC, LOAD, READONLY, DATA
  1 .text         0000b8bc  080001b0  080001b0  000101b0  2**3
                  CONTENTS, ALLOC, LOAD, READONLY, CODE
  2 .rodata       00000710  0800ba6c  0800ba6c  0001ba6c  2**2
                  CONTENTS, ALLOC, LOAD, READONLY, DATA
  3 .ARM          00000008  0800c17c  0800c17c  0001c17c  2**2
                  CONTENTS, ALLOC, LOAD, READONLY, DATA
  4 .init_array   00000004  0800c184  0800c184  0001c184  2**2
                  CONTENTS, ALLOC, LOAD, DATA
  5 .fini_array   00000004  0800c188  0800c188  0001c188  2**2
                  CONTENTS, ALLOC, LOAD, DATA
  6 .data         00000c48  20000000  0800c18c  00020000  2**2
                  CONTENTS, ALLOC, LOAD, DATA
  7 .ccmram       00000000  10000000  10000000  00020c48  2**0
                  CONTENTS
  8 .bss          00000724  20000c48  20000c48  00020c48  2**2
                  ALLOC
  9 ._user_heap_stack 00000600  2000136c  2000136c  00020c48  2**0
                  ALLOC
 10 .ARM.attributes 00000030  00000000  00000000  00020c48  2**0
                  CONTENTS, READONLY
 11 .debug_info   00011093  00000000  00000000  00020c78  2**0
                  CONTENTS, READONLY, DEBUGGING
 12 .debug_abbrev 000027f9  00000000  00000000  00031d0b  2**0
                  CONTENTS, READONLY, DEBUGGING
 13 .debug_aranges 000003a8  00000000  00000000  00034508  2**3
                  CONTENTS, READONLY, DEBUGGING
 14 .debug_macro  000044d6  00000000  00000000  000348b0  2**0
                  CONTENTS, READONLY, DEBUGGING
 15 .debug_line   00004fbe  00000000  00000000  00038d86  2**0
                  CONTENTS, READONLY, DEBUGGING
 16 .debug_str    00014e6d  00000000  00000000  0003dd44  2**0
                  CONTENTS, READONLY, DEBUGGING
 17 .comment      0000007c  00000000  00000000  00052bb1  2**0
                  CONTENTS, READONLY
 18 .debug_frame  00001a5c  00000000  00000000  00052c30  2**2
                  CONTENTS, READONLY, DEBUGGING
 19 .debug_ranges 00000020  00000000  00000000  00054690  2**3
                  CONTENTS, READONLY, DEBUGGING

Disassembly of section .text:

080001b0 <__do_global_dtors_aux>:
 80001b0:	b510      	push	{r4, lr}
 80001b2:	4c05      	ldr	r4, [pc, #20]	; (80001c8 <__do_global_dtors_aux+0x18>)
 80001b4:	7823      	ldrb	r3, [r4, #0]
 80001b6:	b933      	cbnz	r3, 80001c6 <__do_global_dtors_aux+0x16>
 80001b8:	4b04      	ldr	r3, [pc, #16]	; (80001cc <__do_global_dtors_aux+0x1c>)
 80001ba:	b113      	cbz	r3, 80001c2 <__do_global_dtors_aux+0x12>
 80001bc:	4804      	ldr	r0, [pc, #16]	; (80001d0 <__do_global_dtors_aux+0x20>)
 80001be:	f3af 8000 	nop.w
 80001c2:	2301      	movs	r3, #1
 80001c4:	7023      	strb	r3, [r4, #0]
 80001c6:	bd10      	pop	{r4, pc}
 80001c8:	20000c48 	.word	0x20000c48
 80001cc:	00000000 	.word	0x00000000
 80001d0:	0800ba50 	.word	0x0800ba50

080001d4 <frame_dummy>:
 80001d4:	b508      	push	{r3, lr}
 80001d6:	4b03      	ldr	r3, [pc, #12]	; (80001e4 <frame_dummy+0x10>)
 80001d8:	b11b      	cbz	r3, 80001e2 <frame_dummy+0xe>
 80001da:	4903      	ldr	r1, [pc, #12]	; (80001e8 <frame_dummy+0x14>)
 80001dc:	4803      	ldr	r0, [pc, #12]	; (80001ec <frame_dummy+0x18>)
 80001de:	f3af 8000 	nop.w
 80001e2:	bd08      	pop	{r3, pc}
 80001e4:	00000000 	.word	0x00000000
 80001e8:	20000c4c 	.word	0x20000c4c
 80001ec:	0800ba50 	.word	0x0800ba50

080001f0 <DIMC_Pbit_Recovery>:
**
** Returns: None.
** Notes:
*************************************************************************************/
void DIMC_Pbit_Recovery(void)
{
 80001f0:	b480      	push	{r7}
 80001f2:	af00      	add	r7, sp, #0
	g_SysStatus.DIMC_PBIT_Failure_Desc &= 0xDF;
 80001f4:	4b07      	ldr	r3, [pc, #28]	; (8000214 <DIMC_Pbit_Recovery+0x24>)
 80001f6:	7b1b      	ldrb	r3, [r3, #12]
 80001f8:	f023 0320 	bic.w	r3, r3, #32
 80001fc:	b2da      	uxtb	r2, r3
 80001fe:	4b05      	ldr	r3, [pc, #20]	; (8000214 <DIMC_Pbit_Recovery+0x24>)
 8000200:	731a      	strb	r2, [r3, #12]
	g_SysTestsStatus.DIMC_Ch_A_Test_Status = TEST_OK;
 8000202:	4b05      	ldr	r3, [pc, #20]	; (8000218 <DIMC_Pbit_Recovery+0x28>)
 8000204:	2200      	movs	r2, #0
 8000206:	709a      	strb	r2, [r3, #2]
}
 8000208:	bf00      	nop
 800020a:	46bd      	mov	sp, r7
 800020c:	f85d 7b04 	ldr.w	r7, [sp], #4
 8000210:	4770      	bx	lr
 8000212:	bf00      	nop
 8000214:	20000504 	.word	0x20000504
 8000218:	20000e24 	.word	0x20000e24

0800021c <DIMC_System_PBIT_Recovery>:
**
** Returns: None.
** Notes:
*************************************************************************************/
void DIMC_System_PBIT_Recovery(void)
{
 800021c:	b480      	push	{r7}
 800021e:	b083      	sub	sp, #12
 8000220:	af00      	add	r7, sp, #0
	for(uint8_t ctry_num = 0U; ctry_num < CTRY_MAX_NUM ; ctry_num++)
 8000222:	2300      	movs	r3, #0
 8000224:	71fb      	strb	r3, [r7, #7]
 8000226:	e00c      	b.n	8000242 <DIMC_System_PBIT_Recovery+0x26>
	{
		g_SysStatus.CTRY_Status[ctry_num].Ctry_Mot_Oper_In_Test_Status = TEST_OK;
 8000228:	79fa      	ldrb	r2, [r7, #7]
 800022a:	490a      	ldr	r1, [pc, #40]	; (8000254 <DIMC_System_PBIT_Recovery+0x38>)
 800022c:	4613      	mov	r3, r2
 800022e:	00db      	lsls	r3, r3, #3
 8000230:	1a9b      	subs	r3, r3, r2
 8000232:	00db      	lsls	r3, r3, #3
 8000234:	440b      	add	r3, r1
 8000236:	3369      	adds	r3, #105	; 0x69
 8000238:	2200      	movs	r2, #0
 800023a:	701a      	strb	r2, [r3, #0]
	for(uint8_t ctry_num = 0U; ctry_num < CTRY_MAX_NUM ; ctry_num++)
 800023c:	79fb      	ldrb	r3, [r7, #7]
 800023e:	3301      	adds	r3, #1
 8000240:	71fb      	strb	r3, [r7, #7]
 8000242:	79fb      	ldrb	r3, [r7, #7]
 8000244:	2b13      	cmp	r3, #19
 8000246:	d9ef      	bls.n	8000228 <DIMC_System_PBIT_Recovery+0xc>
	}
}
 8000248:	bf00      	nop
 800024a:	370c      	adds	r7, #12
 800024c:	46bd      	mov	sp, r7
 800024e:	f85d 7b04 	ldr.w	r7, [sp], #4
 8000252:	4770      	bx	lr
 8000254:	20000504 	.word	0x20000504
 8000258:	0800c18c 	.word	0x0800c18c
 800025c:	20000000 	.word	0x20000000
 8000260:	20000c48 	.word	0x20000c48
 8000264:	20000c48 	.word	0x20000c48
 8000268:	2000136c 	.word	0x2000136c

0800026c <SysTick_Handler>:
** Returns: None.
** Notes:
**
*************************************************************************************/
void SysTick_Handler(void)
{
 800026c:	b580      	push	{r7, lr}
 800026e:	af00      	add	r7, sp, #0
  HAL_IncTick();
 8000270:	f009 fe58 	bl	8009f24 <HAL_IncTick>
}
 8000274:	bf00      	nop
 8000276:	bd80      	pop	{r7, pc}

08000278 <USART1_IRQHandler>:
** Returns: None.
** Notes:
**
*************************************************************************************/
void USART1_IRQHandler(void)
{
 8000278:	b580      	push	{r7, lr}
 800027a:	af00      	add	r7, sp, #0
  HAL_UART_IRQHandler(&g_HandleUart1Irs);
 800027c:	4802      	ldr	r0, [pc, #8]	; (8000288 <USART1_IRQHandler+0x10>)
 800027e:	f00a fc55 	bl	800ab2c <HAL_UART_IRQHandler>
}
 8000282:	bf00      	nop
 8000284:	bd80      	pop	{r7, pc}
 8000286:	bf00      	nop
 8000288:	20000de4 	.word	0x20000de4

0800028c <CAN1_RX0_IRQHandler>:
** Returns: None.
** Notes:
**
*************************************************************************************/
void CAN1_RX0_IRQHandler(void)
{
 800028c:	b580      	push	{r7, lr}
 800028e:	af00      	add	r7, sp, #0
   HAL_CAN_IRQHandler();
 8000290:	f007 ff70 	bl	8008174 <HAL_CAN_IRQHandler>
}
 8000294:	bf00      	nop
 8000296:	bd80      	pop	{r7, pc}

08000298 <main>:
** Notes:
**
*************************************************************************************/

int main(void)
{
 8000298:	b580      	push	{r7, lr}
 800029a:	af00      	add	r7, sp, #0
 	DIMC_Module_Init();
 800029c:	f004 fa60 	bl	8004760 <DIMC_Module_Init>

	while (TRUE)
	{
		Periodic_Tasks_Scheduler();
 80002a0:	f004 ffd4 	bl	800524c <Periodic_Tasks_Scheduler>
 80002a4:	e7fc      	b.n	80002a0 <main+0x8>

080002a6 <SystemInit>:
  **
  ** Returns: None
  ** Notes:
  *************************************************************************************/
  void SystemInit(void)
  {
 80002a6:	b480      	push	{r7}
 80002a8:	af00      	add	r7, sp, #0
	  /* FPU settings ------------------------------------------------------------*/
	  SCB->CPACR |= (uint32_t)((3UL << (10UL*2UL))|(3UL << (11UL*2UL)));  /* set CP10 and CP11 Full Access */
 80002aa:	4a17      	ldr	r2, [pc, #92]	; (8000308 <SystemInit+0x62>)
 80002ac:	4b16      	ldr	r3, [pc, #88]	; (8000308 <SystemInit+0x62>)
 80002ae:	f8d3 3088 	ldr.w	r3, [r3, #136]	; 0x88
 80002b2:	f443 0370 	orr.w	r3, r3, #15728640	; 0xf00000
 80002b6:	f8c2 3088 	str.w	r3, [r2, #136]	; 0x88

	  /* Reset the RCC clock configuration to the default reset state ------------*/
	  /* Set HSION bit */
	  RCC->CR |= (uint32_t)0x00000001U;
 80002ba:	4a14      	ldr	r2, [pc, #80]	; (800030c <SystemInit+0x66>)
 80002bc:	4b13      	ldr	r3, [pc, #76]	; (800030c <SystemInit+0x66>)
 80002be:	681b      	ldr	r3, [r3, #0]
 80002c0:	f043 0301 	orr.w	r3, r3, #1
 80002c4:	6013      	str	r3, [r2, #0]

	  /* Reset CFGR register */
	  RCC->CFGR = 0x00000000U;
 80002c6:	4b11      	ldr	r3, [pc, #68]	; (800030c <SystemInit+0x66>)
 80002c8:	2200      	movs	r2, #0
 80002ca:	609a      	str	r2, [r3, #8]

	  /* Reset HSEON, CSSON and PLLON bits */
	  RCC->CR &= (uint32_t)0xFEF6FFFFU;
 80002cc:	4a0f      	ldr	r2, [pc, #60]	; (800030c <SystemInit+0x66>)
 80002ce:	4b0f      	ldr	r3, [pc, #60]	; (800030c <SystemInit+0x66>)
 80002d0:	681b      	ldr	r3, [r3, #0]
 80002d2:	f023 7384 	bic.w	r3, r3, #17301504	; 0x1080000
 80002d6:	f423 3380 	bic.w	r3, r3, #65536	; 0x10000
 80002da:	6013      	str	r3, [r2, #0]

	  /* Reset PLLCFGR register */
	  RCC->PLLCFGR = 0x24003010U;
 80002dc:	4b0b      	ldr	r3, [pc, #44]	; (800030c <SystemInit+0x66>)
 80002de:	4a0c      	ldr	r2, [pc, #48]	; (8000310 <SystemInit+0x6a>)
 80002e0:	605a      	str	r2, [r3, #4]

	  /* Reset HSEBYP bit */
	  RCC->CR &= (uint32_t)0xFFFBFFFFU;
 80002e2:	4a0a      	ldr	r2, [pc, #40]	; (800030c <SystemInit+0x66>)
 80002e4:	4b09      	ldr	r3, [pc, #36]	; (800030c <SystemInit+0x66>)
 80002e6:	681b      	ldr	r3, [r3, #0]
 80002e8:	f423 2380 	bic.w	r3, r3, #262144	; 0x40000
 80002ec:	6013      	str	r3, [r2, #0]

	  /* Disable all interrupts */
	  RCC->CIR = 0x00000000U;
 80002ee:	4b07      	ldr	r3, [pc, #28]	; (800030c <SystemInit+0x66>)
 80002f0:	2200      	movs	r2, #0
 80002f2:	60da      	str	r2, [r3, #12]

	  /* Configure the Vector Table location add offset address ------------------*/
	  SCB->VTOR = FLASH_BASE | VECT_TAB_OFFSET; /* Vector Table Relocation in Internal FLASH */
 80002f4:	4b04      	ldr	r3, [pc, #16]	; (8000308 <SystemInit+0x62>)
 80002f6:	f04f 6200 	mov.w	r2, #134217728	; 0x8000000
 80002fa:	609a      	str	r2, [r3, #8]

  }
 80002fc:	bf00      	nop
 80002fe:	46bd      	mov	sp, r7
 8000300:	f85d 7b04 	ldr.w	r7, [sp], #4
 8000304:	4770      	bx	lr
 8000306:	bf00      	nop
 8000308:	e000ed00 	.word	0xe000ed00
 800030c:	40023800 	.word	0x40023800
 8000310:	24003010 	.word	0x24003010

08000314 <Error_Handler>:
** Notes:
**
*************************************************************************************/

void Error_Handler(void)
{
 8000314:	b480      	push	{r7}
 8000316:	af00      	add	r7, sp, #0
  \brief   No Operation
  \details No Operation does nothing. This instruction can be used for code alignment purposes.
 */
__attribute__((always_inline)) __STATIC_INLINE void __NOP(void)
{
  __ASM volatile ("nop");
 8000318:	bf00      	nop

  while(TRUE)
  {
	  __NOP();
 800031a:	e7fd      	b.n	8000318 <Error_Handler+0x4>

0800031c <HAL_CAN_RxFifo0MsgPendingCallback>:
**
** Returns: None.
** Notes:
*************************************************************************************/
 void HAL_CAN_RxFifo0MsgPendingCallback(void)
 {
 800031c:	b590      	push	{r4, r7, lr}
 800031e:	b089      	sub	sp, #36	; 0x24
 8000320:	af00      	add	r7, sp, #0
	CAN_RxHeaderTypeDef   can_rx_header = {0U};
 8000322:	f107 030c 	add.w	r3, r7, #12
 8000326:	2200      	movs	r2, #0
 8000328:	601a      	str	r2, [r3, #0]
 800032a:	605a      	str	r2, [r3, #4]
 800032c:	609a      	str	r2, [r3, #8]
 800032e:	60da      	str	r2, [r3, #12]
	uint8_t               can_msg_rx_data[CAN_MSG_DATA_LENGH_BYTES] = {0U};
 8000330:	1d3b      	adds	r3, r7, #4
 8000332:	2200      	movs	r2, #0
 8000334:	601a      	str	r2, [r3, #0]
 8000336:	605a      	str	r2, [r3, #4]
	uint8_t        		  ctry_id = 0U;
 8000338:	2300      	movs	r3, #0
 800033a:	77fb      	strb	r3, [r7, #31]
	uint8_t				  act_numer = 0x00U; /* Rev 1.7 */
 800033c:	2300      	movs	r3, #0
 800033e:	773b      	strb	r3, [r7, #28]
   /* Get RX message */
   if (HAL_OK == HAL_CAN_GetRxMessage(&can_rx_header, can_msg_rx_data))
 8000340:	1d3a      	adds	r2, r7, #4
 8000342:	f107 030c 	add.w	r3, r7, #12
 8000346:	4611      	mov	r1, r2
 8000348:	4618      	mov	r0, r3
 800034a:	f007 fe5b 	bl	8008004 <HAL_CAN_GetRxMessage>
 800034e:	4603      	mov	r3, r0
 8000350:	2b00      	cmp	r3, #0
 8000352:	f040 8277 	bne.w	8000844 <HAL_CAN_RxFifo0MsgPendingCallback+0x528>
   {
	   if(DIMC_CAN_ADDR == GET_CAN_UNIT_ADDR_FROM_HEADER(can_rx_header.StdId))/*Handle messages addressed to DIMC*/
 8000356:	68fb      	ldr	r3, [r7, #12]
 8000358:	b2db      	uxtb	r3, r3
 800035a:	f003 031f 	and.w	r3, r3, #31
 800035e:	2b1e      	cmp	r3, #30
 8000360:	f040 825e 	bne.w	8000820 <HAL_CAN_RxFifo0MsgPendingCallback+0x504>
	   {
		   ctry_id = can_msg_rx_data[0U] & 0x1FU; /*Get CTRY's ID (5 lower bits of can_msg_rx_data[0]*/
 8000364:	793b      	ldrb	r3, [r7, #4]
 8000366:	f003 031f 	and.w	r3, r3, #31
 800036a:	77fb      	strb	r3, [r7, #31]
		   /*CTRY's ID validity check (range 1 - 20)*/
		   if((ctry_id > 0U) && ( ctry_id <= CTRY_MAX_NUM))
 800036c:	7ffb      	ldrb	r3, [r7, #31]
 800036e:	2b00      	cmp	r3, #0
 8000370:	f000 824d 	beq.w	800080e <HAL_CAN_RxFifo0MsgPendingCallback+0x4f2>
 8000374:	7ffb      	ldrb	r3, [r7, #31]
 8000376:	2b14      	cmp	r3, #20
 8000378:	f200 8249 	bhi.w	800080e <HAL_CAN_RxFifo0MsgPendingCallback+0x4f2>
		   {
			   ctry_id--; /*Decrement CTRY's ID to fit range 0 - 19 */
 800037c:	7ffb      	ldrb	r3, [r7, #31]
 800037e:	3b01      	subs	r3, #1
 8000380:	77fb      	strb	r3, [r7, #31]
			   switch (GET_CAN_MSG_ID_FROM_HEADER(can_rx_header.StdId))/*Check message type*/
 8000382:	68fb      	ldr	r3, [r7, #12]
 8000384:	095b      	lsrs	r3, r3, #5
 8000386:	b2db      	uxtb	r3, r3
 8000388:	3b20      	subs	r3, #32
 800038a:	2b04      	cmp	r3, #4
 800038c:	f200 8237 	bhi.w	80007fe <HAL_CAN_RxFifo0MsgPendingCallback+0x4e2>
 8000390:	a201      	add	r2, pc, #4	; (adr r2, 8000398 <HAL_CAN_RxFifo0MsgPendingCallback+0x7c>)
 8000392:	f852 f023 	ldr.w	pc, [r2, r3, lsl #2]
 8000396:	bf00      	nop
 8000398:	080003ad 	.word	0x080003ad
 800039c:	0800045d 	.word	0x0800045d
 80003a0:	0800062d 	.word	0x0800062d
 80003a4:	080006a9 	.word	0x080006a9
 80003a8:	0800071d 	.word	0x0800071d
			   {
					case ID_CTRY_PBIT_RESULT_RESP:
						if (FALSE == g_SysStatus.CTRY_Status[ctry_id].pbit_resp)
 80003ac:	7ffa      	ldrb	r2, [r7, #31]
 80003ae:	49bc      	ldr	r1, [pc, #752]	; (80006a0 <HAL_CAN_RxFifo0MsgPendingCallback+0x384>)
 80003b0:	4613      	mov	r3, r2
 80003b2:	00db      	lsls	r3, r3, #3
 80003b4:	1a9b      	subs	r3, r3, r2
 80003b6:	00db      	lsls	r3, r3, #3
 80003b8:	440b      	add	r3, r1
 80003ba:	3396      	adds	r3, #150	; 0x96
 80003bc:	781b      	ldrb	r3, [r3, #0]
 80003be:	2b00      	cmp	r3, #0
 80003c0:	d141      	bne.n	8000446 <HAL_CAN_RxFifo0MsgPendingCallback+0x12a>
						{
							g_SysStatus.CTRY_PBIT_Status[ctry_id].PBIT_Status = can_msg_rx_data[1U];
 80003c2:	7ffb      	ldrb	r3, [r7, #31]
 80003c4:	7979      	ldrb	r1, [r7, #5]
 80003c6:	4ab6      	ldr	r2, [pc, #728]	; (80006a0 <HAL_CAN_RxFifo0MsgPendingCallback+0x384>)
 80003c8:	3306      	adds	r3, #6
 80003ca:	f802 1023 	strb.w	r1, [r2, r3, lsl #2]
							g_SysStatus.All_CTRYs_PBIT_Status |= ((uint32_t)can_msg_rx_data[1U] << ctry_id);
 80003ce:	4bb4      	ldr	r3, [pc, #720]	; (80006a0 <HAL_CAN_RxFifo0MsgPendingCallback+0x384>)
 80003d0:	695a      	ldr	r2, [r3, #20]
 80003d2:	797b      	ldrb	r3, [r7, #5]
 80003d4:	4619      	mov	r1, r3
 80003d6:	7ffb      	ldrb	r3, [r7, #31]
 80003d8:	fa01 f303 	lsl.w	r3, r1, r3
 80003dc:	4313      	orrs	r3, r2
 80003de:	4ab0      	ldr	r2, [pc, #704]	; (80006a0 <HAL_CAN_RxFifo0MsgPendingCallback+0x384>)
 80003e0:	6153      	str	r3, [r2, #20]
							g_CTRYs_SW_Ver[ctry_id] = (can_msg_rx_data[2U] * 256U) + can_msg_rx_data[3U];
 80003e2:	7ffb      	ldrb	r3, [r7, #31]
 80003e4:	79ba      	ldrb	r2, [r7, #6]
 80003e6:	b292      	uxth	r2, r2
 80003e8:	0212      	lsls	r2, r2, #8
 80003ea:	b291      	uxth	r1, r2
 80003ec:	79fa      	ldrb	r2, [r7, #7]
 80003ee:	b292      	uxth	r2, r2
 80003f0:	440a      	add	r2, r1
 80003f2:	b291      	uxth	r1, r2
 80003f4:	4aab      	ldr	r2, [pc, #684]	; (80006a4 <HAL_CAN_RxFifo0MsgPendingCallback+0x388>)
 80003f6:	f822 1013 	strh.w	r1, [r2, r3, lsl #1]
							g_SysStatus.CTRY_PBIT_Status[ctry_id].PBIT_Failure_Desc = (can_msg_rx_data[4U] * 256U) + can_msg_rx_data[5U];
 80003fa:	7ffb      	ldrb	r3, [r7, #31]
 80003fc:	7a3a      	ldrb	r2, [r7, #8]
 80003fe:	b292      	uxth	r2, r2
 8000400:	0212      	lsls	r2, r2, #8
 8000402:	b291      	uxth	r1, r2
 8000404:	7a7a      	ldrb	r2, [r7, #9]
 8000406:	b292      	uxth	r2, r2
 8000408:	440a      	add	r2, r1
 800040a:	b291      	uxth	r1, r2
 800040c:	4aa4      	ldr	r2, [pc, #656]	; (80006a0 <HAL_CAN_RxFifo0MsgPendingCallback+0x384>)
 800040e:	3306      	adds	r3, #6
 8000410:	009b      	lsls	r3, r3, #2
 8000412:	4413      	add	r3, r2
 8000414:	460a      	mov	r2, r1
 8000416:	805a      	strh	r2, [r3, #2]
							g_SysStatus.CTRY_Status[ctry_id].respond_time = HAL_GetTick();
 8000418:	7ffc      	ldrb	r4, [r7, #31]
 800041a:	f009 fd95 	bl	8009f48 <HAL_GetTick>
 800041e:	4601      	mov	r1, r0
 8000420:	4a9f      	ldr	r2, [pc, #636]	; (80006a0 <HAL_CAN_RxFifo0MsgPendingCallback+0x384>)
 8000422:	4623      	mov	r3, r4
 8000424:	00db      	lsls	r3, r3, #3
 8000426:	1b1b      	subs	r3, r3, r4
 8000428:	00db      	lsls	r3, r3, #3
 800042a:	4413      	add	r3, r2
 800042c:	3388      	adds	r3, #136	; 0x88
 800042e:	6019      	str	r1, [r3, #0]
							g_SysStatus.CTRY_Status[ctry_id].pbit_resp = TRUE;
 8000430:	7ffa      	ldrb	r2, [r7, #31]
 8000432:	499b      	ldr	r1, [pc, #620]	; (80006a0 <HAL_CAN_RxFifo0MsgPendingCallback+0x384>)
 8000434:	4613      	mov	r3, r2
 8000436:	00db      	lsls	r3, r3, #3
 8000438:	1a9b      	subs	r3, r3, r2
 800043a:	00db      	lsls	r3, r3, #3
 800043c:	440b      	add	r3, r1
 800043e:	3396      	adds	r3, #150	; 0x96
 8000440:	2201      	movs	r2, #1
 8000442:	701a      	strb	r2, [r3, #0]
						{
							g_SysStatus.CTRY_Status[ctry_id].dup_resp_fl = TRUE;
						}


					   break;
 8000444:	e1e1      	b.n	800080a <HAL_CAN_RxFifo0MsgPendingCallback+0x4ee>
							g_SysStatus.CTRY_Status[ctry_id].dup_resp_fl = TRUE;
 8000446:	7ffa      	ldrb	r2, [r7, #31]
 8000448:	4995      	ldr	r1, [pc, #596]	; (80006a0 <HAL_CAN_RxFifo0MsgPendingCallback+0x384>)
 800044a:	4613      	mov	r3, r2
 800044c:	00db      	lsls	r3, r3, #3
 800044e:	1a9b      	subs	r3, r3, r2
 8000450:	00db      	lsls	r3, r3, #3
 8000452:	440b      	add	r3, r1
 8000454:	3394      	adds	r3, #148	; 0x94
 8000456:	2201      	movs	r2, #1
 8000458:	701a      	strb	r2, [r3, #0]
					   break;
 800045a:	e1d6      	b.n	800080a <HAL_CAN_RxFifo0MsgPendingCallback+0x4ee>
					case ID_CTRY_STATUS_RESP:
						g_SysStatus.CTRY_Status[ctry_id].Ctry_Status = (can_msg_rx_data[0U] >> 7U) & 0x01U;
 800045c:	7ffa      	ldrb	r2, [r7, #31]
 800045e:	793b      	ldrb	r3, [r7, #4]
 8000460:	09db      	lsrs	r3, r3, #7
 8000462:	b2d8      	uxtb	r0, r3
 8000464:	498e      	ldr	r1, [pc, #568]	; (80006a0 <HAL_CAN_RxFifo0MsgPendingCallback+0x384>)
 8000466:	4613      	mov	r3, r2
 8000468:	00db      	lsls	r3, r3, #3
 800046a:	1a9b      	subs	r3, r3, r2
 800046c:	00db      	lsls	r3, r3, #3
 800046e:	440b      	add	r3, r1
 8000470:	336a      	adds	r3, #106	; 0x6a
 8000472:	4602      	mov	r2, r0
 8000474:	701a      	strb	r2, [r3, #0]
						g_SysStatus.CTRY_Status[ctry_id].CH_C_Status = (can_msg_rx_data[0U] >> 6U) & 0x01U;
 8000476:	7ffa      	ldrb	r2, [r7, #31]
 8000478:	793b      	ldrb	r3, [r7, #4]
 800047a:	099b      	lsrs	r3, r3, #6
 800047c:	b2db      	uxtb	r3, r3
 800047e:	f003 0301 	and.w	r3, r3, #1
 8000482:	b2d8      	uxtb	r0, r3
 8000484:	4986      	ldr	r1, [pc, #536]	; (80006a0 <HAL_CAN_RxFifo0MsgPendingCallback+0x384>)
 8000486:	4613      	mov	r3, r2
 8000488:	00db      	lsls	r3, r3, #3
 800048a:	1a9b      	subs	r3, r3, r2
 800048c:	00db      	lsls	r3, r3, #3
 800048e:	440b      	add	r3, r1
 8000490:	336e      	adds	r3, #110	; 0x6e
 8000492:	4602      	mov	r2, r0
 8000494:	701a      	strb	r2, [r3, #0]
						g_SysStatus.CTRY_Status[ctry_id].Mot_Oper_In_State = (can_msg_rx_data[0U] >> 5U) & 0x01U;
 8000496:	7ffa      	ldrb	r2, [r7, #31]
 8000498:	793b      	ldrb	r3, [r7, #4]
 800049a:	095b      	lsrs	r3, r3, #5
 800049c:	b2db      	uxtb	r3, r3
 800049e:	f003 0301 	and.w	r3, r3, #1
 80004a2:	b2d8      	uxtb	r0, r3
 80004a4:	497e      	ldr	r1, [pc, #504]	; (80006a0 <HAL_CAN_RxFifo0MsgPendingCallback+0x384>)
 80004a6:	4613      	mov	r3, r2
 80004a8:	00db      	lsls	r3, r3, #3
 80004aa:	1a9b      	subs	r3, r3, r2
 80004ac:	00db      	lsls	r3, r3, #3
 80004ae:	440b      	add	r3, r1
 80004b0:	336f      	adds	r3, #111	; 0x6f
 80004b2:	4602      	mov	r2, r0
 80004b4:	701a      	strb	r2, [r3, #0]
						g_SysStatus.CTRY_Status[ctry_id].VibrationValue = can_msg_rx_data[1U];
 80004b6:	7ffa      	ldrb	r2, [r7, #31]
 80004b8:	7978      	ldrb	r0, [r7, #5]
 80004ba:	4979      	ldr	r1, [pc, #484]	; (80006a0 <HAL_CAN_RxFifo0MsgPendingCallback+0x384>)
 80004bc:	4613      	mov	r3, r2
 80004be:	00db      	lsls	r3, r3, #3
 80004c0:	1a9b      	subs	r3, r3, r2
 80004c2:	00db      	lsls	r3, r3, #3
 80004c4:	440b      	add	r3, r1
 80004c6:	3371      	adds	r3, #113	; 0x71
 80004c8:	4602      	mov	r2, r0
 80004ca:	701a      	strb	r2, [r3, #0]
						g_SysStatus.CTRY_Status[ctry_id].CurrentValue = can_msg_rx_data[3U];
 80004cc:	7ffa      	ldrb	r2, [r7, #31]
 80004ce:	79f8      	ldrb	r0, [r7, #7]
 80004d0:	4973      	ldr	r1, [pc, #460]	; (80006a0 <HAL_CAN_RxFifo0MsgPendingCallback+0x384>)
 80004d2:	4613      	mov	r3, r2
 80004d4:	00db      	lsls	r3, r3, #3
 80004d6:	1a9b      	subs	r3, r3, r2
 80004d8:	00db      	lsls	r3, r3, #3
 80004da:	440b      	add	r3, r1
 80004dc:	3372      	adds	r3, #114	; 0x72
 80004de:	4602      	mov	r2, r0
 80004e0:	701a      	strb	r2, [r3, #0]
						g_SysStatus.CTRY_Status[ctry_id].Power_Switch = ((can_msg_rx_data[4] >> 3U) & 0x01U);
 80004e2:	7ffa      	ldrb	r2, [r7, #31]
 80004e4:	7a3b      	ldrb	r3, [r7, #8]
 80004e6:	08db      	lsrs	r3, r3, #3
 80004e8:	b2db      	uxtb	r3, r3
 80004ea:	f003 0301 	and.w	r3, r3, #1
 80004ee:	b2d8      	uxtb	r0, r3
 80004f0:	496b      	ldr	r1, [pc, #428]	; (80006a0 <HAL_CAN_RxFifo0MsgPendingCallback+0x384>)
 80004f2:	4613      	mov	r3, r2
 80004f4:	00db      	lsls	r3, r3, #3
 80004f6:	1a9b      	subs	r3, r3, r2
 80004f8:	00db      	lsls	r3, r3, #3
 80004fa:	440b      	add	r3, r1
 80004fc:	3370      	adds	r3, #112	; 0x70
 80004fe:	4602      	mov	r2, r0
 8000500:	701a      	strb	r2, [r3, #0]
						g_SysStatus.CTRY_Status[ctry_id].Brd_Temp[E_CPU_BOARD].Sensors_Status = can_msg_rx_data[4U] & 0x0FU;
 8000502:	7ffa      	ldrb	r2, [r7, #31]
 8000504:	7a3b      	ldrb	r3, [r7, #8]
 8000506:	f003 030f 	and.w	r3, r3, #15
 800050a:	b2d8      	uxtb	r0, r3
 800050c:	4964      	ldr	r1, [pc, #400]	; (80006a0 <HAL_CAN_RxFifo0MsgPendingCallback+0x384>)
 800050e:	4613      	mov	r3, r2
 8000510:	00db      	lsls	r3, r3, #3
 8000512:	1a9b      	subs	r3, r3, r2
 8000514:	00db      	lsls	r3, r3, #3
 8000516:	440b      	add	r3, r1
 8000518:	3375      	adds	r3, #117	; 0x75
 800051a:	4602      	mov	r2, r0
 800051c:	701a      	strb	r2, [r3, #0]
						g_SysStatus.CTRY_Status[ctry_id].Brd_Temp[E_DRV_BOARD].Sensors_Status = (can_msg_rx_data[4U] >> 4U) & 0x0FU;
 800051e:	7ffa      	ldrb	r2, [r7, #31]
 8000520:	7a3b      	ldrb	r3, [r7, #8]
 8000522:	091b      	lsrs	r3, r3, #4
 8000524:	b2d8      	uxtb	r0, r3
 8000526:	495e      	ldr	r1, [pc, #376]	; (80006a0 <HAL_CAN_RxFifo0MsgPendingCallback+0x384>)
 8000528:	4613      	mov	r3, r2
 800052a:	00db      	lsls	r3, r3, #3
 800052c:	1a9b      	subs	r3, r3, r2
 800052e:	00db      	lsls	r3, r3, #3
 8000530:	440b      	add	r3, r1
 8000532:	337b      	adds	r3, #123	; 0x7b
 8000534:	4602      	mov	r2, r0
 8000536:	701a      	strb	r2, [r3, #0]
						g_SysStatus.CTRY_Status[ctry_id].Brd_Temp[E_CPU_BOARD].Heater_Status =  can_msg_rx_data[5U] & 0x01U;
 8000538:	7ffa      	ldrb	r2, [r7, #31]
 800053a:	7a7b      	ldrb	r3, [r7, #9]
 800053c:	f003 0301 	and.w	r3, r3, #1
 8000540:	b2d8      	uxtb	r0, r3
 8000542:	4957      	ldr	r1, [pc, #348]	; (80006a0 <HAL_CAN_RxFifo0MsgPendingCallback+0x384>)
 8000544:	4613      	mov	r3, r2
 8000546:	00db      	lsls	r3, r3, #3
 8000548:	1a9b      	subs	r3, r3, r2
 800054a:	00db      	lsls	r3, r3, #3
 800054c:	440b      	add	r3, r1
 800054e:	337a      	adds	r3, #122	; 0x7a
 8000550:	4602      	mov	r2, r0
 8000552:	701a      	strb	r2, [r3, #0]
						g_SysStatus.CTRY_Status[ctry_id].Brd_Temp[E_DRV_BOARD].Heater_Status =  (can_msg_rx_data[5U] >> 1U) & 0x01U;
 8000554:	7ffa      	ldrb	r2, [r7, #31]
 8000556:	7a7b      	ldrb	r3, [r7, #9]
 8000558:	085b      	lsrs	r3, r3, #1
 800055a:	b2db      	uxtb	r3, r3
 800055c:	f003 0301 	and.w	r3, r3, #1
 8000560:	b2d8      	uxtb	r0, r3
 8000562:	494f      	ldr	r1, [pc, #316]	; (80006a0 <HAL_CAN_RxFifo0MsgPendingCallback+0x384>)
 8000564:	4613      	mov	r3, r2
 8000566:	00db      	lsls	r3, r3, #3
 8000568:	1a9b      	subs	r3, r3, r2
 800056a:	00db      	lsls	r3, r3, #3
 800056c:	440b      	add	r3, r1
 800056e:	3380      	adds	r3, #128	; 0x80
 8000570:	4602      	mov	r2, r0
 8000572:	701a      	strb	r2, [r3, #0]
						g_SysStatus.CTRY_Status[ctry_id].ActuatorsStatus =  (can_msg_rx_data[5U] >> 2U) & 0x3FU;
 8000574:	7ffa      	ldrb	r2, [r7, #31]
 8000576:	7a7b      	ldrb	r3, [r7, #9]
 8000578:	089b      	lsrs	r3, r3, #2
 800057a:	b2d8      	uxtb	r0, r3
 800057c:	4948      	ldr	r1, [pc, #288]	; (80006a0 <HAL_CAN_RxFifo0MsgPendingCallback+0x384>)
 800057e:	4613      	mov	r3, r2
 8000580:	00db      	lsls	r3, r3, #3
 8000582:	1a9b      	subs	r3, r3, r2
 8000584:	00db      	lsls	r3, r3, #3
 8000586:	440b      	add	r3, r1
 8000588:	3373      	adds	r3, #115	; 0x73
 800058a:	4602      	mov	r2, r0
 800058c:	701a      	strb	r2, [r3, #0]
						g_SysStatus.CTRY_Status[ctry_id].over_temp = ((can_msg_rx_data[6U] >> 6U) & 0x01U);		/* Rev 1.6 */
 800058e:	7ffa      	ldrb	r2, [r7, #31]
 8000590:	7abb      	ldrb	r3, [r7, #10]
 8000592:	099b      	lsrs	r3, r3, #6
 8000594:	b2db      	uxtb	r3, r3
 8000596:	f003 0301 	and.w	r3, r3, #1
 800059a:	b2d8      	uxtb	r0, r3
 800059c:	4940      	ldr	r1, [pc, #256]	; (80006a0 <HAL_CAN_RxFifo0MsgPendingCallback+0x384>)
 800059e:	4613      	mov	r3, r2
 80005a0:	00db      	lsls	r3, r3, #3
 80005a2:	1a9b      	subs	r3, r3, r2
 80005a4:	00db      	lsls	r3, r3, #3
 80005a6:	440b      	add	r3, r1
 80005a8:	3395      	adds	r3, #149	; 0x95
 80005aa:	4602      	mov	r2, r0
 80005ac:	701a      	strb	r2, [r3, #0]
						g_SysStatus.CTRY_Status[ctry_id].Ctry_Failure_Desc = (can_msg_rx_data[6U] * 256U) + can_msg_rx_data[7U];
 80005ae:	7ffa      	ldrb	r2, [r7, #31]
 80005b0:	7abb      	ldrb	r3, [r7, #10]
 80005b2:	b29b      	uxth	r3, r3
 80005b4:	021b      	lsls	r3, r3, #8
 80005b6:	b299      	uxth	r1, r3
 80005b8:	7afb      	ldrb	r3, [r7, #11]
 80005ba:	b29b      	uxth	r3, r3
 80005bc:	440b      	add	r3, r1
 80005be:	b298      	uxth	r0, r3
 80005c0:	4937      	ldr	r1, [pc, #220]	; (80006a0 <HAL_CAN_RxFifo0MsgPendingCallback+0x384>)
 80005c2:	4613      	mov	r3, r2
 80005c4:	00db      	lsls	r3, r3, #3
 80005c6:	1a9b      	subs	r3, r3, r2
 80005c8:	00db      	lsls	r3, r3, #3
 80005ca:	440b      	add	r3, r1
 80005cc:	336c      	adds	r3, #108	; 0x6c
 80005ce:	4602      	mov	r2, r0
 80005d0:	801a      	strh	r2, [r3, #0]
						g_SysStatus.CTRY_Status[ctry_id].respond_time = HAL_GetTick();
 80005d2:	7ffc      	ldrb	r4, [r7, #31]
 80005d4:	f009 fcb8 	bl	8009f48 <HAL_GetTick>
 80005d8:	4601      	mov	r1, r0
 80005da:	4a31      	ldr	r2, [pc, #196]	; (80006a0 <HAL_CAN_RxFifo0MsgPendingCallback+0x384>)
 80005dc:	4623      	mov	r3, r4
 80005de:	00db      	lsls	r3, r3, #3
 80005e0:	1b1b      	subs	r3, r3, r4
 80005e2:	00db      	lsls	r3, r3, #3
 80005e4:	4413      	add	r3, r2
 80005e6:	3388      	adds	r3, #136	; 0x88
 80005e8:	6019      	str	r1, [r3, #0]
						g_SysStatus.CTRY_Status[ctry_id].Abnormal_Actuator_Report = (can_msg_rx_data[6U] >> 5U) & 0x01U;
 80005ea:	7ffa      	ldrb	r2, [r7, #31]
 80005ec:	7abb      	ldrb	r3, [r7, #10]
 80005ee:	095b      	lsrs	r3, r3, #5
 80005f0:	b2db      	uxtb	r3, r3
 80005f2:	f003 0301 	and.w	r3, r3, #1
 80005f6:	b2d8      	uxtb	r0, r3
 80005f8:	4929      	ldr	r1, [pc, #164]	; (80006a0 <HAL_CAN_RxFifo0MsgPendingCallback+0x384>)
 80005fa:	4613      	mov	r3, r2
 80005fc:	00db      	lsls	r3, r3, #3
 80005fe:	1a9b      	subs	r3, r3, r2
 8000600:	00db      	lsls	r3, r3, #3
 8000602:	440b      	add	r3, r1
 8000604:	3374      	adds	r3, #116	; 0x74
 8000606:	4602      	mov	r2, r0
 8000608:	701a      	strb	r2, [r3, #0]
						g_SysStatus.CTRY_Status[ctry_id].over_current_rep = (can_msg_rx_data[7U] >> 6U) & 0x01U;
 800060a:	7ffa      	ldrb	r2, [r7, #31]
 800060c:	7afb      	ldrb	r3, [r7, #11]
 800060e:	099b      	lsrs	r3, r3, #6
 8000610:	b2db      	uxtb	r3, r3
 8000612:	f003 0301 	and.w	r3, r3, #1
 8000616:	b2d8      	uxtb	r0, r3
 8000618:	4921      	ldr	r1, [pc, #132]	; (80006a0 <HAL_CAN_RxFifo0MsgPendingCallback+0x384>)
 800061a:	4613      	mov	r3, r2
 800061c:	00db      	lsls	r3, r3, #3
 800061e:	1a9b      	subs	r3, r3, r2
 8000620:	00db      	lsls	r3, r3, #3
 8000622:	440b      	add	r3, r1
 8000624:	3397      	adds	r3, #151	; 0x97
 8000626:	4602      	mov	r2, r0
 8000628:	701a      	strb	r2, [r3, #0]
					   break;
 800062a:	e0ee      	b.n	800080a <HAL_CAN_RxFifo0MsgPendingCallback+0x4ee>
					case ID_CPU_BRD_TEMP_RESP:
						for( uint8_t i = 0U; i < MAX_TEMP_SENSORS_ON_BOARD; i++ )
 800062c:	2300      	movs	r3, #0
 800062e:	77bb      	strb	r3, [r7, #30]
 8000630:	e015      	b.n	800065e <HAL_CAN_RxFifo0MsgPendingCallback+0x342>
						{
							g_SysStatus.CTRY_Status[ctry_id].Brd_Temp[E_CPU_BOARD].Senors_Temperature[i] = can_msg_rx_data[i+1U];
 8000632:	7ffa      	ldrb	r2, [r7, #31]
 8000634:	7fb9      	ldrb	r1, [r7, #30]
 8000636:	7fbb      	ldrb	r3, [r7, #30]
 8000638:	3301      	adds	r3, #1
 800063a:	f107 0020 	add.w	r0, r7, #32
 800063e:	4403      	add	r3, r0
 8000640:	f813 4c1c 	ldrb.w	r4, [r3, #-28]
 8000644:	4816      	ldr	r0, [pc, #88]	; (80006a0 <HAL_CAN_RxFifo0MsgPendingCallback+0x384>)
 8000646:	4613      	mov	r3, r2
 8000648:	00db      	lsls	r3, r3, #3
 800064a:	1a9b      	subs	r3, r3, r2
 800064c:	00db      	lsls	r3, r3, #3
 800064e:	4403      	add	r3, r0
 8000650:	440b      	add	r3, r1
 8000652:	3376      	adds	r3, #118	; 0x76
 8000654:	4622      	mov	r2, r4
 8000656:	701a      	strb	r2, [r3, #0]
						for( uint8_t i = 0U; i < MAX_TEMP_SENSORS_ON_BOARD; i++ )
 8000658:	7fbb      	ldrb	r3, [r7, #30]
 800065a:	3301      	adds	r3, #1
 800065c:	77bb      	strb	r3, [r7, #30]
 800065e:	7fbb      	ldrb	r3, [r7, #30]
 8000660:	2b03      	cmp	r3, #3
 8000662:	d9e6      	bls.n	8000632 <HAL_CAN_RxFifo0MsgPendingCallback+0x316>
						}
						g_SysStatus.CTRY_Status[ctry_id].Brd_Temp[E_CPU_BOARD].Sensors_Status = can_msg_rx_data[5U] & 0x0FU;
 8000664:	7ffa      	ldrb	r2, [r7, #31]
 8000666:	7a7b      	ldrb	r3, [r7, #9]
 8000668:	f003 030f 	and.w	r3, r3, #15
 800066c:	b2d8      	uxtb	r0, r3
 800066e:	490c      	ldr	r1, [pc, #48]	; (80006a0 <HAL_CAN_RxFifo0MsgPendingCallback+0x384>)
 8000670:	4613      	mov	r3, r2
 8000672:	00db      	lsls	r3, r3, #3
 8000674:	1a9b      	subs	r3, r3, r2
 8000676:	00db      	lsls	r3, r3, #3
 8000678:	440b      	add	r3, r1
 800067a:	3375      	adds	r3, #117	; 0x75
 800067c:	4602      	mov	r2, r0
 800067e:	701a      	strb	r2, [r3, #0]
						g_SysStatus.CTRY_Status[ctry_id].Brd_Temp[E_CPU_BOARD].Heater_Status =  can_msg_rx_data[6U] & 0x01U;
 8000680:	7ffa      	ldrb	r2, [r7, #31]
 8000682:	7abb      	ldrb	r3, [r7, #10]
 8000684:	f003 0301 	and.w	r3, r3, #1
 8000688:	b2d8      	uxtb	r0, r3
 800068a:	4905      	ldr	r1, [pc, #20]	; (80006a0 <HAL_CAN_RxFifo0MsgPendingCallback+0x384>)
 800068c:	4613      	mov	r3, r2
 800068e:	00db      	lsls	r3, r3, #3
 8000690:	1a9b      	subs	r3, r3, r2
 8000692:	00db      	lsls	r3, r3, #3
 8000694:	440b      	add	r3, r1
 8000696:	337a      	adds	r3, #122	; 0x7a
 8000698:	4602      	mov	r2, r0
 800069a:	701a      	strb	r2, [r3, #0]
						break;
 800069c:	e0b5      	b.n	800080a <HAL_CAN_RxFifo0MsgPendingCallback+0x4ee>
 800069e:	bf00      	nop
 80006a0:	20000504 	.word	0x20000504
 80006a4:	200004dc 	.word	0x200004dc
					case ID_DRV_BRD_TEMP_RESP:
						for( uint8_t i = 0U; i < MAX_TEMP_SENSORS_ON_BOARD; i++ )
 80006a8:	2300      	movs	r3, #0
 80006aa:	777b      	strb	r3, [r7, #29]
 80006ac:	e015      	b.n	80006da <HAL_CAN_RxFifo0MsgPendingCallback+0x3be>
						{
							g_SysStatus.CTRY_Status[ctry_id].Brd_Temp[E_DRV_BOARD].Senors_Temperature[i] = can_msg_rx_data[i+1U];
 80006ae:	7ffa      	ldrb	r2, [r7, #31]
 80006b0:	7f79      	ldrb	r1, [r7, #29]
 80006b2:	7f7b      	ldrb	r3, [r7, #29]
 80006b4:	3301      	adds	r3, #1
 80006b6:	f107 0020 	add.w	r0, r7, #32
 80006ba:	4403      	add	r3, r0
 80006bc:	f813 4c1c 	ldrb.w	r4, [r3, #-28]
 80006c0:	4864      	ldr	r0, [pc, #400]	; (8000854 <HAL_CAN_RxFifo0MsgPendingCallback+0x538>)
 80006c2:	4613      	mov	r3, r2
 80006c4:	00db      	lsls	r3, r3, #3
 80006c6:	1a9b      	subs	r3, r3, r2
 80006c8:	00db      	lsls	r3, r3, #3
 80006ca:	4403      	add	r3, r0
 80006cc:	440b      	add	r3, r1
 80006ce:	337c      	adds	r3, #124	; 0x7c
 80006d0:	4622      	mov	r2, r4
 80006d2:	701a      	strb	r2, [r3, #0]
						for( uint8_t i = 0U; i < MAX_TEMP_SENSORS_ON_BOARD; i++ )
 80006d4:	7f7b      	ldrb	r3, [r7, #29]
 80006d6:	3301      	adds	r3, #1
 80006d8:	777b      	strb	r3, [r7, #29]
 80006da:	7f7b      	ldrb	r3, [r7, #29]
 80006dc:	2b03      	cmp	r3, #3
 80006de:	d9e6      	bls.n	80006ae <HAL_CAN_RxFifo0MsgPendingCallback+0x392>
						}
						g_SysStatus.CTRY_Status[ctry_id].Brd_Temp[E_DRV_BOARD].Sensors_Status = (can_msg_rx_data[5U] >> 4U) & 0x0FU;
 80006e0:	7ffa      	ldrb	r2, [r7, #31]
 80006e2:	7a7b      	ldrb	r3, [r7, #9]
 80006e4:	091b      	lsrs	r3, r3, #4
 80006e6:	b2d8      	uxtb	r0, r3
 80006e8:	495a      	ldr	r1, [pc, #360]	; (8000854 <HAL_CAN_RxFifo0MsgPendingCallback+0x538>)
 80006ea:	4613      	mov	r3, r2
 80006ec:	00db      	lsls	r3, r3, #3
 80006ee:	1a9b      	subs	r3, r3, r2
 80006f0:	00db      	lsls	r3, r3, #3
 80006f2:	440b      	add	r3, r1
 80006f4:	337b      	adds	r3, #123	; 0x7b
 80006f6:	4602      	mov	r2, r0
 80006f8:	701a      	strb	r2, [r3, #0]
						g_SysStatus.CTRY_Status[ctry_id].Brd_Temp[E_DRV_BOARD].Heater_Status =  (can_msg_rx_data[6U] >> 1U) & 0x01U;
 80006fa:	7ffa      	ldrb	r2, [r7, #31]
 80006fc:	7abb      	ldrb	r3, [r7, #10]
 80006fe:	085b      	lsrs	r3, r3, #1
 8000700:	b2db      	uxtb	r3, r3
 8000702:	f003 0301 	and.w	r3, r3, #1
 8000706:	b2d8      	uxtb	r0, r3
 8000708:	4952      	ldr	r1, [pc, #328]	; (8000854 <HAL_CAN_RxFifo0MsgPendingCallback+0x538>)
 800070a:	4613      	mov	r3, r2
 800070c:	00db      	lsls	r3, r3, #3
 800070e:	1a9b      	subs	r3, r3, r2
 8000710:	00db      	lsls	r3, r3, #3
 8000712:	440b      	add	r3, r1
 8000714:	3380      	adds	r3, #128	; 0x80
 8000716:	4602      	mov	r2, r0
 8000718:	701a      	strb	r2, [r3, #0]
					   break;
 800071a:	e076      	b.n	800080a <HAL_CAN_RxFifo0MsgPendingCallback+0x4ee>

					/* Rev 1.7 */
					case ID_ACTUATORS_LIM_UPD_RESP:
						act_numer = (can_msg_rx_data[1U] & 0x07U);
 800071c:	797b      	ldrb	r3, [r7, #5]
 800071e:	f003 0307 	and.w	r3, r3, #7
 8000722:	773b      	strb	r3, [r7, #28]
						g_CTRY_Resp[ctry_id].act_resp[act_numer].oper_lim_type = ((can_msg_rx_data[1U] >> 7U) & 0x01U);
 8000724:	7ff9      	ldrb	r1, [r7, #31]
 8000726:	7f3b      	ldrb	r3, [r7, #28]
 8000728:	797a      	ldrb	r2, [r7, #5]
 800072a:	09d2      	lsrs	r2, r2, #7
 800072c:	b2d4      	uxtb	r4, r2
 800072e:	484a      	ldr	r0, [pc, #296]	; (8000858 <HAL_CAN_RxFifo0MsgPendingCallback+0x53c>)
 8000730:	461a      	mov	r2, r3
 8000732:	0052      	lsls	r2, r2, #1
 8000734:	441a      	add	r2, r3
 8000736:	0053      	lsls	r3, r2, #1
 8000738:	461a      	mov	r2, r3
 800073a:	460b      	mov	r3, r1
 800073c:	00db      	lsls	r3, r3, #3
 800073e:	440b      	add	r3, r1
 8000740:	009b      	lsls	r3, r3, #2
 8000742:	4413      	add	r3, r2
 8000744:	4403      	add	r3, r0
 8000746:	4622      	mov	r2, r4
 8000748:	701a      	strb	r2, [r3, #0]
						g_CTRY_Resp[ctry_id].act_resp[act_numer].max_vibration = can_msg_rx_data[2U];
 800074a:	7ff9      	ldrb	r1, [r7, #31]
 800074c:	7f3b      	ldrb	r3, [r7, #28]
 800074e:	79bc      	ldrb	r4, [r7, #6]
 8000750:	4841      	ldr	r0, [pc, #260]	; (8000858 <HAL_CAN_RxFifo0MsgPendingCallback+0x53c>)
 8000752:	461a      	mov	r2, r3
 8000754:	0052      	lsls	r2, r2, #1
 8000756:	441a      	add	r2, r3
 8000758:	0053      	lsls	r3, r2, #1
 800075a:	461a      	mov	r2, r3
 800075c:	460b      	mov	r3, r1
 800075e:	00db      	lsls	r3, r3, #3
 8000760:	440b      	add	r3, r1
 8000762:	009b      	lsls	r3, r3, #2
 8000764:	4413      	add	r3, r2
 8000766:	4403      	add	r3, r0
 8000768:	3303      	adds	r3, #3
 800076a:	4622      	mov	r2, r4
 800076c:	701a      	strb	r2, [r3, #0]
						g_CTRY_Resp[ctry_id].act_resp[act_numer].min_vibration = can_msg_rx_data[3U];
 800076e:	7ff9      	ldrb	r1, [r7, #31]
 8000770:	7f3b      	ldrb	r3, [r7, #28]
 8000772:	79fc      	ldrb	r4, [r7, #7]
 8000774:	4838      	ldr	r0, [pc, #224]	; (8000858 <HAL_CAN_RxFifo0MsgPendingCallback+0x53c>)
 8000776:	461a      	mov	r2, r3
 8000778:	0052      	lsls	r2, r2, #1
 800077a:	441a      	add	r2, r3
 800077c:	0053      	lsls	r3, r2, #1
 800077e:	461a      	mov	r2, r3
 8000780:	460b      	mov	r3, r1
 8000782:	00db      	lsls	r3, r3, #3
 8000784:	440b      	add	r3, r1
 8000786:	009b      	lsls	r3, r3, #2
 8000788:	4413      	add	r3, r2
 800078a:	4403      	add	r3, r0
 800078c:	3304      	adds	r3, #4
 800078e:	4622      	mov	r2, r4
 8000790:	701a      	strb	r2, [r3, #0]
						g_CTRY_Resp[ctry_id].act_resp[act_numer].max_current = can_msg_rx_data[4U];
 8000792:	7ff9      	ldrb	r1, [r7, #31]
 8000794:	7f3b      	ldrb	r3, [r7, #28]
 8000796:	7a3c      	ldrb	r4, [r7, #8]
 8000798:	482f      	ldr	r0, [pc, #188]	; (8000858 <HAL_CAN_RxFifo0MsgPendingCallback+0x53c>)
 800079a:	461a      	mov	r2, r3
 800079c:	0052      	lsls	r2, r2, #1
 800079e:	441a      	add	r2, r3
 80007a0:	0053      	lsls	r3, r2, #1
 80007a2:	461a      	mov	r2, r3
 80007a4:	460b      	mov	r3, r1
 80007a6:	00db      	lsls	r3, r3, #3
 80007a8:	440b      	add	r3, r1
 80007aa:	009b      	lsls	r3, r3, #2
 80007ac:	4413      	add	r3, r2
 80007ae:	4403      	add	r3, r0
 80007b0:	3301      	adds	r3, #1
 80007b2:	4622      	mov	r2, r4
 80007b4:	701a      	strb	r2, [r3, #0]
						g_CTRY_Resp[ctry_id].act_resp[act_numer].min_current = can_msg_rx_data[5U];
 80007b6:	7ff9      	ldrb	r1, [r7, #31]
 80007b8:	7f3b      	ldrb	r3, [r7, #28]
 80007ba:	7a7c      	ldrb	r4, [r7, #9]
 80007bc:	4826      	ldr	r0, [pc, #152]	; (8000858 <HAL_CAN_RxFifo0MsgPendingCallback+0x53c>)
 80007be:	461a      	mov	r2, r3
 80007c0:	0052      	lsls	r2, r2, #1
 80007c2:	441a      	add	r2, r3
 80007c4:	0053      	lsls	r3, r2, #1
 80007c6:	461a      	mov	r2, r3
 80007c8:	460b      	mov	r3, r1
 80007ca:	00db      	lsls	r3, r3, #3
 80007cc:	440b      	add	r3, r1
 80007ce:	009b      	lsls	r3, r3, #2
 80007d0:	4413      	add	r3, r2
 80007d2:	4403      	add	r3, r0
 80007d4:	3302      	adds	r3, #2
 80007d6:	4622      	mov	r2, r4
 80007d8:	701a      	strb	r2, [r3, #0]
						g_CTRY_Resp[ctry_id].act_resp[act_numer].resp = TRUE;
 80007da:	7ff9      	ldrb	r1, [r7, #31]
 80007dc:	7f3b      	ldrb	r3, [r7, #28]
 80007de:	481e      	ldr	r0, [pc, #120]	; (8000858 <HAL_CAN_RxFifo0MsgPendingCallback+0x53c>)
 80007e0:	461a      	mov	r2, r3
 80007e2:	0052      	lsls	r2, r2, #1
 80007e4:	441a      	add	r2, r3
 80007e6:	0053      	lsls	r3, r2, #1
 80007e8:	461a      	mov	r2, r3
 80007ea:	460b      	mov	r3, r1
 80007ec:	00db      	lsls	r3, r3, #3
 80007ee:	440b      	add	r3, r1
 80007f0:	009b      	lsls	r3, r3, #2
 80007f2:	4413      	add	r3, r2
 80007f4:	4403      	add	r3, r0
 80007f6:	3305      	adds	r3, #5
 80007f8:	2201      	movs	r2, #1
 80007fa:	701a      	strb	r2, [r3, #0]
						break;
 80007fc:	e005      	b.n	800080a <HAL_CAN_RxFifo0MsgPendingCallback+0x4ee>
						can_msg_rx_data[1U]=ch_c_flt;
						CAN_Message_Transmit(DBG_FLT_IN_STATE_RESP, 1U, can_msg_rx_data);
						break;
#endif
					default:
						g_SysStatus.Can_Bus_Msg_Type_Error = ctry_id + 1U; /*set CTRY id range to 1-20*/
 80007fe:	7ffb      	ldrb	r3, [r7, #31]
 8000800:	3301      	adds	r3, #1
 8000802:	b2da      	uxtb	r2, r3
 8000804:	4b13      	ldr	r3, [pc, #76]	; (8000854 <HAL_CAN_RxFifo0MsgPendingCallback+0x538>)
 8000806:	711a      	strb	r2, [r3, #4]
					   break;
 8000808:	bf00      	nop
			   }
		   }
 800080a:	bf00      	nop
   }
   else
   {
	   g_SysStatus.Can_Bus_Error = 0x01U;
   }
 }
 800080c:	e01d      	b.n	800084a <HAL_CAN_RxFifo0MsgPendingCallback+0x52e>
			   if (0x00U == ctry_id)
 800080e:	7ffb      	ldrb	r3, [r7, #31]
 8000810:	2b00      	cmp	r3, #0
 8000812:	d101      	bne.n	8000818 <HAL_CAN_RxFifo0MsgPendingCallback+0x4fc>
				   ctry_id = 0xFFU;
 8000814:	23ff      	movs	r3, #255	; 0xff
 8000816:	77fb      	strb	r3, [r7, #31]
			   g_SysStatus.Can_Bus_Ctry_Id_Error = ctry_id;
 8000818:	4a0e      	ldr	r2, [pc, #56]	; (8000854 <HAL_CAN_RxFifo0MsgPendingCallback+0x538>)
 800081a:	7ffb      	ldrb	r3, [r7, #31]
 800081c:	7193      	strb	r3, [r2, #6]
 }
 800081e:	e014      	b.n	800084a <HAL_CAN_RxFifo0MsgPendingCallback+0x52e>
		   if (0x00U == GET_CAN_UNIT_ADDR_FROM_HEADER(can_rx_header.StdId))
 8000820:	68fb      	ldr	r3, [r7, #12]
 8000822:	b2db      	uxtb	r3, r3
 8000824:	f003 031f 	and.w	r3, r3, #31
 8000828:	2b00      	cmp	r3, #0
 800082a:	d103      	bne.n	8000834 <HAL_CAN_RxFifo0MsgPendingCallback+0x518>
			   g_SysStatus.Can_bus_Address_Error = 0xFFU;
 800082c:	4b09      	ldr	r3, [pc, #36]	; (8000854 <HAL_CAN_RxFifo0MsgPendingCallback+0x538>)
 800082e:	22ff      	movs	r2, #255	; 0xff
 8000830:	715a      	strb	r2, [r3, #5]
 }
 8000832:	e00a      	b.n	800084a <HAL_CAN_RxFifo0MsgPendingCallback+0x52e>
			   g_SysStatus.Can_bus_Address_Error = GET_CAN_UNIT_ADDR_FROM_HEADER(can_rx_header.StdId);
 8000834:	68fb      	ldr	r3, [r7, #12]
 8000836:	b2db      	uxtb	r3, r3
 8000838:	f003 031f 	and.w	r3, r3, #31
 800083c:	b2da      	uxtb	r2, r3
 800083e:	4b05      	ldr	r3, [pc, #20]	; (8000854 <HAL_CAN_RxFifo0MsgPendingCallback+0x538>)
 8000840:	715a      	strb	r2, [r3, #5]
 }
 8000842:	e002      	b.n	800084a <HAL_CAN_RxFifo0MsgPendingCallback+0x52e>
	   g_SysStatus.Can_Bus_Error = 0x01U;
 8000844:	4b03      	ldr	r3, [pc, #12]	; (8000854 <HAL_CAN_RxFifo0MsgPendingCallback+0x538>)
 8000846:	2201      	movs	r2, #1
 8000848:	709a      	strb	r2, [r3, #2]
 }
 800084a:	bf00      	nop
 800084c:	3724      	adds	r7, #36	; 0x24
 800084e:	46bd      	mov	sp, r7
 8000850:	bd90      	pop	{r4, r7, pc}
 8000852:	bf00      	nop
 8000854:	20000504 	.word	0x20000504
 8000858:	20000e30 	.word	0x20000e30

0800085c <CAN_Message_Transmit>:
 **
 ** Returns: None.
 ** Notes:
 *************************************************************************************/
void CAN_Message_Transmit(uint8_t message_type, uint8_t reciever_id, uint8_t *data_buff)
{
 800085c:	b580      	push	{r7, lr}
 800085e:	b088      	sub	sp, #32
 8000860:	af00      	add	r7, sp, #0
 8000862:	4603      	mov	r3, r0
 8000864:	603a      	str	r2, [r7, #0]
 8000866:	71fb      	strb	r3, [r7, #7]
 8000868:	460b      	mov	r3, r1
 800086a:	71bb      	strb	r3, [r7, #6]
	uint8_t valid_message = TRUE;
 800086c:	2301      	movs	r3, #1
 800086e:	77fb      	strb	r3, [r7, #31]
	uint8_t               can_msg_tx_data[CAN_MSG_DATA_LENGH_BYTES] = {0U};
 8000870:	f107 030c 	add.w	r3, r7, #12
 8000874:	2200      	movs	r2, #0
 8000876:	601a      	str	r2, [r3, #0]
 8000878:	605a      	str	r2, [r3, #4]
	uint32_t              msg_std_id = 0U;
 800087a:	2300      	movs	r3, #0
 800087c:	61bb      	str	r3, [r7, #24]

	/*Check range o input parameters*/
	if((NULL != data_buff) && (((CTRY_MAX_NUM >=reciever_id) && (reciever_id > 0U)) || (reciever_id == CAN_BROADCAST_ADDR))) /* OG - update to support broadcast */
 800087e:	683b      	ldr	r3, [r7, #0]
 8000880:	2b00      	cmp	r3, #0
 8000882:	f000 80a1 	beq.w	80009c8 <CAN_Message_Transmit+0x16c>
 8000886:	79bb      	ldrb	r3, [r7, #6]
 8000888:	2b14      	cmp	r3, #20
 800088a:	d802      	bhi.n	8000892 <CAN_Message_Transmit+0x36>
 800088c:	79bb      	ldrb	r3, [r7, #6]
 800088e:	2b00      	cmp	r3, #0
 8000890:	d103      	bne.n	800089a <CAN_Message_Transmit+0x3e>
 8000892:	79bb      	ldrb	r3, [r7, #6]
 8000894:	2b00      	cmp	r3, #0
 8000896:	f040 8097 	bne.w	80009c8 <CAN_Message_Transmit+0x16c>
	{
		/*Combine TX message according to it's type*/
		switch(message_type)
 800089a:	79fb      	ldrb	r3, [r7, #7]
 800089c:	2b08      	cmp	r3, #8
 800089e:	d879      	bhi.n	8000994 <CAN_Message_Transmit+0x138>
 80008a0:	a201      	add	r2, pc, #4	; (adr r2, 80008a8 <CAN_Message_Transmit+0x4c>)
 80008a2:	f852 f023 	ldr.w	pc, [r2, r3, lsl #2]
 80008a6:	bf00      	nop
 80008a8:	080008cd 	.word	0x080008cd
 80008ac:	080008d9 	.word	0x080008d9
 80008b0:	08000909 	.word	0x08000909
 80008b4:	080008e5 	.word	0x080008e5
 80008b8:	0800093b 	.word	0x0800093b
 80008bc:	080008f1 	.word	0x080008f1
 80008c0:	080008fd 	.word	0x080008fd
 80008c4:	08000959 	.word	0x08000959
 80008c8:	0800096b 	.word	0x0800096b
		{
		case ID_ALL_ACTUATORS_OFF_REQ:
			msg_std_id = COMBINE_CAN_HEADER( message_type, reciever_id);
 80008cc:	79fb      	ldrb	r3, [r7, #7]
 80008ce:	015a      	lsls	r2, r3, #5
 80008d0:	79bb      	ldrb	r3, [r7, #6]
 80008d2:	4313      	orrs	r3, r2
 80008d4:	61bb      	str	r3, [r7, #24]
			break;
 80008d6:	e060      	b.n	800099a <CAN_Message_Transmit+0x13e>
		case ID_CTRY_PBIT_RESULT_REQ:
			msg_std_id = COMBINE_CAN_HEADER( message_type, reciever_id);
 80008d8:	79fb      	ldrb	r3, [r7, #7]
 80008da:	015a      	lsls	r2, r3, #5
 80008dc:	79bb      	ldrb	r3, [r7, #6]
 80008de:	4313      	orrs	r3, r2
 80008e0:	61bb      	str	r3, [r7, #24]
			break;
 80008e2:	e05a      	b.n	800099a <CAN_Message_Transmit+0x13e>
		case ID_CTRY_STATUS_REQ:
			msg_std_id = COMBINE_CAN_HEADER( message_type, reciever_id);
 80008e4:	79fb      	ldrb	r3, [r7, #7]
 80008e6:	015a      	lsls	r2, r3, #5
 80008e8:	79bb      	ldrb	r3, [r7, #6]
 80008ea:	4313      	orrs	r3, r2
 80008ec:	61bb      	str	r3, [r7, #24]
			break;
 80008ee:	e054      	b.n	800099a <CAN_Message_Transmit+0x13e>
		case ID_CPU_BRD_TEMP_REQ:
			msg_std_id = COMBINE_CAN_HEADER( message_type, reciever_id);
 80008f0:	79fb      	ldrb	r3, [r7, #7]
 80008f2:	015a      	lsls	r2, r3, #5
 80008f4:	79bb      	ldrb	r3, [r7, #6]
 80008f6:	4313      	orrs	r3, r2
 80008f8:	61bb      	str	r3, [r7, #24]
			break;
 80008fa:	e04e      	b.n	800099a <CAN_Message_Transmit+0x13e>
		case ID_DRV_BRD_TEMP_REQ:
			msg_std_id = COMBINE_CAN_HEADER( message_type, reciever_id);
 80008fc:	79fb      	ldrb	r3, [r7, #7]
 80008fe:	015a      	lsls	r2, r3, #5
 8000900:	79bb      	ldrb	r3, [r7, #6]
 8000902:	4313      	orrs	r3, r2
 8000904:	61bb      	str	r3, [r7, #24]
			break;
 8000906:	e048      	b.n	800099a <CAN_Message_Transmit+0x13e>
		case ID_ACTUATOR_ON_REQ:
			msg_std_id = COMBINE_CAN_HEADER( message_type, reciever_id);
 8000908:	79fb      	ldrb	r3, [r7, #7]
 800090a:	015a      	lsls	r2, r3, #5
 800090c:	79bb      	ldrb	r3, [r7, #6]
 800090e:	4313      	orrs	r3, r2
 8000910:	61bb      	str	r3, [r7, #24]
			for(uint8_t i = 0U; i < ACTUATOR_ON_REQ_DATA_LENGTH; i++)
 8000912:	2300      	movs	r3, #0
 8000914:	75fb      	strb	r3, [r7, #23]
 8000916:	e00c      	b.n	8000932 <CAN_Message_Transmit+0xd6>
			{
				can_msg_tx_data[i] = data_buff[i];
 8000918:	7dfb      	ldrb	r3, [r7, #23]
 800091a:	7dfa      	ldrb	r2, [r7, #23]
 800091c:	6839      	ldr	r1, [r7, #0]
 800091e:	440a      	add	r2, r1
 8000920:	7812      	ldrb	r2, [r2, #0]
 8000922:	f107 0120 	add.w	r1, r7, #32
 8000926:	440b      	add	r3, r1
 8000928:	f803 2c14 	strb.w	r2, [r3, #-20]
			for(uint8_t i = 0U; i < ACTUATOR_ON_REQ_DATA_LENGTH; i++)
 800092c:	7dfb      	ldrb	r3, [r7, #23]
 800092e:	3301      	adds	r3, #1
 8000930:	75fb      	strb	r3, [r7, #23]
 8000932:	7dfb      	ldrb	r3, [r7, #23]
 8000934:	2b06      	cmp	r3, #6
 8000936:	d9ef      	bls.n	8000918 <CAN_Message_Transmit+0xbc>
			}
			break;
 8000938:	e02f      	b.n	800099a <CAN_Message_Transmit+0x13e>
		case ID_CTRYS_STATUS_UPDATE_REQ:
			msg_std_id = COMBINE_CAN_HEADER( message_type, reciever_id);
 800093a:	79fb      	ldrb	r3, [r7, #7]
 800093c:	015a      	lsls	r2, r3, #5
 800093e:	79bb      	ldrb	r3, [r7, #6]
 8000940:	4313      	orrs	r3, r2
 8000942:	61bb      	str	r3, [r7, #24]
			can_msg_tx_data[0U] = data_buff[0U];
 8000944:	683b      	ldr	r3, [r7, #0]
 8000946:	781b      	ldrb	r3, [r3, #0]
 8000948:	733b      	strb	r3, [r7, #12]
			can_msg_tx_data[1U] = data_buff[1U];
 800094a:	683b      	ldr	r3, [r7, #0]
 800094c:	785b      	ldrb	r3, [r3, #1]
 800094e:	737b      	strb	r3, [r7, #13]
			can_msg_tx_data[2U] = data_buff[2U];
 8000950:	683b      	ldr	r3, [r7, #0]
 8000952:	789b      	ldrb	r3, [r3, #2]
 8000954:	73bb      	strb	r3, [r7, #14]
			break;
 8000956:	e020      	b.n	800099a <CAN_Message_Transmit+0x13e>
		case ID_CTRY_CHANNEL_C_CTRL_REQ:
			msg_std_id = COMBINE_CAN_HEADER( message_type, reciever_id);
 8000958:	79fb      	ldrb	r3, [r7, #7]
 800095a:	015a      	lsls	r2, r3, #5
 800095c:	79bb      	ldrb	r3, [r7, #6]
 800095e:	4313      	orrs	r3, r2
 8000960:	61bb      	str	r3, [r7, #24]
			can_msg_tx_data[0U] = data_buff[0U];
 8000962:	683b      	ldr	r3, [r7, #0]
 8000964:	781b      	ldrb	r3, [r3, #0]
 8000966:	733b      	strb	r3, [r7, #12]
			break;
 8000968:	e017      	b.n	800099a <CAN_Message_Transmit+0x13e>

		/* Rev 1.7 */
		case ID_ACTUATORS_LIM_UPD_REQ:
			msg_std_id = COMBINE_CAN_HEADER( message_type, reciever_id);
 800096a:	79fb      	ldrb	r3, [r7, #7]
 800096c:	015a      	lsls	r2, r3, #5
 800096e:	79bb      	ldrb	r3, [r7, #6]
 8000970:	4313      	orrs	r3, r2
 8000972:	61bb      	str	r3, [r7, #24]
			can_msg_tx_data[0U] = data_buff[0U];
 8000974:	683b      	ldr	r3, [r7, #0]
 8000976:	781b      	ldrb	r3, [r3, #0]
 8000978:	733b      	strb	r3, [r7, #12]
			can_msg_tx_data[1U] = data_buff[1U];
 800097a:	683b      	ldr	r3, [r7, #0]
 800097c:	785b      	ldrb	r3, [r3, #1]
 800097e:	737b      	strb	r3, [r7, #13]
			can_msg_tx_data[2U] = data_buff[2U];
 8000980:	683b      	ldr	r3, [r7, #0]
 8000982:	789b      	ldrb	r3, [r3, #2]
 8000984:	73bb      	strb	r3, [r7, #14]
			can_msg_tx_data[3U] = data_buff[3U];
 8000986:	683b      	ldr	r3, [r7, #0]
 8000988:	78db      	ldrb	r3, [r3, #3]
 800098a:	73fb      	strb	r3, [r7, #15]
			can_msg_tx_data[4U] = data_buff[4U];
 800098c:	683b      	ldr	r3, [r7, #0]
 800098e:	791b      	ldrb	r3, [r3, #4]
 8000990:	743b      	strb	r3, [r7, #16]
			break;
 8000992:	e002      	b.n	800099a <CAN_Message_Transmit+0x13e>
			can_msg_tx_data[3U] = data_buff[3U];
			can_msg_tx_data[4U] = data_buff[4U];
			break;
#endif
		default:
			valid_message = FALSE;
 8000994:	2300      	movs	r3, #0
 8000996:	77fb      	strb	r3, [r7, #31]
			break;
 8000998:	bf00      	nop
		}

		/*Check validity of Message's Type and the DIMC voltage status*/
		if((TRUE == valid_message) && (TEST_OK == g_SysTestsStatus.DIMC_Volt_Test_Status) && (TEST_OK == g_SysTestsStatus.DIMC_Can_Bus_Init_Test_Status))
 800099a:	7ffb      	ldrb	r3, [r7, #31]
 800099c:	2b01      	cmp	r3, #1
 800099e:	d113      	bne.n	80009c8 <CAN_Message_Transmit+0x16c>
 80009a0:	4b0b      	ldr	r3, [pc, #44]	; (80009d0 <CAN_Message_Transmit+0x174>)
 80009a2:	781b      	ldrb	r3, [r3, #0]
 80009a4:	2b00      	cmp	r3, #0
 80009a6:	d10f      	bne.n	80009c8 <CAN_Message_Transmit+0x16c>
 80009a8:	4b09      	ldr	r3, [pc, #36]	; (80009d0 <CAN_Message_Transmit+0x174>)
 80009aa:	785b      	ldrb	r3, [r3, #1]
 80009ac:	2b00      	cmp	r3, #0
 80009ae:	d10b      	bne.n	80009c8 <CAN_Message_Transmit+0x16c>
		{
			/* Start the Transmission process */
			if (HAL_OK != HAL_CAN_AddTxMessage(msg_std_id, can_msg_tx_data))
 80009b0:	f107 030c 	add.w	r3, r7, #12
 80009b4:	4619      	mov	r1, r3
 80009b6:	69b8      	ldr	r0, [r7, #24]
 80009b8:	f007 fa7e 	bl	8007eb8 <HAL_CAN_AddTxMessage>
 80009bc:	4603      	mov	r3, r0
 80009be:	2b00      	cmp	r3, #0
 80009c0:	d002      	beq.n	80009c8 <CAN_Message_Transmit+0x16c>
			{
				/* Failed to transmit message */
				g_SysStatus.Can_Bus_Tr_error = TRUE;
 80009c2:	4b04      	ldr	r3, [pc, #16]	; (80009d4 <CAN_Message_Transmit+0x178>)
 80009c4:	2201      	movs	r2, #1
 80009c6:	70da      	strb	r2, [r3, #3]
			}
		}
	}
}
 80009c8:	bf00      	nop
 80009ca:	3720      	adds	r7, #32
 80009cc:	46bd      	mov	sp, r7
 80009ce:	bd80      	pop	{r7, pc}
 80009d0:	20000e24 	.word	0x20000e24
 80009d4:	20000504 	.word	0x20000504

080009d8 <Perform_CBIT_Test>:
**
** Returns: None.
** Notes:
*************************************************************************************/
void Perform_CBIT_Test(void)
{
 80009d8:	b580      	push	{r7, lr}
 80009da:	b082      	sub	sp, #8
 80009dc:	af00      	add	r7, sp, #0
	/* Init CBIT test variables */
	HAL_StatusTypeDef hal_status = HAL_OK;
 80009de:	2300      	movs	r3, #0
 80009e0:	71fb      	strb	r3, [r7, #7]
	uint8_t channel_A_value = 0x00U;
 80009e2:	2300      	movs	r3, #0
 80009e4:	71bb      	strb	r3, [r7, #6]
	uint8_t channel_C_value = 0x00U;
 80009e6:	2300      	movs	r3, #0
 80009e8:	717b      	strb	r3, [r7, #5]
	uint8_t oper_state = 0x00U;
 80009ea:	2300      	movs	r3, #0
 80009ec:	713b      	strb	r3, [r7, #4]
	uint8_t oper_ch_val = 0x00U;
 80009ee:	2300      	movs	r3, #0
 80009f0:	70fb      	strb	r3, [r7, #3]
	uint8_t oper_1_2_val = 0x00U;
 80009f2:	2300      	movs	r3, #0
 80009f4:	70bb      	strb	r3, [r7, #2]

	/* Test CTRY's status */
	if(E_MON_TBL_FL == Monitor_Status_Table())
 80009f6:	f006 fc63 	bl	80072c0 <Monitor_Status_Table>
 80009fa:	4603      	mov	r3, r0
 80009fc:	2b01      	cmp	r3, #1
 80009fe:	d109      	bne.n	8000a14 <Perform_CBIT_Test+0x3c>
	{
		/* Set test_result */
		g_SysStatus.DIMC_CBIT_Failure_Desc |= STATUS_TABLE_FLT;
 8000a00:	4b36      	ldr	r3, [pc, #216]	; (8000adc <Perform_CBIT_Test+0x104>)
 8000a02:	7adb      	ldrb	r3, [r3, #11]
 8000a04:	f043 0302 	orr.w	r3, r3, #2
 8000a08:	b2da      	uxtb	r2, r3
 8000a0a:	4b34      	ldr	r3, [pc, #208]	; (8000adc <Perform_CBIT_Test+0x104>)
 8000a0c:	72da      	strb	r2, [r3, #11]
		g_SysTestsStatus.DIMC_Monitor_Status_Table_Test_Status = (uint8_t)E_MON_TBL_FL;
 8000a0e:	4b34      	ldr	r3, [pc, #208]	; (8000ae0 <Perform_CBIT_Test+0x108>)
 8000a10:	2201      	movs	r2, #1
 8000a12:	719a      	strb	r2, [r3, #6]
	}

	/* Test 5VDC power */
	if (E_VOLT_TEST_FL == Test_OnBoard_Voltage())
 8000a14:	f006 fd74 	bl	8007500 <Test_OnBoard_Voltage>
 8000a18:	4603      	mov	r3, r0
 8000a1a:	2b02      	cmp	r3, #2
 8000a1c:	d109      	bne.n	8000a32 <Perform_CBIT_Test+0x5a>
	{
		/* Set test_result */
		g_SysStatus.DIMC_CBIT_Failure_Desc |= VOLT_TEST_FLT;
 8000a1e:	4b2f      	ldr	r3, [pc, #188]	; (8000adc <Perform_CBIT_Test+0x104>)
 8000a20:	7adb      	ldrb	r3, [r3, #11]
 8000a22:	f043 0301 	orr.w	r3, r3, #1
 8000a26:	b2da      	uxtb	r2, r3
 8000a28:	4b2c      	ldr	r3, [pc, #176]	; (8000adc <Perform_CBIT_Test+0x104>)
 8000a2a:	72da      	strb	r2, [r3, #11]
		g_SysTestsStatus.DIMC_Volt_Test_Status = TEST_FL;
 8000a2c:	4b2c      	ldr	r3, [pc, #176]	; (8000ae0 <Perform_CBIT_Test+0x108>)
 8000a2e:	2201      	movs	r2, #1
 8000a30:	701a      	strb	r2, [r3, #0]
	}

	/* Test operation channels */
	hal_status |=  Read_OPER_Inputs(&oper_state, &oper_ch_val, &oper_1_2_val);
 8000a32:	1cba      	adds	r2, r7, #2
 8000a34:	1cf9      	adds	r1, r7, #3
 8000a36:	1d3b      	adds	r3, r7, #4
 8000a38:	4618      	mov	r0, r3
 8000a3a:	f001 ff9b 	bl	8002974 <Read_OPER_Inputs>
 8000a3e:	4603      	mov	r3, r0
 8000a40:	461a      	mov	r2, r3
 8000a42:	79fb      	ldrb	r3, [r7, #7]
 8000a44:	4313      	orrs	r3, r2
 8000a46:	71fb      	strb	r3, [r7, #7]
	if(oper_state != oper_1_2_val)
 8000a48:	793a      	ldrb	r2, [r7, #4]
 8000a4a:	78bb      	ldrb	r3, [r7, #2]
 8000a4c:	429a      	cmp	r2, r3
 8000a4e:	d013      	beq.n	8000a78 <Perform_CBIT_Test+0xa0>
	{
		/* Update the counter of fault */
		Oper_Fl_Detected++;
 8000a50:	4b24      	ldr	r3, [pc, #144]	; (8000ae4 <Perform_CBIT_Test+0x10c>)
 8000a52:	781b      	ldrb	r3, [r3, #0]
 8000a54:	3301      	adds	r3, #1
 8000a56:	b2da      	uxtb	r2, r3
 8000a58:	4b22      	ldr	r3, [pc, #136]	; (8000ae4 <Perform_CBIT_Test+0x10c>)
 8000a5a:	701a      	strb	r2, [r3, #0]

		if (OPER_FL_THRESHOLD == Oper_Fl_Detected)
 8000a5c:	4b21      	ldr	r3, [pc, #132]	; (8000ae4 <Perform_CBIT_Test+0x10c>)
 8000a5e:	781b      	ldrb	r3, [r3, #0]
 8000a60:	2b02      	cmp	r3, #2
 8000a62:	d109      	bne.n	8000a78 <Perform_CBIT_Test+0xa0>
		{
			/* Update system_status */
			g_SysTestsStatus.DIMC_Oper_Inputs_Test_Status = TEST_FL;
 8000a64:	4b1e      	ldr	r3, [pc, #120]	; (8000ae0 <Perform_CBIT_Test+0x108>)
 8000a66:	2201      	movs	r2, #1
 8000a68:	71da      	strb	r2, [r3, #7]

			/* Set test_result */
			g_SysStatus.DIMC_CBIT_Failure_Desc |= OPER_TEST_FLT;
 8000a6a:	4b1c      	ldr	r3, [pc, #112]	; (8000adc <Perform_CBIT_Test+0x104>)
 8000a6c:	7adb      	ldrb	r3, [r3, #11]
 8000a6e:	f043 0304 	orr.w	r3, r3, #4
 8000a72:	b2da      	uxtb	r2, r3
 8000a74:	4b19      	ldr	r3, [pc, #100]	; (8000adc <Perform_CBIT_Test+0x104>)
 8000a76:	72da      	strb	r2, [r3, #11]
		}
	}

	/* Read the values of channels A & C */
	Read_FLT_Channel_A_C_Inputs(&channel_A_value, &channel_C_value);
 8000a78:	1d7a      	adds	r2, r7, #5
 8000a7a:	1dbb      	adds	r3, r7, #6
 8000a7c:	4611      	mov	r1, r2
 8000a7e:	4618      	mov	r0, r3
 8000a80:	f001 ff40 	bl	8002904 <Read_FLT_Channel_A_C_Inputs>

	/* Check if channel A status */
	if(0x0FU != channel_A_value)
 8000a84:	79bb      	ldrb	r3, [r7, #6]
 8000a86:	2b0f      	cmp	r3, #15
 8000a88:	d009      	beq.n	8000a9e <Perform_CBIT_Test+0xc6>
	{
		/* Set test_result */
		g_SysStatus.DIMC_CBIT_Failure_Desc |= CHANNEL_A_FLT;
 8000a8a:	4b14      	ldr	r3, [pc, #80]	; (8000adc <Perform_CBIT_Test+0x104>)
 8000a8c:	7adb      	ldrb	r3, [r3, #11]
 8000a8e:	f043 0308 	orr.w	r3, r3, #8
 8000a92:	b2da      	uxtb	r2, r3
 8000a94:	4b11      	ldr	r3, [pc, #68]	; (8000adc <Perform_CBIT_Test+0x104>)
 8000a96:	72da      	strb	r2, [r3, #11]
		g_SysStatus.ChannelA_FaultsStatus = channel_A_value;
 8000a98:	79ba      	ldrb	r2, [r7, #6]
 8000a9a:	4b10      	ldr	r3, [pc, #64]	; (8000adc <Perform_CBIT_Test+0x104>)
 8000a9c:	71da      	strb	r2, [r3, #7]
	}

	/* Check if channel C status */
	if(0x3FU != channel_C_value)
 8000a9e:	797b      	ldrb	r3, [r7, #5]
 8000aa0:	2b3f      	cmp	r3, #63	; 0x3f
 8000aa2:	d009      	beq.n	8000ab8 <Perform_CBIT_Test+0xe0>
	{
		/* Set test_result */
		g_SysStatus.DIMC_CBIT_Failure_Desc |= CHANNEL_C_FLT;
 8000aa4:	4b0d      	ldr	r3, [pc, #52]	; (8000adc <Perform_CBIT_Test+0x104>)
 8000aa6:	7adb      	ldrb	r3, [r3, #11]
 8000aa8:	f043 0310 	orr.w	r3, r3, #16
 8000aac:	b2da      	uxtb	r2, r3
 8000aae:	4b0b      	ldr	r3, [pc, #44]	; (8000adc <Perform_CBIT_Test+0x104>)
 8000ab0:	72da      	strb	r2, [r3, #11]
		g_SysStatus.ChannelC_FaultsStatus = channel_C_value;
 8000ab2:	797a      	ldrb	r2, [r7, #5]
 8000ab4:	4b09      	ldr	r3, [pc, #36]	; (8000adc <Perform_CBIT_Test+0x104>)
 8000ab6:	721a      	strb	r2, [r3, #8]
	}

	/* SW Error found */
	if (HAL_OK != hal_status)
 8000ab8:	79fb      	ldrb	r3, [r7, #7]
 8000aba:	2b00      	cmp	r3, #0
 8000abc:	d003      	beq.n	8000ac6 <Perform_CBIT_Test+0xee>
	{
		g_SysStatus.SW_Erros = TRUE;
 8000abe:	4b07      	ldr	r3, [pc, #28]	; (8000adc <Perform_CBIT_Test+0x104>)
 8000ac0:	2201      	movs	r2, #1
 8000ac2:	f883 24c9 	strb.w	r2, [r3, #1225]	; 0x4c9
	}

	/* CBIT failed */
	if(0x00U != g_SysStatus.DIMC_CBIT_Failure_Desc)
 8000ac6:	4b05      	ldr	r3, [pc, #20]	; (8000adc <Perform_CBIT_Test+0x104>)
 8000ac8:	7adb      	ldrb	r3, [r3, #11]
 8000aca:	2b00      	cmp	r3, #0
 8000acc:	d001      	beq.n	8000ad2 <Perform_CBIT_Test+0xfa>
	{
		/* Handle faults */
		Fault_Management();
 8000ace:	f000 fc47 	bl	8001360 <Fault_Management>
	}
}
 8000ad2:	bf00      	nop
 8000ad4:	3708      	adds	r7, #8
 8000ad6:	46bd      	mov	sp, r7
 8000ad8:	bd80      	pop	{r7, pc}
 8000ada:	bf00      	nop
 8000adc:	20000504 	.word	0x20000504
 8000ae0:	20000e24 	.word	0x20000e24
 8000ae4:	20000c64 	.word	0x20000c64

08000ae8 <Calculate_CRC16>:
** Notes:
**
*************************************************************************************/

uint16_t Calculate_CRC16(uint8_t *data	, uint16_t length)
{
 8000ae8:	b480      	push	{r7}
 8000aea:	b085      	sub	sp, #20
 8000aec:	af00      	add	r7, sp, #0
 8000aee:	6078      	str	r0, [r7, #4]
 8000af0:	460b      	mov	r3, r1
 8000af2:	807b      	strh	r3, [r7, #2]
   uint16_t count = 0U;
 8000af4:	2300      	movs	r3, #0
 8000af6:	81fb      	strh	r3, [r7, #14]
   uint16_t crc = 0xFFFFU;
 8000af8:	f64f 73ff 	movw	r3, #65535	; 0xffff
 8000afc:	81bb      	strh	r3, [r7, #12]
   uint16_t temp = 0U;
 8000afe:	2300      	movs	r3, #0
 8000b00:	817b      	strh	r3, [r7, #10]

   for (count = 0U; count < length; count++,*data++)
 8000b02:	2300      	movs	r3, #0
 8000b04:	81fb      	strh	r3, [r7, #14]
 8000b06:	e01a      	b.n	8000b3e <Calculate_CRC16+0x56>
   {
     temp = (*data ^ (crc >> 8U)) & 0xFFU;
 8000b08:	687b      	ldr	r3, [r7, #4]
 8000b0a:	781b      	ldrb	r3, [r3, #0]
 8000b0c:	b29a      	uxth	r2, r3
 8000b0e:	89bb      	ldrh	r3, [r7, #12]
 8000b10:	0a1b      	lsrs	r3, r3, #8
 8000b12:	b29b      	uxth	r3, r3
 8000b14:	4053      	eors	r3, r2
 8000b16:	b29b      	uxth	r3, r3
 8000b18:	b2db      	uxtb	r3, r3
 8000b1a:	817b      	strh	r3, [r7, #10]
     crc = Crc16table[temp] ^ (crc << 8U);
 8000b1c:	897b      	ldrh	r3, [r7, #10]
 8000b1e:	4a0d      	ldr	r2, [pc, #52]	; (8000b54 <Calculate_CRC16+0x6c>)
 8000b20:	f832 3013 	ldrh.w	r3, [r2, r3, lsl #1]
 8000b24:	b21a      	sxth	r2, r3
 8000b26:	89bb      	ldrh	r3, [r7, #12]
 8000b28:	021b      	lsls	r3, r3, #8
 8000b2a:	b21b      	sxth	r3, r3
 8000b2c:	4053      	eors	r3, r2
 8000b2e:	b21b      	sxth	r3, r3
 8000b30:	81bb      	strh	r3, [r7, #12]
   for (count = 0U; count < length; count++,*data++)
 8000b32:	89fb      	ldrh	r3, [r7, #14]
 8000b34:	3301      	adds	r3, #1
 8000b36:	81fb      	strh	r3, [r7, #14]
 8000b38:	687b      	ldr	r3, [r7, #4]
 8000b3a:	3301      	adds	r3, #1
 8000b3c:	607b      	str	r3, [r7, #4]
 8000b3e:	89fa      	ldrh	r2, [r7, #14]
 8000b40:	887b      	ldrh	r3, [r7, #2]
 8000b42:	429a      	cmp	r2, r3
 8000b44:	d3e0      	bcc.n	8000b08 <Calculate_CRC16+0x20>
   }
   return crc;
 8000b46:	89bb      	ldrh	r3, [r7, #12]
}
 8000b48:	4618      	mov	r0, r3
 8000b4a:	3714      	adds	r7, #20
 8000b4c:	46bd      	mov	sp, r7
 8000b4e:	f85d 7b04 	ldr.w	r7, [sp], #4
 8000b52:	4770      	bx	lr
 8000b54:	0800ba6c 	.word	0x0800ba6c

08000b58 <Test_CH_A_Inputs>:
**
** Returns: uint8_t - Test result(TEST_OK - Test Passed | TEST_FL - Test Failed)
** Notes:
*************************************************************************************/
uint8_t Test_CH_A_Inputs(void)
{
 8000b58:	b580      	push	{r7, lr}
 8000b5a:	b086      	sub	sp, #24
 8000b5c:	af00      	add	r7, sp, #0
	const uint8_t diacs_states[DIAC_NUM_OF_TEST_STEPS] 			=       {0x00U, 0x0AU, 0x05U, 0x0FU};
 8000b5e:	4b40      	ldr	r3, [pc, #256]	; (8000c60 <Test_CH_A_Inputs+0x108>)
 8000b60:	681b      	ldr	r3, [r3, #0]
 8000b62:	60fb      	str	r3, [r7, #12]
	const uint8_t ch_a_exp_result[DIAC_NUM_OF_TEST_STEPS] 		=      	{0x00U, 0x0AU, 0x05U, 0x0FU};
 8000b64:	4b3e      	ldr	r3, [pc, #248]	; (8000c60 <Test_CH_A_Inputs+0x108>)
 8000b66:	681b      	ldr	r3, [r3, #0]
 8000b68:	60bb      	str	r3, [r7, #8]
	const uint8_t ch_a_sens_exp_result[DIAC_NUM_OF_TEST_STEPS] 	= 		{0x00U, 0x00U, 0x00U, 0x01U};
 8000b6a:	2300      	movs	r3, #0
 8000b6c:	713b      	strb	r3, [r7, #4]
 8000b6e:	2300      	movs	r3, #0
 8000b70:	717b      	strb	r3, [r7, #5]
 8000b72:	2300      	movs	r3, #0
 8000b74:	71bb      	strb	r3, [r7, #6]
 8000b76:	2301      	movs	r3, #1
 8000b78:	71fb      	strb	r3, [r7, #7]
	uint8_t ch_a_state = 0U;
 8000b7a:	2300      	movs	r3, #0
 8000b7c:	70fb      	strb	r3, [r7, #3]
	uint8_t ch_c_state = 0U;
 8000b7e:	2300      	movs	r3, #0
 8000b80:	70bb      	strb	r3, [r7, #2]
	uint8_t sens_state = 0U;
 8000b82:	2300      	movs	r3, #0
 8000b84:	747b      	strb	r3, [r7, #17]
	uint8_t ch_a_test_ok = TEST_OK;
 8000b86:	2300      	movs	r3, #0
 8000b88:	75fb      	strb	r3, [r7, #23]


	Fault_Channel_OUT_Control(E_FLT_CH_A_OUT,E_FLT_CH_OK);/*Reset FL Channel_A output  before the test*/
 8000b8a:	2100      	movs	r1, #0
 8000b8c:	2000      	movs	r0, #0
 8000b8e:	f002 f97f 	bl	8002e90 <Fault_Channel_OUT_Control>
	for(uint8_t test_step = 0U; test_step < DIAC_NUM_OF_TEST_STEPS; test_step++)
 8000b92:	2300      	movs	r3, #0
 8000b94:	75bb      	strb	r3, [r7, #22]
 8000b96:	e05a      	b.n	8000c4e <Test_CH_A_Inputs+0xf6>
	{
		if (TEST_OK == ch_a_test_ok)
 8000b98:	7dfb      	ldrb	r3, [r7, #23]
 8000b9a:	2b00      	cmp	r3, #0
 8000b9c:	d154      	bne.n	8000c48 <Test_CH_A_Inputs+0xf0>
		{
			/*Set DIACs' Power supplies according to test sequence*/
			for(uint8_t ps_num = 0U; ps_num < NUM_OF_DIACS_PS; ps_num++)
 8000b9e:	2300      	movs	r3, #0
 8000ba0:	757b      	strb	r3, [r7, #21]
 8000ba2:	e015      	b.n	8000bd0 <Test_CH_A_Inputs+0x78>
			{
				Diac_Control((e_DIAC_Num)ps_num,(diacs_states[test_step] >> ps_num) & 0x01U);
 8000ba4:	7dbb      	ldrb	r3, [r7, #22]
 8000ba6:	f107 0218 	add.w	r2, r7, #24
 8000baa:	4413      	add	r3, r2
 8000bac:	f813 3c0c 	ldrb.w	r3, [r3, #-12]
 8000bb0:	461a      	mov	r2, r3
 8000bb2:	7d7b      	ldrb	r3, [r7, #21]
 8000bb4:	fa42 f303 	asr.w	r3, r2, r3
 8000bb8:	b2db      	uxtb	r3, r3
 8000bba:	f003 0301 	and.w	r3, r3, #1
 8000bbe:	b2da      	uxtb	r2, r3
 8000bc0:	7d7b      	ldrb	r3, [r7, #21]
 8000bc2:	4611      	mov	r1, r2
 8000bc4:	4618      	mov	r0, r3
 8000bc6:	f000 f84d 	bl	8000c64 <Diac_Control>
			for(uint8_t ps_num = 0U; ps_num < NUM_OF_DIACS_PS; ps_num++)
 8000bca:	7d7b      	ldrb	r3, [r7, #21]
 8000bcc:	3301      	adds	r3, #1
 8000bce:	757b      	strb	r3, [r7, #21]
 8000bd0:	7d7b      	ldrb	r3, [r7, #21]
 8000bd2:	2b03      	cmp	r3, #3
 8000bd4:	d9e6      	bls.n	8000ba4 <Test_CH_A_Inputs+0x4c>
			}

			/*Wait for DIAC turn ON/OFF*/
			for (uint16_t delay_count = 0U; delay_count < DIAC_PS_DELAY_MILIS; delay_count += DELAY_CYCLE)
 8000bd6:	2300      	movs	r3, #0
 8000bd8:	827b      	strh	r3, [r7, #18]
 8000bda:	e009      	b.n	8000bf0 <Test_CH_A_Inputs+0x98>
			{
				WDOG_Trigger();
 8000bdc:	f006 fdca 	bl	8007774 <WDOG_Trigger>
				HAL_Delay(DELAY_CYCLE);
 8000be0:	f44f 7016 	mov.w	r0, #600	; 0x258
 8000be4:	f009 f9bc 	bl	8009f60 <HAL_Delay>
			for (uint16_t delay_count = 0U; delay_count < DIAC_PS_DELAY_MILIS; delay_count += DELAY_CYCLE)
 8000be8:	8a7b      	ldrh	r3, [r7, #18]
 8000bea:	f503 7316 	add.w	r3, r3, #600	; 0x258
 8000bee:	827b      	strh	r3, [r7, #18]
 8000bf0:	8a7b      	ldrh	r3, [r7, #18]
 8000bf2:	f5b3 6fe1 	cmp.w	r3, #1800	; 0x708
 8000bf6:	d3f1      	bcc.n	8000bdc <Test_CH_A_Inputs+0x84>
			}
			Read_FLT_Channel_A_C_Inputs(&ch_a_state, &ch_c_state);/*Read input Flt Channels GPIO inputs*/
 8000bf8:	1cba      	adds	r2, r7, #2
 8000bfa:	1cfb      	adds	r3, r7, #3
 8000bfc:	4611      	mov	r1, r2
 8000bfe:	4618      	mov	r0, r3
 8000c00:	f001 fe80 	bl	8002904 <Read_FLT_Channel_A_C_Inputs>
			ch_a_state &= 0x0FU;                                   /*4 lower bits of ch_a_state represent 4 Ch_A inputs*/
 8000c04:	78fb      	ldrb	r3, [r7, #3]
 8000c06:	f003 030f 	and.w	r3, r3, #15
 8000c0a:	b2db      	uxtb	r3, r3
 8000c0c:	70fb      	strb	r3, [r7, #3]
			sens_state = (Read_FLT_Sense_Inputs() & 0x01U);       /*sens_state Lsb bit represents Sense Ch_A input state*/
 8000c0e:	f002 f927 	bl	8002e60 <Read_FLT_Sense_Inputs>
 8000c12:	4603      	mov	r3, r0
 8000c14:	f003 0301 	and.w	r3, r3, #1
 8000c18:	747b      	strb	r3, [r7, #17]

			/*Check Channel_A*/
			if((ch_a_exp_result[test_step] != ch_a_state) ||(ch_a_sens_exp_result[test_step] != (sens_state & 0x01U)))
 8000c1a:	7dbb      	ldrb	r3, [r7, #22]
 8000c1c:	f107 0218 	add.w	r2, r7, #24
 8000c20:	4413      	add	r3, r2
 8000c22:	f813 2c10 	ldrb.w	r2, [r3, #-16]
 8000c26:	78fb      	ldrb	r3, [r7, #3]
 8000c28:	429a      	cmp	r2, r3
 8000c2a:	d10b      	bne.n	8000c44 <Test_CH_A_Inputs+0xec>
 8000c2c:	7dbb      	ldrb	r3, [r7, #22]
 8000c2e:	f107 0218 	add.w	r2, r7, #24
 8000c32:	4413      	add	r3, r2
 8000c34:	f813 3c14 	ldrb.w	r3, [r3, #-20]
 8000c38:	461a      	mov	r2, r3
 8000c3a:	7c7b      	ldrb	r3, [r7, #17]
 8000c3c:	f003 0301 	and.w	r3, r3, #1
 8000c40:	429a      	cmp	r2, r3
 8000c42:	d001      	beq.n	8000c48 <Test_CH_A_Inputs+0xf0>
#ifndef _TEST_BENCH_CONFIGURATION_
				/*Channel_A test failed*/
				Fault_Channel_OUT_Control(E_FLT_CH_A_OUT,E_FLT_CH_FAULT);/*Set Ch_A output*/
				Fault_Channel_OUT_Control(E_FLT_CH_B_OUT,E_FLT_CH_FAULT);/*Set Ch_B output*/
#endif
				ch_a_test_ok = TEST_FL;                         /*Set flag that indicates Channel_A test failure*/
 8000c44:	2301      	movs	r3, #1
 8000c46:	75fb      	strb	r3, [r7, #23]
	for(uint8_t test_step = 0U; test_step < DIAC_NUM_OF_TEST_STEPS; test_step++)
 8000c48:	7dbb      	ldrb	r3, [r7, #22]
 8000c4a:	3301      	adds	r3, #1
 8000c4c:	75bb      	strb	r3, [r7, #22]
 8000c4e:	7dbb      	ldrb	r3, [r7, #22]
 8000c50:	2b03      	cmp	r3, #3
 8000c52:	d9a1      	bls.n	8000b98 <Test_CH_A_Inputs+0x40>
			}
		}
	}
	return ch_a_test_ok;
 8000c54:	7dfb      	ldrb	r3, [r7, #23]
}
 8000c56:	4618      	mov	r0, r3
 8000c58:	3718      	adds	r7, #24
 8000c5a:	46bd      	mov	sp, r7
 8000c5c:	bd80      	pop	{r7, pc}
 8000c5e:	bf00      	nop
 8000c60:	0800bc8c 	.word	0x0800bc8c

08000c64 <Diac_Control>:
**
** Returns: None
** Notes:
*************************************************************************************/
void Diac_Control(e_DIAC_Num diac_num, e_DIAC_State diac_state)
{
 8000c64:	b580      	push	{r7, lr}
 8000c66:	b086      	sub	sp, #24
 8000c68:	af02      	add	r7, sp, #8
 8000c6a:	4603      	mov	r3, r0
 8000c6c:	460a      	mov	r2, r1
 8000c6e:	71fb      	strb	r3, [r7, #7]
 8000c70:	4613      	mov	r3, r2
 8000c72:	71bb      	strb	r3, [r7, #6]
	uint8_t spare_bytes[3U] = {0U};
 8000c74:	f107 030c 	add.w	r3, r7, #12
 8000c78:	2100      	movs	r1, #0
 8000c7a:	460a      	mov	r2, r1
 8000c7c:	801a      	strh	r2, [r3, #0]
 8000c7e:	460a      	mov	r2, r1
 8000c80:	709a      	strb	r2, [r3, #2]

	if(E_DIAC_ENUM_MAX_NUM > diac_num)/*Check if diac_num is in correct range*/
 8000c82:	79fb      	ldrb	r3, [r7, #7]
 8000c84:	2b06      	cmp	r3, #6
 8000c86:	d848      	bhi.n	8000d1a <Diac_Control+0xb6>
	{
		if(E_DIAC_PS_ALL == diac_num)/*Set all PSs (NUM_OF_DIACS_PS) with required state (diac_state)*/
 8000c88:	79fb      	ldrb	r3, [r7, #7]
 8000c8a:	2b04      	cmp	r3, #4
 8000c8c:	d116      	bne.n	8000cbc <Diac_Control+0x58>
		{
			for(uint8_t i = 0U; i < NUM_OF_DIACS_PS; i++)
 8000c8e:	2300      	movs	r3, #0
 8000c90:	73fb      	strb	r3, [r7, #15]
 8000c92:	e00f      	b.n	8000cb4 <Diac_Control+0x50>
			{
				HAL_GPIO_WritePin(ST_DIAC_PS_PIN[i].Pin_port,ST_DIAC_PS_PIN[i].Pin_num,(GPIO_PinState)diac_state);
 8000c94:	7bfb      	ldrb	r3, [r7, #15]
 8000c96:	4a23      	ldr	r2, [pc, #140]	; (8000d24 <Diac_Control+0xc0>)
 8000c98:	00db      	lsls	r3, r3, #3
 8000c9a:	4413      	add	r3, r2
 8000c9c:	6858      	ldr	r0, [r3, #4]
 8000c9e:	7bfb      	ldrb	r3, [r7, #15]
 8000ca0:	4a20      	ldr	r2, [pc, #128]	; (8000d24 <Diac_Control+0xc0>)
 8000ca2:	f832 3033 	ldrh.w	r3, [r2, r3, lsl #3]
 8000ca6:	79ba      	ldrb	r2, [r7, #6]
 8000ca8:	4619      	mov	r1, r3
 8000caa:	f007 fd6b 	bl	8008784 <HAL_GPIO_WritePin>
			for(uint8_t i = 0U; i < NUM_OF_DIACS_PS; i++)
 8000cae:	7bfb      	ldrb	r3, [r7, #15]
 8000cb0:	3301      	adds	r3, #1
 8000cb2:	73fb      	strb	r3, [r7, #15]
 8000cb4:	7bfb      	ldrb	r3, [r7, #15]
 8000cb6:	2b03      	cmp	r3, #3
 8000cb8:	d9ec      	bls.n	8000c94 <Diac_Control+0x30>
			{
				g_SysStatus.Logger_FL |= Write_Event_To_Memory(E_FAULT, E_FC_POWER_SUP_CUT_OFF, 0x00U , E_UNIT_TYPE_DIAC, diac_num+1U, spare_bytes);/* Rev 1.8 */
			}
		}
	}
}
 8000cba:	e02e      	b.n	8000d1a <Diac_Control+0xb6>
		else if((E_DIAC_PS_1 <= diac_num) && (E_DIAC_PS_4 >= diac_num))
 8000cbc:	79fb      	ldrb	r3, [r7, #7]
 8000cbe:	2b03      	cmp	r3, #3
 8000cc0:	d82b      	bhi.n	8000d1a <Diac_Control+0xb6>
			HAL_GPIO_WritePin(ST_DIAC_PS_PIN[diac_num].Pin_port,ST_DIAC_PS_PIN[diac_num].Pin_num,(GPIO_PinState)diac_state);
 8000cc2:	79fb      	ldrb	r3, [r7, #7]
 8000cc4:	4a17      	ldr	r2, [pc, #92]	; (8000d24 <Diac_Control+0xc0>)
 8000cc6:	00db      	lsls	r3, r3, #3
 8000cc8:	4413      	add	r3, r2
 8000cca:	6858      	ldr	r0, [r3, #4]
 8000ccc:	79fb      	ldrb	r3, [r7, #7]
 8000cce:	4a15      	ldr	r2, [pc, #84]	; (8000d24 <Diac_Control+0xc0>)
 8000cd0:	f832 3033 	ldrh.w	r3, [r2, r3, lsl #3]
 8000cd4:	79ba      	ldrb	r2, [r7, #6]
 8000cd6:	4619      	mov	r1, r3
 8000cd8:	f007 fd54 	bl	8008784 <HAL_GPIO_WritePin>
			if ((E_DIAC_OFF == diac_state) && (E_INIT_MODE != g_SysStatus.Sys_Mode))
 8000cdc:	79bb      	ldrb	r3, [r7, #6]
 8000cde:	2b00      	cmp	r3, #0
 8000ce0:	d11b      	bne.n	8000d1a <Diac_Control+0xb6>
 8000ce2:	4b11      	ldr	r3, [pc, #68]	; (8000d28 <Diac_Control+0xc4>)
 8000ce4:	781b      	ldrb	r3, [r3, #0]
 8000ce6:	2b01      	cmp	r3, #1
 8000ce8:	d017      	beq.n	8000d1a <Diac_Control+0xb6>
				g_SysStatus.Logger_FL |= Write_Event_To_Memory(E_FAULT, E_FC_POWER_SUP_CUT_OFF, 0x00U , E_UNIT_TYPE_DIAC, diac_num+1U, spare_bytes);/* Rev 1.8 */
 8000cea:	79fb      	ldrb	r3, [r7, #7]
 8000cec:	3301      	adds	r3, #1
 8000cee:	b2db      	uxtb	r3, r3
 8000cf0:	f107 020c 	add.w	r2, r7, #12
 8000cf4:	9201      	str	r2, [sp, #4]
 8000cf6:	9300      	str	r3, [sp, #0]
 8000cf8:	2303      	movs	r3, #3
 8000cfa:	2200      	movs	r2, #0
 8000cfc:	f243 0109 	movw	r1, #12297	; 0x3009
 8000d00:	2002      	movs	r0, #2
 8000d02:	f003 f935 	bl	8003f70 <Write_Event_To_Memory>
 8000d06:	4603      	mov	r3, r0
 8000d08:	461a      	mov	r2, r3
 8000d0a:	4b07      	ldr	r3, [pc, #28]	; (8000d28 <Diac_Control+0xc4>)
 8000d0c:	f893 34c8 	ldrb.w	r3, [r3, #1224]	; 0x4c8
 8000d10:	4313      	orrs	r3, r2
 8000d12:	b2da      	uxtb	r2, r3
 8000d14:	4b04      	ldr	r3, [pc, #16]	; (8000d28 <Diac_Control+0xc4>)
 8000d16:	f883 24c8 	strb.w	r2, [r3, #1224]	; 0x4c8
}
 8000d1a:	bf00      	nop
 8000d1c:	3710      	adds	r7, #16
 8000d1e:	46bd      	mov	sp, r7
 8000d20:	bd80      	pop	{r7, pc}
 8000d22:	bf00      	nop
 8000d24:	0800bc6c 	.word	0x0800bc6c
 8000d28:	20000504 	.word	0x20000504

08000d2c <Write_EEPROM>:
**
** 		@<post>: 1. pData values are placed in memory.
** 				 2. mem_hal status is update after writing.
*************************************************************************************/
HAL_StatusTypeDef Write_EEPROM(uint8_t *pData, uint8_t number_of_bytes_to_write)
{
 8000d2c:	b580      	push	{r7, lr}
 8000d2e:	b088      	sub	sp, #32
 8000d30:	af04      	add	r7, sp, #16
 8000d32:	6078      	str	r0, [r7, #4]
 8000d34:	460b      	mov	r3, r1
 8000d36:	70fb      	strb	r3, [r7, #3]
	/* Local result variable */
	HAL_StatusTypeDef write_result = HAL_OK;
 8000d38:	2300      	movs	r3, #0
 8000d3a:	73fb      	strb	r3, [r7, #15]
	uint8_t address_bits_A17_A16 = 0U;
 8000d3c:	2300      	movs	r3, #0
 8000d3e:	73bb      	strb	r3, [r7, #14]

	/* If memory is full */
	if(0x00U == Mem_HAL.free_space_in_bytes)
 8000d40:	4b25      	ldr	r3, [pc, #148]	; (8000dd8 <Write_EEPROM+0xac>)
 8000d42:	685b      	ldr	r3, [r3, #4]
 8000d44:	2b00      	cmp	r3, #0
 8000d46:	d103      	bne.n	8000d50 <Write_EEPROM+0x24>
	{
		write_result = Erase_EEPROM();
 8000d48:	f000 f944 	bl	8000fd4 <Erase_EEPROM>
 8000d4c:	4603      	mov	r3, r0
 8000d4e:	73fb      	strb	r3, [r7, #15]
	}

	if(HAL_OK == write_result)
 8000d50:	7bfb      	ldrb	r3, [r7, #15]
 8000d52:	2b00      	cmp	r3, #0
 8000d54:	d131      	bne.n	8000dba <Write_EEPROM+0x8e>
	{
		/* Set address */
		I2C_mem_address = (uint16_t)(Mem_HAL.current_address & MASK_16_BITS);
 8000d56:	4b20      	ldr	r3, [pc, #128]	; (8000dd8 <Write_EEPROM+0xac>)
 8000d58:	681b      	ldr	r3, [r3, #0]
 8000d5a:	b29a      	uxth	r2, r3
 8000d5c:	4b1f      	ldr	r3, [pc, #124]	; (8000ddc <Write_EEPROM+0xb0>)
 8000d5e:	801a      	strh	r2, [r3, #0]

		/*Set A17 and A16 bits */
		I2C_devSelect_address_WR = DEV_SEL_ADD_WR;	/* reset device select code to its init value */
 8000d60:	4b1f      	ldr	r3, [pc, #124]	; (8000de0 <Write_EEPROM+0xb4>)
 8000d62:	22a0      	movs	r2, #160	; 0xa0
 8000d64:	701a      	strb	r2, [r3, #0]
		address_bits_A17_A16 = (uint8_t)((Mem_HAL.current_address >> MOVE_TWO_BYTES ) & MASK_2_BITS);
 8000d66:	4b1c      	ldr	r3, [pc, #112]	; (8000dd8 <Write_EEPROM+0xac>)
 8000d68:	681b      	ldr	r3, [r3, #0]
 8000d6a:	0c1b      	lsrs	r3, r3, #16
 8000d6c:	b2db      	uxtb	r3, r3
 8000d6e:	f003 0303 	and.w	r3, r3, #3
 8000d72:	73bb      	strb	r3, [r7, #14]
		I2C_devSelect_address_WR |= ((address_bits_A17_A16 << 1U ) & 0x06U); /* mask A17 & A16 bits */
 8000d74:	7bbb      	ldrb	r3, [r7, #14]
 8000d76:	005b      	lsls	r3, r3, #1
 8000d78:	b2db      	uxtb	r3, r3
 8000d7a:	f003 0306 	and.w	r3, r3, #6
 8000d7e:	b2da      	uxtb	r2, r3
 8000d80:	4b17      	ldr	r3, [pc, #92]	; (8000de0 <Write_EEPROM+0xb4>)
 8000d82:	781b      	ldrb	r3, [r3, #0]
 8000d84:	4313      	orrs	r3, r2
 8000d86:	b2da      	uxtb	r2, r3
 8000d88:	4b15      	ldr	r3, [pc, #84]	; (8000de0 <Write_EEPROM+0xb4>)
 8000d8a:	701a      	strb	r2, [r3, #0]

		/* Writing to EEPROM */
		write_result = HAL_I2C_Mem_Write(&g_HandleI2C2_ExFlash, I2C_devSelect_address_WR,I2C_mem_address, 0x10U,pData,number_of_bytes_to_write ,TIMEOUT_DURATION);
 8000d8c:	4b14      	ldr	r3, [pc, #80]	; (8000de0 <Write_EEPROM+0xb4>)
 8000d8e:	781b      	ldrb	r3, [r3, #0]
 8000d90:	b299      	uxth	r1, r3
 8000d92:	4b12      	ldr	r3, [pc, #72]	; (8000ddc <Write_EEPROM+0xb0>)
 8000d94:	881b      	ldrh	r3, [r3, #0]
 8000d96:	b298      	uxth	r0, r3
 8000d98:	78fb      	ldrb	r3, [r7, #3]
 8000d9a:	b29b      	uxth	r3, r3
 8000d9c:	2264      	movs	r2, #100	; 0x64
 8000d9e:	9202      	str	r2, [sp, #8]
 8000da0:	9301      	str	r3, [sp, #4]
 8000da2:	687b      	ldr	r3, [r7, #4]
 8000da4:	9300      	str	r3, [sp, #0]
 8000da6:	2310      	movs	r3, #16
 8000da8:	4602      	mov	r2, r0
 8000daa:	480e      	ldr	r0, [pc, #56]	; (8000de4 <Write_EEPROM+0xb8>)
 8000dac:	f007 fe5e 	bl	8008a6c <HAL_I2C_Mem_Write>
 8000db0:	4603      	mov	r3, r0
 8000db2:	73fb      	strb	r3, [r7, #15]
		HAL_Delay(POST_WRITE_DELAY_MILIS);
 8000db4:	200a      	movs	r0, #10
 8000db6:	f009 f8d3 	bl	8009f60 <HAL_Delay>
	}

	if(HAL_OK == write_result)
 8000dba:	7bfb      	ldrb	r3, [r7, #15]
 8000dbc:	2b00      	cmp	r3, #0
 8000dbe:	d106      	bne.n	8000dce <Write_EEPROM+0xa2>
	{
		/* Update memory handler */
		write_result = update_mem_hal(number_of_bytes_to_write);
 8000dc0:	78fb      	ldrb	r3, [r7, #3]
 8000dc2:	b29b      	uxth	r3, r3
 8000dc4:	4618      	mov	r0, r3
 8000dc6:	f000 f91d 	bl	8001004 <update_mem_hal>
 8000dca:	4603      	mov	r3, r0
 8000dcc:	73fb      	strb	r3, [r7, #15]
	}

	return write_result;
 8000dce:	7bfb      	ldrb	r3, [r7, #15]
}
 8000dd0:	4618      	mov	r0, r3
 8000dd2:	3710      	adds	r7, #16
 8000dd4:	46bd      	mov	sp, r7
 8000dd6:	bd80      	pop	{r7, pc}
 8000dd8:	20000c68 	.word	0x20000c68
 8000ddc:	20000c7a 	.word	0x20000c7a
 8000de0:	20000c78 	.word	0x20000c78
 8000de4:	20000d98 	.word	0x20000d98

08000de8 <Read_EEPROM>:
** 					byte_buffer[0] - byte_buffer[15] = some_data.
**					byte_buffer[16] - byte_buffer[19] = NO_DATA_TO_READ (0xFFU).
**
*************************************************************************************/
HAL_StatusTypeDef Read_EEPROM(uint8_t *pData, uint16_t number_of_bytes_to_read, uint32_t address)
{
 8000de8:	b580      	push	{r7, lr}
 8000dea:	b08a      	sub	sp, #40	; 0x28
 8000dec:	af04      	add	r7, sp, #16
 8000dee:	60f8      	str	r0, [r7, #12]
 8000df0:	460b      	mov	r3, r1
 8000df2:	607a      	str	r2, [r7, #4]
 8000df4:	817b      	strh	r3, [r7, #10]
	/* Local result variable */
	HAL_StatusTypeDef read_result = HAL_OK;
 8000df6:	2300      	movs	r3, #0
 8000df8:	75fb      	strb	r3, [r7, #23]
	uint8_t address_bits_A17_A16 = 0U;
 8000dfa:	2300      	movs	r3, #0
 8000dfc:	74bb      	strb	r3, [r7, #18]
	uint16_t emty_space_size = 0U;
 8000dfe:	2300      	movs	r3, #0
 8000e00:	82bb      	strh	r3, [r7, #20]

	/* check that pData is not null */
	if (NULL == pData)
 8000e02:	68fb      	ldr	r3, [r7, #12]
 8000e04:	2b00      	cmp	r3, #0
 8000e06:	d102      	bne.n	8000e0e <Read_EEPROM+0x26>
	{
		read_result = HAL_ERROR;
 8000e08:	2301      	movs	r3, #1
 8000e0a:	75fb      	strb	r3, [r7, #23]
 8000e0c:	e06d      	b.n	8000eea <Read_EEPROM+0x102>
	}
	else
	{
		/* if address is equal to special value "READ_FROM_TOP_OF_MEMORY" */
		if(READ_FROM_TOP_OF_MEMORY == address)
 8000e0e:	687b      	ldr	r3, [r7, #4]
 8000e10:	f1b3 3fff 	cmp.w	r3, #4294967295
 8000e14:	d10d      	bne.n	8000e32 <Read_EEPROM+0x4a>
		{
			/* check that the address value is no negative */
			if(number_of_bytes_to_read <= Mem_HAL.current_address)
 8000e16:	897a      	ldrh	r2, [r7, #10]
 8000e18:	4b36      	ldr	r3, [pc, #216]	; (8000ef4 <Read_EEPROM+0x10c>)
 8000e1a:	681b      	ldr	r3, [r3, #0]
 8000e1c:	429a      	cmp	r2, r3
 8000e1e:	d805      	bhi.n	8000e2c <Read_EEPROM+0x44>
			{
				address = Mem_HAL.current_address - number_of_bytes_to_read;
 8000e20:	4b34      	ldr	r3, [pc, #208]	; (8000ef4 <Read_EEPROM+0x10c>)
 8000e22:	681a      	ldr	r2, [r3, #0]
 8000e24:	897b      	ldrh	r3, [r7, #10]
 8000e26:	1ad3      	subs	r3, r2, r3
 8000e28:	607b      	str	r3, [r7, #4]
 8000e2a:	e006      	b.n	8000e3a <Read_EEPROM+0x52>
			}
			else
			{
				address = 0x00U;
 8000e2c:	2300      	movs	r3, #0
 8000e2e:	607b      	str	r3, [r7, #4]
 8000e30:	e003      	b.n	8000e3a <Read_EEPROM+0x52>
		}

		/* address is a specific location in memory */
		else
		{
			address -= number_of_bytes_to_read;
 8000e32:	897b      	ldrh	r3, [r7, #10]
 8000e34:	687a      	ldr	r2, [r7, #4]
 8000e36:	1ad3      	subs	r3, r2, r3
 8000e38:	607b      	str	r3, [r7, #4]
		}

		/* Set address */
		I2C_mem_address = (uint16_t)(address & MASK_16_BITS);
 8000e3a:	687b      	ldr	r3, [r7, #4]
 8000e3c:	b29a      	uxth	r2, r3
 8000e3e:	4b2e      	ldr	r3, [pc, #184]	; (8000ef8 <Read_EEPROM+0x110>)
 8000e40:	801a      	strh	r2, [r3, #0]

		/* Set A17 and A16 bits */
		I2C_devSelect_address_RD = DEV_SEL_ADD_RD; /* reset device select code to init value */
 8000e42:	4b2e      	ldr	r3, [pc, #184]	; (8000efc <Read_EEPROM+0x114>)
 8000e44:	22a1      	movs	r2, #161	; 0xa1
 8000e46:	701a      	strb	r2, [r3, #0]
		address_bits_A17_A16 = (uint8_t)((address >> 16U ) & MASK_2_BITS);
 8000e48:	687b      	ldr	r3, [r7, #4]
 8000e4a:	0c1b      	lsrs	r3, r3, #16
 8000e4c:	b2db      	uxtb	r3, r3
 8000e4e:	f003 0303 	and.w	r3, r3, #3
 8000e52:	74bb      	strb	r3, [r7, #18]
		I2C_devSelect_address_RD |= ((address_bits_A17_A16 << 1U ) & 0x06U); /* mask A17 & A16 bits */
 8000e54:	7cbb      	ldrb	r3, [r7, #18]
 8000e56:	005b      	lsls	r3, r3, #1
 8000e58:	b2db      	uxtb	r3, r3
 8000e5a:	f003 0306 	and.w	r3, r3, #6
 8000e5e:	b2da      	uxtb	r2, r3
 8000e60:	4b26      	ldr	r3, [pc, #152]	; (8000efc <Read_EEPROM+0x114>)
 8000e62:	781b      	ldrb	r3, [r3, #0]
 8000e64:	4313      	orrs	r3, r2
 8000e66:	b2da      	uxtb	r2, r3
 8000e68:	4b24      	ldr	r3, [pc, #144]	; (8000efc <Read_EEPROM+0x114>)
 8000e6a:	701a      	strb	r2, [r3, #0]

		/* Reading from EEPROM */
		read_result = HAL_I2C_Mem_Read(&g_HandleI2C2_ExFlash,I2C_devSelect_address_RD, I2C_mem_address, 0x10U, pData, number_of_bytes_to_read, TIMEOUT_DURATION);
 8000e6c:	4b23      	ldr	r3, [pc, #140]	; (8000efc <Read_EEPROM+0x114>)
 8000e6e:	781b      	ldrb	r3, [r3, #0]
 8000e70:	b299      	uxth	r1, r3
 8000e72:	4b21      	ldr	r3, [pc, #132]	; (8000ef8 <Read_EEPROM+0x110>)
 8000e74:	881b      	ldrh	r3, [r3, #0]
 8000e76:	b29a      	uxth	r2, r3
 8000e78:	2364      	movs	r3, #100	; 0x64
 8000e7a:	9302      	str	r3, [sp, #8]
 8000e7c:	897b      	ldrh	r3, [r7, #10]
 8000e7e:	9301      	str	r3, [sp, #4]
 8000e80:	68fb      	ldr	r3, [r7, #12]
 8000e82:	9300      	str	r3, [sp, #0]
 8000e84:	2310      	movs	r3, #16
 8000e86:	481e      	ldr	r0, [pc, #120]	; (8000f00 <Read_EEPROM+0x118>)
 8000e88:	f007 fefc 	bl	8008c84 <HAL_I2C_Mem_Read>
 8000e8c:	4603      	mov	r3, r0
 8000e8e:	75fb      	strb	r3, [r7, #23]

		if(HAL_OK == read_result)
 8000e90:	7dfb      	ldrb	r3, [r7, #23]
 8000e92:	2b00      	cmp	r3, #0
 8000e94:	d102      	bne.n	8000e9c <Read_EEPROM+0xb4>
		{
			HAL_Delay(POST_READ_DELAY_MILIS);
 8000e96:	2005      	movs	r0, #5
 8000e98:	f009 f862 	bl	8009f60 <HAL_Delay>
		}

		/* Filling Empty space with '0' */
		if((address+DATA_BUFF_LEN) > Mem_HAL.current_address)/* Rev 2.1*/
 8000e9c:	687b      	ldr	r3, [r7, #4]
 8000e9e:	f103 02a0 	add.w	r2, r3, #160	; 0xa0
 8000ea2:	4b14      	ldr	r3, [pc, #80]	; (8000ef4 <Read_EEPROM+0x10c>)
 8000ea4:	681b      	ldr	r3, [r3, #0]
 8000ea6:	429a      	cmp	r2, r3
 8000ea8:	d91f      	bls.n	8000eea <Read_EEPROM+0x102>
		{
			emty_space_size = DATA_BUFF_LEN+address-Mem_HAL.current_address;
 8000eaa:	687b      	ldr	r3, [r7, #4]
 8000eac:	b29a      	uxth	r2, r3
 8000eae:	4b11      	ldr	r3, [pc, #68]	; (8000ef4 <Read_EEPROM+0x10c>)
 8000eb0:	681b      	ldr	r3, [r3, #0]
 8000eb2:	b29b      	uxth	r3, r3
 8000eb4:	1ad3      	subs	r3, r2, r3
 8000eb6:	b29b      	uxth	r3, r3
 8000eb8:	33a0      	adds	r3, #160	; 0xa0
 8000eba:	82bb      	strh	r3, [r7, #20]

			if (emty_space_size > DATA_BUFF_LEN)
 8000ebc:	8abb      	ldrh	r3, [r7, #20]
 8000ebe:	2ba0      	cmp	r3, #160	; 0xa0
 8000ec0:	d901      	bls.n	8000ec6 <Read_EEPROM+0xde>
			{
				emty_space_size = DATA_BUFF_LEN;
 8000ec2:	23a0      	movs	r3, #160	; 0xa0
 8000ec4:	82bb      	strh	r3, [r7, #20]
			}
			for(uint8_t i = 0x00U ; i < emty_space_size ; i++)
 8000ec6:	2300      	movs	r3, #0
 8000ec8:	74fb      	strb	r3, [r7, #19]
 8000eca:	e009      	b.n	8000ee0 <Read_EEPROM+0xf8>
			{
				pData[(DATA_BUFF_LEN - 1U)-i] = 0x00U;
 8000ecc:	7cfb      	ldrb	r3, [r7, #19]
 8000ece:	f1c3 039f 	rsb	r3, r3, #159	; 0x9f
 8000ed2:	68fa      	ldr	r2, [r7, #12]
 8000ed4:	4413      	add	r3, r2
 8000ed6:	2200      	movs	r2, #0
 8000ed8:	701a      	strb	r2, [r3, #0]
			for(uint8_t i = 0x00U ; i < emty_space_size ; i++)
 8000eda:	7cfb      	ldrb	r3, [r7, #19]
 8000edc:	3301      	adds	r3, #1
 8000ede:	74fb      	strb	r3, [r7, #19]
 8000ee0:	7cfb      	ldrb	r3, [r7, #19]
 8000ee2:	b29b      	uxth	r3, r3
 8000ee4:	8aba      	ldrh	r2, [r7, #20]
 8000ee6:	429a      	cmp	r2, r3
 8000ee8:	d8f0      	bhi.n	8000ecc <Read_EEPROM+0xe4>
			}
		}
	}
	return read_result;
 8000eea:	7dfb      	ldrb	r3, [r7, #23]
}
 8000eec:	4618      	mov	r0, r3
 8000eee:	3718      	adds	r7, #24
 8000ef0:	46bd      	mov	sp, r7
 8000ef2:	bd80      	pop	{r7, pc}
 8000ef4:	20000c68 	.word	0x20000c68
 8000ef8:	20000c7a 	.word	0x20000c7a
 8000efc:	20000c79 	.word	0x20000c79
 8000f00:	20000d98 	.word	0x20000d98

08000f04 <Init_Mem_Hal>:
**	 			2. mem_hal holds the current number of free bytes in memory.
** 				3. SAFETY_VALUE is placed in memory.
**
*************************************************************************************/
HAL_StatusTypeDef Init_Mem_Hal(void)
{
 8000f04:	b580      	push	{r7, lr}
 8000f06:	b082      	sub	sp, #8
 8000f08:	af00      	add	r7, sp, #0
	HAL_StatusTypeDef hal_status = HAL_OK;
 8000f0a:	2300      	movs	r3, #0
 8000f0c:	71fb      	strb	r3, [r7, #7]

	/* Reads data form special place in memory */
	hal_status = read_mem_hal_status_from_EEPROM();
 8000f0e:	f000 f8e7 	bl	80010e0 <read_mem_hal_status_from_EEPROM>
 8000f12:	4603      	mov	r3, r0
 8000f14:	71fb      	strb	r3, [r7, #7]

	if(HAL_OK == hal_status)
 8000f16:	79fb      	ldrb	r3, [r7, #7]
 8000f18:	2b00      	cmp	r3, #0
 8000f1a:	d14b      	bne.n	8000fb4 <Init_Mem_Hal+0xb0>
	{
		/* Check if memory contains SAFETY_VALUE */
		if(SAFETY_VALUE == RdBuffer[7U])				/* if true -> memory was used and contains prev data */
 8000f1c:	4b29      	ldr	r3, [pc, #164]	; (8000fc4 <Init_Mem_Hal+0xc0>)
 8000f1e:	79db      	ldrb	r3, [r3, #7]
 8000f20:	2b55      	cmp	r3, #85	; 0x55
 8000f22:	d13f      	bne.n	8000fa4 <Init_Mem_Hal+0xa0>
		{
			/* Set current address */
			Mem_HAL.current_address = ((uint32_t)(RdBuffer[2U]) & MASK_2_BITS);			/* A17 & A16 bits */
 8000f24:	4b27      	ldr	r3, [pc, #156]	; (8000fc4 <Init_Mem_Hal+0xc0>)
 8000f26:	789b      	ldrb	r3, [r3, #2]
 8000f28:	f003 0303 	and.w	r3, r3, #3
 8000f2c:	4a26      	ldr	r2, [pc, #152]	; (8000fc8 <Init_Mem_Hal+0xc4>)
 8000f2e:	6013      	str	r3, [r2, #0]
			Mem_HAL.current_address <<= 8U;
 8000f30:	4b25      	ldr	r3, [pc, #148]	; (8000fc8 <Init_Mem_Hal+0xc4>)
 8000f32:	681b      	ldr	r3, [r3, #0]
 8000f34:	021b      	lsls	r3, r3, #8
 8000f36:	4a24      	ldr	r2, [pc, #144]	; (8000fc8 <Init_Mem_Hal+0xc4>)
 8000f38:	6013      	str	r3, [r2, #0]
			Mem_HAL.current_address |= ((uint32_t)(RdBuffer[1U]) & MASK_8_BITS); 		/* MIDDLE byte */
 8000f3a:	4b23      	ldr	r3, [pc, #140]	; (8000fc8 <Init_Mem_Hal+0xc4>)
 8000f3c:	681b      	ldr	r3, [r3, #0]
 8000f3e:	4a21      	ldr	r2, [pc, #132]	; (8000fc4 <Init_Mem_Hal+0xc0>)
 8000f40:	7852      	ldrb	r2, [r2, #1]
 8000f42:	4313      	orrs	r3, r2
 8000f44:	4a20      	ldr	r2, [pc, #128]	; (8000fc8 <Init_Mem_Hal+0xc4>)
 8000f46:	6013      	str	r3, [r2, #0]
			Mem_HAL.current_address <<= 8U;
 8000f48:	4b1f      	ldr	r3, [pc, #124]	; (8000fc8 <Init_Mem_Hal+0xc4>)
 8000f4a:	681b      	ldr	r3, [r3, #0]
 8000f4c:	021b      	lsls	r3, r3, #8
 8000f4e:	4a1e      	ldr	r2, [pc, #120]	; (8000fc8 <Init_Mem_Hal+0xc4>)
 8000f50:	6013      	str	r3, [r2, #0]
			Mem_HAL.current_address |= ((uint32_t)(RdBuffer[0U]) & MASK_8_BITS);		/* LSB */
 8000f52:	4b1d      	ldr	r3, [pc, #116]	; (8000fc8 <Init_Mem_Hal+0xc4>)
 8000f54:	681b      	ldr	r3, [r3, #0]
 8000f56:	4a1b      	ldr	r2, [pc, #108]	; (8000fc4 <Init_Mem_Hal+0xc0>)
 8000f58:	7812      	ldrb	r2, [r2, #0]
 8000f5a:	4313      	orrs	r3, r2
 8000f5c:	4a1a      	ldr	r2, [pc, #104]	; (8000fc8 <Init_Mem_Hal+0xc4>)
 8000f5e:	6013      	str	r3, [r2, #0]

			/* Set current free space */
			Mem_HAL.free_space_in_bytes = ((uint32_t)(RdBuffer[5U]) & MASK_2_BITS);		/* 17 & 16 data bits */
 8000f60:	4b18      	ldr	r3, [pc, #96]	; (8000fc4 <Init_Mem_Hal+0xc0>)
 8000f62:	795b      	ldrb	r3, [r3, #5]
 8000f64:	f003 0303 	and.w	r3, r3, #3
 8000f68:	4a17      	ldr	r2, [pc, #92]	; (8000fc8 <Init_Mem_Hal+0xc4>)
 8000f6a:	6053      	str	r3, [r2, #4]
			Mem_HAL.free_space_in_bytes <<= 8U;
 8000f6c:	4b16      	ldr	r3, [pc, #88]	; (8000fc8 <Init_Mem_Hal+0xc4>)
 8000f6e:	685b      	ldr	r3, [r3, #4]
 8000f70:	021b      	lsls	r3, r3, #8
 8000f72:	4a15      	ldr	r2, [pc, #84]	; (8000fc8 <Init_Mem_Hal+0xc4>)
 8000f74:	6053      	str	r3, [r2, #4]
			Mem_HAL.free_space_in_bytes |= ((uint32_t)(RdBuffer[4U]) & MASK_8_BITS);	/* MIDDLE byte */
 8000f76:	4b14      	ldr	r3, [pc, #80]	; (8000fc8 <Init_Mem_Hal+0xc4>)
 8000f78:	685b      	ldr	r3, [r3, #4]
 8000f7a:	4a12      	ldr	r2, [pc, #72]	; (8000fc4 <Init_Mem_Hal+0xc0>)
 8000f7c:	7912      	ldrb	r2, [r2, #4]
 8000f7e:	4313      	orrs	r3, r2
 8000f80:	4a11      	ldr	r2, [pc, #68]	; (8000fc8 <Init_Mem_Hal+0xc4>)
 8000f82:	6053      	str	r3, [r2, #4]
			Mem_HAL.free_space_in_bytes <<= 8U;
 8000f84:	4b10      	ldr	r3, [pc, #64]	; (8000fc8 <Init_Mem_Hal+0xc4>)
 8000f86:	685b      	ldr	r3, [r3, #4]
 8000f88:	021b      	lsls	r3, r3, #8
 8000f8a:	4a0f      	ldr	r2, [pc, #60]	; (8000fc8 <Init_Mem_Hal+0xc4>)
 8000f8c:	6053      	str	r3, [r2, #4]
			Mem_HAL.free_space_in_bytes |= ((uint32_t)(RdBuffer[3U]) & MASK_8_BITS);	/* LSB */
 8000f8e:	4b0e      	ldr	r3, [pc, #56]	; (8000fc8 <Init_Mem_Hal+0xc4>)
 8000f90:	685b      	ldr	r3, [r3, #4]
 8000f92:	4a0c      	ldr	r2, [pc, #48]	; (8000fc4 <Init_Mem_Hal+0xc0>)
 8000f94:	78d2      	ldrb	r2, [r2, #3]
 8000f96:	4313      	orrs	r3, r2
 8000f98:	4a0b      	ldr	r2, [pc, #44]	; (8000fc8 <Init_Mem_Hal+0xc4>)
 8000f9a:	6053      	str	r3, [r2, #4]

			/* Mark that the memory contains previous data */
			g_Logger_Status = LOGGER_NOT_EMPTY;
 8000f9c:	4b0b      	ldr	r3, [pc, #44]	; (8000fcc <Init_Mem_Hal+0xc8>)
 8000f9e:	2201      	movs	r2, #1
 8000fa0:	701a      	strb	r2, [r3, #0]
 8000fa2:	e009      	b.n	8000fb8 <Init_Mem_Hal+0xb4>
		}
		else
		{
			/* Write SAFETY_VALUE to memory and reset mem_hal */
			WrBuffer[7U] = SAFETY_VALUE;
 8000fa4:	4b0a      	ldr	r3, [pc, #40]	; (8000fd0 <Init_Mem_Hal+0xcc>)
 8000fa6:	2255      	movs	r2, #85	; 0x55
 8000fa8:	71da      	strb	r2, [r3, #7]

			/* Reset mem_hal */
			hal_status = Erase_EEPROM();
 8000faa:	f000 f813 	bl	8000fd4 <Erase_EEPROM>
 8000fae:	4603      	mov	r3, r0
 8000fb0:	71fb      	strb	r3, [r7, #7]
 8000fb2:	e001      	b.n	8000fb8 <Init_Mem_Hal+0xb4>
		}
	}
	else
	{
		hal_status = HAL_ERROR;
 8000fb4:	2301      	movs	r3, #1
 8000fb6:	71fb      	strb	r3, [r7, #7]
	}
	return hal_status;
 8000fb8:	79fb      	ldrb	r3, [r7, #7]
}
 8000fba:	4618      	mov	r0, r3
 8000fbc:	3708      	adds	r7, #8
 8000fbe:	46bd      	mov	sp, r7
 8000fc0:	bd80      	pop	{r7, pc}
 8000fc2:	bf00      	nop
 8000fc4:	20000c70 	.word	0x20000c70
 8000fc8:	20000c68 	.word	0x20000c68
 8000fcc:	20000cf0 	.word	0x20000cf0
 8000fd0:	20000004 	.word	0x20000004

08000fd4 <Erase_EEPROM>:
**
** 		@<post>: 	1. mem_hal.current_address is 0x00U.
** 			    	2. mem_hal.free_sapce_in_bytes is MEMORY_SIZE_IN_BYTES.
*************************************************************************************/
HAL_StatusTypeDef Erase_EEPROM(void)
{
 8000fd4:	b580      	push	{r7, lr}
 8000fd6:	b082      	sub	sp, #8
 8000fd8:	af00      	add	r7, sp, #0
	HAL_StatusTypeDef hal_status = HAL_OK;
 8000fda:	2300      	movs	r3, #0
 8000fdc:	71fb      	strb	r3, [r7, #7]
	Mem_HAL.current_address = 0x00U;
 8000fde:	4b07      	ldr	r3, [pc, #28]	; (8000ffc <Erase_EEPROM+0x28>)
 8000fe0:	2200      	movs	r2, #0
 8000fe2:	601a      	str	r2, [r3, #0]
	Mem_HAL.free_space_in_bytes = MEMORY_SIZE_IN_BYTES;
 8000fe4:	4b05      	ldr	r3, [pc, #20]	; (8000ffc <Erase_EEPROM+0x28>)
 8000fe6:	4a06      	ldr	r2, [pc, #24]	; (8001000 <Erase_EEPROM+0x2c>)
 8000fe8:	605a      	str	r2, [r3, #4]
	hal_status = write_mem_hal_status_to_EEPROM();
 8000fea:	f000 f8cb 	bl	8001184 <write_mem_hal_status_to_EEPROM>
 8000fee:	4603      	mov	r3, r0
 8000ff0:	71fb      	strb	r3, [r7, #7]
	return hal_status;
 8000ff2:	79fb      	ldrb	r3, [r7, #7]
}
 8000ff4:	4618      	mov	r0, r3
 8000ff6:	3708      	adds	r7, #8
 8000ff8:	46bd      	mov	sp, r7
 8000ffa:	bd80      	pop	{r7, pc}
 8000ffc:	20000c68 	.word	0x20000c68
 8001000:	0003e7f0 	.word	0x0003e7f0

08001004 <update_mem_hal>:
**
** Returns: HAL_StatusTypeDef - Status
** Notes:
*************************************************************************************/
static HAL_StatusTypeDef update_mem_hal(uint16_t size_of_data)
{
 8001004:	b580      	push	{r7, lr}
 8001006:	b082      	sub	sp, #8
 8001008:	af00      	add	r7, sp, #0
 800100a:	4603      	mov	r3, r0
 800100c:	80fb      	strh	r3, [r7, #6]
	/* Update mem_hal values */
	Mem_HAL.current_address += size_of_data;
 800100e:	4b09      	ldr	r3, [pc, #36]	; (8001034 <update_mem_hal+0x30>)
 8001010:	681a      	ldr	r2, [r3, #0]
 8001012:	88fb      	ldrh	r3, [r7, #6]
 8001014:	4413      	add	r3, r2
 8001016:	4a07      	ldr	r2, [pc, #28]	; (8001034 <update_mem_hal+0x30>)
 8001018:	6013      	str	r3, [r2, #0]
	Mem_HAL.free_space_in_bytes -= size_of_data;
 800101a:	4b06      	ldr	r3, [pc, #24]	; (8001034 <update_mem_hal+0x30>)
 800101c:	685a      	ldr	r2, [r3, #4]
 800101e:	88fb      	ldrh	r3, [r7, #6]
 8001020:	1ad3      	subs	r3, r2, r3
 8001022:	4a04      	ldr	r2, [pc, #16]	; (8001034 <update_mem_hal+0x30>)
 8001024:	6053      	str	r3, [r2, #4]

	/* In current implementation mem_hal status is written to the memory after every update */
	return write_mem_hal_status_to_EEPROM();
 8001026:	f000 f8ad 	bl	8001184 <write_mem_hal_status_to_EEPROM>
 800102a:	4603      	mov	r3, r0
}
 800102c:	4618      	mov	r0, r3
 800102e:	3708      	adds	r7, #8
 8001030:	46bd      	mov	sp, r7
 8001032:	bd80      	pop	{r7, pc}
 8001034:	20000c68 	.word	0x20000c68

08001038 <Cbit_Mem_Test>:
**
** Notes:
**		@<pre>: SAFETY_VALUE is already placed in the last byte of the EEPROM. (Done by init function)
*************************************************************************************/
e_ExFlash_BIT_RESULT Cbit_Mem_Test(void)
{
 8001038:	b580      	push	{r7, lr}
 800103a:	b082      	sub	sp, #8
 800103c:	af00      	add	r7, sp, #0
	/* Set local result vars */
	e_ExFlash_BIT_RESULT cbit_result = E_EXFLASH_BIT_FAIL;
 800103e:	2301      	movs	r3, #1
 8001040:	71fb      	strb	r3, [r7, #7]
	HAL_StatusTypeDef read_result = HAL_OK;
 8001042:	2300      	movs	r3, #0
 8001044:	71bb      	strb	r3, [r7, #6]

	/* Read data from special place in memory */
	read_result = read_mem_hal_status_from_EEPROM();
 8001046:	f000 f84b 	bl	80010e0 <read_mem_hal_status_from_EEPROM>
 800104a:	4603      	mov	r3, r0
 800104c:	71bb      	strb	r3, [r7, #6]

	if((HAL_OK == read_result) && (SAFETY_VALUE == RdBuffer[7U]) && (EEPROM_OK == EEPROM_Status))
 800104e:	79bb      	ldrb	r3, [r7, #6]
 8001050:	2b00      	cmp	r3, #0
 8001052:	d109      	bne.n	8001068 <Cbit_Mem_Test+0x30>
 8001054:	4b07      	ldr	r3, [pc, #28]	; (8001074 <Cbit_Mem_Test+0x3c>)
 8001056:	79db      	ldrb	r3, [r3, #7]
 8001058:	2b55      	cmp	r3, #85	; 0x55
 800105a:	d105      	bne.n	8001068 <Cbit_Mem_Test+0x30>
 800105c:	4b06      	ldr	r3, [pc, #24]	; (8001078 <Cbit_Mem_Test+0x40>)
 800105e:	781b      	ldrb	r3, [r3, #0]
 8001060:	2b00      	cmp	r3, #0
 8001062:	d101      	bne.n	8001068 <Cbit_Mem_Test+0x30>
	{
		cbit_result =  E_EXFLASH_BIT_PASS;
 8001064:	2300      	movs	r3, #0
 8001066:	71fb      	strb	r3, [r7, #7]
	}

	return cbit_result;
 8001068:	79fb      	ldrb	r3, [r7, #7]
}
 800106a:	4618      	mov	r0, r3
 800106c:	3708      	adds	r7, #8
 800106e:	46bd      	mov	sp, r7
 8001070:	bd80      	pop	{r7, pc}
 8001072:	bf00      	nop
 8001074:	20000c70 	.word	0x20000c70
 8001078:	20000c7c 	.word	0x20000c7c

0800107c <Pbit_Mem_Test>:
**
** Returns: e_ExFlash_BIT_RESULT
** Notes:
*************************************************************************************/
e_ExFlash_BIT_RESULT Pbit_Mem_Test(void)
{
 800107c:	b580      	push	{r7, lr}
 800107e:	b082      	sub	sp, #8
 8001080:	af00      	add	r7, sp, #0
	/* Set local result vars */
	e_ExFlash_BIT_RESULT pbit_result = E_EXFLASH_BIT_FAIL;
 8001082:	2301      	movs	r3, #1
 8001084:	71fb      	strb	r3, [r7, #7]
	HAL_StatusTypeDef hal_status = HAL_OK;
 8001086:	2300      	movs	r3, #0
 8001088:	71bb      	strb	r3, [r7, #6]

	/* Read data from special place in memory */
	hal_status = read_mem_hal_status_from_EEPROM();
 800108a:	f000 f829 	bl	80010e0 <read_mem_hal_status_from_EEPROM>
 800108e:	4603      	mov	r3, r0
 8001090:	71bb      	strb	r3, [r7, #6]

	if((HAL_OK == hal_status) && (SAFETY_VALUE == RdBuffer[7U]))
 8001092:	79bb      	ldrb	r3, [r7, #6]
 8001094:	2b00      	cmp	r3, #0
 8001096:	d106      	bne.n	80010a6 <Pbit_Mem_Test+0x2a>
 8001098:	4b0e      	ldr	r3, [pc, #56]	; (80010d4 <Pbit_Mem_Test+0x58>)
 800109a:	79db      	ldrb	r3, [r3, #7]
 800109c:	2b55      	cmp	r3, #85	; 0x55
 800109e:	d102      	bne.n	80010a6 <Pbit_Mem_Test+0x2a>
	{
		pbit_result =  E_EXFLASH_BIT_PASS;
 80010a0:	2300      	movs	r3, #0
 80010a2:	71fb      	strb	r3, [r7, #7]
 80010a4:	e011      	b.n	80010ca <Pbit_Mem_Test+0x4e>
	}
	else
	{
		/* Place safety value in write-buffer */
		WrBuffer[7U] = SAFETY_VALUE;
 80010a6:	4b0c      	ldr	r3, [pc, #48]	; (80010d8 <Pbit_Mem_Test+0x5c>)
 80010a8:	2255      	movs	r2, #85	; 0x55
 80010aa:	71da      	strb	r2, [r3, #7]

		/* Write safety value and current mem_hal status to memory */
		hal_status = write_mem_hal_status_to_EEPROM();
 80010ac:	f000 f86a 	bl	8001184 <write_mem_hal_status_to_EEPROM>
 80010b0:	4603      	mov	r3, r0
 80010b2:	71bb      	strb	r3, [r7, #6]
		if((HAL_OK == hal_status) && (EEPROM_OK == EEPROM_Status))
 80010b4:	79bb      	ldrb	r3, [r7, #6]
 80010b6:	2b00      	cmp	r3, #0
 80010b8:	d107      	bne.n	80010ca <Pbit_Mem_Test+0x4e>
 80010ba:	4b08      	ldr	r3, [pc, #32]	; (80010dc <Pbit_Mem_Test+0x60>)
 80010bc:	781b      	ldrb	r3, [r3, #0]
 80010be:	2b00      	cmp	r3, #0
 80010c0:	d103      	bne.n	80010ca <Pbit_Mem_Test+0x4e>
		{
			/* Check if write succeed by call Cbit function */
			pbit_result = Cbit_Mem_Test();
 80010c2:	f7ff ffb9 	bl	8001038 <Cbit_Mem_Test>
 80010c6:	4603      	mov	r3, r0
 80010c8:	71fb      	strb	r3, [r7, #7]
		}
	}
	return pbit_result;
 80010ca:	79fb      	ldrb	r3, [r7, #7]
}
 80010cc:	4618      	mov	r0, r3
 80010ce:	3708      	adds	r7, #8
 80010d0:	46bd      	mov	sp, r7
 80010d2:	bd80      	pop	{r7, pc}
 80010d4:	20000c70 	.word	0x20000c70
 80010d8:	20000004 	.word	0x20000004
 80010dc:	20000c7c 	.word	0x20000c7c

080010e0 <read_mem_hal_status_from_EEPROM>:
** Returns: HAL_StatusTypeDef - Returns the result of the read operation.
** Notes:
**
*************************************************************************************/
static HAL_StatusTypeDef read_mem_hal_status_from_EEPROM(void)
{
 80010e0:	b580      	push	{r7, lr}
 80010e2:	b088      	sub	sp, #32
 80010e4:	af04      	add	r7, sp, #16
	/* Init local operation result variable */
	HAL_StatusTypeDef read_result = HAL_OK;
 80010e6:	2300      	movs	r3, #0
 80010e8:	73fb      	strb	r3, [r7, #15]

	/* Init local address variables */
	uint32_t mem_hal_address = 0x00U;
 80010ea:	2300      	movs	r3, #0
 80010ec:	60bb      	str	r3, [r7, #8]
	uint8_t address_bits_A17_A16 = 0U;
 80010ee:	2300      	movs	r3, #0
 80010f0:	71fb      	strb	r3, [r7, #7]

	/* Read from EEPROM only if no faults detected */
	if (EEPROM_OK == EEPROM_Status)
 80010f2:	4b1e      	ldr	r3, [pc, #120]	; (800116c <read_mem_hal_status_from_EEPROM+0x8c>)
 80010f4:	781b      	ldrb	r3, [r3, #0]
 80010f6:	2b00      	cmp	r3, #0
 80010f8:	d132      	bne.n	8001160 <read_mem_hal_status_from_EEPROM+0x80>
	{
		/* Parse address of MEMORY_HAL_ADDRESS */
		mem_hal_address = MEMORY_HAL_ADDRESS;
 80010fa:	4b1d      	ldr	r3, [pc, #116]	; (8001170 <read_mem_hal_status_from_EEPROM+0x90>)
 80010fc:	60bb      	str	r3, [r7, #8]
		I2C_mem_address = (uint16_t)(mem_hal_address & MASK_16_BITS);
 80010fe:	68bb      	ldr	r3, [r7, #8]
 8001100:	b29a      	uxth	r2, r3
 8001102:	4b1c      	ldr	r3, [pc, #112]	; (8001174 <read_mem_hal_status_from_EEPROM+0x94>)
 8001104:	801a      	strh	r2, [r3, #0]

		/* Parse A17 & A16 bits */
		I2C_devSelect_address_RD = DEV_SEL_ADD_RD;	/* reset device select code to init value */
 8001106:	4b1c      	ldr	r3, [pc, #112]	; (8001178 <read_mem_hal_status_from_EEPROM+0x98>)
 8001108:	22a1      	movs	r2, #161	; 0xa1
 800110a:	701a      	strb	r2, [r3, #0]
		address_bits_A17_A16 = (uint8_t)((mem_hal_address >> MOVE_TWO_BYTES ) & MASK_2_BITS);
 800110c:	68bb      	ldr	r3, [r7, #8]
 800110e:	0c1b      	lsrs	r3, r3, #16
 8001110:	b2db      	uxtb	r3, r3
 8001112:	f003 0303 	and.w	r3, r3, #3
 8001116:	71fb      	strb	r3, [r7, #7]
		I2C_devSelect_address_RD |= ((address_bits_A17_A16 << 1U ) & 0x06U); /* mask A17 & A16 bits */
 8001118:	79fb      	ldrb	r3, [r7, #7]
 800111a:	005b      	lsls	r3, r3, #1
 800111c:	b2db      	uxtb	r3, r3
 800111e:	f003 0306 	and.w	r3, r3, #6
 8001122:	b2da      	uxtb	r2, r3
 8001124:	4b14      	ldr	r3, [pc, #80]	; (8001178 <read_mem_hal_status_from_EEPROM+0x98>)
 8001126:	781b      	ldrb	r3, [r3, #0]
 8001128:	4313      	orrs	r3, r2
 800112a:	b2da      	uxtb	r2, r3
 800112c:	4b12      	ldr	r3, [pc, #72]	; (8001178 <read_mem_hal_status_from_EEPROM+0x98>)
 800112e:	701a      	strb	r2, [r3, #0]

		/* Read from EEPROM */
		read_result = HAL_I2C_Mem_Read(&g_HandleI2C2_ExFlash,I2C_devSelect_address_RD, I2C_mem_address, 0x10U, RdBuffer, BUFFER_SIZE_IN_BYTES, TIMEOUT_DURATION);
 8001130:	4b11      	ldr	r3, [pc, #68]	; (8001178 <read_mem_hal_status_from_EEPROM+0x98>)
 8001132:	781b      	ldrb	r3, [r3, #0]
 8001134:	b299      	uxth	r1, r3
 8001136:	4b0f      	ldr	r3, [pc, #60]	; (8001174 <read_mem_hal_status_from_EEPROM+0x94>)
 8001138:	881b      	ldrh	r3, [r3, #0]
 800113a:	b29a      	uxth	r2, r3
 800113c:	2364      	movs	r3, #100	; 0x64
 800113e:	9302      	str	r3, [sp, #8]
 8001140:	2308      	movs	r3, #8
 8001142:	9301      	str	r3, [sp, #4]
 8001144:	4b0d      	ldr	r3, [pc, #52]	; (800117c <read_mem_hal_status_from_EEPROM+0x9c>)
 8001146:	9300      	str	r3, [sp, #0]
 8001148:	2310      	movs	r3, #16
 800114a:	480d      	ldr	r0, [pc, #52]	; (8001180 <read_mem_hal_status_from_EEPROM+0xa0>)
 800114c:	f007 fd9a 	bl	8008c84 <HAL_I2C_Mem_Read>
 8001150:	4603      	mov	r3, r0
 8001152:	73fb      	strb	r3, [r7, #15]
		if(HAL_OK == read_result)
 8001154:	7bfb      	ldrb	r3, [r7, #15]
 8001156:	2b00      	cmp	r3, #0
 8001158:	d102      	bne.n	8001160 <read_mem_hal_status_from_EEPROM+0x80>
		{
			HAL_Delay(POST_READ_DELAY_MILIS);
 800115a:	2005      	movs	r0, #5
 800115c:	f008 ff00 	bl	8009f60 <HAL_Delay>
		}
	}
	return read_result;
 8001160:	7bfb      	ldrb	r3, [r7, #15]
}
 8001162:	4618      	mov	r0, r3
 8001164:	3710      	adds	r7, #16
 8001166:	46bd      	mov	sp, r7
 8001168:	bd80      	pop	{r7, pc}
 800116a:	bf00      	nop
 800116c:	20000c7c 	.word	0x20000c7c
 8001170:	0003e7f8 	.word	0x0003e7f8
 8001174:	20000c7a 	.word	0x20000c7a
 8001178:	20000c79 	.word	0x20000c79
 800117c:	20000c70 	.word	0x20000c70
 8001180:	20000d98 	.word	0x20000d98

08001184 <write_mem_hal_status_to_EEPROM>:
**
** Returns: HAL_StatusTypeDef - Returns the result of the write operation.
** Notes:
*************************************************************************************/
static HAL_StatusTypeDef write_mem_hal_status_to_EEPROM(void)
{
 8001184:	b580      	push	{r7, lr}
 8001186:	b088      	sub	sp, #32
 8001188:	af04      	add	r7, sp, #16
	/* Init local operation result variable */
	HAL_StatusTypeDef write_result = HAL_OK;
 800118a:	2300      	movs	r3, #0
 800118c:	73fb      	strb	r3, [r7, #15]

	/* Init local address variables */
	uint32_t mem_hal_address = MEMORY_HAL_ADDRESS;
 800118e:	4b36      	ldr	r3, [pc, #216]	; (8001268 <write_mem_hal_status_to_EEPROM+0xe4>)
 8001190:	60bb      	str	r3, [r7, #8]
	uint8_t address_bits_A17_A16 = 0U;
 8001192:	2300      	movs	r3, #0
 8001194:	71fb      	strb	r3, [r7, #7]

	/* Write to EEPROM only if no faults detected */
	if (EEPROM_OK == EEPROM_Status)
 8001196:	4b35      	ldr	r3, [pc, #212]	; (800126c <write_mem_hal_status_to_EEPROM+0xe8>)
 8001198:	781b      	ldrb	r3, [r3, #0]
 800119a:	2b00      	cmp	r3, #0
 800119c:	d15f      	bne.n	800125e <write_mem_hal_status_to_EEPROM+0xda>
	{
		/* Parse mem_hal current address */
		WrBuffer[0U] = (uint8_t)(Mem_HAL.current_address & MASK_8_BITS); 						/* current_address LSB */
 800119e:	4b34      	ldr	r3, [pc, #208]	; (8001270 <write_mem_hal_status_to_EEPROM+0xec>)
 80011a0:	681b      	ldr	r3, [r3, #0]
 80011a2:	b2da      	uxtb	r2, r3
 80011a4:	4b33      	ldr	r3, [pc, #204]	; (8001274 <write_mem_hal_status_to_EEPROM+0xf0>)
 80011a6:	701a      	strb	r2, [r3, #0]
		WrBuffer[1U] = (uint8_t)((Mem_HAL.current_address >> MOVE_ONE_BYTE) & MASK_8_BITS);		/* current_address MIDDLE byte */
 80011a8:	4b31      	ldr	r3, [pc, #196]	; (8001270 <write_mem_hal_status_to_EEPROM+0xec>)
 80011aa:	681b      	ldr	r3, [r3, #0]
 80011ac:	0a1b      	lsrs	r3, r3, #8
 80011ae:	b2da      	uxtb	r2, r3
 80011b0:	4b30      	ldr	r3, [pc, #192]	; (8001274 <write_mem_hal_status_to_EEPROM+0xf0>)
 80011b2:	705a      	strb	r2, [r3, #1]
		WrBuffer[2U] = (uint8_t)((Mem_HAL.current_address>> MOVE_TWO_BYTES) & MASK_2_BITS);		/* A17 & A16 bits */
 80011b4:	4b2e      	ldr	r3, [pc, #184]	; (8001270 <write_mem_hal_status_to_EEPROM+0xec>)
 80011b6:	681b      	ldr	r3, [r3, #0]
 80011b8:	0c1b      	lsrs	r3, r3, #16
 80011ba:	b2db      	uxtb	r3, r3
 80011bc:	f003 0303 	and.w	r3, r3, #3
 80011c0:	b2da      	uxtb	r2, r3
 80011c2:	4b2c      	ldr	r3, [pc, #176]	; (8001274 <write_mem_hal_status_to_EEPROM+0xf0>)
 80011c4:	709a      	strb	r2, [r3, #2]

		/* Parse mem_hal free space */
		WrBuffer[3U] = (uint8_t)(Mem_HAL.free_space_in_bytes & MASK_8_BITS);					/* free_space LSB */
 80011c6:	4b2a      	ldr	r3, [pc, #168]	; (8001270 <write_mem_hal_status_to_EEPROM+0xec>)
 80011c8:	685b      	ldr	r3, [r3, #4]
 80011ca:	b2da      	uxtb	r2, r3
 80011cc:	4b29      	ldr	r3, [pc, #164]	; (8001274 <write_mem_hal_status_to_EEPROM+0xf0>)
 80011ce:	70da      	strb	r2, [r3, #3]
		WrBuffer[4U] = (uint8_t)((Mem_HAL.free_space_in_bytes >> 8U) & MASK_8_BITS);			/* free_space MIDDLE byte */
 80011d0:	4b27      	ldr	r3, [pc, #156]	; (8001270 <write_mem_hal_status_to_EEPROM+0xec>)
 80011d2:	685b      	ldr	r3, [r3, #4]
 80011d4:	0a1b      	lsrs	r3, r3, #8
 80011d6:	b2da      	uxtb	r2, r3
 80011d8:	4b26      	ldr	r3, [pc, #152]	; (8001274 <write_mem_hal_status_to_EEPROM+0xf0>)
 80011da:	711a      	strb	r2, [r3, #4]
		WrBuffer[5U] = (uint8_t)((Mem_HAL.free_space_in_bytes >> 16U) & MASK_2_BITS);			/* free_space 17 & 16 data bits */
 80011dc:	4b24      	ldr	r3, [pc, #144]	; (8001270 <write_mem_hal_status_to_EEPROM+0xec>)
 80011de:	685b      	ldr	r3, [r3, #4]
 80011e0:	0c1b      	lsrs	r3, r3, #16
 80011e2:	b2db      	uxtb	r3, r3
 80011e4:	f003 0303 	and.w	r3, r3, #3
 80011e8:	b2da      	uxtb	r2, r3
 80011ea:	4b22      	ldr	r3, [pc, #136]	; (8001274 <write_mem_hal_status_to_EEPROM+0xf0>)
 80011ec:	715a      	strb	r2, [r3, #5]

		/* Parse address of MEMORY_HAL_ADDRESS */
		I2C_mem_address = (uint16_t)(mem_hal_address & MASK_16_BITS);
 80011ee:	68bb      	ldr	r3, [r7, #8]
 80011f0:	b29a      	uxth	r2, r3
 80011f2:	4b21      	ldr	r3, [pc, #132]	; (8001278 <write_mem_hal_status_to_EEPROM+0xf4>)
 80011f4:	801a      	strh	r2, [r3, #0]

		/* Parse A17 & A16 bits */
		I2C_devSelect_address_WR = DEV_SEL_ADD_WR;	/* reset device select code to init value */
 80011f6:	4b21      	ldr	r3, [pc, #132]	; (800127c <write_mem_hal_status_to_EEPROM+0xf8>)
 80011f8:	22a0      	movs	r2, #160	; 0xa0
 80011fa:	701a      	strb	r2, [r3, #0]
		address_bits_A17_A16 = (uint8_t)((mem_hal_address >> MOVE_TWO_BYTES) & MASK_2_BITS);
 80011fc:	68bb      	ldr	r3, [r7, #8]
 80011fe:	0c1b      	lsrs	r3, r3, #16
 8001200:	b2db      	uxtb	r3, r3
 8001202:	f003 0303 	and.w	r3, r3, #3
 8001206:	71fb      	strb	r3, [r7, #7]
		I2C_devSelect_address_WR |= ((address_bits_A17_A16 << 1U) & 0x06U); 	/* mask A17 & A16 bits */
 8001208:	79fb      	ldrb	r3, [r7, #7]
 800120a:	005b      	lsls	r3, r3, #1
 800120c:	b2db      	uxtb	r3, r3
 800120e:	f003 0306 	and.w	r3, r3, #6
 8001212:	b2da      	uxtb	r2, r3
 8001214:	4b19      	ldr	r3, [pc, #100]	; (800127c <write_mem_hal_status_to_EEPROM+0xf8>)
 8001216:	781b      	ldrb	r3, [r3, #0]
 8001218:	4313      	orrs	r3, r2
 800121a:	b2da      	uxtb	r2, r3
 800121c:	4b17      	ldr	r3, [pc, #92]	; (800127c <write_mem_hal_status_to_EEPROM+0xf8>)
 800121e:	701a      	strb	r2, [r3, #0]

		/* Write to EEPROM */
		write_result = HAL_I2C_Mem_Write(&g_HandleI2C2_ExFlash, I2C_devSelect_address_WR,I2C_mem_address, 0x010U,WrBuffer,BUFFER_SIZE_IN_BYTES ,TIMEOUT_DURATION);
 8001220:	4b16      	ldr	r3, [pc, #88]	; (800127c <write_mem_hal_status_to_EEPROM+0xf8>)
 8001222:	781b      	ldrb	r3, [r3, #0]
 8001224:	b299      	uxth	r1, r3
 8001226:	4b14      	ldr	r3, [pc, #80]	; (8001278 <write_mem_hal_status_to_EEPROM+0xf4>)
 8001228:	881b      	ldrh	r3, [r3, #0]
 800122a:	b29a      	uxth	r2, r3
 800122c:	2364      	movs	r3, #100	; 0x64
 800122e:	9302      	str	r3, [sp, #8]
 8001230:	2308      	movs	r3, #8
 8001232:	9301      	str	r3, [sp, #4]
 8001234:	4b0f      	ldr	r3, [pc, #60]	; (8001274 <write_mem_hal_status_to_EEPROM+0xf0>)
 8001236:	9300      	str	r3, [sp, #0]
 8001238:	2310      	movs	r3, #16
 800123a:	4811      	ldr	r0, [pc, #68]	; (8001280 <write_mem_hal_status_to_EEPROM+0xfc>)
 800123c:	f007 fc16 	bl	8008a6c <HAL_I2C_Mem_Write>
 8001240:	4603      	mov	r3, r0
 8001242:	73fb      	strb	r3, [r7, #15]
		if(HAL_OK == write_result)
 8001244:	7bfb      	ldrb	r3, [r7, #15]
 8001246:	2b00      	cmp	r3, #0
 8001248:	d102      	bne.n	8001250 <write_mem_hal_status_to_EEPROM+0xcc>
		{
			HAL_Delay(POST_WRITE_DELAY_MILIS);
 800124a:	200a      	movs	r0, #10
 800124c:	f008 fe88 	bl	8009f60 <HAL_Delay>
		}

		if(HAL_OK == write_result)
 8001250:	7bfb      	ldrb	r3, [r7, #15]
 8001252:	2b00      	cmp	r3, #0
 8001254:	d103      	bne.n	800125e <write_mem_hal_status_to_EEPROM+0xda>
		{
			/* Wait for write to complete and verify that the write succeed */
			write_result = verify_mem_hal_status_in_EEPROM();
 8001256:	f000 f815 	bl	8001284 <verify_mem_hal_status_in_EEPROM>
 800125a:	4603      	mov	r3, r0
 800125c:	73fb      	strb	r3, [r7, #15]
		}
	}
	return write_result;
 800125e:	7bfb      	ldrb	r3, [r7, #15]
}
 8001260:	4618      	mov	r0, r3
 8001262:	3710      	adds	r7, #16
 8001264:	46bd      	mov	sp, r7
 8001266:	bd80      	pop	{r7, pc}
 8001268:	0003e7f8 	.word	0x0003e7f8
 800126c:	20000c7c 	.word	0x20000c7c
 8001270:	20000c68 	.word	0x20000c68
 8001274:	20000004 	.word	0x20000004
 8001278:	20000c7a 	.word	0x20000c7a
 800127c:	20000c78 	.word	0x20000c78
 8001280:	20000d98 	.word	0x20000d98

08001284 <verify_mem_hal_status_in_EEPROM>:
**
** Returns: HAL_StatusTypeDef.
** Notes:
*************************************************************************************/
static HAL_StatusTypeDef verify_mem_hal_status_in_EEPROM(void)
{
 8001284:	b580      	push	{r7, lr}
 8001286:	b084      	sub	sp, #16
 8001288:	af00      	add	r7, sp, #0
	/* Init local variables */
	HAL_StatusTypeDef hal_status = HAL_OK;
 800128a:	2300      	movs	r3, #0
 800128c:	73fb      	strb	r3, [r7, #15]
	uint8_t verify_pass = FALSE;
 800128e:	2300      	movs	r3, #0
 8001290:	73bb      	strb	r3, [r7, #14]
	uint8_t num_fl = 0x00U;
 8001292:	2300      	movs	r3, #0
 8001294:	737b      	strb	r3, [r7, #13]
	uint32_t address_value = 0U;
 8001296:	2300      	movs	r3, #0
 8001298:	60bb      	str	r3, [r7, #8]
	uint32_t free_space_value = 0U;
 800129a:	2300      	movs	r3, #0
 800129c:	607b      	str	r3, [r7, #4]

	while ((num_fl < 2U) && (FALSE == verify_pass))
 800129e:	e047      	b.n	8001330 <verify_mem_hal_status_in_EEPROM+0xac>
	{
		/* Read data from MEMORY_HAL_ADDRESS */
		hal_status = read_mem_hal_status_from_EEPROM();
 80012a0:	f7ff ff1e 	bl	80010e0 <read_mem_hal_status_from_EEPROM>
 80012a4:	4603      	mov	r3, r0
 80012a6:	73fb      	strb	r3, [r7, #15]

		/* Parse current address */
		address_value = ((uint32_t)(RdBuffer[2U]) & MASK_2_BITS);		/* A17 & A16 bits */
 80012a8:	4b2a      	ldr	r3, [pc, #168]	; (8001354 <verify_mem_hal_status_in_EEPROM+0xd0>)
 80012aa:	789b      	ldrb	r3, [r3, #2]
 80012ac:	f003 0303 	and.w	r3, r3, #3
 80012b0:	60bb      	str	r3, [r7, #8]
		address_value <<= MOVE_ONE_BYTE;
 80012b2:	68bb      	ldr	r3, [r7, #8]
 80012b4:	021b      	lsls	r3, r3, #8
 80012b6:	60bb      	str	r3, [r7, #8]
		address_value |= ((uint32_t)(RdBuffer[1U]) & MASK_8_BITS); 		/* MIDLLE byte */
 80012b8:	4b26      	ldr	r3, [pc, #152]	; (8001354 <verify_mem_hal_status_in_EEPROM+0xd0>)
 80012ba:	785b      	ldrb	r3, [r3, #1]
 80012bc:	461a      	mov	r2, r3
 80012be:	68bb      	ldr	r3, [r7, #8]
 80012c0:	4313      	orrs	r3, r2
 80012c2:	60bb      	str	r3, [r7, #8]
		address_value <<= MOVE_ONE_BYTE;
 80012c4:	68bb      	ldr	r3, [r7, #8]
 80012c6:	021b      	lsls	r3, r3, #8
 80012c8:	60bb      	str	r3, [r7, #8]
		address_value |= ((uint32_t)(RdBuffer[0U]) & MASK_8_BITS);		/* LSB */
 80012ca:	4b22      	ldr	r3, [pc, #136]	; (8001354 <verify_mem_hal_status_in_EEPROM+0xd0>)
 80012cc:	781b      	ldrb	r3, [r3, #0]
 80012ce:	461a      	mov	r2, r3
 80012d0:	68bb      	ldr	r3, [r7, #8]
 80012d2:	4313      	orrs	r3, r2
 80012d4:	60bb      	str	r3, [r7, #8]

		/* Parse current free space */
		free_space_value = ((uint32_t)(RdBuffer[5U]) & MASK_2_BITS);	/* 17 & 16 data bits */
 80012d6:	4b1f      	ldr	r3, [pc, #124]	; (8001354 <verify_mem_hal_status_in_EEPROM+0xd0>)
 80012d8:	795b      	ldrb	r3, [r3, #5]
 80012da:	f003 0303 	and.w	r3, r3, #3
 80012de:	607b      	str	r3, [r7, #4]
		free_space_value <<= MOVE_ONE_BYTE;
 80012e0:	687b      	ldr	r3, [r7, #4]
 80012e2:	021b      	lsls	r3, r3, #8
 80012e4:	607b      	str	r3, [r7, #4]
		free_space_value |= ((uint32_t)(RdBuffer[4U]) & MASK_8_BITS);	/* MIDDLE byte */
 80012e6:	4b1b      	ldr	r3, [pc, #108]	; (8001354 <verify_mem_hal_status_in_EEPROM+0xd0>)
 80012e8:	791b      	ldrb	r3, [r3, #4]
 80012ea:	461a      	mov	r2, r3
 80012ec:	687b      	ldr	r3, [r7, #4]
 80012ee:	4313      	orrs	r3, r2
 80012f0:	607b      	str	r3, [r7, #4]
		free_space_value <<= MOVE_ONE_BYTE;
 80012f2:	687b      	ldr	r3, [r7, #4]
 80012f4:	021b      	lsls	r3, r3, #8
 80012f6:	607b      	str	r3, [r7, #4]
		free_space_value |= ((uint32_t)(RdBuffer[3U]) & MASK_8_BITS);	/* LSB */
 80012f8:	4b16      	ldr	r3, [pc, #88]	; (8001354 <verify_mem_hal_status_in_EEPROM+0xd0>)
 80012fa:	78db      	ldrb	r3, [r3, #3]
 80012fc:	461a      	mov	r2, r3
 80012fe:	687b      	ldr	r3, [r7, #4]
 8001300:	4313      	orrs	r3, r2
 8001302:	607b      	str	r3, [r7, #4]

		if((address_value != Mem_HAL.current_address) || (free_space_value != Mem_HAL.free_space_in_bytes) || (HAL_OK != hal_status))
 8001304:	4b14      	ldr	r3, [pc, #80]	; (8001358 <verify_mem_hal_status_in_EEPROM+0xd4>)
 8001306:	681a      	ldr	r2, [r3, #0]
 8001308:	68bb      	ldr	r3, [r7, #8]
 800130a:	429a      	cmp	r2, r3
 800130c:	d107      	bne.n	800131e <verify_mem_hal_status_in_EEPROM+0x9a>
 800130e:	4b12      	ldr	r3, [pc, #72]	; (8001358 <verify_mem_hal_status_in_EEPROM+0xd4>)
 8001310:	685a      	ldr	r2, [r3, #4]
 8001312:	687b      	ldr	r3, [r7, #4]
 8001314:	429a      	cmp	r2, r3
 8001316:	d102      	bne.n	800131e <verify_mem_hal_status_in_EEPROM+0x9a>
 8001318:	7bfb      	ldrb	r3, [r7, #15]
 800131a:	2b00      	cmp	r3, #0
 800131c:	d006      	beq.n	800132c <verify_mem_hal_status_in_EEPROM+0xa8>
		{
			/* Results don't match, update the logger FL counter*/
			num_fl++;
 800131e:	7b7b      	ldrb	r3, [r7, #13]
 8001320:	3301      	adds	r3, #1
 8001322:	737b      	strb	r3, [r7, #13]

			/* Short delay between reading sessions */
			HAL_Delay(POST_READ_DELAY_MILIS);
 8001324:	2005      	movs	r0, #5
 8001326:	f008 fe1b 	bl	8009f60 <HAL_Delay>
 800132a:	e001      	b.n	8001330 <verify_mem_hal_status_in_EEPROM+0xac>
		}

		else
		{
			verify_pass = TRUE;
 800132c:	2301      	movs	r3, #1
 800132e:	73bb      	strb	r3, [r7, #14]
	while ((num_fl < 2U) && (FALSE == verify_pass))
 8001330:	7b7b      	ldrb	r3, [r7, #13]
 8001332:	2b01      	cmp	r3, #1
 8001334:	d802      	bhi.n	800133c <verify_mem_hal_status_in_EEPROM+0xb8>
 8001336:	7bbb      	ldrb	r3, [r7, #14]
 8001338:	2b00      	cmp	r3, #0
 800133a:	d0b1      	beq.n	80012a0 <verify_mem_hal_status_in_EEPROM+0x1c>
		}
	}

	/* Failed to verify eeprom status 2 times, mark EEPROM as 'FL' */
	if (FALSE == verify_pass)
 800133c:	7bbb      	ldrb	r3, [r7, #14]
 800133e:	2b00      	cmp	r3, #0
 8001340:	d102      	bne.n	8001348 <verify_mem_hal_status_in_EEPROM+0xc4>
	{
		EEPROM_Status = EEPROM_FL;
 8001342:	4b06      	ldr	r3, [pc, #24]	; (800135c <verify_mem_hal_status_in_EEPROM+0xd8>)
 8001344:	2201      	movs	r2, #1
 8001346:	701a      	strb	r2, [r3, #0]
	}

	return hal_status;
 8001348:	7bfb      	ldrb	r3, [r7, #15]
}
 800134a:	4618      	mov	r0, r3
 800134c:	3710      	adds	r7, #16
 800134e:	46bd      	mov	sp, r7
 8001350:	bd80      	pop	{r7, pc}
 8001352:	bf00      	nop
 8001354:	20000c70 	.word	0x20000c70
 8001358:	20000c68 	.word	0x20000c68
 800135c:	20000c7c 	.word	0x20000c7c

08001360 <Fault_Management>:
** 						Hnadle new faults according to the HLR specification.
** Params:  None.
** Returns: None.
*************************************************************************************/
void Fault_Management(void)
{
 8001360:	b580      	push	{r7, lr}
 8001362:	b086      	sub	sp, #24
 8001364:	af02      	add	r7, sp, #8
	HAL_StatusTypeDef logger_errors = HAL_OK;
 8001366:	2300      	movs	r3, #0
 8001368:	73fb      	strb	r3, [r7, #15]
	uint8_t data_buf[6U] = {0U};
 800136a:	1d3b      	adds	r3, r7, #4
 800136c:	2200      	movs	r2, #0
 800136e:	601a      	str	r2, [r3, #0]
 8001370:	809a      	strh	r2, [r3, #4]
	uint8_t sens_state = 0U;
 8001372:	2300      	movs	r3, #0
 8001374:	733b      	strb	r3, [r7, #12]

	/* SW version test failed */
	if ((TEST_FL == g_SysTestsStatus.CTRYs_SW_Ver_Mismatch_Test_Status) && (TEST_OK == Prev_Test_Status.CTRYs_SW_Ver_Mismatch_Test_Status))
 8001376:	4b18      	ldr	r3, [pc, #96]	; (80013d8 <Fault_Management+0x78>)
 8001378:	7a1b      	ldrb	r3, [r3, #8]
 800137a:	2b01      	cmp	r3, #1
 800137c:	d108      	bne.n	8001390 <Fault_Management+0x30>
 800137e:	4b17      	ldr	r3, [pc, #92]	; (80013dc <Fault_Management+0x7c>)
 8001380:	7a1b      	ldrb	r3, [r3, #8]
 8001382:	2b00      	cmp	r3, #0
 8001384:	d104      	bne.n	8001390 <Fault_Management+0x30>
	{
		/* Update Prev_System_test_status */
		Prev_Test_Status.CTRYs_SW_Ver_Mismatch_Test_Status = TEST_FL;
 8001386:	4b15      	ldr	r3, [pc, #84]	; (80013dc <Fault_Management+0x7c>)
 8001388:	2201      	movs	r2, #1
 800138a:	721a      	strb	r2, [r3, #8]

		/* Write fault event to memory */
		/* Event will be written in PBIT */

		/* Enter safe mode */
		enter_safe_mode();
 800138c:	f001 f9a6 	bl	80026dc <enter_safe_mode>
	}


	/* IPS channel A ON */
	if ((0x0FU != g_SysStatus.ChannelA_FaultsStatus) && (g_SysStatus.ChannelA_FaultsStatus != Prev_Sys_Status.ChannelA_FaultsStatus))
 8001390:	4b13      	ldr	r3, [pc, #76]	; (80013e0 <Fault_Management+0x80>)
 8001392:	79db      	ldrb	r3, [r3, #7]
 8001394:	2b0f      	cmp	r3, #15
 8001396:	f000 80a6 	beq.w	80014e6 <Fault_Management+0x186>
 800139a:	4b11      	ldr	r3, [pc, #68]	; (80013e0 <Fault_Management+0x80>)
 800139c:	79da      	ldrb	r2, [r3, #7]
 800139e:	4b11      	ldr	r3, [pc, #68]	; (80013e4 <Fault_Management+0x84>)
 80013a0:	79db      	ldrb	r3, [r3, #7]
 80013a2:	429a      	cmp	r2, r3
 80013a4:	f000 809f 	beq.w	80014e6 <Fault_Management+0x186>
	{
		/* Update Prev_System_status */
		Prev_Sys_Status.ChannelA_FaultsStatus = g_SysStatus.ChannelA_FaultsStatus;
 80013a8:	4b0d      	ldr	r3, [pc, #52]	; (80013e0 <Fault_Management+0x80>)
 80013aa:	79da      	ldrb	r2, [r3, #7]
 80013ac:	4b0d      	ldr	r3, [pc, #52]	; (80013e4 <Fault_Management+0x84>)
 80013ae:	71da      	strb	r2, [r3, #7]

		/* Set channel A to '1' */
		Fault_Channel_OUT_Control(E_FLT_CH_A_OUT, E_FLT_CH_FAULT);
 80013b0:	2101      	movs	r1, #1
 80013b2:	2000      	movs	r0, #0
 80013b4:	f001 fd6c 	bl	8002e90 <Fault_Channel_OUT_Control>
		FLT_CH_Turn_On[E_FLT_CH_A_OUT] = TRUE;
 80013b8:	4b0b      	ldr	r3, [pc, #44]	; (80013e8 <Fault_Management+0x88>)
 80013ba:	2201      	movs	r2, #1
 80013bc:	701a      	strb	r2, [r3, #0]

		/* Set channel B (1&2) to '1' */
		Fault_Channel_OUT_Control(E_FLT_CH_B_OUT, E_FLT_CH_FAULT);
 80013be:	2101      	movs	r1, #1
 80013c0:	2002      	movs	r0, #2
 80013c2:	f001 fd65 	bl	8002e90 <Fault_Channel_OUT_Control>
		FLT_CH_Turn_On[E_FLT_CH_B_OUT] = TRUE;
 80013c6:	4b08      	ldr	r3, [pc, #32]	; (80013e8 <Fault_Management+0x88>)
 80013c8:	2201      	movs	r2, #1
 80013ca:	709a      	strb	r2, [r3, #2]

		/* Set flt activation */
		Flt_Ch_Activate = TRUE;
 80013cc:	4b07      	ldr	r3, [pc, #28]	; (80013ec <Fault_Management+0x8c>)
 80013ce:	2201      	movs	r2, #1
 80013d0:	701a      	strb	r2, [r3, #0]

		/* DIAC shut-off */
		for (uint8_t diac_num = 0x00U; diac_num < (uint8_t)E_DIAC_PS_ALL; diac_num++)
 80013d2:	2300      	movs	r3, #0
 80013d4:	73bb      	strb	r3, [r7, #14]
 80013d6:	e01d      	b.n	8001414 <Fault_Management+0xb4>
 80013d8:	20000e24 	.word	0x20000e24
 80013dc:	20000c9c 	.word	0x20000c9c
 80013e0:	20000504 	.word	0x20000504
 80013e4:	2000000c 	.word	0x2000000c
 80013e8:	20000c8c 	.word	0x20000c8c
 80013ec:	20000c8f 	.word	0x20000c8f
		{
			if(0U == ((g_SysStatus.ChannelA_FaultsStatus >> diac_num) & 0x01U))
 80013f0:	4bb7      	ldr	r3, [pc, #732]	; (80016d0 <Fault_Management+0x370>)
 80013f2:	79db      	ldrb	r3, [r3, #7]
 80013f4:	461a      	mov	r2, r3
 80013f6:	7bbb      	ldrb	r3, [r7, #14]
 80013f8:	fa42 f303 	asr.w	r3, r2, r3
 80013fc:	f003 0301 	and.w	r3, r3, #1
 8001400:	2b00      	cmp	r3, #0
 8001402:	d104      	bne.n	800140e <Fault_Management+0xae>
			{
				Diac_Control(diac_num, E_DIAC_OFF);
 8001404:	7bbb      	ldrb	r3, [r7, #14]
 8001406:	2100      	movs	r1, #0
 8001408:	4618      	mov	r0, r3
 800140a:	f7ff fc2b 	bl	8000c64 <Diac_Control>
		for (uint8_t diac_num = 0x00U; diac_num < (uint8_t)E_DIAC_PS_ALL; diac_num++)
 800140e:	7bbb      	ldrb	r3, [r7, #14]
 8001410:	3301      	adds	r3, #1
 8001412:	73bb      	strb	r3, [r7, #14]
 8001414:	7bbb      	ldrb	r3, [r7, #14]
 8001416:	2b03      	cmp	r3, #3
 8001418:	d9ea      	bls.n	80013f0 <Fault_Management+0x90>
			}
		}

		/* Enter safe mode */
		enter_safe_mode();
 800141a:	f001 f95f 	bl	80026dc <enter_safe_mode>

		/* Write fault event to memory */
		Fault_Value = g_SysStatus.ChannelA_FaultsStatus;
 800141e:	4bac      	ldr	r3, [pc, #688]	; (80016d0 <Fault_Management+0x370>)
 8001420:	79db      	ldrb	r3, [r3, #7]
 8001422:	b29a      	uxth	r2, r3
 8001424:	4bab      	ldr	r3, [pc, #684]	; (80016d4 <Fault_Management+0x374>)
 8001426:	801a      	strh	r2, [r3, #0]
		if (0x00U == (g_SysStatus.ChannelA_FaultsStatus & 0x01U))
 8001428:	4ba9      	ldr	r3, [pc, #676]	; (80016d0 <Fault_Management+0x370>)
 800142a:	79db      	ldrb	r3, [r3, #7]
 800142c:	f003 0301 	and.w	r3, r3, #1
 8001430:	2b00      	cmp	r3, #0
 8001432:	d110      	bne.n	8001456 <Fault_Management+0xf6>
		{
			logger_errors |= Write_Event_To_Memory(E_FAULT,E_FC_POWER_SUP_1_CHANNEL_A_FAULT_REPORT,Fault_Value,E_UNIT_TYPE_DIAC,DIAC1_ID,Spare);
 8001434:	4ba7      	ldr	r3, [pc, #668]	; (80016d4 <Fault_Management+0x374>)
 8001436:	881a      	ldrh	r2, [r3, #0]
 8001438:	4ba7      	ldr	r3, [pc, #668]	; (80016d8 <Fault_Management+0x378>)
 800143a:	9301      	str	r3, [sp, #4]
 800143c:	2301      	movs	r3, #1
 800143e:	9300      	str	r3, [sp, #0]
 8001440:	2303      	movs	r3, #3
 8001442:	f243 0101 	movw	r1, #12289	; 0x3001
 8001446:	2002      	movs	r0, #2
 8001448:	f002 fd92 	bl	8003f70 <Write_Event_To_Memory>
 800144c:	4603      	mov	r3, r0
 800144e:	461a      	mov	r2, r3
 8001450:	7bfb      	ldrb	r3, [r7, #15]
 8001452:	4313      	orrs	r3, r2
 8001454:	73fb      	strb	r3, [r7, #15]
		}

		if (0x00U == (g_SysStatus.ChannelA_FaultsStatus & 0x02U))
 8001456:	4b9e      	ldr	r3, [pc, #632]	; (80016d0 <Fault_Management+0x370>)
 8001458:	79db      	ldrb	r3, [r3, #7]
 800145a:	f003 0302 	and.w	r3, r3, #2
 800145e:	2b00      	cmp	r3, #0
 8001460:	d110      	bne.n	8001484 <Fault_Management+0x124>
		{
			logger_errors |= Write_Event_To_Memory(E_FAULT,E_FC_POWER_SUP_2_CHANNEL_A_FAULT_REPORT,Fault_Value,E_UNIT_TYPE_DIAC,DIAC2_ID,Spare);
 8001462:	4b9c      	ldr	r3, [pc, #624]	; (80016d4 <Fault_Management+0x374>)
 8001464:	881a      	ldrh	r2, [r3, #0]
 8001466:	4b9c      	ldr	r3, [pc, #624]	; (80016d8 <Fault_Management+0x378>)
 8001468:	9301      	str	r3, [sp, #4]
 800146a:	2302      	movs	r3, #2
 800146c:	9300      	str	r3, [sp, #0]
 800146e:	2303      	movs	r3, #3
 8001470:	f243 0102 	movw	r1, #12290	; 0x3002
 8001474:	2002      	movs	r0, #2
 8001476:	f002 fd7b 	bl	8003f70 <Write_Event_To_Memory>
 800147a:	4603      	mov	r3, r0
 800147c:	461a      	mov	r2, r3
 800147e:	7bfb      	ldrb	r3, [r7, #15]
 8001480:	4313      	orrs	r3, r2
 8001482:	73fb      	strb	r3, [r7, #15]
		}

		if (0x00U == (g_SysStatus.ChannelA_FaultsStatus & 0x04U))
 8001484:	4b92      	ldr	r3, [pc, #584]	; (80016d0 <Fault_Management+0x370>)
 8001486:	79db      	ldrb	r3, [r3, #7]
 8001488:	f003 0304 	and.w	r3, r3, #4
 800148c:	2b00      	cmp	r3, #0
 800148e:	d110      	bne.n	80014b2 <Fault_Management+0x152>
		{
			logger_errors |= Write_Event_To_Memory(E_FAULT,E_FC_POWER_SUP_3_CHANNEL_A_FAULT_REPORT,Fault_Value,E_UNIT_TYPE_DIAC,DIAC3_ID,Spare);
 8001490:	4b90      	ldr	r3, [pc, #576]	; (80016d4 <Fault_Management+0x374>)
 8001492:	881a      	ldrh	r2, [r3, #0]
 8001494:	4b90      	ldr	r3, [pc, #576]	; (80016d8 <Fault_Management+0x378>)
 8001496:	9301      	str	r3, [sp, #4]
 8001498:	2303      	movs	r3, #3
 800149a:	9300      	str	r3, [sp, #0]
 800149c:	2303      	movs	r3, #3
 800149e:	f243 0107 	movw	r1, #12295	; 0x3007
 80014a2:	2002      	movs	r0, #2
 80014a4:	f002 fd64 	bl	8003f70 <Write_Event_To_Memory>
 80014a8:	4603      	mov	r3, r0
 80014aa:	461a      	mov	r2, r3
 80014ac:	7bfb      	ldrb	r3, [r7, #15]
 80014ae:	4313      	orrs	r3, r2
 80014b0:	73fb      	strb	r3, [r7, #15]
		}

		if (0x00U == (g_SysStatus.ChannelA_FaultsStatus & 0x08U))
 80014b2:	4b87      	ldr	r3, [pc, #540]	; (80016d0 <Fault_Management+0x370>)
 80014b4:	79db      	ldrb	r3, [r3, #7]
 80014b6:	f003 0308 	and.w	r3, r3, #8
 80014ba:	2b00      	cmp	r3, #0
 80014bc:	d110      	bne.n	80014e0 <Fault_Management+0x180>
		{
			logger_errors |= Write_Event_To_Memory(E_FAULT,E_FC_POWER_SUP_4_CHANNEL_A_FAULT_REPORT,Fault_Value,E_UNIT_TYPE_DIAC,DIAC4_ID,Spare);
 80014be:	4b85      	ldr	r3, [pc, #532]	; (80016d4 <Fault_Management+0x374>)
 80014c0:	881a      	ldrh	r2, [r3, #0]
 80014c2:	4b85      	ldr	r3, [pc, #532]	; (80016d8 <Fault_Management+0x378>)
 80014c4:	9301      	str	r3, [sp, #4]
 80014c6:	2304      	movs	r3, #4
 80014c8:	9300      	str	r3, [sp, #0]
 80014ca:	2303      	movs	r3, #3
 80014cc:	f243 0108 	movw	r1, #12296	; 0x3008
 80014d0:	2002      	movs	r0, #2
 80014d2:	f002 fd4d 	bl	8003f70 <Write_Event_To_Memory>
 80014d6:	4603      	mov	r3, r0
 80014d8:	461a      	mov	r2, r3
 80014da:	7bfb      	ldrb	r3, [r7, #15]
 80014dc:	4313      	orrs	r3, r2
 80014de:	73fb      	strb	r3, [r7, #15]
		}

		/* Reset fault value */
		Fault_Value = 0x00U;
 80014e0:	4b7c      	ldr	r3, [pc, #496]	; (80016d4 <Fault_Management+0x374>)
 80014e2:	2200      	movs	r2, #0
 80014e4:	801a      	strh	r2, [r3, #0]
	}

	/* Read Fault Sens value */
	sens_state = Read_FLT_Sense_Inputs();
 80014e6:	f001 fcbb 	bl	8002e60 <Read_FLT_Sense_Inputs>
 80014ea:	4603      	mov	r3, r0
 80014ec:	733b      	strb	r3, [r7, #12]

	/* Only Sense Channel A is 'ON' */
	if ((0x00 == (sens_state & FLT_SENSE_A)) && ((0x0FU == g_SysStatus.ChannelA_FaultsStatus)) && (FALSE == Prev_Sens_A_FLT))
 80014ee:	7b3b      	ldrb	r3, [r7, #12]
 80014f0:	f003 0301 	and.w	r3, r3, #1
 80014f4:	2b00      	cmp	r3, #0
 80014f6:	d11d      	bne.n	8001534 <Fault_Management+0x1d4>
 80014f8:	4b75      	ldr	r3, [pc, #468]	; (80016d0 <Fault_Management+0x370>)
 80014fa:	79db      	ldrb	r3, [r3, #7]
 80014fc:	2b0f      	cmp	r3, #15
 80014fe:	d119      	bne.n	8001534 <Fault_Management+0x1d4>
 8001500:	4b76      	ldr	r3, [pc, #472]	; (80016dc <Fault_Management+0x37c>)
 8001502:	781b      	ldrb	r3, [r3, #0]
 8001504:	2b00      	cmp	r3, #0
 8001506:	d115      	bne.n	8001534 <Fault_Management+0x1d4>
	{
		Prev_Sens_A_FLT = TRUE;
 8001508:	4b74      	ldr	r3, [pc, #464]	; (80016dc <Fault_Management+0x37c>)
 800150a:	2201      	movs	r2, #1
 800150c:	701a      	strb	r2, [r3, #0]

		/* Write fault event to memory */
		logger_errors |= Write_Event_To_Memory(E_FAULT,E_FC_DIAC_GENERAL_FAULT,Fault_Value,E_UNIT_TYPE_DIAC,DIAC1_ID,Spare);
 800150e:	4b71      	ldr	r3, [pc, #452]	; (80016d4 <Fault_Management+0x374>)
 8001510:	881a      	ldrh	r2, [r3, #0]
 8001512:	4b71      	ldr	r3, [pc, #452]	; (80016d8 <Fault_Management+0x378>)
 8001514:	9301      	str	r3, [sp, #4]
 8001516:	2301      	movs	r3, #1
 8001518:	9300      	str	r3, [sp, #0]
 800151a:	2303      	movs	r3, #3
 800151c:	f44f 5140 	mov.w	r1, #12288	; 0x3000
 8001520:	2002      	movs	r0, #2
 8001522:	f002 fd25 	bl	8003f70 <Write_Event_To_Memory>
 8001526:	4603      	mov	r3, r0
 8001528:	461a      	mov	r2, r3
 800152a:	7bfb      	ldrb	r3, [r7, #15]
 800152c:	4313      	orrs	r3, r2
 800152e:	73fb      	strb	r3, [r7, #15]

		/* Enter safe mode */
		enter_safe_mode();
 8001530:	f001 f8d4 	bl	80026dc <enter_safe_mode>
	}

	/* IPS channel C ON */
	if ((0x003FU != g_SysStatus.ChannelC_FaultsStatus) && (g_SysStatus.ChannelC_FaultsStatus != Prev_Sys_Status.ChannelC_FaultsStatus))
 8001534:	4b66      	ldr	r3, [pc, #408]	; (80016d0 <Fault_Management+0x370>)
 8001536:	7a1b      	ldrb	r3, [r3, #8]
 8001538:	2b3f      	cmp	r3, #63	; 0x3f
 800153a:	d033      	beq.n	80015a4 <Fault_Management+0x244>
 800153c:	4b64      	ldr	r3, [pc, #400]	; (80016d0 <Fault_Management+0x370>)
 800153e:	7a1a      	ldrb	r2, [r3, #8]
 8001540:	4b67      	ldr	r3, [pc, #412]	; (80016e0 <Fault_Management+0x380>)
 8001542:	7a1b      	ldrb	r3, [r3, #8]
 8001544:	429a      	cmp	r2, r3
 8001546:	d02d      	beq.n	80015a4 <Fault_Management+0x244>
	{
		/* Update Prev_System_status */
		Prev_Sys_Status.ChannelC_FaultsStatus = g_SysStatus.ChannelC_FaultsStatus;
 8001548:	4b61      	ldr	r3, [pc, #388]	; (80016d0 <Fault_Management+0x370>)
 800154a:	7a1a      	ldrb	r2, [r3, #8]
 800154c:	4b64      	ldr	r3, [pc, #400]	; (80016e0 <Fault_Management+0x380>)
 800154e:	721a      	strb	r2, [r3, #8]

		/* Set channel B (1&2) to '1' */
		Fault_Channel_OUT_Control(E_FLT_CH_B_OUT, E_FLT_CH_FAULT);
 8001550:	2101      	movs	r1, #1
 8001552:	2002      	movs	r0, #2
 8001554:	f001 fc9c 	bl	8002e90 <Fault_Channel_OUT_Control>
		FLT_CH_Turn_On[E_FLT_CH_B_OUT] = TRUE;
 8001558:	4b62      	ldr	r3, [pc, #392]	; (80016e4 <Fault_Management+0x384>)
 800155a:	2201      	movs	r2, #1
 800155c:	709a      	strb	r2, [r3, #2]

		/* Set channel C to '1' */
		Fault_Channel_OUT_Control(E_FLT_CH_C_OUT, E_FLT_CH_FAULT);
 800155e:	2101      	movs	r1, #1
 8001560:	2001      	movs	r0, #1
 8001562:	f001 fc95 	bl	8002e90 <Fault_Channel_OUT_Control>
		FLT_CH_Turn_On[E_FLT_CH_C_OUT] = TRUE;
 8001566:	4b5f      	ldr	r3, [pc, #380]	; (80016e4 <Fault_Management+0x384>)
 8001568:	2201      	movs	r2, #1
 800156a:	705a      	strb	r2, [r3, #1]

		/* Set flt activation */
		Flt_Ch_Activate = TRUE;
 800156c:	4b5e      	ldr	r3, [pc, #376]	; (80016e8 <Fault_Management+0x388>)
 800156e:	2201      	movs	r2, #1
 8001570:	701a      	strb	r2, [r3, #0]

		/* Write fault event to memory */
		Fault_Value = g_SysStatus.ChannelC_FaultsStatus;
 8001572:	4b57      	ldr	r3, [pc, #348]	; (80016d0 <Fault_Management+0x370>)
 8001574:	7a1b      	ldrb	r3, [r3, #8]
 8001576:	b29a      	uxth	r2, r3
 8001578:	4b56      	ldr	r3, [pc, #344]	; (80016d4 <Fault_Management+0x374>)
 800157a:	801a      	strh	r2, [r3, #0]
		logger_errors |= Write_Event_To_Memory(E_FAULT,E_FC_CHANNEL_C_FAULT_REPORT,Fault_Value,E_UNIT_TYPE_CTRY,IPS_ID,Spare);
 800157c:	4b55      	ldr	r3, [pc, #340]	; (80016d4 <Fault_Management+0x374>)
 800157e:	881a      	ldrh	r2, [r3, #0]
 8001580:	4b55      	ldr	r3, [pc, #340]	; (80016d8 <Fault_Management+0x378>)
 8001582:	9301      	str	r3, [sp, #4]
 8001584:	2301      	movs	r3, #1
 8001586:	9300      	str	r3, [sp, #0]
 8001588:	2304      	movs	r3, #4
 800158a:	f241 0103 	movw	r1, #4099	; 0x1003
 800158e:	2002      	movs	r0, #2
 8001590:	f002 fcee 	bl	8003f70 <Write_Event_To_Memory>
 8001594:	4603      	mov	r3, r0
 8001596:	461a      	mov	r2, r3
 8001598:	7bfb      	ldrb	r3, [r7, #15]
 800159a:	4313      	orrs	r3, r2
 800159c:	73fb      	strb	r3, [r7, #15]
		Fault_Value = 0x00U;
 800159e:	4b4d      	ldr	r3, [pc, #308]	; (80016d4 <Fault_Management+0x374>)
 80015a0:	2200      	movs	r2, #0
 80015a2:	801a      	strh	r2, [r3, #0]
	}

	/* DIMC Channel A test fail */
	if ((TEST_FL == g_SysTestsStatus.DIMC_Ch_A_Test_Status) && (TEST_FL != Prev_Test_Status.DIMC_Ch_A_Test_Status))
 80015a4:	4b51      	ldr	r3, [pc, #324]	; (80016ec <Fault_Management+0x38c>)
 80015a6:	789b      	ldrb	r3, [r3, #2]
 80015a8:	2b01      	cmp	r3, #1
 80015aa:	d12a      	bne.n	8001602 <Fault_Management+0x2a2>
 80015ac:	4b50      	ldr	r3, [pc, #320]	; (80016f0 <Fault_Management+0x390>)
 80015ae:	789b      	ldrb	r3, [r3, #2]
 80015b0:	2b01      	cmp	r3, #1
 80015b2:	d026      	beq.n	8001602 <Fault_Management+0x2a2>
	{
		/* Update Prev_System_status */
		Prev_Test_Status.DIMC_Ch_A_Test_Status = TEST_FL;
 80015b4:	4b4e      	ldr	r3, [pc, #312]	; (80016f0 <Fault_Management+0x390>)
 80015b6:	2201      	movs	r2, #1
 80015b8:	709a      	strb	r2, [r3, #2]

		/* Set channel A to '1' */
		Fault_Channel_OUT_Control(E_FLT_CH_A_OUT, E_FLT_CH_FAULT);
 80015ba:	2101      	movs	r1, #1
 80015bc:	2000      	movs	r0, #0
 80015be:	f001 fc67 	bl	8002e90 <Fault_Channel_OUT_Control>
		FLT_CH_Turn_On[E_FLT_CH_A_OUT] = TRUE;
 80015c2:	4b48      	ldr	r3, [pc, #288]	; (80016e4 <Fault_Management+0x384>)
 80015c4:	2201      	movs	r2, #1
 80015c6:	701a      	strb	r2, [r3, #0]

		/* Set channel B (1&2) to '1' */
		Fault_Channel_OUT_Control(E_FLT_CH_B_OUT, E_FLT_CH_FAULT);
 80015c8:	2101      	movs	r1, #1
 80015ca:	2002      	movs	r0, #2
 80015cc:	f001 fc60 	bl	8002e90 <Fault_Channel_OUT_Control>
		FLT_CH_Turn_On[E_FLT_CH_B_OUT] = TRUE;
 80015d0:	4b44      	ldr	r3, [pc, #272]	; (80016e4 <Fault_Management+0x384>)
 80015d2:	2201      	movs	r2, #1
 80015d4:	709a      	strb	r2, [r3, #2]

		/* Set flt activation */
		Flt_Ch_Activate = TRUE;
 80015d6:	4b44      	ldr	r3, [pc, #272]	; (80016e8 <Fault_Management+0x388>)
 80015d8:	2201      	movs	r2, #1
 80015da:	701a      	strb	r2, [r3, #0]

		/* Write fault event to memory */
		logger_errors |= Write_Event_To_Memory(E_FAULT,E_FC_CHANNEL_A_FAULT_REPORT,Fault_Value,E_UNIT_TYPE_IPS,IPS_ID,Spare);
 80015dc:	4b3d      	ldr	r3, [pc, #244]	; (80016d4 <Fault_Management+0x374>)
 80015de:	881a      	ldrh	r2, [r3, #0]
 80015e0:	4b3d      	ldr	r3, [pc, #244]	; (80016d8 <Fault_Management+0x378>)
 80015e2:	9301      	str	r3, [sp, #4]
 80015e4:	2301      	movs	r3, #1
 80015e6:	9300      	str	r3, [sp, #0]
 80015e8:	2301      	movs	r3, #1
 80015ea:	f241 0101 	movw	r1, #4097	; 0x1001
 80015ee:	2002      	movs	r0, #2
 80015f0:	f002 fcbe 	bl	8003f70 <Write_Event_To_Memory>
 80015f4:	4603      	mov	r3, r0
 80015f6:	461a      	mov	r2, r3
 80015f8:	7bfb      	ldrb	r3, [r7, #15]
 80015fa:	4313      	orrs	r3, r2
 80015fc:	73fb      	strb	r3, [r7, #15]

		/* Enter safe mode */
		enter_safe_mode();
 80015fe:	f001 f86d 	bl	80026dc <enter_safe_mode>
	}

	/* DIMC Channel B test fail */
	if ((TEST_FL == g_SysTestsStatus.DIMC_Ch_B_Test_Status) && (TEST_FL != Prev_Test_Status.DIMC_Ch_B_Test_Status))
 8001602:	4b3a      	ldr	r3, [pc, #232]	; (80016ec <Fault_Management+0x38c>)
 8001604:	78db      	ldrb	r3, [r3, #3]
 8001606:	2b01      	cmp	r3, #1
 8001608:	d12a      	bne.n	8001660 <Fault_Management+0x300>
 800160a:	4b39      	ldr	r3, [pc, #228]	; (80016f0 <Fault_Management+0x390>)
 800160c:	78db      	ldrb	r3, [r3, #3]
 800160e:	2b01      	cmp	r3, #1
 8001610:	d026      	beq.n	8001660 <Fault_Management+0x300>
	{
		/* Update Prev_System_status */
		Prev_Test_Status.DIMC_Ch_B_Test_Status = TEST_FL;
 8001612:	4b37      	ldr	r3, [pc, #220]	; (80016f0 <Fault_Management+0x390>)
 8001614:	2201      	movs	r2, #1
 8001616:	70da      	strb	r2, [r3, #3]

		/* Set channel B (1&2) to '1' */
		Fault_Channel_OUT_Control(E_FLT_CH_B_OUT, E_FLT_CH_FAULT);
 8001618:	2101      	movs	r1, #1
 800161a:	2002      	movs	r0, #2
 800161c:	f001 fc38 	bl	8002e90 <Fault_Channel_OUT_Control>
		FLT_CH_Turn_On[E_FLT_CH_B_OUT] = TRUE;
 8001620:	4b30      	ldr	r3, [pc, #192]	; (80016e4 <Fault_Management+0x384>)
 8001622:	2201      	movs	r2, #1
 8001624:	709a      	strb	r2, [r3, #2]

		/* Set channel C to '1' */
		Fault_Channel_OUT_Control(E_FLT_CH_C_OUT, E_FLT_CH_FAULT);
 8001626:	2101      	movs	r1, #1
 8001628:	2001      	movs	r0, #1
 800162a:	f001 fc31 	bl	8002e90 <Fault_Channel_OUT_Control>
		FLT_CH_Turn_On[E_FLT_CH_C_OUT] = TRUE;
 800162e:	4b2d      	ldr	r3, [pc, #180]	; (80016e4 <Fault_Management+0x384>)
 8001630:	2201      	movs	r2, #1
 8001632:	705a      	strb	r2, [r3, #1]

		/* Set flt activation */
		Flt_Ch_Activate = TRUE;
 8001634:	4b2c      	ldr	r3, [pc, #176]	; (80016e8 <Fault_Management+0x388>)
 8001636:	2201      	movs	r2, #1
 8001638:	701a      	strb	r2, [r3, #0]

		/* Write fault event to memory */
		logger_errors |= Write_Event_To_Memory(E_FAULT, E_FC_CHANNEL_B_FAULT_REPORT, Fault_Value, E_UNIT_TYPE_DIMC, DIMC_ID, Spare);
 800163a:	4b26      	ldr	r3, [pc, #152]	; (80016d4 <Fault_Management+0x374>)
 800163c:	881a      	ldrh	r2, [r3, #0]
 800163e:	4b26      	ldr	r3, [pc, #152]	; (80016d8 <Fault_Management+0x378>)
 8001640:	9301      	str	r3, [sp, #4]
 8001642:	2301      	movs	r3, #1
 8001644:	9300      	str	r3, [sp, #0]
 8001646:	2302      	movs	r3, #2
 8001648:	f241 0102 	movw	r1, #4098	; 0x1002
 800164c:	2002      	movs	r0, #2
 800164e:	f002 fc8f 	bl	8003f70 <Write_Event_To_Memory>
 8001652:	4603      	mov	r3, r0
 8001654:	461a      	mov	r2, r3
 8001656:	7bfb      	ldrb	r3, [r7, #15]
 8001658:	4313      	orrs	r3, r2
 800165a:	73fb      	strb	r3, [r7, #15]

		/* Enter safe mode */
		enter_safe_mode();
 800165c:	f001 f83e 	bl	80026dc <enter_safe_mode>
	}

	/* DIMC Channel C test fail */
	if ((TEST_FL == g_SysTestsStatus.DIMC_Ch_C_Test_Status) && (TEST_FL != Prev_Test_Status.DIMC_Ch_C_Test_Status))
 8001660:	4b22      	ldr	r3, [pc, #136]	; (80016ec <Fault_Management+0x38c>)
 8001662:	791b      	ldrb	r3, [r3, #4]
 8001664:	2b01      	cmp	r3, #1
 8001666:	d122      	bne.n	80016ae <Fault_Management+0x34e>
 8001668:	4b21      	ldr	r3, [pc, #132]	; (80016f0 <Fault_Management+0x390>)
 800166a:	791b      	ldrb	r3, [r3, #4]
 800166c:	2b01      	cmp	r3, #1
 800166e:	d01e      	beq.n	80016ae <Fault_Management+0x34e>
	{
		/* Update Prev_System_status */
		Prev_Test_Status.DIMC_Ch_C_Test_Status = TEST_FL;
 8001670:	4b1f      	ldr	r3, [pc, #124]	; (80016f0 <Fault_Management+0x390>)
 8001672:	2201      	movs	r2, #1
 8001674:	711a      	strb	r2, [r3, #4]

		/* Channels 'B' & 'C' are set to ON by the testing procedure */
		FLT_CH_Turn_On[E_FLT_CH_B_OUT] = TRUE;
 8001676:	4b1b      	ldr	r3, [pc, #108]	; (80016e4 <Fault_Management+0x384>)
 8001678:	2201      	movs	r2, #1
 800167a:	709a      	strb	r2, [r3, #2]
		FLT_CH_Turn_On[E_FLT_CH_C_OUT] = TRUE;
 800167c:	4b19      	ldr	r3, [pc, #100]	; (80016e4 <Fault_Management+0x384>)
 800167e:	2201      	movs	r2, #1
 8001680:	705a      	strb	r2, [r3, #1]

		/* Set flt activation */
		Flt_Ch_Activate = TRUE;
 8001682:	4b19      	ldr	r3, [pc, #100]	; (80016e8 <Fault_Management+0x388>)
 8001684:	2201      	movs	r2, #1
 8001686:	701a      	strb	r2, [r3, #0]

		/* Write fault event to memory */
		logger_errors |= Write_Event_To_Memory(E_FAULT, E_FC_CHANNEL_C_FAULT_REPORT, Fault_Value, E_UNIT_TYPE_DIMC, DIMC_ID, Spare);
 8001688:	4b12      	ldr	r3, [pc, #72]	; (80016d4 <Fault_Management+0x374>)
 800168a:	881a      	ldrh	r2, [r3, #0]
 800168c:	4b12      	ldr	r3, [pc, #72]	; (80016d8 <Fault_Management+0x378>)
 800168e:	9301      	str	r3, [sp, #4]
 8001690:	2301      	movs	r3, #1
 8001692:	9300      	str	r3, [sp, #0]
 8001694:	2302      	movs	r3, #2
 8001696:	f241 0103 	movw	r1, #4099	; 0x1003
 800169a:	2002      	movs	r0, #2
 800169c:	f002 fc68 	bl	8003f70 <Write_Event_To_Memory>
 80016a0:	4603      	mov	r3, r0
 80016a2:	461a      	mov	r2, r3
 80016a4:	7bfb      	ldrb	r3, [r7, #15]
 80016a6:	4313      	orrs	r3, r2
 80016a8:	73fb      	strb	r3, [r7, #15]

		/* Enter safe mode */
		enter_safe_mode();
 80016aa:	f001 f817 	bl	80026dc <enter_safe_mode>
	}

	/* DIMC 5volt fault */
	if((TEST_FL == g_SysTestsStatus.DIMC_Volt_Test_Status) && (TEST_FL != Prev_Test_Status.DIMC_Volt_Test_Status))
 80016ae:	4b0f      	ldr	r3, [pc, #60]	; (80016ec <Fault_Management+0x38c>)
 80016b0:	781b      	ldrb	r3, [r3, #0]
 80016b2:	2b01      	cmp	r3, #1
 80016b4:	d13f      	bne.n	8001736 <Fault_Management+0x3d6>
 80016b6:	4b0e      	ldr	r3, [pc, #56]	; (80016f0 <Fault_Management+0x390>)
 80016b8:	781b      	ldrb	r3, [r3, #0]
 80016ba:	2b01      	cmp	r3, #1
 80016bc:	d03b      	beq.n	8001736 <Fault_Management+0x3d6>
	{
		/* Update Prev_System_status */
		Prev_Test_Status.DIMC_Volt_Test_Status = TEST_FL;
 80016be:	4b0c      	ldr	r3, [pc, #48]	; (80016f0 <Fault_Management+0x390>)
 80016c0:	2201      	movs	r2, #1
 80016c2:	701a      	strb	r2, [r3, #0]

		/* Set channel B (1&2) to '1' */
		Fault_Channel_OUT_Control(E_FLT_CH_B_OUT, E_FLT_CH_FAULT);
 80016c4:	2101      	movs	r1, #1
 80016c6:	2002      	movs	r0, #2
 80016c8:	f001 fbe2 	bl	8002e90 <Fault_Channel_OUT_Control>
 80016cc:	e012      	b.n	80016f4 <Fault_Management+0x394>
 80016ce:	bf00      	nop
 80016d0:	20000504 	.word	0x20000504
 80016d4:	20000c86 	.word	0x20000c86
 80016d8:	20000c88 	.word	0x20000c88
 80016dc:	20000c99 	.word	0x20000c99
 80016e0:	2000000c 	.word	0x2000000c
 80016e4:	20000c8c 	.word	0x20000c8c
 80016e8:	20000c8f 	.word	0x20000c8f
 80016ec:	20000e24 	.word	0x20000e24
 80016f0:	20000c9c 	.word	0x20000c9c
		FLT_CH_Turn_On[E_FLT_CH_B_OUT] = TRUE;
 80016f4:	4bb0      	ldr	r3, [pc, #704]	; (80019b8 <Fault_Management+0x658>)
 80016f6:	2201      	movs	r2, #1
 80016f8:	709a      	strb	r2, [r3, #2]

		/* Set flt activation */
		Flt_Ch_Activate = TRUE;
 80016fa:	4bb0      	ldr	r3, [pc, #704]	; (80019bc <Fault_Management+0x65c>)
 80016fc:	2201      	movs	r2, #1
 80016fe:	701a      	strb	r2, [r3, #0]

		/* Resets CAN handle status and disables CAN RX interrupt */
		HAL_CAN_Stop();
 8001700:	f006 fbc4 	bl	8007e8c <HAL_CAN_Stop>

		/* Write fault event to memory */
		volt_mes_to_fault_value(&Fault_Value);
 8001704:	48ae      	ldr	r0, [pc, #696]	; (80019c0 <Fault_Management+0x660>)
 8001706:	f001 f877 	bl	80027f8 <volt_mes_to_fault_value>
		logger_errors |= Write_Event_To_Memory(E_FAULT, E_FC_DIMC_POWER_MONITOR_5VDC_FAILED, Fault_Value, E_UNIT_TYPE_DIMC, DIMC_ID, Spare);
 800170a:	4bad      	ldr	r3, [pc, #692]	; (80019c0 <Fault_Management+0x660>)
 800170c:	881a      	ldrh	r2, [r3, #0]
 800170e:	4bad      	ldr	r3, [pc, #692]	; (80019c4 <Fault_Management+0x664>)
 8001710:	9301      	str	r3, [sp, #4]
 8001712:	2301      	movs	r3, #1
 8001714:	9300      	str	r3, [sp, #0]
 8001716:	2302      	movs	r3, #2
 8001718:	f242 0105 	movw	r1, #8197	; 0x2005
 800171c:	2002      	movs	r0, #2
 800171e:	f002 fc27 	bl	8003f70 <Write_Event_To_Memory>
 8001722:	4603      	mov	r3, r0
 8001724:	461a      	mov	r2, r3
 8001726:	7bfb      	ldrb	r3, [r7, #15]
 8001728:	4313      	orrs	r3, r2
 800172a:	73fb      	strb	r3, [r7, #15]
		Fault_Value = 0x00U;
 800172c:	4ba4      	ldr	r3, [pc, #656]	; (80019c0 <Fault_Management+0x660>)
 800172e:	2200      	movs	r2, #0
 8001730:	801a      	strh	r2, [r3, #0]

		/* Enter safe mode */
		enter_safe_mode();
 8001732:	f000 ffd3 	bl	80026dc <enter_safe_mode>
	}

	/* DIMC logger fault */
	if ((TEST_FL == g_SysTestsStatus.DIMC_Logger_Test_Status) && (TEST_FL != Prev_Test_Status.DIMC_Logger_Test_Status))
 8001736:	4ba4      	ldr	r3, [pc, #656]	; (80019c8 <Fault_Management+0x668>)
 8001738:	795b      	ldrb	r3, [r3, #5]
 800173a:	2b01      	cmp	r3, #1
 800173c:	d106      	bne.n	800174c <Fault_Management+0x3ec>
 800173e:	4ba3      	ldr	r3, [pc, #652]	; (80019cc <Fault_Management+0x66c>)
 8001740:	795b      	ldrb	r3, [r3, #5]
 8001742:	2b01      	cmp	r3, #1
 8001744:	d002      	beq.n	800174c <Fault_Management+0x3ec>
	{
		/* Update Prev_System_status */
		Prev_Test_Status.DIMC_Logger_Test_Status = TEST_FL;
 8001746:	4ba1      	ldr	r3, [pc, #644]	; (80019cc <Fault_Management+0x66c>)
 8001748:	2201      	movs	r2, #1
 800174a:	715a      	strb	r2, [r3, #5]
	}

	/* DIMC Can_Bus init fault */
	if ((TEST_FL == g_SysTestsStatus.DIMC_Can_Bus_Init_Test_Status) && (TEST_FL != Prev_Test_Status.DIMC_Can_Bus_Init_Test_Status))
 800174c:	4b9e      	ldr	r3, [pc, #632]	; (80019c8 <Fault_Management+0x668>)
 800174e:	785b      	ldrb	r3, [r3, #1]
 8001750:	2b01      	cmp	r3, #1
 8001752:	d125      	bne.n	80017a0 <Fault_Management+0x440>
 8001754:	4b9d      	ldr	r3, [pc, #628]	; (80019cc <Fault_Management+0x66c>)
 8001756:	785b      	ldrb	r3, [r3, #1]
 8001758:	2b01      	cmp	r3, #1
 800175a:	d021      	beq.n	80017a0 <Fault_Management+0x440>
	{
		/* Update Prev_System_status */
		Prev_Test_Status.DIMC_Can_Bus_Init_Test_Status = TEST_FL;
 800175c:	4b9b      	ldr	r3, [pc, #620]	; (80019cc <Fault_Management+0x66c>)
 800175e:	2201      	movs	r2, #1
 8001760:	705a      	strb	r2, [r3, #1]

		/* Set channel B (1&2) to '1' */
		Fault_Channel_OUT_Control(E_FLT_CH_B_OUT, E_FLT_CH_FAULT);
 8001762:	2101      	movs	r1, #1
 8001764:	2002      	movs	r0, #2
 8001766:	f001 fb93 	bl	8002e90 <Fault_Channel_OUT_Control>
		FLT_CH_Turn_On[E_FLT_CH_B_OUT] = TRUE;
 800176a:	4b93      	ldr	r3, [pc, #588]	; (80019b8 <Fault_Management+0x658>)
 800176c:	2201      	movs	r2, #1
 800176e:	709a      	strb	r2, [r3, #2]

		/* Set flt activation */
		Flt_Ch_Activate = TRUE;
 8001770:	4b92      	ldr	r3, [pc, #584]	; (80019bc <Fault_Management+0x65c>)
 8001772:	2201      	movs	r2, #1
 8001774:	701a      	strb	r2, [r3, #0]

		/* Resets CAN handle status and disables CAN RX interrupt */
		HAL_CAN_Stop();
 8001776:	f006 fb89 	bl	8007e8c <HAL_CAN_Stop>

		/* Write fault event to memory */
		logger_errors |= Write_Event_To_Memory(E_FAULT, E_FC_CAN_BUS_INIT_FAILED, Fault_Value, E_UNIT_TYPE_DIMC, DIMC_ID, Spare);
 800177a:	4b91      	ldr	r3, [pc, #580]	; (80019c0 <Fault_Management+0x660>)
 800177c:	881a      	ldrh	r2, [r3, #0]
 800177e:	4b91      	ldr	r3, [pc, #580]	; (80019c4 <Fault_Management+0x664>)
 8001780:	9301      	str	r3, [sp, #4]
 8001782:	2301      	movs	r3, #1
 8001784:	9300      	str	r3, [sp, #0]
 8001786:	2302      	movs	r3, #2
 8001788:	f242 0102 	movw	r1, #8194	; 0x2002
 800178c:	2002      	movs	r0, #2
 800178e:	f002 fbef 	bl	8003f70 <Write_Event_To_Memory>
 8001792:	4603      	mov	r3, r0
 8001794:	461a      	mov	r2, r3
 8001796:	7bfb      	ldrb	r3, [r7, #15]
 8001798:	4313      	orrs	r3, r2
 800179a:	73fb      	strb	r3, [r7, #15]

		/* Enter safe mode */
		enter_safe_mode();
 800179c:	f000 ff9e 	bl	80026dc <enter_safe_mode>
	}

	/* DIMC CAN BUS Error detected */
	if (TRUE == g_SysStatus.Can_Bus_Error)
 80017a0:	4b8b      	ldr	r3, [pc, #556]	; (80019d0 <Fault_Management+0x670>)
 80017a2:	789b      	ldrb	r3, [r3, #2]
 80017a4:	2b01      	cmp	r3, #1
 80017a6:	d113      	bne.n	80017d0 <Fault_Management+0x470>
	{
		/* Reset the fault indicator */
		g_SysStatus.Can_Bus_Error = FALSE;
 80017a8:	4b89      	ldr	r3, [pc, #548]	; (80019d0 <Fault_Management+0x670>)
 80017aa:	2200      	movs	r2, #0
 80017ac:	709a      	strb	r2, [r3, #2]

		/* Write fault event to memory */
		logger_errors |= Write_Event_To_Memory(E_FAULT,E_FC_CAN_BUS_ERROR_DETECTED,Fault_Value,E_UNIT_TYPE_DIMC,DIMC_ID,Spare);
 80017ae:	4b84      	ldr	r3, [pc, #528]	; (80019c0 <Fault_Management+0x660>)
 80017b0:	881a      	ldrh	r2, [r3, #0]
 80017b2:	4b84      	ldr	r3, [pc, #528]	; (80019c4 <Fault_Management+0x664>)
 80017b4:	9301      	str	r3, [sp, #4]
 80017b6:	2301      	movs	r3, #1
 80017b8:	9300      	str	r3, [sp, #0]
 80017ba:	2302      	movs	r3, #2
 80017bc:	f242 0106 	movw	r1, #8198	; 0x2006
 80017c0:	2002      	movs	r0, #2
 80017c2:	f002 fbd5 	bl	8003f70 <Write_Event_To_Memory>
 80017c6:	4603      	mov	r3, r0
 80017c8:	461a      	mov	r2, r3
 80017ca:	7bfb      	ldrb	r3, [r7, #15]
 80017cc:	4313      	orrs	r3, r2
 80017ce:	73fb      	strb	r3, [r7, #15]
	}

	/* DIMC CAN BUS Transmit error detected */
	if (TRUE == g_SysStatus.Can_Bus_Tr_error)
 80017d0:	4b7f      	ldr	r3, [pc, #508]	; (80019d0 <Fault_Management+0x670>)
 80017d2:	78db      	ldrb	r3, [r3, #3]
 80017d4:	2b01      	cmp	r3, #1
 80017d6:	d113      	bne.n	8001800 <Fault_Management+0x4a0>
	{
		/* Update Prev_System_status */
		g_SysStatus.Can_Bus_Tr_error = FALSE;
 80017d8:	4b7d      	ldr	r3, [pc, #500]	; (80019d0 <Fault_Management+0x670>)
 80017da:	2200      	movs	r2, #0
 80017dc:	70da      	strb	r2, [r3, #3]

		/* Write fault event to memory */
		logger_errors |= Write_Event_To_Memory(E_FAULT,E_FC_CAN_BUS_TRANSMIT_ERROR,Fault_Value,E_UNIT_TYPE_DIMC,DIMC_ID,Spare);
 80017de:	4b78      	ldr	r3, [pc, #480]	; (80019c0 <Fault_Management+0x660>)
 80017e0:	881a      	ldrh	r2, [r3, #0]
 80017e2:	4b78      	ldr	r3, [pc, #480]	; (80019c4 <Fault_Management+0x664>)
 80017e4:	9301      	str	r3, [sp, #4]
 80017e6:	2301      	movs	r3, #1
 80017e8:	9300      	str	r3, [sp, #0]
 80017ea:	2302      	movs	r3, #2
 80017ec:	f242 010a 	movw	r1, #8202	; 0x200a
 80017f0:	2002      	movs	r0, #2
 80017f2:	f002 fbbd 	bl	8003f70 <Write_Event_To_Memory>
 80017f6:	4603      	mov	r3, r0
 80017f8:	461a      	mov	r2, r3
 80017fa:	7bfb      	ldrb	r3, [r7, #15]
 80017fc:	4313      	orrs	r3, r2
 80017fe:	73fb      	strb	r3, [r7, #15]
	}

	/* DIMC CAN BUS Msg type error */
	if (0x00U != g_SysStatus.Can_Bus_Msg_Type_Error)
 8001800:	4b73      	ldr	r3, [pc, #460]	; (80019d0 <Fault_Management+0x670>)
 8001802:	791b      	ldrb	r3, [r3, #4]
 8001804:	2b00      	cmp	r3, #0
 8001806:	d01a      	beq.n	800183e <Fault_Management+0x4de>
	{
		/* Write fault event to memory */
		Fault_Value = (uint8_t)g_SysStatus.Can_Bus_Msg_Type_Error - 1U;
 8001808:	4b71      	ldr	r3, [pc, #452]	; (80019d0 <Fault_Management+0x670>)
 800180a:	791b      	ldrb	r3, [r3, #4]
 800180c:	b29b      	uxth	r3, r3
 800180e:	3b01      	subs	r3, #1
 8001810:	b29a      	uxth	r2, r3
 8001812:	4b6b      	ldr	r3, [pc, #428]	; (80019c0 <Fault_Management+0x660>)
 8001814:	801a      	strh	r2, [r3, #0]
		logger_errors |= Write_Event_To_Memory(E_FAULT,E_FC_CAN_BUS_ERROR_DETECTED,Fault_Value,E_UNIT_TYPE_DIMC,DIMC_ID,Spare);
 8001816:	4b6a      	ldr	r3, [pc, #424]	; (80019c0 <Fault_Management+0x660>)
 8001818:	881a      	ldrh	r2, [r3, #0]
 800181a:	4b6a      	ldr	r3, [pc, #424]	; (80019c4 <Fault_Management+0x664>)
 800181c:	9301      	str	r3, [sp, #4]
 800181e:	2301      	movs	r3, #1
 8001820:	9300      	str	r3, [sp, #0]
 8001822:	2302      	movs	r3, #2
 8001824:	f242 0106 	movw	r1, #8198	; 0x2006
 8001828:	2002      	movs	r0, #2
 800182a:	f002 fba1 	bl	8003f70 <Write_Event_To_Memory>
 800182e:	4603      	mov	r3, r0
 8001830:	461a      	mov	r2, r3
 8001832:	7bfb      	ldrb	r3, [r7, #15]
 8001834:	4313      	orrs	r3, r2
 8001836:	73fb      	strb	r3, [r7, #15]

		/* Update System_status */
		g_SysStatus.Can_Bus_Msg_Type_Error = 0x00U;
 8001838:	4b65      	ldr	r3, [pc, #404]	; (80019d0 <Fault_Management+0x670>)
 800183a:	2200      	movs	r2, #0
 800183c:	711a      	strb	r2, [r3, #4]

	}

	/* DIMC CAN BUS wrong address Error detected */
	if ((0x00U != g_SysStatus.Can_bus_Address_Error) && (g_SysStatus.Can_bus_Address_Error != Prev_Sys_Status.Can_bus_Address_Error))
 800183e:	4b64      	ldr	r3, [pc, #400]	; (80019d0 <Fault_Management+0x670>)
 8001840:	795b      	ldrb	r3, [r3, #5]
 8001842:	2b00      	cmp	r3, #0
 8001844:	d01a      	beq.n	800187c <Fault_Management+0x51c>
 8001846:	4b62      	ldr	r3, [pc, #392]	; (80019d0 <Fault_Management+0x670>)
 8001848:	795a      	ldrb	r2, [r3, #5]
 800184a:	4b62      	ldr	r3, [pc, #392]	; (80019d4 <Fault_Management+0x674>)
 800184c:	795b      	ldrb	r3, [r3, #5]
 800184e:	429a      	cmp	r2, r3
 8001850:	d014      	beq.n	800187c <Fault_Management+0x51c>
	{
		/* Update Prev_System_status */
		Prev_Sys_Status.Can_bus_Address_Error = g_SysStatus.Can_bus_Address_Error;
 8001852:	4b5f      	ldr	r3, [pc, #380]	; (80019d0 <Fault_Management+0x670>)
 8001854:	795a      	ldrb	r2, [r3, #5]
 8001856:	4b5f      	ldr	r3, [pc, #380]	; (80019d4 <Fault_Management+0x674>)
 8001858:	715a      	strb	r2, [r3, #5]

		/* Write fault event to memory */
		logger_errors |= Write_Event_To_Memory(E_FAULT,E_FC_CTRY_INVALID_CAN_ADDRESS,Fault_Value,E_UNIT_TYPE_DIMC,DIMC_ID,Spare);
 800185a:	4b59      	ldr	r3, [pc, #356]	; (80019c0 <Fault_Management+0x660>)
 800185c:	881a      	ldrh	r2, [r3, #0]
 800185e:	4b59      	ldr	r3, [pc, #356]	; (80019c4 <Fault_Management+0x664>)
 8001860:	9301      	str	r3, [sp, #4]
 8001862:	2301      	movs	r3, #1
 8001864:	9300      	str	r3, [sp, #0]
 8001866:	2302      	movs	r3, #2
 8001868:	f244 0111 	movw	r1, #16401	; 0x4011
 800186c:	2002      	movs	r0, #2
 800186e:	f002 fb7f 	bl	8003f70 <Write_Event_To_Memory>
 8001872:	4603      	mov	r3, r0
 8001874:	461a      	mov	r2, r3
 8001876:	7bfb      	ldrb	r3, [r7, #15]
 8001878:	4313      	orrs	r3, r2
 800187a:	73fb      	strb	r3, [r7, #15]
	}

	/* DIMC CAN BUS wrong CTRY id Error detected */
	if ((0x00U != g_SysStatus.Can_Bus_Ctry_Id_Error) && (g_SysStatus.Can_Bus_Ctry_Id_Error != Prev_Sys_Status.Can_Bus_Ctry_Id_Error))
 800187c:	4b54      	ldr	r3, [pc, #336]	; (80019d0 <Fault_Management+0x670>)
 800187e:	799b      	ldrb	r3, [r3, #6]
 8001880:	2b00      	cmp	r3, #0
 8001882:	d02a      	beq.n	80018da <Fault_Management+0x57a>
 8001884:	4b52      	ldr	r3, [pc, #328]	; (80019d0 <Fault_Management+0x670>)
 8001886:	799a      	ldrb	r2, [r3, #6]
 8001888:	4b52      	ldr	r3, [pc, #328]	; (80019d4 <Fault_Management+0x674>)
 800188a:	799b      	ldrb	r3, [r3, #6]
 800188c:	429a      	cmp	r2, r3
 800188e:	d024      	beq.n	80018da <Fault_Management+0x57a>
	{
		/* Update Prev_System_status */
		Prev_Sys_Status.Can_Bus_Ctry_Id_Error = g_SysStatus.Can_Bus_Ctry_Id_Error;
 8001890:	4b4f      	ldr	r3, [pc, #316]	; (80019d0 <Fault_Management+0x670>)
 8001892:	799a      	ldrb	r2, [r3, #6]
 8001894:	4b4f      	ldr	r3, [pc, #316]	; (80019d4 <Fault_Management+0x674>)
 8001896:	719a      	strb	r2, [r3, #6]

		/* Write fault event to memory */
		logger_errors |= Write_Event_To_Memory(E_FAULT,E_FC_CTRY_INVALID_CAN_ID,Fault_Value,E_UNIT_TYPE_DIMC,DIMC_ID,Spare);
 8001898:	4b49      	ldr	r3, [pc, #292]	; (80019c0 <Fault_Management+0x660>)
 800189a:	881a      	ldrh	r2, [r3, #0]
 800189c:	4b49      	ldr	r3, [pc, #292]	; (80019c4 <Fault_Management+0x664>)
 800189e:	9301      	str	r3, [sp, #4]
 80018a0:	2301      	movs	r3, #1
 80018a2:	9300      	str	r3, [sp, #0]
 80018a4:	2302      	movs	r3, #2
 80018a6:	f244 0112 	movw	r1, #16402	; 0x4012
 80018aa:	2002      	movs	r0, #2
 80018ac:	f002 fb60 	bl	8003f70 <Write_Event_To_Memory>
 80018b0:	4603      	mov	r3, r0
 80018b2:	461a      	mov	r2, r3
 80018b4:	7bfb      	ldrb	r3, [r7, #15]
 80018b6:	4313      	orrs	r3, r2
 80018b8:	73fb      	strb	r3, [r7, #15]

		if(E_INIT_MODE == g_SysStatus.Sys_Mode)
 80018ba:	4b45      	ldr	r3, [pc, #276]	; (80019d0 <Fault_Management+0x670>)
 80018bc:	781b      	ldrb	r3, [r3, #0]
 80018be:	2b01      	cmp	r3, #1
 80018c0:	d10b      	bne.n	80018da <Fault_Management+0x57a>
		{
			/* Set channel B (1&2) to '1' */
			Fault_Channel_OUT_Control(E_FLT_CH_B_OUT, E_FLT_CH_FAULT);
 80018c2:	2101      	movs	r1, #1
 80018c4:	2002      	movs	r0, #2
 80018c6:	f001 fae3 	bl	8002e90 <Fault_Channel_OUT_Control>
			FLT_CH_Turn_On[E_FLT_CH_B_OUT] = TRUE;
 80018ca:	4b3b      	ldr	r3, [pc, #236]	; (80019b8 <Fault_Management+0x658>)
 80018cc:	2201      	movs	r2, #1
 80018ce:	709a      	strb	r2, [r3, #2]

			/* Set flt activation */
			Flt_Ch_Activate = TRUE;
 80018d0:	4b3a      	ldr	r3, [pc, #232]	; (80019bc <Fault_Management+0x65c>)
 80018d2:	2201      	movs	r2, #1
 80018d4:	701a      	strb	r2, [r3, #0]

			/* Enter safe mode */
			enter_safe_mode();
 80018d6:	f000 ff01 	bl	80026dc <enter_safe_mode>
		}
	}

	/* DIMC OPER channels hardware fault */
	if ((TRUE == g_SysTestsStatus.DIMC_Oper_Inputs_Test_Status) && (TRUE != Prev_Test_Status.DIMC_Oper_Inputs_Test_Status))
 80018da:	4b3b      	ldr	r3, [pc, #236]	; (80019c8 <Fault_Management+0x668>)
 80018dc:	79db      	ldrb	r3, [r3, #7]
 80018de:	2b01      	cmp	r3, #1
 80018e0:	d123      	bne.n	800192a <Fault_Management+0x5ca>
 80018e2:	4b3a      	ldr	r3, [pc, #232]	; (80019cc <Fault_Management+0x66c>)
 80018e4:	79db      	ldrb	r3, [r3, #7]
 80018e6:	2b01      	cmp	r3, #1
 80018e8:	d01f      	beq.n	800192a <Fault_Management+0x5ca>
	{
		/* Update Prev_System_status */
		Prev_Test_Status.DIMC_Oper_Inputs_Test_Status = TRUE;
 80018ea:	4b38      	ldr	r3, [pc, #224]	; (80019cc <Fault_Management+0x66c>)
 80018ec:	2201      	movs	r2, #1
 80018ee:	71da      	strb	r2, [r3, #7]

		/* Set channel B (1&2) to '1' */
		Fault_Channel_OUT_Control(E_FLT_CH_B_OUT, E_FLT_CH_FAULT);
 80018f0:	2101      	movs	r1, #1
 80018f2:	2002      	movs	r0, #2
 80018f4:	f001 facc 	bl	8002e90 <Fault_Channel_OUT_Control>
		FLT_CH_Turn_On[E_FLT_CH_B_OUT] = TRUE;
 80018f8:	4b2f      	ldr	r3, [pc, #188]	; (80019b8 <Fault_Management+0x658>)
 80018fa:	2201      	movs	r2, #1
 80018fc:	709a      	strb	r2, [r3, #2]

		/* Set flt activation */
		Flt_Ch_Activate = TRUE;
 80018fe:	4b2f      	ldr	r3, [pc, #188]	; (80019bc <Fault_Management+0x65c>)
 8001900:	2201      	movs	r2, #1
 8001902:	701a      	strb	r2, [r3, #0]

		/* Write fault event to memory */
		logger_errors |= Write_Event_To_Memory(E_FAULT,E_FC_OPER_SIGNALS_INTEGRITY_TEST_FAILED,Fault_Value,E_UNIT_TYPE_DIMC,DIMC_ID,Spare);
 8001904:	4b2e      	ldr	r3, [pc, #184]	; (80019c0 <Fault_Management+0x660>)
 8001906:	881a      	ldrh	r2, [r3, #0]
 8001908:	4b2e      	ldr	r3, [pc, #184]	; (80019c4 <Fault_Management+0x664>)
 800190a:	9301      	str	r3, [sp, #4]
 800190c:	2301      	movs	r3, #1
 800190e:	9300      	str	r3, [sp, #0]
 8001910:	2302      	movs	r3, #2
 8001912:	f242 0109 	movw	r1, #8201	; 0x2009
 8001916:	2002      	movs	r0, #2
 8001918:	f002 fb2a 	bl	8003f70 <Write_Event_To_Memory>
 800191c:	4603      	mov	r3, r0
 800191e:	461a      	mov	r2, r3
 8001920:	7bfb      	ldrb	r3, [r7, #15]
 8001922:	4313      	orrs	r3, r2
 8001924:	73fb      	strb	r3, [r7, #15]

		/* Enter safe mode */
		enter_safe_mode();
 8001926:	f000 fed9 	bl	80026dc <enter_safe_mode>
	}

	/* DIMC Monitor CTRYs Status Table */
	if ((0x00U != g_SysTestsStatus.DIMC_Monitor_Status_Table_Test_Status) && (0x00U == Prev_Test_Status.DIMC_Monitor_Status_Table_Test_Status))
 800192a:	4b27      	ldr	r3, [pc, #156]	; (80019c8 <Fault_Management+0x668>)
 800192c:	799b      	ldrb	r3, [r3, #6]
 800192e:	2b00      	cmp	r3, #0
 8001930:	d011      	beq.n	8001956 <Fault_Management+0x5f6>
 8001932:	4b26      	ldr	r3, [pc, #152]	; (80019cc <Fault_Management+0x66c>)
 8001934:	799b      	ldrb	r3, [r3, #6]
 8001936:	2b00      	cmp	r3, #0
 8001938:	d10d      	bne.n	8001956 <Fault_Management+0x5f6>
	{
		/* Update Prev_System_status */
		Prev_Test_Status.DIMC_Monitor_Status_Table_Test_Status = g_SysTestsStatus.DIMC_Monitor_Status_Table_Test_Status;
 800193a:	4b23      	ldr	r3, [pc, #140]	; (80019c8 <Fault_Management+0x668>)
 800193c:	799a      	ldrb	r2, [r3, #6]
 800193e:	4b23      	ldr	r3, [pc, #140]	; (80019cc <Fault_Management+0x66c>)
 8001940:	719a      	strb	r2, [r3, #6]

		/* Set channel B (1&2) to '1' */
		Fault_Channel_OUT_Control(E_FLT_CH_B_OUT, E_FLT_CH_FAULT);
 8001942:	2101      	movs	r1, #1
 8001944:	2002      	movs	r0, #2
 8001946:	f001 faa3 	bl	8002e90 <Fault_Channel_OUT_Control>
		FLT_CH_Turn_On[E_FLT_CH_B_OUT] = TRUE;
 800194a:	4b1b      	ldr	r3, [pc, #108]	; (80019b8 <Fault_Management+0x658>)
 800194c:	2201      	movs	r2, #1
 800194e:	709a      	strb	r2, [r3, #2]

		/* Set flt activation */
		Flt_Ch_Activate = TRUE;
 8001950:	4b1a      	ldr	r3, [pc, #104]	; (80019bc <Fault_Management+0x65c>)
 8001952:	2201      	movs	r2, #1
 8001954:	701a      	strb	r2, [r3, #0]
	}

	/* DIMC PBIT fail */
	if ((0x00U != g_SysStatus.DIMC_PBIT_Failure_Desc)  && (g_SysStatus.DIMC_PBIT_Failure_Desc != Prev_Sys_Status.DIMC_PBIT_Failure_Desc))
 8001956:	4b1e      	ldr	r3, [pc, #120]	; (80019d0 <Fault_Management+0x670>)
 8001958:	7b1b      	ldrb	r3, [r3, #12]
 800195a:	2b00      	cmp	r3, #0
 800195c:	d022      	beq.n	80019a4 <Fault_Management+0x644>
 800195e:	4b1c      	ldr	r3, [pc, #112]	; (80019d0 <Fault_Management+0x670>)
 8001960:	7b1a      	ldrb	r2, [r3, #12]
 8001962:	4b1c      	ldr	r3, [pc, #112]	; (80019d4 <Fault_Management+0x674>)
 8001964:	7b1b      	ldrb	r3, [r3, #12]
 8001966:	429a      	cmp	r2, r3
 8001968:	d01c      	beq.n	80019a4 <Fault_Management+0x644>
	{
		/* Update Prev_System_status */
		Prev_Sys_Status.DIMC_PBIT_Failure_Desc = g_SysStatus.DIMC_PBIT_Failure_Desc;
 800196a:	4b19      	ldr	r3, [pc, #100]	; (80019d0 <Fault_Management+0x670>)
 800196c:	7b1a      	ldrb	r2, [r3, #12]
 800196e:	4b19      	ldr	r3, [pc, #100]	; (80019d4 <Fault_Management+0x674>)
 8001970:	731a      	strb	r2, [r3, #12]

		/* Write PBIT fail event to memory */
		Fault_Value = 0xFFU & g_SysStatus.DIMC_PBIT_Failure_Desc;
 8001972:	4b17      	ldr	r3, [pc, #92]	; (80019d0 <Fault_Management+0x670>)
 8001974:	7b1b      	ldrb	r3, [r3, #12]
 8001976:	b29a      	uxth	r2, r3
 8001978:	4b11      	ldr	r3, [pc, #68]	; (80019c0 <Fault_Management+0x660>)
 800197a:	801a      	strh	r2, [r3, #0]
		logger_errors |= Write_Event_To_Memory(E_FAULT, E_FC_DIMC_PBIT_FAILED, Fault_Value, E_UNIT_TYPE_DIMC, DIMC_ID,Spare);
 800197c:	4b10      	ldr	r3, [pc, #64]	; (80019c0 <Fault_Management+0x660>)
 800197e:	881a      	ldrh	r2, [r3, #0]
 8001980:	4b10      	ldr	r3, [pc, #64]	; (80019c4 <Fault_Management+0x664>)
 8001982:	9301      	str	r3, [sp, #4]
 8001984:	2301      	movs	r3, #1
 8001986:	9300      	str	r3, [sp, #0]
 8001988:	2302      	movs	r3, #2
 800198a:	f242 0103 	movw	r1, #8195	; 0x2003
 800198e:	2002      	movs	r0, #2
 8001990:	f002 faee 	bl	8003f70 <Write_Event_To_Memory>
 8001994:	4603      	mov	r3, r0
 8001996:	461a      	mov	r2, r3
 8001998:	7bfb      	ldrb	r3, [r7, #15]
 800199a:	4313      	orrs	r3, r2
 800199c:	73fb      	strb	r3, [r7, #15]
		Fault_Value = 0x00U;
 800199e:	4b08      	ldr	r3, [pc, #32]	; (80019c0 <Fault_Management+0x660>)
 80019a0:	2200      	movs	r2, #0
 80019a2:	801a      	strh	r2, [r3, #0]

	}

	/* DIMC CBIT fail */
	if ((0x00U != g_SysStatus.DIMC_CBIT_Failure_Desc)  && (g_SysStatus.DIMC_CBIT_Failure_Desc != Prev_Sys_Status.DIMC_CBIT_Failure_Desc))
 80019a4:	4b0a      	ldr	r3, [pc, #40]	; (80019d0 <Fault_Management+0x670>)
 80019a6:	7adb      	ldrb	r3, [r3, #11]
 80019a8:	2b00      	cmp	r3, #0
 80019aa:	d037      	beq.n	8001a1c <Fault_Management+0x6bc>
 80019ac:	4b08      	ldr	r3, [pc, #32]	; (80019d0 <Fault_Management+0x670>)
 80019ae:	7ada      	ldrb	r2, [r3, #11]
 80019b0:	4b08      	ldr	r3, [pc, #32]	; (80019d4 <Fault_Management+0x674>)
 80019b2:	7adb      	ldrb	r3, [r3, #11]
 80019b4:	e010      	b.n	80019d8 <Fault_Management+0x678>
 80019b6:	bf00      	nop
 80019b8:	20000c8c 	.word	0x20000c8c
 80019bc:	20000c8f 	.word	0x20000c8f
 80019c0:	20000c86 	.word	0x20000c86
 80019c4:	20000c88 	.word	0x20000c88
 80019c8:	20000e24 	.word	0x20000e24
 80019cc:	20000c9c 	.word	0x20000c9c
 80019d0:	20000504 	.word	0x20000504
 80019d4:	2000000c 	.word	0x2000000c
 80019d8:	429a      	cmp	r2, r3
 80019da:	d01f      	beq.n	8001a1c <Fault_Management+0x6bc>
	{
		/* Update Prev_System_status */
		Prev_Sys_Status.DIMC_CBIT_Failure_Desc = g_SysStatus.DIMC_CBIT_Failure_Desc;
 80019dc:	4bad      	ldr	r3, [pc, #692]	; (8001c94 <Fault_Management+0x934>)
 80019de:	7ada      	ldrb	r2, [r3, #11]
 80019e0:	4bad      	ldr	r3, [pc, #692]	; (8001c98 <Fault_Management+0x938>)
 80019e2:	72da      	strb	r2, [r3, #11]

		/* Write CBIT fail event to memory */
		Fault_Value = 0xFFU & g_SysStatus.DIMC_CBIT_Failure_Desc;
 80019e4:	4bab      	ldr	r3, [pc, #684]	; (8001c94 <Fault_Management+0x934>)
 80019e6:	7adb      	ldrb	r3, [r3, #11]
 80019e8:	b29a      	uxth	r2, r3
 80019ea:	4bac      	ldr	r3, [pc, #688]	; (8001c9c <Fault_Management+0x93c>)
 80019ec:	801a      	strh	r2, [r3, #0]
		logger_errors |= Write_Event_To_Memory(E_FAULT,E_FC_DIMC_CBIT_FAILED, Fault_Value, E_UNIT_TYPE_DIMC, DIMC_ID,Spare);
 80019ee:	4bab      	ldr	r3, [pc, #684]	; (8001c9c <Fault_Management+0x93c>)
 80019f0:	881a      	ldrh	r2, [r3, #0]
 80019f2:	4bab      	ldr	r3, [pc, #684]	; (8001ca0 <Fault_Management+0x940>)
 80019f4:	9301      	str	r3, [sp, #4]
 80019f6:	2301      	movs	r3, #1
 80019f8:	9300      	str	r3, [sp, #0]
 80019fa:	2302      	movs	r3, #2
 80019fc:	f242 0104 	movw	r1, #8196	; 0x2004
 8001a00:	2002      	movs	r0, #2
 8001a02:	f002 fab5 	bl	8003f70 <Write_Event_To_Memory>
 8001a06:	4603      	mov	r3, r0
 8001a08:	461a      	mov	r2, r3
 8001a0a:	7bfb      	ldrb	r3, [r7, #15]
 8001a0c:	4313      	orrs	r3, r2
 8001a0e:	73fb      	strb	r3, [r7, #15]
		Fault_Value = 0x00U;
 8001a10:	4ba2      	ldr	r3, [pc, #648]	; (8001c9c <Fault_Management+0x93c>)
 8001a12:	2200      	movs	r2, #0
 8001a14:	801a      	strh	r2, [r3, #0]

		/* Set CBIT fail */
		g_SysStatus.DIMC_CBIT_Status = TEST_FL;
 8001a16:	4b9f      	ldr	r3, [pc, #636]	; (8001c94 <Fault_Management+0x934>)
 8001a18:	2201      	movs	r2, #1
 8001a1a:	725a      	strb	r2, [r3, #9]
	}

	/* DIMC SW errors */
	if ((TRUE == g_SysStatus.SW_Erros) && (FALSE == Prev_Sys_Status.SW_Erros))
 8001a1c:	4b9d      	ldr	r3, [pc, #628]	; (8001c94 <Fault_Management+0x934>)
 8001a1e:	f893 34c9 	ldrb.w	r3, [r3, #1225]	; 0x4c9
 8001a22:	2b01      	cmp	r3, #1
 8001a24:	d128      	bne.n	8001a78 <Fault_Management+0x718>
 8001a26:	4b9c      	ldr	r3, [pc, #624]	; (8001c98 <Fault_Management+0x938>)
 8001a28:	f893 34c9 	ldrb.w	r3, [r3, #1225]	; 0x4c9
 8001a2c:	2b00      	cmp	r3, #0
 8001a2e:	d123      	bne.n	8001a78 <Fault_Management+0x718>
	{
		/* Update Prev_System_status */
		Prev_Sys_Status.SW_Erros = TRUE;
 8001a30:	4b99      	ldr	r3, [pc, #612]	; (8001c98 <Fault_Management+0x938>)
 8001a32:	2201      	movs	r2, #1
 8001a34:	f883 24c9 	strb.w	r2, [r3, #1225]	; 0x4c9

		/* Set channel B (1&2) to '1' */
		Fault_Channel_OUT_Control(E_FLT_CH_B_OUT, E_FLT_CH_FAULT);
 8001a38:	2101      	movs	r1, #1
 8001a3a:	2002      	movs	r0, #2
 8001a3c:	f001 fa28 	bl	8002e90 <Fault_Channel_OUT_Control>
		FLT_CH_Turn_On[E_FLT_CH_B_OUT] = TRUE;
 8001a40:	4b98      	ldr	r3, [pc, #608]	; (8001ca4 <Fault_Management+0x944>)
 8001a42:	2201      	movs	r2, #1
 8001a44:	709a      	strb	r2, [r3, #2]

		/* Set flt activation */
		Flt_Ch_Activate = TRUE;
 8001a46:	4b98      	ldr	r3, [pc, #608]	; (8001ca8 <Fault_Management+0x948>)
 8001a48:	2201      	movs	r2, #1
 8001a4a:	701a      	strb	r2, [r3, #0]

		/* Write to logger */
		Fault_Value = 0x00U;
 8001a4c:	4b93      	ldr	r3, [pc, #588]	; (8001c9c <Fault_Management+0x93c>)
 8001a4e:	2200      	movs	r2, #0
 8001a50:	801a      	strh	r2, [r3, #0]
		logger_errors |= Write_Event_To_Memory(E_FAULT,E_FC_DIMC_SW_ERROR, Fault_Value, E_UNIT_TYPE_DIMC, DIMC_ID,Spare);
 8001a52:	4b92      	ldr	r3, [pc, #584]	; (8001c9c <Fault_Management+0x93c>)
 8001a54:	881a      	ldrh	r2, [r3, #0]
 8001a56:	4b92      	ldr	r3, [pc, #584]	; (8001ca0 <Fault_Management+0x940>)
 8001a58:	9301      	str	r3, [sp, #4]
 8001a5a:	2301      	movs	r3, #1
 8001a5c:	9300      	str	r3, [sp, #0]
 8001a5e:	2302      	movs	r3, #2
 8001a60:	f242 010c 	movw	r1, #8204	; 0x200c
 8001a64:	2002      	movs	r0, #2
 8001a66:	f002 fa83 	bl	8003f70 <Write_Event_To_Memory>
 8001a6a:	4603      	mov	r3, r0
 8001a6c:	461a      	mov	r2, r3
 8001a6e:	7bfb      	ldrb	r3, [r7, #15]
 8001a70:	4313      	orrs	r3, r2
 8001a72:	73fb      	strb	r3, [r7, #15]

		/* Enter safe mode */
		enter_safe_mode();
 8001a74:	f000 fe32 	bl	80026dc <enter_safe_mode>
	}

	/* Handle CTRYs faults */
	for (uint8_t ctry_id = 0U; ctry_id < CTRY_MAX_NUM ; ctry_id++)
 8001a78:	2300      	movs	r3, #0
 8001a7a:	737b      	strb	r3, [r7, #13]
 8001a7c:	e03c      	b.n	8001af8 <Fault_Management+0x798>
	{
		/* Monitor CTRYs report of abnormal actuator activation */
		if ((TRUE == g_SysStatus.CTRY_Status[ctry_id].Abnormal_Actuator_Report) && (FALSE == Prev_Sys_Status.CTRY_Status[ctry_id].Abnormal_Actuator_Report))
 8001a7e:	7b7a      	ldrb	r2, [r7, #13]
 8001a80:	4984      	ldr	r1, [pc, #528]	; (8001c94 <Fault_Management+0x934>)
 8001a82:	4613      	mov	r3, r2
 8001a84:	00db      	lsls	r3, r3, #3
 8001a86:	1a9b      	subs	r3, r3, r2
 8001a88:	00db      	lsls	r3, r3, #3
 8001a8a:	440b      	add	r3, r1
 8001a8c:	3374      	adds	r3, #116	; 0x74
 8001a8e:	781b      	ldrb	r3, [r3, #0]
 8001a90:	2b01      	cmp	r3, #1
 8001a92:	d12a      	bne.n	8001aea <Fault_Management+0x78a>
 8001a94:	7b7a      	ldrb	r2, [r7, #13]
 8001a96:	4980      	ldr	r1, [pc, #512]	; (8001c98 <Fault_Management+0x938>)
 8001a98:	4613      	mov	r3, r2
 8001a9a:	00db      	lsls	r3, r3, #3
 8001a9c:	1a9b      	subs	r3, r3, r2
 8001a9e:	00db      	lsls	r3, r3, #3
 8001aa0:	440b      	add	r3, r1
 8001aa2:	3374      	adds	r3, #116	; 0x74
 8001aa4:	781b      	ldrb	r3, [r3, #0]
 8001aa6:	2b00      	cmp	r3, #0
 8001aa8:	d11f      	bne.n	8001aea <Fault_Management+0x78a>
		{
			/* Update Prev_System_status */
			Prev_Sys_Status.CTRY_Status[ctry_id].Abnormal_Actuator_Report = TRUE;
 8001aaa:	7b7a      	ldrb	r2, [r7, #13]
 8001aac:	497a      	ldr	r1, [pc, #488]	; (8001c98 <Fault_Management+0x938>)
 8001aae:	4613      	mov	r3, r2
 8001ab0:	00db      	lsls	r3, r3, #3
 8001ab2:	1a9b      	subs	r3, r3, r2
 8001ab4:	00db      	lsls	r3, r3, #3
 8001ab6:	440b      	add	r3, r1
 8001ab8:	3374      	adds	r3, #116	; 0x74
 8001aba:	2201      	movs	r2, #1
 8001abc:	701a      	strb	r2, [r3, #0]

			/* Increment the counter of CTRYs that report abnormal actuator activation */
			Number_Abnormal_Act_report++;
 8001abe:	4b7b      	ldr	r3, [pc, #492]	; (8001cac <Fault_Management+0x94c>)
 8001ac0:	781b      	ldrb	r3, [r3, #0]
 8001ac2:	3301      	adds	r3, #1
 8001ac4:	b2da      	uxtb	r2, r3
 8001ac6:	4b79      	ldr	r3, [pc, #484]	; (8001cac <Fault_Management+0x94c>)
 8001ac8:	701a      	strb	r2, [r3, #0]

			/* Write Event to the Memory */
			logger_errors |= Write_Event_To_Memory(E_FAULT,E_FC_ABNORAML_ACTUATORS_ACTIVATION, 0x00U, E_UNIT_TYPE_CTRY, ctry_id,Spare);
 8001aca:	4b75      	ldr	r3, [pc, #468]	; (8001ca0 <Fault_Management+0x940>)
 8001acc:	9301      	str	r3, [sp, #4]
 8001ace:	7b7b      	ldrb	r3, [r7, #13]
 8001ad0:	9300      	str	r3, [sp, #0]
 8001ad2:	2304      	movs	r3, #4
 8001ad4:	2200      	movs	r2, #0
 8001ad6:	f242 010b 	movw	r1, #8203	; 0x200b
 8001ada:	2002      	movs	r0, #2
 8001adc:	f002 fa48 	bl	8003f70 <Write_Event_To_Memory>
 8001ae0:	4603      	mov	r3, r0
 8001ae2:	461a      	mov	r2, r3
 8001ae4:	7bfb      	ldrb	r3, [r7, #15]
 8001ae6:	4313      	orrs	r3, r2
 8001ae8:	73fb      	strb	r3, [r7, #15]
		}

		/* Handle CTRY internal faults */
		ctry_fault_mang(ctry_id);
 8001aea:	7b7b      	ldrb	r3, [r7, #13]
 8001aec:	4618      	mov	r0, r3
 8001aee:	f000 f8e7 	bl	8001cc0 <ctry_fault_mang>
	for (uint8_t ctry_id = 0U; ctry_id < CTRY_MAX_NUM ; ctry_id++)
 8001af2:	7b7b      	ldrb	r3, [r7, #13]
 8001af4:	3301      	adds	r3, #1
 8001af6:	737b      	strb	r3, [r7, #13]
 8001af8:	7b7b      	ldrb	r3, [r7, #13]
 8001afa:	2b13      	cmp	r3, #19
 8001afc:	d9bf      	bls.n	8001a7e <Fault_Management+0x71e>
	}

	/* Handle Abnormal Actuator Activation Fault */
	if ((2U <= Number_Abnormal_Act_report) && (FALSE == Abnormal_Act_Activation_FLT_Detected))
 8001afe:	4b6b      	ldr	r3, [pc, #428]	; (8001cac <Fault_Management+0x94c>)
 8001b00:	781b      	ldrb	r3, [r3, #0]
 8001b02:	2b01      	cmp	r3, #1
 8001b04:	d926      	bls.n	8001b54 <Fault_Management+0x7f4>
 8001b06:	4b6a      	ldr	r3, [pc, #424]	; (8001cb0 <Fault_Management+0x950>)
 8001b08:	781b      	ldrb	r3, [r3, #0]
 8001b0a:	2b00      	cmp	r3, #0
 8001b0c:	d122      	bne.n	8001b54 <Fault_Management+0x7f4>
	{
		/* Update detection state */
		Abnormal_Act_Activation_FLT_Detected = TRUE;
 8001b0e:	4b68      	ldr	r3, [pc, #416]	; (8001cb0 <Fault_Management+0x950>)
 8001b10:	2201      	movs	r2, #1
 8001b12:	701a      	strb	r2, [r3, #0]

		/* Set channel B (1&2) to '1' */
		Fault_Channel_OUT_Control(E_FLT_CH_B_OUT, E_FLT_CH_FAULT);
 8001b14:	2101      	movs	r1, #1
 8001b16:	2002      	movs	r0, #2
 8001b18:	f001 f9ba 	bl	8002e90 <Fault_Channel_OUT_Control>
		FLT_CH_Turn_On[E_FLT_CH_B_OUT] = TRUE;
 8001b1c:	4b61      	ldr	r3, [pc, #388]	; (8001ca4 <Fault_Management+0x944>)
 8001b1e:	2201      	movs	r2, #1
 8001b20:	709a      	strb	r2, [r3, #2]

		/* Set flt activation */
		Flt_Ch_Activate = TRUE;
 8001b22:	4b61      	ldr	r3, [pc, #388]	; (8001ca8 <Fault_Management+0x948>)
 8001b24:	2201      	movs	r2, #1
 8001b26:	701a      	strb	r2, [r3, #0]

		/* Write Abnormal Actuator Activation Sequence event to memory */
		Fault_Value = 0x00U;
 8001b28:	4b5c      	ldr	r3, [pc, #368]	; (8001c9c <Fault_Management+0x93c>)
 8001b2a:	2200      	movs	r2, #0
 8001b2c:	801a      	strh	r2, [r3, #0]
		logger_errors |= Write_Event_To_Memory(E_FAULT,E_FC_ABNORAML_ACTUATORS_ACTIVATION, Fault_Value, E_UNIT_TYPE_DIMC, DIMC_ID,Spare);
 8001b2e:	4b5b      	ldr	r3, [pc, #364]	; (8001c9c <Fault_Management+0x93c>)
 8001b30:	881a      	ldrh	r2, [r3, #0]
 8001b32:	4b5b      	ldr	r3, [pc, #364]	; (8001ca0 <Fault_Management+0x940>)
 8001b34:	9301      	str	r3, [sp, #4]
 8001b36:	2301      	movs	r3, #1
 8001b38:	9300      	str	r3, [sp, #0]
 8001b3a:	2302      	movs	r3, #2
 8001b3c:	f242 010b 	movw	r1, #8203	; 0x200b
 8001b40:	2002      	movs	r0, #2
 8001b42:	f002 fa15 	bl	8003f70 <Write_Event_To_Memory>
 8001b46:	4603      	mov	r3, r0
 8001b48:	461a      	mov	r2, r3
 8001b4a:	7bfb      	ldrb	r3, [r7, #15]
 8001b4c:	4313      	orrs	r3, r2
 8001b4e:	73fb      	strb	r3, [r7, #15]

		/* Enter safe mode */
		enter_safe_mode();
 8001b50:	f000 fdc4 	bl	80026dc <enter_safe_mode>
	}

	/* Send the updated CTRYs status */
	if ((0x00U != Current_FL_Ctrays) && (Current_FL_Ctrays != Prev_FL_Ctrays))
 8001b54:	4b57      	ldr	r3, [pc, #348]	; (8001cb4 <Fault_Management+0x954>)
 8001b56:	681b      	ldr	r3, [r3, #0]
 8001b58:	2b00      	cmp	r3, #0
 8001b5a:	d024      	beq.n	8001ba6 <Fault_Management+0x846>
 8001b5c:	4b55      	ldr	r3, [pc, #340]	; (8001cb4 <Fault_Management+0x954>)
 8001b5e:	681a      	ldr	r2, [r3, #0]
 8001b60:	4b55      	ldr	r3, [pc, #340]	; (8001cb8 <Fault_Management+0x958>)
 8001b62:	681b      	ldr	r3, [r3, #0]
 8001b64:	429a      	cmp	r2, r3
 8001b66:	d01e      	beq.n	8001ba6 <Fault_Management+0x846>
	{
		Prev_FL_Ctrays = Current_FL_Ctrays;
 8001b68:	4b52      	ldr	r3, [pc, #328]	; (8001cb4 <Fault_Management+0x954>)
 8001b6a:	681b      	ldr	r3, [r3, #0]
 8001b6c:	4a52      	ldr	r2, [pc, #328]	; (8001cb8 <Fault_Management+0x958>)
 8001b6e:	6013      	str	r3, [r2, #0]
		data_buf[0U] = (uint8_t)((Current_FL_Ctrays >> 16U) & 0xFFU);
 8001b70:	4b50      	ldr	r3, [pc, #320]	; (8001cb4 <Fault_Management+0x954>)
 8001b72:	681b      	ldr	r3, [r3, #0]
 8001b74:	0c1b      	lsrs	r3, r3, #16
 8001b76:	b2db      	uxtb	r3, r3
 8001b78:	713b      	strb	r3, [r7, #4]
		data_buf[1U] = (uint8_t)((Current_FL_Ctrays >> 8U) & 0xFFU);
 8001b7a:	4b4e      	ldr	r3, [pc, #312]	; (8001cb4 <Fault_Management+0x954>)
 8001b7c:	681b      	ldr	r3, [r3, #0]
 8001b7e:	0a1b      	lsrs	r3, r3, #8
 8001b80:	b2db      	uxtb	r3, r3
 8001b82:	717b      	strb	r3, [r7, #5]
		data_buf[2U] = (uint8_t)(Current_FL_Ctrays & 0xFFU);
 8001b84:	4b4b      	ldr	r3, [pc, #300]	; (8001cb4 <Fault_Management+0x954>)
 8001b86:	681b      	ldr	r3, [r3, #0]
 8001b88:	b2db      	uxtb	r3, r3
 8001b8a:	71bb      	strb	r3, [r7, #6]

		CAN_Message_Transmit(ID_CTRYS_STATUS_UPDATE_REQ, CAN_BROADCAST_ADDR, data_buf);
 8001b8c:	1d3b      	adds	r3, r7, #4
 8001b8e:	461a      	mov	r2, r3
 8001b90:	2100      	movs	r1, #0
 8001b92:	2004      	movs	r0, #4
 8001b94:	f7fe fe62 	bl	800085c <CAN_Message_Transmit>

		/* Enter SAFE mode if all CTRY are reported as 'FL' */
		if(ALL_CTRYS_FL == Current_FL_Ctrays)
 8001b98:	4b46      	ldr	r3, [pc, #280]	; (8001cb4 <Fault_Management+0x954>)
 8001b9a:	681b      	ldr	r3, [r3, #0]
 8001b9c:	4a47      	ldr	r2, [pc, #284]	; (8001cbc <Fault_Management+0x95c>)
 8001b9e:	4293      	cmp	r3, r2
 8001ba0:	d101      	bne.n	8001ba6 <Fault_Management+0x846>
		{
			enter_safe_mode();
 8001ba2:	f000 fd9b 	bl	80026dc <enter_safe_mode>
		}
	}

	/* Verify FLT channels activation by monitor the sens channels */
	if (TRUE == Flt_Ch_Activate)
 8001ba6:	4b40      	ldr	r3, [pc, #256]	; (8001ca8 <Fault_Management+0x948>)
 8001ba8:	781b      	ldrb	r3, [r3, #0]
 8001baa:	2b01      	cmp	r3, #1
 8001bac:	d164      	bne.n	8001c78 <Fault_Management+0x918>
	{
		/* Reset FLT_Ch_Activate flag */
		Flt_Ch_Activate = FALSE;
 8001bae:	4b3e      	ldr	r3, [pc, #248]	; (8001ca8 <Fault_Management+0x948>)
 8001bb0:	2200      	movs	r2, #0
 8001bb2:	701a      	strb	r2, [r3, #0]

		/* Wait for the signal to stabilized */
		HAL_Delay(WAIT_SEN_MILLIS);
 8001bb4:	2005      	movs	r0, #5
 8001bb6:	f008 f9d3 	bl	8009f60 <HAL_Delay>

		/* Read sens channels */
		sens_state = Read_FLT_Sense_Inputs();
 8001bba:	f001 f951 	bl	8002e60 <Read_FLT_Sense_Inputs>
 8001bbe:	4603      	mov	r3, r0
 8001bc0:	733b      	strb	r3, [r7, #12]

		/* Reset logger fault value */
		Fault_Value = 0U;
 8001bc2:	4b36      	ldr	r3, [pc, #216]	; (8001c9c <Fault_Management+0x93c>)
 8001bc4:	2200      	movs	r2, #0
 8001bc6:	801a      	strh	r2, [r3, #0]

		/* Channel A */
		if((TRUE == FLT_CH_Turn_On[E_FLT_CH_A_OUT]) && (0U != (sens_state & 0x01U)))
 8001bc8:	4b36      	ldr	r3, [pc, #216]	; (8001ca4 <Fault_Management+0x944>)
 8001bca:	781b      	ldrb	r3, [r3, #0]
 8001bcc:	2b01      	cmp	r3, #1
 8001bce:	d117      	bne.n	8001c00 <Fault_Management+0x8a0>
 8001bd0:	7b3b      	ldrb	r3, [r7, #12]
 8001bd2:	f003 0301 	and.w	r3, r3, #1
 8001bd6:	2b00      	cmp	r3, #0
 8001bd8:	d012      	beq.n	8001c00 <Fault_Management+0x8a0>
		{
			/* Write failure to logger */
			logger_errors |= Write_Event_To_Memory(E_FAULT,E_FC_CHANNEL_A_SENS_FAULT_REPORT,Fault_Value,E_UNIT_TYPE_DIMC,DIMC_ID, Spare);
 8001bda:	4b30      	ldr	r3, [pc, #192]	; (8001c9c <Fault_Management+0x93c>)
 8001bdc:	881a      	ldrh	r2, [r3, #0]
 8001bde:	4b30      	ldr	r3, [pc, #192]	; (8001ca0 <Fault_Management+0x940>)
 8001be0:	9301      	str	r3, [sp, #4]
 8001be2:	2301      	movs	r3, #1
 8001be4:	9300      	str	r3, [sp, #0]
 8001be6:	2302      	movs	r3, #2
 8001be8:	f241 0117 	movw	r1, #4119	; 0x1017
 8001bec:	2002      	movs	r0, #2
 8001bee:	f002 f9bf 	bl	8003f70 <Write_Event_To_Memory>
 8001bf2:	4603      	mov	r3, r0
 8001bf4:	461a      	mov	r2, r3
 8001bf6:	7bfb      	ldrb	r3, [r7, #15]
 8001bf8:	4313      	orrs	r3, r2
 8001bfa:	73fb      	strb	r3, [r7, #15]

			/* Enter safe mode */
			enter_safe_mode();
 8001bfc:	f000 fd6e 	bl	80026dc <enter_safe_mode>
		}

		/* Channel B */
		if((TRUE == FLT_CH_Turn_On[E_FLT_CH_B_OUT]) && (0U != ((sens_state >> 1U) & 0x01U)))
 8001c00:	4b28      	ldr	r3, [pc, #160]	; (8001ca4 <Fault_Management+0x944>)
 8001c02:	789b      	ldrb	r3, [r3, #2]
 8001c04:	2b01      	cmp	r3, #1
 8001c06:	d119      	bne.n	8001c3c <Fault_Management+0x8dc>
 8001c08:	7b3b      	ldrb	r3, [r7, #12]
 8001c0a:	085b      	lsrs	r3, r3, #1
 8001c0c:	b2db      	uxtb	r3, r3
 8001c0e:	f003 0301 	and.w	r3, r3, #1
 8001c12:	2b00      	cmp	r3, #0
 8001c14:	d012      	beq.n	8001c3c <Fault_Management+0x8dc>
		{
			/* Write failure to logger */
			logger_errors |= Write_Event_To_Memory(E_FAULT,E_FC_CHANNEL_B_SENS_FAULT_REPORT,Fault_Value,E_UNIT_TYPE_DIMC,DIMC_ID, Spare);
 8001c16:	4b21      	ldr	r3, [pc, #132]	; (8001c9c <Fault_Management+0x93c>)
 8001c18:	881a      	ldrh	r2, [r3, #0]
 8001c1a:	4b21      	ldr	r3, [pc, #132]	; (8001ca0 <Fault_Management+0x940>)
 8001c1c:	9301      	str	r3, [sp, #4]
 8001c1e:	2301      	movs	r3, #1
 8001c20:	9300      	str	r3, [sp, #0]
 8001c22:	2302      	movs	r3, #2
 8001c24:	f241 0118 	movw	r1, #4120	; 0x1018
 8001c28:	2002      	movs	r0, #2
 8001c2a:	f002 f9a1 	bl	8003f70 <Write_Event_To_Memory>
 8001c2e:	4603      	mov	r3, r0
 8001c30:	461a      	mov	r2, r3
 8001c32:	7bfb      	ldrb	r3, [r7, #15]
 8001c34:	4313      	orrs	r3, r2
 8001c36:	73fb      	strb	r3, [r7, #15]

			/* Enter safe mode */
			enter_safe_mode();
 8001c38:	f000 fd50 	bl	80026dc <enter_safe_mode>
		}

		/* Channel C */
		if((TRUE == FLT_CH_Turn_On[E_FLT_CH_C_OUT]) && (0U != ((sens_state >> 2U) & 0x01U)))
 8001c3c:	4b19      	ldr	r3, [pc, #100]	; (8001ca4 <Fault_Management+0x944>)
 8001c3e:	785b      	ldrb	r3, [r3, #1]
 8001c40:	2b01      	cmp	r3, #1
 8001c42:	d119      	bne.n	8001c78 <Fault_Management+0x918>
 8001c44:	7b3b      	ldrb	r3, [r7, #12]
 8001c46:	089b      	lsrs	r3, r3, #2
 8001c48:	b2db      	uxtb	r3, r3
 8001c4a:	f003 0301 	and.w	r3, r3, #1
 8001c4e:	2b00      	cmp	r3, #0
 8001c50:	d012      	beq.n	8001c78 <Fault_Management+0x918>
		{
			/* Write failure to logger */
			logger_errors |= Write_Event_To_Memory(E_FAULT,E_FC_CHANNEL_C_SENS_FAULT_REPORT,Fault_Value,E_UNIT_TYPE_DIMC,DIMC_ID, Spare);
 8001c52:	4b12      	ldr	r3, [pc, #72]	; (8001c9c <Fault_Management+0x93c>)
 8001c54:	881a      	ldrh	r2, [r3, #0]
 8001c56:	4b12      	ldr	r3, [pc, #72]	; (8001ca0 <Fault_Management+0x940>)
 8001c58:	9301      	str	r3, [sp, #4]
 8001c5a:	2301      	movs	r3, #1
 8001c5c:	9300      	str	r3, [sp, #0]
 8001c5e:	2302      	movs	r3, #2
 8001c60:	f241 0119 	movw	r1, #4121	; 0x1019
 8001c64:	2002      	movs	r0, #2
 8001c66:	f002 f983 	bl	8003f70 <Write_Event_To_Memory>
 8001c6a:	4603      	mov	r3, r0
 8001c6c:	461a      	mov	r2, r3
 8001c6e:	7bfb      	ldrb	r3, [r7, #15]
 8001c70:	4313      	orrs	r3, r2
 8001c72:	73fb      	strb	r3, [r7, #15]

			/* Enter safe mode */
			enter_safe_mode();
 8001c74:	f000 fd32 	bl	80026dc <enter_safe_mode>
		}
	}

	g_SysStatus.Logger_FL |= logger_errors;
 8001c78:	4b06      	ldr	r3, [pc, #24]	; (8001c94 <Fault_Management+0x934>)
 8001c7a:	f893 24c8 	ldrb.w	r2, [r3, #1224]	; 0x4c8
 8001c7e:	7bfb      	ldrb	r3, [r7, #15]
 8001c80:	4313      	orrs	r3, r2
 8001c82:	b2da      	uxtb	r2, r3
 8001c84:	4b03      	ldr	r3, [pc, #12]	; (8001c94 <Fault_Management+0x934>)
 8001c86:	f883 24c8 	strb.w	r2, [r3, #1224]	; 0x4c8
}
 8001c8a:	bf00      	nop
 8001c8c:	3710      	adds	r7, #16
 8001c8e:	46bd      	mov	sp, r7
 8001c90:	bd80      	pop	{r7, pc}
 8001c92:	bf00      	nop
 8001c94:	20000504 	.word	0x20000504
 8001c98:	2000000c 	.word	0x2000000c
 8001c9c:	20000c86 	.word	0x20000c86
 8001ca0:	20000c88 	.word	0x20000c88
 8001ca4:	20000c8c 	.word	0x20000c8c
 8001ca8:	20000c8f 	.word	0x20000c8f
 8001cac:	20000c84 	.word	0x20000c84
 8001cb0:	20000c98 	.word	0x20000c98
 8001cb4:	20000c90 	.word	0x20000c90
 8001cb8:	20000c94 	.word	0x20000c94
 8001cbc:	000fffff 	.word	0x000fffff

08001cc0 <ctry_fault_mang>:
** Params:  uint8_t ctry_id	-	The ctry id.
** Returns: None.
** Notes:
*************************************************************************************/
static void ctry_fault_mang(uint8_t ctry_id)
{
 8001cc0:	b580      	push	{r7, lr}
 8001cc2:	b088      	sub	sp, #32
 8001cc4:	af02      	add	r7, sp, #8
 8001cc6:	4603      	mov	r3, r0
 8001cc8:	71fb      	strb	r3, [r7, #7]
	/* Local variables */
	HAL_StatusTypeDef logger_errors = HAL_OK;
 8001cca:	2300      	movs	r3, #0
 8001ccc:	75fb      	strb	r3, [r7, #23]
	HAL_StatusTypeDef sw_errors = HAL_OK;
 8001cce:	2300      	movs	r3, #0
 8001cd0:	75bb      	strb	r3, [r7, #22]
	uint8_t update_ctry_st = FALSE;
 8001cd2:	2300      	movs	r3, #0
 8001cd4:	757b      	strb	r3, [r7, #21]
	uint8_t fl_actuator = 0x00U;
 8001cd6:	2300      	movs	r3, #0
 8001cd8:	74fb      	strb	r3, [r7, #19]
	uint8_t fl_actuator_id = 0x00U;
 8001cda:	2300      	movs	r3, #0
 8001cdc:	74bb      	strb	r3, [r7, #18]
	uint8_t all_act_St = 0x00U;
 8001cde:	2300      	movs	r3, #0
 8001ce0:	73fb      	strb	r3, [r7, #15]
	uint8_t equipped_actuators = 0x00U;
 8001ce2:	2300      	movs	r3, #0
 8001ce4:	73bb      	strb	r3, [r7, #14]
	uint8_t current_act_st = 0x00U;
 8001ce6:	2300      	movs	r3, #0
 8001ce8:	747b      	strb	r3, [r7, #17]
	uint8_t fl_act = 0x00U;
 8001cea:	2300      	movs	r3, #0
 8001cec:	743b      	strb	r3, [r7, #16]
	e_DIAC_Num diac_ch = 0x00U;
 8001cee:	2300      	movs	r3, #0
 8001cf0:	737b      	strb	r3, [r7, #13]

	if (ctry_id < CTRY_MAX_NUM)
 8001cf2:	79fb      	ldrb	r3, [r7, #7]
 8001cf4:	2b13      	cmp	r3, #19
 8001cf6:	f200 84de 	bhi.w	80026b6 <ctry_fault_mang+0x9f6>
	{
		/* Actuator de-activation fail */
		if ((TRUE == g_SysStatus.CTRY_Status[ctry_id].act_de_activation_fl) && (TRUE != Prev_Sys_Status.CTRY_Status[ctry_id].act_de_activation_fl))
 8001cfa:	79fa      	ldrb	r2, [r7, #7]
 8001cfc:	49c8      	ldr	r1, [pc, #800]	; (8002020 <ctry_fault_mang+0x360>)
 8001cfe:	4613      	mov	r3, r2
 8001d00:	00db      	lsls	r3, r3, #3
 8001d02:	1a9b      	subs	r3, r3, r2
 8001d04:	00db      	lsls	r3, r3, #3
 8001d06:	440b      	add	r3, r1
 8001d08:	3391      	adds	r3, #145	; 0x91
 8001d0a:	781b      	ldrb	r3, [r3, #0]
 8001d0c:	2b01      	cmp	r3, #1
 8001d0e:	d14e      	bne.n	8001dae <ctry_fault_mang+0xee>
 8001d10:	79fa      	ldrb	r2, [r7, #7]
 8001d12:	49c4      	ldr	r1, [pc, #784]	; (8002024 <ctry_fault_mang+0x364>)
 8001d14:	4613      	mov	r3, r2
 8001d16:	00db      	lsls	r3, r3, #3
 8001d18:	1a9b      	subs	r3, r3, r2
 8001d1a:	00db      	lsls	r3, r3, #3
 8001d1c:	440b      	add	r3, r1
 8001d1e:	3391      	adds	r3, #145	; 0x91
 8001d20:	781b      	ldrb	r3, [r3, #0]
 8001d22:	2b01      	cmp	r3, #1
 8001d24:	d043      	beq.n	8001dae <ctry_fault_mang+0xee>
		{
			/* Update Prev_System_status */
			Prev_Sys_Status.CTRY_Status[ctry_id].act_de_activation_fl = TRUE;
 8001d26:	79fa      	ldrb	r2, [r7, #7]
 8001d28:	49be      	ldr	r1, [pc, #760]	; (8002024 <ctry_fault_mang+0x364>)
 8001d2a:	4613      	mov	r3, r2
 8001d2c:	00db      	lsls	r3, r3, #3
 8001d2e:	1a9b      	subs	r3, r3, r2
 8001d30:	00db      	lsls	r3, r3, #3
 8001d32:	440b      	add	r3, r1
 8001d34:	3391      	adds	r3, #145	; 0x91
 8001d36:	2201      	movs	r2, #1
 8001d38:	701a      	strb	r2, [r3, #0]

			/* Set channel B (1&2) to '1' */
			Fault_Channel_OUT_Control(E_FLT_CH_B_OUT, E_FLT_CH_FAULT);
 8001d3a:	2101      	movs	r1, #1
 8001d3c:	2002      	movs	r0, #2
 8001d3e:	f001 f8a7 	bl	8002e90 <Fault_Channel_OUT_Control>
			FLT_CH_Turn_On[E_FLT_CH_B_OUT] = TRUE;
 8001d42:	4bb9      	ldr	r3, [pc, #740]	; (8002028 <ctry_fault_mang+0x368>)
 8001d44:	2201      	movs	r2, #1
 8001d46:	709a      	strb	r2, [r3, #2]

			/* Set flt activation */
			Flt_Ch_Activate = TRUE;
 8001d48:	4bb8      	ldr	r3, [pc, #736]	; (800202c <ctry_fault_mang+0x36c>)
 8001d4a:	2201      	movs	r2, #1
 8001d4c:	701a      	strb	r2, [r3, #0]

			/* Set the DIAC control signal responsible for the failed CTRY to '0' */
			sw_errors |= Get_CTRY_DIAC_Ch(ctry_id,&diac_ch);
 8001d4e:	f107 020d 	add.w	r2, r7, #13
 8001d52:	79fb      	ldrb	r3, [r7, #7]
 8001d54:	4611      	mov	r1, r2
 8001d56:	4618      	mov	r0, r3
 8001d58:	f005 fb82 	bl	8007460 <Get_CTRY_DIAC_Ch>
 8001d5c:	4603      	mov	r3, r0
 8001d5e:	461a      	mov	r2, r3
 8001d60:	7dbb      	ldrb	r3, [r7, #22]
 8001d62:	4313      	orrs	r3, r2
 8001d64:	75bb      	strb	r3, [r7, #22]
			Diac_Control(diac_ch, E_DIAC_OFF);
 8001d66:	7b7b      	ldrb	r3, [r7, #13]
 8001d68:	2100      	movs	r1, #0
 8001d6a:	4618      	mov	r0, r3
 8001d6c:	f7fe ff7a 	bl	8000c64 <Diac_Control>

			/* Enter safe mode */
			enter_safe_mode();
 8001d70:	f000 fcb4 	bl	80026dc <enter_safe_mode>

			/* Update CTRY's status to 'FL' */
			update_ctry_st = TRUE;
 8001d74:	2301      	movs	r3, #1
 8001d76:	757b      	strb	r3, [r7, #21]

			/* Write Event to the Memory */
			fl_actuator_id = g_SysStatus.CTRY_Status[ctry_id].fl_act_id;
 8001d78:	79fa      	ldrb	r2, [r7, #7]
 8001d7a:	49a9      	ldr	r1, [pc, #676]	; (8002020 <ctry_fault_mang+0x360>)
 8001d7c:	4613      	mov	r3, r2
 8001d7e:	00db      	lsls	r3, r3, #3
 8001d80:	1a9b      	subs	r3, r3, r2
 8001d82:	00db      	lsls	r3, r3, #3
 8001d84:	440b      	add	r3, r1
 8001d86:	3392      	adds	r3, #146	; 0x92
 8001d88:	781b      	ldrb	r3, [r3, #0]
 8001d8a:	74bb      	strb	r3, [r7, #18]
			logger_errors |= Write_Event_To_Memory(E_FAULT, E_FC_DE_ACTIVATION_FLT, Fault_Value, E_UNIT_TYPE_ACTUATOR,fl_actuator_id,Spare);
 8001d8c:	4ba8      	ldr	r3, [pc, #672]	; (8002030 <ctry_fault_mang+0x370>)
 8001d8e:	881a      	ldrh	r2, [r3, #0]
 8001d90:	4ba8      	ldr	r3, [pc, #672]	; (8002034 <ctry_fault_mang+0x374>)
 8001d92:	9301      	str	r3, [sp, #4]
 8001d94:	7cbb      	ldrb	r3, [r7, #18]
 8001d96:	9300      	str	r3, [sp, #0]
 8001d98:	2305      	movs	r3, #5
 8001d9a:	f245 0107 	movw	r1, #20487	; 0x5007
 8001d9e:	2002      	movs	r0, #2
 8001da0:	f002 f8e6 	bl	8003f70 <Write_Event_To_Memory>
 8001da4:	4603      	mov	r3, r0
 8001da6:	461a      	mov	r2, r3
 8001da8:	7dfb      	ldrb	r3, [r7, #23]
 8001daa:	4313      	orrs	r3, r2
 8001dac:	75fb      	strb	r3, [r7, #23]
		}

		/* CTRY failed to respond to can bus message request */
		if ((TRUE == g_SysStatus.CTRY_Status[ctry_id].failed_to_resp) && (TRUE != Prev_Sys_Status.CTRY_Status[ctry_id].failed_to_resp))
 8001dae:	79fa      	ldrb	r2, [r7, #7]
 8001db0:	499b      	ldr	r1, [pc, #620]	; (8002020 <ctry_fault_mang+0x360>)
 8001db2:	4613      	mov	r3, r2
 8001db4:	00db      	lsls	r3, r3, #3
 8001db6:	1a9b      	subs	r3, r3, r2
 8001db8:	00db      	lsls	r3, r3, #3
 8001dba:	440b      	add	r3, r1
 8001dbc:	3390      	adds	r3, #144	; 0x90
 8001dbe:	781b      	ldrb	r3, [r3, #0]
 8001dc0:	2b01      	cmp	r3, #1
 8001dc2:	d126      	bne.n	8001e12 <ctry_fault_mang+0x152>
 8001dc4:	79fa      	ldrb	r2, [r7, #7]
 8001dc6:	4997      	ldr	r1, [pc, #604]	; (8002024 <ctry_fault_mang+0x364>)
 8001dc8:	4613      	mov	r3, r2
 8001dca:	00db      	lsls	r3, r3, #3
 8001dcc:	1a9b      	subs	r3, r3, r2
 8001dce:	00db      	lsls	r3, r3, #3
 8001dd0:	440b      	add	r3, r1
 8001dd2:	3390      	adds	r3, #144	; 0x90
 8001dd4:	781b      	ldrb	r3, [r3, #0]
 8001dd6:	2b01      	cmp	r3, #1
 8001dd8:	d01b      	beq.n	8001e12 <ctry_fault_mang+0x152>
		{
			/* Update Prev_System_status */
			Prev_Sys_Status.CTRY_Status[ctry_id].failed_to_resp = TRUE;
 8001dda:	79fa      	ldrb	r2, [r7, #7]
 8001ddc:	4991      	ldr	r1, [pc, #580]	; (8002024 <ctry_fault_mang+0x364>)
 8001dde:	4613      	mov	r3, r2
 8001de0:	00db      	lsls	r3, r3, #3
 8001de2:	1a9b      	subs	r3, r3, r2
 8001de4:	00db      	lsls	r3, r3, #3
 8001de6:	440b      	add	r3, r1
 8001de8:	3390      	adds	r3, #144	; 0x90
 8001dea:	2201      	movs	r2, #1
 8001dec:	701a      	strb	r2, [r3, #0]

			/* Update CTRY's status to 'FL' */
			update_ctry_st = TRUE;
 8001dee:	2301      	movs	r3, #1
 8001df0:	757b      	strb	r3, [r7, #21]

			/* Write Event to the Memory */
			logger_errors |= Write_Event_To_Memory(E_FAULT, E_FC_CTRY_NOT_RESP, 0x00U , E_UNIT_TYPE_CTRY, ctry_id, Spare);
 8001df2:	4b90      	ldr	r3, [pc, #576]	; (8002034 <ctry_fault_mang+0x374>)
 8001df4:	9301      	str	r3, [sp, #4]
 8001df6:	79fb      	ldrb	r3, [r7, #7]
 8001df8:	9300      	str	r3, [sp, #0]
 8001dfa:	2304      	movs	r3, #4
 8001dfc:	2200      	movs	r2, #0
 8001dfe:	f244 0116 	movw	r1, #16406	; 0x4016
 8001e02:	2002      	movs	r0, #2
 8001e04:	f002 f8b4 	bl	8003f70 <Write_Event_To_Memory>
 8001e08:	4603      	mov	r3, r0
 8001e0a:	461a      	mov	r2, r3
 8001e0c:	7dfb      	ldrb	r3, [r7, #23]
 8001e0e:	4313      	orrs	r3, r2
 8001e10:	75fb      	strb	r3, [r7, #23]
		}

		/* CTRY duplicated PBIT response */
		if ((TRUE == g_SysStatus.CTRY_Status[ctry_id].dup_resp_fl) && (FALSE == Prev_Sys_Status.CTRY_Status[ctry_id].dup_resp_fl))
 8001e12:	79fa      	ldrb	r2, [r7, #7]
 8001e14:	4982      	ldr	r1, [pc, #520]	; (8002020 <ctry_fault_mang+0x360>)
 8001e16:	4613      	mov	r3, r2
 8001e18:	00db      	lsls	r3, r3, #3
 8001e1a:	1a9b      	subs	r3, r3, r2
 8001e1c:	00db      	lsls	r3, r3, #3
 8001e1e:	440b      	add	r3, r1
 8001e20:	3394      	adds	r3, #148	; 0x94
 8001e22:	781b      	ldrb	r3, [r3, #0]
 8001e24:	2b01      	cmp	r3, #1
 8001e26:	d130      	bne.n	8001e8a <ctry_fault_mang+0x1ca>
 8001e28:	79fa      	ldrb	r2, [r7, #7]
 8001e2a:	497e      	ldr	r1, [pc, #504]	; (8002024 <ctry_fault_mang+0x364>)
 8001e2c:	4613      	mov	r3, r2
 8001e2e:	00db      	lsls	r3, r3, #3
 8001e30:	1a9b      	subs	r3, r3, r2
 8001e32:	00db      	lsls	r3, r3, #3
 8001e34:	440b      	add	r3, r1
 8001e36:	3394      	adds	r3, #148	; 0x94
 8001e38:	781b      	ldrb	r3, [r3, #0]
 8001e3a:	2b00      	cmp	r3, #0
 8001e3c:	d125      	bne.n	8001e8a <ctry_fault_mang+0x1ca>
		{
			/* Update Prev_System_status */
			Prev_Sys_Status.CTRY_Status[ctry_id].dup_resp_fl = TRUE;
 8001e3e:	79fa      	ldrb	r2, [r7, #7]
 8001e40:	4978      	ldr	r1, [pc, #480]	; (8002024 <ctry_fault_mang+0x364>)
 8001e42:	4613      	mov	r3, r2
 8001e44:	00db      	lsls	r3, r3, #3
 8001e46:	1a9b      	subs	r3, r3, r2
 8001e48:	00db      	lsls	r3, r3, #3
 8001e4a:	440b      	add	r3, r1
 8001e4c:	3394      	adds	r3, #148	; 0x94
 8001e4e:	2201      	movs	r2, #1
 8001e50:	701a      	strb	r2, [r3, #0]

			/* Set channel B (1&2) to '1' */
			Fault_Channel_OUT_Control(E_FLT_CH_B_OUT, E_FLT_CH_FAULT);
 8001e52:	2101      	movs	r1, #1
 8001e54:	2002      	movs	r0, #2
 8001e56:	f001 f81b 	bl	8002e90 <Fault_Channel_OUT_Control>
			FLT_CH_Turn_On[E_FLT_CH_B_OUT] = TRUE;
 8001e5a:	4b73      	ldr	r3, [pc, #460]	; (8002028 <ctry_fault_mang+0x368>)
 8001e5c:	2201      	movs	r2, #1
 8001e5e:	709a      	strb	r2, [r3, #2]

			/* Set flt activation */
			Flt_Ch_Activate = TRUE;
 8001e60:	4b72      	ldr	r3, [pc, #456]	; (800202c <ctry_fault_mang+0x36c>)
 8001e62:	2201      	movs	r2, #1
 8001e64:	701a      	strb	r2, [r3, #0]

			/* Write Event to the Memory */
			logger_errors |= Write_Event_To_Memory(E_FAULT, E_FC_CTRYS_PBIT_DUPLICATE_ST_RESP, 0x00U , E_UNIT_TYPE_CTRY, ctry_id, Spare);
 8001e66:	4b73      	ldr	r3, [pc, #460]	; (8002034 <ctry_fault_mang+0x374>)
 8001e68:	9301      	str	r3, [sp, #4]
 8001e6a:	79fb      	ldrb	r3, [r7, #7]
 8001e6c:	9300      	str	r3, [sp, #0]
 8001e6e:	2304      	movs	r3, #4
 8001e70:	2200      	movs	r2, #0
 8001e72:	f241 0116 	movw	r1, #4118	; 0x1016
 8001e76:	2002      	movs	r0, #2
 8001e78:	f002 f87a 	bl	8003f70 <Write_Event_To_Memory>
 8001e7c:	4603      	mov	r3, r0
 8001e7e:	461a      	mov	r2, r3
 8001e80:	7dfb      	ldrb	r3, [r7, #23]
 8001e82:	4313      	orrs	r3, r2
 8001e84:	75fb      	strb	r3, [r7, #23]

			/* Enter safe mode */
			enter_safe_mode();
 8001e86:	f000 fc29 	bl	80026dc <enter_safe_mode>
		}

		/* CTRY identification test failed */
		if ((TEST_FL == g_SysStatus.CTRY_Status[ctry_id].Ctry_ID_Test_Status) && (TEST_FL != Prev_Sys_Status.CTRY_Status[ctry_id].Ctry_ID_Test_Status))
 8001e8a:	79fa      	ldrb	r2, [r7, #7]
 8001e8c:	4964      	ldr	r1, [pc, #400]	; (8002020 <ctry_fault_mang+0x360>)
 8001e8e:	4613      	mov	r3, r2
 8001e90:	00db      	lsls	r3, r3, #3
 8001e92:	1a9b      	subs	r3, r3, r2
 8001e94:	00db      	lsls	r3, r3, #3
 8001e96:	440b      	add	r3, r1
 8001e98:	3368      	adds	r3, #104	; 0x68
 8001e9a:	781b      	ldrb	r3, [r3, #0]
 8001e9c:	2b01      	cmp	r3, #1
 8001e9e:	d129      	bne.n	8001ef4 <ctry_fault_mang+0x234>
 8001ea0:	79fa      	ldrb	r2, [r7, #7]
 8001ea2:	4960      	ldr	r1, [pc, #384]	; (8002024 <ctry_fault_mang+0x364>)
 8001ea4:	4613      	mov	r3, r2
 8001ea6:	00db      	lsls	r3, r3, #3
 8001ea8:	1a9b      	subs	r3, r3, r2
 8001eaa:	00db      	lsls	r3, r3, #3
 8001eac:	440b      	add	r3, r1
 8001eae:	3368      	adds	r3, #104	; 0x68
 8001eb0:	781b      	ldrb	r3, [r3, #0]
 8001eb2:	2b01      	cmp	r3, #1
 8001eb4:	d01e      	beq.n	8001ef4 <ctry_fault_mang+0x234>
		{
			/* Update Prev_System_status */
			Prev_Sys_Status.CTRY_Status[ctry_id].Ctry_ID_Test_Status = TEST_FL;
 8001eb6:	79fa      	ldrb	r2, [r7, #7]
 8001eb8:	495a      	ldr	r1, [pc, #360]	; (8002024 <ctry_fault_mang+0x364>)
 8001eba:	4613      	mov	r3, r2
 8001ebc:	00db      	lsls	r3, r3, #3
 8001ebe:	1a9b      	subs	r3, r3, r2
 8001ec0:	00db      	lsls	r3, r3, #3
 8001ec2:	440b      	add	r3, r1
 8001ec4:	3368      	adds	r3, #104	; 0x68
 8001ec6:	2201      	movs	r2, #1
 8001ec8:	701a      	strb	r2, [r3, #0]

			/* Write Event to the Memory */
			Fault_Value = 0x00U;
 8001eca:	4b59      	ldr	r3, [pc, #356]	; (8002030 <ctry_fault_mang+0x370>)
 8001ecc:	2200      	movs	r2, #0
 8001ece:	801a      	strh	r2, [r3, #0]
			logger_errors |= Write_Event_To_Memory(E_FAULT, E_FC_CTRY_CAN_BUS_COMM_FAIL, 0x00U , E_UNIT_TYPE_CTRY, ctry_id, Spare);
 8001ed0:	4b58      	ldr	r3, [pc, #352]	; (8002034 <ctry_fault_mang+0x374>)
 8001ed2:	9301      	str	r3, [sp, #4]
 8001ed4:	79fb      	ldrb	r3, [r7, #7]
 8001ed6:	9300      	str	r3, [sp, #0]
 8001ed8:	2304      	movs	r3, #4
 8001eda:	2200      	movs	r2, #0
 8001edc:	f244 0101 	movw	r1, #16385	; 0x4001
 8001ee0:	2002      	movs	r0, #2
 8001ee2:	f002 f845 	bl	8003f70 <Write_Event_To_Memory>
 8001ee6:	4603      	mov	r3, r0
 8001ee8:	461a      	mov	r2, r3
 8001eea:	7dfb      	ldrb	r3, [r7, #23]
 8001eec:	4313      	orrs	r3, r2
 8001eee:	75fb      	strb	r3, [r7, #23]

			/* Enter safe mode */
			enter_safe_mode();
 8001ef0:	f000 fbf4 	bl	80026dc <enter_safe_mode>
		}

		/* CTRY MOTOR OPER test failed */
		if ((TEST_FL == g_SysStatus.CTRY_Status[ctry_id].Ctry_Mot_Oper_In_Test_Status) && (TEST_OK == Prev_Sys_Status.CTRY_Status[ctry_id].Ctry_Mot_Oper_In_Test_Status))
 8001ef4:	79fa      	ldrb	r2, [r7, #7]
 8001ef6:	494a      	ldr	r1, [pc, #296]	; (8002020 <ctry_fault_mang+0x360>)
 8001ef8:	4613      	mov	r3, r2
 8001efa:	00db      	lsls	r3, r3, #3
 8001efc:	1a9b      	subs	r3, r3, r2
 8001efe:	00db      	lsls	r3, r3, #3
 8001f00:	440b      	add	r3, r1
 8001f02:	3369      	adds	r3, #105	; 0x69
 8001f04:	781b      	ldrb	r3, [r3, #0]
