:020000040800F2
:200000000000032029B7000879B7000879B7000879B7000879B7000879B7000800000000BD
:2000200000000000000000000000000079B7000879B700080000000079B7000811AA000855
:2000400079B7000879B7000879B7000879B7000879B7000879B7000879B7000879B70008E0
:2000600079B7000879B7000879B7000879B7000879B7000879B7000879B7000879B70008C0
:2000800079B7000879B7000879B7000879B7000831AA000879B7000879B7000879B70008F5
:2000A00079B7000879B7000879B7000879B7000879B7000879B7000879B7000879B7000880
:2000C00079B7000879B7000879B7000879B7000879B700081DAA000879B7000879B70008C9
:2000E00079B7000879B7000879B7000879B7000879B7000879B7000879B7000879B7000840
:2001000079B7000879B7000879B7000879B7000879B7000879B7000879B7000879B700081F
:2001200079B7000879B7000879B7000879B7000879B7000879B7000879B7000879B70008FF
:2001400079B7000879B7000879B7000879B7000879B7000879B7000879B7000879B70008DF
:2001600079B7000879B7000879B7000879B7000879B7000879B7000879B7000800000000F7
:2001800079B7000879B7000879B7000879B7000879B7000879B7000879B7000879B700089F
:2001A000000000000000000079B70008FFFFFFFF10B5054C237833B9044B13B10448AFF36D
:2001C00000800123237010BDB80B002000000000D4B7000808B5034B1BB103490348AFF395
:2001E000008008BD00000000BC0B0020D4B7000880B483B000AF00237B60544B7B607B68CF
:200200005B6823F440327B685A607B685A68504B5B681A437B685A604D4B1B684C4A1268CD
:20022000526822F480725A60494B1B68484A12685168474A126912020A435A60444B1B682D
:20024000434A1268526822F040725A60404B1B683F4A126851683E4A92680A435A603C4B85
:200260001B683B4A1268926822F400629A60384B1B68374A12689168354AD2680A439A6096
:20028000334B1B68324A1268926822F070629A602F4B1B682E4A1268926822F040529A6008
:2002A0002B4B1B682A4A1268926822F002029A60274B1B68264A12689168254A92695200B9
:2002C0000A439A60224B1B68214A1268526822F400625A601E4B1B681D4A1268D26A22F4F7
:2002E0007002DA621A4B1B68194A1268D16A184AD269013A12050A43DA62154B1B68144A97
:200300001268926822F480629A60114B1B68104A126891680E4A526992020A439A600C4B86
:200320001A680B4B1B6819690A4B0B431361084B1B68074A1268926842F001029A6000BF40
:200340000C37BD465DF8047B704700BF00230140040000204992244980B586B000AF78604B
:20036000396000233B610023FB600023FB757B68022B0ED07B68032B0BD07B68042B08D050
:200380007B68052B05D07B68062B02D07B68082B40D13B68002B3DD0224B1B6800225A63BE
:2003A000204B1B681F4A1268516B7A680A435A631C4B1B686FF002021A601A4B1B68194AB2
:2003C0001268926842F080429A6002F0D5FAF86009E002F0D1FA0246FB68D31A012B02D95D
:2003E0000323FB7506E00F4B1B681B6803F00203022BEED1FB7D002B0ED10A4B1B686FF084
:2004000012021A60074B1B68DB6C3B613B683A691A6001E00123FB75FB7D18461837BD4639
:2004200080BD00BF0400002080B582B000AF00233B600023FB710023BB717A4B00225A6247
:20044000784B012283F82020764B1B68754A1268126822F002021A6002F08EFA386013E06F
:2004600002F08AFA02463B68D31A0A2B0CD96D4B5B6A43F400336B4A53626A4B052283F86C
:2004800020200123FB7106E0664B1B685B6803F00203002BE4D1FB79002B0CD1614B1B682C
:2004A000604A1268126842F001021A60012000F0BBF80346FB71FB79002B60D1594B1B687F
:2004C000584A1268126822F080021A60554B1B68544A1268126822F040021A60514B1B68D6
:2004E000504A1268126822F020021A604D4B1B684C4A1268126842F010021A60494B1B6846
:20050000484A1268126822F008021A60454B1B68444A1268126822F004021A60414B1B6889
:20052000404A91683F4AD26811433E4A126911433C4A526911433B4A5268013A0A43DA6133
:2005400000F0ACF8374B1B68364A1268D26942F08042DA61334B1B68324A1268D26942F03A
:200560000042DA612F4B1B682E4A1268126822F001021A60002000F057F80346FB71FB797E
:20058000002B03D100F01AF90346BB71FB79002B0CD1244B1B68234A1268126842F00102E0
:2005A0001A60012000F040F80346FB71FB79002B1CD11C4B1B681B4A1268D26922F080425F
:2005C000DA61184B1B68174A1268D26922F00042DA61144B1B68134A1268126822F001020D
:2005E0001A60002000F020F80346FB71FB79002B07D10C4B1B680B4A1268526942F0020293
:200600005A61FB79002B02D1BB79002B05D0054B052283F820200123FB71FB7918460837A6
:20062000BD4680BD3400002080B584B000AF78600023BB600023FB737B68012B02D07B68A3
:20064000002B21D102F098F9B86014E002F094F90246BB68D31A0A2B0DD90F4B5B6A43F4A6
:2006600000330D4A53620C4B052283F820200123FB7300BF0AE0084B1B685B6803F0010238
:200680007B689A42E2D101E00123FB73FB7B18461037BD4680BD00BF3400002080B487B09C
:2006A00000AF00237B6100233B610023FB600023BB600E237B60404B1B683F4A1268D2F82A
:2006C000002242F00102C3F800223B4B1B683A4A1268D2F8002222F47C52C3F80022364BB1
:2006E0001B68354A1268D2F800127A6812020A43C3F8002201223B6902FA03F37B612E4B74
:200700001B682D4A1268D2F81C127A69D2430A40C3F81C22284B1B68274A1268D2F80C1269
:200720007A690A43C3F80C22234B1B68FA681104BA6892B211433A69483243F832101E4B7B
:200740001968FB681A04BB689BB21A433B694833DB000B445A60184B1B68174A1268D2F83C
:2007600004127A69D2430A40C3F80422124B1B68114A1268D2F814127A69D2430A40C3F89E
:2007800014220D4B1B680C4A1268D2F81C127A690A43C3F81C22084B1B68074A1268D2F8EC
:2007A000002222F00102C3F8002200BF1C37BD465DF8047B704700BF3400002080B58AB003
:2007C00000AF002387F8273007F1140300221A605A609A60DA60002387F8263007F10C03D9
:2007E00000221A605A60334A3B1D92E8030083E803003B1D194640F2555000F075F80346AF
:20080000002B3FD1012002F0C3F807F10C0207F114031146184600F00DF90346002B2DD19D
:20082000002387F8253018E097F8253007F12802134413F8242C97F8253007F128010B44BD
:2008400013F81C3C9A4203D0012387F8263008E097F82530013387F8253097F82530072BA3
:20086000E2D997F82630012B04D07B6940F2555293420AD0012387F8273006E0012387F8E9
:20088000273002E0012387F8273097F82730012B09D1094B5B6A43F08073074A5362064BA3
:2008A000052283F8202097F8273018462837BD4680BD00BFF0B700083400002080B400AFCE
:2008C000084B002283F82020064B1B68054A1268526922F002025A6100BFBD465DF8047B29
:2008E000704700BF3400002080B485B000AF786039600023FB737B68B3F5006F80F08E809C
:200900003B68002B00F08A80494B93F82030DBB2012B7AD1464B1B689B6803F08063002B84
:200920000DD1434B1B689B6803F00063002B06D13F4B1B689B6803F08053002B5CD03C4BB9
:200940001B689B681B0E03F00303BB60384B19687B685A05BB6818331B010B441A60344BBC
:200960001A68BB6818331B011344043308221A602F4B19683B6807331B781A063B680633D2
:200980001B781B041A433B6805331B781B0213433A68043212781A43BB681B010B4403F522
:2009A000C6731A60224B19683B6803331B781A063B6802331B781B041A433B6801331B78B9
:2009C0001B0213433A6812781A43BB681B010B4403F5C4731A60164B1968154B1A68BB68FD
:2009E00018331B0113441B6843F00102BB6818331B010B441A6013E00D4B5B6A43F40013D3
:200A00000B4A53620123FB730AE0094B5B6A43F48023074A53620123FB7301E00123FB7352
:200A2000FB7B18461437BD465DF8047B704700BF3400002080B485B000AF7860396000234A
:200A4000FB73574B93F82030DBB2012B40F097807B68002B00F093803B68002B00F08F80CD
:200A60004F4B1B68DB6803F00303002B07D14C4B5B6A43F400134A4A53620123FB73FB7B23
:200A8000002B40F08580464B1B68D3F8B03103F004027B685A60424B1B68D3F8B0315B0D7C
:200AA000C3F30A027B681A603D4B1B68D3F8B0315B0803F001027B689A60394B1B68D3F858
:200AC000B43103F00F027B68DA60354B1B68D3F8B831DAB23B681A703B680133304A1268D5
:200AE000D2F8B821120AD2B21A703B6802332C4A1268D2F8B821120CD2B21A703B680333B9
:200B0000274A1268D2F8B821120ED2B21A703B680433234A1268D2F8BC21D2B21A703B6800
:200B200005331F4A1268D2F8BC21120AD2B21A703B6806331A4A1268D2F8BC21120CD2B2C6
:200B40001A703B680733164A1268D2F8BC21120ED2B21A70124B1B68114A1268D26842F05E
:200B60002002DA607B68DB68082B11D00C4B5B6A43F400130A4A53620123FB7308E0084BA3
:200B80005B6A43F48023064A53620123FB7300E000BFFB7B18461437BD465DF8047B7047D3
:200BA0003400002080B582B000AF0B4B1B685B697B607B6803F00203002B08D0064B1B68A1
:200BC000DB6803F00303002B01D002F0E1FD00BF0837BD4680BD00BF3400002080B485B053
:200BE00000AF78607B68072B0BD07B68062B08D07B68052B05D07B68042B02D07B68032BB5
:200C000017D17B6803F00703FB600D4BDB68BB60BA684FF6FF031340BB60FB681A02BB6882
:200C2000134343F0BF6343F40033BB60044ABB68D36000BF1437BD465DF8047B704700BF89
:200C400000ED00E080B586B000AF0346B9607A60FB7300237B6100233B61BB680F2B28D8E8
:200C60007B680F2B25D8154BDB681B0A03F007037B617A68B968786900F024F8386197F9A0
:200C80000F30002B0BDA0D49FB7B03F00F03043B3A69D2B21201D2B20B441A7609E008491E
:200CA00097F90F303A69D2B21201D2B20B4483F8002300BF1837BD4680BD00BF00ED00E0E0
:200CC00000E100E080B489B000AFF860B9607A60FB6803F007037B610023FB610023BB61F2
:200CE0007B69C3F10703042B02D90423FB6103E07B69C3F10703FB617B690433062B02D8BE
:200D00000023BB6102E07B69033BBB610122FB6902FA03F35A1EBB681A40BB699A400121E6
:200D2000BB6901FA03F3591E7B680B40134318462437BD465DF8047B704780B483B000AF46
:200D40000346FB7197F90730002B0ED0FB795A2B0BD8094997F907305B09FA7902F01F022F
:200D6000012000FA02F241F8232000BF0C37BD465DF8047B704700BF00E100E080B584B06F
:200D800000AF78600023FB607B68013BB3F1807F02D30123FB600FE00A4A7B68013B536023
:200DA00000220F214FF0FF30FFF74CFF054B00229A60044B07221A60FB6818461037BD46C9
:200DC00080BD00BF10E000E080B489B000AF786039600023FB6100237B6100233B6100235A
:200DE000FB600023FB767B68002B00F08C813B68002B00F088817B68924A93420FD07B68DC
:200E0000914A93420BD07B68904A934207D07B688F4A934203D07B688E4A934201D10123F4
:200E200000E00023012B40F06B813B681B689BB2002B07D03B681B681B0C1B04002B01D189
:200E4000012300E00023012B40F05A813B685B68002B13D03B685B68012B0FD03B685B68E9
:200E6000112B0BD03B685B68022B07D03B685B68122B03D03B685B68032B01D1012300E011
:200E80000023012B40F03C813B689B68002B07D03B689B68012B03D03B689B68022B01D124
:200EA000012300E00023012B40F02A810023FB6121E10122FB6902FA03F37B613B681A6809
:200EC0007B6913403B613A697B699A4240F010813B685B68022B03D03B685B68122B74D1CD
:200EE0003B681B69002B47D03B681B69012B43D03B681B69012B3FD03B681B69022B3BD062
:200F00003B681B69022B37D03B681B69022B33D03B681B69032B2FD03B681B69042B2BD07A
:200F20003B681B69042B27D03B681B69042B23D03B681B69052B1FD03B681B69052B1BD093
:200F40003B681B69092B17D03B681B69092B13D03B681B69072B0FD03B681B69072B0BD0A5
:200F60003B681B69092B07D03B681B69052B03D03B681B69052B01D1012300E00023012B99
:200F800023D1FB69DA087B68083253F82230FB60FB6903F007039B000F2202FA03F3DB43C5
:200FA000FA681340FB603B681A69FB6903F007039B0002FA03F3FA681343FB60FB69DA08B4
:200FC0007B680832F96843F822107B681B68FB60FB695B00032202FA03F3DB43FA681340BC
:200FE000FB603B685B6803F00302FB695B0002FA03F3FA681343FB607B68FA681A603B6812
:201000005B68012B0BD03B685B68022B07D03B685B68112B03D03B685B68122B50D13B68C0
:20102000DB68002B0BD03B68DB68012B07D03B68DB68022B03D03B68DB68032B0CD1012383
:201040000BE000BF000002400004024000080240000C0240001002400023012B30D17B6841
:201060009B68FB60FB695B00032202FA03F3DB43FA681340FB603B68DA68FB695B0002FA6E
:2010800003F3FA681343FB607B68FA689A607B685B68FB600122FB6902FA03F3DB43FA680E
:2010A0001340FB603B685B681B0903F00102FB6902FA03F3FA681343FB607B68FA685A609A
:2010C0007B68DB68FB60FB695B00032202FA03F3DB43FA681340FB603B689A68FB695B0027
:2010E00002FA03F3FA681343FB607B68FA68DA60FB690133FB61FB690F2B7FF6DAAE04E0F9
:201100000123FB7601E00123FB76FB7E18462437BD465DF8047B704780B485B000AF786014
:201120000B467B800023FB737B68002B30D07B88002B06D07B881B0C1B04002B01D1012356
:2011400000E00023012B23D17B68154A93420FD07B68144A93420BD07B68134A934207D099
:201160007B68124A934203D07B68114A934201D1012300E00023012B0AD17B681A697B880C
:201180001340002B02D00123FB7301E00023FB73FB7B18461437BD465DF8047B704700BF8F
:2011A000000002400004024000080240000C02400010024080B483B000AF78600B467B8083
:2011C00013467B707B68002B3BD07B88002B06D07B881B0C1B04002B01D1012300E0002341
:2011E000012B2ED17B78002B02D07B78012B01D1012300E00023012B23D17B68144A934286
:201200000FD07B68134A93420BD07B68124A934207D07B68114A934203D07B68104A93421C
:2012200001D1012300E00023012B0AD17B78012B03D17A887B689A6103E07B881A047B68F4
:201240009A6100BF0C37BD465DF8047B704700BF000002400004024000080240000C024024
:201260000010024080B483B000AF78600B467B807B68002B2BD07B88002B06D07B881B0CAB
:201280001B04002B01D1012300E00023012B1ED17B68124A93420FD07B68114A93420BD00F
:2012A0007B68104A934207D07B680F4A934203D07B680E4A934201D1012300E00023012B2C
:2012C00005D17B685A697B885A407B685A6100BF0C37BD465DF8047B704700BF00000240C6
:2012E0000004024000080240000C02400010024080B584B000AF78600023FB600023BB6012
:201300007B68242283F834207B681B687A681268126822F001021A6001F050FAB860BB6894
:201320005B4AA2FB03239B0CFB607B681B68FA685A607B681A687B685B6856498B4202D870
:20134000FB68013309E0FB684FF4967101FB03F35149A1FB03139B09013313627B68196871
:201360007B685B684B4A934212D87B685B685B00BA68B2FBF3F3C3F30B03032B06D97B6809
:201380005B685B00BA68B2FBF3F345E0042343E07B689B68002B0FD17B685A6813465B00C1
:2013A0001344BA68B2FBF3F3C3F30B03002B0CBF01230023DBB210E07B685A6813469B000A
:2013C00013449A001344BA68B2FBF3F3C3F30B03002B0CBF01230023DBB2002B01D0012362
:2013E0001AE07B689B68002B0AD17B685A6813465B001344BA68B2FBF3F343F400430BE03D
:201400007B685A6813469B0013449A001344BA68B2FBF3F343F44043CB617B681B687A6808
:20142000D1697A68126A0A431A607B681B687A6811697A68D2680A439A607B681B687A68E0
:2014400051697A6892690A43DA607B681B687A681268526A22F01F025A627B681B687A68B9
:201460001268126842F001021A607B6800229A637B68202283F834207B6800221A637B686E
:20148000002283F8352000BF1037BD4680BD00BF83DE1B43A0860100D34D621080B588B070
:2014A00002AFF860084611461A4603467B810B463B811346FB8000233B610023FB7501F0B5
:2014C0005BFA3861FB68002B00F0E8803B6A002B00F0E480FB88012B02D0FB88102B01D103
:2014E000012300E00023012B40F0D880FB6893F83430DBB2202B40F0CE803B6900931923F6
:2015000001226A49F86800F0C7FC0346002B02D00223FB758BE0FB681B68FA681268126860
:2015200022F400621A60FB68212283F83420FB68402283F83520FB6800229A63FB683A6A26
:201540005A62FB68BA8C5A85FB68594ADA62FB685B8D9AB2FB681A85F8883A8979893B6983
:201560000193BB6A00930346F86800F0F7FA0346002B5CD0FB689B6B042B02D10123FB75F6
:2015800055E00323FB7552E03A69B96AF86800F055FE0346002B10D0FB689B6B042B0AD11E
:2015A000FB681B68FA681268126842F400721A600123FB7501E00323FB75FB7D002B36D118
:2015C000FB681A68FB685B6A581CF96848621B781361FB681B8D013B9AB2FB681A85FB6880
:2015E0005B8D9BB2013B9AB2FB685A85FB681B685B6903F00403042B19D1FB681B8D002BF9
:2016000015D0FB681A68FB685B6A581CF96848621B781361FB681B8D013B9AB2FB681A85BD
:20162000FB685B8D9BB2013B9AB2FB685A85FB681B8D002B02D0FB7D002BA5D0FB7D002B85
:2016400020D13A69B96AF86800F035FE0346002B10D0FB689B6B042B0AD1FB681B68FA6841
:201660001268126842F400721A600123FB7501E00323FB75FB681B68FA681268126842F4D7
:2016800000721A60FB68202283F83420FB68002283F8352004E00223FB7501E00123FB75A7
:2016A000FB7D18461837BD4680BD00BF020010000000FFFF80B58CB002AFF86008461146D7
:2016C0001A4603467B810B463B811346FB8000233B62002387F8273001F04EF93862FB6896
:2016E000002B00F030823B6B002B00F02C82FB88012B02D0FB88102B01D1012300E0002376
:20170000012B40F02082FB6893F83430DBB2202B40F015823B6A0093192301227249F86828
:2017200000F0BAFB0346002B02D0022387F8273097F82730002B39D1FB681B68FA681268E6
:20174000126822F400621A60FB68222283F83420FB68402283F83520FB6800229A63FB682D
:201760003A6B5A62FB68BA8E5A85FB685F4ADA62FB685B8D9AB2FB681A85F8883A89798958
:201780003B6A0193BB6B00930346F86800F088FA0346002B0AD0FB689B6B042B03D101235E
:2017A00087F8273002E0032387F8273097F82730002B40F0B281FB681B8D002B12D10023C5
:2017C000FB61FB681B685B69FB61FB681B689B69FB61FB681B68FA681268126842F400727D
:2017E0001A609AE1FB681B8D012B1AD1FB681B68FA681268126822F480621A600023BB61E5
:20180000FB681B685B69BB61FB681B689B69BB61FB681B68FA681268126842F400721A609E
:201820007BE1FB681B8D022B1AD1FB681B68FA681268126822F480621A60FB681B68FA6833
:201840001268126842F400621A6000237B61FB681B685B697B61FB681B689B697B615CE1FA
:2018600000233B61FB681B685B693B61FB681B689B693B6151E1FB681B8D032B00F20181FE
:20188000FB681B8D012B33D13A6AB96BF86800F04FFD0346002B0AD0FB689B6B202B03D1D3
:2018A000032387F8273002E0012387F8273097F82730002B40F03181FB685B6A591CFA685E
:2018C0005162FA6812681269D2B21A70FB681B8D013B9AB2FB681A85FB685B8D9BB2013B87
:2018E0009AB2FB685A8518E1020010000000FFFFFB681B8D022B49D13B6A0093BB6B00227F
:201900009549F86800F0C8FA0346002B02D0032387F8273097F82730002B40F0FE80FB6873
:201920001B68FA681268126842F400721A60FB685B6A591CFA685162FA6812681269D2B21F
:201940001A70FB681B8D013B9AB2FB681A85FB685B8D9BB2013B9AB2FB685A85FB685B6ADE
:20196000591CFA685162FA6812681269D2B21A70FB681B8D013B9AB2FB681A85FB685B8D98
:201980009BB2013B9AB2FB685A85C6E03B6A0093BB6B00227049F86800F07EFA0346002B15
:2019A00002D0032387F8273097F82730002B1ED1FB681B68FA681268126822F480621A60AB
:2019C000FB685B6A591CFA685162FA6812681269D2B21A70FB681B8D013B9AB2FB681A855B
:2019E000FB685B8D9BB2013B9AB2FB685A853B6A0093BB6B00225849F86800F04DFA034684
:201A0000002B02D0032387F8273097F82730002B40F08380FB681B68FA681268126842F417
:201A200000721A60FB685B6A591CFA685162FA6812681269D2B21A70FB681B8D013B9AB210
:201A4000FB681A85FB685B8D9BB2013B9AB2FB685A85FB685B6A591CFA685162FA68126894
:201A60001269D2B21A70FB681B8D013B9AB2FB681A85FB685B8D9BB2013B9AB2FB685A85E6
:201A80004BE03A6AB96BF86800F052FC0346002B0AD0FB689B6B202B03D1032387F82730E3
:201AA00002E0012387F8273097F82730002B34D1FB685B6A591CFA685162FA68126812692B
:201AC000D2B21A70FB681B8D013B9AB2FB681A85FB685B8D9BB2013B9AB2FB685A85FB689E
:201AE0001B685B6903F00403042B16D1FB685B6A591CFA685162FA6812681269D2B21A7078
:201B0000FB681B8D013B9AB2FB681A85FB685B8D9BB2013B9AB2FB685A85FB681B8D002B98
:201B200004D097F82730002B3FF4A5AEFB68202283F83420FB68002283F8352006E0022366
:201B400087F8273002E0012387F8273097F8273018462837BD4680BD0400010080B588B07E
:201B600002AFF860084611461A4603467B810B463B811346FB800023FB75FB681B68FA6856
:201B80001268126842F480721A607B6A00933B6A00224FF00111F86800F07EF90346002BE4
:201BA00001D00323FB75FB7D002B18D1FB681B687A89D2B202F0FE021A617B6A3A6A37494F
:201BC000F86800F063FA0346002B08D0FB689B6B042B02D10123FB7501E00323FB75FB7D1E
:201BE000002B22D100233B61FB681B685B693B61FB681B689B693B617A6A396AF86800F065
:201C00001DFB0346002B10D0FB689B6B042B0AD1FB681B68FA681268126842F400721A6087
:201C20000123FB7501E00323FB75FB7D002B30D1FB88012B05D1FB681B683A89D2B21A61C8
:201C40001FE0FB681B683A89120A92B2D2B21A617A6A396AF86800F0F1FA0346002B10D067
:201C6000FB689B6B042B0AD1FB681B68FA681268126842F400721A600123FB7501E00323F8
:201C8000FB75FB7D002B04D1FB681B683A89D2B21A61FB7D18461837BD4680BD020001004C
:201CA00080B588B002AFF860084611461A4603467B810B463B811346FB800023FB75FB688D
:201CC0001B68FA681268126842F480621A60FB681B68FA681268126842F480721A607B6AD6
:201CE00000933B6A00224FF00111F86800F0D4F80346002B01D00323FB75FB7D002B18D1B6
:201D0000FB681B687A89D2B202F0FE021A617B6A3A6A6049F86800F0B9F90346002B08D069
:201D2000FB689B6B042B02D10123FB7501E00323FB75FB7D002B22D100233B61FB681B68F2
:201D40005B693B61FB681B689B693B617A6A396AF86800F073FA0346002B10D0FB689B6B9C
:201D6000042B0AD1FB681B68FA681268126842F400721A600123FB7501E00323FB75FB7D78
:201D8000002B30D1FB88012B05D1FB681B683A89D2B21A6127E0FB681B683A89120A92B2DA
:201DA000D2B21A617A6A396AF86800F047FA0346002B10D0FB689B6B042B0AD1FB681B685F
:201DC000FA681268126842F400721A600123FB7501E00323FB75FB7D002B04D1FB681B6822
:201DE0003A89D2B21A61FB7D002B18D17A6A396AF86800F023FA0346002B10D0FB689B6BE4
:201E0000042B0AD1FB681B68FA681268126842F400721A600123FB7501E00323FB75FB7DD7
:201E2000002B15D1FB681B68FA681268126842F480721A607B6A00933B6A00224FF0011123
:201E4000F86800F029F80346002B01D00323FB75FB7D002B19D1FB681B687A89D2B242F00A
:201E60000102D2B21A617B6A3A6A0A49F86800F00DF90346002B08D0FB689B6B042B02D177
:201E80000123FB7501E00323FB75FB7D18461837BD4680BD0200010080B586B000AFF8605D
:201EA000B9603B601346FB710023FB750023BB75FB68002B00F0C780BB68B3F5C03F4FD015
:201EC000BB68B3F5A03F4BD0BB68B3F5883F47D0BB68B3F5843F43D0BB68B3F5823F3FD058
:201EE000BB68B3F5813F3BD0BB685B4A934237D0BB685A4A934233D0BB68594A93422FD06F
:201F0000BB68584A93422BD0BB68574A934227D0BB68564A934223D0BB68554A93421FD08B
:201F2000BB68B3F1011F1BD0BB68524A934217D0BB68514A934213D0BB68504A93420FD06D
:201F4000BB68B3F1101F0BD0BB684D4A934207D0BB684C4A934203D0BB684B4A934201D18A
:201F6000012300E00023012B6DD1FB79012B02D0FB79002B67D1BB681B0CDBB2012B0CD1A7
:201F8000FB681B685B69DA43BB6813409BB2002B0CBF01230023DBB20BE0FB681B689B6918
:201FA000DA43BB6813409BB2002B0CBF01230023DBB2002B02D00123BB753CE00023BB75B7
:201FC00039E000F0D9FC02463B6AD21A3B689A420CD9FB6800221A63FB68202283F8342070
:201FE000FB68002283F835200323FB75BB681B0CDBB2012B0CD1FB681B685B69DA43BB682C
:2020000013409BB2002B0CBF01230023DBB20BE0FB681B689B69DA43BB6813409BB2002B76
:202020000CBF01230023DBB2002B02D00123BB7501E00023BB75BA7DFB799A4206D1FB7DA6
:20204000002BBED002E00123FB7500E000BFFB7D18461837BD4680BD0001010080000100CA
:202060004000010010000100080001000400010002000100800010004000100020001000ED
:2020800004001000020010000100100080B586B000AFF860B9607A603B600023FB75FB6813
:2020A000002B00F0A880BB68B3F5C03F4FD0BB68B3F5A03F4BD0BB68B3F5883F47D0BB6863
:2020C000B3F5843F43D0BB68B3F5823F3FD0BB68B3F5813F3BD0BB684B4A934237D0BB689A
:2020E0004A4A934233D0BB68494A93422FD0BB68484A93422BD0BB68474A934227D0BB68C2
:20210000464A934223D0BB68454A93421FD0BB68B3F1011F1BD0BB68424A934217D0BB6891
:20212000414A934213D0BB68404A93420FD0BB68B3F1101F0BD0BB683D4A934207D0BB68B1
:202140003C4A934203D0BB683B4A934201D1012300E00023012B4ED131E0FB681B685B69D5
:2021600003F48063B3F5806F18D1FB681B68FA681268126842F400721A60FB681B686FF45E
:2021800080625A61FB6804229A63FB6800221A63FB68202283F834200123FB7500F0ECFB3B
:2021A00002463B68D21A7B689A4208D9FB6800221A63FB68202283F834200323FB75BB6879
:2021C0001B0CDBB2012B09D1FB681B685B69DA43BB6813409BB2002B09D10FE0FB681B68E1
:2021E0009B69DA43BB6813409BB2002B06D0FB7D002BB2D002E00123FB7500E000BFFB7D48
:2022000018461837BD4680BD000101008000010040000100100001000800010004000100EE
:202220000200010080001000400010002000100004001000020010000100100080B586B0E9
:2022400000AFF860B9607A600023FB75FB68002B2AD01EE0F86800F0B8F80346FB75FB7D3A
:20226000002B16D100F088FB02467B68D21ABB689A420ED9FB689B6B43F02002FB689A63BE
:20228000FB6800221A63FB68202283F834200323FB75FB681B685B6903F08003802B05D092
:2022A000FB7D002BD6D001E00123FB75FB7D18461837BD4680BD80B586B000AFF860B96070
:2022C0007A600023FB75FB68002B2AD01EE0F86800F07BF80346FB75FB7D002B16D100F015
:2022E0004BFB02467B68D21ABB689A420ED9FB689B6B43F02002FB689A63FB6800221A637B
:20230000FB68202283F834200323FB75FB681B685B6903F00403042B05D0FB7D002BD6D0C2
:2023200001E00123FB75FB7D18461837BD4680BD80B586B000AFF860B9607A600023FB75CB
:20234000FB68002B3AD02EE0FB681B685B6903F01003102B10D1FB681B686FF010025A61F9
:20236000FB6800229A63FB6800221A63FB68202283F834200123FB75FB7D002B13D100F05A
:20238000FBFA02467B68D21ABB689A420BD9FB689B6B43F02002FB689A63FB68202283F810
:2023A00034200323FB75FB681B685B6903F04003402B05D0FB7D002BC6D001E00123FB7565
:2023C000FB7D18461837BD4680BD80B485B000AF78600023FB737B68002B19D07B681B68BA
:2023E0005B6903F48063B3F5806F13D17B681B686FF480625A617B6804229A637B68002253
:202400001A637B68202283F834200123FB7301E00123FB73FB7B18461437BD465DF8047B50
:20242000704700BF80B588B000AF0023BB610023FB774FF480037B6119233B614FF4A8735E
:20244000FB600223BB6004237B60594A584B1B6843F48033136000F08FFAB86108E000F04F
:202460008BFA0246BB69D31A642B01D90323FB774F4B1B6803F40033002B02D1FB7F002B93
:20248000EDD0FB7F002B21D14A4B1B6803F48073002B1BD1474A474B1B6843F4807313608C
:2024A00000F06AFAB86108E000F066FA0246BB69D31A022B01D90323FB773E4B1B6803F47C
:2024C0008073002B02D1FB7F002BEDD0FB7F002B1BD1374A364B1B6F43F00103136700F0EB
:2024E0004BFAB86108E000F047FA0246BB69D31A642B01D90323FB772D4B1B6F03F0020311
:20250000002B02D1FB7F002BEDD0FB7F002B4AD1274A274B1B6823F08073136000F02CFAA6
:20252000B86108E000F028FA0246BB69D31A022B01D90323FB771E4B1B6803F00073002B13
:2025400002D0FB7F002BEDD0FB7F002B2BD118497A693B691A43FB689B011A43BB685B087F
:20256000013B1B041A437B681B0613434B60104A0F4B1B6843F08073136000F0FDF9B861CF
:2025800008E000F0F9F90246BB69D31A022B01D90323FB77064B1B6803F00073002B02D141
:2025A000FB7F002BEDD0FB7F18462037BD4680BD003802400070004090B58BB000AF0023CE
:2025C0003B624FF4A053FB614FF48053BB6100237B6100233B610023FB600023BB600023FD
:2025E0007B60002387F8273005233B606E4B1B6803F00F023B689A420DD26B4B3A68D2B2CA
:202600001A70694B1B6803F00F023B689A4202D0012387F8273097F82730002B13D1634A08
:20262000624B9B6843F4E0539360604A5F4B9B6843F4604393605D495C4B9B6823F0F00214
:202640003B6A13438B6097F82730002B2DD1574B1B6803F00073002B02D1012387F8273002
:2026600097F82730002B20D1504A504B9B6823F0030343F00203936000F07EF978610AE0B2
:2026800000F07AF902467B69D31AB3F5FA7F02D9032387F8273097F82730002B05D1434B51
:2026A0009B6803F00C03082BEAD197F82730002B14D13D4B1B6803F00F023B689A420DD9BD
:2026C000394B3A68D2B21A70374B1B6803F00F023B689A4202D0012387F8273097F827308C
:2026E000002B5AD13149314B9B6823F4E052FB6913438B602D492D4B9B6823F46042BB69CF
:20270000DB0013438B60294B5B6803F03F033B61264B5B689B094FF0000440F2FF114FF0F9
:20272000000203EA010304EA0204214A02FB04F1002202FB03F20A441D49A3FB0101531882
:2027400019463B694FF000041A46234608F064FE03460C46FB60154B5B681B0C03F00303D7
:2027600001335B00BB60FA68BB68B2FBF3F37B600E4B9B681B0903F00F030E4AD35C1A4650
:202780007B68D3400C4A136000F0BCF803461A4697F82730134387F8273097F827301846D7
:2027A0002C37BD4690BD00BF003C02400038024040787D01F8B700086000002080B400AF5F
:2027C000074B1B68074A9268920A02F0070206498A5CD3401846BD465DF8047B704700BF4F
:2027E000600000200038024008B8000880B400AF074B1B68074A9268520B02F0070206496D
:202800008A5CD3401846BD465DF8047B704700BF600000200038024008B8000880B584B0E9
:2028200000AF0023BB6000237B600023FB73334A324B1B6843F48073136000F09DF8B86065
:2028400008E000F099F80246BB68D31A022B01D90323FB73294B1B6803F48073002BF0D050
:20286000274B1B6F03F440737B607B68002B33D07B68B3F5807F2FD0214B1B6F23F440737D
:202880007B601F4A1E4B1B6F43F4803313671C4A1B4B1B6F23F480331367194A7B68136743
:2028A000174B1B6F03F00103002B15D000F064F8B86008E000F060F80246BB68D31A642BAA
:2028C00001D90323FB730E4B1B6F03F00203002B02D1FB7B002BEDD0094A094B9B6823F492
:2028E000F8139360064A064B1B6F43F480731367FB7B18461037BD4680BD00BF0070004041
:202900000038024080B582B000AF0023FB710F4B1A680F4B1B684FF47A71B1FBF3F3B2FB72
:20292000F3F31846FEF72AFA0346002B02D00123FB7105E0002200214FF0FF30FEF782F95E
:20294000FB7918460837BD4680BD00BF600000205C00002080B400AF054B1A68054B1B68E3
:202960001344034A136000BFBD465DF8047B7047D40B00205C00002080B400AF034B1B68C4
:202980001846BD465DF8047B704700BFD40B002080B483B000AF7860094B1B6807E0084B8E
:2029A0001B681B0C03F001037A68D31A7B607B68002BF4D100BF0C37BD465DF8047B704769
:2029C00010E000E080B582B000AF0023FB71174B174A1A60154B1F229A60144B40F2FF32E8
:2029E000DA60124B00225A60104B00221A610F4B4FF480229A610D4B00225A610D4B012282
:202A00001A600D4800F01AF803461A46FB791343FB71064800F058F903461A46FB79134304
:202A2000FB71FB7918460837BD4680BDD80B0020002800403C0E47426400002090B585B09D
:202A400000AF78600023FB7307F1080300221A60C3F803207B68002B00F0B080786800F0E3
:202A600020FB03461A467B68DA707B689B79632B54D87B685B79002B50D07B685B790C2BC4
:202A80004CD87B681B79002B48D07B6819797B689B7903F00303002B0DD17B689B7903F5FB
:202AA000FA624A4BA3FB02035B09642000FB03F3D31A002B0ED17B689B7903F5FA62434BD9
:202AC000A3FB0203DB094FF4C87000FB03F3D31A002B01D1012200E000227B685B79581EC7
:202AE0003B4C13465B0013449B00234403441B78994213D87B689B78172B0FD87B685B78CD
:202B00003B2B0BD87B681B783B2B07D87B68DB78002B03D07B68DB78072B02D90123FB73A8
:202B20004EE07B681B79184600F081FA03463B737B685B79184600F07AFA03467B737B689D
:202B40009B79184600F073FA0346BB737B689B78184600F06CFA0346BB727B685B781846FB
:202B600000F065FA03467B727B681B78184600F05EFA03463B727B68DB78184600F057FAE9
:202B80000346FB7207F108031946124800F01DF90346FB7307F1080319460E4800F07BF9EA
:202BA00003461A46FB7B1343FB730A4800F08CF803461A46FB7B1343FB7301E00123FB7316
:202BC000FB7B18461437BD4690BD00BF1F85EB5110B80008D80B002080B584B000AF786024
:202BE0000023FB600023BB607B68002B65D0354B1B681B6803F07F3323F0FE43FB60FB6899
:202C00001B0CDBB203F03F03DBB2184600F02DFA03461A467B689A70FB681B0ADBB203F02B
:202C20007F03DBB2184600F020FA03461A467B685A70FB68DBB203F07F03DBB2184600F087
:202C400014FA03461A467B681A701E4B1B685B6823F07F4323F0C003BB60BB681B0CDBB204
:202C6000184600F002FA03461A467B689A71BB681B0ADBB203F01F03DBB2184600F0F5F9C0
:202C800003461A467B685A71BB68DBB203F03F03DBB2184600F0E9F903461A467B681A7124
:202CA000BB685B0BDBB203F00703DBB2184600F0DCF903461A467B68DA7000BF1037BD4672
:202CC00080BD00BFD80B002080B584B000AF78600023FB737B68002B70D07B681B68CA22D4
:202CE0005A627B681B6853225A62786800F068F90346002B06D07B681B68FF225A6201239F
:202D0000FB735DE07B681A687B681B689B6823F4E00323F0400393607B681B687A68126835
:202D200091687A6850687A68126910437A68526902430A439A607B681B687A68D2681A612A
:202D40007B681B687A68126811697A68926812040A431A617B681B687A681268D26822F06F
:202D60008002DA607B681B689B6803F02003002B0BD1786800F0F1F80346002B05D07B682C
:202D80001B68FF225A620123FB73FB7B002B17D17B681B687A681268126C22F480221A6442
:202DA0007B681B687A681268116C7A6892690A431A647B681B68FF225A6201E00123FB7376
:202DC000FB7B18461037BD4680BD80B584B000AF786039600023BB600023FB733B68002B72
:202DE00052D03B689B781A043B685B781B0213433A6812781343BB607B681B68CA225A6249
:202E00007B681B6853225A62786800F0D9F80346002B06D07B681B68FF225A620123FB735B
:202E200034E07B681A68BB6803F07F3323F0FE4313607B681B687A681268926822F4802216
:202E40009A607B681B687A681268D26822F08002DA607B681B689B6803F02003002B0BD128
:202E6000786800F07AF80346002B05D07B681B68FF225A620123FB73FB7B002B06D17B6897
:202E80001B68FF225A6201E00123FB73FB7B18461037BD4680BD80B584B000AF786039607B
:202EA0000023BB600023FB733B68002B4ED03B689B791A043B685B791B0213433A6812796B
:202EC0001A433B68DB785B031343BB607B681B68CA225A627B681B6853225A62786800F05B
:202EE0006FF80346002B06D07B681B68FF225A620123FB732CE07B681A68BB6823F07F43E3
:202F000023F0C00353607B681B687A681268D26822F08002DA607B681B689B6803F02003DF
:202F2000002B0BD1786800F018F80346002B05D07B681B68FF225A620123FB73FB7B002BEB
:202F400006D17B681B68FF225A6201E00123FB73FB7B18461037BD4680BD80B584B000AF71
:202F600078600023BB600023FB737B68002B20D07B681B687A681268D26822F0A002DA60C2
:202F8000FFF7FAFCB86009E0FFF7F6FC0246BB68D31AB3F57A7F01D90323FB737B681B688F
:202FA000DB6803F02003002B05D1FB7B002BEBD001E00123FB73FB7B18461037BD4680BD8D
:202FC00080B584B000AF78600023BB600023FB737B68002B24D07B681B68DB6803F0400351
:202FE000002B1FD17B681B684FF0FF32DA60FFF7C3FCB86009E0FFF7BFFC0246BB68D31AE7
:20300000B3F57A7F01D90323FB737B681B68DB6803F04003002B05D1FB7B002BEBD001E084
:203020000123FB73FB7B18461037BD4680BD80B485B000AF0346FB710023FB6005E0FB6810
:203040000133FB60FB790A3BFB71FB79092BF6D8FB68DBB21B01DAB2FB791343DBB21846F9
:203060001437BD465DF8047B704780B485B000AF0346FB710023FB73FB791B09DBB21A4694
:20308000920013445B00FB73FB7903F00F03DAB2FB7B1344DBB218461437BD465DF8047B9F
:2030A000704780B485B000AF786014233B737B685B79FB737B689B79BB730023FB72002387
:2030C0007B737B68002B67D0FB7B022B03D9FB7B023BFB7305E0FB7B0A33FB73BB7B013BA5
:2030E000BB737B681979FA7B13465B0013449B001344013B2C4AA2FB03239B08DBB20B44C7
:20310000DAB2BB7B1344DAB2BB7B9B08DBB21344DAB23B7B9B08DBB21344DAB23B7B5B00E7
:20312000DBB2D31AFB72FA7A204BA3FB0213D11A49080B4499080B46DB005B1AD31ADBB2CF
:20314000062B26D801A252F823F000BF693100086F310008753100087B310008813100081B
:20316000873100088D31000807237B7314E001237B7311E002237B730EE003237B730BE0BA
:2031800004237B7308E005237B7305E006237B7302E000237B7300BF7B7B18461437BD46CC
:2031A0005DF8047B704700BFCDCCCCCC2549922480B582B000AF78607B681B687A681268C0
:2031C000D26822F40052DA60786800F027F87B681B687A681268126922F490421A617B68A1
:2031E0001B687A681268526922F02A025A617B681B687A681268D26842F40052DA607B689B
:2032000000225A637B68202283F830207B68202283F8312000BF0837BD4680BDF0B585B0D6
:2032200000AF78600023FB607B681B681B69FB60FB6823F44053FB607B68DB68FA681343FE
:20324000FB607B681B68FA681A617B681B68DB68FB60FB6823F4164323F00C03FB607B6899
:203260009A687B681B691A437B685B691A437B68DB691343FA681343FB607B681B68FA682C
:20328000DA607B681B685B69FB60FB6823F44073FB607B689B69FA681343FB607B681B6887
:2032A000FA685A617B681B68384A93426AD17B681C68FFF79BFA024613469B0013449A00DA
:2032C0001A447B685B689B00B2FBF3F3304AA2FB03235B091D01FFF789FA024613469B0048
:2032E00013449A001A447B685B689B00B2FBF3F6FFF77CFA024613469B0013449A001A44B1
:203300007B685B689B00B2FBF3F3214AA2FB03235B09642202FB03F3F31A1B0132331C4ADA
:20332000A2FB03235B0903F0F0031D44FFF75EFA024613469B0013449A001A447B685B68A0
:203340009B00B2FBF3F6FFF751FA024613469B0013449A001A447B685B689B00B2FBF3F39C
:203360000B4AA2FB03235B09642202FB03F3F31A1B013233064AA2FB03235B0903F00F034E
:203380002B44A36000BF1437BD46F0BD001001401F85EB5180B58AB002AFF860B9603B60A4
:2033A0001346FB800023BB6100237B610023FB77FB6893F83030DBB2202B5CD1FB68002B85
:2033C00005D0BB68002B02D0FB88002B02D10123FB7752E0FB6800225A63FB68212283F84C
:2033E0003020FFF7C9FA7861FB68FA889A84FB68FA88DA8422E0FB68DB8C9BB2013B9AB204
:20340000FB68DA843B6800937B6900228021F86800F038F80346002B01D00323FB77FB7F37
:20342000002B0BD1BB68BB61FB681B68BA691288C2F308025A60BB680133BB60FB68DB8CEE
:203440009BB2002B02D0FB7F002BD4D0FB7F002B0CD13B6800937B6900224021F86800F06A
:2034600011F80346002B01D00323FB77FB68202283F8302001E00223FB77FB7F184620374F
:20348000BD4680BD80B586B000AFF860B9603B601346FB710023FB750023BB75FB68002B8D
:2034A00053D0FB79012B02D0FB79002B4DD1BB68802B02D0BB68402B47D1FB681B681A680C
:2034C000BB681A40BB689A4202D10123BB7534E00023BB7531E0FB681B681A68BB681A40EC
:2034E000BB689A4202D10123BB7501E00023BB753B6A002B07D0FFF73FFA02463B68D21AC5
:203500003B6A9A4219D9FB681B68FA681268D26822F4D072DA60FB681B68FA68126852692D
:2035200022F001025A61FB68202283F83020FB68202283F831200323FB75FB7D002B07D1C9
:20354000BA7DFB799A42C6D002E00123FB7500E000BFFB7D18461837BD4680BD80B588B067
:2035600000AF78607B681B681B68FB617B681B68DB68BB617B681B685B697B6100233B61F5
:203580000023FB607B6800225A63FB6903F00F033B613B69002B0DD1FB6903F02003002B94
:2035A00010D0BB6903F02003002B0BD0786800F09CF807E07B681B681B68FB607B681B68F6
:2035C0005B68FB603B69002B49D07B6903F00103002B04D1BB6903F49073002B3FD0FB694E
:2035E00003F00103002B0AD0BB6903F48073002B05D07B685B6B43F001027B685A63FB69DE
:2036000003F00403002B0AD07B6903F00103002B05D07B685B6B43F002027B685A63FB69EC
:2036200003F00203002B0AD07B6903F00103002B05D07B685B6B43F004027B685A63FB69CC
:2036400003F00803002B0AD07B6903F00103002B05D07B685B6B43F008027B685A6300BF47
:203660002037BD4680BD80B487B000AFF860B9601346FB800023FB75FB6893F83130DBB2E5
:20368000202B29D1BB68002B23D0FB88002B20D0FB68BA689A62FB68FA889A85FB68FA889C
:2036A000DA85FB6800225A63FB68222283F83120FB681B68FA681268526942F001025A6189
:2036C000FB681B68FA681268D26842F49072DA6004E00123FB7501E00223FB75FB7D1846B8
:2036E0001C37BD465DF8047B704780B584B000AF78600023FB607B6893F83130DBB2222BD2
:2037000012D17B689B6AFB60FB68002B0CD07B681B685B689BB2DBB29AB2FB681A807B68EA
:203720009B6A5A1C7B689A627B68DB8D9BB2013B9BB27A681946D185002B20D17B681B68F5
:203740007A681268D26822F49072DA607B681B687A681268526922F001025A617B6820220F
:2037600083F831207B681B68074A934207D07B681B68064A934202D1786802F037FD00BFF7
:203780001037BD4680BD00BF004800400010014090B589B000AF07F10C0300221A605A6080
:2037A0009A60DA603B1D00221A605A600023FB7700233B773A1D07F10C0311461846FDF7B6
:2037C00039F90346002B40F05D82FB68DBB203F01F031E2B40F044823B7903F01F03FB77B5
:2037E000FB7F002B00F03382FB7F142B00F22F82FB7F013BFB77FB685B09DBB2203B042B1D
:2038000000F21D8201A252F823F000BF21380008C9380008793A0008E53A00085D3B00086C
:20382000FB7FB24A342101FB03F313449F331B78002B3FD1FB7F7979AC4A083302F823100A
:20384000AA4BDA697B791946FB7F01FA03F31343A64AD361FB7FBA7992B2120291B2FA793D
:2038600092B20A4491B2A24A22F81310FB7F3A7A92B2120291B27A7A92B20A4491B29B4AD3
:2038800008339B0013440A465A80FC7FFFF774F80146964A342303FB04F3134490331960EE
:2038A000FB7F924A342101FB03F313449F3301221A70CAE1FB7F8D4A342101FB03F31344FB
:2038C0009C3301221A70C0E1FB7F3A79D209D0B2864A342101FB03F31344723302461A705C
:2038E000FB7F3A799209D2B202F00102D0B27F4A342101FB03F31344763302461A70FB7FA9
:203900003A795209D2B202F00102D0B2774A342101FB03F31344773302461A70FB7F787958
:20392000724A342101FB03F313447A3302461A70FB7FF8796D4A342101FB03F313447B33C0
:2039400002461A70FB7F3A7AD208D2B202F00102D0B2664A342101FB03F313447933024650
:203960001A70FB7F3A7A02F00F02D0B25F4A342101FB03F313447E3302461A70FB7F3A7A12
:203980001209D0B2594A342101FB03F31344843302461A70FB7F7A7A02F00102D0B2534A3E
:2039A000342101FB03F31344833302461A70FB7F7A7A5208D2B202F00102D0B24B4A342134
:2039C00001FB03F31344893302461A70FB7F7A7A9208D0B2454A342101FB03F313447C33AA
:2039E00002461A70FB7FBA7A9209D2B202F00102D0B23E4A342101FB03F313449E33024672
:203A00001A70FB7FBA7A92B2120291B2FA7A92B20A4490B2354A342101FB03F313447433C7
:203A200002461A80FC7FFEF7A7FF01462F4A342303FB04F3134490331960FB7FBA7A5209E6
:203A4000D2B202F00102D0B2284A342101FB03F313447D3302461A70FB7FFA7A9209D2B2CC
:203A600002F00102D0B2214A342101FB03F313449D3302461A70E8E00023BB7714E0FA7F9A
:203A8000BB7FB97F013107F12000014411F81C4C1649342000FB02F20A4413447F33224653
:203AA0001A70BB7F0133BB77BB7F032BE7D9FB7F7A7A02F00F02D0B20C4A342101FB03F324
:203AC00013447E3302461A70FB7FBA7A02F00102D0B2064A342101FB03F3134483330246FB
:203AE0001A70B2E000237B7719E000BF24050020FC040020FA7F7B7F797F013107F12000BF
:203B0000014411F81C4C6349342000FB02F20A441344853322461A707B7F01337B777B7F97
:203B2000032BE7D9FB7F7A7A1209D0B2594A342101FB03F31344843302461A70FB7FBA7A14
:203B40005208D2B202F00102D0B2524A342101FB03F31344893302461A7076E07B7903F00B
:203B600007033B77F97F3B7F7A79D209D4B24A481A4652001A4453001A460B46DB000B4433
:203B80009B001344034422461A70F97F3B7FBC7941481A4652001A4453001A460B46DB001B
:203BA0000B449B0013440344033322461A70F97F3B7FFC7938481A4652001A4453001A466B
:203BC0000B46DB000B449B0013440344043322461A70F97F3B7F3C7A2F481A4652001A4499
:203BE00053001A460B46DB000B449B0013440344013322461A70F97F3B7F7C7A26481A4642
:203C000052001A4453001A460B46DB000B449B0013440344023322461A70F97F3B7F1E48CE
:203C20001A4652001A4453001A460B46DB000B449B0013440344053301221A7005E0FB7FC9
:203C40000133DAB2134BDA7200BF00BF1DE0FB7F002B01D1FF23FB770E4AFB7F537314E0E8
:203C6000FB68DBB203F01F03002B03D1094BFF221A730AE0FB68DBB203F01F03DAB2054B73
:203C80001A7302E0034B01225A7200BF2437BD4690BD00BF24050020C40D002080B588B0A8
:203CA00000AF03463A60FB710B46BB710123FB7707F10C0300221A605A600023BB613B68B4
:203CC000002B00F0A180BB79142B02D8BB79002B03D1BB79002B40F09780FB79082B79D88A
:203CE00001A252F823F000BF0D3D0008193D0008493D0008253D00087B3D0008313D000827
:203D00003D3D0008993D0008AB3D0008FB795A01BB791343BB6160E0FB795A01BB79134345
:203D2000BB615AE0FB795A01BB791343BB6154E0FB795A01BB791343BB614EE0FB795A0112
:203D4000BB791343BB6148E0FB795A01BB791343BB610023FB750CE0FB7DFA7D39680A44C3
:203D6000127807F120010B4403F8142CFB7D0133FB75FB7D062BEFD92FE0FB795A01BB7977
:203D80001343BB613B681B783B733B685B787B733B689B78BB7320E0FB795A01BB7913432C
:203DA000BB613B681B783B7317E0FB795A01BB791343BB613B681B783B733B685B787B734F
:203DC0003B689B78BB733B68DB78FB733B681B793B7402E00023FB7700BFFB7F012B13D1F5
:203DE0000B4B1B78002B0FD1094B5B78002B0BD107F10C031946B869FCF776FD0346002B40
:203E000002D0044B01229A7200BF2037BD4680BDB40D00202405002080B582B000AF002399
:203E2000FB710023BB7100237B7100233B710023FB700023BB7006F069FB0346012B09D164
:203E4000394BDB7C43F00203DAB2374BDA74374B01229A7106F078FC0346022B09D1324B0C
:203E6000DB7C43F00103DAB22F4BDA742F4B02221A70BA1CF91C3B1D184601F0C1FE03469E
:203E80001A46FB791343FB713A79BB789A4213D0274B1B780133DAB2254B1A70244B1B7826
:203EA000022B09D1214B0122DA711F4BDB7C43F00403DAB21C4BDA747A1DBB1D11461846C1
:203EC00001F066FEBB790F2B09D0174BDB7C43F00803DAB2144BDA74BA79134B9A737B7984
:203EE0003F2B09D0104BDB7C43F01003DAB20E4BDA747A790C4B1A74FB79002B03D00A4BB5
:203F0000012283F88124084BDB7C002B01D000F02FFCFB79002B03D0034B012283F881249A
:203F200000BF0837BD4680BD24050020B40D0020F40B002080B485B000AF78600B467B80BE
:203F40000023FB814FF6FF73BB8100237B810023FB811AE07B681B789AB2BB891B0A9BB29F
:203F600053409BB2DBB27B817B890D4A32F813301AB2BB891B021BB253401BB2BB81FB89F6
:203F80000133FB817B6801337B60FA897B889A42E0D3BB8918461437BD465DF8047B7047EF
:203FA00028B8000880B586B000AF444B1B68FB60424B1B68BB6000233B7100237B71002366
:203FC000BB710123FB710023FB700023BB7000237B740023FB750021002002F0A9F80023AD
:203FE000BB7562E0FB7D002B5CD100237B7515E0BB7D07F11802134413F80C3C1A467B7D2B
:2040000042FA03F3DBB203F00103DAB27B7D1146184600F055F87B7D01337B757B7D032B32
:20402000E6D900237B8209E006F0CCFC4FF41670FEF7AEFC7B8A03F516737B827B8AB3F562
:20404000E16FF1D3BA1CFB1C1146184601F0A0FDFB7803F00F03DBB2FB7002F051F8034628
:2040600003F001037B74BB7D07F11802134413F8102CFB789A420BD1BB7D07F118021344A6
:2040800013F8143C1A467B7C03F001039A4209D00121002002F04CF80121022002F048F8D4
:2040A0000123FB75BB7D0133BB75BB7D032B99D9FB7D18461837BD4680BD00BF48BA0008CA
:2040C00080B584B000AF03460A46FB711346BB71FB79062B29D8FB79042B16D10023FB737D
:2040E0000FE0FB7B134ADB0013445868FB7B114A32F83330BA791946FDF75CF8FB7B01332A
:20410000FB73FB7B032BECD90FE0FB79032B0CD8FB79084ADB0013445868FB79054A32F8AE
:204120003330BA791946FDF745F800BF1037BD4680BD00BF28BA000880B588B004AF786072
:204140000B46FB700023FB730023BB73254B5B68002B03D100F046F90346FB73FB7B002B08
:2041600031D1204B1B689AB21F4B1A801F4BA0221A701C4B1B681B0CDBB203F00303BB7384
:20418000BB7B5B00DBB203F00603DAB2174B1B781343DAB2154B1A70144B1B7899B2124B1E
:2041A0001B8898B2FB789BB26422029201937B680093102302460E48FDF770F90346FB7349
:2041C0000520FEF7E5FBFB7B002B06D1FB789BB2184600F01FF90346FB73FB7B1846103775
:2041E000BD4680BDF80B00200A0C0020080C0020280D002080B58AB004AFF8600B467A60F8
:204200007B810023FB7500233B75FB68002B02D10123FB7571E07B68B3F1FF3F0DD17A8950
:20422000384B1B689A4205D8364B1A687B89D31A7B6006E000237B6003E07B897A68D31A56
:204240007B607B689AB2304B1A80304BA1221A707B681B0CDBB203F003033B753B7D5B0024
:20426000DBB203F00603DAB2284B1B781343DAB2264B1A70254B1B7899B2234B1B889AB29B
:20428000642302937B890193FB68009310232048FDF710FA0346FB75FB7D002B02D1052087
:2042A000FEF776FB174B1B68AF2B26D87B68002B15D10023BB750AE0BB7DC3F19F031A46BC
:2042C000FB68134400221A70BB7D0133BB75BA7D0C4B1B68C3F1A0039A42EDD30DE00023C8
:2042E0007B7507E07B7DFA68134400221A707B7D01337B757B7D9F2BF4D9FB7D18461837BA
:20430000BD4680BDF80B00200A0C0020090C0020280D002080B582B000AF0023FB7100F0E5
:20432000E7F80346FB71FB79002B4BD1294BDB79552B3FD1274B9B7803F00303264A136075
:20434000254B1B681B02244A1360234B1B68214A52781343204A13601F4B1B681B021E4AA1
:2043600013601D4B1B681B4A127813431A4A1360184B5B7903F00303174A5360164B5B685B
:204380001B02154A5360144B5B68124A12791343114A5360104B5B681B020F4A53600E4BE1
:2043A0005B680C4AD27813430B4A53600B4B01221A7009E00A4B5522DA7100F013F80346F5
:2043C000FB7101E00123FB71FB7918460837BD4680BD00BF000C0020F80B0020810C0020F4
:2043E0006C00002080B582B000AF0023FB71074B00221A60054B064A5A6000F0CBF8034648
:20440000FB71FB7918460837BD4680BDF80B0020F0E7030080B582B000AF0346FB80094BB4
:204420001A68FB881344074A1360064B5A68FB88D31A044A536000F0ADF80346184608375D
:20444000BD4680BDF80B002080B582B000AF0123FB710023BB7100F04BF80346BB71BB7928
:20446000002B09D1074BDB79552B05D1064B1B78002B01D10023FB71FB7918460837BD46B7
:2044800080BD00BF000C00200C0C002080B582B000AF0123FB710023BB7100F029F803466D
:2044A000BB71BB79002B06D10E4BDB79552B02D10023FB7111E00C4B5522DA7100F06AF8AF
:2044C0000346BB71BB79002B07D1084B1B78002B03D1FFF7B9FF0346FB71FB7918460837D7
:2044E000BD4680BD000C00206C0000200C0C002080B588B004AF0023FB730023BB6000237A
:20450000FB711E4B1B78002B32D11D4BBB60BB689AB21C4B1A801C4BA1221A70BB681B0C14
:20452000DBB203F00303FB71FB795B00DBB203F00603DAB2144B1B781343DAB2124B1A70EA
:20454000114B1B7899B20F4B1B889AB264230293082301930D4B009310230D48FDF7AAF8F4
:204560000346FB73FB7B002B02D10520FEF710FAFB7B18461037BD4680BD00BF0C0C00209A
:20458000F8E703000A0C0020090C0020000C0020280D002080B588B004AF0023FB73364B1B
:2045A000BB600023FB71354B1B78002B5FD1344B1B68DAB2334B1A70314B1B681B0ADAB29D
:2045C000304B5A702E4B1B681B0CDBB203F00303DAB22C4B9A702A4B5B68DAB2294BDA705E
:2045E000274B5B681B0ADAB2264B1A71244B5B681B0CDBB203F00303DAB2224B5A71BB6813
:204600009AB2214B1A80214BA0221A70BB681B0CDBB203F00303FB71FB795B00DBB203F005
:204620000603DAB2194B1B781343DAB2174B1A70164B1B7899B2144B1B889AB26423029377
:20464000082301930F4B009310231148FCF726FF0346FB73FB7B002B02D10520FEF798F934
:20466000FB7B002B03D100F015F80346FB73FB7B18461037BD4680BDF8E703000C0C00209C
:20468000F80B00206C0000200A0C0020080C0020280D002080B584B000AF0023FB730023E0
:2046A000BB7300237B730023BB6000237B6047E0FFF71EFF0346FB732A4B9B7803F003030D
:2046C000BB60BB681B02BB60264B5B781A46BB681343BB60BB681B02BB60224B1B781A4671
:2046E000BB681343BB601F4B5B7903F003037B607B681B027B601B4B1B791A467B681343A6
:204700007B607B681B027B60164BDB781A467B6813437B60144B1A68BB689A4207D1124BA6
:204720005A687B689A4202D1FB7B002B06D07B7B01337B730520FEF72BF901E00123BB7325
:204740007B7B012B02D8BB7B002BB1D0BB7B002B02D1064B01221A70FB7B18461037BD462B
:2047600080BD00BF000C0020F80B00200C0C002080B586B002AF0023FB733B1D00221A6015
:204780009A8000233B73184B1B7A012B08D1174B1B7A002B04D1154B01221A7201F0C6F87C
:2047A000134B9B7B0F2B00F0A680114B9A7B114B9B7B9A4200F09F800D4B9A7B0D4B9A7395
:2047C0000121002001F0B4FC0B4B01221A700121022001F0ADFC084B01229A70074B012220
:2047E0001A700023BB731DE0B40D0020280C002024050020740000201C0C00201F0C00203C
:20480000B64B9B7B1A46BB7B42FA03F303F00103002B04D1BB7B00211846FFF751FCBB7B94
:204820000133BB73BB7B032BEAD901F07FF8AB4B9B7B9AB2AA4B1A80A84B9B7B03F00103A0
:20484000002B10D1A64B1A88A64B019301230093032343F20101022002F0DAFC03461A468D
:20486000FB7B1343FB739D4B9B7B03F00203002B10D19B4B1A889B4B01930223009303231C
:2048800043F20201022002F0C3FC03461A46FB7B1343FB73914B9B7B03F00403002B10D132
:2048A0008F4B1A888F4B019303230093032343F20701022002F0ACFC03461A46FB7B1343C1
:2048C000FB73864B9B7B03F00803002B10D1844B1A88844B019304230093032343F2080187
:2048E000022002F095FC03461A46FB7B1343FB737B4B00221A80794B1B7C3F2B33D0774B24
:204900001A7C794B1B7C9A422DD0744B1A7C764B1A740121022001F00BFC744B01229A7001
:204920000121012001F004FC704B01225A70704B01221A70694B1B7C9AB2694B1A80684B9B
:204940001A88684B019301230093042341F20301022002F05DFC03461A46FB7B1343FB7309
:204960005F4B00221A80634B9B78012B2AD1624B9B78012B26D0604B01229A7001210020ED
:2049800001F0D6FB594B01221A700121022001F0CFFB564B01229A70554B01221A70504B4F
:2049A0001A88504B019301230093012341F20101022002F02DFC03461A46FB7B1343FB73F6
:2049C00000F0B4FF4B4BDB78012B23D14A4BDB78012B1FD0484B0122DA700121012001F0F4
:2049E000A7FB424B01225A70414B01221A703C4B1A883C4B019301230093022341F202010C
:204A0000022002F005FC03461A46FB7B1343FB7300F08CFF374B1B79012B22D1364B1B79D9
:204A2000012B1ED0344B01221A71304B01229A702E4B01225A702E4B01221A70284B1A88E6
:204A4000284B019301230093022341F20301022002F0DEFB03461A46FB7B1343FB7300F07C
:204A600065FF244B1B78012B2BD1234B1B78012B27D0214B01221A700121022001F058FBE3
:204A80001A4B01229A701A4B01221A70FBF716FF134800F0D9FF124B1A88124B0193012334
:204AA0000093022342F20501022002F0B1FB03461A46FB7B1343FB73094B00221A8000F061
:204AC00035FF0C4B5B79012B18D10B4B5B79012B14D0094B01225A7110E000BF24050020EE
:204AE000160C0020180C0020740000201C0C00201F0C0020B40D0020280C0020AE4B5B7808
:204B0000012B25D1AD4B5B78012B21D0AB4B01225A700121022001F00BFBA94B01229A704C
:204B2000A84B01221A70FBF7C9FEA74B1A88A74B019301230093022342F20201022002F0DB
:204B400067FB03461A46FB7B1343FB7300F0EEFE9F4B5B7A012B13D19D4B00225A729A4BAA
:204B60001A889A4B019301230093022342F20601022002F04DFB03461A46FB7B1343FB73C4
:204B8000934B9B7A012B13D1914B00229A728E4B1A888E4B019301230093022342F20A0105
:204BA000022002F035FB03461A46FB7B1343FB73874BDB7A002B1AD0854BDB7A9BB2013BE4
:204BC0009AB2814B1A80804B1A88804B019301230093022342F20601022002F019FB0346CF
:204BE0001A46FB7B1343FB73794B0022DA72784B1B7B002B1AD0764B1A7B764B1B7B9A42F2
:204C000014D0734B1A7B734B1A736F4B1A886F4B019301230093022344F21101022002F030
:204C2000F7FA03461A46FB7B1343FB73684B5B7B002B2AD0664B5A7B664B5B7B9A4224D015
:204C4000634B5A7B634B5A735F4B1A885F4B019301230093022344F21201022002F0D8FAC1
:204C600003461A46FB7B1343FB73594B1B78012B0BD10121022001F05BFA514B01229A70BF
:204C8000504B01221A7000F051FE4B4BDB79012B23D14A4BDB79012B1FD0484B0122DA717E
:204CA0000121022001F044FA454B01229A70454B01221A70444B1A88444B0193012300937C
:204CC000022342F20901022002F0A2FA03461A46FB7B1343FB7300F029FE374B9B79002B06
:204CE00011D0364B9B79002B0DD1334B9A79334B9A710121022001F01BFA314B01229A7028
:204D0000304B01221A70324B1B7D002B22D0304B1A7D304B1B7D9A421CD02D4B1A7D2D4BC5
:204D20001A752B4B1B7D9AB2274B1A80264B1A88264B019301230093022342F20301022030
:204D400002F066FA03461A46FB7B1343FB731E4B00221A801E4BDB7C002B22D01C4BDA7C5F
:204D60001C4BDB7C9A421CD0194BDA7C194BDA74174BDB7C9AB2144B1A80134B1A88134BE5
:204D8000019301230093022342F20401022002F03FFA03461A46FB7B1343FB730A4B0022C3
:204DA0001A800B4B93F88134012B39D1094B93F88134002B34D10FE0B40D0020280C0020A5
:204DC0001C0C00201F0C0020160C0020180C002024050020740000208E4B012283F88124C1
:204DE0000121022001F0A4F98B4B01229A708B4B01221A708A4B00221A80894B1A88894B80
:204E0000019301230093022342F20C01022002F0FFF903461A46FB7B1343FB7300F086FD7F
:204E200000237B732FE07B7B7A4A342101FB03F313447D331A787B7B7B49342000FB03F3B9
:204E40000B447D331B789A4216D07B7B7A7B7649342000FB02F20A447D3210786D4A342180
:204E600001FB03F313447D3302461A706F4B1B780133DAB26D4B1A707B7B184600F0DEF8FE
:204E80007B7B01337B737B7B132BCCD9674B1B78012B1FD90121022001F04AF95E4B012274
:204EA0009A705E4B01221A705D4B00221A805C4B1A885C4B019301230093022342F20B018E
:204EC000022002F0A5F903461A46FB7B1343FB7300F02CFD564B1B68002B24D0544B1A68C0
:204EE000544B1B689A421ED0514B1B68514A13604F4B1B681B0CDBB23B714D4B1B681B0ADC
:204F0000DBB27B714A4B1B68DBB2BB713B1D1A4600210420FEF7C2FE454B1B68464A93421D
:204F200001D100F003FD3D4B1B78012B64D13B4B00221A7001F0E4F803463B73384B002298
:204F40001A800520FDF724FD334B1B78012B17D13B7B03F00103002B12D0314B1A88314B04
:204F6000019301230093022341F21701022002F04FF903461A46FB7B1343FB7300F0D6FC75
:204F8000254B9B78012B19D13B7B5B08DBB203F00103002B12D0224B1A88224B019301239A
:204FA0000093022341F21801022002F031F903461A46FB7B1343FB7300F0B8FC164B5B78F4
:204FC000012B19D13B7B9B08DBB203F00103002B12D0134B1A88134B019301230093022303
:204FE00041F21901022002F013F903461A46FB7B1343FB7300F09AFC0B4B93F88024FB7BE0
:205000001343DAB2084B83F8802400BF1037BD4680BD00BF740000201C0C00201F0C002010
:20502000160C0020180C002024050020140C0020200C0020240C0020FFFF0F0080B588B04B
:2050400002AF0346FB710023FB750023BB7500237B750023FB740023BB740023FB73002359
:20506000BB7300237B7400233B7400237B73FB79132B00F24984FB79C54A342101FB03F3D2
:20508000134499331B78012B4BD1FB79C14A342101FB03F3134499331B78012B41D0FB79E5
:2050A000BC4A342101FB03F31344993301221A700121022001F03CF8B74B01229A70B74B39
:2050C00001221A7007F10D02FB791146184605F0EDFA03461A46BB7D1343BB757B7B002199
:2050E0001846FEF7EDFF00F021FC01237B75FB79A74A342101FB03F313449A331B78BB74BE
:20510000A74B1A88A74B0193BB7C0093052345F20701022002F07CF803461A46FB7D134345
:20512000FB75FB799A4A342101FB03F3134498331B78012B24D1FB79964A342101FB03F3EF
:20514000134498331B78012B1AD0FB79914A342101FB03F31344983301221A7001237B750B
:20516000904B0193FB7900930423002244F21601022002F04DF803461A46FB7D1343FB75E3
:20518000FB79834A342101FB03F313449C331B78012B2ED1FB797F4A342101FB03F31344C8
:2051A0009C331B78002B24D1FB797A4A342101FB03F313449C3301221A700121022000F0E7
:2051C000B7FF754B01229A70744B01221A70754B0193FB7900930423002241F216010220B0
:2051E00002F016F803461A46FB7D1343FB7500F09DFBFB79664A342101FB03F313447033DB
:205200001B78012B24D1FB79624A342101FB03F3134470331B78012B1AD0FB795D4A342160
:2052200001FB03F31344703301221A705D4B0193FB7900930423002244F20101022001F0FE
:20524000E7FF03461A46FB7D1343FB7500F06EFBFB794F4A342101FB03F3134471331B7846
:20526000012B24D1FB794B4A342101FB03F3134471331B78002B1AD1FB79464A342101FBC4
:2052800003F31344713301221A70464B0193FB7900930423002244F21401022001F0B8FFE6
:2052A00003461A46FB7D1343FB7501237B75FB79374A342101FB03F313449E331B78012BD0
:2052C00049D1FB79334A342101FB03F313449E331B78002B3FD1FB792E4A342101FB03F353
:2052E00013449E3301221A7007F10D02FB791146184605F0DBF903461A46BB7D1343BB7579
:205300007B7B00211846FEF7DBFE254B1A88254B0193FB790093042344F21501022001F0A7
:2053200077FF03461A46FB7D1343FB7501237B750121002000F0FCFE174B01221A7001219F
:20534000012000F0F5FE144B01225A70134B01221A7000F0EBFAFB790D4A083312F82330BA
:20536000012B34D1FB790B4A083312F82330012B2DD0FB79074A0833012102F82310FB79AF
:20538000034A08339B0013445A88054B1A800BE024050020740000201C0C00201F0C00206C
:2053A000160C0020180C0020C14B1A88C14B0193FB790093042344F20201022001F028FF78
:2053C00003461A46FB7D1343FB7501237B75FB79B94A342101FB03F313449D331B78012B2E
:2053E0001AD1FB79B54A342101FB03F313449D331B78002B10D1AE4B1A88AE4B0193FB79A6
:205400000093042344F20A01022001F001FF03461A46FB7D1343FB75FB79A74A342101FBE1
:2054200003F3134494331B78012B4BD10121022000F07EFEA24B01229A70A24B01221A7019
:20544000FB799D4A342101FB03F313449B331B78FB74F97CFB790122184604F083FF03465A
:205460001A46BB7D1343BB75FB79934A342101FB03F313449A331B78BB74FB798E4A3421EF
:2054800001FB03F313447A331B789AB2884B1A80874B1A88874B0193BB7C0093052345F2C7
:2054A0000501022001F0B4FE03461A46FB7D1343FB75FB79804A342101FB03F31344943397
:2054C00000221A70FB797C4A342101FB03F3134495331B78012B4BD10121022000F028FE4B
:2054E000774B01229A70774B01221A70FB79724A342101FB03F313449B331B78FB74F97C3B
:20550000FB790122184604F02DFF03461A46BB7D1343BB75FB79684A342101FB03F313444B
:205520009A331B78BB74FB79634A342101FB03F313447A331B789AB25D4B1A805C4B1A8806
:205540005C4B0193BB7C0093052345F20401022001F05EFE03461A46FB7D1343FB75FB7918
:20556000554A342101FB03F31344953300221A70FB79514A342101FB03F3134496331B7871
:20558000012B4BD10121022000F0D2FD4C4B01229A704C4B01221A70FB79474A342101FB62
:2055A00003F313449B331B78FB74F97CFB790122184604F0D7FE03461A46BB7D1343BB7534
:2055C000FB793D4A342101FB03F313449A331B78BB74FB79384A342101FB03F313447B3361
:2055E0001B789AB2324B1A80314B1A88314B0193BB7C0093052345F20201022001F008FE42
:2056000003461A46FB7D1343FB75FB792A4A342101FB03F31344963300221A70FB79264AC4
:20562000342101FB03F3134497331B78012B59D10121022000F07CFD214B01229A70214B67
:2056400001221A70FB791C4A342101FB03F313449B331B78FB74F97CFB790122184604F0F7
:2056600081FE03461A46BB7D1343BB75FB79124A342101FB03F313449A331B78BB74FB79D3
:205680000D4A342101FB03F313447B331B789AB2074B1A80064B1A88064B0193BB7C0093FA
:2056A000052345F20101022001F0B2FD0CE000BF160C0020180C00202405002074000020B9
:2056C0001C0C00201F0C002003461A46FB7D1343FB75FB79904A342101FB03F3134497339A
:2056E00000221A70FB798C4A342101FB03F3134472331B78002B3FD0FB79874A342101FB0E
:2057000003F3134472331A78FB798449342000FB03F30B4472331B789A422DD0FB79FA7938
:205720007D49342000FB02F20A44723210787B4A342101FB03F31344723302461A70FB7998
:20574000754A342101FB03F3134474331A88744B1A80734B1A88734B0193FB79009304236A
:2057600044F20301022001F053FD03461A46FB7D1343FB7501237B75FB79674A342101FB1B
:2057800003F313447C331B78002B64D0FB79624A342101FB03F313447C331A78FB795F4900
:2057A000342000FB03F30B447C331B789A4252D0FB79594A342101FB03F313447C331A781F
:2057C000FB795649342000FB03F30B447C331B78D31A3B7400233B7529E03A7C3B7D42FABE
:2057E00003F3DBB203F001037B747B7C012B1BD1397DFB790122184604F0B4FD03461A4638
:20580000BB7D1343BB75464B1A88464B0193FB79009304234FF4A041022001F0F9FC0346CF
:205820001A46FB7D1343FB753B7D01333B753B7D052BD2D9FB79FA793749342000FB02F2F1
:205840000A447C321078354A342101FB03F313447C3302461A7007F10E02FB7911461846F5
:2058600004F0ECFE03461A46BB7D1343BB75BB7BDB43DBB203F03F03DBB2BB7307F10F0209
:20588000FB791146184604F04BFD03461A46BB7D1343BB75BB7D002B05D1BA7BFB7B9A427C
:2058A00001D101237B757B7D012B1CD1FB7901229A401D4B1B6813431B4A1360FB790121D1
:2058C000184604F0A5FD03461A46BB7D1343BB75BA7BFB791146184604F0CCFD03461A46A9
:2058E000BB7D1343BB750C4B93F88024FB7D1343DAB2094B83F88024BB7D002B08D0064B0B
:20590000012283F8812403E0034B012283F8812400BF1837BD4680BD2405002074000020A5
:20592000160C0020180C0020200C002080B584B002AF3E4B1B78052B74D00023FB713B46DB
:2059400000221A609A80394B1B78032B28D13B461A4600210020FEF7A1F9FDF70DF8024661
:20596000334B1B68D31A334AA2FB03239B09304A1360314B1A682E4B1B6813442E4A13602C
:205980002E4B0193012300930123002241F20701012001F03DFC03461A46FB791343FB7198
:2059A000224B1B78042B15D13B461A4600210020FEF774F9214B0193012300930123002251
:2059C00041F20B01012001F023FC03461A46FB791343FB711A4B1B7B022B08D13B461A4696
:2059E00000210020FEF75AF9154B00221A730F4B05221A70134B1A88104B0193012300935E
:205A0000012341F21301012001F002FC03461A46FB791343FB71FB79002B03D0034B012249
:205A200083F8802400BF0837BD4680BD24050020AC0D0020D34D6210B00D0020180C002034
:205A4000A8100020160C002080B485B000AF78604FF00003FB600023FB720023BB72214B53
:205A60001B7807EE903AF8EE677AC7ED037AD7ED037AFCEEE77AC7ED007A3B78BB72BB7A0D
:205A800007EE903AF8EEE77A97ED037A77EE677AC7ED037AD7ED037A9FED137A67EE877AD8
:205AA000C7ED037AD7ED037AFCEEE77AC7ED007A3B78FB72BB7A9AB27B681A807B681B8857
:205AC0001B029AB27B681A807B681A88FB7A9BB213439AB27B681A8000BF1437BD465DF818
:205AE000047B7047A80B00200000C84280B489B000AF244BFB600023BB6000237B6000234E
:205B0000FB774FF00063BB61BB697B611E4B1B6B03F480533B603B68002B29D0FB689B68D4
:205B200043F00102FB689A6000233B610BE07B691A68FB681A60BB690433BB61BB697B616E
:205B40003B6901333B613B694FF6FE729342EED9FB681B68BB600D4B1B687B60BA687B6820
:205B60009A4202D10023FB7704E00123FB7701E00123FB77FB7F18462437BD465DF8047BE6
:205B8000704700BF0030024000380240FCFF030880B485B000AF78603960184B1B69FB60D2
:205BA0000023FB727B68002B21D03B68002B1ED0FA6840F6DB731340FB60FB685B08DBB2B3
:205BC00003F00C03FB72FB685BB203F003035AB297F90B3013435BB2DAB27B681A70FB6857
:205BE0009B09DBB203F03F03DAB23B681A7000BF1437BD465DF8047B704700BF00100240DD
:205C000080B586B000AFF860B9607A600023FB75FB6800221A7000233B61BB68002B21D07F
:205C2000FB68002B1ED07B68002B1BD0114B1B693B613B691B0BDBB203F00303DAB2BB6874
:205C40001A704FF400410B48FBF766FA03461A467B681A70BB681B78032B05D1FB6801223B
:205C60001A7001E00123FB75FB7D18461837BD4680BD00BF0010024080B582B000AF002376
:205C8000FB714FF480410648FBF746FA0346012B01D10123FB71FB7918460837BD4680BDEC
:205CA00000100240B0B58CB000AF002387F82F300023BB62002387F82730002387F8263010
:205CC000002387F82530012387F82430022387F82330032387F82230072387F82130494B5A
:205CE0003C1D1D460FCD0FC495E8070084E80700002387F82E306CE097F82F30002B63D1A9
:205D000097F8252097F82E101346DB009B1A07F1300213440B442C3B1B781A464FF400612B
:205D20003948FBF747FA97F8242097F82E101346DB009B1A07F1300213440B442C3B1B785C
:205D40001A464FF480513048FBF734FA0520FCF71FFE2E4B1B69BB62BB6A1B0BDBB203F01D
:205D6000030387F827304FF400412848FBF7D4F9034687F8263097F8232097F82E1013467E
:205D8000DB009B1A07F1300213440B442C3B1B7897F827209A4210D197F8222097F82E1078
:205DA0001346DB009B1A07F1300213440B442C3B1B7897F826209A4206D00121022000F075
:205DC000B7F9012387F82F3097F82E30013387F82E3097F82E2097F821309A428CD30122F8
:205DE0004FF400610848FBF7E5F901224FF480510548FBF7DFF997F82F3018463037BD46DB
:205E0000B0BD00BF6CBA0008000C024000100240B0B588B000AF0023FB7700237B7702236D
:205E20003B770323FB760023BB7601237B7602233B760723FB75504B3C461D460FCD0FC411
:205E400095E803002060043421703B7F4B4ADB00134458683B7F494A32F833301946FBF70D
:205E60005BF90346BB75FB7E444ADB0013445868FB7E424A32F833301946FBF74DF90346EA
:205E80007B750023BB7754E0FB7F002B4ED13B7F3A4ADB00134458683B7F384A32F83340BC
:205EA000BA7EB97F1346DB009B1A07F1200213440B44203B1B781A462146FBF77BF9FB7E35
:205EC0002E4ADB0013445868FB7E2C4A32F833407A7EB97F1346DB009B1A07F12002134442
:205EE0000B44203B1B781A462146FBF763F90520FCF74EFD00F004F903465B08DBB203F0D4
:205F000001037B773A7EB97F1346DB009B1A07F1200213440B44203B1B787A7F9A4205D05A
:205F20000123FB770121012000F002F9BB7F0133BB77BA7FFB7D9A42A6D33B7F0F4ADB0009
:205F4000134458683B7F0D4A32F83330BA7D1946FBF730F9FB7E094ADB0013445868FB7EA4
:205F6000064A32F833307A7D1946FBF723F9FB7F18462037BD46B0BD88BA00084CBA0008E9
:205F8000B0B588B000AF5D4B07F108041D460FCD0FC42B6823600023FB710023BB710023E0
:205FA0003B770023FB7700233B710123BB77FA1DBB1D11461846FFF7EBFD00F0A1F8034621
:205FC0003B77FB793F2B0BD03B7F9B08DBB203F00103002B02D10023BB7701E00123FB77AB
:205FE00000237B7777E0FB7F002B71D1FB791A467B7F07F120010B4413F8183C42FA03F387
:2060000003F00103002B63D001233B717B7F0133DBB23A1D19460720FDF740FE0A20FCF774
:20602000B7FCFA1DBB1D11461846FFF7B1FD00F067F803463B77FB791A467B7F07F1200134
:206040000B4413F8183C42FA03F303F00103002B01D00123FB77BB7F012B08D13B7F9B083B
:20606000DBB203F00103002B01D00123FB7700233B713B1D1A4600210720FDF70FFE0A2010
:20608000FCF786FCFA1DBB1D11461846FFF780FD00F036F803463B77FB791A467B7F07F195
:2060A00020010B4413F8183C42FA03F303F00103002B01D10123FB77BB7F012B08D13B7F5C
:2060C0009B08DBB203F00103002B01D10123FB777B7F01337B777B7F132B84D9FB7F012BAB
:2060E00007D10121012000F023F80121022000F01FF8FB7F18462037BD46B0BDA0BA00082E
:2061000080B483B000AF0023FB71084B1B693B603B689B08DBB203F00703FB71FB7918465A
:206120000C37BD465DF8047B704700BF000C024080B582B000AF03460A46FB711346BB71E1
:20614000FB79022B1ED8FB79104ADB0013445868FB790E4A32F83330BA791946FBF72AF8E9
:20616000FB79022B0ED1FB790133084ADB0013445868FB790133054A32F83330BA7919469D
:20618000FBF718F800BF0837BD4680BD4CBA000880B500AF10211348FBF764F8124B9B7C7F
:2061A000002B12D1104B5B7C002B0ED10E4B9B69002B0AD10C4BDB69002B06D1FFF7A0FF00
:2061C000034603F00703072B05D0002220210548FAF7F0FF04E0012220210248FAF7EAFF76
:2061E00000BF80BD000802402405002080B584B000AF78600023FB73012240497868FDF70F
:2062000032FA0346002B74D13D4B1B781D2B0FD93B4B00221A700023BB7306E0BB7B394A2C
:206220000021D154BB7B0133BB73BB7B1D2BF5D9334B1B781A46314B1978324B9954304BD1
:206240001B780133DAB22E4B1A702D4B1B78022B17D12C4B1B78552B03D12A4B5B78332BC4
:206260000FD0274B00221A7000237B7306E07B7B244A0021D1547B7B01337B737B7B1D2B2A
:20628000F5D91F4B1B78032B03D11E4B9A781E4B1A701B4B1B781A461B4B1B7807339A425B
:2062A00027D10023FB7308E0FB7BFA7B1549895C164AD154FB7B0133FB73FA7B124B1B783D
:2062C00007339A42F0D3104B00221A700C4B00221A7000233B7306E03B7B0A4A0021D154D4
:2062E0003B7B01333B733B7B1D2BF5D9084B01221A7000BF1037BD4680BD00BFF804002019
:206300007B0C00203C0C00207D0C00205C0C00207A0C002080B582B000AF0023BB712D4BBA
:206320001B78012B51D12C4B00221A702B4B9B78BB71BB799BB208339BB219462748FDF7D9
:20634000F9FD0346002B26D1254B1B780133DAB2234B1A70214BDA78214B1B789A4206D0B2
:206360001D4B1B7843F00103DAB21B4B1A7000F03BF8194B00221A70194B1B78FF2B03D147
:20638000174B01221A700DE0154B1B780133DAB2134B1A7006E0104B1B7843F00803DAB2C8
:2063A0000D4B1A700023FB7106E0FB790B4A0021D154FB790133FB71FB791D2BF5D9094B85
:2063C00000221A70034B00221A7000BF0837BD4680BD00BF7A0C00207C0C00205C0C002044
:2063E000F90400207B0C002080B582B000AF0023FB800023BB803E4B5B79302B5CD0302B88
:2064000004DC102B07D0202B2CD068E0402B4ED0502B54D063E0364B9B79013B042B1CD89C
:2064200001A252F823F000BF3D64000843640008496400084F6400085564000800F070FCB8
:206440000FE000F009FB0CE000F0CEFB09E000F075F906E000F010FD03E0264B02221A7088
:2064600000BF41E0224B9B791B021AB2204BDB791BB213431BB2BB80BB88B3F5007F03D3A8
:20648000BB88B3F5257F03D31A4B02221A702AE0194B1B7B002B26D1184B1B78022B22D148
:2064A000154ABB885380144B01221A731BE000F091FA00F0E1FC17E000F07CFE14E00C4B69
:2064C0009B791B021AB20A4BDB791BB213431BB2FB80FB881946012000F084FE04E0054B02
:2064E00002221A7000E000BF00BF0837BD4680BD5C0C00207C0C0020A810002024050020C0
:2065000080B5A0B000AF3B1D78220021184605F059F9002387F87F30002387F87E300023CB
:20652000FB700023BB7097F87E305A1C87F87E2007F180021344552203F87C2C97F87E30AA
:206540005A1C87F87E2007F180021344332203F87C2C97F87E305A1C87F87E2007F1800295
:2065600013441E2203F87C2C97F87E305A1C87F87E2019466E4B1A7807F180030B4403F8A2
:206580007C2C97F87E305A1C87F87E201946694B1A7807F180030B4403F87C2C97F87E3034
:2065A0005A1C87F87E2007F180021344012203F87C2C97F87E305A1C87F87E2019465E4BD9
:2065C0001A7807F180030B4403F87C2C97F87E305A1C87F87E201946574B1A7D07F18003D9
:2065E0000B4403F87C2C97F87E305A1C87F87E201946514BDB69DAB207F180030B4403F849
:206600007C2C97F87E305A1C87F87E2019464A4BDB691B0ADAB207F180030B4403F87C2CAC
:2066200097F87E305A1C87F87E201946424BDB691B0CDBB203F00F03DAB207F180030B444B
:2066400003F87C2C97F87E305A1C87F87E201946394B1A7A07F180030B4403F87C2C97F854
:206660007E305A1C87F87E201946334B9B7BDB43DBB203F00F03DAB207F180030B4403F8E5
:206680007C2C97F87E305A1C87F87E2019462A4B1B7CDB43DBB203F03F03DAB207F1800330
:2066A0000B4403F87C2C97F87E305A1C87F87E201946214BDA7C07F180030B4403F87C2C8A
:2066C000002387F87F3026E0FA1C97F87F301146184603F005FEBA1C97F87F30114618469B
:2066E00003F01EFE97F87E305A1C87F87E201946FB789B01DAB2BB7803F03F03DBB2134376
:20670000DAB207F180030B4403F87C2C97F87F30013387F87F3097F87F30132BD4D93B1D5F
:206720002321184600F0EAFC00BF8037BD4680BDF90400207C0C00202405002080B5A0B098
:2067400000AF3B1D78220021184605F03BF8002387F87F3097F87F305A1C87F87F2007F1D6
:2067600080021344552203F87C2C97F87F305A1C87F87F2007F180021344332203F87C2C8B
:2067800097F87F305A1C87F87F2007F180021344082203F87C2C97F87F305A1C87F87F20B7
:2067A0001946434B1A7807F180030B4403F87C2C97F87F305A1C87F87F2019463D4B1A78A2
:2067C00007F180030B4403F87C2C97F87F305A1C87F87F2007F180021344142203F87C2CD0
:2067E00097F87F305A1C87F87F201946324B1B881B0A9BB2DAB207F180030B4403F87C2CDD
:2068000097F87F305A1C87F87F2019462A4B1B88DAB207F180030B4403F87C2C97F87F30F8
:206820005A1C87F87F201946234B9A7807F180030B4403F87C2C97F87F305A1C87F87F20A6
:2068400019461D4BDA7807F180030B4403F87C2C97F87F305A1C87F87F201946164B1A798D
:2068600007F180030B4403F87C2C97F87F305A1C87F87F201946104B93F90530DAB207F1DA
:2068800080030B4403F87C2C97F87F300A4A92F90620D2B207F180010B4403F87C2C3B1DF9
:2068A0000D21184600F02AFC00BF8037BD4680BDF90400207C0C0020A010002080B5AEB058
:2068C00000AF78600B46FB7007F10C03AA220021184604F077FF002387F8B730002387F88E
:2068E000B63097F8B7305A1C87F8B72007F1B8021344552203F8AC2C97F8B7305A1C87F8B2
:20690000B72007F1B8021344332203F8AC2C97F8B7305A1C87F8B7201946FB780133DAB29B
:2069200007F1B8030B4403F8AC2C97F8B7305A1C87F8B7201946254B1A7807F1B8030B44DD
:2069400003F8AC2C97F8B7305A1C87F8B72019461F4B1A7807F1B8030B4403F8AC2C97F863
:20696000B7305A1C87F8B72007F1B8021344552203F8AC2C002387F8B63014E097F8B7301F
:206980005A1C87F8B72019467B681A7807F1B8030B4403F8AC2C97F8B630013387F8B63074
:2069A0007B6801337B6097F8B620FB789A42E5D3FB780633DAB207F10C031146184600F095
:2069C0009DFB00BFB837BD4680BD00BFF90400207C0C002080B582B000AF0623FB713B4681
:2069E00000221A60C3F80320FB795A1CFA711A46184B9B5CBB71FB795A1CFA711A46154BCD
:206A00009B5C7B71FB795A1CFA711A46114B9B5C3B71FB795A1CFA711A460E4B9B5CBB70AF
:206A2000FB795A1CFA711A460A4B9B5C7B70FB795A1CFA711A46074B9B5C3B703B461846E2
:206A4000FBF7FCFF3B461846FCF7C6F800BF0837BD4680BD5C0C002080B5A0B000AF3B1D67
:206A600078220021184604F0ADFE002387F87F30002387F87E30002387F87D3097F87F3030
:206A80005A1C87F87F2007F180021344552203F87C2C97F87F305A1C87F87F2007F180022B
:206AA0001344332203F87C2C97F87F305A1C87F87F2007F180021344162203F87C2C97F87A
:206AC0007F305A1C87F87F201946444B1A7807F180030B4403F87C2C97F87F305A1C87F853
:206AE0007F2019463E4B1A7807F180030B4403F87C2C97F87F305A1C87F87F2007F18002C4
:206B00001344122203F87C2C97F87F305A1C87F87F201946334B1A7D07F180030B4403F83C
:206B20007C2C002387F87E304BE097F87E302D4A08339B0013445B881B0B9BB2DBB203F07B
:206B40000103DAB297F87D30134387F87D3097F87E30244A08339B0013445B885B0B9BB279
:206B6000DBB25B00DBB203F00203DAB297F87D30134387F87D3097F87E301A4A08339B00E7
:206B800013445B88DBB29B00DBB203F00403DAB297F87D30134387F87D3097F87F305A1C0E
:206BA00087F87F2007F18002134497F87D2003F87C2C002387F87D3097F87E30013387F8D8
:206BC0007E3097F87E30132BAFD93B1D1B21184600F094FA00BF8037BD4680BDF9040020C1
:206BE0007C0C00202405002080B5A0B000AF3B1D78220021184604F0E5FD002387F87F30D8
:206C0000002387F87E3097F87F305A1C87F87F2007F180021344552203F87C2C97F87F3029
:206C20005A1C87F87F2007F180021344332203F87C2C97F87F305A1C87F87F2007F18002AB
:206C40001344172203F87C2C97F87F305A1C87F87F2019462F4B1A7807F180030B4403F8FF
:206C60007C2C97F87F305A1C87F87F2019462A4B1A7807F180030B4403F87C2C97F87F3089
:206C80005A1C87F87F2007F180021344132203F87C2C97F87F305A1C87F87F2019461F4B1C
:206CA0001A7807F180030B4403F87C2C97F87F305A1C87F87F201946184B5A7807F18003F4
:206CC0000B4403F87C2C002387F87E3014E097F87F305A1C87F87F20194697F87E300F4AB7
:206CE00013449A7807F180030B4403F87C2C97F87E30013387F87E3097F87E30132BE6D9E6
:206D00003B1D1C21184600F0F9F900BF8037BD4680BD00BFF90400207C0C0020A809002093
:206D200080B5A0B000AF3B1D78220021184604F049FD002387F87F30002387F87E3097F844
:206D40007F305A1C87F87F2007F180021344552203F87C2C97F87F305A1C87F87F2007F13B
:206D600080021344332203F87C2C97F87F305A1C87F87F2007F1800213442B2203F87C2CAF
:206D800097F87F305A1C87F87F201946374B1A7807F180030B4403F87C2C97F87F305A1C8D
:206DA00087F87F201946324B1A7807F180030B4403F87C2C97F87F305A1C87F87F2007F110
:206DC00080021344112203F87C2C97F87F305A1C87F87F2007F180021344012203F87C2C9B
:206DE00097F87F305A1C87F87F2007F180021344002203F87C2C002387F87E3028E097F844
:206E00007F305A1C87F87F20194697F87E30194A32F813301B0A9BB2DAB207F180030B44FB
:206E200003F87C2C97F87F305A1C87F87F20194697F87E300F4A32F81330DAB207F1800374
:206E40000B4403F87C2C97F87E30013387F87E3097F87E30132BD2D93B1D3021184600F085
:206E60004DF900BF8037BD4680BD00BFF90400207C0C0020FC04002090B5A3B000AF07F133
:206E8000780300221A60C3F803203B4678220021184604F097FC002387F881300023C7F8A7
:206EA00084300023A7F882308E4B1B78032B13D1FBF762FD02468C4B1B68D31A8B4AA2FBDA
:206EC00003239B09A7F88230B7F88220884B1B681344C7F8843003E0854B1B68C7F884307D
:206EE00007F178031846FBF777FE97F881305A1C87F8812007F188021344552203F8882C85
:206F000097F881305A1C87F8812007F188021344332203F8882C97F881305A1C87F88120E8
:206F200007F1880213440E2203F8882C97F881305A1C87F8812019466E4B1A7807F1880396
:206F40000B4403F8882C97F881305A1C87F881201946694B1A7807F188030B4403F8882C37
:206F600097F881305A1C87F8812007F188021344152203F8882C97F881305A1C87F88120A6
:206F80001946D7F884301B0EDAB207F188030B4403F8882C97F881305A1C87F881201946A4
:206FA000D7F884301B0CDAB207F188030B4403F8882C97F881305A1C87F881201946D7F816
:206FC00084301B0ADAB207F188030B4403F8882C97F881305A1C87F88120D7F88420D2B2FE
:206FE00007F188010B4403F8882C97F881305A1C87F881201946B7F882301B0A9BB2DAB27E
:2070000007F188030B4403F8882C97F881305A1C87F88120B7F88220D2B207F188010B4474
:2070200003F8882C97F881305A1C87F8812097F87E2007F188010B4403F8882C97F88130DF
:207040005A1C87F8812097F87D2007F188010B4403F8882C97F881305A1C87F8812097F88A
:207060007C2007F188010B4403F8882C97F881305A1C87F8812097F87A2007F188010B4426
:2070800003F8882C97F881305A1C87F8812097F8792007F188010B4403F8882C97F8813084
:2070A0005A1C87F8812097F8782007F188010B4403F8882C97F881305A1C87F881201C465C
:2070C00000F084F803461A4607F18803234403F8882C3B461321184600F010F800BF8C3775
:2070E000BD4690BD24050020AC0D0020D34D6210B00D0020F90400207C0C002080B584B081
:2071000000AF78600B46FB700023FB6000237B817B68002B29D07B68FB60FB789BB219462B
:207120007868FCF707FF03467B81FB787A6813447B607B68002B18D07B891B0A9BB2DAB2B2
:207140007B681A707B6801337B607B89DAB27B681A70FB68002B08D0FB789BB202339AB22C
:207160003223F9680348FCF715F900BF1037BD4680BD00BF740D002080B582B000AF00232E
:20718000FB71012208490948FCF76DFA0346FB71FB79002B04D0064B1B680133044A136073
:2071A00000BF0837BD4680BDF8040020740D0020380C002080B400AF034B01221A7000BFD3
:2071C000BD465DF8047B7047800C002080B400AF034B1B781846BD465DF8047B704700BF06
:2071E000810C002080B483B000AF03460A46FB711346BB80054AFB791370044ABB88538089
:2072000000BF0C37BD465DF8047B7047840C002090B591B002AF0446084611461A4623463F
:20722000FB710346BB800B467B801346BB71002387F8373007F1240300221A605A609A6015
:20724000DA601A8207F1140300221A605A609A60DA6007F10C0300221A60C3F8032007F146
:207260000C031846FBF7B8FC3B7C87F824307B7C87F82530BB7C87F82630BB7B87F827308E
:207280007B7B87F828303B7B87F82930FB7987F82A30BB88BB857B88FB85BB7987F830302D
:2072A00097F8483087F83130FB6C1B7887F83230FB6C5B7887F83330FB6C9B7887F8343093
:2072C00007F114030193BB8EADF8003007F124030FCB00F050F807F1140310211846FCF72B
:2072E0002BFF034687F8373097F83730002B02D1044B01221A7097F8373018463C37BD467B
:2073000090BD00BF810C002080B584B000AF0346FB800023FB600023FB72FB8843F6756237
:20732000934204D9FB884FF6FF72934213D1FB88B3F57A5F04D2FB880A331B01FB6002E0B6
:207340004FF0FF33FB60FA68A0210648FCF752FF0346FB7201E00123FB72FB7A184610376A
:20736000BD4680BD880C002080B500AFFDF73AF80346184680BD84B080B582B000AF07F1E9
:20738000100E8EE80F000023FB710AE0FB797A6A1344FA7907F110018A5C1A70FB7901338E
:2073A000FB71FB79052BF1D97B6A07333A8BD2B21A707B6A08333A8B120A92B2D2B21A70AE
:2073C0007B6A09337A8BD2B21A707B8B1B0A9BB27B837B6A0A337A8BD2B21A707B6A0633B0
:2073E000BA7D1A707B6A0B333A7F1A707B6A0C337A7F1A707B6A0D33BA7F1A707B6A0E33B1
:20740000FA7F1A707B6A0F3397F820201A7000BF0837BD46BDE8804004B0704780B584B0AF
:2074200002AF0023FB712C4B1B78012B28D12B4B1B78022B24D1FFF797FF0346FB71FB79FD
:20744000002B1DD13B1D00210A461A800A469A703B1D0193012300930123002241F20E012B
:207460000120FFF7D5FE0346FB71FB79002B07D11B4B00221A70184B00221A70FFF7FCFCE7
:20748000184B1B78012B1DD1164B5B8843F67562934205D9134B5B884FF6FF72934211D127
:2074A000104B5B881846FFF72FFF0346FB71FB79002B03D1A0210C48FFF700FA094B002269
:2074C0001A7005E0074B00221A70064B00225A8000BF0837BD4680BD800C002024050020BF
:2074E000810C0020840C0020880C002080B500AF114A114B1B6843F4007313600E4A0E4B8F
:207500001B6843F4806313600B4A0B4B1B6843F4807313600320F9F761FB00F00FF800F03A
:20752000F1F800F098F8F8F763FE00F0BDF8FFF723FE00BF80BD00BF003C024080B584B034
:2075400000AF0023FB730023BB60394A384B1B6C43F080531364364B1B6C03F08053BB60BA
:2075600000237B60334A334B1B6843F440431360304B1B6803F440437B60FAF753FF034683
:207580001A46FB7B1343FB73FBF716F803461A46FB7B1343FB73FBF741F903461A46FB7B23
:2075A0001343FB73FB7B002B01D003F085FA204A1F4B1B6B43F0010313631D4A1C4B1B6BC8
:2075C00043F0020313631A4A194B1B6B43F004031363174A164B1B6B43F008031363144AA5
:2075E000134B1B6B43F010031363114A104B1B6C43F4800313640E4A0D4B1B6C43F00073A0
:2076000013640B4A0A4B5B6C43F480735364084A074B5B6C43F010035364054A044B1B6B15
:2076200043F48053136300BF1037BD4680BD00BF003802400070004080B500AF002205216F
:207640001420F9F7FFFA1420F9F777FBF8F7ECFE0346184680BD80B500AF104B104A1A60A7
:207660000E4B104A5A600D4B00229A600B4B0A22DA600A4B4FF480421A61084B00225A6168
:20768000064BFE229A61054B0022DA61034B00221A620248F9F72CFE00BF80BD280D002030
:2076A00000580040801A060080B500AF134B144A1A60124B4FF416425A60104B4FF4805256
:2076C0009A600E4B0022DA600C4B4FF4C0621A610A4B0C225A61094B00229A61074B0022A1
:2076E000DA61002203212520F9F7ACFA2520F9F724FB0248FBF75CFD00BF80BD740D0020A8
:207700000010014080B586B000AF3B4600221A605A609A60DA601A610023FB754FF4C0637F
:207720003B6002237B600123BB600323FB6007233B613B461946AD48F9F746FB03461A4679
:20774000FB7D1343FB754FF4C0533B6001237B600023BB600023FB603B461946A348F9F784
:2077600033FB03461A46FB7D1343FB7501224FF400619E48F9F71EFD00224FF480519B4823
:20778000F9F718FD4FF440633B6012237B600123BB600323FB6004233B613B461946944814
:2077A000F9F712FB03461A46FB7D1343FB7520233B6001237B600023BB600023FB603B46CB
:2077C00019468B48F9F700FB03461A46FB7D1343FB75002220218648F9F7ECFC01233B60DD
:2077E00003237B600023BB603B4619468048F9F7EBFA03461A46FB7D1343FB7502233B6026
:2078000002237B600323FB600123BB6009233B613B4619467748F9F7D7FA03461A46FB7D5F
:207820001343FB7501233B6002237B600323FB600123BB6009233B613B4619466D48F9F7B6
:20784000C3FA03461A46FB7D1343FB7530233B6001237B600023BB600023FB603B461946FB
:207860006548F9F7B1FA03461A46FB7D1343FB75012230216048F9F79DFC4FF4C0533B6043
:2078800001237B600023BB600023FB603B4619465848F9F799FA03461A46FB7D1343FB7543
:2078A00001224FF4C0515348F9F784FC4FF496533B6001237B600023BB600023FB603B4643
:2078C00019464D48F9F780FA03461A46FB7D1343FB7500224FF496514748F9F76BFC40F2FF
:2078E00012333B6001237B600023BB600023FB603B4619463E48F9F767FA03461A46FB7D15
:207900001343FB75002240F212313948F9F752FC4FF400433B6001237B600023BB600023CA
:20792000FB603B4619463148F9F74EFA03461A46FB7D1343FB7500224FF400412B48F9F76B
:2079400039FC40F6DB733B6000237B600123BB600023FB603B4619462848F9F735FA034660
:207960001A46FB7D1343FB754FF430433B6000237B600023BB600023FB603B4619461F4817
:20798000F9F722FA03461A46FB7D1343FB754FF480433B6000237B600123BB600023FB6098
:2079A0003B4619461548F9F70FFA03461A46FB7D1343FB751C233B6000237B600123BB6093
:2079C0000023FB603B4619460A48F9F7FDF903461A46FB7D1343FB75FB7D002B01D003F0C3
:2079E0006BF800BF1837BD4680BD00BF0000024000040240000C02400008024000100240A5
:207A000080B584B000AF0023FB600023BB6000237B60FFF76BFDFEF769F80346002B1FD07D
:207A200001210220FEF784FBFAF7A6FF02467B68D31A632B04D902F0C5FFFAF79DFF78605A
:207A4000FAF79AFF0246FB68D31AB3F5C87FEBD320212748F9F706FCFAF78EFFF860E3E715
:207A600002F050FF02F0A2FF0346002B20D001210220FEF75DFBFAF77FFF02467B68D31AB6
:207A8000632B04D902F09EFFFAF776FF7860FAF773FF0246BB68D31A40F2DB529342EAD9FC
:207AA00020211348F9F7DEFBFAF766FFB860E2E702F0BAFBFCF72EFC03461A460D4B5A719A
:207AC000FAF780FF0346002B03D00B4B012283F88124FFF7B1FD03461A46064B5A7000F0FE
:207AE0000DF800F07BF800BF1037BD4680BD00BF00080240B40D00202405002080B500AFC1
:207B000002F022FE0346002B09D0324B1B7D43F00203DAB22F4B1A752F4B01221A702E4B84
:207B20005B79002B0ED1FCF7B1FC0346012B09D1284B1B7D43F00103DAB2264B1A75264B39
:207B400001225A71244B5B78002B06D0214B1B7D43F00403DAB21F4B1A75FEF759F90346A1
:207B6000012B09D11B4B1B7D43F04003DAB2194B1A75194B0122DA70FEF794F80346012B45
:207B800009D1144B1B7D43F01003DAB2114B1A75114B0122DA71FCF705FA0346012B0DD148
:207BA0000C4B1B7D43F02003DAB20A4B1A750A4B01229A7000210420FCF782FA054B1B7DF2
:207BC000002B04D0034B01229A74FCF7D1FD00BF80BD00BF24050020B40D002090B58BB001
:207BE00002AF0023FB770023BB7707F1080300221A60C3F8032000233B6100237B77002376
:207C00003B773B1D00210A461A800A469A70C04B1B78012B40F0FE8200237B8309E002F07F
:207C2000D1FE40F28A20FAF7B3FE7B8B03F28A237B837B8B40F627229342F0D9B54BDB79DA
:207C4000002B0ED100224FF40061B348F9F7B2FA00224FF48051B048F9F7ACFA0A20FAF7DE
:207C600097FE00237B7667E102F0ACFE7B7EAB4A4FF6FF7122F813107B7EA54A0833012152
:207C800002F823107B7EA24A08339B0013444FF6FF725A807B7E9E4A342101FB03F3134496
:207CA000703301221A707B7E994A342101FB03F31344713300221A707B7E954A342101FB81
:207CC00003F31344773300221A707B7E904A342101FB03F31344903301221A607C7EFAF745
:207CE0004BFE01468A4A342303FB04F313448C331960FAF741FE38617B7E0133DBB207F1CA
:207D0000080219460320FBF7C9FF01237B7700233B773FE07B7E7E4A342101FB03F31344B4
:207D200090331B68012B20D07B7E794A342101FB03F313448C331A687B7E7549342000FB40
:207D400003F30B4490331B689A420ED87B7E704A342101FB03F31344703300221A70002313
:207D60007B770A20FAF714FE14E03B7F002B11D1FAF702FE02463B69D31A312B0AD97B7E27
:207D80000133DBB207F1080219460320FBF786FF01233B77FAF7F0FD02463B69D31AF92B76
:207DA00002D87B7F012BB5D07B7F012B08D17B7E574A342101FB03F31344983301221A708F
:207DC0007B7E534A342101FB03F31344903301221A607C7EFAF7D0FD01464D4A342303FB24
:207DE00004F313448C3319607B7E0133DBB207F1080219460120FBF751FF7B7E444A0833BD
:207E0000FF2102F82310FAF7B7FD386101237B7700233B7747E07B7E3D4A342101FB03F3FE
:207E2000134490331B68012B28D07B7E384A342101FB03F313448C331A687B7E344934205D
:207E400000FB03F30B4490331B689A4216D87B7E7A7E2F49342000FB02F20A4470321078AE
:207E60002B4A342101FB03F31344703302461A7000237B770A20FAF78BFD14E03B7F002BE9
:207E800011D1FAF779FD02463B69D31A312B0AD97B7E0133DBB207F1080219460320FBF751
:207EA000FDFE01233B77FAF767FD02463B69D31AF92B02D87B7F012BADD07B7F012B08D123
:207EC0007B7E134A342101FB03F31344983301221A707B7E0E4A342101FB03F313447033A4
:207EE0001B78002B25D17B7E094A342101FB03F3134477331B78002B12D17B7E044A3421FD
:207F000001FB03F31344713300221A7011E000BF24050020B40D0020000C0240FC04002080
:207F20007B7EBE4A342101FB03F31344713301221A707B7E01337B767B7E132B7FF694AE45
:207F4000B74BDB79002B0ED101224FF40061B548F9F730F901224FF48051B248F9F72AF9A0
:207F60000A20FAF715FD00233B76B7E002F02AFDAB4BDB79002B40F0AE803C7EFAF7FCFCDA
:207F80000146A64A342303FB04F313448C3319603B7EA24A342101FB03F313448C331B684A
:207FA0003B613B7E9D4A342101FB03F31344903301221A603B7E0133DBB207F108021946AC
:207FC0000320FBF76BFE01237B7700233B7747E03B7E924A342101FB03F3134490331B6898
:207FE000012B28D03B7E8D4A342101FB03F313448C331A683B7E8949342000FB03F30B44CF
:2080000090331B689A4216D83B7E3A7E8349342000FB02F20A4470321078804A342101FB3D
:2080200003F31344703302461A7000237B770A20FAF7AEFC14E03B7F002B11D1FAF79CFC60
:2080400002463B69D31A312B0AD93B7E0133DBB207F1080219460320FBF720FE01233B7724
:20806000FAF78AFC02463B69D31AF92B02D87B7F012BADD07B7F012B08D13B7E674A342151
:2080800001FB03F31344983301221A703B7E634A342101FB03F3134477331B78012B11D1D0
:2080A0003B7E3A7E5D49342000FB02F20A44713210785A4A342101FB03F3134471330246BF
:2080C0001A7008E03B7E554A342101FB03F31344713301221A703B7E01333B763B7E132B52
:2080E0007FF644AF4E4B00221A720123FB7534E0FB7D013B4C4A32F813304FF6FF729342E7
:208100000AD0FB7D484A32F81320FB7D013B464931F813309A421DD0404B1B7D43F0080345
:20812000DAB23E4B1A753E4B01221A72FB7D013B3D4A32F813203B1D0193FB7D00930423AD
:2081400041F215010220FFF763F803461A46BB7F1343BB77FB7D0133FB75FB7D132BC7D986
:208160000023BB752FE0BB7D2C4A342101FB03F3134470331B78002B22D1BB7D274A083319
:2081800012F82330002B1BD1BB7D274A32F813304FF6FF72934213D0BB7D204A342101FBF4
:2081A00003F3134471331B78002B09D1BB7D0021184602F02DF903461A46FB7F1343FB777C
:2081C000BB7D0133BB75BB7D132BCCD902F0FAFBFDF7D6FE0346012B09D1104B1B7D63F0A4
:2081E0007F03DAB20D4B1A750D4B01221A71002000F01CF8FB7F002B03D0084B012283F8F7
:208200008124BB7F002B03D0044B012283F88024FCF7AEFA00BF2437BD4690BD24050020A2
:20822000B40D0020000C0240FC04002080B58AB002AF0346FB710023FB770023BB7700230D
:20824000FB760023BB7600237B7600233B7607F1100300221A605A6007F10C0300210A4698
:208260001A800A469A700023FB7200233B8100237B7727E102F0A6FB07F10B027B7F114695
:20828000184602F02DF803461A46FB7F1343FB77FB7A002B40F0138100233B770BE107F161
:2082A0001A0307F11B02397F787F01F081FF03461A46FB7F1343FB7707F1180307F119025B
:2082C000397F787F01F038FF03461A46FB7F1343FB77FB79DB015AB297F91C3013435BB241
:2082E000DBB23B74FB7E7B74BB7EBB747B7EFB743B7E3B757B7F0133DBB207F1100219467D
:208300000820FBF7CBFC0A20FAF742FB797F3B7F70481A4652001A4453001A460B46DB00CB
:208320000B449B001344034405331B78002B0BD17B7F0133DBB207F1100219460820FBF7A5
:20834000ADFC0A20FAF724FB797F3B7F61481A4652001A4453001A460B46DB000B449B0006
:208360001344034405331B78012B5DD1797F3B7F58481A4652001A4453001A460B46DB00F9
:208380000B449B00134403441B78FA799A424BD1797F3B7F4F481A4652001A4453001A464B
:2083A0000B46DB000B449B001344034401331A787B7E9A4238D1797F3B7F46481A46520073
:2083C0001A4453001A460B46DB000B449B001344034402331A783B7E9A4225D1797F3B7FD4
:2083E0003C481A4652001A4453001A460B46DB000B449B001344034403331A78FB7E9A4265
:2084000012D1797F3B7F33481A4652001A4453001A460B46DB000B449B001344034404339E
:208420001A78BB7E9A4235D0397F7B7F0122184601F098FF03461A46FB7F1343FB7707F1F2
:208440000802397F7B7F184602F050F903461A46FB7F1343FB773B894FF6FF72934205D0B8
:208460003B89A3F500739BB23B8101E0FF233B813B89DBB207F10C0201920093052300229E
:2084800045F206010220FEF7C3FE03461A46BB7F1343BB77FB7F002B03D00F4B012283F8EB
:2084A0008124BB7F002B03D00B4B012283F880243B7F01333B773B7F052B7FF6F0AE7B7FB0
:2084C00001337B777B7F132B7FF6D4AE00BF2037BD4680BDC40D00202405002090B583B03F
:2084E00000AF0023FB710123BB71624B1B78012B07D1614A00210020FBF7D0FB5D4B022235
:208500001A7002F05FFA5B4B1B78052B1CD1BB79052B19D00523BB71584BFF229A74574B1B
:20852000FF22DA7400237B710BE07C79FAF724FA0146534A04F12C0342F823107B79013331
:208540007B717B79132BF0D94A4B1B78032B06D100F0ECFE03461A46FB791343FB71454BBE
:208560001B78042B06D100F093FB03461A46FB791343FB7101F062F903461A46FB79134346
:20858000FB713C4B1B78012B13D0FAF7F5F902463B4B1B68D31A632B0BD900F075F8034611
:2085A0001A46FB791343FB71FAF7E6F90246344B1A6001F0C9FA03461A46FB791343FB7181
:2085C000FCF7D6F8FAF7D8F902462D4B9B68D31AB3F5FA7F06D3FDF7DBFDFAF7CDF90246A3
:2085E000274B9A60FAF7C8F90246254B5B68D31AB3F57A7F06D3FDF783FFFAF7BDF9024616
:208600001F4B5A601B4B1B78022B07D0194B1B78032B03D0174B1B78042B0FD1FAF7ACF9A7
:208620000246174BDB68D31AB3F57A7F06D3FBF7F3FBFAF7A1F90246114BDA60FDF76AFE41
:20864000FEF7ECFE0B4B1B78022B0AD10D4B1B7B002B06D000F0EEF903461A46FB79134311
:20866000FB71FB79002B3FF44CAF024B012283F8812446E724050020981000207C0B00204C
:20868000B8100020A810002090B587B002AF0023FB730023BB7300237B7300233B73002306
:2086A000BB7200237B720023FB7200233B720023FB717F4B1B78052B00F07C817D4B5A787A
:2086C0007D4B5A707B4B1A787B4B1A70FA1D07F1080319467748FDF793FA03461A46FB7B88
:2086E0001343FB73FDF7C8FA03461A46714B5A70704B5B78012B0BD16F4B5B78002B07D1AB
:20870000FAF73AF902466B4B5A606A4B01221A723B7A03F00303DAB27B7B13437B73654BF5
:208720005B789B00DBB203F00403DAB27B7B13437B735F4B1B78022B5DD15E4B1B78012B7E
:2087400025D15D4B1B78002B21D15C4B5B7C012B1DD1574B03221A70FAF70EF90246584BFF
:208760001A60FAF709F90246544B9A60554B0193012300930123002241F204010120FEF72C
:2087800047FD03461A46BB7B1343BB7312E1494B5B78012B40F00E81464B1B7A012B40F06B
:2087A0000981FAF7E9F80246424B5B68D31AB3F5FA6FC0F0FF803B7A032B00F0FB803F4BC0
:2087C0005B7C012B40F0F6803A4B00221A72384B04221A703B4B0193012300930123002273
:2087E00041F208010120FEF713FD03461A46BB7B1343BB73DEE02E4B1B78032B68D12D4B0B
:208800001B78002B40F0D6802C4B1B7C002B40F0D1802A4B5B7C002B36D12B4A0021002026
:20882000FBF73CFA254BFF229A74244BFF22DA74224B1A68214B5B7919460B469B000B44CA
:20884000DB001344DB795C1EFAF796F801461F4A04F12C0342F82310184B1A68174B5B793D
:2088600019460B469B000B44DB0014331344DB795C1EFAF781F80146144A04F12C0342F8AA
:2088800023100E4B01225A740C4B01221A740D4B0193012300930123002241F20501012010
:2088A000FEF7B6FC03461A46BB7B1343BB7381E0240500209C0B0020900B00207C0B0020DB
:2088C000AC0D00209410002098100020B8100020504B1B78042B6DD14F4B5B78002B08D13F
:2088E0004E4B1B7C022B04D101233B734C4B02221A70494B1B78012B08D1484B1B7C022BAC
:2089000004D101233B73464B03221A703B7B012B50D1424B5B7C002B36D1424A002100200A
:20892000FBF7BCF93D4BFF229A743C4BFF22DA743A4B1A68394B5B7919460B469B000B44EA
:20894000DB001344DB795C1EFAF716F80146364A04F12C0342F82310304B1A682F4B5B7975
:2089600019460B469B000B44DB0014331344DB795C1EFAF701F801462B4A04F12C0342F812
:208980002310264B01225A74244B03221A74274B05221A70264B01930123009301230022FB
:2089A00041F209010120FEF733FC03461A46BB7B1343BB7307F1090207F10A031146184615
:2089C000FDF7E6F8BA7A134B9A737A7A114B1A74FDF796FB0346FB72FB7ADB43DBB203F0FA
:2089E0000703FB72FB7ADB005AB297F90D3013435BB27B73074A7B7B1372BB7B002B03D086
:208A0000044B012283F88024FB7B18461437BD4690BD00BF240500209C0B00207C0B0020E0
:208A2000E809002098100020B8100020A80900209410002090B585B000AF0023FB73002303
:208A4000BB730023FB8000237B7300233B7200233B730023FB720023BB7200237B72002385
:208A60007B7101233B71854B1B7B012B40F0B580BA1D797BBB7B184601F038FE0346FB7306
:208A800012E07B7B01337B737B7B062B04D1BB7B0133BB7300237B73BA1D797BBB7B1846C8
:208AA00001F024FE0346FB73744B5A88FB889A4202D0FB7B002BE4D07B7B01333B723B7A39
:208AC000013BD9B23A1DBB7B184601F0DFFB03461A46FB7B1343FB733B7A013BD9B27A1D23
:208AE000B87B022301F062FD03461A46FB7B1343FB73BB7B03F00103DBB2002B11D1604B79
:208B00001968BA7B13469B0013449B000B44DB79FB723B7A7B72FB7A01333B730723BB7259
:208B200010E0574B1968BA7B13469B0013449B000B44DB793B733B7ABB723B7B013BFB7275
:208B400007237B72FB7B002B44D13B79002B41D14C4A3B7B13704B4ABB7A53707A79494B74
:208B60009A70484AFB7AD370464A7B7A13717A79444B5A71434B02229A71434B1B78052B3D
:208B800017D03F4B5B7C012B13D13E4A00210220FBF784F83A4B00225A74394ABB7B93740F
:208BA000BC7BF9F7E9FE0146384A04F1180342F82310F9F7E1FE0246304B9A602F4B022237
:208BC0001A733B7A013BDAB22C4B1A702B4ABB7B137102E0294B00221A73284B1B7B022B20
:208BE00046D1F9F7C9FE0246244B9B68D31A41F22F1293423CD9234A00210020FBF74EF8BC
:208C00001F4B01225A741E4BFF229A741B4B1B791C46F9F7B1FE01461C4A04F12C0342F85B
:208C20002310164B1B790133DBB2164A19460620FBF734F80520F9F7ABFE104B1B79013367
:208C4000DBB2104A19460520FBF728F80520F9F79FFE0A4B00221A73084B1B79184600F0AC
:208C6000B5FE03461A46FB7B1343FB73FDF766FDFB7B18461437BD4690BD00BFA810002001
:208C80007C0B00209810002024050020B810002090B587B002AF0023FB730023BB73002302
:208CA0007B7300233B730023FB720023FB710023BB7100237B7200233B7200237B71002375
:208CC0003B710023FB700023BB70824B1B7C042B78D1814B0193012300930123002241F2A0
:208CE0000A010120FEF794FA03461A46BB7B1343BB73784B02221A7401237B73774B0022F7
:208D00005A700023BB7207E0BB7A744A134400229A70BB7A0133BB72BB7A132BF4D96F4B4C
:208D200004221A706D4B5A786D4B5B7903F00103DBB21343DAB2694B5A70684B5A78684B51
:208D40001B785B00DBB203F00203DBB21343DAB2624B5A70614B5A78614B5B789B00DBB295
:208D600003F00403DBB21343DAB25C4B5A705B4B5A785B4B1B7ADB00DBB203F00803DBB273
:208D80001343DAB2554B5A70544B5A78544BDB791B01DBB203F01003DBB21343DAB24F4B6B
:208DA0005A70FDF7EDF80346012B40F058814B4B5B7843F01003DAB2484B5A70484B012244
:208DC0001A714CE1434B5B7C002B40F08F80F9F7D3FD02463F4BDB68D31AB3F5FA6FC0F089
:208DE00085803C4B1A683B4B5B7919460B469B000B44DB0014331344DB79013B3B72354B3B
:208E00001A68344B5B7919460B469B000B44DB001344DB79013B7B72304BDB7D012B0FD155
:208E20002E4B9B7D0133DAB22C4B9A752B4B9B7D032B05D1294B0022DA75284B00229A7540
:208E40003B7A264A13449B78002B05D17B7A234A13449B78002B02D0204B02221A70214A35
:208E600000210020FAF71AFF1A4BFF229A74194BFF22DA74174B1A68164B5B7919460B4677
:208E80009B000B44DB001344DB795C1EF9F774FD0146154A04F12C0342F823100D4B1A6876
:208EA0000C4B5B7919460B469B000B44DB0014331344DB795C1EF9F75FFD01460A4A04F1CA
:208EC0002C0342F823100520F9F762FD014B01225A74C4E07C0B002094100020A809002065
:208EE000B40D002098100020B8100020F9F744FD0246554BDB68D31A40F6B732934260D96B
:208F0000514B1B7C022B5CD101237B734F4BDB7D002B08D14C4B1B790133DAB24A4B1A71B1
:208F20004A4B00229A75484B1A68474B5B7919460B469B000B44DB0013449A79424B1B79F0
:208F40009A4208D8404B5B790133DAB23E4B5A713D4B00221A713C4B5B79092B7ED93C4B40
:208F60001B78052B7AD03A4B02221A70F9F704FD0246374B5A6000237B73334B04221A74F9
:208F8000314B00221A71304B00225A712E4B0022DA602E4B1B78022B02D02C4B01221A703C
:208FA0002C4B0193012300930123002241F20C010120FEF72DF903461A46BB7B1343BB73CA
:208FC0004CE0214B1B7C032B49D1214B1B78052B45D0214B1A781E4B1A70F9F7CDFC0246E4
:208FE0001B4B5A60184B04221A74174B00221A71154B00225A71144B0022DA60154B01932F
:20900000012300930123002241F20B010120FEF7FFF803461A46BB7B1343BB730C4B1B78BA
:20902000032B1CD10B4B0193012300930123002241F204010120FEF7EBF803461A46BB7B1E
:209040001343BB730BE000BF7C0B0020A80900202405002094100020E809002000BFAF4B93
:209060001B78052B00F04E817B7B012B40F04A81F9F782FC0246AA4BDA60A94B1A68A84B03
:209080005B7919460B469B000B44DB0014331344A34A12799B5CFB72A14B1A68A04B5B79E0
:2090A00019460B469B000B44DB0013449C4A12799B5C3B739A4B1A68994B5B7919460B46FF
:2090C0009B000B44DB001344DB79013BDAB2944B9A74934B1A68924B5B7919460B469B000F
:2090E0000B44DB0014331344DB79013BDAB28C4BDA748B4B1A688A4B5B7919460B469B001B
:209100000B44DB001344DB795C1EF9F735FC0146844A04F1180342F82310814B1A68804B34
:209120005B7919460B469B000B44DB0014331344DB795C1EF9F720FC01467A4A04F1180353
:2091400042F82310764B1A68754B5B7919460B469B000B44DB001344DB79013BD8B23B7B2F
:20916000013BDBB27A1D194601F090F803461A46FB7B1343FB736A4B1A68694B5B791946B6
:209180000B469B000B44DB0014331344DB79013BD8B2FB7A013BDBB23A1D194601F076F8AE
:2091A00003461A46FB7B1343FB735D4B1A685C4B5B7919460B469B000B44DB001344DB7907
:2091C000013BDBB2FA1C1146184601F089F803461A46FB7B1343FB73514B1A68504B5B7919
:2091E00019460B469B000B44DB0014331344DB79013BDBB2BA1C1146184601F071F8034611
:209200001A46FB7B1343FB73454B1A68444B5B7919460B469B000B44DB0014331344DB79D8
:20922000013BD8B2FB7A013BD9B2BA1D012301F0BDF903461A46FB7B1343FB73384B1A68A2
:20924000374B5B7919460B469B000B44DB001344DB79013BD8B23B7B013BD9B2FA1D01231A
:2092600001F0A4F903461A46FB7B1343FB737B79012B02D0FB78012B04D107233B73284BCC
:20928000FF229A743B79012B02D0BB78012B04D10723FB72224BFF22DA74214B1A68204BED
:2092A0005B7919460B469B000B44DB0014331344DA791D4B1A701C4AFB7A5370BA791A4B4C
:2092C0009A70174B1A68164B5B7919460B469B000B44DB001344DA79134BDA70124A3B7B92
:2092E0001371FA79104B5A710F4B01229A710E4A00210220FAF7D2FC0520F9F749FB084BC3
:2093000000225A74BB7B002B03D0044B012283F88024FB7B18461437BD4690BD24050020E0
:209320007C0B0020B81000209810002090B587B002AF0023FB730023BB7300237B73002393
:209340003B730023FB720023BB7200237B7200233B720023FB710023BB7100237B71524B15
:209360001B7C042B1DD1F9F707FB02464E4B9B68D31A312B15D94D4B019301230093012325
:20938000002241F206010120FDF742FF03461A46BB7B1343BB73444B00221A7401237B7367
:2093A000C9E0414B5B7C002B44D1F9F7E5FA02463D4BDB68D31A41F22F1293423AD93C4AB0
:2093C00000210020FAF76AFC0520F9F7E1FA364B01225A74344BFF229A74334BFF22DA74F8
:2093E000314B1A68304B5B7919460B469B000B44DB001344DB795C1EF9F7BEFA01462D4A20
:2094000004F12C0342F82310274B1A68264B5B7919460B469B000B44DB0014331344DB791B
:209420005C1EF9F7A9FA0146224A04F12C0342F8231080E0F9F7A0FA02461B4BDB68D31A13
:2094400041F28732934237D9174B1B7C002B33D101237B73144B1B790133DAB2124B1A7166
:20946000114B1A68104B5B7919460B469B000B44DB0013449A790C4B1B799A4208D80A4B04
:209480005B790133DAB2084B5A71074B00221A71054B5B79092B4ED9034B00221A71024B54
:2094A00000225A7147E000BF7C0B00209410002098100020B8100020BB4B1B7C012B3AD1EA
:2094C000BA4B1B78052B36D0B94B0193012300930123002241F207010120FDF799FE0346F9
:2094E0001A46BB7B1343BB73F9F746FA0246B14B1B68D31AB04AA2FB03239B09AD4A1360A3
:20950000AE4B1A68AB4B1B681344AC4A1360A74B02221A70F9F730FA0246A44B5A60A24BFF
:2095200004221A74A04B00221A719F4B00225A719D4B0022DA609D4B1B78052B00F06B813D
:209540007B7B012B40F06781974B5B7C012B40F06281F9F711FA0246934BDA60924B1A681F
:20956000914B5B7919460B469B000B44DB00143313448D4A12799B5CFB728B4B1A688A4B35
:209580005B7919460B469B000B44DB001344864A12799B5C3B73844B1A68834B5B791946D9
:2095A0000B469B000B44DB001344DB79013BD8B23B7B013BDBB207F10802194600F066FEF0
:2095C00003461A46FB7B1343FB73774B1A68764B5B7919460B469B000B44DB0014331344BC
:2095E000DB79013BD8B2FB7A013BDBB2FA1D194600F04CFE03461A46FB7B1343FB736A4BCB
:209600001A68694B5B7919460B469B000B44DB001344DB79013BDBB2BA1D1146184600F0DB
:209620005FFE03461A46FB7B1343FB735E4B1A685D4B5B7919460B469B000B44DB00143387
:209640001344DB79013BDBB27A1D1146184600F047FE03461A46FB7B1343FB73524B1A6813
:20966000514B5B7919460B469B000B44DB0014331344DB79013BD8B2FB7A013BD9B207F119
:209680000902002300F092FF03461A46FB7B1343FB73454B1A68444B5B7919460B469B0078
:2096A0000B44DB001344DB79013BD8B23B7B013BD9B207F10A02002300F078FF03461A465B
:2096C000FB7B1343FB73384B1A68374B5B7919460B469B000B44DB001344DB79013BDAB20D
:2096E000314B9A74304B1A682F4B5B7919460B469B000B44DB0014331344DB79013BDAB266
:20970000294BDA74284B1A68274B5B7919460B469B000B44DB001344DB795C1EF9F72CF99D
:209720000146274A04F1180342F823101E4B1A681D4B5B7919460B469B000B44DB00143311
:209740001344DB795C1EF9F717F901461C4A04F1180342F823103B7A012B02D0BB79012BA7
:2097600004D107233B73104BFF229A74FB79012B02D07B79012B04D10723FB720A4BFF223E
:20978000DA74FB7B002B46D1074B1A68064B5B7919460B469B000B44DB0014331344DA7964
:2097A000084B1A7010E000BF7C0B00202405002094100020AC0D0020D34D6210B00D002021
:2097C000B810002098100020194AFB7A53707A7A174B9A70174B1A68164B5B7919460B4615
:2097E0009B000B44DB001344DA79114BDA70104A3B7B1371BA7A0E4B5A710D4B00229A71E3
:209800000B4A00210220FAF749FA0520F9F7C0F8084B00225A74BB7B002B03D0064B0122C4
:2098200083F88024FB7B18461437BD4690BD00BF981000207C0B00202405002080B584B0BA
:2098400000AF0023FB730023BB730023BB6000237B605B4B1B78BB73BB7B5A4A342101FBA9
:2098600003F313448C331B68BB60BB7B554A342101FB03F3134490331B687B60BB7B514AD9
:20988000342101FB03F3134498331B78002B7BD1F9F772F802464A4B1B6AD31A142B73D921
:2098A0007A68BB689A421CD3BB7B0133DBB2464A19460320FAF7F2F9F9F75EF80246404BDA
:2098C0001A62BB7B3E4A126A3E49342000FB03F30B448C331A60BB7B394A134401229A7041
:2098E00044E0F9F749F80246BB68D31A322B27D9BB7B334A13449B78012B21D8BB7B0133B2
:20990000DBB2314A19460320FAF7C8F9F9F734F802462B4B1A62BB7B294A126A29493420CA
:2099200000FB03F30B448C331A60BB7B244A1A4492780132D1B2224A13440A469A7015E0DA
:20994000BB7B1F4A13449B78022B0FD1F9F714F802467B68D31AFA2B08D9BB7B194A3421E9
:2099600001FB03F31344983301221A70144B1B780133DAB2124B1A70114B1B78142B1AD174
:209980000F4B00221A7016E0BB7B0E4A342101FB03F3134498331B78012B0CD1084B1B7852
:2099A0000133DAB2064B1A70054B1B78142B02D1034B00221A70FB7B18461037BD4680BDC2
:2099C000B8110020240500209810002080B487B000AF0346FB710023FB750023BB820023A8
:2099E0007B8200237B7400233B740023FB73FB79142B02D90123FB759AE00023BB735EE0CA
:209A0000FA79BB7B4E49342000FB02F20A4413447F331B78DB09DBB27B7497F91130002B7D
:209A200002D101237B7401E0FF237B74FA79BB7B4349342000FB02F20A4413447F331B78EC
:209A40009BB203F07F039AB297F911309BB212FB03F39AB2BB8A13449BB2BB82FA79BB7BBC
:209A60003749342000FB02F20A44134485331B78DB09DBB27B7497F91130002B02D10123E0
:209A80007B7401E0FF237B74FA79BB7B2C49342000FB02F20A44134485331B789BB203F054
:209AA0007F039AB297F911309BB212FB03F39AB27B8A13449BB27B82BB7B0133BB73BB7BF7
:209AC000032B9DD9B7F914309B08BB82B7F912309B087B82B7F91230002B05DA7B8A5B42DE
:209AE0009BB27B8201233B74B7F91430002B05DABB8A5B429BB2BB820123FB73BB8ADBB27B
:209B000003F07F03DAB2FB7BDB01DBB21343DBB25AB20C4B5A717B8ADBB203F07F03DAB2C1
:209B20003B7CDB01DBB21343DBB25AB2054B9A71FB7D18461C37BD465DF8047B704700BF45
:209B400024050020A010002090B585B000AF0023FB730023BB7300233B8100233B7300230E
:209B6000FB720023FB710023BB7100237B7100233B7100237B73A6E27B7B5A4A342101FB38
:209B800003F313447A331B783B737B7B554A342101FB03F313447B331B78FB72524B9B7CF5
:209BA0007A7B9A4205D0504BDB7C7A7B9A4240F0FD817B7B4D4A183352F8233003F2DC52F6
:209BC0007B7B4849342000FB03F30B4490331B689A4200F2EB81F8F7CFFE01467B7B434A64
:209BE000043352F82330CB1AB3F57A7FC0F0DE813C4B1B78052B00F0D9813D4B1B7B022B1D
:209C000003D13B4B1B78BB7325E07B7B03F00103DBB2002B0FD1344B1A68334B5B791946ED
:209C20000B469B000B44DB0013442F4A12799B5C013BBB730FE02C4B1A682B4B5B791946C1
:209C40000B469B000B44DB0014331344264A12799B5C013BBB7307F10802B97B7B7B18466A
:209C600000F044FD03461A46FB7B1343FB737B7B1C4A342101FB03F313449B33BA7B1A7049
:209C80007B7B3A89D0B2174A342101FB03F313449A3302461A70174B00229A703A89154B3A
:209CA0001A80144A3B7BD370124AFB7A13710D4B1B78032B20D13B1D7A1DB97B787B00F04E
:209CC0003BFA03461A46FB7B1343FB73BB1DFA1DB97B787B00F06CFA03461A46FB7B13438B
:209CE000FB7311E0240500207C0B0020B8100020A8100020A010002064237B7109233B713A
:209D00003223FB710823BB71FB793A7B9A420FD97B7BA24A342101FB03F3134494330122D4
:209D20001A709F4B9B7843F00203DAB29C4B9A70BB793A7B9A420FD27B7B984A342101FB18
:209D400003F31344953301221A70954B9B7843F00203DAB2924B9A707B79FA7A9A420FD977
:209D60007B7B8E4A342101FB03F31344963301221A708B4B9B7843F00103DAB2884B9A7078
:209D80003B79FA7A9A420FD27B7B844A342101FB03F31344973301221A70814B9B7843F0F3
:209DA0000103DAB27E4B9A707C7BF8F7E5FD01467C4A231D42F82310784B1B78042B40F009
:209DC0007C817B7B7A7B78490A4491787A7B7348342404FB02F202447232127802F001021F
:209DE000D2B20A43D1B2704A13440A469A707B7B7A7B6D490A4491787A7B6848342404FBB0
:209E000002F20244793212789200D2B202F00402D2B20A43D1B2644A13440A469A707B7B1C
:209E2000614A134493F82C30002B0BD17B7B7A7B5D490A44927822F01202D1B25A4A1344A5
:209E40000A469A707B7B7A7B57490A449178544A927802F00202D2B20A43D1B2524A1344E1
:209E60000A469A707B7B7A7B4F490A4491784C4A92781201D2B202F01002D2B20A43D1B21F
:209E8000494A13440A469A707B7B444A342101FB03F3134497331B78012B09D07B7B3F4A7B
:209EA000342101FB03F3134495331B78012B0CD13D4B0122DA757B7B3B4A1A44127E01320A
:209EC000D1B2394A13440A461A767B7B7A7B36490A44927822F00802D1B2334A13440A46C0
:209EE0009A707B7B2D4A342101FB03F313447C331B78002B0BD07B7B7A7B2B490A4492784E
:209F000042F00802D1B2284A13440A469A707B7B254A13441B7E022B12D87B7B1F4A34213F
:209F200001FB03F31344973300221A707B7B1B4A342101FB03F31344953300221A7010E005
:209F40007B7B194A13441B7E032B0AD17B7B164A134400221A767B7B134A1344012283F808
:209F60002C207B7B0D4A342101FB03F3134496331B78012B0AD07B7B084A342101FB03F3B9
:209F8000134494331B78012B40F097807B7B064A1344012283F82C208FE000BF240500209F
:209FA000A0100020B8100020A80900204A4B9B7C7A7B9A4257D0484BDB7C7A7B9A4252D097
:209FC0007B7B464A2C3352F8233003F2DC527B7B4349342000FB03F30B4490331B689A42A4
:209FE00041D8FB7A142B15D97B7B3D4A342101FB03F31344A0331B68002B0BD17C7BF8F748
:20A00000BBFC0146364A342303FB04F31344A033196027E0FB7A142B17D9F8F7ADFC7B7B9A
:20A020002F4A342101FB03F31344A0331B68C31AB3F5FA6F09D97B7B294A342101FB03F333
:20A040001344993301221A700CE0FB7A132B36D87B7B234A342101FB03F31344A03300228D
:20A060001A602CE02BE01C4B9B7C7A7B9A4204D0194BDB7C7A7B9A4222D17B7B184A342100
:20A0800001FB03F3134498331B78012B18D17B7B134A342101FB03F31344993301221A709A
:20A0A0000D4B9B7C7A7B9A4203D10B4BFF229A7406E0094BFF22DA7402E000BF00E000BF1E
:20A0C0007B7B01337B737B7B132B7FF655ADFB7B18461437BD4690BD7C0B0020B8100020BF
:20A0E0002405002080B485B000AF03463A60FB710B46BB710023FB73FB79132B11D8BB79D3
:20A10000052B0ED83B68002B0BD0FA79BB790949362000FB02F20A4413441A783B681A70DE
:20A1200001E00123FB73FB7B18461437BD465DF8047B7047C8BA000880B487B000AFBA6041
:20A140007B600346FB730B46BB730023FB75FB7B132B21D8BB7B052B1ED8BB68002B1BD019
:20A160007B68002B18D0FA7BBB7B1049362000FB02F20A4413441E331A78BB681A70FA7BF6
:20A18000BB7B0A49362000FB02F20A44134424331A787B681A7001E00123FB75FB7D1846AB
:20A1A0001C37BD465DF8047B704700BFC8BA000880B487B000AFBA607B600346FB730B465E
:20A1C000BB730023FB75FB7B132B21D8BB7B052B1ED8BB68002B1BD07B68002B18D0FA7B11
:20A1E000BB7B1049362000FB02F20A4413442A331A78BB681A70FA7BBB7B0A49362000FBFB
:20A2000002F20A44134430331A787B681A7001E00123FB75FB7D18461C37BD465DF8047BCE
:20A22000704700BFC8BA000880B483B000AF0023FB711FE0FB79144A022102F83310FB79D4
:20A24000114ADB0013440022DA710023BB710BE0FA79BB790C49D2000A4413440133002201
:20A260001A70BB790133BB71BB79052BF0D9FB790133FB71FB79132BDCD900BF0C37BD4613
:20A280005DF8047B704700BFDC11002080B485B000AF03463A60FB710B46BB710023FB73F2
:20A2A000FB79132B10D8BB79052B0DD83B68002B0AD0FA79BB790949D2000A44134401336F
:20A2C0001A783B681A7001E00123FB73FB7B18461437BD465DF8047B704700BFDC110020D3
:20A2E00080B485B000AF03463960FB710023FB73FB79132B09D83B68002B06D0FB79074A6B
:20A3000012F833203B681A7001E00123FB73FB7B18461437BD465DF8047B7047DC11002086
:20A3200080B485B000AF03463960FB710023FB73FB79132B0AD83B68002B07D0FB79084A27
:20A34000DB001344DA793B681A7001E00123FB73FB7B18461437BD465DF8047B704700BF6C
:20A36000DC11002080B485B000AF0346FB710B46BB7113467B710023FB730123BB73FB79EA
:20A38000132B39D8BB79052B36D87B79002B02D07B79012B30D1FA79BB791C49D2000A44BE
:20A3A000134401337A791A70BA7BBB7902FA03F3BB737B79002B10D1FA79FB791349DB00EE
:20A3C0000B44D979BB7BDB43DBB20B40D8B20F49D3000B440246DA7110E0FA79FB790B49EE
:20A3E000DB000B44D979BB7B0B43D8B20749D3000B440246DA7101E00123FB73FB7B184687
:20A400001437BD465DF8047B704700BFDC11002080B584B000AF03460A46FB711346BB71F5
:20A420000023FB73FB79132B1BD8BB79002B02D0BB79012B15D1FB790D4A12F83330012B0B
:20A4400004D0FB790A49BA7901F83320BB79012B09D1FB793F21184600F00CF80346FB73CB
:20A4600001E00123FB73FB7B18461037BD4680BDDC11002080B485B000AF03460A46FB71E4
:20A480001346BB710023FB73FB79132B33D8BB7903F03F03BB71BB79002B06D1FB791A4A46
:20A4A000DB0013440022DA7105E0FB79164ADB0013443F22DA710023BB7318E0BB79002BBE
:20A4C00009D1FA79BB7B1049D2000A441344013300221A7008E0FA79BB7B0B49D2000A4444
:20A4E0001344013301221A70BB7B0133BB73BB7B052BE3D901E00123FB73FB7B18461437D8
:20A50000BD465DF8047B7047DC11002080B483B000AF0023FB710023BB7100237B7100237A
:20A520003B712CE03B791F4A12F83330012B02D1BB790133BB710023FB701AE03A79FB7898
:20A540001849D2000A44134401331B78012B0DD13A79FB781449362000FB02F20A441344E5
:20A560001B78002B02D17B7901337B71FB780133FB70FB78052BE1D93B7901333B713B797F
:20A58000132BCFD9BB79002B02D17B79012B01D90123FB71FB7918460C37BD465DF8047B2D
:20A5A000704700BFDC110020C8BA000880B485B000AF3A601A460346FB710B46BB711346F1
:20A5C0007B710023FB73FB79132B2BD8BB79052B28D83B68002B25D07B79002B0CD1FA79B3
:20A5E000BB791549362000FB02F20A44134406331A783B681A7017E07B79012B02D07B790A
:20A60000022B0CD1FA79BB790B49362000FB02F20A4413440C331A783B681A7004E0012345
:20A62000FB7301E00123FB73FB7B18461437BD465DF8047B704700BFC8BA000890B484B0CB
:20A6400000AF03463960FB710023FB73FB79132B22D83B68002B1FD00023BB7318E03B6817
:20A660001B785AB2F979BB7B0F48362404FB01F101440B441B781946BB7B01FA03F35BB237
:20A6800013435BB2DAB23B681A70BB7B0133BB73BB7B052BE3D901E00123FB73FB7B18469D
:20A6A0001037BD4690BC7047C8BA000880B485B000AF03463960FB710023FB73FB79132B1A
:20A6C00008D83B68002B05D0FB79074AD25C3B681A7001E00123FB73FB7B18461437BD4642
:20A6E0005DF8047B704700BFB4BA000880B485B000AF03463A60FB710B46BB710023FB7325
:20A70000FB79132B15D8BB79052B12D83B68002B0FD0FA79B9790B4813465B001344DA00C2
:20A7200013440B4408335B0003445A883B681A8001E00123FB73FB7B18461437BD465DF88D
:20A74000047B7047C8BA000890B589B000AF00233B610023FB8307F1080300221A609A80F3
:20A7600000237B774FF00003BB61634BFF221A700023FB7522E0614B1B6807F110021146E8
:20A780001846F5F7E9FD0346002B0CD1FB7D3A6992B2C2F30B0292B25B0007F120010B4410
:20A7A00023F8182C07E0FB7D5B0007F120021344632223F8182CFB7D0133FB75FB7D022B6A
:20A7C000D9D90023BB752AE0BB7D5B0007F12002134433F8183C184600F0CEFA42A3D3E930
:20A7E000002300F07BF903460C46184621464FF00002434B00F0B6FD0346002B0CD07B7FB6
:20A8000001337B77BB7D5B0007F12002134433F8182CFB8B1344FB83BB7D0133BB75BB7D70
:20A82000022BD1D97B7F002B35D0FA8B7B7F92FBF3F3184600F0A0FA2DA3D3E9002300F09E
:20A8400001FB03460C461846214600F095FD0346BB612A4BD3ED017A97ED067A67EE277A0B
:20A86000C7ED067AD7ED067AF5EEC07AF1EE10FA02D54FF00003BB61D7ED067AB2EE047AC3
:20A8800067EE877AFCEEE77AC7ED017A3B79DAB2194B1A7005E0184BFF221A70164B012243
:20A8A0005A70154B5B78002B18D1D7ED067AB1EE027AF4EEC77AF1EE10FA0CDDD7ED067AEF
:20A8C000B1EE067AF4EEC77AF1EE10FA03D50A4B00225A7002E0084B02225A70064B5B78ED
:20A8E00018462437BD4690BD0000000000C05840835A04AD5D664A3FA80B0020AC0B002073
:20A900000000F03F80B584B000AF0023FB730023BB60234B7B60234B3B600023BB7300F08E
:20A9200051F83B681B68B3F1AA3F1DD00023BB8114E06420F8F72CF8BA897B681A60BB7B6E
:20A94000002B08D1BB89052B05D93B684FF0AA321A600123BB73BB890133BB81BB891B2BD9
:20A96000E7D90123FB730DE07B681B68BB60BB68092B05D9BB68192B02D80023FB7301E02F
:20A980000123FB733B6800221A607B6800221A60054AFB7B137000BF1037BD4680BD00BF1A
:20A9A0005028004054280040B40B002080B400AF034B1B781846BD465DF8047B704700BFD5
:20A9C000B40B002080B582B000AF00224FF400410E48F6F7EFFB01224FF400410B48F6F7C8
:20A9E000E9FB0023FB8003E000BFFB880133FB80FB88C72BF8D900224FF400410348F6F7DD
:20AA0000D9FB00BF0837BD4680BD00BF0000024080B500AFF7F79EFF00BF80BD80B500AFD4
:20AA20000248F8F79BFD00BF80BD00BF740D002080B500AFF6F7B6F800BF80BD80B500AF8A
:20AA4000FCF7DEFFFDF74AFDFCE780B400AF174A164BD3F8883043F47003C2F88830144A66
:20AA6000134B1B6843F001031360114B00229A600F4A0F4B1B6823F0847323F48033136056
:20AA80000B4B0C4A5A600A4A094B1B6823F480231360074B0022DA60044B4FF000629A6060
:20AAA00000BFBD465DF8047B704700BF00ED00E0003802401030002480B400AF00BFFDE759
:20AAC00010BF000800000020B80B0020B80B00207C12002081F0004102E000BF83F0004302
:20AAE00030B54FEA41044FEA430594EA050F08BF90EA020F1FBF54EA000C55EA020C7FEAB0
:20AB0000645C7FEA655C00F0E2804FEA5454D4EB5555B8BF6D420CDD2C4480EA020281EA57
:20AB2000030382EA000083EA010180EA020281EA0303362D88BF30BD11F0004F4FEA013103
:20AB40004FF4801C4CEA113102D0404261EB410113F0004F4FEA03334CEA133302D0524219
:20AB600063EB430394EA050F00F0A780A4F10104D5F1200E0DDB02FA0EFC22FA05F2801871
:20AB800041F1000103FA0EF2801843FA05F359410EE0A5F120050EF1200E012A03FA0EFC16
:20ABA00028BF4CF0020C43FA05F3C01851EBE37101F0004507D54FF0000EDCF1000C7EEB26
:20ABC00000006EEB0101B1F5801F1BD3B1F5001F0CD349085FEA30004FEA3C0C04F10104FE
:20ABE0004FEA445212F5800F80F09A80BCF1004F08BF5FEA500C50F1000041EB045141EA11
:20AC0000050130BD5FEA4C0C404141EB010111F4801FA4F10104E9D191F0000F04BF01465F
:20AC20000020B1FA81F308BF2033A3F10B03B3F120020CDA0C3208DD02F1140CC2F10C0276
:20AC400001FA0CF021FA02F10CE002F11402D8BFC2F1200C01FA02F120FA0CFCDCBF41EAAE
:20AC60000C019040E41AA2BF01EB0451294330BD6FEA04041F3C1CDA0C340EDC04F1140415
:20AC8000C4F1200220FA04F001FA02F340EA030021FA04F345EA030130BDC4F10C04C4F106
:20ACA000200220FA02F001FA04F340EA0300294630BD21FA04F0294630BD94F0000F83F476
:20ACC000801306BF81F480110134013D4EE77FEA645C18BF7FEA655C29D094EA050F08BFF2
:20ACE00090EA020F05D054EA000C04BF1946104630BD91EA030F1EBF0021002030BD5FEA64
:20AD0000545C05D14000494128BF41F0004130BD14F580043CBF01F5801130BD01F000456B
:20AD200045F0FE4141F470014FF0000030BD7FEA645C1ABF194610467FEA655C1CBF0B46C0
:20AD4000024650EA013406BF52EA033591EA030F41F4002130BD00BF90F0000F04BF002101
:20AD6000704730B54FF4806404F132044FF000054FF0000150E700BF90F0000F04BF0021F8
:20AD8000704730B54FF4806404F1320410F0004548BF40424FF000013EE700BF42004FEA58
:20ADA000E2014FEA31014FEA02701FBF12F07F4393F07F4F81F06051704792F0000F14BF6A
:20ADC00093F07F4F704730B54FF4607401F0004521F0004120E700BF50EA010208BF704766
:20ADE00030B54FF000050AE050EA010208BF704730B511F0004502D5404261EB41014FF430
:20AE0000806404F132045FEA915C3FF4DCAE4FF003025FEADC0C18BF03325FEADC0C18BFA7
:20AE2000033202EBDC02C2F1200300FA03FC20FA02F001FA03FE40EA0E0021FA02F114449D
:20AE4000C1E600BF70B54FF0FF0C4CF4E06C1CEA11541DBF1CEA135594EA0C0F95EA0C0FA9
:20AE600000F0DEF82C4481EA030621EA4C5123EA4C5350EA013518BF52EA033541F4801153
:20AE800043F4801338D0A0FB02CE4FF00005E1FB02E506F00042E0FB03E54FF00006E1FB52
:20AEA00003569CF0000F18BF4EF0010EA4F1FF04B6F5007F64F5407404D25FEA4E0E6D4182
:20AEC00046EB060642EAC62141EA55514FEAC52040EA5E504FEACE2EB4F1FD0C88BFBCF580
:20AEE000E06F1ED8BEF1004F08BF5FEA500E50F1000041EB045170BD06F0004646EA010144
:20AF000040EA020081EA0301B4EB5C04C2BFD4EB0C0541EA045170BD41F480114FF0000E86
:20AF2000013C00F3AB8014F1360FDEBF002001F0004170BDC4F10004203C35DA0C341BDCF5
:20AF400004F11404C4F1200500FA05F320FA04F001FA05F240EA020001F0004221F0004167
:20AF600010EBD37021FA04F642EB06015EEA430E08BF20EAD37070BDC4F10C04C4F12005D1
:20AF800000FA04F320FA05F001FA04F240EA020001F0004110EBD37041F100015EEA430E58
:20AFA00008BF20EAD37070BDC4F1200500FA05F24EEA020E20FA04F301FA05F243EA020308
:20AFC00021FA04F001F0004121FA04F220EA020000EBD3705EEA430E08BF20EAD37070BD0B
:20AFE00094F0000F0FD101F00046400041EB010111F4801F08BF013CF7D041EA060195F013
:20B00000000F18BF704703F00046520043EB030313F4801F08BF013DF7D043EA0603704775
:20B0200094EA0C0F0CEA135518BF95EA0C0F0CD050EA410618BF52EA4306D1D181EA0301DE
:20B0400001F000414FF0000070BD50EA410606BF1046194652EA430619D094EA0C0F02D17D
:20B0600050EA013613D195EA0C0F05D152EA03361CBF104619460AD181EA030101F000418A
:20B0800041F0FE4141F470014FF0000070BD41F0FE4141F4780170BD70B54FF0FF0C4CF434
:20B0A000E06C1CEA11541DBF1CEA135594EA0C0F95EA0C0F00F0A7F8A4EB050481EA030EB9
:20B0C00052EA03354FEA013100F088804FEA03334FF0805545EA131343EA12634FEA0222C2
:20B0E00045EA111545EA10654FEA00260EF000419D4208BF964244F1FD0404F5407402D284
:20B100005B084FEA3202B61A65EB03055B084FEA32024FF480104FF4002CB6EB020E75EB14
:20B12000030E22BFB61A754640EA0C005B084FEA3202B6EB020E75EB030E22BFB61A7546FE
:20B1400040EA5C005B084FEA3202B6EB020E75EB030E22BFB61A754640EA9C005B084FEAA9
:20B160003202B6EB020E75EB030E22BFB61A754640EADC0055EA060E18D04FEA051545EA4A
:20B1800016754FEA06164FEAC30343EA52734FEAC2025FEA1C1CC0D111F4801F0BD141EA24
:20B1A00000014FF000004FF0004CB6E711F4801F04BF01430020B4F1FD0C88BFBCF5E06F67
:20B1C0003FF6AFAEB5EB030C04BFB6EB020C5FEA500C50F1000041EB045170BD0EF0004EDC
:20B1E0004EEA113114EB5C04C2BFD4EB0C0541EA045170BD41F480114FF0000E013C90E6B2
:20B2000045EA060E8DE60CEA135594EA0C0F08BF95EA0C0F3FF43BAF94EA0C0F0AD150EA55
:20B2200001347FF434AF95EA0C0F7FF425AF104619462CE795EA0C0F06D152EA03353FF4C2
:20B24000FDAE1046194622E750EA410618BF52EA43067FF4C5AE50EA41047FF40DAF52EAD8
:20B2600043057FF4EBAE12E74FF0FF3C06E000BF4FF0010C02E000BF4FF0010C4DF804CD13
:20B280004FEA410C7FEA6C5C4FEA430C18BF7FEA6C5C1BD001B050EA410C0CBF52EA430CEE
:20B2A00091EA030F02BF90EA020F0020704710F1000F91EA030F58BF994208BF90422CBFCB
:20B2C000D8176FEAE37040F0010070474FEA410C7FEA6C5C02D150EA013C07D14FEA430C8A
:20B2E0007FEA6C5CD6D152EA033CD3D05DF8040B704700BF8446104662468C4619466346DC
:20B3000000E000BF01B5FFF7B7FF002848BF10F1000F01BD4DF808EDFFF7F4FF0CBF012020
:20B3200000205DF808FB00BF4DF808EDFFF7EAFF34BF012000205DF808FB00BF4DF808ED38
:20B34000FFF7E0FF94BF012000205DF808FB00BF4DF808EDFFF7CEFF94BF012000205DF887
:20B3600008FB00BF4DF808EDFFF7C4FF34BF012000205DF808FB00BF4FEA4102B2F1E0438B
:20B3800024BFB3F5001CDCF1FE5C0DD901F0004C4FEAC0024CEA5070B2F1004F40EB83002B
:20B3A00008BF20F00100704711F0804F21D113F13872BCBF01F00040704741F480114FEA2C
:20B3C0005252C2F11802C2F1200C10FA0CF320FA02F018BF40F001004FEAC1234FEAD323B4
:20B3E00003FA0CFC40EA0C0023FA02F34FEA4303CCE77FEA625307D150EA01331EBF4FF04E
:20B40000FE4040F44000704701F0004040F0FE4040F40000704700BF53B94AB9002908BF7B
:20B4200000281CBF4FF0FF314FF0FF3000F07AB9ADF1080C6DE904CE00F006F8DDF804E088
:20B44000DDE9022304B070472DE9F0478C460D460446089E002B51D18A4217466DD9B2FACC
:20B4600082FEBEF1000F0BD0CEF1200C01FA0EF520FA0CFC02FA0EF74CEA050C00FA0EF464
:20B480004FEA174A250CBCFBFAF81FFA87F90AFB18CC45EA0C4508FB09F3AB420AD9ED1961
:20B4A00008F1FF3280F02381AB4240F22081A8F102083D44ED1AA4B2B5FBFAF00AFB105509
:20B4C00044EA054400FB09F9A14509D9E41900F1FF3380F00A81A14540F2078102383C44BB
:20B4E000A4EB090440EA08400021002E61D024FA0EF4002334607360BDE8F0878B4207D94B
:20B50000002E54D0002186E821000846BDE8F087B3FA83F1002940F08E80AB4202D38242B1
:20B5200000F2FA80841A65EB03050120AC46002E3FD086E81010BDE8F08712B90127B7FB0A
:20B54000F2F7B7FA87FEBEF1000F34D1EB1B3A0C1FFA87FC0121B3FBF2F8250C02FB1833EE
:20B5600045EA03450CFB08F3AB4207D9ED1908F1FF3002D2AB4200F2D1808046ED1AA3B231
:20B58000B5FBF2F002FB105543EA05440CFB00FCA44507D9E41900F1FF3302D2A44500F2A6
:20B5A000B8801846A4EB0C0440EA08409DE731463046BDE8F087CEF1200405FA0EF307FA73
:20B5C0000EF720FA04F83A0C25FA04F448EA0308B4FBF2F14FEA184502FB11441FFA87FCA0
:20B5E00045EA044501FB0CF3AB4200FA0EF409D9ED1901F1FF3080F08A80AB4240F2878046
:20B6000002393D44EB1A1FFA88F5B3FBF2F002FB103345EA034500FB0CF3AB4207D9ED19BF
:20B6200000F1FF386FD2AB426DD902383D44EB1A40EA01418FE7C1F1200722FA07F88B400D
:20B6400005FA01F448EA030320FA07FE4FEA134CFD404EEA040EB5FBFCF94FEA1E440CFB39
:20B6600019551FFA83F844EA054509FB08F4AC4202FA01F200FA01FA08D9ED1809F1FF306F
:20B6800043D2AC4241D9A9F102091D442D1B1FFA8EFEB5FBFCF00CFB10554EEA054400FB16
:20B6A00008F8A04507D9E41800F1FF3529D2A04527D902381C4440EA0940A4EB0804A0FB81
:20B6C00002894C45C6464D4615D312D056B1BAEB0E0364EB050404FA07F7CB401F43CC405B
:20B6E000376074600021BDE8F0871846F8E69046E0E6C245EAD2B8EB020E69EB03050138BF
:20B70000E4E72846D7E7404691E78146BEE7014678E702383C4445E7084608E7A8F102085C
:20B720003D442BE7704700BFDFF834D0002103E00C4B5B58435004310B480C4B42189A426F
:20B74000F6D30B4A02E0002342F8043B094B9A42F9D3FFF77AF900F011F8FFF76FF97047DA
:20B760000000032010BF000800000020B80B0020B80B00207C120020FEE7000070B50D4ED6
:20B780000D4CA41BA4100025A54209D10B4E0C4C00F022F8A41BA4100025A54205D170BDBA
:20B7A00056F8253098470135EEE756F8253098470135F2E708BF000808BF000808BF0008FE
:20B7C0000CBF000802440346934200D1704703F8011BF9E700000000F8B500BFF8BC08BCCF
:20B7E0009E467047F8B500BFF8BC08BC9E467047AA55AA55AA55AA55000000000000000033
:20B80000010203040607080900000000010203041F1C1F1E1F1E1F1F1E1F1E1F1F1D1F1E10
:20B820001F1E1F1F1E1F1E1F00002110422063308440A550C660E770088129914AA16BB16D
:20B840008CC1ADD1CEE1EFF13112100273325222B5529442F772D662399318837BB35AA310
:20B86000BDD39CC3FFF3DEE36224433420040114E664C774A44485546AA54BB52885099550
:20B88000EEE5CFF5ACC58DD55336722611163006D776F6669556B4465BB77AA71997388790
:20B8A000DFF7FEE79DD7BCC7C448E5588668A7784008611802282338CCC9EDD98EE9AFF9C0
:20B8C000488969990AA92BB9F55AD44AB77A966A711A500A333A122AFDDBDCCBBFFB9EEB10
:20B8E000799B588B3BBB1AABA66C877CE44CC55C222C033C600C411CAEED8FFDECCDCDDD50
:20B900002AAD0BBD688D499D977EB66ED55EF44E133E322E511E700E9FFFBEEFDDDFFCCF8F
:20B920001BBF3AAF599F788F8891A981CAB1EBA10CD12DC14EF16FE18010A100C230E3207B
:20B940000450254046706760B9839893FBA3DAB33DC31CD37FE35EF3B1029012F322D2320F
:20B960003542145277625672EAB5CBA5A89589856EF54FE52CD50DC5E234C324A01481044F
:20B980006674476424540544DBA7FAB79987B8975FE77EF71DC73CD7D326F2369106B0168F
:20B9A00057667676154634564CD96DC90EF92FE9C899E9898AB9ABA94458654806782768BF
:20B9C000C018E1088238A3287DCB5CDB3FEB1EFBF98BD89BBBAB9ABB754A545A376A167A0F
:20B9E000F10AD01AB32A923A2EFD0FED6CDD4DCDAABD8BADE89DC98D267C076C645C454C4F
:20BA0000A23C832CE01CC10C1FEF3EFF5DCF7CDF9BAFBABFD98FF89F176E367E554E745E8E
:20BA2000932EB23ED10EF01E400000000008024080000000000802400002000000080240C8
:20BA40000010000000080240000A050F0001000000040240000200000004024010000000CF
:20BA6000000402400200000000040240010001010100010101010001000100010002000328
:20BA800000000000000001000100010101000101010100010001000000000001000000009A
:20BAA000030003000401040104010401050205020502050202000200020002000200020044
:20BAC000030103010301030100010000010032003C3700371900191900190402FFFF060208
:20BAE0000002FFFF0202BC00D5BE00C73300354E003A4600464600461900191900190001BF
:20BB0000000001003C00323700371900191900190702FFFF05020302FFFF0102D500BCC778
:20BB200000BE3500333A004E4600464600461900191900190101010001000000003200376E
:20BB4000000000190019FFFFFFFFFFFF1002FFFF0802000000A400C600000028003D0000D0
:20BB6000004600460000001900190101010001000000003700320000001B0019FFFFFFFF6A
:20BB8000FFFF0902FFFF1102000000C600A40000003D0028000000460046000000190019FE
:20BBA0000001000001013200322D00001E00231E00001202FFFF16021402FFFFFFFFBA009C
:20BBC000AE9900003E0039280000460046460000110019110000000100010100320032000B
:20BBE000002D19001E0000231702FFFF1302FFFFFFFF1502AE00BA00009939003E000028DF
:20BC000046004600004619001100001100010000010037004132003C1E00231E001E180298
:20BC2000FFFF20022202FFFF2402BC00D1B400CD40002B36004C460046460046190019193E
:20BC400000190001000001004100373C00322800191E001E2102FFFF19022502FFFF2302E0
:20BC6000D100BCCD00B42B00404C0036460046460046190019190019000100000000460006
:20BC800032324B3C1E001E1E191E2802FFFF2602320230023402CD0098A2D6D12800282816
:20BCA00033334600464646461900141919190001000000003200463C4B321E001E1E191E85
:20BCC0002702FFFF29023502310233029800CDD1D6A2280028333328460046464646140075
:20BCE000191919190000000001004637375000411E1E1E19001E3602400238024402FFFF11
:20BD00004202C7CFC1C800CA324B484F00414646463700460F191909000F000000000100F8
:20BD20003737464100501E1E1E1E00193902410237024302FFFF4502C1CFC7CA00C8484B70
:20BD40003241004F46464646003719190F0F00090000000000003C463C4141411923191E85
:20BD60001923460250024802540252025602DDBFDBDDE3F6333A423D516046464646464633
:20BD80001919191919190000000000003C463C4141411E231E1E1E1E490251024702570293
:20BDA00053025502DBBFDDF6E3DD423A3360513D46464646464619191919191900000000D3
:20BDC0000000373C32373C371E191E191919580262026002660264026802C4C5BAD9DAB274
:20BDE00043284643283D373C3C464646050A0F191914000000000000323C37373C371E197F
:20BE000023201919610263025902690265026702BAC5C4B2DAD94628433D28433C3C374659
:20BE200046460F0A0514191900000000000050415A5050501E1E1E1E1E1E70027402720227
:20BE4000780276028002DFE6DCD3E3874F435E4664194646463746371919190819080000E3
:20BE6000000000005A41505050501E1E1E1E1E1E730275027102810277027902DCE6DF8735
:20BE8000E3D35E434F1964464646463746371919190819080000000000005A5A3C4B464678
:20BEA0002D282D282828820286028402900288029202E9FA6BEF699F5C972856282F463CB7
:20BEC00037463746190C081908190000000000003C5A5A46464B2D282D2828288502870230
:20BEE00083029302890291026BFAE99F69EF28975C2F2856373C46463746080C191908191A
:20BF000048F5FF7F01000000D5010008B1010008000000000020014000000100000000006B
:20BF2000000000000000000001000000000000000100000000000000000000000100000FEF
:20BF4000000000000064004018000000000000000000000000000300000010000000000111
:20BF6000000000000000000000000000010000000024F4000000000301011400000000008F
:20BF800000000055010000000000000000000000000000000000000000000000000000004B
:20BFA000000000000000000000000000000000000000000000000000000000000000000081
:20BFC000000000000000000000000000000000000000000000000000000000000000000061
:20BFE000000000000000000000000000000000000000000000000000000000000000000041
:20C00000000000000000000000000000000000000000000000000000000000000000000020
:20C400000000000000000000FF010000FFFFFFFFFFFFFFFFFFFFFFFFFFFFFFFFFFFFFFFF30
:20C42000FFFFFFFFFFFFFFFFFFFFFFFFFFFFFFFFFFFFFFFF0100000000000000000000000F
:20C440000000000000000000000000000000000000000000000000000000000000000000DC
:20C460000000000000000000000000000000000000000000000000000000000000000000BC
:20C4800000000000000000000000000000000000000000000000000000000000000000009C
:20C4A00000000000000000000000000000000000000000000000000000000000000000007C
:20C8A000000000000000000000000000000000000000000000000000030000000000000075
:20C8C000000000000000000000000000000000000000000000000000000000000000000058
:20C8E000000000000000000000000000000000000000000000000000020000000406010328
:20C900000000040100020202040206020000000006040301000004020102030205020702D2
:20C920000000000006040000000002030802100200000000000000000406000000000204BC
:20C94000090211020000000000000000010403000000030512021402160200000000000067
:20C9600003060100000003061302150217020000000000000103040600000407180220020A
:20C9800022022402000000000301060400000408190221022302250200000000030105049C
:20C9A00006000509260228023002320234020000010305060400050A270229023102330297
:20C9C00035020000010302060400050B360238024002420244020000030102040600050CA1
:20C9E000370239024102430245020000010302050406060D460248025002520254025602E6
:20CA0000030102050604060E470249025102530255025702010302050406060F580260021B
:20CA20006202640266026802030102050604061059026102630265026702690201030205C6
:20CA40000406061170027202740276027802800203010205060406127102730275027702E0
:20CA6000790281020103020504060613820284028602880290029202030102050604061419
:20CA8000830285028702890291029302EC0900200000000000000000000000000401FFFF36
:20CAA000FFFF00000000000000000000FFFF0000000000000000000063000000080000000F
:20CAC0000000004001000000FFFFFFFFFFFFFFFFFFFFFFFFFFFFFFFFFFFFFFFFFFFFFFFF2D
:20CAE000FFFFFFFFFFFFFFFFFFFFFFFFFFFFFFFFFFFFFFFFFFFFFFFFFFFFFFFFFFFFFFFF56
:20CB0000FFFFFFFFFFFFFFFFFFFFFFFFFFFFFFFFFFFFFFFFFFFFFFFFFFFFFFFFFFFFFFFF35
:20CB2000FFFFFFFFFFFFFFFFFFFFFFFFFFFFFFFFFFFFFFFFFFFFFFFFFFFFFFFFFFFFFFFF15
:20CB4000FFFFFFFFFFFFFFFFFFFFFFFFFFFFFFFFFFFFFFFFFFFFFFFFFFFFFFFFFFFFFFFFF5
:020000040803EF
:20FFE000FFFFFFFFFFFFFFFFFFFFFFFFFFFFFFFFFFFFFFFFFFFFFFFFFFFFFFFFCF0A4F48AD
:040000050800B7290F
:00000001FF
