Archive member included to satisfy reference by file (symbol)

c:/program files (x86)/atollic/truestudio for stm32 9.1.0/armtools/bin/../lib/gcc/arm-atollic-eabi/6.3.1/../../../../arm-atollic-eabi/lib/armv7e-m/fpu\libc_nano.a(lib_a-init.o)
                              Startup\startup_stm32f427xx.o (__libc_init_array)
c:/program files (x86)/atollic/truestudio for stm32 9.1.0/armtools/bin/../lib/gcc/arm-atollic-eabi/6.3.1/../../../../arm-atollic-eabi/lib/armv7e-m/fpu\libc_nano.a(lib_a-memset.o)
                              DIMC_Files\irs_protocol_dimc.o (memset)
c:/program files (x86)/atollic/truestudio for stm32 9.1.0/armtools/bin/../lib/gcc/arm-atollic-eabi/6.3.1/armv7e-m/fpu\libgcc.a(_arm_addsubdf3.o)
                              DIMC_Files\voltage_meas_dimc.o (__aeabi_dsub)
c:/program files (x86)/atollic/truestudio for stm32 9.1.0/armtools/bin/../lib/gcc/arm-atollic-eabi/6.3.1/armv7e-m/fpu\libgcc.a(_arm_muldivdf3.o)
                              DIMC_Files\voltage_meas_dimc.o (__aeabi_dmul)
c:/program files (x86)/atollic/truestudio for stm32 9.1.0/armtools/bin/../lib/gcc/arm-atollic-eabi/6.3.1/armv7e-m/fpu\libgcc.a(_arm_cmpdf2.o)
                              DIMC_Files\voltage_meas_dimc.o (__aeabi_dcmpgt)
c:/program files (x86)/atollic/truestudio for stm32 9.1.0/armtools/bin/../lib/gcc/arm-atollic-eabi/6.3.1/armv7e-m/fpu\libgcc.a(_arm_truncdfsf2.o)
                              DIMC_Files\voltage_meas_dimc.o (__aeabi_d2f)
c:/program files (x86)/atollic/truestudio for stm32 9.1.0/armtools/bin/../lib/gcc/arm-atollic-eabi/6.3.1/armv7e-m/fpu\libgcc.a(_aeabi_uldivmod.o)
                              02_STM_Drivers\Src\gipsy_hal_rcc.o (__aeabi_uldivmod)
c:/program files (x86)/atollic/truestudio for stm32 9.1.0/armtools/bin/../lib/gcc/arm-atollic-eabi/6.3.1/armv7e-m/fpu\libgcc.a(_udivmoddi4.o)
                              c:/program files (x86)/atollic/truestudio for stm32 9.1.0/armtools/bin/../lib/gcc/arm-atollic-eabi/6.3.1/armv7e-m/fpu\libgcc.a(_aeabi_uldivmod.o) (__udivmoddi4)
c:/program files (x86)/atollic/truestudio for stm32 9.1.0/armtools/bin/../lib/gcc/arm-atollic-eabi/6.3.1/armv7e-m/fpu\libgcc.a(_dvmd_tls.o)
                              c:/program files (x86)/atollic/truestudio for stm32 9.1.0/armtools/bin/../lib/gcc/arm-atollic-eabi/6.3.1/armv7e-m/fpu\libgcc.a(_aeabi_uldivmod.o) (__aeabi_ldiv0)

Memory Configuration

Name             Origin             Length             Attributes
RAM              0x20000000         0x00030000         xrw
CCMRAM           0x10000000         0x00010000         rw
FLASH            0x08000000         0x00100000         xr
*default*        0x00000000         0xffffffff

Linker script and memory map

LOAD c:/program files (x86)/atollic/truestudio for stm32 9.1.0/armtools/bin/../lib/gcc/arm-atollic-eabi/6.3.1/armv7e-m/fpu/crti.o
LOAD c:/program files (x86)/atollic/truestudio for stm32 9.1.0/armtools/bin/../lib/gcc/arm-atollic-eabi/6.3.1/armv7e-m/fpu/crtbegin.o
LOAD 02_STM_Drivers\Src\gipsy_hal_adc.o
LOAD 02_STM_Drivers\Src\gipsy_hal_can.o
LOAD 02_STM_Drivers\Src\gipsy_hal_cortex.o
LOAD 02_STM_Drivers\Src\gipsy_hal_gpio.o
LOAD 02_STM_Drivers\Src\gipsy_hal_i2c_dimc.o
LOAD 02_STM_Drivers\Src\gipsy_hal_rcc.o
LOAD 02_STM_Drivers\Src\gipsy_hal_rtc.o
LOAD 02_STM_Drivers\Src\gipsy_hal_uart.o
LOAD DIMC_Files\can_protocol_dimc.o
LOAD DIMC_Files\cbit_dimc.o
LOAD DIMC_Files\crc16.o
LOAD DIMC_Files\diac_mngmnt.o
LOAD DIMC_Files\exflash_dimc.o
LOAD DIMC_Files\fault_management_dimc.o
LOAD DIMC_Files\flash_integrity_test.o
LOAD DIMC_Files\gpio_control_dimc.o
LOAD DIMC_Files\irs_protocol_dimc.o
LOAD DIMC_Files\logger_dimc.o
LOAD DIMC_Files\mcu_config_dimc.o
LOAD DIMC_Files\module_init_dimc.o
LOAD DIMC_Files\pbit_dimc.o
LOAD DIMC_Files\periodic_dimc.o
LOAD DIMC_Files\system_params_dimc.o
LOAD DIMC_Files\voltage_meas_dimc.o
LOAD DIMC_Files\wdog.o
LOAD Src\gipsy_dimc_it.o
LOAD Src\main.o
LOAD Startup\startup_stm32f427xx.o
                0x00000080                malloc_getpagesize_P = 0x80
START GROUP
LOAD c:/program files (x86)/atollic/truestudio for stm32 9.1.0/armtools/bin/../lib/gcc/arm-atollic-eabi/6.3.1/../../../../arm-atollic-eabi/lib/armv7e-m/fpu\libc_nano.a
LOAD c:/program files (x86)/atollic/truestudio for stm32 9.1.0/armtools/bin/../lib/gcc/arm-atollic-eabi/6.3.1/../../../../arm-atollic-eabi/lib/armv7e-m/fpu\libm.a
END GROUP
START GROUP
LOAD c:/program files (x86)/atollic/truestudio for stm32 9.1.0/armtools/bin/../lib/gcc/arm-atollic-eabi/6.3.1/armv7e-m/fpu\libgcc.a
LOAD c:/program files (x86)/atollic/truestudio for stm32 9.1.0/armtools/bin/../lib/gcc/arm-atollic-eabi/6.3.1/../../../../arm-atollic-eabi/lib/armv7e-m/fpu\libc_nano.a
END GROUP
START GROUP
LOAD c:/program files (x86)/atollic/truestudio for stm32 9.1.0/armtools/bin/../lib/gcc/arm-atollic-eabi/6.3.1/armv7e-m/fpu\libgcc.a
LOAD c:/program files (x86)/atollic/truestudio for stm32 9.1.0/armtools/bin/../lib/gcc/arm-atollic-eabi/6.3.1/../../../../arm-atollic-eabi/lib/armv7e-m/fpu\libc_nano.a
LOAD c:/program files (x86)/atollic/truestudio for stm32 9.1.0/armtools/bin/../lib/gcc/arm-atollic-eabi/6.3.1/../../../../arm-atollic-eabi/lib/armv7e-m/fpu\libnosys.a
END GROUP
START GROUP
LOAD c:/program files (x86)/atollic/truestudio for stm32 9.1.0/armtools/bin/../lib/gcc/arm-atollic-eabi/6.3.1/armv7e-m/fpu\libgcc.a
LOAD c:/program files (x86)/atollic/truestudio for stm32 9.1.0/armtools/bin/../lib/gcc/arm-atollic-eabi/6.3.1/../../../../arm-atollic-eabi/lib/armv7e-m/fpu\libc_nano.a
LOAD c:/program files (x86)/atollic/truestudio for stm32 9.1.0/armtools/bin/../lib/gcc/arm-atollic-eabi/6.3.1/../../../../arm-atollic-eabi/lib/armv7e-m/fpu\libnosys.a
END GROUP
LOAD c:/program files (x86)/atollic/truestudio for stm32 9.1.0/armtools/bin/../lib/gcc/arm-atollic-eabi/6.3.1/armv7e-m/fpu/crtend.o
LOAD c:/program files (x86)/atollic/truestudio for stm32 9.1.0/armtools/bin/../lib/gcc/arm-atollic-eabi/6.3.1/armv7e-m/fpu/crtn.o
                0x20030000                _estack = 0x20030000
                0x00000200                _Min_Heap_Size = 0x200
                0x00000400                _Min_Stack_Size = 0x400

.isr_vector     0x08000000      0x1ac
                0x08000000                . = ALIGN (0x4)
 *(.isr_vector)
 .isr_vector    0x08000000      0x1ac Startup\startup_stm32f427xx.o
                0x08000000                g_pfnVectors
                0x080001ac                . = ALIGN (0x4)

.text           0x080001b0     0xb8b8
                0x080001b0                . = ALIGN (0x4)
 *(.text)
 .text          0x080001b0        0x0 c:/program files (x86)/atollic/truestudio for stm32 9.1.0/armtools/bin/../lib/gcc/arm-atollic-eabi/6.3.1/armv7e-m/fpu/crti.o
 .text          0x080001b0       0x40 c:/program files (x86)/atollic/truestudio for stm32 9.1.0/armtools/bin/../lib/gcc/arm-atollic-eabi/6.3.1/armv7e-m/fpu/crtbegin.o
 .text          0x080001f0      0x238 02_STM_Drivers\Src\gipsy_hal_adc.o
                0x080001f0                HAL_ADC_Init
                0x08000358                HAL_ADC_Perform_Conversion
 .text          0x08000428      0x7b4 02_STM_Drivers\Src\gipsy_hal_can.o
                0x08000428                HAL_CAN_Init
                0x080008bc                HAL_CAN_Stop
                0x080008e8                HAL_CAN_AddTxMessage
                0x08000a34                HAL_CAN_GetRxMessage
                0x08000ba4                HAL_CAN_IRQHandler
 .text          0x08000bdc      0x1ec 02_STM_Drivers\Src\gipsy_hal_cortex.o
                0x08000bdc                HAL_NVIC_SetPriorityGrouping
                0x08000c44                HAL_NVIC_SetPriority
                0x08000d3a                HAL_NVIC_EnableIRQ
                0x08000d7c                HAL_SYSTICK_Config
 .text          0x08000dc8      0x528 02_STM_Drivers\Src\gipsy_hal_gpio.o
                0x08000dc8                HAL_GPIO_Init
                0x08001118                HAL_GPIO_ReadPin
                0x080011b4                HAL_GPIO_WritePin
                0x08001264                HAL_GPIO_TogglePin
 .text          0x080012f0     0x1134 02_STM_Drivers\Src\gipsy_hal_i2c_dimc.o
                0x080012f0                HAL_I2C_Init
                0x0800149c                HAL_I2C_Mem_Write
                0x080016b4                HAL_I2C_Mem_Read
 .text          0x08002424      0x5a0 02_STM_Drivers\Src\gipsy_hal_rcc.o
                0x08002424                HAL_RCC_OscConfig
                0x080025b8                HAL_RCC_ClockConfig
                0x080027bc                HAL_RCC_GetPCLK1Freq
                0x080027ec                HAL_RCC_GetPCLK2Freq
                0x0800281c                HAL_RCCEx_PeriphCLKConfig
                0x08002954                HAL_IncTick
                0x08002978                HAL_GetTick
                0x08002990                HAL_Delay
 .text          0x080029c4      0x7ec 02_STM_Drivers\Src\gipsy_hal_rtc.o
                0x080029c4                RTC_StartUp_Initialization
                0x08002a3c                RTC_SetDateTime
                0x08002bd8                RTC_GetDateTime
 .text          0x080031b0      0x5d0 02_STM_Drivers\Src\gipsy_hal_uart.o
                0x080031b0                HAL_UART_Init
                0x08003394                HAL_UART_Transmit
                0x0800355c                HAL_UART_IRQHandler
                0x08003666                HAL_UART_Receive_IT
 .text          0x08003780      0x6bc DIMC_Files\can_protocol_dimc.o
                0x08003780                HAL_CAN_RxFifo0MsgPendingCallback
                0x08003cc0                CAN_Message_Transmit
 .text          0x08003e3c      0x110 DIMC_Files\cbit_dimc.o
                0x08003e3c                Perform_CBIT_Test
 .text          0x08003f4c       0x70 DIMC_Files\crc16.o
                0x08003f4c                Calculate_CRC16
 .text          0x08003fbc      0x1e4 DIMC_Files\diac_mngmnt.o
                0x08003fbc                Test_CH_A_Inputs
                0x080040d8                Diac_Control
 .text          0x080041a0      0x634 DIMC_Files\exflash_dimc.o
                0x080041a0                Write_EEPROM
                0x0800425c                Read_EEPROM
                0x08004378                Init_Mem_Hal
                0x08004448                Erase_EEPROM
                0x080044ac                Cbit_Mem_Test
                0x080044f0                Pbit_Mem_Test
 .text          0x080047d4     0x1500 DIMC_Files\fault_management_dimc.o
                0x080047d4                Fault_Management
 .text          0x08005cd4       0xa4 DIMC_Files\flash_integrity_test.o
                0x08005cd4                Flash_Integrity_Test
 .text          0x08005d78      0x65c DIMC_Files\gpio_control_dimc.o
                0x08005d78                Read_FLT_Channel_A_C_Inputs
                0x08005de8                Read_OPER_Inputs
                0x08005e60                Read_IBIT_Input
                0x08005e8c                Test_OPER_Inputs
                0x08005ff8                Test_Flt_CH_B
                0x08006168                Test_CH_C_Inputs
                0x080062e8                Read_FLT_Sense_Inputs
                0x08006318                Fault_Channel_OUT_Control
                0x08006378                Manage_OnBoard_Leds
 .text          0x080063d4      0xfc8 DIMC_Files\irs_protocol_dimc.o
                0x080063d4                HAL_UART1_RxCpltCallback
                0x080064fc                Parse_IRS_Command
                0x080066e8                IRS_Send_Msg_Operational_Status_Report
                0x08006924                IRS_Send_Msg_Maintanance_Actuator_Data
                0x08006aa4                IRS_Send_Msg_Log_Data_Report
                0x08007060                IRS_Send_Msg_Maintenance_Report
                0x08007360                IRS_UART1_Serial_Init
 .text          0x0800739c      0x338 DIMC_Files\logger_dimc.o
                0x0800739c                Set_Logger_Erase_Flag
                0x080073b4                Get_Logger_Status
                0x080073cc                Set_Read_Request
                0x080073f8                Write_Event_To_Memory
                0x080074f0                Read_Events_From_Memory
                0x08007550                Erase_Memory
                0x08007604                Proccess_Logger_Request_from_IRS
 .text          0x080076d4      0x514 DIMC_Files\mcu_config_dimc.o
                0x080076d4                MCU_Periph_Config
                0x08007820                MCU_CAN_Interface_Init
 .text          0x08007be8       0xfc DIMC_Files\module_init_dimc.o
                0x08007be8                DIMC_Module_Init
 .text          0x08007ce4      0xaa8 DIMC_Files\pbit_dimc.o
                0x08007ce4                Perform_DIMC_PBIT_Test
                0x08007dc4                Perform_System_PBIT_Test
 .text          0x0800878c     0x1bc8 DIMC_Files\periodic_dimc.o
                0x0800878c                Periodic_Tasks_Scheduler
 .text          0x0800a354      0x670 DIMC_Files\system_params_dimc.o
                0x0800a354                Get_Actuator_CurrLimits
                0x0800a404                Get_Actuator_VibrLimits
                0x0800a48c                Init_Ctrys_Status_Table
                0x0800a4f0                Get_Actuator_Status
                0x0800a544                Get_CTRY_Status
                0x0800a584                Get_CTRY_All_Actuators_Status
                0x0800a5c8                Set_Actuator_Status
                0x0800a674                Set_CTRY_Status
                0x0800a6ec                Set_CTRY_All_Actuators_Status_FL
                0x0800a788                Monitor_Status_Table
                0x0800a828                Get_Actuator_Speed
                0x0800a8b8                Get_Equipped_Actuators
                0x0800a928                Get_CTRY_DIAC_Ch
                0x0800a968                Get_Actuator_Id
 *fill*         0x0800a9c4        0x4 
 .text          0x0800a9c8      0x1bc DIMC_Files\voltage_meas_dimc.o
                0x0800a9c8                Test_OnBoard_Voltage
 .text          0x0800ab84      0x104 DIMC_Files\wdog.o
                0x0800ab84                WDOG_Perform_Test
                0x0800ac24                WDOG_Get_Test_Result
                0x0800ac3c                WDOG_Trigger
 .text          0x0800ac88       0x2c Src\gipsy_dimc_it.o
                0x0800ac88                SysTick_Handler
                0x0800ac94                USART1_IRQHandler
                0x0800aca8                CAN1_RX0_IRQHandler
 .text          0x0800acb4       0x84 Src\main.o
                0x0800acb4                main
                0x0800acc2                SystemInit
                0x0800ad30                Error_Handler
 .text          0x0800ad38       0x14 Startup\startup_stm32f427xx.o
 .text          0x0800ad4c        0x0 c:/program files (x86)/atollic/truestudio for stm32 9.1.0/armtools/bin/../lib/gcc/arm-atollic-eabi/6.3.1/../../../../arm-atollic-eabi/lib/armv7e-m/fpu\libc_nano.a(lib_a-init.o)
 .text          0x0800ad4c        0x0 c:/program files (x86)/atollic/truestudio for stm32 9.1.0/armtools/bin/../lib/gcc/arm-atollic-eabi/6.3.1/../../../../arm-atollic-eabi/lib/armv7e-m/fpu\libc_nano.a(lib_a-memset.o)
 .text          0x0800ad4c      0x370 c:/program files (x86)/atollic/truestudio for stm32 9.1.0/armtools/bin/../lib/gcc/arm-atollic-eabi/6.3.1/armv7e-m/fpu\libgcc.a(_arm_addsubdf3.o)
                0x0800ad4c                __aeabi_drsub
                0x0800ad54                __aeabi_dsub
                0x0800ad54                __subdf3
                0x0800ad58                __aeabi_dadd
                0x0800ad58                __adddf3
                0x0800afd0                __floatunsidf
                0x0800afd0                __aeabi_ui2d
                0x0800aff0                __floatsidf
                0x0800aff0                __aeabi_i2d
                0x0800b014                __aeabi_f2d
                0x0800b014                __extendsfdf2
                0x0800b050                __floatundidf
                0x0800b050                __aeabi_ul2d
                0x0800b060                __floatdidf
                0x0800b060                __aeabi_l2d
 .text          0x0800b0bc      0x424 c:/program files (x86)/atollic/truestudio for stm32 9.1.0/armtools/bin/../lib/gcc/arm-atollic-eabi/6.3.1/armv7e-m/fpu\libgcc.a(_arm_muldivdf3.o)
                0x0800b0bc                __aeabi_dmul
                0x0800b0bc                __muldf3
                0x0800b310                __divdf3
                0x0800b310                __aeabi_ddiv
 .text          0x0800b4e0      0x110 c:/program files (x86)/atollic/truestudio for stm32 9.1.0/armtools/bin/../lib/gcc/arm-atollic-eabi/6.3.1/armv7e-m/fpu\libgcc.a(_arm_cmpdf2.o)
                0x0800b4e0                __gtdf2
                0x0800b4e0                __gedf2
                0x0800b4e8                __ltdf2
                0x0800b4e8                __ledf2
                0x0800b4f0                __nedf2
                0x0800b4f0                __eqdf2
                0x0800b4f0                __cmpdf2
                0x0800b56c                __aeabi_cdrcmple
                0x0800b57c                __aeabi_cdcmpeq
                0x0800b57c                __aeabi_cdcmple
                0x0800b58c                __aeabi_dcmpeq
                0x0800b5a0                __aeabi_dcmplt
                0x0800b5b4                __aeabi_dcmple
                0x0800b5c8                __aeabi_dcmpge
                0x0800b5dc                __aeabi_dcmpgt
 .text          0x0800b5f0       0xa0 c:/program files (x86)/atollic/truestudio for stm32 9.1.0/armtools/bin/../lib/gcc/arm-atollic-eabi/6.3.1/armv7e-m/fpu\libgcc.a(_arm_truncdfsf2.o)
                0x0800b5f0                __truncdfsf2
                0x0800b5f0                __aeabi_d2f
 .text          0x0800b690       0x30 c:/program files (x86)/atollic/truestudio for stm32 9.1.0/armtools/bin/../lib/gcc/arm-atollic-eabi/6.3.1/armv7e-m/fpu\libgcc.a(_aeabi_uldivmod.o)
                0x0800b690                __aeabi_uldivmod
 .text          0x0800b6c0      0x2dc c:/program files (x86)/atollic/truestudio for stm32 9.1.0/armtools/bin/../lib/gcc/arm-atollic-eabi/6.3.1/armv7e-m/fpu\libgcc.a(_udivmoddi4.o)
                0x0800b6c0                __udivmoddi4
 .text          0x0800b99c        0x4 c:/program files (x86)/atollic/truestudio for stm32 9.1.0/armtools/bin/../lib/gcc/arm-atollic-eabi/6.3.1/armv7e-m/fpu\libgcc.a(_dvmd_tls.o)
                0x0800b99c                __aeabi_idiv0
                0x0800b99c                __aeabi_ldiv0
 .text          0x0800b9a0        0x0 c:/program files (x86)/atollic/truestudio for stm32 9.1.0/armtools/bin/../lib/gcc/arm-atollic-eabi/6.3.1/armv7e-m/fpu/crtend.o
 .text          0x0800b9a0        0x0 c:/program files (x86)/atollic/truestudio for stm32 9.1.0/armtools/bin/../lib/gcc/arm-atollic-eabi/6.3.1/armv7e-m/fpu/crtn.o
 *(.text*)
 .text.Reset_Handler
                0x0800b9a0       0x50 Startup\startup_stm32f427xx.o
                0x0800b9a0                Reset_Handler
 .text.Default_Handler
                0x0800b9f0        0x2 Startup\startup_stm32f427xx.o
                0x0800b9f0                RTC_Alarm_IRQHandler
                0x0800b9f0                HASH_RNG_IRQHandler
                0x0800b9f0                EXTI2_IRQHandler
                0x0800b9f0                TIM8_CC_IRQHandler
                0x0800b9f0                DebugMon_Handler
                0x0800b9f0                UART8_IRQHandler
                0x0800b9f0                SPI4_IRQHandler
                0x0800b9f0                TIM1_CC_IRQHandler
                0x0800b9f0                DMA2_Stream5_IRQHandler
                0x0800b9f0                HardFault_Handler
                0x0800b9f0                DMA1_Stream5_IRQHandler
                0x0800b9f0                PVD_IRQHandler
                0x0800b9f0                SDIO_IRQHandler
                0x0800b9f0                TAMP_STAMP_IRQHandler
                0x0800b9f0                PendSV_Handler
                0x0800b9f0                NMI_Handler
                0x0800b9f0                CAN2_RX1_IRQHandler
                0x0800b9f0                EXTI3_IRQHandler
                0x0800b9f0                TIM8_TRG_COM_TIM14_IRQHandler
                0x0800b9f0                TIM1_UP_TIM10_IRQHandler
                0x0800b9f0                TIM8_UP_TIM13_IRQHandler
                0x0800b9f0                I2C3_ER_IRQHandler
                0x0800b9f0                EXTI0_IRQHandler
                0x0800b9f0                I2C2_EV_IRQHandler
                0x0800b9f0                DMA1_Stream2_IRQHandler
                0x0800b9f0                FPU_IRQHandler
                0x0800b9f0                OTG_HS_WKUP_IRQHandler
                0x0800b9f0                UsageFault_Handler
                0x0800b9f0                CAN2_SCE_IRQHandler
                0x0800b9f0                DMA2_Stream2_IRQHandler
                0x0800b9f0                SPI1_IRQHandler
                0x0800b9f0                TIM6_DAC_IRQHandler
                0x0800b9f0                TIM1_BRK_TIM9_IRQHandler
                0x0800b9f0                DCMI_IRQHandler
                0x0800b9f0                CAN2_RX0_IRQHandler
                0x0800b9f0                DMA2_Stream3_IRQHandler
                0x0800b9f0                USART6_IRQHandler
                0x0800b9f0                USART3_IRQHandler
                0x0800b9f0                CAN1_RX1_IRQHandler
                0x0800b9f0                UART5_IRQHandler
                0x0800b9f0                DMA2_Stream0_IRQHandler
                0x0800b9f0                TIM4_IRQHandler
                0x0800b9f0                I2C1_EV_IRQHandler
                0x0800b9f0                DMA1_Stream6_IRQHandler
                0x0800b9f0                DMA1_Stream1_IRQHandler
                0x0800b9f0                UART4_IRQHandler
                0x0800b9f0                TIM3_IRQHandler
                0x0800b9f0                RCC_IRQHandler
                0x0800b9f0                TIM8_BRK_TIM12_IRQHandler
                0x0800b9f0                Default_Handler
                0x0800b9f0                EXTI15_10_IRQHandler
                0x0800b9f0                ADC_IRQHandler
                0x0800b9f0                DMA1_Stream7_IRQHandler
                0x0800b9f0                SPI5_IRQHandler
                0x0800b9f0                TIM7_IRQHandler
                0x0800b9f0                CAN2_TX_IRQHandler
                0x0800b9f0                TIM5_IRQHandler
                0x0800b9f0                DMA2_Stream7_IRQHandler
                0x0800b9f0                I2C3_EV_IRQHandler
                0x0800b9f0                EXTI9_5_IRQHandler
                0x0800b9f0                RTC_WKUP_IRQHandler
                0x0800b9f0                ETH_WKUP_IRQHandler
                0x0800b9f0                SPI2_IRQHandler
                0x0800b9f0                OTG_HS_EP1_IN_IRQHandler
                0x0800b9f0                MemManage_Handler
                0x0800b9f0                DMA1_Stream0_IRQHandler
                0x0800b9f0                CAN1_TX_IRQHandler
                0x0800b9f0                SVC_Handler
                0x0800b9f0                EXTI4_IRQHandler
                0x0800b9f0                ETH_IRQHandler
                0x0800b9f0                OTG_HS_EP1_OUT_IRQHandler
                0x0800b9f0                WWDG_IRQHandler
                0x0800b9f0                SPI6_IRQHandler
                0x0800b9f0                TIM2_IRQHandler
                0x0800b9f0                OTG_FS_WKUP_IRQHandler
                0x0800b9f0                TIM1_TRG_COM_TIM11_IRQHandler
                0x0800b9f0                OTG_HS_IRQHandler
                0x0800b9f0                DMA2D_IRQHandler
                0x0800b9f0                EXTI1_IRQHandler
                0x0800b9f0                UART7_IRQHandler
                0x0800b9f0                USART2_IRQHandler
                0x0800b9f0                I2C2_ER_IRQHandler
                0x0800b9f0                DMA2_Stream1_IRQHandler
                0x0800b9f0                CAN1_SCE_IRQHandler
                0x0800b9f0                FLASH_IRQHandler
                0x0800b9f0                DMA2_Stream4_IRQHandler
                0x0800b9f0                BusFault_Handler
                0x0800b9f0                OTG_FS_IRQHandler
                0x0800b9f0                SPI3_IRQHandler
                0x0800b9f0                DMA1_Stream4_IRQHandler
                0x0800b9f0                I2C1_ER_IRQHandler
                0x0800b9f0                FMC_IRQHandler
                0x0800b9f0                DMA2_Stream6_IRQHandler
                0x0800b9f0                SAI1_IRQHandler
                0x0800b9f0                DMA1_Stream3_IRQHandler
 *fill*         0x0800b9f2        0x2 
 .text.__libc_init_array
                0x0800b9f4       0x48 c:/program files (x86)/atollic/truestudio for stm32 9.1.0/armtools/bin/../lib/gcc/arm-atollic-eabi/6.3.1/../../../../arm-atollic-eabi/lib/armv7e-m/fpu\libc_nano.a(lib_a-init.o)
                0x0800b9f4                __libc_init_array
 .text.memset   0x0800ba3c       0x10 c:/program files (x86)/atollic/truestudio for stm32 9.1.0/armtools/bin/../lib/gcc/arm-atollic-eabi/6.3.1/../../../../arm-atollic-eabi/lib/armv7e-m/fpu\libc_nano.a(lib_a-memset.o)
                0x0800ba3c                memset
 *(.glue_7)
 .glue_7        0x0800ba4c        0x0 linker stubs
 *(.glue_7t)
 .glue_7t       0x0800ba4c        0x0 linker stubs
 *(.eh_frame)
 .eh_frame      0x0800ba4c        0x0 c:/program files (x86)/atollic/truestudio for stm32 9.1.0/armtools/bin/../lib/gcc/arm-atollic-eabi/6.3.1/armv7e-m/fpu/crtbegin.o
 .eh_frame      0x0800ba4c        0x4 c:/program files (x86)/atollic/truestudio for stm32 9.1.0/armtools/bin/../lib/gcc/arm-atollic-eabi/6.3.1/armv7e-m/fpu/crtend.o
 *(.init)
 .init          0x0800ba50        0x4 c:/program files (x86)/atollic/truestudio for stm32 9.1.0/armtools/bin/../lib/gcc/arm-atollic-eabi/6.3.1/armv7e-m/fpu/crti.o
                0x0800ba50                _init
 .init          0x0800ba54        0x8 c:/program files (x86)/atollic/truestudio for stm32 9.1.0/armtools/bin/../lib/gcc/arm-atollic-eabi/6.3.1/armv7e-m/fpu/crtn.o
 *(.fini)
 .fini          0x0800ba5c        0x4 c:/program files (x86)/atollic/truestudio for stm32 9.1.0/armtools/bin/../lib/gcc/arm-atollic-eabi/6.3.1/armv7e-m/fpu/crti.o
                0x0800ba5c                _fini
 .fini          0x0800ba60        0x8 c:/program files (x86)/atollic/truestudio for stm32 9.1.0/armtools/bin/../lib/gcc/arm-atollic-eabi/6.3.1/armv7e-m/fpu/crtn.o
                0x0800ba68                . = ALIGN (0x4)
                0x0800ba68                _etext = .

.vfp11_veneer   0x0800ba68        0x0
 .vfp11_veneer  0x0800ba68        0x0 linker stubs

.v4_bx          0x0800ba68        0x0
 .v4_bx         0x0800ba68        0x0 linker stubs

.iplt           0x0800ba68        0x0
 .iplt          0x0800ba68        0x0 c:/program files (x86)/atollic/truestudio for stm32 9.1.0/armtools/bin/../lib/gcc/arm-atollic-eabi/6.3.1/armv7e-m/fpu/crtbegin.o

.rodata         0x0800ba68      0x710
                0x0800ba68                . = ALIGN (0x4)
 *(.rodata)
 .rodata        0x0800ba68        0x8 02_STM_Drivers\Src\gipsy_hal_can.o
 .rodata        0x0800ba70       0x18 02_STM_Drivers\Src\gipsy_hal_rcc.o
                0x0800ba70                AHBPrescTable
                0x0800ba80                APBPrescTable
 .rodata        0x0800ba88       0x18 02_STM_Drivers\Src\gipsy_hal_rtc.o
 .rodata        0x0800baa0      0x200 DIMC_Files\crc16.o
 .rodata        0x0800bca0       0x24 DIMC_Files\diac_mngmnt.o
                0x0800bca0                ST_DIAC_PS_PIN
 .rodata        0x0800bcc4       0x68 DIMC_Files\gpio_control_dimc.o
                0x0800bcc4                ST_FAULT_CH_OUT_PIN
 .rodata        0x0800bd2c      0x44c DIMC_Files\system_params_dimc.o
 *(.rodata*)
                0x0800c178                . = ALIGN (0x4)

.ARM.extab      0x0800c178        0x0
 *(.ARM.extab* .gnu.linkonce.armextab.*)
 .ARM.extab     0x0800c178        0x0 c:/program files (x86)/atollic/truestudio for stm32 9.1.0/armtools/bin/../lib/gcc/arm-atollic-eabi/6.3.1/armv7e-m/fpu\libgcc.a(_udivmoddi4.o)

.ARM            0x0800c178        0x8
                0x0800c178                __exidx_start = .
 *(.ARM.exidx*)
 .ARM.exidx     0x0800c178        0x8 c:/program files (x86)/atollic/truestudio for stm32 9.1.0/armtools/bin/../lib/gcc/arm-atollic-eabi/6.3.1/armv7e-m/fpu\libgcc.a(_udivmoddi4.o)
                0x0800c180                __exidx_end = .

.rel.dyn        0x0800c180        0x0
 .rel.iplt      0x0800c180        0x0 c:/program files (x86)/atollic/truestudio for stm32 9.1.0/armtools/bin/../lib/gcc/arm-atollic-eabi/6.3.1/armv7e-m/fpu/crtbegin.o

.preinit_array  0x0800c180        0x0
                0x0800c180                PROVIDE (__preinit_array_start, .)
 *(.preinit_array*)
                0x0800c180                PROVIDE (__preinit_array_end, .)

.init_array     0x0800c180        0x4
                0x0800c180                PROVIDE (__init_array_start, .)
 *(SORT(.init_array.*))
 *(.init_array*)
 .init_array    0x0800c180        0x4 c:/program files (x86)/atollic/truestudio for stm32 9.1.0/armtools/bin/../lib/gcc/arm-atollic-eabi/6.3.1/armv7e-m/fpu/crtbegin.o
                0x0800c184                PROVIDE (__init_array_end, .)

.fini_array     0x0800c184        0x4
                [!provide]                PROVIDE (__fini_array_start, .)
 *(SORT(.fini_array.*))
 *(.fini_array*)
 .fini_array    0x0800c184        0x4 c:/program files (x86)/atollic/truestudio for stm32 9.1.0/armtools/bin/../lib/gcc/arm-atollic-eabi/6.3.1/armv7e-m/fpu/crtbegin.o
                [!provide]                PROVIDE (__fini_array_end, .)
                0x0800c188                _sidata = LOADADDR (.data)

.data           0x20000000      0xc48 load address 0x0800c188
                0x20000000                . = ALIGN (0x4)
                0x20000000                _sdata = .
 *(.data)
 .data          0x20000000        0x0 c:/program files (x86)/atollic/truestudio for stm32 9.1.0/armtools/bin/../lib/gcc/arm-atollic-eabi/6.3.1/armv7e-m/fpu/crti.o
 .data          0x20000000        0x4 c:/program files (x86)/atollic/truestudio for stm32 9.1.0/armtools/bin/../lib/gcc/arm-atollic-eabi/6.3.1/armv7e-m/fpu/crtbegin.o
                0x20000000                __dso_handle
 .data          0x20000004       0x30 02_STM_Drivers\Src\gipsy_hal_adc.o
 .data          0x20000034       0x28 02_STM_Drivers\Src\gipsy_hal_can.o
                0x20000034                hCAN1
 .data          0x2000005c        0x0 02_STM_Drivers\Src\gipsy_hal_cortex.o
 .data          0x2000005c        0x0 02_STM_Drivers\Src\gipsy_hal_gpio.o
 .data          0x2000005c        0x0 02_STM_Drivers\Src\gipsy_hal_i2c_dimc.o
 .data          0x2000005c        0x8 02_STM_Drivers\Src\gipsy_hal_rcc.o
                0x2000005c                Tick_Freq
                0x20000060                SystemCoreClock
 .data          0x20000064        0x7 02_STM_Drivers\Src\gipsy_hal_rtc.o
 .data          0x2000006b        0x0 02_STM_Drivers\Src\gipsy_hal_uart.o
 .data          0x2000006b        0x0 DIMC_Files\can_protocol_dimc.o
 .data          0x2000006b        0x0 DIMC_Files\cbit_dimc.o
 .data          0x2000006b        0x0 DIMC_Files\crc16.o
 .data          0x2000006b        0x0 DIMC_Files\diac_mngmnt.o
 *fill*         0x2000006b        0x1 
 .data          0x2000006c        0x8 DIMC_Files\exflash_dimc.o
                0x2000006c                WrBuffer
 .data          0x20000074      0x4cc DIMC_Files\fault_management_dimc.o
                0x20000074                Prev_Sys_Status
 .data          0x20000540        0x0 DIMC_Files\flash_integrity_test.o
 .data          0x20000540        0x0 DIMC_Files\gpio_control_dimc.o
 .data          0x20000540        0x2 DIMC_Files\irs_protocol_dimc.o
                0x20000540                RX_Byte
                0x20000541                ucCyclic_Msg_Counter
 .data          0x20000542        0x0 DIMC_Files\logger_dimc.o
 .data          0x20000542        0x0 DIMC_Files\mcu_config_dimc.o
 *fill*         0x20000542        0x2 
 .data          0x20000544      0x534 DIMC_Files\module_init_dimc.o
                0x20000544                g_CTRYs_SW_Ver
                0x2000056c                g_SysStatus
                0x20000a38                g_IBIT_Result
 .data          0x20000a78        0x0 DIMC_Files\pbit_dimc.o
 .data          0x20000a78      0x1c0 DIMC_Files\periodic_dimc.o
                0x20000a78                Next_Sys_Mod
                0x20000a7c                ctry_operation_data_table
                0x20000c0c                oper_handler
                0x20000c20                Disc_Prev_State
                0x20000c2c                Disc_Curr_State
 .data          0x20000c38        0x0 DIMC_Files\system_params_dimc.o
 .data          0x20000c38        0xc DIMC_Files\voltage_meas_dimc.o
                0x20000c38                g_VoltageMeasurement
                0x20000c3c                VoltHwParams
 .data          0x20000c44        0x1 DIMC_Files\wdog.o
 .data          0x20000c45        0x0 Src\gipsy_dimc_it.o
 .data          0x20000c45        0x0 Src\main.o
 .data          0x20000c45        0x0 Startup\startup_stm32f427xx.o
 .data          0x20000c45        0x0 c:/program files (x86)/atollic/truestudio for stm32 9.1.0/armtools/bin/../lib/gcc/arm-atollic-eabi/6.3.1/../../../../arm-atollic-eabi/lib/armv7e-m/fpu\libc_nano.a(lib_a-init.o)
 .data          0x20000c45        0x0 c:/program files (x86)/atollic/truestudio for stm32 9.1.0/armtools/bin/../lib/gcc/arm-atollic-eabi/6.3.1/../../../../arm-atollic-eabi/lib/armv7e-m/fpu\libc_nano.a(lib_a-memset.o)
 .data          0x20000c45        0x0 c:/program files (x86)/atollic/truestudio for stm32 9.1.0/armtools/bin/../lib/gcc/arm-atollic-eabi/6.3.1/armv7e-m/fpu\libgcc.a(_arm_addsubdf3.o)
 .data          0x20000c45        0x0 c:/program files (x86)/atollic/truestudio for stm32 9.1.0/armtools/bin/../lib/gcc/arm-atollic-eabi/6.3.1/armv7e-m/fpu\libgcc.a(_arm_muldivdf3.o)
 .data          0x20000c45        0x0 c:/program files (x86)/atollic/truestudio for stm32 9.1.0/armtools/bin/../lib/gcc/arm-atollic-eabi/6.3.1/armv7e-m/fpu\libgcc.a(_arm_cmpdf2.o)
 .data          0x20000c45        0x0 c:/program files (x86)/atollic/truestudio for stm32 9.1.0/armtools/bin/../lib/gcc/arm-atollic-eabi/6.3.1/armv7e-m/fpu\libgcc.a(_arm_truncdfsf2.o)
 .data          0x20000c45        0x0 c:/program files (x86)/atollic/truestudio for stm32 9.1.0/armtools/bin/../lib/gcc/arm-atollic-eabi/6.3.1/armv7e-m/fpu\libgcc.a(_aeabi_uldivmod.o)
 .data          0x20000c45        0x0 c:/program files (x86)/atollic/truestudio for stm32 9.1.0/armtools/bin/../lib/gcc/arm-atollic-eabi/6.3.1/armv7e-m/fpu\libgcc.a(_udivmoddi4.o)
 .data          0x20000c45        0x0 c:/program files (x86)/atollic/truestudio for stm32 9.1.0/armtools/bin/../lib/gcc/arm-atollic-eabi/6.3.1/armv7e-m/fpu\libgcc.a(_dvmd_tls.o)
 .data          0x20000c45        0x0 c:/program files (x86)/atollic/truestudio for stm32 9.1.0/armtools/bin/../lib/gcc/arm-atollic-eabi/6.3.1/armv7e-m/fpu/crtend.o
 .data          0x20000c45        0x0 c:/program files (x86)/atollic/truestudio for stm32 9.1.0/armtools/bin/../lib/gcc/arm-atollic-eabi/6.3.1/armv7e-m/fpu/crtn.o
 *(.data*)
                0x20000c48                . = ALIGN (0x4)
 *fill*         0x20000c45        0x3 
                0x20000c48                _edata = .
                0x0800cdd0                _siccmram = LOADADDR (.ccmram)

.igot.plt       0x20000c48        0x0 load address 0x0800cdd0
 .igot.plt      0x20000c48        0x0 c:/program files (x86)/atollic/truestudio for stm32 9.1.0/armtools/bin/../lib/gcc/arm-atollic-eabi/6.3.1/armv7e-m/fpu/crtbegin.o

.ccmram         0x10000000        0x0 load address 0x0800cdd0
                0x10000000                . = ALIGN (0x4)
                0x10000000                _sccmram = .
 *(.ccmram)
 *(.ccmram*)
                0x10000000                . = ALIGN (0x4)
                0x10000000                _eccmram = .
                0x10000000                . = ALIGN (0x4)

.bss            0x20000c48      0x6c0
                0x20000c48                _sbss = .
                0x20000c48                __bss_start__ = _sbss
 *(.bss)
 .bss           0x20000c48        0x0 c:/program files (x86)/atollic/truestudio for stm32 9.1.0/armtools/bin/../lib/gcc/arm-atollic-eabi/6.3.1/armv7e-m/fpu/crti.o
 .bss           0x20000c48       0x1c c:/program files (x86)/atollic/truestudio for stm32 9.1.0/armtools/bin/../lib/gcc/arm-atollic-eabi/6.3.1/armv7e-m/fpu/crtbegin.o
 .bss           0x20000c64        0x0 02_STM_Drivers\Src\gipsy_hal_adc.o
 .bss           0x20000c64        0x0 02_STM_Drivers\Src\gipsy_hal_can.o
 .bss           0x20000c64        0x0 02_STM_Drivers\Src\gipsy_hal_cortex.o
 .bss           0x20000c64        0x0 02_STM_Drivers\Src\gipsy_hal_gpio.o
 .bss           0x20000c64        0x0 02_STM_Drivers\Src\gipsy_hal_i2c_dimc.o
 .bss           0x20000c64        0x4 02_STM_Drivers\Src\gipsy_hal_rcc.o
                0x20000c64                Tick_Value
 .bss           0x20000c68       0x1c 02_STM_Drivers\Src\gipsy_hal_rtc.o
                0x20000c68                hRTC
 .bss           0x20000c84        0x0 02_STM_Drivers\Src\gipsy_hal_uart.o
 .bss           0x20000c84        0x0 DIMC_Files\can_protocol_dimc.o
 .bss           0x20000c84        0x1 DIMC_Files\cbit_dimc.o
                0x20000c84                Oper_Fl_Detected
 .bss           0x20000c85        0x0 DIMC_Files\crc16.o
 .bss           0x20000c85        0x0 DIMC_Files\diac_mngmnt.o
 *fill*         0x20000c85        0x3 
 .bss           0x20000c88       0x15 DIMC_Files\exflash_dimc.o
                0x20000c88                Mem_HAL
                0x20000c90                RdBuffer
                0x20000c98                I2C_devSelect_address_WR
                0x20000c99                I2C_devSelect_address_RD
                0x20000c9a                I2C_mem_address
                0x20000c9c                EEPROM_Status
 *fill*         0x20000c9d        0x3 
 .bss           0x20000ca0       0x25 DIMC_Files\fault_management_dimc.o
                0x20000ca0                Monitor_CTRY_Time
                0x20000ca4                Number_Abnormal_Act_report
                0x20000ca6                Fault_Value
                0x20000ca8                Spare
                0x20000cac                FLT_CH_Turn_On
                0x20000caf                Flt_Ch_Activate
                0x20000cb0                Current_FL_Ctrays
                0x20000cb4                Prev_FL_Ctrays
                0x20000cb8                Abnormal_Act_Activation_FLT_Detected
                0x20000cb9                Prev_Sens_A_FLT
                0x20000cbc                Prev_Test_Status
 .bss           0x20000cc5        0x0 DIMC_Files\flash_integrity_test.o
 .bss           0x20000cc5        0x0 DIMC_Files\gpio_control_dimc.o
 *fill*         0x20000cc5        0x3 
 .bss           0x20000cc8       0x46 DIMC_Files\irs_protocol_dimc.o
                0x20000cc8                IRS_Errors_Counter
                0x20000ccc                Ser_Rx_Buffer
                0x20000cec                Received_Msg
                0x20000d0a                bCmd_Ready_For_Parse
                0x20000d0b                Buff_index
                0x20000d0c                ucLast_Message_Status
                0x20000d0d                Cmd_Data_length_Bytes
 *fill*         0x20000d0e        0x2 
 .bss           0x20000d10       0xa8 DIMC_Files\logger_dimc.o
                0x20000d10                g_Logger_Status
                0x20000d11                Logger_Erase_Flag
                0x20000d14                StReadFromLogger
                0x20000d18                Event_buffer
 .bss           0x20000db8       0x84 DIMC_Files\mcu_config_dimc.o
                0x20000db8                g_HandleI2C2_ExFlash
                0x20000e04                g_HandleUart1Irs
 .bss           0x20000e3c       0x11 DIMC_Files\module_init_dimc.o
                0x20000e3c                g_Sys_OPER_Time_Sec
                0x20000e40                g_Sys_Acc_OPER_Time_Sec
                0x20000e44                g_SysTestsStatus
 *fill*         0x20000e4d        0x3 
 .bss           0x20000e50      0x2d0 DIMC_Files\pbit_dimc.o
                0x20000e50                g_CTRY_Resp
 .bss           0x20001120      0x148 DIMC_Files\periodic_dimc.o
                0x20001120                Spare_Bytes
                0x20001124                Data_Buf
                0x2000112c                g_Maint_ActuatorData
                0x20001134                g_Actuator_Man_Req
                0x20001144                Timer
                0x20001244                Ctry_Status_Hal
 .bss           0x20001268       0xa0 DIMC_Files\system_params_dimc.o
 .bss           0x20001308        0x0 DIMC_Files\voltage_meas_dimc.o
 .bss           0x20001308        0x0 DIMC_Files\wdog.o
 .bss           0x20001308        0x0 Src\gipsy_dimc_it.o
 .bss           0x20001308        0x0 Src\main.o
 .bss           0x20001308        0x0 Startup\startup_stm32f427xx.o
 .bss           0x20001308        0x0 c:/program files (x86)/atollic/truestudio for stm32 9.1.0/armtools/bin/../lib/gcc/arm-atollic-eabi/6.3.1/../../../../arm-atollic-eabi/lib/armv7e-m/fpu\libc_nano.a(lib_a-init.o)
 .bss           0x20001308        0x0 c:/program files (x86)/atollic/truestudio for stm32 9.1.0/armtools/bin/../lib/gcc/arm-atollic-eabi/6.3.1/../../../../arm-atollic-eabi/lib/armv7e-m/fpu\libc_nano.a(lib_a-memset.o)
 .bss           0x20001308        0x0 c:/program files (x86)/atollic/truestudio for stm32 9.1.0/armtools/bin/../lib/gcc/arm-atollic-eabi/6.3.1/armv7e-m/fpu\libgcc.a(_arm_addsubdf3.o)
 .bss           0x20001308        0x0 c:/program files (x86)/atollic/truestudio for stm32 9.1.0/armtools/bin/../lib/gcc/arm-atollic-eabi/6.3.1/armv7e-m/fpu\libgcc.a(_arm_muldivdf3.o)
 .bss           0x20001308        0x0 c:/program files (x86)/atollic/truestudio for stm32 9.1.0/armtools/bin/../lib/gcc/arm-atollic-eabi/6.3.1/armv7e-m/fpu\libgcc.a(_arm_cmpdf2.o)
 .bss           0x20001308        0x0 c:/program files (x86)/atollic/truestudio for stm32 9.1.0/armtools/bin/../lib/gcc/arm-atollic-eabi/6.3.1/armv7e-m/fpu\libgcc.a(_arm_truncdfsf2.o)
 .bss           0x20001308        0x0 c:/program files (x86)/atollic/truestudio for stm32 9.1.0/armtools/bin/../lib/gcc/arm-atollic-eabi/6.3.1/armv7e-m/fpu\libgcc.a(_aeabi_uldivmod.o)
 .bss           0x20001308        0x0 c:/program files (x86)/atollic/truestudio for stm32 9.1.0/armtools/bin/../lib/gcc/arm-atollic-eabi/6.3.1/armv7e-m/fpu\libgcc.a(_udivmoddi4.o)
 .bss           0x20001308        0x0 c:/program files (x86)/atollic/truestudio for stm32 9.1.0/armtools/bin/../lib/gcc/arm-atollic-eabi/6.3.1/armv7e-m/fpu\libgcc.a(_dvmd_tls.o)
 .bss           0x20001308        0x0 c:/program files (x86)/atollic/truestudio for stm32 9.1.0/armtools/bin/../lib/gcc/arm-atollic-eabi/6.3.1/armv7e-m/fpu/crtend.o
 .bss           0x20001308        0x0 c:/program files (x86)/atollic/truestudio for stm32 9.1.0/armtools/bin/../lib/gcc/arm-atollic-eabi/6.3.1/armv7e-m/fpu/crtn.o
 *(.bss*)
 *(COMMON)
                0x20001308                . = ALIGN (0x4)
                0x20001308                _ebss = .
                0x20001308                __bss_end__ = _ebss

._user_heap_stack
                0x20001308      0x600
                0x20001308                . = ALIGN (0x4)
                [!provide]                PROVIDE (end, .)
                [!provide]                PROVIDE (_end, .)
                0x20001508                . = (. + _Min_Heap_Size)
 *fill*         0x20001308      0x200 
                0x20001908                . = (. + _Min_Stack_Size)
 *fill*         0x20001508      0x400 
                0x20001908                . = ALIGN (0x4)

/DISCARD/
 libc.a(*)
 libm.a(*)
 libgcc.a(*)

.ARM.attributes
                0x00000000       0x30
 *(.ARM.attributes)
 .ARM.attributes
                0x00000000       0x22 c:/program files (x86)/atollic/truestudio for stm32 9.1.0/armtools/bin/../lib/gcc/arm-atollic-eabi/6.3.1/armv7e-m/fpu/crti.o
 .ARM.attributes
                0x00000022       0x34 c:/program files (x86)/atollic/truestudio for stm32 9.1.0/armtools/bin/../lib/gcc/arm-atollic-eabi/6.3.1/armv7e-m/fpu/crtbegin.o
 .ARM.attributes
                0x00000056       0x39 02_STM_Drivers\Src\gipsy_hal_adc.o
 .ARM.attributes
                0x0000008f       0x39 02_STM_Drivers\Src\gipsy_hal_can.o
 .ARM.attributes
                0x000000c8       0x39 02_STM_Drivers\Src\gipsy_hal_cortex.o
 .ARM.attributes
                0x00000101       0x39 02_STM_Drivers\Src\gipsy_hal_gpio.o
 .ARM.attributes
                0x0000013a       0x39 02_STM_Drivers\Src\gipsy_hal_i2c_dimc.o
 .ARM.attributes
                0x00000173       0x39 02_STM_Drivers\Src\gipsy_hal_rcc.o
 .ARM.attributes
                0x000001ac       0x39 02_STM_Drivers\Src\gipsy_hal_rtc.o
 .ARM.attributes
                0x000001e5       0x39 02_STM_Drivers\Src\gipsy_hal_uart.o
 .ARM.attributes
                0x0000021e       0x39 DIMC_Files\can_protocol_dimc.o
 .ARM.attributes
                0x00000257       0x39 DIMC_Files\cbit_dimc.o
 .ARM.attributes
                0x00000290       0x39 DIMC_Files\crc16.o
 .ARM.attributes
                0x000002c9       0x39 DIMC_Files\diac_mngmnt.o
 .ARM.attributes
                0x00000302       0x39 DIMC_Files\exflash_dimc.o
 .ARM.attributes
                0x0000033b       0x39 DIMC_Files\fault_management_dimc.o
 .ARM.attributes
                0x00000374       0x39 DIMC_Files\flash_integrity_test.o
 .ARM.attributes
                0x000003ad       0x39 DIMC_Files\gpio_control_dimc.o
 .ARM.attributes
                0x000003e6       0x39 DIMC_Files\irs_protocol_dimc.o
 .ARM.attributes
                0x0000041f       0x39 DIMC_Files\logger_dimc.o
 .ARM.attributes
                0x00000458       0x39 DIMC_Files\mcu_config_dimc.o
 .ARM.attributes
                0x00000491       0x39 DIMC_Files\module_init_dimc.o
 .ARM.attributes
                0x000004ca       0x39 DIMC_Files\pbit_dimc.o
 .ARM.attributes
                0x00000503       0x39 DIMC_Files\periodic_dimc.o
 .ARM.attributes
                0x0000053c       0x39 DIMC_Files\system_params_dimc.o
 .ARM.attributes
                0x00000575       0x39 DIMC_Files\voltage_meas_dimc.o
 .ARM.attributes
                0x000005ae       0x39 DIMC_Files\wdog.o
 .ARM.attributes
                0x000005e7       0x39 Src\gipsy_dimc_it.o
 .ARM.attributes
                0x00000620       0x39 Src\main.o
 .ARM.attributes
                0x00000659       0x21 Startup\startup_stm32f427xx.o
 .ARM.attributes
                0x0000067a       0x34 c:/program files (x86)/atollic/truestudio for stm32 9.1.0/armtools/bin/../lib/gcc/arm-atollic-eabi/6.3.1/../../../../arm-atollic-eabi/lib/armv7e-m/fpu\libc_nano.a(lib_a-init.o)
 .ARM.attributes
                0x000006ae       0x34 c:/program files (x86)/atollic/truestudio for stm32 9.1.0/armtools/bin/../lib/gcc/arm-atollic-eabi/6.3.1/../../../../arm-atollic-eabi/lib/armv7e-m/fpu\libc_nano.a(lib_a-memset.o)
 .ARM.attributes
                0x000006e2       0x22 c:/program files (x86)/atollic/truestudio for stm32 9.1.0/armtools/bin/../lib/gcc/arm-atollic-eabi/6.3.1/armv7e-m/fpu\libgcc.a(_arm_addsubdf3.o)
 .ARM.attributes
                0x00000704       0x22 c:/program files (x86)/atollic/truestudio for stm32 9.1.0/armtools/bin/../lib/gcc/arm-atollic-eabi/6.3.1/armv7e-m/fpu\libgcc.a(_arm_muldivdf3.o)
 .ARM.attributes
                0x00000726       0x22 c:/program files (x86)/atollic/truestudio for stm32 9.1.0/armtools/bin/../lib/gcc/arm-atollic-eabi/6.3.1/armv7e-m/fpu\libgcc.a(_arm_cmpdf2.o)
 .ARM.attributes
                0x00000748       0x22 c:/program files (x86)/atollic/truestudio for stm32 9.1.0/armtools/bin/../lib/gcc/arm-atollic-eabi/6.3.1/armv7e-m/fpu\libgcc.a(_arm_truncdfsf2.o)
 .ARM.attributes
                0x0000076a       0x22 c:/program files (x86)/atollic/truestudio for stm32 9.1.0/armtools/bin/../lib/gcc/arm-atollic-eabi/6.3.1/armv7e-m/fpu\libgcc.a(_aeabi_uldivmod.o)
 .ARM.attributes
                0x0000078c       0x34 c:/program files (x86)/atollic/truestudio for stm32 9.1.0/armtools/bin/../lib/gcc/arm-atollic-eabi/6.3.1/armv7e-m/fpu\libgcc.a(_udivmoddi4.o)
 .ARM.attributes
                0x000007c0       0x22 c:/program files (x86)/atollic/truestudio for stm32 9.1.0/armtools/bin/../lib/gcc/arm-atollic-eabi/6.3.1/armv7e-m/fpu\libgcc.a(_dvmd_tls.o)
 .ARM.attributes
                0x000007e2       0x34 c:/program files (x86)/atollic/truestudio for stm32 9.1.0/armtools/bin/../lib/gcc/arm-atollic-eabi/6.3.1/armv7e-m/fpu/crtend.o
 .ARM.attributes
                0x00000816       0x22 c:/program files (x86)/atollic/truestudio for stm32 9.1.0/armtools/bin/../lib/gcc/arm-atollic-eabi/6.3.1/armv7e-m/fpu/crtn.o
OUTPUT(IPS_DIMC_01_09.elf elf32-littlearm)

.comment        0x00000000       0x7c
 .comment       0x00000000       0x7c 02_STM_Drivers\Src\gipsy_hal_adc.o
                                 0x7d (size before relaxing)
 .comment       0x0000007c       0x7d 02_STM_Drivers\Src\gipsy_hal_can.o
 .comment       0x0000007c       0x7d 02_STM_Drivers\Src\gipsy_hal_cortex.o
 .comment       0x0000007c       0x7d 02_STM_Drivers\Src\gipsy_hal_gpio.o
 .comment       0x0000007c       0x7d 02_STM_Drivers\Src\gipsy_hal_i2c_dimc.o
 .comment       0x0000007c       0x7d 02_STM_Drivers\Src\gipsy_hal_rcc.o
 .comment       0x0000007c       0x7d 02_STM_Drivers\Src\gipsy_hal_rtc.o
 .comment       0x0000007c       0x7d 02_STM_Drivers\Src\gipsy_hal_uart.o
 .comment       0x0000007c       0x7d DIMC_Files\can_protocol_dimc.o
 .comment       0x0000007c       0x7d DIMC_Files\cbit_dimc.o
 .comment       0x0000007c       0x7d DIMC_Files\crc16.o
 .comment       0x0000007c       0x7d DIMC_Files\diac_mngmnt.o
 .comment       0x0000007c       0x7d DIMC_Files\exflash_dimc.o
 .comment       0x0000007c       0x7d DIMC_Files\fault_management_dimc.o
 .comment       0x0000007c       0x7d DIMC_Files\flash_integrity_test.o
 .comment       0x0000007c       0x7d DIMC_Files\gpio_control_dimc.o
 .comment       0x0000007c       0x7d DIMC_Files\irs_protocol_dimc.o
 .comment       0x0000007c       0x7d DIMC_Files\logger_dimc.o
 .comment       0x0000007c       0x7d DIMC_Files\mcu_config_dimc.o
 .comment       0x0000007c       0x7d DIMC_Files\module_init_dimc.o
 .comment       0x0000007c       0x7d DIMC_Files\pbit_dimc.o
 .comment       0x0000007c       0x7d DIMC_Files\periodic_dimc.o
 .comment       0x0000007c       0x7d DIMC_Files\system_params_dimc.o
 .comment       0x0000007c       0x7d DIMC_Files\voltage_meas_dimc.o
 .comment       0x0000007c       0x7d DIMC_Files\wdog.o
 .comment       0x0000007c       0x7d Src\gipsy_dimc_it.o
 .comment       0x0000007c       0x7d Src\main.o

.debug_frame    0x00000000      0x290
 .debug_frame   0x00000000       0x2c c:/program files (x86)/atollic/truestudio for stm32 9.1.0/armtools/bin/../lib/gcc/arm-atollic-eabi/6.3.1/../../../../arm-atollic-eabi/lib/armv7e-m/fpu\libc_nano.a(lib_a-init.o)
 .debug_frame   0x0000002c       0x20 c:/program files (x86)/atollic/truestudio for stm32 9.1.0/armtools/bin/../lib/gcc/arm-atollic-eabi/6.3.1/../../../../arm-atollic-eabi/lib/armv7e-m/fpu\libc_nano.a(lib_a-memset.o)
 .debug_frame   0x0000004c       0xac c:/program files (x86)/atollic/truestudio for stm32 9.1.0/armtools/bin/../lib/gcc/arm-atollic-eabi/6.3.1/armv7e-m/fpu\libgcc.a(_arm_addsubdf3.o)
 .debug_frame   0x000000f8       0x50 c:/program files (x86)/atollic/truestudio for stm32 9.1.0/armtools/bin/../lib/gcc/arm-atollic-eabi/6.3.1/armv7e-m/fpu\libgcc.a(_arm_muldivdf3.o)
 .debug_frame   0x00000148       0xc4 c:/program files (x86)/atollic/truestudio for stm32 9.1.0/armtools/bin/../lib/gcc/arm-atollic-eabi/6.3.1/armv7e-m/fpu\libgcc.a(_arm_cmpdf2.o)
 .debug_frame   0x0000020c       0x24 c:/program files (x86)/atollic/truestudio for stm32 9.1.0/armtools/bin/../lib/gcc/arm-atollic-eabi/6.3.1/armv7e-m/fpu\libgcc.a(_arm_truncdfsf2.o)
 .debug_frame   0x00000230       0x2c c:/program files (x86)/atollic/truestudio for stm32 9.1.0/armtools/bin/../lib/gcc/arm-atollic-eabi/6.3.1/armv7e-m/fpu\libgcc.a(_aeabi_uldivmod.o)
 .debug_frame   0x0000025c       0x34 c:/program files (x86)/atollic/truestudio for stm32 9.1.0/armtools/bin/../lib/gcc/arm-atollic-eabi/6.3.1/armv7e-m/fpu\libgcc.a(_udivmoddi4.o)

Cross Reference Table

Symbol                                            File
ADC_IRQHandler                                    Startup\startup_stm32f427xx.o
AHBPrescTable                                     02_STM_Drivers\Src\gipsy_hal_rcc.o
APBPrescTable                                     02_STM_Drivers\Src\gipsy_hal_rcc.o
Abnormal_Act_Activation_FLT_Detected              DIMC_Files\fault_management_dimc.o
Buff_index                                        DIMC_Files\irs_protocol_dimc.o
BusFault_Handler                                  Startup\startup_stm32f427xx.o
CAN1_RX0_IRQHandler                               Src\gipsy_dimc_it.o
CAN1_RX1_IRQHandler                               Startup\startup_stm32f427xx.o
CAN1_SCE_IRQHandler                               Startup\startup_stm32f427xx.o
CAN1_TX_IRQHandler                                Startup\startup_stm32f427xx.o
CAN2_RX0_IRQHandler                               Startup\startup_stm32f427xx.o
CAN2_RX1_IRQHandler                               Startup\startup_stm32f427xx.o
CAN2_SCE_IRQHandler                               Startup\startup_stm32f427xx.o
CAN2_TX_IRQHandler                                Startup\startup_stm32f427xx.o
CAN_Message_Transmit                              DIMC_Files\can_protocol_dimc.o
                                                  DIMC_Files\periodic_dimc.o
                                                  DIMC_Files\pbit_dimc.o
                                                  DIMC_Files\gpio_control_dimc.o
                                                  DIMC_Files\fault_management_dimc.o
Calculate_CRC16                                   DIMC_Files\crc16.o
                                                  DIMC_Files\irs_protocol_dimc.o
Cbit_Mem_Test                                     DIMC_Files\exflash_dimc.o
Cmd_Data_length_Bytes                             DIMC_Files\irs_protocol_dimc.o
Ctry_Status_Hal                                   DIMC_Files\periodic_dimc.o
Current_FL_Ctrays                                 DIMC_Files\fault_management_dimc.o
DCMI_IRQHandler                                   Startup\startup_stm32f427xx.o
DIMC_Module_Init                                  DIMC_Files\module_init_dimc.o
                                                  Src\main.o
DMA1_Stream0_IRQHandler                           Startup\startup_stm32f427xx.o
DMA1_Stream1_IRQHandler                           Startup\startup_stm32f427xx.o
DMA1_Stream2_IRQHandler                           Startup\startup_stm32f427xx.o
DMA1_Stream3_IRQHandler                           Startup\startup_stm32f427xx.o
DMA1_Stream4_IRQHandler                           Startup\startup_stm32f427xx.o
DMA1_Stream5_IRQHandler                           Startup\startup_stm32f427xx.o
DMA1_Stream6_IRQHandler                           Startup\startup_stm32f427xx.o
DMA1_Stream7_IRQHandler                           Startup\startup_stm32f427xx.o
DMA2D_IRQHandler                                  Startup\startup_stm32f427xx.o
DMA2_Stream0_IRQHandler                           Startup\startup_stm32f427xx.o
DMA2_Stream1_IRQHandler                           Startup\startup_stm32f427xx.o
DMA2_Stream2_IRQHandler                           Startup\startup_stm32f427xx.o
DMA2_Stream3_IRQHandler                           Startup\startup_stm32f427xx.o
DMA2_Stream4_IRQHandler                           Startup\startup_stm32f427xx.o
DMA2_Stream5_IRQHandler                           Startup\startup_stm32f427xx.o
DMA2_Stream6_IRQHandler                           Startup\startup_stm32f427xx.o
DMA2_Stream7_IRQHandler                           Startup\startup_stm32f427xx.o
Data_Buf                                          DIMC_Files\periodic_dimc.o
DebugMon_Handler                                  Startup\startup_stm32f427xx.o
Default_Handler                                   Startup\startup_stm32f427xx.o
Diac_Control                                      DIMC_Files\diac_mngmnt.o
                                                  DIMC_Files\pbit_dimc.o
                                                  DIMC_Files\fault_management_dimc.o
Disc_Curr_State                                   DIMC_Files\periodic_dimc.o
Disc_Prev_State                                   DIMC_Files\periodic_dimc.o
EEPROM_Status                                     DIMC_Files\exflash_dimc.o
ETH_IRQHandler                                    Startup\startup_stm32f427xx.o
ETH_WKUP_IRQHandler                               Startup\startup_stm32f427xx.o
EXTI0_IRQHandler                                  Startup\startup_stm32f427xx.o
EXTI15_10_IRQHandler                              Startup\startup_stm32f427xx.o
EXTI1_IRQHandler                                  Startup\startup_stm32f427xx.o
EXTI2_IRQHandler                                  Startup\startup_stm32f427xx.o
EXTI3_IRQHandler                                  Startup\startup_stm32f427xx.o
EXTI4_IRQHandler                                  Startup\startup_stm32f427xx.o
EXTI9_5_IRQHandler                                Startup\startup_stm32f427xx.o
Erase_EEPROM                                      DIMC_Files\exflash_dimc.o
                                                  DIMC_Files\logger_dimc.o
Erase_Memory                                      DIMC_Files\logger_dimc.o
Error_Handler                                     Src\main.o
                                                  DIMC_Files\mcu_config_dimc.o
Event_buffer                                      DIMC_Files\logger_dimc.o
FLASH_IRQHandler                                  Startup\startup_stm32f427xx.o
FLT_CH_Turn_On                                    DIMC_Files\fault_management_dimc.o
FMC_IRQHandler                                    Startup\startup_stm32f427xx.o
FPU_IRQHandler                                    Startup\startup_stm32f427xx.o
Fault_Channel_OUT_Control                         DIMC_Files\gpio_control_dimc.o
                                                  DIMC_Files\module_init_dimc.o
                                                  DIMC_Files\fault_management_dimc.o
                                                  DIMC_Files\diac_mngmnt.o
Fault_Management                                  DIMC_Files\fault_management_dimc.o
                                                  DIMC_Files\periodic_dimc.o
                                                  DIMC_Files\pbit_dimc.o
                                                  DIMC_Files\cbit_dimc.o
Fault_Value                                       DIMC_Files\fault_management_dimc.o
Flash_Integrity_Test                              DIMC_Files\flash_integrity_test.o
                                                  DIMC_Files\module_init_dimc.o
Flt_Ch_Activate                                   DIMC_Files\fault_management_dimc.o
Get_Actuator_CurrLimits                           DIMC_Files\system_params_dimc.o
                                                  DIMC_Files\periodic_dimc.o
                                                  DIMC_Files\pbit_dimc.o
Get_Actuator_Id                                   DIMC_Files\system_params_dimc.o
                                                  DIMC_Files\periodic_dimc.o
                                                  DIMC_Files\pbit_dimc.o
Get_Actuator_Speed                                DIMC_Files\system_params_dimc.o
                                                  DIMC_Files\periodic_dimc.o
Get_Actuator_Status                               DIMC_Files\system_params_dimc.o
                                                  DIMC_Files\periodic_dimc.o
Get_Actuator_VibrLimits                           DIMC_Files\system_params_dimc.o
                                                  DIMC_Files\periodic_dimc.o
                                                  DIMC_Files\pbit_dimc.o
Get_CTRY_All_Actuators_Status                     DIMC_Files\system_params_dimc.o
                                                  DIMC_Files\irs_protocol_dimc.o
                                                  DIMC_Files\fault_management_dimc.o
Get_CTRY_DIAC_Ch                                  DIMC_Files\system_params_dimc.o
                                                  DIMC_Files\fault_management_dimc.o
Get_CTRY_Status                                   DIMC_Files\system_params_dimc.o
                                                  DIMC_Files\periodic_dimc.o
                                                  DIMC_Files\pbit_dimc.o
                                                  DIMC_Files\irs_protocol_dimc.o
Get_Equipped_Actuators                            DIMC_Files\system_params_dimc.o
                                                  DIMC_Files\fault_management_dimc.o
Get_Logger_Status                                 DIMC_Files\logger_dimc.o
                                                  DIMC_Files\irs_protocol_dimc.o
HAL_ADC_Init                                      02_STM_Drivers\Src\gipsy_hal_adc.o
                                                  DIMC_Files\mcu_config_dimc.o
HAL_ADC_Perform_Conversion                        02_STM_Drivers\Src\gipsy_hal_adc.o
                                                  DIMC_Files\voltage_meas_dimc.o
HAL_CAN_AddTxMessage                              02_STM_Drivers\Src\gipsy_hal_can.o
                                                  DIMC_Files\can_protocol_dimc.o
HAL_CAN_GetRxMessage                              02_STM_Drivers\Src\gipsy_hal_can.o
                                                  DIMC_Files\can_protocol_dimc.o
HAL_CAN_IRQHandler                                02_STM_Drivers\Src\gipsy_hal_can.o
                                                  Src\gipsy_dimc_it.o
HAL_CAN_Init                                      02_STM_Drivers\Src\gipsy_hal_can.o
                                                  DIMC_Files\mcu_config_dimc.o
HAL_CAN_RxFifo0MsgPendingCallback                 DIMC_Files\can_protocol_dimc.o
                                                  02_STM_Drivers\Src\gipsy_hal_can.o
HAL_CAN_Stop                                      02_STM_Drivers\Src\gipsy_hal_can.o
                                                  DIMC_Files\fault_management_dimc.o
HAL_Delay                                         02_STM_Drivers\Src\gipsy_hal_rcc.o
                                                  DIMC_Files\wdog.o
                                                  DIMC_Files\periodic_dimc.o
                                                  DIMC_Files\pbit_dimc.o
                                                  DIMC_Files\gpio_control_dimc.o
                                                  DIMC_Files\fault_management_dimc.o
                                                  DIMC_Files\exflash_dimc.o
                                                  DIMC_Files\diac_mngmnt.o
                                                  02_STM_Drivers\Src\gipsy_hal_can.o
HAL_GPIO_Init                                     02_STM_Drivers\Src\gipsy_hal_gpio.o
                                                  DIMC_Files\mcu_config_dimc.o
HAL_GPIO_ReadPin                                  02_STM_Drivers\Src\gipsy_hal_gpio.o
                                                  DIMC_Files\gpio_control_dimc.o
HAL_GPIO_TogglePin                                02_STM_Drivers\Src\gipsy_hal_gpio.o
                                                  DIMC_Files\module_init_dimc.o
                                                  DIMC_Files\gpio_control_dimc.o
HAL_GPIO_WritePin                                 02_STM_Drivers\Src\gipsy_hal_gpio.o
                                                  DIMC_Files\wdog.o
                                                  DIMC_Files\pbit_dimc.o
                                                  DIMC_Files\mcu_config_dimc.o
                                                  DIMC_Files\gpio_control_dimc.o
                                                  DIMC_Files\diac_mngmnt.o
HAL_GetTick                                       02_STM_Drivers\Src\gipsy_hal_rcc.o
                                                  DIMC_Files\periodic_dimc.o
                                                  DIMC_Files\pbit_dimc.o
                                                  DIMC_Files\module_init_dimc.o
                                                  DIMC_Files\irs_protocol_dimc.o
                                                  DIMC_Files\fault_management_dimc.o
                                                  DIMC_Files\can_protocol_dimc.o
                                                  02_STM_Drivers\Src\gipsy_hal_uart.o
                                                  02_STM_Drivers\Src\gipsy_hal_rtc.o
                                                  02_STM_Drivers\Src\gipsy_hal_i2c_dimc.o
                                                  02_STM_Drivers\Src\gipsy_hal_can.o
                                                  02_STM_Drivers\Src\gipsy_hal_adc.o
HAL_I2C_Init                                      02_STM_Drivers\Src\gipsy_hal_i2c_dimc.o
                                                  DIMC_Files\mcu_config_dimc.o
HAL_I2C_Mem_Read                                  02_STM_Drivers\Src\gipsy_hal_i2c_dimc.o
                                                  DIMC_Files\exflash_dimc.o
HAL_I2C_Mem_Write                                 02_STM_Drivers\Src\gipsy_hal_i2c_dimc.o
                                                  DIMC_Files\exflash_dimc.o
HAL_IncTick                                       02_STM_Drivers\Src\gipsy_hal_rcc.o
                                                  Src\gipsy_dimc_it.o
HAL_NVIC_EnableIRQ                                02_STM_Drivers\Src\gipsy_hal_cortex.o
                                                  DIMC_Files\mcu_config_dimc.o
HAL_NVIC_SetPriority                              02_STM_Drivers\Src\gipsy_hal_cortex.o
                                                  DIMC_Files\mcu_config_dimc.o
                                                  02_STM_Drivers\Src\gipsy_hal_rcc.o
HAL_NVIC_SetPriorityGrouping                      02_STM_Drivers\Src\gipsy_hal_cortex.o
                                                  DIMC_Files\mcu_config_dimc.o
HAL_RCCEx_PeriphCLKConfig                         02_STM_Drivers\Src\gipsy_hal_rcc.o
                                                  DIMC_Files\mcu_config_dimc.o
HAL_RCC_ClockConfig                               02_STM_Drivers\Src\gipsy_hal_rcc.o
                                                  DIMC_Files\mcu_config_dimc.o
HAL_RCC_GetPCLK1Freq                              02_STM_Drivers\Src\gipsy_hal_rcc.o
                                                  02_STM_Drivers\Src\gipsy_hal_i2c_dimc.o
HAL_RCC_GetPCLK2Freq                              02_STM_Drivers\Src\gipsy_hal_rcc.o
                                                  02_STM_Drivers\Src\gipsy_hal_uart.o
HAL_RCC_OscConfig                                 02_STM_Drivers\Src\gipsy_hal_rcc.o
                                                  DIMC_Files\mcu_config_dimc.o
HAL_SYSTICK_Config                                02_STM_Drivers\Src\gipsy_hal_cortex.o
                                                  02_STM_Drivers\Src\gipsy_hal_rcc.o
HAL_UART1_RxCpltCallback                          DIMC_Files\irs_protocol_dimc.o
                                                  02_STM_Drivers\Src\gipsy_hal_uart.o
HAL_UART_IRQHandler                               02_STM_Drivers\Src\gipsy_hal_uart.o
                                                  Src\gipsy_dimc_it.o
HAL_UART_Init                                     02_STM_Drivers\Src\gipsy_hal_uart.o
                                                  DIMC_Files\mcu_config_dimc.o
HAL_UART_Receive_IT                               02_STM_Drivers\Src\gipsy_hal_uart.o
                                                  DIMC_Files\irs_protocol_dimc.o
HAL_UART_Transmit                                 02_STM_Drivers\Src\gipsy_hal_uart.o
                                                  DIMC_Files\irs_protocol_dimc.o
HASH_RNG_IRQHandler                               Startup\startup_stm32f427xx.o
HardFault_Handler                                 Startup\startup_stm32f427xx.o
I2C1_ER_IRQHandler                                Startup\startup_stm32f427xx.o
I2C1_EV_IRQHandler                                Startup\startup_stm32f427xx.o
I2C2_ER_IRQHandler                                Startup\startup_stm32f427xx.o
I2C2_EV_IRQHandler                                Startup\startup_stm32f427xx.o
I2C3_ER_IRQHandler                                Startup\startup_stm32f427xx.o
I2C3_EV_IRQHandler                                Startup\startup_stm32f427xx.o
I2C_devSelect_address_RD                          DIMC_Files\exflash_dimc.o
I2C_devSelect_address_WR                          DIMC_Files\exflash_dimc.o
I2C_mem_address                                   DIMC_Files\exflash_dimc.o
IRS_Errors_Counter                                DIMC_Files\irs_protocol_dimc.o
IRS_Send_Msg_Log_Data_Report                      DIMC_Files\irs_protocol_dimc.o
                                                  DIMC_Files\logger_dimc.o
IRS_Send_Msg_Maintanance_Actuator_Data            DIMC_Files\irs_protocol_dimc.o
                                                  DIMC_Files\periodic_dimc.o
IRS_Send_Msg_Maintenance_Report                   DIMC_Files\irs_protocol_dimc.o
                                                  DIMC_Files\logger_dimc.o
IRS_Send_Msg_Operational_Status_Report            DIMC_Files\irs_protocol_dimc.o
                                                  DIMC_Files\periodic_dimc.o
IRS_UART1_Serial_Init                             DIMC_Files\irs_protocol_dimc.o
                                                  DIMC_Files\mcu_config_dimc.o
Init_Ctrys_Status_Table                           DIMC_Files\system_params_dimc.o
                                                  DIMC_Files\module_init_dimc.o
Init_Mem_Hal                                      DIMC_Files\exflash_dimc.o
                                                  DIMC_Files\module_init_dimc.o
Logger_Erase_Flag                                 DIMC_Files\logger_dimc.o
MCU_CAN_Interface_Init                            DIMC_Files\mcu_config_dimc.o
                                                  DIMC_Files\module_init_dimc.o
MCU_Periph_Config                                 DIMC_Files\mcu_config_dimc.o
                                                  DIMC_Files\module_init_dimc.o
Manage_OnBoard_Leds                               DIMC_Files\gpio_control_dimc.o
                                                  DIMC_Files\periodic_dimc.o
MemManage_Handler                                 Startup\startup_stm32f427xx.o
Mem_HAL                                           DIMC_Files\exflash_dimc.o
Monitor_CTRY_Time                                 DIMC_Files\fault_management_dimc.o
Monitor_Status_Table                              DIMC_Files\system_params_dimc.o
                                                  DIMC_Files\cbit_dimc.o
NMI_Handler                                       Startup\startup_stm32f427xx.o
Next_Sys_Mod                                      DIMC_Files\periodic_dimc.o
Number_Abnormal_Act_report                        DIMC_Files\fault_management_dimc.o
OTG_FS_IRQHandler                                 Startup\startup_stm32f427xx.o
OTG_FS_WKUP_IRQHandler                            Startup\startup_stm32f427xx.o
OTG_HS_EP1_IN_IRQHandler                          Startup\startup_stm32f427xx.o
OTG_HS_EP1_OUT_IRQHandler                         Startup\startup_stm32f427xx.o
OTG_HS_IRQHandler                                 Startup\startup_stm32f427xx.o
OTG_HS_WKUP_IRQHandler                            Startup\startup_stm32f427xx.o
Oper_Fl_Detected                                  DIMC_Files\cbit_dimc.o
PVD_IRQHandler                                    Startup\startup_stm32f427xx.o
Parse_IRS_Command                                 DIMC_Files\irs_protocol_dimc.o
                                                  DIMC_Files\periodic_dimc.o
Pbit_Mem_Test                                     DIMC_Files\exflash_dimc.o
                                                  DIMC_Files\pbit_dimc.o
PendSV_Handler                                    Startup\startup_stm32f427xx.o
Perform_CBIT_Test                                 DIMC_Files\cbit_dimc.o
                                                  DIMC_Files\periodic_dimc.o
Perform_DIMC_PBIT_Test                            DIMC_Files\pbit_dimc.o
                                                  DIMC_Files\module_init_dimc.o
Perform_System_PBIT_Test                          DIMC_Files\pbit_dimc.o
                                                  DIMC_Files\module_init_dimc.o
Periodic_Tasks_Scheduler                          DIMC_Files\periodic_dimc.o
                                                  Src\main.o
Prev_FL_Ctrays                                    DIMC_Files\fault_management_dimc.o
Prev_Sens_A_FLT                                   DIMC_Files\fault_management_dimc.o
Prev_Sys_Status                                   DIMC_Files\fault_management_dimc.o
Prev_Test_Status                                  DIMC_Files\fault_management_dimc.o
Proccess_Logger_Request_from_IRS                  DIMC_Files\logger_dimc.o
                                                  DIMC_Files\periodic_dimc.o
RCC_IRQHandler                                    Startup\startup_stm32f427xx.o
RTC_Alarm_IRQHandler                              Startup\startup_stm32f427xx.o
RTC_GetDateTime                                   02_STM_Drivers\Src\gipsy_hal_rtc.o
                                                  DIMC_Files\logger_dimc.o
                                                  DIMC_Files\irs_protocol_dimc.o
RTC_SetDateTime                                   02_STM_Drivers\Src\gipsy_hal_rtc.o
                                                  DIMC_Files\irs_protocol_dimc.o
RTC_StartUp_Initialization                        02_STM_Drivers\Src\gipsy_hal_rtc.o
                                                  DIMC_Files\module_init_dimc.o
RTC_WKUP_IRQHandler                               Startup\startup_stm32f427xx.o
RX_Byte                                           DIMC_Files\irs_protocol_dimc.o
RdBuffer                                          DIMC_Files\exflash_dimc.o
Read_EEPROM                                       DIMC_Files\exflash_dimc.o
                                                  DIMC_Files\logger_dimc.o
Read_Events_From_Memory                           DIMC_Files\logger_dimc.o
Read_FLT_Channel_A_C_Inputs                       DIMC_Files\gpio_control_dimc.o
                                                  DIMC_Files\periodic_dimc.o
                                                  DIMC_Files\diac_mngmnt.o
                                                  DIMC_Files\cbit_dimc.o
Read_FLT_Sense_Inputs                             DIMC_Files\gpio_control_dimc.o
                                                  DIMC_Files\periodic_dimc.o
                                                  DIMC_Files\fault_management_dimc.o
                                                  DIMC_Files\diac_mngmnt.o
Read_IBIT_Input                                   DIMC_Files\gpio_control_dimc.o
                                                  DIMC_Files\periodic_dimc.o
Read_OPER_Inputs                                  DIMC_Files\gpio_control_dimc.o
                                                  DIMC_Files\periodic_dimc.o
                                                  DIMC_Files\cbit_dimc.o
Received_Msg                                      DIMC_Files\irs_protocol_dimc.o
Reset_Handler                                     Startup\startup_stm32f427xx.o
SAI1_IRQHandler                                   Startup\startup_stm32f427xx.o
SDIO_IRQHandler                                   Startup\startup_stm32f427xx.o
SPI1_IRQHandler                                   Startup\startup_stm32f427xx.o
SPI2_IRQHandler                                   Startup\startup_stm32f427xx.o
SPI3_IRQHandler                                   Startup\startup_stm32f427xx.o
SPI4_IRQHandler                                   Startup\startup_stm32f427xx.o
SPI5_IRQHandler                                   Startup\startup_stm32f427xx.o
SPI6_IRQHandler                                   Startup\startup_stm32f427xx.o
ST_DIAC_PS_PIN                                    DIMC_Files\diac_mngmnt.o
ST_FAULT_CH_OUT_PIN                               DIMC_Files\gpio_control_dimc.o
SVC_Handler                                       Startup\startup_stm32f427xx.o
Ser_Rx_Buffer                                     DIMC_Files\irs_protocol_dimc.o
Set_Actuator_Status                               DIMC_Files\system_params_dimc.o
                                                  DIMC_Files\fault_management_dimc.o
Set_CTRY_All_Actuators_Status_FL                  DIMC_Files\system_params_dimc.o
                                                  DIMC_Files\pbit_dimc.o
                                                  DIMC_Files\fault_management_dimc.o
Set_CTRY_Status                                   DIMC_Files\system_params_dimc.o
                                                  DIMC_Files\pbit_dimc.o
                                                  DIMC_Files\fault_management_dimc.o
Set_Logger_Erase_Flag                             DIMC_Files\logger_dimc.o
                                                  DIMC_Files\irs_protocol_dimc.o
Set_Read_Request                                  DIMC_Files\logger_dimc.o
                                                  DIMC_Files\irs_protocol_dimc.o
Spare                                             DIMC_Files\fault_management_dimc.o
Spare_Bytes                                       DIMC_Files\periodic_dimc.o
StReadFromLogger                                  DIMC_Files\logger_dimc.o
SysTick_Handler                                   Src\gipsy_dimc_it.o
SystemCoreClock                                   02_STM_Drivers\Src\gipsy_hal_rcc.o
SystemInit                                        Src\main.o
                                                  Startup\startup_stm32f427xx.o
TAMP_STAMP_IRQHandler                             Startup\startup_stm32f427xx.o
TIM1_BRK_TIM9_IRQHandler                          Startup\startup_stm32f427xx.o
TIM1_CC_IRQHandler                                Startup\startup_stm32f427xx.o
TIM1_TRG_COM_TIM11_IRQHandler                     Startup\startup_stm32f427xx.o
TIM1_UP_TIM10_IRQHandler                          Startup\startup_stm32f427xx.o
TIM2_IRQHandler                                   Startup\startup_stm32f427xx.o
TIM3_IRQHandler                                   Startup\startup_stm32f427xx.o
TIM4_IRQHandler                                   Startup\startup_stm32f427xx.o
TIM5_IRQHandler                                   Startup\startup_stm32f427xx.o
TIM6_DAC_IRQHandler                               Startup\startup_stm32f427xx.o
TIM7_IRQHandler                                   Startup\startup_stm32f427xx.o
TIM8_BRK_TIM12_IRQHandler                         Startup\startup_stm32f427xx.o
TIM8_CC_IRQHandler                                Startup\startup_stm32f427xx.o
TIM8_TRG_COM_TIM14_IRQHandler                     Startup\startup_stm32f427xx.o
TIM8_UP_TIM13_IRQHandler                          Startup\startup_stm32f427xx.o
Test_CH_A_Inputs                                  DIMC_Files\diac_mngmnt.o
                                                  DIMC_Files\pbit_dimc.o
Test_CH_C_Inputs                                  DIMC_Files\gpio_control_dimc.o
                                                  DIMC_Files\periodic_dimc.o
                                                  DIMC_Files\pbit_dimc.o
Test_Flt_CH_B                                     DIMC_Files\gpio_control_dimc.o
                                                  DIMC_Files\pbit_dimc.o
Test_OPER_Inputs                                  DIMC_Files\gpio_control_dimc.o
                                                  DIMC_Files\pbit_dimc.o
Test_OnBoard_Voltage                              DIMC_Files\voltage_meas_dimc.o
                                                  DIMC_Files\pbit_dimc.o
                                                  DIMC_Files\cbit_dimc.o
Tick_Freq                                         02_STM_Drivers\Src\gipsy_hal_rcc.o
Tick_Value                                        02_STM_Drivers\Src\gipsy_hal_rcc.o
Timer                                             DIMC_Files\periodic_dimc.o
UART4_IRQHandler                                  Startup\startup_stm32f427xx.o
UART5_IRQHandler                                  Startup\startup_stm32f427xx.o
UART7_IRQHandler                                  Startup\startup_stm32f427xx.o
UART8_IRQHandler                                  Startup\startup_stm32f427xx.o
USART1_IRQHandler                                 Src\gipsy_dimc_it.o
USART2_IRQHandler                                 Startup\startup_stm32f427xx.o
USART3_IRQHandler                                 Startup\startup_stm32f427xx.o
USART6_IRQHandler                                 Startup\startup_stm32f427xx.o
UsageFault_Handler                                Startup\startup_stm32f427xx.o
VoltHwParams                                      DIMC_Files\voltage_meas_dimc.o
WDOG_Get_Test_Result                              DIMC_Files\wdog.o
                                                  DIMC_Files\module_init_dimc.o
WDOG_Perform_Test                                 DIMC_Files\wdog.o
                                                  DIMC_Files\module_init_dimc.o
WDOG_Trigger                                      DIMC_Files\wdog.o
                                                  DIMC_Files\periodic_dimc.o
                                                  DIMC_Files\pbit_dimc.o
                                                  DIMC_Files\module_init_dimc.o
                                                  DIMC_Files\diac_mngmnt.o
WWDG_IRQHandler                                   Startup\startup_stm32f427xx.o
WrBuffer                                          DIMC_Files\exflash_dimc.o
Write_EEPROM                                      DIMC_Files\exflash_dimc.o
                                                  DIMC_Files\logger_dimc.o
Write_Event_To_Memory                             DIMC_Files\logger_dimc.o
                                                  DIMC_Files\periodic_dimc.o
                                                  DIMC_Files\pbit_dimc.o
                                                  DIMC_Files\fault_management_dimc.o
                                                  DIMC_Files\diac_mngmnt.o
__adddf3                                          c:/program files (x86)/atollic/truestudio for stm32 9.1.0/armtools/bin/../lib/gcc/arm-atollic-eabi/6.3.1/armv7e-m/fpu\libgcc.a(_arm_addsubdf3.o)
__aeabi_cdcmpeq                                   c:/program files (x86)/atollic/truestudio for stm32 9.1.0/armtools/bin/../lib/gcc/arm-atollic-eabi/6.3.1/armv7e-m/fpu\libgcc.a(_arm_cmpdf2.o)
__aeabi_cdcmple                                   c:/program files (x86)/atollic/truestudio for stm32 9.1.0/armtools/bin/../lib/gcc/arm-atollic-eabi/6.3.1/armv7e-m/fpu\libgcc.a(_arm_cmpdf2.o)
__aeabi_cdrcmple                                  c:/program files (x86)/atollic/truestudio for stm32 9.1.0/armtools/bin/../lib/gcc/arm-atollic-eabi/6.3.1/armv7e-m/fpu\libgcc.a(_arm_cmpdf2.o)
__aeabi_d2f                                       c:/program files (x86)/atollic/truestudio for stm32 9.1.0/armtools/bin/../lib/gcc/arm-atollic-eabi/6.3.1/armv7e-m/fpu\libgcc.a(_arm_truncdfsf2.o)
                                                  DIMC_Files\voltage_meas_dimc.o
__aeabi_dadd                                      c:/program files (x86)/atollic/truestudio for stm32 9.1.0/armtools/bin/../lib/gcc/arm-atollic-eabi/6.3.1/armv7e-m/fpu\libgcc.a(_arm_addsubdf3.o)
__aeabi_dcmpeq                                    c:/program files (x86)/atollic/truestudio for stm32 9.1.0/armtools/bin/../lib/gcc/arm-atollic-eabi/6.3.1/armv7e-m/fpu\libgcc.a(_arm_cmpdf2.o)
__aeabi_dcmpge                                    c:/program files (x86)/atollic/truestudio for stm32 9.1.0/armtools/bin/../lib/gcc/arm-atollic-eabi/6.3.1/armv7e-m/fpu\libgcc.a(_arm_cmpdf2.o)
__aeabi_dcmpgt                                    c:/program files (x86)/atollic/truestudio for stm32 9.1.0/armtools/bin/../lib/gcc/arm-atollic-eabi/6.3.1/armv7e-m/fpu\libgcc.a(_arm_cmpdf2.o)
                                                  DIMC_Files\voltage_meas_dimc.o
__aeabi_dcmple                                    c:/program files (x86)/atollic/truestudio for stm32 9.1.0/armtools/bin/../lib/gcc/arm-atollic-eabi/6.3.1/armv7e-m/fpu\libgcc.a(_arm_cmpdf2.o)
__aeabi_dcmplt                                    c:/program files (x86)/atollic/truestudio for stm32 9.1.0/armtools/bin/../lib/gcc/arm-atollic-eabi/6.3.1/armv7e-m/fpu\libgcc.a(_arm_cmpdf2.o)
__aeabi_ddiv                                      c:/program files (x86)/atollic/truestudio for stm32 9.1.0/armtools/bin/../lib/gcc/arm-atollic-eabi/6.3.1/armv7e-m/fpu\libgcc.a(_arm_muldivdf3.o)
__aeabi_dmul                                      c:/program files (x86)/atollic/truestudio for stm32 9.1.0/armtools/bin/../lib/gcc/arm-atollic-eabi/6.3.1/armv7e-m/fpu\libgcc.a(_arm_muldivdf3.o)
                                                  DIMC_Files\voltage_meas_dimc.o
__aeabi_drsub                                     c:/program files (x86)/atollic/truestudio for stm32 9.1.0/armtools/bin/../lib/gcc/arm-atollic-eabi/6.3.1/armv7e-m/fpu\libgcc.a(_arm_addsubdf3.o)
__aeabi_dsub                                      c:/program files (x86)/atollic/truestudio for stm32 9.1.0/armtools/bin/../lib/gcc/arm-atollic-eabi/6.3.1/armv7e-m/fpu\libgcc.a(_arm_addsubdf3.o)
                                                  DIMC_Files\voltage_meas_dimc.o
__aeabi_f2d                                       c:/program files (x86)/atollic/truestudio for stm32 9.1.0/armtools/bin/../lib/gcc/arm-atollic-eabi/6.3.1/armv7e-m/fpu\libgcc.a(_arm_addsubdf3.o)
__aeabi_i2d                                       c:/program files (x86)/atollic/truestudio for stm32 9.1.0/armtools/bin/../lib/gcc/arm-atollic-eabi/6.3.1/armv7e-m/fpu\libgcc.a(_arm_addsubdf3.o)
                                                  DIMC_Files\voltage_meas_dimc.o
__aeabi_idiv0                                     c:/program files (x86)/atollic/truestudio for stm32 9.1.0/armtools/bin/../lib/gcc/arm-atollic-eabi/6.3.1/armv7e-m/fpu\libgcc.a(_dvmd_tls.o)
__aeabi_l2d                                       c:/program files (x86)/atollic/truestudio for stm32 9.1.0/armtools/bin/../lib/gcc/arm-atollic-eabi/6.3.1/armv7e-m/fpu\libgcc.a(_arm_addsubdf3.o)
__aeabi_ldiv0                                     c:/program files (x86)/atollic/truestudio for stm32 9.1.0/armtools/bin/../lib/gcc/arm-atollic-eabi/6.3.1/armv7e-m/fpu\libgcc.a(_dvmd_tls.o)
                                                  c:/program files (x86)/atollic/truestudio for stm32 9.1.0/armtools/bin/../lib/gcc/arm-atollic-eabi/6.3.1/armv7e-m/fpu\libgcc.a(_aeabi_uldivmod.o)
__aeabi_ui2d                                      c:/program files (x86)/atollic/truestudio for stm32 9.1.0/armtools/bin/../lib/gcc/arm-atollic-eabi/6.3.1/armv7e-m/fpu\libgcc.a(_arm_addsubdf3.o)
__aeabi_ul2d                                      c:/program files (x86)/atollic/truestudio for stm32 9.1.0/armtools/bin/../lib/gcc/arm-atollic-eabi/6.3.1/armv7e-m/fpu\libgcc.a(_arm_addsubdf3.o)
__aeabi_uldivmod                                  c:/program files (x86)/atollic/truestudio for stm32 9.1.0/armtools/bin/../lib/gcc/arm-atollic-eabi/6.3.1/armv7e-m/fpu\libgcc.a(_aeabi_uldivmod.o)
                                                  02_STM_Drivers\Src\gipsy_hal_rcc.o
__cmpdf2                                          c:/program files (x86)/atollic/truestudio for stm32 9.1.0/armtools/bin/../lib/gcc/arm-atollic-eabi/6.3.1/armv7e-m/fpu\libgcc.a(_arm_cmpdf2.o)
__deregister_frame_info                           c:/program files (x86)/atollic/truestudio for stm32 9.1.0/armtools/bin/../lib/gcc/arm-atollic-eabi/6.3.1/armv7e-m/fpu/crtbegin.o
__divdf3                                          c:/program files (x86)/atollic/truestudio for stm32 9.1.0/armtools/bin/../lib/gcc/arm-atollic-eabi/6.3.1/armv7e-m/fpu\libgcc.a(_arm_muldivdf3.o)
__dso_handle                                      c:/program files (x86)/atollic/truestudio for stm32 9.1.0/armtools/bin/../lib/gcc/arm-atollic-eabi/6.3.1/armv7e-m/fpu/crtbegin.o
__eqdf2                                           c:/program files (x86)/atollic/truestudio for stm32 9.1.0/armtools/bin/../lib/gcc/arm-atollic-eabi/6.3.1/armv7e-m/fpu\libgcc.a(_arm_cmpdf2.o)
__extendsfdf2                                     c:/program files (x86)/atollic/truestudio for stm32 9.1.0/armtools/bin/../lib/gcc/arm-atollic-eabi/6.3.1/armv7e-m/fpu\libgcc.a(_arm_addsubdf3.o)
__floatdidf                                       c:/program files (x86)/atollic/truestudio for stm32 9.1.0/armtools/bin/../lib/gcc/arm-atollic-eabi/6.3.1/armv7e-m/fpu\libgcc.a(_arm_addsubdf3.o)
__floatsidf                                       c:/program files (x86)/atollic/truestudio for stm32 9.1.0/armtools/bin/../lib/gcc/arm-atollic-eabi/6.3.1/armv7e-m/fpu\libgcc.a(_arm_addsubdf3.o)
__floatundidf                                     c:/program files (x86)/atollic/truestudio for stm32 9.1.0/armtools/bin/../lib/gcc/arm-atollic-eabi/6.3.1/armv7e-m/fpu\libgcc.a(_arm_addsubdf3.o)
__floatunsidf                                     c:/program files (x86)/atollic/truestudio for stm32 9.1.0/armtools/bin/../lib/gcc/arm-atollic-eabi/6.3.1/armv7e-m/fpu\libgcc.a(_arm_addsubdf3.o)
__gedf2                                           c:/program files (x86)/atollic/truestudio for stm32 9.1.0/armtools/bin/../lib/gcc/arm-atollic-eabi/6.3.1/armv7e-m/fpu\libgcc.a(_arm_cmpdf2.o)
__gtdf2                                           c:/program files (x86)/atollic/truestudio for stm32 9.1.0/armtools/bin/../lib/gcc/arm-atollic-eabi/6.3.1/armv7e-m/fpu\libgcc.a(_arm_cmpdf2.o)
__init_array_end                                  c:/program files (x86)/atollic/truestudio for stm32 9.1.0/armtools/bin/../lib/gcc/arm-atollic-eabi/6.3.1/../../../../arm-atollic-eabi/lib/armv7e-m/fpu\libc_nano.a(lib_a-init.o)
__init_array_start                                c:/program files (x86)/atollic/truestudio for stm32 9.1.0/armtools/bin/../lib/gcc/arm-atollic-eabi/6.3.1/../../../../arm-atollic-eabi/lib/armv7e-m/fpu\libc_nano.a(lib_a-init.o)
__ledf2                                           c:/program files (x86)/atollic/truestudio for stm32 9.1.0/armtools/bin/../lib/gcc/arm-atollic-eabi/6.3.1/armv7e-m/fpu\libgcc.a(_arm_cmpdf2.o)
__libc_init_array                                 c:/program files (x86)/atollic/truestudio for stm32 9.1.0/armtools/bin/../lib/gcc/arm-atollic-eabi/6.3.1/../../../../arm-atollic-eabi/lib/armv7e-m/fpu\libc_nano.a(lib_a-init.o)
                                                  Startup\startup_stm32f427xx.o
__ltdf2                                           c:/program files (x86)/atollic/truestudio for stm32 9.1.0/armtools/bin/../lib/gcc/arm-atollic-eabi/6.3.1/armv7e-m/fpu\libgcc.a(_arm_cmpdf2.o)
__muldf3                                          c:/program files (x86)/atollic/truestudio for stm32 9.1.0/armtools/bin/../lib/gcc/arm-atollic-eabi/6.3.1/armv7e-m/fpu\libgcc.a(_arm_muldivdf3.o)
__nedf2                                           c:/program files (x86)/atollic/truestudio for stm32 9.1.0/armtools/bin/../lib/gcc/arm-atollic-eabi/6.3.1/armv7e-m/fpu\libgcc.a(_arm_cmpdf2.o)
__preinit_array_end                               c:/program files (x86)/atollic/truestudio for stm32 9.1.0/armtools/bin/../lib/gcc/arm-atollic-eabi/6.3.1/../../../../arm-atollic-eabi/lib/armv7e-m/fpu\libc_nano.a(lib_a-init.o)
__preinit_array_start                             c:/program files (x86)/atollic/truestudio for stm32 9.1.0/armtools/bin/../lib/gcc/arm-atollic-eabi/6.3.1/../../../../arm-atollic-eabi/lib/armv7e-m/fpu\libc_nano.a(lib_a-init.o)
__register_frame_info                             c:/program files (x86)/atollic/truestudio for stm32 9.1.0/armtools/bin/../lib/gcc/arm-atollic-eabi/6.3.1/armv7e-m/fpu/crtbegin.o
__subdf3                                          c:/program files (x86)/atollic/truestudio for stm32 9.1.0/armtools/bin/../lib/gcc/arm-atollic-eabi/6.3.1/armv7e-m/fpu\libgcc.a(_arm_addsubdf3.o)
__truncdfsf2                                      c:/program files (x86)/atollic/truestudio for stm32 9.1.0/armtools/bin/../lib/gcc/arm-atollic-eabi/6.3.1/armv7e-m/fpu\libgcc.a(_arm_truncdfsf2.o)
__udivmoddi4                                      c:/program files (x86)/atollic/truestudio for stm32 9.1.0/armtools/bin/../lib/gcc/arm-atollic-eabi/6.3.1/armv7e-m/fpu\libgcc.a(_udivmoddi4.o)
                                                  c:/program files (x86)/atollic/truestudio for stm32 9.1.0/armtools/bin/../lib/gcc/arm-atollic-eabi/6.3.1/armv7e-m/fpu\libgcc.a(_aeabi_uldivmod.o)
_ebss                                             Startup\startup_stm32f427xx.o
_edata                                            Startup\startup_stm32f427xx.o
_estack                                           Startup\startup_stm32f427xx.o
_fini                                             c:/program files (x86)/atollic/truestudio for stm32 9.1.0/armtools/bin/../lib/gcc/arm-atollic-eabi/6.3.1/armv7e-m/fpu/crti.o
_init                                             c:/program files (x86)/atollic/truestudio for stm32 9.1.0/armtools/bin/../lib/gcc/arm-atollic-eabi/6.3.1/armv7e-m/fpu/crti.o
                                                  c:/program files (x86)/atollic/truestudio for stm32 9.1.0/armtools/bin/../lib/gcc/arm-atollic-eabi/6.3.1/../../../../arm-atollic-eabi/lib/armv7e-m/fpu\libc_nano.a(lib_a-init.o)
_sbss                                             Startup\startup_stm32f427xx.o
_sdata                                            Startup\startup_stm32f427xx.o
_sidata                                           Startup\startup_stm32f427xx.o
bCmd_Ready_For_Parse                              DIMC_Files\irs_protocol_dimc.o
ctry_operation_data_table                         DIMC_Files\periodic_dimc.o
g_Actuator_Man_Req                                DIMC_Files\periodic_dimc.o
                                                  DIMC_Files\irs_protocol_dimc.o
                                                  DIMC_Files\fault_management_dimc.o
g_CTRY_Resp                                       DIMC_Files\pbit_dimc.o
                                                  DIMC_Files\can_protocol_dimc.o
g_CTRYs_SW_Ver                                    DIMC_Files\module_init_dimc.o
                                                  DIMC_Files\pbit_dimc.o
                                                  DIMC_Files\irs_protocol_dimc.o
                                                  DIMC_Files\can_protocol_dimc.o
g_HandleI2C2_ExFlash                              DIMC_Files\mcu_config_dimc.o
                                                  DIMC_Files\exflash_dimc.o
g_HandleUart1Irs                                  DIMC_Files\mcu_config_dimc.o
                                                  Src\gipsy_dimc_it.o
                                                  DIMC_Files\irs_protocol_dimc.o
g_IBIT_Result                                     DIMC_Files\module_init_dimc.o
                                                  DIMC_Files\periodic_dimc.o
                                                  DIMC_Files\irs_protocol_dimc.o
g_Logger_Status                                   DIMC_Files\logger_dimc.o
                                                  DIMC_Files\exflash_dimc.o
g_Maint_ActuatorData                              DIMC_Files\periodic_dimc.o
                                                  DIMC_Files\irs_protocol_dimc.o
g_SysStatus                                       DIMC_Files\module_init_dimc.o
                                                  DIMC_Files\system_params_dimc.o
                                                  DIMC_Files\periodic_dimc.o
                                                  DIMC_Files\pbit_dimc.o
                                                  DIMC_Files\logger_dimc.o
                                                  DIMC_Files\irs_protocol_dimc.o
                                                  DIMC_Files\gpio_control_dimc.o
                                                  DIMC_Files\fault_management_dimc.o
                                                  DIMC_Files\diac_mngmnt.o
                                                  DIMC_Files\cbit_dimc.o
                                                  DIMC_Files\can_protocol_dimc.o
g_SysTestsStatus                                  DIMC_Files\module_init_dimc.o
                                                  DIMC_Files\periodic_dimc.o
                                                  DIMC_Files\pbit_dimc.o
                                                  DIMC_Files\fault_management_dimc.o
                                                  DIMC_Files\cbit_dimc.o
                                                  DIMC_Files\can_protocol_dimc.o
g_Sys_Acc_OPER_Time_Sec                           DIMC_Files\module_init_dimc.o
                                                  DIMC_Files\periodic_dimc.o
                                                  DIMC_Files\irs_protocol_dimc.o
                                                  DIMC_Files\fault_management_dimc.o
g_Sys_OPER_Time_Sec                               DIMC_Files\module_init_dimc.o
                                                  DIMC_Files\periodic_dimc.o
                                                  DIMC_Files\irs_protocol_dimc.o
                                                  DIMC_Files\fault_management_dimc.o
g_VoltageMeasurement                              DIMC_Files\voltage_meas_dimc.o
                                                  DIMC_Files\fault_management_dimc.o
g_pfnVectors                                      Startup\startup_stm32f427xx.o
hCAN1                                             02_STM_Drivers\Src\gipsy_hal_can.o
hRTC                                              02_STM_Drivers\Src\gipsy_hal_rtc.o
main                                              Src\main.o
                                                  Startup\startup_stm32f427xx.o
memset                                            c:/program files (x86)/atollic/truestudio for stm32 9.1.0/armtools/bin/../lib/gcc/arm-atollic-eabi/6.3.1/../../../../arm-atollic-eabi/lib/armv7e-m/fpu\libc_nano.a(lib_a-memset.o)
                                                  DIMC_Files\irs_protocol_dimc.o
oper_handler                                      DIMC_Files\periodic_dimc.o
ucCyclic_Msg_Counter                              DIMC_Files\irs_protocol_dimc.o
ucLast_Message_Status                             DIMC_Files\irs_protocol_dimc.o
