
IPS_DIMC_02_04.elf:     file format elf32-littlearm

Sections:
Idx Name          Size      VMA       LMA       File off  Algn
  0 .isr_vector   000001ac  08000000  08000000  00010000  2**0
                  CONTENTS, ALLOC, LOAD, READONLY, DATA
  1 .text         0000b298  080001b0  080001b0  000101b0  2**3
                  CONTENTS, ALLOC, LOAD, READONLY, CODE
  2 .rodata       00000710  0800b448  0800b448  0001b448  2**2
                  CONTENTS, ALLOC, LOAD, READONLY, DATA
  3 .ARM          00000008  0800bb58  0800bb58  0001bb58  2**2
                  CONTENTS, ALLOC, LOAD, READONLY, DATA
  4 .init_array   00000004  0800bb60  0800bb60  0001bb60  2**2
                  CONTENTS, ALLOC, LOAD, DATA
  5 .fini_array   00000004  0800bb64  0800bb64  0001bb64  2**2
                  CONTENTS, ALLOC, LOAD, DATA
  6 .data         00000a40  20000000  0800bb68  00020000  2**2
                  CONTENTS, ALLOC, LOAD, DATA
  7 .ccmram       00000000  10000000  10000000  00020a40  2**0
                  CONTENTS
  8 .bss          0000078c  20000a40  20000a40  00020a40  2**2
                  ALLOC
  9 ._user_heap_stack 00000600  200011cc  200011cc  00020a40  2**0
                  ALLOC
 10 .ARM.attributes 00000030  00000000  00000000  00020a40  2**0
                  CONTENTS, READONLY
 11 .comment      0000007c  00000000  00000000  00020a70  2**0
                  CONTENTS, READONLY
 12 .debug_frame  00000290  00000000  00000000  00020aec  2**2
                  CONTENTS, READONLY, DEBUGGING

Disassembly of section .text:

080001b0 <__do_global_dtors_aux>:
 80001b0:	b510      	push	{r4, lr}
 80001b2:	4c05      	ldr	r4, [pc, #20]	; (80001c8 <__do_global_dtors_aux+0x18>)
 80001b4:	7823      	ldrb	r3, [r4, #0]
 80001b6:	b933      	cbnz	r3, 80001c6 <__do_global_dtors_aux+0x16>
 80001b8:	4b04      	ldr	r3, [pc, #16]	; (80001cc <__do_global_dtors_aux+0x1c>)
 80001ba:	b113      	cbz	r3, 80001c2 <__do_global_dtors_aux+0x12>
 80001bc:	4804      	ldr	r0, [pc, #16]	; (80001d0 <__do_global_dtors_aux+0x20>)
 80001be:	f3af 8000 	nop.w
 80001c2:	2301      	movs	r3, #1
 80001c4:	7023      	strb	r3, [r4, #0]
 80001c6:	bd10      	pop	{r4, pc}
 80001c8:	20000a40 	.word	0x20000a40
 80001cc:	00000000 	.word	0x00000000
 80001d0:	0800b42c 	.word	0x0800b42c

080001d4 <frame_dummy>:
 80001d4:	b508      	push	{r3, lr}
 80001d6:	4b03      	ldr	r3, [pc, #12]	; (80001e4 <frame_dummy+0x10>)
 80001d8:	b11b      	cbz	r3, 80001e2 <frame_dummy+0xe>
 80001da:	4903      	ldr	r1, [pc, #12]	; (80001e8 <frame_dummy+0x14>)
 80001dc:	4803      	ldr	r0, [pc, #12]	; (80001ec <frame_dummy+0x18>)
 80001de:	f3af 8000 	nop.w
 80001e2:	bd08      	pop	{r3, pc}
 80001e4:	00000000 	.word	0x00000000
 80001e8:	20000a44 	.word	0x20000a44
 80001ec:	0800b42c 	.word	0x0800b42c

080001f0 <HAL_ADC_Init>:
 80001f0:	b480      	push	{r7}
 80001f2:	b083      	sub	sp, #12
 80001f4:	af00      	add	r7, sp, #0
 80001f6:	2300      	movs	r3, #0
 80001f8:	607b      	str	r3, [r7, #4]
 80001fa:	4b54      	ldr	r3, [pc, #336]	; (800034c <HAL_ADC_Init+0x15c>)
 80001fc:	607b      	str	r3, [r7, #4]
 80001fe:	687b      	ldr	r3, [r7, #4]
 8000200:	685b      	ldr	r3, [r3, #4]
 8000202:	f423 3240 	bic.w	r2, r3, #196608	; 0x30000
 8000206:	687b      	ldr	r3, [r7, #4]
 8000208:	605a      	str	r2, [r3, #4]
 800020a:	687b      	ldr	r3, [r7, #4]
 800020c:	685a      	ldr	r2, [r3, #4]
 800020e:	4b50      	ldr	r3, [pc, #320]	; (8000350 <HAL_ADC_Init+0x160>)
 8000210:	685b      	ldr	r3, [r3, #4]
 8000212:	431a      	orrs	r2, r3
 8000214:	687b      	ldr	r3, [r7, #4]
 8000216:	605a      	str	r2, [r3, #4]
 8000218:	4b4d      	ldr	r3, [pc, #308]	; (8000350 <HAL_ADC_Init+0x160>)
 800021a:	681b      	ldr	r3, [r3, #0]
 800021c:	4a4c      	ldr	r2, [pc, #304]	; (8000350 <HAL_ADC_Init+0x160>)
 800021e:	6812      	ldr	r2, [r2, #0]
 8000220:	6852      	ldr	r2, [r2, #4]
 8000222:	f422 7280 	bic.w	r2, r2, #256	; 0x100
 8000226:	605a      	str	r2, [r3, #4]
 8000228:	4b49      	ldr	r3, [pc, #292]	; (8000350 <HAL_ADC_Init+0x160>)
 800022a:	681b      	ldr	r3, [r3, #0]
 800022c:	4a48      	ldr	r2, [pc, #288]	; (8000350 <HAL_ADC_Init+0x160>)
 800022e:	6812      	ldr	r2, [r2, #0]
 8000230:	6851      	ldr	r1, [r2, #4]
 8000232:	4a47      	ldr	r2, [pc, #284]	; (8000350 <HAL_ADC_Init+0x160>)
 8000234:	6912      	ldr	r2, [r2, #16]
 8000236:	0212      	lsls	r2, r2, #8
 8000238:	430a      	orrs	r2, r1
 800023a:	605a      	str	r2, [r3, #4]
 800023c:	4b44      	ldr	r3, [pc, #272]	; (8000350 <HAL_ADC_Init+0x160>)
 800023e:	681b      	ldr	r3, [r3, #0]
 8000240:	4a43      	ldr	r2, [pc, #268]	; (8000350 <HAL_ADC_Init+0x160>)
 8000242:	6812      	ldr	r2, [r2, #0]
 8000244:	6852      	ldr	r2, [r2, #4]
 8000246:	f022 7240 	bic.w	r2, r2, #50331648	; 0x3000000
 800024a:	605a      	str	r2, [r3, #4]
 800024c:	4b40      	ldr	r3, [pc, #256]	; (8000350 <HAL_ADC_Init+0x160>)
 800024e:	681b      	ldr	r3, [r3, #0]
 8000250:	4a3f      	ldr	r2, [pc, #252]	; (8000350 <HAL_ADC_Init+0x160>)
 8000252:	6812      	ldr	r2, [r2, #0]
 8000254:	6851      	ldr	r1, [r2, #4]
 8000256:	4a3e      	ldr	r2, [pc, #248]	; (8000350 <HAL_ADC_Init+0x160>)
 8000258:	6892      	ldr	r2, [r2, #8]
 800025a:	430a      	orrs	r2, r1
 800025c:	605a      	str	r2, [r3, #4]
 800025e:	4b3c      	ldr	r3, [pc, #240]	; (8000350 <HAL_ADC_Init+0x160>)
 8000260:	681b      	ldr	r3, [r3, #0]
 8000262:	4a3b      	ldr	r2, [pc, #236]	; (8000350 <HAL_ADC_Init+0x160>)
 8000264:	6812      	ldr	r2, [r2, #0]
 8000266:	6892      	ldr	r2, [r2, #8]
 8000268:	f422 6200 	bic.w	r2, r2, #2048	; 0x800
 800026c:	609a      	str	r2, [r3, #8]
 800026e:	4b38      	ldr	r3, [pc, #224]	; (8000350 <HAL_ADC_Init+0x160>)
 8000270:	681b      	ldr	r3, [r3, #0]
 8000272:	4a37      	ldr	r2, [pc, #220]	; (8000350 <HAL_ADC_Init+0x160>)
 8000274:	6812      	ldr	r2, [r2, #0]
 8000276:	6891      	ldr	r1, [r2, #8]
 8000278:	4a35      	ldr	r2, [pc, #212]	; (8000350 <HAL_ADC_Init+0x160>)
 800027a:	68d2      	ldr	r2, [r2, #12]
 800027c:	430a      	orrs	r2, r1
 800027e:	609a      	str	r2, [r3, #8]
 8000280:	4b33      	ldr	r3, [pc, #204]	; (8000350 <HAL_ADC_Init+0x160>)
 8000282:	681b      	ldr	r3, [r3, #0]
 8000284:	4a32      	ldr	r2, [pc, #200]	; (8000350 <HAL_ADC_Init+0x160>)
 8000286:	6812      	ldr	r2, [r2, #0]
 8000288:	6892      	ldr	r2, [r2, #8]
 800028a:	f022 6270 	bic.w	r2, r2, #251658240	; 0xf000000
 800028e:	609a      	str	r2, [r3, #8]
 8000290:	4b2f      	ldr	r3, [pc, #188]	; (8000350 <HAL_ADC_Init+0x160>)
 8000292:	681b      	ldr	r3, [r3, #0]
 8000294:	4a2e      	ldr	r2, [pc, #184]	; (8000350 <HAL_ADC_Init+0x160>)
 8000296:	6812      	ldr	r2, [r2, #0]
 8000298:	6892      	ldr	r2, [r2, #8]
 800029a:	f022 5240 	bic.w	r2, r2, #805306368	; 0x30000000
 800029e:	609a      	str	r2, [r3, #8]
 80002a0:	4b2b      	ldr	r3, [pc, #172]	; (8000350 <HAL_ADC_Init+0x160>)
 80002a2:	681b      	ldr	r3, [r3, #0]
 80002a4:	4a2a      	ldr	r2, [pc, #168]	; (8000350 <HAL_ADC_Init+0x160>)
 80002a6:	6812      	ldr	r2, [r2, #0]
 80002a8:	6892      	ldr	r2, [r2, #8]
 80002aa:	f022 0202 	bic.w	r2, r2, #2
 80002ae:	609a      	str	r2, [r3, #8]
 80002b0:	4b27      	ldr	r3, [pc, #156]	; (8000350 <HAL_ADC_Init+0x160>)
 80002b2:	681b      	ldr	r3, [r3, #0]
 80002b4:	4a26      	ldr	r2, [pc, #152]	; (8000350 <HAL_ADC_Init+0x160>)
 80002b6:	6812      	ldr	r2, [r2, #0]
 80002b8:	6891      	ldr	r1, [r2, #8]
 80002ba:	4a25      	ldr	r2, [pc, #148]	; (8000350 <HAL_ADC_Init+0x160>)
 80002bc:	6992      	ldr	r2, [r2, #24]
 80002be:	0052      	lsls	r2, r2, #1
 80002c0:	430a      	orrs	r2, r1
 80002c2:	609a      	str	r2, [r3, #8]
 80002c4:	4b22      	ldr	r3, [pc, #136]	; (8000350 <HAL_ADC_Init+0x160>)
 80002c6:	681b      	ldr	r3, [r3, #0]
 80002c8:	4a21      	ldr	r2, [pc, #132]	; (8000350 <HAL_ADC_Init+0x160>)
 80002ca:	6812      	ldr	r2, [r2, #0]
 80002cc:	6852      	ldr	r2, [r2, #4]
 80002ce:	f422 6200 	bic.w	r2, r2, #2048	; 0x800
 80002d2:	605a      	str	r2, [r3, #4]
 80002d4:	4b1e      	ldr	r3, [pc, #120]	; (8000350 <HAL_ADC_Init+0x160>)
 80002d6:	681b      	ldr	r3, [r3, #0]
 80002d8:	4a1d      	ldr	r2, [pc, #116]	; (8000350 <HAL_ADC_Init+0x160>)
 80002da:	6812      	ldr	r2, [r2, #0]
 80002dc:	6ad2      	ldr	r2, [r2, #44]	; 0x2c
 80002de:	f422 0270 	bic.w	r2, r2, #15728640	; 0xf00000
 80002e2:	62da      	str	r2, [r3, #44]	; 0x2c
 80002e4:	4b1a      	ldr	r3, [pc, #104]	; (8000350 <HAL_ADC_Init+0x160>)
 80002e6:	681b      	ldr	r3, [r3, #0]
 80002e8:	4a19      	ldr	r2, [pc, #100]	; (8000350 <HAL_ADC_Init+0x160>)
 80002ea:	6812      	ldr	r2, [r2, #0]
 80002ec:	6ad1      	ldr	r1, [r2, #44]	; 0x2c
 80002ee:	4a18      	ldr	r2, [pc, #96]	; (8000350 <HAL_ADC_Init+0x160>)
 80002f0:	69d2      	ldr	r2, [r2, #28]
 80002f2:	3a01      	subs	r2, #1
 80002f4:	0512      	lsls	r2, r2, #20
 80002f6:	430a      	orrs	r2, r1
 80002f8:	62da      	str	r2, [r3, #44]	; 0x2c
 80002fa:	4b15      	ldr	r3, [pc, #84]	; (8000350 <HAL_ADC_Init+0x160>)
 80002fc:	681b      	ldr	r3, [r3, #0]
 80002fe:	4a14      	ldr	r2, [pc, #80]	; (8000350 <HAL_ADC_Init+0x160>)
 8000300:	6812      	ldr	r2, [r2, #0]
 8000302:	6892      	ldr	r2, [r2, #8]
 8000304:	f422 6280 	bic.w	r2, r2, #1024	; 0x400
 8000308:	609a      	str	r2, [r3, #8]
 800030a:	4b11      	ldr	r3, [pc, #68]	; (8000350 <HAL_ADC_Init+0x160>)
 800030c:	681b      	ldr	r3, [r3, #0]
 800030e:	4a10      	ldr	r2, [pc, #64]	; (8000350 <HAL_ADC_Init+0x160>)
 8000310:	6812      	ldr	r2, [r2, #0]
 8000312:	6891      	ldr	r1, [r2, #8]
 8000314:	4a0e      	ldr	r2, [pc, #56]	; (8000350 <HAL_ADC_Init+0x160>)
 8000316:	6952      	ldr	r2, [r2, #20]
 8000318:	0292      	lsls	r2, r2, #10
 800031a:	430a      	orrs	r2, r1
 800031c:	609a      	str	r2, [r3, #8]
 800031e:	4b0c      	ldr	r3, [pc, #48]	; (8000350 <HAL_ADC_Init+0x160>)
 8000320:	681a      	ldr	r2, [r3, #0]
 8000322:	4b0b      	ldr	r3, [pc, #44]	; (8000350 <HAL_ADC_Init+0x160>)
 8000324:	681b      	ldr	r3, [r3, #0]
 8000326:	6919      	ldr	r1, [r3, #16]
 8000328:	4b0a      	ldr	r3, [pc, #40]	; (8000354 <HAL_ADC_Init+0x164>)
 800032a:	430b      	orrs	r3, r1
 800032c:	6113      	str	r3, [r2, #16]
 800032e:	4b08      	ldr	r3, [pc, #32]	; (8000350 <HAL_ADC_Init+0x160>)
 8000330:	681b      	ldr	r3, [r3, #0]
 8000332:	4a07      	ldr	r2, [pc, #28]	; (8000350 <HAL_ADC_Init+0x160>)
 8000334:	6812      	ldr	r2, [r2, #0]
 8000336:	6892      	ldr	r2, [r2, #8]
 8000338:	f042 0201 	orr.w	r2, r2, #1
 800033c:	609a      	str	r2, [r3, #8]
 800033e:	bf00      	nop
 8000340:	370c      	adds	r7, #12
 8000342:	46bd      	mov	sp, r7
 8000344:	f85d 7b04 	ldr.w	r7, [sp], #4
 8000348:	4770      	bx	lr
 800034a:	bf00      	nop
 800034c:	40012300 	.word	0x40012300
 8000350:	20000004 	.word	0x20000004
 8000354:	49249249 	.word	0x49249249

08000358 <HAL_ADC_Perform_Conversion>:
 8000358:	b580      	push	{r7, lr}
 800035a:	b086      	sub	sp, #24
 800035c:	af00      	add	r7, sp, #0
 800035e:	6078      	str	r0, [r7, #4]
 8000360:	6039      	str	r1, [r7, #0]
 8000362:	2300      	movs	r3, #0
 8000364:	613b      	str	r3, [r7, #16]
 8000366:	2300      	movs	r3, #0
 8000368:	60fb      	str	r3, [r7, #12]
 800036a:	2300      	movs	r3, #0
 800036c:	75fb      	strb	r3, [r7, #23]
 800036e:	687b      	ldr	r3, [r7, #4]
 8000370:	2b02      	cmp	r3, #2
 8000372:	d00e      	beq.n	8000392 <HAL_ADC_Perform_Conversion+0x3a>
 8000374:	687b      	ldr	r3, [r7, #4]
 8000376:	2b03      	cmp	r3, #3
 8000378:	d00b      	beq.n	8000392 <HAL_ADC_Perform_Conversion+0x3a>
 800037a:	687b      	ldr	r3, [r7, #4]
 800037c:	2b04      	cmp	r3, #4
 800037e:	d008      	beq.n	8000392 <HAL_ADC_Perform_Conversion+0x3a>
 8000380:	687b      	ldr	r3, [r7, #4]
 8000382:	2b05      	cmp	r3, #5
 8000384:	d005      	beq.n	8000392 <HAL_ADC_Perform_Conversion+0x3a>
 8000386:	687b      	ldr	r3, [r7, #4]
 8000388:	2b06      	cmp	r3, #6
 800038a:	d002      	beq.n	8000392 <HAL_ADC_Perform_Conversion+0x3a>
 800038c:	687b      	ldr	r3, [r7, #4]
 800038e:	2b08      	cmp	r3, #8
 8000390:	d140      	bne.n	8000414 <HAL_ADC_Perform_Conversion+0xbc>
 8000392:	683b      	ldr	r3, [r7, #0]
 8000394:	2b00      	cmp	r3, #0
 8000396:	d03d      	beq.n	8000414 <HAL_ADC_Perform_Conversion+0xbc>
 8000398:	4b22      	ldr	r3, [pc, #136]	; (8000424 <HAL_ADC_Perform_Conversion+0xcc>)
 800039a:	681b      	ldr	r3, [r3, #0]
 800039c:	2200      	movs	r2, #0
 800039e:	635a      	str	r2, [r3, #52]	; 0x34
 80003a0:	4b20      	ldr	r3, [pc, #128]	; (8000424 <HAL_ADC_Perform_Conversion+0xcc>)
 80003a2:	681b      	ldr	r3, [r3, #0]
 80003a4:	4a1f      	ldr	r2, [pc, #124]	; (8000424 <HAL_ADC_Perform_Conversion+0xcc>)
 80003a6:	6812      	ldr	r2, [r2, #0]
 80003a8:	6b51      	ldr	r1, [r2, #52]	; 0x34
 80003aa:	687a      	ldr	r2, [r7, #4]
 80003ac:	430a      	orrs	r2, r1
 80003ae:	635a      	str	r2, [r3, #52]	; 0x34
 80003b0:	4b1c      	ldr	r3, [pc, #112]	; (8000424 <HAL_ADC_Perform_Conversion+0xcc>)
 80003b2:	681b      	ldr	r3, [r3, #0]
 80003b4:	f06f 0202 	mvn.w	r2, #2
 80003b8:	601a      	str	r2, [r3, #0]
 80003ba:	4b1a      	ldr	r3, [pc, #104]	; (8000424 <HAL_ADC_Perform_Conversion+0xcc>)
 80003bc:	681b      	ldr	r3, [r3, #0]
 80003be:	4a19      	ldr	r2, [pc, #100]	; (8000424 <HAL_ADC_Perform_Conversion+0xcc>)
 80003c0:	6812      	ldr	r2, [r2, #0]
 80003c2:	6892      	ldr	r2, [r2, #8]
 80003c4:	f042 4280 	orr.w	r2, r2, #1073741824	; 0x40000000
 80003c8:	609a      	str	r2, [r3, #8]
 80003ca:	f002 fad5 	bl	8002978 <HAL_GetTick>
 80003ce:	60f8      	str	r0, [r7, #12]
 80003d0:	e009      	b.n	80003e6 <HAL_ADC_Perform_Conversion+0x8e>
 80003d2:	f002 fad1 	bl	8002978 <HAL_GetTick>
 80003d6:	4602      	mov	r2, r0
 80003d8:	68fb      	ldr	r3, [r7, #12]
 80003da:	1ad3      	subs	r3, r2, r3
 80003dc:	2b01      	cmp	r3, #1
 80003de:	d902      	bls.n	80003e6 <HAL_ADC_Perform_Conversion+0x8e>
 80003e0:	2303      	movs	r3, #3
 80003e2:	75fb      	strb	r3, [r7, #23]
 80003e4:	e006      	b.n	80003f4 <HAL_ADC_Perform_Conversion+0x9c>
 80003e6:	4b0f      	ldr	r3, [pc, #60]	; (8000424 <HAL_ADC_Perform_Conversion+0xcc>)
 80003e8:	681b      	ldr	r3, [r3, #0]
 80003ea:	681b      	ldr	r3, [r3, #0]
 80003ec:	f003 0302 	and.w	r3, r3, #2
 80003f0:	2b02      	cmp	r3, #2
 80003f2:	d1ee      	bne.n	80003d2 <HAL_ADC_Perform_Conversion+0x7a>
 80003f4:	7dfb      	ldrb	r3, [r7, #23]
 80003f6:	2b00      	cmp	r3, #0
 80003f8:	d10e      	bne.n	8000418 <HAL_ADC_Perform_Conversion+0xc0>
 80003fa:	4b0a      	ldr	r3, [pc, #40]	; (8000424 <HAL_ADC_Perform_Conversion+0xcc>)
 80003fc:	681b      	ldr	r3, [r3, #0]
 80003fe:	f06f 0212 	mvn.w	r2, #18
 8000402:	601a      	str	r2, [r3, #0]
 8000404:	4b07      	ldr	r3, [pc, #28]	; (8000424 <HAL_ADC_Perform_Conversion+0xcc>)
 8000406:	681b      	ldr	r3, [r3, #0]
 8000408:	6cdb      	ldr	r3, [r3, #76]	; 0x4c
 800040a:	613b      	str	r3, [r7, #16]
 800040c:	683b      	ldr	r3, [r7, #0]
 800040e:	693a      	ldr	r2, [r7, #16]
 8000410:	601a      	str	r2, [r3, #0]
 8000412:	e001      	b.n	8000418 <HAL_ADC_Perform_Conversion+0xc0>
 8000414:	2301      	movs	r3, #1
 8000416:	75fb      	strb	r3, [r7, #23]
 8000418:	7dfb      	ldrb	r3, [r7, #23]
 800041a:	4618      	mov	r0, r3
 800041c:	3718      	adds	r7, #24
 800041e:	46bd      	mov	sp, r7
 8000420:	bd80      	pop	{r7, pc}
 8000422:	bf00      	nop
 8000424:	20000004 	.word	0x20000004

08000428 <HAL_CAN_Init>:
 8000428:	b580      	push	{r7, lr}
 800042a:	b082      	sub	sp, #8
 800042c:	af00      	add	r7, sp, #0
 800042e:	2300      	movs	r3, #0
 8000430:	603b      	str	r3, [r7, #0]
 8000432:	2300      	movs	r3, #0
 8000434:	71fb      	strb	r3, [r7, #7]
 8000436:	2300      	movs	r3, #0
 8000438:	71bb      	strb	r3, [r7, #6]
 800043a:	4b7a      	ldr	r3, [pc, #488]	; (8000624 <HAL_CAN_Init+0x1fc>)
 800043c:	2200      	movs	r2, #0
 800043e:	625a      	str	r2, [r3, #36]	; 0x24
 8000440:	4b78      	ldr	r3, [pc, #480]	; (8000624 <HAL_CAN_Init+0x1fc>)
 8000442:	2201      	movs	r2, #1
 8000444:	f883 2020 	strb.w	r2, [r3, #32]
 8000448:	4b76      	ldr	r3, [pc, #472]	; (8000624 <HAL_CAN_Init+0x1fc>)
 800044a:	681b      	ldr	r3, [r3, #0]
 800044c:	4a75      	ldr	r2, [pc, #468]	; (8000624 <HAL_CAN_Init+0x1fc>)
 800044e:	6812      	ldr	r2, [r2, #0]
 8000450:	6812      	ldr	r2, [r2, #0]
 8000452:	f022 0202 	bic.w	r2, r2, #2
 8000456:	601a      	str	r2, [r3, #0]
 8000458:	f002 fa8e 	bl	8002978 <HAL_GetTick>
 800045c:	6038      	str	r0, [r7, #0]
 800045e:	e013      	b.n	8000488 <HAL_CAN_Init+0x60>
 8000460:	f002 fa8a 	bl	8002978 <HAL_GetTick>
 8000464:	4602      	mov	r2, r0
 8000466:	683b      	ldr	r3, [r7, #0]
 8000468:	1ad3      	subs	r3, r2, r3
 800046a:	2b0a      	cmp	r3, #10
 800046c:	d90c      	bls.n	8000488 <HAL_CAN_Init+0x60>
 800046e:	4b6d      	ldr	r3, [pc, #436]	; (8000624 <HAL_CAN_Init+0x1fc>)
 8000470:	6a5b      	ldr	r3, [r3, #36]	; 0x24
 8000472:	f443 3300 	orr.w	r3, r3, #131072	; 0x20000
 8000476:	4a6b      	ldr	r2, [pc, #428]	; (8000624 <HAL_CAN_Init+0x1fc>)
 8000478:	6253      	str	r3, [r2, #36]	; 0x24
 800047a:	4b6a      	ldr	r3, [pc, #424]	; (8000624 <HAL_CAN_Init+0x1fc>)
 800047c:	2205      	movs	r2, #5
 800047e:	f883 2020 	strb.w	r2, [r3, #32]
 8000482:	2301      	movs	r3, #1
 8000484:	71fb      	strb	r3, [r7, #7]
 8000486:	e006      	b.n	8000496 <HAL_CAN_Init+0x6e>
 8000488:	4b66      	ldr	r3, [pc, #408]	; (8000624 <HAL_CAN_Init+0x1fc>)
 800048a:	681b      	ldr	r3, [r3, #0]
 800048c:	685b      	ldr	r3, [r3, #4]
 800048e:	f003 0302 	and.w	r3, r3, #2
 8000492:	2b00      	cmp	r3, #0
 8000494:	d1e4      	bne.n	8000460 <HAL_CAN_Init+0x38>
 8000496:	79fb      	ldrb	r3, [r7, #7]
 8000498:	2b00      	cmp	r3, #0
 800049a:	d10c      	bne.n	80004b6 <HAL_CAN_Init+0x8e>
 800049c:	4b61      	ldr	r3, [pc, #388]	; (8000624 <HAL_CAN_Init+0x1fc>)
 800049e:	681b      	ldr	r3, [r3, #0]
 80004a0:	4a60      	ldr	r2, [pc, #384]	; (8000624 <HAL_CAN_Init+0x1fc>)
 80004a2:	6812      	ldr	r2, [r2, #0]
 80004a4:	6812      	ldr	r2, [r2, #0]
 80004a6:	f042 0201 	orr.w	r2, r2, #1
 80004aa:	601a      	str	r2, [r3, #0]
 80004ac:	2001      	movs	r0, #1
 80004ae:	f000 f8bb 	bl	8000628 <wait_init_ack>
 80004b2:	4603      	mov	r3, r0
 80004b4:	71fb      	strb	r3, [r7, #7]
 80004b6:	79fb      	ldrb	r3, [r7, #7]
 80004b8:	2b00      	cmp	r3, #0
 80004ba:	d160      	bne.n	800057e <HAL_CAN_Init+0x156>
 80004bc:	4b59      	ldr	r3, [pc, #356]	; (8000624 <HAL_CAN_Init+0x1fc>)
 80004be:	681b      	ldr	r3, [r3, #0]
 80004c0:	4a58      	ldr	r2, [pc, #352]	; (8000624 <HAL_CAN_Init+0x1fc>)
 80004c2:	6812      	ldr	r2, [r2, #0]
 80004c4:	6812      	ldr	r2, [r2, #0]
 80004c6:	f022 0280 	bic.w	r2, r2, #128	; 0x80
 80004ca:	601a      	str	r2, [r3, #0]
 80004cc:	4b55      	ldr	r3, [pc, #340]	; (8000624 <HAL_CAN_Init+0x1fc>)
 80004ce:	681b      	ldr	r3, [r3, #0]
 80004d0:	4a54      	ldr	r2, [pc, #336]	; (8000624 <HAL_CAN_Init+0x1fc>)
 80004d2:	6812      	ldr	r2, [r2, #0]
 80004d4:	6812      	ldr	r2, [r2, #0]
 80004d6:	f022 0240 	bic.w	r2, r2, #64	; 0x40
 80004da:	601a      	str	r2, [r3, #0]
 80004dc:	4b51      	ldr	r3, [pc, #324]	; (8000624 <HAL_CAN_Init+0x1fc>)
 80004de:	681b      	ldr	r3, [r3, #0]
 80004e0:	4a50      	ldr	r2, [pc, #320]	; (8000624 <HAL_CAN_Init+0x1fc>)
 80004e2:	6812      	ldr	r2, [r2, #0]
 80004e4:	6812      	ldr	r2, [r2, #0]
 80004e6:	f022 0220 	bic.w	r2, r2, #32
 80004ea:	601a      	str	r2, [r3, #0]
 80004ec:	4b4d      	ldr	r3, [pc, #308]	; (8000624 <HAL_CAN_Init+0x1fc>)
 80004ee:	681b      	ldr	r3, [r3, #0]
 80004f0:	4a4c      	ldr	r2, [pc, #304]	; (8000624 <HAL_CAN_Init+0x1fc>)
 80004f2:	6812      	ldr	r2, [r2, #0]
 80004f4:	6812      	ldr	r2, [r2, #0]
 80004f6:	f042 0210 	orr.w	r2, r2, #16
 80004fa:	601a      	str	r2, [r3, #0]
 80004fc:	4b49      	ldr	r3, [pc, #292]	; (8000624 <HAL_CAN_Init+0x1fc>)
 80004fe:	681b      	ldr	r3, [r3, #0]
 8000500:	4a48      	ldr	r2, [pc, #288]	; (8000624 <HAL_CAN_Init+0x1fc>)
 8000502:	6812      	ldr	r2, [r2, #0]
 8000504:	6812      	ldr	r2, [r2, #0]
 8000506:	f022 0208 	bic.w	r2, r2, #8
 800050a:	601a      	str	r2, [r3, #0]
 800050c:	4b45      	ldr	r3, [pc, #276]	; (8000624 <HAL_CAN_Init+0x1fc>)
 800050e:	681b      	ldr	r3, [r3, #0]
 8000510:	4a44      	ldr	r2, [pc, #272]	; (8000624 <HAL_CAN_Init+0x1fc>)
 8000512:	6812      	ldr	r2, [r2, #0]
 8000514:	6812      	ldr	r2, [r2, #0]
 8000516:	f022 0204 	bic.w	r2, r2, #4
 800051a:	601a      	str	r2, [r3, #0]
 800051c:	4b41      	ldr	r3, [pc, #260]	; (8000624 <HAL_CAN_Init+0x1fc>)
 800051e:	681b      	ldr	r3, [r3, #0]
 8000520:	4a40      	ldr	r2, [pc, #256]	; (8000624 <HAL_CAN_Init+0x1fc>)
 8000522:	6891      	ldr	r1, [r2, #8]
 8000524:	4a3f      	ldr	r2, [pc, #252]	; (8000624 <HAL_CAN_Init+0x1fc>)
 8000526:	68d2      	ldr	r2, [r2, #12]
 8000528:	4311      	orrs	r1, r2
 800052a:	4a3e      	ldr	r2, [pc, #248]	; (8000624 <HAL_CAN_Init+0x1fc>)
 800052c:	6912      	ldr	r2, [r2, #16]
 800052e:	4311      	orrs	r1, r2
 8000530:	4a3c      	ldr	r2, [pc, #240]	; (8000624 <HAL_CAN_Init+0x1fc>)
 8000532:	6952      	ldr	r2, [r2, #20]
 8000534:	4311      	orrs	r1, r2
 8000536:	4a3b      	ldr	r2, [pc, #236]	; (8000624 <HAL_CAN_Init+0x1fc>)
 8000538:	6852      	ldr	r2, [r2, #4]
 800053a:	3a01      	subs	r2, #1
 800053c:	430a      	orrs	r2, r1
 800053e:	61da      	str	r2, [r3, #28]
 8000540:	f000 f8ac 	bl	800069c <config_can_filter>
 8000544:	4b37      	ldr	r3, [pc, #220]	; (8000624 <HAL_CAN_Init+0x1fc>)
 8000546:	681b      	ldr	r3, [r3, #0]
 8000548:	4a36      	ldr	r2, [pc, #216]	; (8000624 <HAL_CAN_Init+0x1fc>)
 800054a:	6812      	ldr	r2, [r2, #0]
 800054c:	69d2      	ldr	r2, [r2, #28]
 800054e:	f042 4280 	orr.w	r2, r2, #1073741824	; 0x40000000
 8000552:	61da      	str	r2, [r3, #28]
 8000554:	4b33      	ldr	r3, [pc, #204]	; (8000624 <HAL_CAN_Init+0x1fc>)
 8000556:	681b      	ldr	r3, [r3, #0]
 8000558:	4a32      	ldr	r2, [pc, #200]	; (8000624 <HAL_CAN_Init+0x1fc>)
 800055a:	6812      	ldr	r2, [r2, #0]
 800055c:	69d2      	ldr	r2, [r2, #28]
 800055e:	f042 4200 	orr.w	r2, r2, #2147483648	; 0x80000000
 8000562:	61da      	str	r2, [r3, #28]
 8000564:	4b2f      	ldr	r3, [pc, #188]	; (8000624 <HAL_CAN_Init+0x1fc>)
 8000566:	681b      	ldr	r3, [r3, #0]
 8000568:	4a2e      	ldr	r2, [pc, #184]	; (8000624 <HAL_CAN_Init+0x1fc>)
 800056a:	6812      	ldr	r2, [r2, #0]
 800056c:	6812      	ldr	r2, [r2, #0]
 800056e:	f022 0201 	bic.w	r2, r2, #1
 8000572:	601a      	str	r2, [r3, #0]
 8000574:	2000      	movs	r0, #0
 8000576:	f000 f857 	bl	8000628 <wait_init_ack>
 800057a:	4603      	mov	r3, r0
 800057c:	71fb      	strb	r3, [r7, #7]
 800057e:	79fb      	ldrb	r3, [r7, #7]
 8000580:	2b00      	cmp	r3, #0
 8000582:	d103      	bne.n	800058c <HAL_CAN_Init+0x164>
 8000584:	f000 f91a 	bl	80007bc <can_loopback_test>
 8000588:	4603      	mov	r3, r0
 800058a:	71bb      	strb	r3, [r7, #6]
 800058c:	79fb      	ldrb	r3, [r7, #7]
 800058e:	2b00      	cmp	r3, #0
 8000590:	d10c      	bne.n	80005ac <HAL_CAN_Init+0x184>
 8000592:	4b24      	ldr	r3, [pc, #144]	; (8000624 <HAL_CAN_Init+0x1fc>)
 8000594:	681b      	ldr	r3, [r3, #0]
 8000596:	4a23      	ldr	r2, [pc, #140]	; (8000624 <HAL_CAN_Init+0x1fc>)
 8000598:	6812      	ldr	r2, [r2, #0]
 800059a:	6812      	ldr	r2, [r2, #0]
 800059c:	f042 0201 	orr.w	r2, r2, #1
 80005a0:	601a      	str	r2, [r3, #0]
 80005a2:	2001      	movs	r0, #1
 80005a4:	f000 f840 	bl	8000628 <wait_init_ack>
 80005a8:	4603      	mov	r3, r0
 80005aa:	71fb      	strb	r3, [r7, #7]
 80005ac:	79fb      	ldrb	r3, [r7, #7]
 80005ae:	2b00      	cmp	r3, #0
 80005b0:	d11c      	bne.n	80005ec <HAL_CAN_Init+0x1c4>
 80005b2:	4b1c      	ldr	r3, [pc, #112]	; (8000624 <HAL_CAN_Init+0x1fc>)
 80005b4:	681b      	ldr	r3, [r3, #0]
 80005b6:	4a1b      	ldr	r2, [pc, #108]	; (8000624 <HAL_CAN_Init+0x1fc>)
 80005b8:	6812      	ldr	r2, [r2, #0]
 80005ba:	69d2      	ldr	r2, [r2, #28]
 80005bc:	f022 4280 	bic.w	r2, r2, #1073741824	; 0x40000000
 80005c0:	61da      	str	r2, [r3, #28]
 80005c2:	4b18      	ldr	r3, [pc, #96]	; (8000624 <HAL_CAN_Init+0x1fc>)
 80005c4:	681b      	ldr	r3, [r3, #0]
 80005c6:	4a17      	ldr	r2, [pc, #92]	; (8000624 <HAL_CAN_Init+0x1fc>)
 80005c8:	6812      	ldr	r2, [r2, #0]
 80005ca:	69d2      	ldr	r2, [r2, #28]
 80005cc:	f022 4200 	bic.w	r2, r2, #2147483648	; 0x80000000
 80005d0:	61da      	str	r2, [r3, #28]
 80005d2:	4b14      	ldr	r3, [pc, #80]	; (8000624 <HAL_CAN_Init+0x1fc>)
 80005d4:	681b      	ldr	r3, [r3, #0]
 80005d6:	4a13      	ldr	r2, [pc, #76]	; (8000624 <HAL_CAN_Init+0x1fc>)
 80005d8:	6812      	ldr	r2, [r2, #0]
 80005da:	6812      	ldr	r2, [r2, #0]
 80005dc:	f022 0201 	bic.w	r2, r2, #1
 80005e0:	601a      	str	r2, [r3, #0]
 80005e2:	2000      	movs	r0, #0
 80005e4:	f000 f820 	bl	8000628 <wait_init_ack>
 80005e8:	4603      	mov	r3, r0
 80005ea:	71fb      	strb	r3, [r7, #7]
 80005ec:	79fb      	ldrb	r3, [r7, #7]
 80005ee:	2b00      	cmp	r3, #0
 80005f0:	d107      	bne.n	8000602 <HAL_CAN_Init+0x1da>
 80005f2:	4b0c      	ldr	r3, [pc, #48]	; (8000624 <HAL_CAN_Init+0x1fc>)
 80005f4:	681b      	ldr	r3, [r3, #0]
 80005f6:	4a0b      	ldr	r2, [pc, #44]	; (8000624 <HAL_CAN_Init+0x1fc>)
 80005f8:	6812      	ldr	r2, [r2, #0]
 80005fa:	6952      	ldr	r2, [r2, #20]
 80005fc:	f042 0202 	orr.w	r2, r2, #2
 8000600:	615a      	str	r2, [r3, #20]
 8000602:	79fb      	ldrb	r3, [r7, #7]
 8000604:	2b00      	cmp	r3, #0
 8000606:	d102      	bne.n	800060e <HAL_CAN_Init+0x1e6>
 8000608:	79bb      	ldrb	r3, [r7, #6]
 800060a:	2b00      	cmp	r3, #0
 800060c:	d005      	beq.n	800061a <HAL_CAN_Init+0x1f2>
 800060e:	4b05      	ldr	r3, [pc, #20]	; (8000624 <HAL_CAN_Init+0x1fc>)
 8000610:	2205      	movs	r2, #5
 8000612:	f883 2020 	strb.w	r2, [r3, #32]
 8000616:	2301      	movs	r3, #1
 8000618:	71fb      	strb	r3, [r7, #7]
 800061a:	79fb      	ldrb	r3, [r7, #7]
 800061c:	4618      	mov	r0, r3
 800061e:	3708      	adds	r7, #8
 8000620:	46bd      	mov	sp, r7
 8000622:	bd80      	pop	{r7, pc}
 8000624:	20000034 	.word	0x20000034

08000628 <wait_init_ack>:
 8000628:	b580      	push	{r7, lr}
 800062a:	b084      	sub	sp, #16
 800062c:	af00      	add	r7, sp, #0
 800062e:	6078      	str	r0, [r7, #4]
 8000630:	2300      	movs	r3, #0
 8000632:	60bb      	str	r3, [r7, #8]
 8000634:	2300      	movs	r3, #0
 8000636:	73fb      	strb	r3, [r7, #15]
 8000638:	687b      	ldr	r3, [r7, #4]
 800063a:	2b01      	cmp	r3, #1
 800063c:	d002      	beq.n	8000644 <wait_init_ack+0x1c>
 800063e:	687b      	ldr	r3, [r7, #4]
 8000640:	2b00      	cmp	r3, #0
 8000642:	d121      	bne.n	8000688 <wait_init_ack+0x60>
 8000644:	f002 f998 	bl	8002978 <HAL_GetTick>
 8000648:	60b8      	str	r0, [r7, #8]
 800064a:	e014      	b.n	8000676 <wait_init_ack+0x4e>
 800064c:	f002 f994 	bl	8002978 <HAL_GetTick>
 8000650:	4602      	mov	r2, r0
 8000652:	68bb      	ldr	r3, [r7, #8]
 8000654:	1ad3      	subs	r3, r2, r3
 8000656:	2b0a      	cmp	r3, #10
 8000658:	d90d      	bls.n	8000676 <wait_init_ack+0x4e>
 800065a:	4b0f      	ldr	r3, [pc, #60]	; (8000698 <wait_init_ack+0x70>)
 800065c:	6a5b      	ldr	r3, [r3, #36]	; 0x24
 800065e:	f443 3300 	orr.w	r3, r3, #131072	; 0x20000
 8000662:	4a0d      	ldr	r2, [pc, #52]	; (8000698 <wait_init_ack+0x70>)
 8000664:	6253      	str	r3, [r2, #36]	; 0x24
 8000666:	4b0c      	ldr	r3, [pc, #48]	; (8000698 <wait_init_ack+0x70>)
 8000668:	2205      	movs	r2, #5
 800066a:	f883 2020 	strb.w	r2, [r3, #32]
 800066e:	2301      	movs	r3, #1
 8000670:	73fb      	strb	r3, [r7, #15]
 8000672:	bf00      	nop
 8000674:	e00a      	b.n	800068c <wait_init_ack+0x64>
 8000676:	4b08      	ldr	r3, [pc, #32]	; (8000698 <wait_init_ack+0x70>)
 8000678:	681b      	ldr	r3, [r3, #0]
 800067a:	685b      	ldr	r3, [r3, #4]
 800067c:	f003 0201 	and.w	r2, r3, #1
 8000680:	687b      	ldr	r3, [r7, #4]
 8000682:	429a      	cmp	r2, r3
 8000684:	d1e2      	bne.n	800064c <wait_init_ack+0x24>
 8000686:	e001      	b.n	800068c <wait_init_ack+0x64>
 8000688:	2301      	movs	r3, #1
 800068a:	73fb      	strb	r3, [r7, #15]
 800068c:	7bfb      	ldrb	r3, [r7, #15]
 800068e:	4618      	mov	r0, r3
 8000690:	3710      	adds	r7, #16
 8000692:	46bd      	mov	sp, r7
 8000694:	bd80      	pop	{r7, pc}
 8000696:	bf00      	nop
 8000698:	20000034 	.word	0x20000034

0800069c <config_can_filter>:
 800069c:	b480      	push	{r7}
 800069e:	b087      	sub	sp, #28
 80006a0:	af00      	add	r7, sp, #0
 80006a2:	2300      	movs	r3, #0
 80006a4:	617b      	str	r3, [r7, #20]
 80006a6:	2300      	movs	r3, #0
 80006a8:	613b      	str	r3, [r7, #16]
 80006aa:	2300      	movs	r3, #0
 80006ac:	60fb      	str	r3, [r7, #12]
 80006ae:	2300      	movs	r3, #0
 80006b0:	60bb      	str	r3, [r7, #8]
 80006b2:	230e      	movs	r3, #14
 80006b4:	607b      	str	r3, [r7, #4]
 80006b6:	4b40      	ldr	r3, [pc, #256]	; (80007b8 <config_can_filter+0x11c>)
 80006b8:	681b      	ldr	r3, [r3, #0]
 80006ba:	4a3f      	ldr	r2, [pc, #252]	; (80007b8 <config_can_filter+0x11c>)
 80006bc:	6812      	ldr	r2, [r2, #0]
 80006be:	f8d2 2200 	ldr.w	r2, [r2, #512]	; 0x200
 80006c2:	f042 0201 	orr.w	r2, r2, #1
 80006c6:	f8c3 2200 	str.w	r2, [r3, #512]	; 0x200
 80006ca:	4b3b      	ldr	r3, [pc, #236]	; (80007b8 <config_can_filter+0x11c>)
 80006cc:	681b      	ldr	r3, [r3, #0]
 80006ce:	4a3a      	ldr	r2, [pc, #232]	; (80007b8 <config_can_filter+0x11c>)
 80006d0:	6812      	ldr	r2, [r2, #0]
 80006d2:	f8d2 2200 	ldr.w	r2, [r2, #512]	; 0x200
 80006d6:	f422 527c 	bic.w	r2, r2, #16128	; 0x3f00
 80006da:	f8c3 2200 	str.w	r2, [r3, #512]	; 0x200
 80006de:	4b36      	ldr	r3, [pc, #216]	; (80007b8 <config_can_filter+0x11c>)
 80006e0:	681b      	ldr	r3, [r3, #0]
 80006e2:	4a35      	ldr	r2, [pc, #212]	; (80007b8 <config_can_filter+0x11c>)
 80006e4:	6812      	ldr	r2, [r2, #0]
 80006e6:	f8d2 1200 	ldr.w	r1, [r2, #512]	; 0x200
 80006ea:	687a      	ldr	r2, [r7, #4]
 80006ec:	0212      	lsls	r2, r2, #8
 80006ee:	430a      	orrs	r2, r1
 80006f0:	f8c3 2200 	str.w	r2, [r3, #512]	; 0x200
 80006f4:	2201      	movs	r2, #1
 80006f6:	693b      	ldr	r3, [r7, #16]
 80006f8:	fa02 f303 	lsl.w	r3, r2, r3
 80006fc:	617b      	str	r3, [r7, #20]
 80006fe:	4b2e      	ldr	r3, [pc, #184]	; (80007b8 <config_can_filter+0x11c>)
 8000700:	681b      	ldr	r3, [r3, #0]
 8000702:	4a2d      	ldr	r2, [pc, #180]	; (80007b8 <config_can_filter+0x11c>)
 8000704:	6812      	ldr	r2, [r2, #0]
 8000706:	f8d2 121c 	ldr.w	r1, [r2, #540]	; 0x21c
 800070a:	697a      	ldr	r2, [r7, #20]
 800070c:	43d2      	mvns	r2, r2
 800070e:	400a      	ands	r2, r1
 8000710:	f8c3 221c 	str.w	r2, [r3, #540]	; 0x21c
 8000714:	4b28      	ldr	r3, [pc, #160]	; (80007b8 <config_can_filter+0x11c>)
 8000716:	681b      	ldr	r3, [r3, #0]
 8000718:	4a27      	ldr	r2, [pc, #156]	; (80007b8 <config_can_filter+0x11c>)
 800071a:	6812      	ldr	r2, [r2, #0]
 800071c:	f8d2 120c 	ldr.w	r1, [r2, #524]	; 0x20c
 8000720:	697a      	ldr	r2, [r7, #20]
 8000722:	430a      	orrs	r2, r1
 8000724:	f8c3 220c 	str.w	r2, [r3, #524]	; 0x20c
 8000728:	4b23      	ldr	r3, [pc, #140]	; (80007b8 <config_can_filter+0x11c>)
 800072a:	681b      	ldr	r3, [r3, #0]
 800072c:	68fa      	ldr	r2, [r7, #12]
 800072e:	0411      	lsls	r1, r2, #16
 8000730:	68ba      	ldr	r2, [r7, #8]
 8000732:	b292      	uxth	r2, r2
 8000734:	4311      	orrs	r1, r2
 8000736:	693a      	ldr	r2, [r7, #16]
 8000738:	3248      	adds	r2, #72	; 0x48
 800073a:	f843 1032 	str.w	r1, [r3, r2, lsl #3]
 800073e:	4b1e      	ldr	r3, [pc, #120]	; (80007b8 <config_can_filter+0x11c>)
 8000740:	6819      	ldr	r1, [r3, #0]
 8000742:	68fb      	ldr	r3, [r7, #12]
 8000744:	041a      	lsls	r2, r3, #16
 8000746:	68bb      	ldr	r3, [r7, #8]
 8000748:	b29b      	uxth	r3, r3
 800074a:	431a      	orrs	r2, r3
 800074c:	693b      	ldr	r3, [r7, #16]
 800074e:	3348      	adds	r3, #72	; 0x48
 8000750:	00db      	lsls	r3, r3, #3
 8000752:	440b      	add	r3, r1
 8000754:	605a      	str	r2, [r3, #4]
 8000756:	4b18      	ldr	r3, [pc, #96]	; (80007b8 <config_can_filter+0x11c>)
 8000758:	681b      	ldr	r3, [r3, #0]
 800075a:	4a17      	ldr	r2, [pc, #92]	; (80007b8 <config_can_filter+0x11c>)
 800075c:	6812      	ldr	r2, [r2, #0]
 800075e:	f8d2 1204 	ldr.w	r1, [r2, #516]	; 0x204
 8000762:	697a      	ldr	r2, [r7, #20]
 8000764:	43d2      	mvns	r2, r2
 8000766:	400a      	ands	r2, r1
 8000768:	f8c3 2204 	str.w	r2, [r3, #516]	; 0x204
 800076c:	4b12      	ldr	r3, [pc, #72]	; (80007b8 <config_can_filter+0x11c>)
 800076e:	681b      	ldr	r3, [r3, #0]
 8000770:	4a11      	ldr	r2, [pc, #68]	; (80007b8 <config_can_filter+0x11c>)
 8000772:	6812      	ldr	r2, [r2, #0]
 8000774:	f8d2 1214 	ldr.w	r1, [r2, #532]	; 0x214
 8000778:	697a      	ldr	r2, [r7, #20]
 800077a:	43d2      	mvns	r2, r2
 800077c:	400a      	ands	r2, r1
 800077e:	f8c3 2214 	str.w	r2, [r3, #532]	; 0x214
 8000782:	4b0d      	ldr	r3, [pc, #52]	; (80007b8 <config_can_filter+0x11c>)
 8000784:	681b      	ldr	r3, [r3, #0]
 8000786:	4a0c      	ldr	r2, [pc, #48]	; (80007b8 <config_can_filter+0x11c>)
 8000788:	6812      	ldr	r2, [r2, #0]
 800078a:	f8d2 121c 	ldr.w	r1, [r2, #540]	; 0x21c
 800078e:	697a      	ldr	r2, [r7, #20]
 8000790:	430a      	orrs	r2, r1
 8000792:	f8c3 221c 	str.w	r2, [r3, #540]	; 0x21c
 8000796:	4b08      	ldr	r3, [pc, #32]	; (80007b8 <config_can_filter+0x11c>)
 8000798:	681b      	ldr	r3, [r3, #0]
 800079a:	4a07      	ldr	r2, [pc, #28]	; (80007b8 <config_can_filter+0x11c>)
 800079c:	6812      	ldr	r2, [r2, #0]
 800079e:	f8d2 2200 	ldr.w	r2, [r2, #512]	; 0x200
 80007a2:	f022 0201 	bic.w	r2, r2, #1
 80007a6:	f8c3 2200 	str.w	r2, [r3, #512]	; 0x200
 80007aa:	bf00      	nop
 80007ac:	371c      	adds	r7, #28
 80007ae:	46bd      	mov	sp, r7
 80007b0:	f85d 7b04 	ldr.w	r7, [sp], #4
 80007b4:	4770      	bx	lr
 80007b6:	bf00      	nop
 80007b8:	20000034 	.word	0x20000034

080007bc <can_loopback_test>:
 80007bc:	b580      	push	{r7, lr}
 80007be:	b08a      	sub	sp, #40	; 0x28
 80007c0:	af00      	add	r7, sp, #0
 80007c2:	2300      	movs	r3, #0
 80007c4:	f887 3027 	strb.w	r3, [r7, #39]	; 0x27
 80007c8:	f107 0314 	add.w	r3, r7, #20
 80007cc:	2200      	movs	r2, #0
 80007ce:	601a      	str	r2, [r3, #0]
 80007d0:	605a      	str	r2, [r3, #4]
 80007d2:	609a      	str	r2, [r3, #8]
 80007d4:	60da      	str	r2, [r3, #12]
 80007d6:	2300      	movs	r3, #0
 80007d8:	f887 3026 	strb.w	r3, [r7, #38]	; 0x26
 80007dc:	f107 030c 	add.w	r3, r7, #12
 80007e0:	2200      	movs	r2, #0
 80007e2:	601a      	str	r2, [r3, #0]
 80007e4:	605a      	str	r2, [r3, #4]
 80007e6:	4a33      	ldr	r2, [pc, #204]	; (80008b4 <can_loopback_test+0xf8>)
 80007e8:	1d3b      	adds	r3, r7, #4
 80007ea:	e892 0003 	ldmia.w	r2, {r0, r1}
 80007ee:	e883 0003 	stmia.w	r3, {r0, r1}
 80007f2:	1d3b      	adds	r3, r7, #4
 80007f4:	4619      	mov	r1, r3
 80007f6:	f240 5055 	movw	r0, #1365	; 0x555
 80007fa:	f000 f875 	bl	80008e8 <HAL_CAN_AddTxMessage>
 80007fe:	4603      	mov	r3, r0
 8000800:	2b00      	cmp	r3, #0
 8000802:	d13f      	bne.n	8000884 <can_loopback_test+0xc8>
 8000804:	2032      	movs	r0, #50	; 0x32
 8000806:	f002 f8c3 	bl	8002990 <HAL_Delay>
 800080a:	f107 020c 	add.w	r2, r7, #12
 800080e:	f107 0314 	add.w	r3, r7, #20
 8000812:	4611      	mov	r1, r2
 8000814:	4618      	mov	r0, r3
 8000816:	f000 f90d 	bl	8000a34 <HAL_CAN_GetRxMessage>
 800081a:	4603      	mov	r3, r0
 800081c:	2b00      	cmp	r3, #0
 800081e:	d12d      	bne.n	800087c <can_loopback_test+0xc0>
 8000820:	2300      	movs	r3, #0
 8000822:	f887 3025 	strb.w	r3, [r7, #37]	; 0x25
 8000826:	e018      	b.n	800085a <can_loopback_test+0x9e>
 8000828:	f897 3025 	ldrb.w	r3, [r7, #37]	; 0x25
 800082c:	f107 0228 	add.w	r2, r7, #40	; 0x28
 8000830:	4413      	add	r3, r2
 8000832:	f813 2c24 	ldrb.w	r2, [r3, #-36]
 8000836:	f897 3025 	ldrb.w	r3, [r7, #37]	; 0x25
 800083a:	f107 0128 	add.w	r1, r7, #40	; 0x28
 800083e:	440b      	add	r3, r1
 8000840:	f813 3c1c 	ldrb.w	r3, [r3, #-28]
 8000844:	429a      	cmp	r2, r3
 8000846:	d003      	beq.n	8000850 <can_loopback_test+0x94>
 8000848:	2301      	movs	r3, #1
 800084a:	f887 3026 	strb.w	r3, [r7, #38]	; 0x26
 800084e:	e008      	b.n	8000862 <can_loopback_test+0xa6>
 8000850:	f897 3025 	ldrb.w	r3, [r7, #37]	; 0x25
 8000854:	3301      	adds	r3, #1
 8000856:	f887 3025 	strb.w	r3, [r7, #37]	; 0x25
 800085a:	f897 3025 	ldrb.w	r3, [r7, #37]	; 0x25
 800085e:	2b07      	cmp	r3, #7
 8000860:	d9e2      	bls.n	8000828 <can_loopback_test+0x6c>
 8000862:	f897 3026 	ldrb.w	r3, [r7, #38]	; 0x26
 8000866:	2b01      	cmp	r3, #1
 8000868:	d004      	beq.n	8000874 <can_loopback_test+0xb8>
 800086a:	697b      	ldr	r3, [r7, #20]
 800086c:	f240 5255 	movw	r2, #1365	; 0x555
 8000870:	4293      	cmp	r3, r2
 8000872:	d00a      	beq.n	800088a <can_loopback_test+0xce>
 8000874:	2301      	movs	r3, #1
 8000876:	f887 3027 	strb.w	r3, [r7, #39]	; 0x27
 800087a:	e006      	b.n	800088a <can_loopback_test+0xce>
 800087c:	2301      	movs	r3, #1
 800087e:	f887 3027 	strb.w	r3, [r7, #39]	; 0x27
 8000882:	e002      	b.n	800088a <can_loopback_test+0xce>
 8000884:	2301      	movs	r3, #1
 8000886:	f887 3027 	strb.w	r3, [r7, #39]	; 0x27
 800088a:	f897 3027 	ldrb.w	r3, [r7, #39]	; 0x27
 800088e:	2b01      	cmp	r3, #1
 8000890:	d109      	bne.n	80008a6 <can_loopback_test+0xea>
 8000892:	4b09      	ldr	r3, [pc, #36]	; (80008b8 <can_loopback_test+0xfc>)
 8000894:	6a5b      	ldr	r3, [r3, #36]	; 0x24
 8000896:	f043 7380 	orr.w	r3, r3, #16777216	; 0x1000000
 800089a:	4a07      	ldr	r2, [pc, #28]	; (80008b8 <can_loopback_test+0xfc>)
 800089c:	6253      	str	r3, [r2, #36]	; 0x24
 800089e:	4b06      	ldr	r3, [pc, #24]	; (80008b8 <can_loopback_test+0xfc>)
 80008a0:	2205      	movs	r2, #5
 80008a2:	f883 2020 	strb.w	r2, [r3, #32]
 80008a6:	f897 3027 	ldrb.w	r3, [r7, #39]	; 0x27
 80008aa:	4618      	mov	r0, r3
 80008ac:	3728      	adds	r7, #40	; 0x28
 80008ae:	46bd      	mov	sp, r7
 80008b0:	bd80      	pop	{r7, pc}
 80008b2:	bf00      	nop
 80008b4:	0800b448 	.word	0x0800b448
 80008b8:	20000034 	.word	0x20000034

080008bc <HAL_CAN_Stop>:
 80008bc:	b480      	push	{r7}
 80008be:	af00      	add	r7, sp, #0
 80008c0:	4b08      	ldr	r3, [pc, #32]	; (80008e4 <HAL_CAN_Stop+0x28>)
 80008c2:	2200      	movs	r2, #0
 80008c4:	f883 2020 	strb.w	r2, [r3, #32]
 80008c8:	4b06      	ldr	r3, [pc, #24]	; (80008e4 <HAL_CAN_Stop+0x28>)
 80008ca:	681b      	ldr	r3, [r3, #0]
 80008cc:	4a05      	ldr	r2, [pc, #20]	; (80008e4 <HAL_CAN_Stop+0x28>)
 80008ce:	6812      	ldr	r2, [r2, #0]
 80008d0:	6952      	ldr	r2, [r2, #20]
 80008d2:	f022 0202 	bic.w	r2, r2, #2
 80008d6:	615a      	str	r2, [r3, #20]
 80008d8:	bf00      	nop
 80008da:	46bd      	mov	sp, r7
 80008dc:	f85d 7b04 	ldr.w	r7, [sp], #4
 80008e0:	4770      	bx	lr
 80008e2:	bf00      	nop
 80008e4:	20000034 	.word	0x20000034

080008e8 <HAL_CAN_AddTxMessage>:
 80008e8:	b480      	push	{r7}
 80008ea:	b085      	sub	sp, #20
 80008ec:	af00      	add	r7, sp, #0
 80008ee:	6078      	str	r0, [r7, #4]
 80008f0:	6039      	str	r1, [r7, #0]
 80008f2:	2300      	movs	r3, #0
 80008f4:	73fb      	strb	r3, [r7, #15]
 80008f6:	687b      	ldr	r3, [r7, #4]
 80008f8:	f5b3 6f00 	cmp.w	r3, #2048	; 0x800
 80008fc:	f080 808e 	bcs.w	8000a1c <HAL_CAN_AddTxMessage+0x134>
 8000900:	683b      	ldr	r3, [r7, #0]
 8000902:	2b00      	cmp	r3, #0
 8000904:	f000 808a 	beq.w	8000a1c <HAL_CAN_AddTxMessage+0x134>
 8000908:	4b49      	ldr	r3, [pc, #292]	; (8000a30 <HAL_CAN_AddTxMessage+0x148>)
 800090a:	f893 3020 	ldrb.w	r3, [r3, #32]
 800090e:	b2db      	uxtb	r3, r3
 8000910:	2b01      	cmp	r3, #1
 8000912:	d17a      	bne.n	8000a0a <HAL_CAN_AddTxMessage+0x122>
 8000914:	4b46      	ldr	r3, [pc, #280]	; (8000a30 <HAL_CAN_AddTxMessage+0x148>)
 8000916:	681b      	ldr	r3, [r3, #0]
 8000918:	689b      	ldr	r3, [r3, #8]
 800091a:	f003 6380 	and.w	r3, r3, #67108864	; 0x4000000
 800091e:	2b00      	cmp	r3, #0
 8000920:	d10d      	bne.n	800093e <HAL_CAN_AddTxMessage+0x56>
 8000922:	4b43      	ldr	r3, [pc, #268]	; (8000a30 <HAL_CAN_AddTxMessage+0x148>)
 8000924:	681b      	ldr	r3, [r3, #0]
 8000926:	689b      	ldr	r3, [r3, #8]
 8000928:	f003 6300 	and.w	r3, r3, #134217728	; 0x8000000
 800092c:	2b00      	cmp	r3, #0
 800092e:	d106      	bne.n	800093e <HAL_CAN_AddTxMessage+0x56>
 8000930:	4b3f      	ldr	r3, [pc, #252]	; (8000a30 <HAL_CAN_AddTxMessage+0x148>)
 8000932:	681b      	ldr	r3, [r3, #0]
 8000934:	689b      	ldr	r3, [r3, #8]
 8000936:	f003 5380 	and.w	r3, r3, #268435456	; 0x10000000
 800093a:	2b00      	cmp	r3, #0
 800093c:	d05c      	beq.n	80009f8 <HAL_CAN_AddTxMessage+0x110>
 800093e:	4b3c      	ldr	r3, [pc, #240]	; (8000a30 <HAL_CAN_AddTxMessage+0x148>)
 8000940:	681b      	ldr	r3, [r3, #0]
 8000942:	689b      	ldr	r3, [r3, #8]
 8000944:	0e1b      	lsrs	r3, r3, #24
 8000946:	f003 0303 	and.w	r3, r3, #3
 800094a:	60bb      	str	r3, [r7, #8]
 800094c:	4b38      	ldr	r3, [pc, #224]	; (8000a30 <HAL_CAN_AddTxMessage+0x148>)
 800094e:	6819      	ldr	r1, [r3, #0]
 8000950:	687b      	ldr	r3, [r7, #4]
 8000952:	055a      	lsls	r2, r3, #21
 8000954:	68bb      	ldr	r3, [r7, #8]
 8000956:	3318      	adds	r3, #24
 8000958:	011b      	lsls	r3, r3, #4
 800095a:	440b      	add	r3, r1
 800095c:	601a      	str	r2, [r3, #0]
 800095e:	4b34      	ldr	r3, [pc, #208]	; (8000a30 <HAL_CAN_AddTxMessage+0x148>)
 8000960:	681a      	ldr	r2, [r3, #0]
 8000962:	68bb      	ldr	r3, [r7, #8]
 8000964:	3318      	adds	r3, #24
 8000966:	011b      	lsls	r3, r3, #4
 8000968:	4413      	add	r3, r2
 800096a:	3304      	adds	r3, #4
 800096c:	2208      	movs	r2, #8
 800096e:	601a      	str	r2, [r3, #0]
 8000970:	4b2f      	ldr	r3, [pc, #188]	; (8000a30 <HAL_CAN_AddTxMessage+0x148>)
 8000972:	6819      	ldr	r1, [r3, #0]
 8000974:	683b      	ldr	r3, [r7, #0]
 8000976:	3307      	adds	r3, #7
 8000978:	781b      	ldrb	r3, [r3, #0]
 800097a:	061a      	lsls	r2, r3, #24
 800097c:	683b      	ldr	r3, [r7, #0]
 800097e:	3306      	adds	r3, #6
 8000980:	781b      	ldrb	r3, [r3, #0]
 8000982:	041b      	lsls	r3, r3, #16
 8000984:	431a      	orrs	r2, r3
 8000986:	683b      	ldr	r3, [r7, #0]
 8000988:	3305      	adds	r3, #5
 800098a:	781b      	ldrb	r3, [r3, #0]
 800098c:	021b      	lsls	r3, r3, #8
 800098e:	4313      	orrs	r3, r2
 8000990:	683a      	ldr	r2, [r7, #0]
 8000992:	3204      	adds	r2, #4
 8000994:	7812      	ldrb	r2, [r2, #0]
 8000996:	431a      	orrs	r2, r3
 8000998:	68bb      	ldr	r3, [r7, #8]
 800099a:	011b      	lsls	r3, r3, #4
 800099c:	440b      	add	r3, r1
 800099e:	f503 73c6 	add.w	r3, r3, #396	; 0x18c
 80009a2:	601a      	str	r2, [r3, #0]
 80009a4:	4b22      	ldr	r3, [pc, #136]	; (8000a30 <HAL_CAN_AddTxMessage+0x148>)
 80009a6:	6819      	ldr	r1, [r3, #0]
 80009a8:	683b      	ldr	r3, [r7, #0]
 80009aa:	3303      	adds	r3, #3
 80009ac:	781b      	ldrb	r3, [r3, #0]
 80009ae:	061a      	lsls	r2, r3, #24
 80009b0:	683b      	ldr	r3, [r7, #0]
 80009b2:	3302      	adds	r3, #2
 80009b4:	781b      	ldrb	r3, [r3, #0]
 80009b6:	041b      	lsls	r3, r3, #16
 80009b8:	431a      	orrs	r2, r3
 80009ba:	683b      	ldr	r3, [r7, #0]
 80009bc:	3301      	adds	r3, #1
 80009be:	781b      	ldrb	r3, [r3, #0]
 80009c0:	021b      	lsls	r3, r3, #8
 80009c2:	4313      	orrs	r3, r2
 80009c4:	683a      	ldr	r2, [r7, #0]
 80009c6:	7812      	ldrb	r2, [r2, #0]
 80009c8:	431a      	orrs	r2, r3
 80009ca:	68bb      	ldr	r3, [r7, #8]
 80009cc:	011b      	lsls	r3, r3, #4
 80009ce:	440b      	add	r3, r1
 80009d0:	f503 73c4 	add.w	r3, r3, #392	; 0x188
 80009d4:	601a      	str	r2, [r3, #0]
 80009d6:	4b16      	ldr	r3, [pc, #88]	; (8000a30 <HAL_CAN_AddTxMessage+0x148>)
 80009d8:	6819      	ldr	r1, [r3, #0]
 80009da:	4b15      	ldr	r3, [pc, #84]	; (8000a30 <HAL_CAN_AddTxMessage+0x148>)
 80009dc:	681a      	ldr	r2, [r3, #0]
 80009de:	68bb      	ldr	r3, [r7, #8]
 80009e0:	3318      	adds	r3, #24
 80009e2:	011b      	lsls	r3, r3, #4
 80009e4:	4413      	add	r3, r2
 80009e6:	681b      	ldr	r3, [r3, #0]
 80009e8:	f043 0201 	orr.w	r2, r3, #1
 80009ec:	68bb      	ldr	r3, [r7, #8]
 80009ee:	3318      	adds	r3, #24
 80009f0:	011b      	lsls	r3, r3, #4
 80009f2:	440b      	add	r3, r1
 80009f4:	601a      	str	r2, [r3, #0]
 80009f6:	e013      	b.n	8000a20 <HAL_CAN_AddTxMessage+0x138>
 80009f8:	4b0d      	ldr	r3, [pc, #52]	; (8000a30 <HAL_CAN_AddTxMessage+0x148>)
 80009fa:	6a5b      	ldr	r3, [r3, #36]	; 0x24
 80009fc:	f443 1300 	orr.w	r3, r3, #2097152	; 0x200000
 8000a00:	4a0b      	ldr	r2, [pc, #44]	; (8000a30 <HAL_CAN_AddTxMessage+0x148>)
 8000a02:	6253      	str	r3, [r2, #36]	; 0x24
 8000a04:	2301      	movs	r3, #1
 8000a06:	73fb      	strb	r3, [r7, #15]
 8000a08:	e00a      	b.n	8000a20 <HAL_CAN_AddTxMessage+0x138>
 8000a0a:	4b09      	ldr	r3, [pc, #36]	; (8000a30 <HAL_CAN_AddTxMessage+0x148>)
 8000a0c:	6a5b      	ldr	r3, [r3, #36]	; 0x24
 8000a0e:	f443 2380 	orr.w	r3, r3, #262144	; 0x40000
 8000a12:	4a07      	ldr	r2, [pc, #28]	; (8000a30 <HAL_CAN_AddTxMessage+0x148>)
 8000a14:	6253      	str	r3, [r2, #36]	; 0x24
 8000a16:	2301      	movs	r3, #1
 8000a18:	73fb      	strb	r3, [r7, #15]
 8000a1a:	e001      	b.n	8000a20 <HAL_CAN_AddTxMessage+0x138>
 8000a1c:	2301      	movs	r3, #1
 8000a1e:	73fb      	strb	r3, [r7, #15]
 8000a20:	7bfb      	ldrb	r3, [r7, #15]
 8000a22:	4618      	mov	r0, r3
 8000a24:	3714      	adds	r7, #20
 8000a26:	46bd      	mov	sp, r7
 8000a28:	f85d 7b04 	ldr.w	r7, [sp], #4
 8000a2c:	4770      	bx	lr
 8000a2e:	bf00      	nop
 8000a30:	20000034 	.word	0x20000034

08000a34 <HAL_CAN_GetRxMessage>:
 8000a34:	b480      	push	{r7}
 8000a36:	b085      	sub	sp, #20
 8000a38:	af00      	add	r7, sp, #0
 8000a3a:	6078      	str	r0, [r7, #4]
 8000a3c:	6039      	str	r1, [r7, #0]
 8000a3e:	2300      	movs	r3, #0
 8000a40:	73fb      	strb	r3, [r7, #15]
 8000a42:	4b57      	ldr	r3, [pc, #348]	; (8000ba0 <HAL_CAN_GetRxMessage+0x16c>)
 8000a44:	f893 3020 	ldrb.w	r3, [r3, #32]
 8000a48:	b2db      	uxtb	r3, r3
 8000a4a:	2b01      	cmp	r3, #1
 8000a4c:	f040 8097 	bne.w	8000b7e <HAL_CAN_GetRxMessage+0x14a>
 8000a50:	687b      	ldr	r3, [r7, #4]
 8000a52:	2b00      	cmp	r3, #0
 8000a54:	f000 8093 	beq.w	8000b7e <HAL_CAN_GetRxMessage+0x14a>
 8000a58:	683b      	ldr	r3, [r7, #0]
 8000a5a:	2b00      	cmp	r3, #0
 8000a5c:	f000 808f 	beq.w	8000b7e <HAL_CAN_GetRxMessage+0x14a>
 8000a60:	4b4f      	ldr	r3, [pc, #316]	; (8000ba0 <HAL_CAN_GetRxMessage+0x16c>)
 8000a62:	681b      	ldr	r3, [r3, #0]
 8000a64:	68db      	ldr	r3, [r3, #12]
 8000a66:	f003 0303 	and.w	r3, r3, #3
 8000a6a:	2b00      	cmp	r3, #0
 8000a6c:	d107      	bne.n	8000a7e <HAL_CAN_GetRxMessage+0x4a>
 8000a6e:	4b4c      	ldr	r3, [pc, #304]	; (8000ba0 <HAL_CAN_GetRxMessage+0x16c>)
 8000a70:	6a5b      	ldr	r3, [r3, #36]	; 0x24
 8000a72:	f443 1300 	orr.w	r3, r3, #2097152	; 0x200000
 8000a76:	4a4a      	ldr	r2, [pc, #296]	; (8000ba0 <HAL_CAN_GetRxMessage+0x16c>)
 8000a78:	6253      	str	r3, [r2, #36]	; 0x24
 8000a7a:	2301      	movs	r3, #1
 8000a7c:	73fb      	strb	r3, [r7, #15]
 8000a7e:	7bfb      	ldrb	r3, [r7, #15]
 8000a80:	2b00      	cmp	r3, #0
 8000a82:	f040 8085 	bne.w	8000b90 <HAL_CAN_GetRxMessage+0x15c>
 8000a86:	4b46      	ldr	r3, [pc, #280]	; (8000ba0 <HAL_CAN_GetRxMessage+0x16c>)
 8000a88:	681b      	ldr	r3, [r3, #0]
 8000a8a:	f8d3 31b0 	ldr.w	r3, [r3, #432]	; 0x1b0
 8000a8e:	f003 0204 	and.w	r2, r3, #4
 8000a92:	687b      	ldr	r3, [r7, #4]
 8000a94:	605a      	str	r2, [r3, #4]
 8000a96:	4b42      	ldr	r3, [pc, #264]	; (8000ba0 <HAL_CAN_GetRxMessage+0x16c>)
 8000a98:	681b      	ldr	r3, [r3, #0]
 8000a9a:	f8d3 31b0 	ldr.w	r3, [r3, #432]	; 0x1b0
 8000a9e:	0d5b      	lsrs	r3, r3, #21
 8000aa0:	f3c3 020a 	ubfx	r2, r3, #0, #11
 8000aa4:	687b      	ldr	r3, [r7, #4]
 8000aa6:	601a      	str	r2, [r3, #0]
 8000aa8:	4b3d      	ldr	r3, [pc, #244]	; (8000ba0 <HAL_CAN_GetRxMessage+0x16c>)
 8000aaa:	681b      	ldr	r3, [r3, #0]
 8000aac:	f8d3 31b0 	ldr.w	r3, [r3, #432]	; 0x1b0
 8000ab0:	085b      	lsrs	r3, r3, #1
 8000ab2:	f003 0201 	and.w	r2, r3, #1
 8000ab6:	687b      	ldr	r3, [r7, #4]
 8000ab8:	609a      	str	r2, [r3, #8]
 8000aba:	4b39      	ldr	r3, [pc, #228]	; (8000ba0 <HAL_CAN_GetRxMessage+0x16c>)
 8000abc:	681b      	ldr	r3, [r3, #0]
 8000abe:	f8d3 31b4 	ldr.w	r3, [r3, #436]	; 0x1b4
 8000ac2:	f003 020f 	and.w	r2, r3, #15
 8000ac6:	687b      	ldr	r3, [r7, #4]
 8000ac8:	60da      	str	r2, [r3, #12]
 8000aca:	4b35      	ldr	r3, [pc, #212]	; (8000ba0 <HAL_CAN_GetRxMessage+0x16c>)
 8000acc:	681b      	ldr	r3, [r3, #0]
 8000ace:	f8d3 31b8 	ldr.w	r3, [r3, #440]	; 0x1b8
 8000ad2:	b2da      	uxtb	r2, r3
 8000ad4:	683b      	ldr	r3, [r7, #0]
 8000ad6:	701a      	strb	r2, [r3, #0]
 8000ad8:	683b      	ldr	r3, [r7, #0]
 8000ada:	3301      	adds	r3, #1
 8000adc:	4a30      	ldr	r2, [pc, #192]	; (8000ba0 <HAL_CAN_GetRxMessage+0x16c>)
 8000ade:	6812      	ldr	r2, [r2, #0]
 8000ae0:	f8d2 21b8 	ldr.w	r2, [r2, #440]	; 0x1b8
 8000ae4:	0a12      	lsrs	r2, r2, #8
 8000ae6:	b2d2      	uxtb	r2, r2
 8000ae8:	701a      	strb	r2, [r3, #0]
 8000aea:	683b      	ldr	r3, [r7, #0]
 8000aec:	3302      	adds	r3, #2
 8000aee:	4a2c      	ldr	r2, [pc, #176]	; (8000ba0 <HAL_CAN_GetRxMessage+0x16c>)
 8000af0:	6812      	ldr	r2, [r2, #0]
 8000af2:	f8d2 21b8 	ldr.w	r2, [r2, #440]	; 0x1b8
 8000af6:	0c12      	lsrs	r2, r2, #16
 8000af8:	b2d2      	uxtb	r2, r2
 8000afa:	701a      	strb	r2, [r3, #0]
 8000afc:	683b      	ldr	r3, [r7, #0]
 8000afe:	3303      	adds	r3, #3
 8000b00:	4a27      	ldr	r2, [pc, #156]	; (8000ba0 <HAL_CAN_GetRxMessage+0x16c>)
 8000b02:	6812      	ldr	r2, [r2, #0]
 8000b04:	f8d2 21b8 	ldr.w	r2, [r2, #440]	; 0x1b8
 8000b08:	0e12      	lsrs	r2, r2, #24
 8000b0a:	b2d2      	uxtb	r2, r2
 8000b0c:	701a      	strb	r2, [r3, #0]
 8000b0e:	683b      	ldr	r3, [r7, #0]
 8000b10:	3304      	adds	r3, #4
 8000b12:	4a23      	ldr	r2, [pc, #140]	; (8000ba0 <HAL_CAN_GetRxMessage+0x16c>)
 8000b14:	6812      	ldr	r2, [r2, #0]
 8000b16:	f8d2 21bc 	ldr.w	r2, [r2, #444]	; 0x1bc
 8000b1a:	b2d2      	uxtb	r2, r2
 8000b1c:	701a      	strb	r2, [r3, #0]
 8000b1e:	683b      	ldr	r3, [r7, #0]
 8000b20:	3305      	adds	r3, #5
 8000b22:	4a1f      	ldr	r2, [pc, #124]	; (8000ba0 <HAL_CAN_GetRxMessage+0x16c>)
 8000b24:	6812      	ldr	r2, [r2, #0]
 8000b26:	f8d2 21bc 	ldr.w	r2, [r2, #444]	; 0x1bc
 8000b2a:	0a12      	lsrs	r2, r2, #8
 8000b2c:	b2d2      	uxtb	r2, r2
 8000b2e:	701a      	strb	r2, [r3, #0]
 8000b30:	683b      	ldr	r3, [r7, #0]
 8000b32:	3306      	adds	r3, #6
 8000b34:	4a1a      	ldr	r2, [pc, #104]	; (8000ba0 <HAL_CAN_GetRxMessage+0x16c>)
 8000b36:	6812      	ldr	r2, [r2, #0]
 8000b38:	f8d2 21bc 	ldr.w	r2, [r2, #444]	; 0x1bc
 8000b3c:	0c12      	lsrs	r2, r2, #16
 8000b3e:	b2d2      	uxtb	r2, r2
 8000b40:	701a      	strb	r2, [r3, #0]
 8000b42:	683b      	ldr	r3, [r7, #0]
 8000b44:	3307      	adds	r3, #7
 8000b46:	4a16      	ldr	r2, [pc, #88]	; (8000ba0 <HAL_CAN_GetRxMessage+0x16c>)
 8000b48:	6812      	ldr	r2, [r2, #0]
 8000b4a:	f8d2 21bc 	ldr.w	r2, [r2, #444]	; 0x1bc
 8000b4e:	0e12      	lsrs	r2, r2, #24
 8000b50:	b2d2      	uxtb	r2, r2
 8000b52:	701a      	strb	r2, [r3, #0]
 8000b54:	4b12      	ldr	r3, [pc, #72]	; (8000ba0 <HAL_CAN_GetRxMessage+0x16c>)
 8000b56:	681b      	ldr	r3, [r3, #0]
 8000b58:	4a11      	ldr	r2, [pc, #68]	; (8000ba0 <HAL_CAN_GetRxMessage+0x16c>)
 8000b5a:	6812      	ldr	r2, [r2, #0]
 8000b5c:	68d2      	ldr	r2, [r2, #12]
 8000b5e:	f042 0220 	orr.w	r2, r2, #32
 8000b62:	60da      	str	r2, [r3, #12]
 8000b64:	687b      	ldr	r3, [r7, #4]
 8000b66:	68db      	ldr	r3, [r3, #12]
 8000b68:	2b08      	cmp	r3, #8
 8000b6a:	d011      	beq.n	8000b90 <HAL_CAN_GetRxMessage+0x15c>
 8000b6c:	4b0c      	ldr	r3, [pc, #48]	; (8000ba0 <HAL_CAN_GetRxMessage+0x16c>)
 8000b6e:	6a5b      	ldr	r3, [r3, #36]	; 0x24
 8000b70:	f443 1300 	orr.w	r3, r3, #2097152	; 0x200000
 8000b74:	4a0a      	ldr	r2, [pc, #40]	; (8000ba0 <HAL_CAN_GetRxMessage+0x16c>)
 8000b76:	6253      	str	r3, [r2, #36]	; 0x24
 8000b78:	2301      	movs	r3, #1
 8000b7a:	73fb      	strb	r3, [r7, #15]
 8000b7c:	e008      	b.n	8000b90 <HAL_CAN_GetRxMessage+0x15c>
 8000b7e:	4b08      	ldr	r3, [pc, #32]	; (8000ba0 <HAL_CAN_GetRxMessage+0x16c>)
 8000b80:	6a5b      	ldr	r3, [r3, #36]	; 0x24
 8000b82:	f443 2380 	orr.w	r3, r3, #262144	; 0x40000
 8000b86:	4a06      	ldr	r2, [pc, #24]	; (8000ba0 <HAL_CAN_GetRxMessage+0x16c>)
 8000b88:	6253      	str	r3, [r2, #36]	; 0x24
 8000b8a:	2301      	movs	r3, #1
 8000b8c:	73fb      	strb	r3, [r7, #15]
 8000b8e:	e000      	b.n	8000b92 <HAL_CAN_GetRxMessage+0x15e>
 8000b90:	bf00      	nop
 8000b92:	7bfb      	ldrb	r3, [r7, #15]
 8000b94:	4618      	mov	r0, r3
 8000b96:	3714      	adds	r7, #20
 8000b98:	46bd      	mov	sp, r7
 8000b9a:	f85d 7b04 	ldr.w	r7, [sp], #4
 8000b9e:	4770      	bx	lr
 8000ba0:	20000034 	.word	0x20000034

08000ba4 <HAL_CAN_IRQHandler>:
 8000ba4:	b580      	push	{r7, lr}
 8000ba6:	b082      	sub	sp, #8
 8000ba8:	af00      	add	r7, sp, #0
 8000baa:	4b0b      	ldr	r3, [pc, #44]	; (8000bd8 <HAL_CAN_IRQHandler+0x34>)
 8000bac:	681b      	ldr	r3, [r3, #0]
 8000bae:	695b      	ldr	r3, [r3, #20]
 8000bb0:	607b      	str	r3, [r7, #4]
 8000bb2:	687b      	ldr	r3, [r7, #4]
 8000bb4:	f003 0302 	and.w	r3, r3, #2
 8000bb8:	2b00      	cmp	r3, #0
 8000bba:	d008      	beq.n	8000bce <HAL_CAN_IRQHandler+0x2a>
 8000bbc:	4b06      	ldr	r3, [pc, #24]	; (8000bd8 <HAL_CAN_IRQHandler+0x34>)
 8000bbe:	681b      	ldr	r3, [r3, #0]
 8000bc0:	68db      	ldr	r3, [r3, #12]
 8000bc2:	f003 0303 	and.w	r3, r3, #3
 8000bc6:	2b00      	cmp	r3, #0
 8000bc8:	d001      	beq.n	8000bce <HAL_CAN_IRQHandler+0x2a>
 8000bca:	f002 fdd9 	bl	8003780 <HAL_CAN_RxFifo0MsgPendingCallback>
 8000bce:	bf00      	nop
 8000bd0:	3708      	adds	r7, #8
 8000bd2:	46bd      	mov	sp, r7
 8000bd4:	bd80      	pop	{r7, pc}
 8000bd6:	bf00      	nop
 8000bd8:	20000034 	.word	0x20000034

08000bdc <HAL_NVIC_SetPriorityGrouping>:
 8000bdc:	b480      	push	{r7}
 8000bde:	b085      	sub	sp, #20
 8000be0:	af00      	add	r7, sp, #0
 8000be2:	6078      	str	r0, [r7, #4]
 8000be4:	687b      	ldr	r3, [r7, #4]
 8000be6:	2b07      	cmp	r3, #7
 8000be8:	d00b      	beq.n	8000c02 <HAL_NVIC_SetPriorityGrouping+0x26>
 8000bea:	687b      	ldr	r3, [r7, #4]
 8000bec:	2b06      	cmp	r3, #6
 8000bee:	d008      	beq.n	8000c02 <HAL_NVIC_SetPriorityGrouping+0x26>
 8000bf0:	687b      	ldr	r3, [r7, #4]
 8000bf2:	2b05      	cmp	r3, #5
 8000bf4:	d005      	beq.n	8000c02 <HAL_NVIC_SetPriorityGrouping+0x26>
 8000bf6:	687b      	ldr	r3, [r7, #4]
 8000bf8:	2b04      	cmp	r3, #4
 8000bfa:	d002      	beq.n	8000c02 <HAL_NVIC_SetPriorityGrouping+0x26>
 8000bfc:	687b      	ldr	r3, [r7, #4]
 8000bfe:	2b03      	cmp	r3, #3
 8000c00:	d117      	bne.n	8000c32 <HAL_NVIC_SetPriorityGrouping+0x56>
 8000c02:	687b      	ldr	r3, [r7, #4]
 8000c04:	f003 0307 	and.w	r3, r3, #7
 8000c08:	60fb      	str	r3, [r7, #12]
 8000c0a:	4b0d      	ldr	r3, [pc, #52]	; (8000c40 <HAL_NVIC_SetPriorityGrouping+0x64>)
 8000c0c:	68db      	ldr	r3, [r3, #12]
 8000c0e:	60bb      	str	r3, [r7, #8]
 8000c10:	68ba      	ldr	r2, [r7, #8]
 8000c12:	f64f 03ff 	movw	r3, #63743	; 0xf8ff
 8000c16:	4013      	ands	r3, r2
 8000c18:	60bb      	str	r3, [r7, #8]
 8000c1a:	68fb      	ldr	r3, [r7, #12]
 8000c1c:	021a      	lsls	r2, r3, #8
 8000c1e:	68bb      	ldr	r3, [r7, #8]
 8000c20:	4313      	orrs	r3, r2
 8000c22:	f043 63bf 	orr.w	r3, r3, #100139008	; 0x5f80000
 8000c26:	f443 3300 	orr.w	r3, r3, #131072	; 0x20000
 8000c2a:	60bb      	str	r3, [r7, #8]
 8000c2c:	4a04      	ldr	r2, [pc, #16]	; (8000c40 <HAL_NVIC_SetPriorityGrouping+0x64>)
 8000c2e:	68bb      	ldr	r3, [r7, #8]
 8000c30:	60d3      	str	r3, [r2, #12]
 8000c32:	bf00      	nop
 8000c34:	3714      	adds	r7, #20
 8000c36:	46bd      	mov	sp, r7
 8000c38:	f85d 7b04 	ldr.w	r7, [sp], #4
 8000c3c:	4770      	bx	lr
 8000c3e:	bf00      	nop
 8000c40:	e000ed00 	.word	0xe000ed00

08000c44 <HAL_NVIC_SetPriority>:
 8000c44:	b580      	push	{r7, lr}
 8000c46:	b086      	sub	sp, #24
 8000c48:	af00      	add	r7, sp, #0
 8000c4a:	4603      	mov	r3, r0
 8000c4c:	60b9      	str	r1, [r7, #8]
 8000c4e:	607a      	str	r2, [r7, #4]
 8000c50:	73fb      	strb	r3, [r7, #15]
 8000c52:	2300      	movs	r3, #0
 8000c54:	617b      	str	r3, [r7, #20]
 8000c56:	2300      	movs	r3, #0
 8000c58:	613b      	str	r3, [r7, #16]
 8000c5a:	68bb      	ldr	r3, [r7, #8]
 8000c5c:	2b0f      	cmp	r3, #15
 8000c5e:	d828      	bhi.n	8000cb2 <HAL_NVIC_SetPriority+0x6e>
 8000c60:	687b      	ldr	r3, [r7, #4]
 8000c62:	2b0f      	cmp	r3, #15
 8000c64:	d825      	bhi.n	8000cb2 <HAL_NVIC_SetPriority+0x6e>
 8000c66:	4b15      	ldr	r3, [pc, #84]	; (8000cbc <HAL_NVIC_SetPriority+0x78>)
 8000c68:	68db      	ldr	r3, [r3, #12]
 8000c6a:	0a1b      	lsrs	r3, r3, #8
 8000c6c:	f003 0307 	and.w	r3, r3, #7
 8000c70:	617b      	str	r3, [r7, #20]
 8000c72:	687a      	ldr	r2, [r7, #4]
 8000c74:	68b9      	ldr	r1, [r7, #8]
 8000c76:	6978      	ldr	r0, [r7, #20]
 8000c78:	f000 f824 	bl	8000cc4 <nvic_encode_priority>
 8000c7c:	6138      	str	r0, [r7, #16]
 8000c7e:	f997 300f 	ldrsb.w	r3, [r7, #15]
 8000c82:	2b00      	cmp	r3, #0
 8000c84:	da0b      	bge.n	8000c9e <HAL_NVIC_SetPriority+0x5a>
 8000c86:	490d      	ldr	r1, [pc, #52]	; (8000cbc <HAL_NVIC_SetPriority+0x78>)
 8000c88:	7bfb      	ldrb	r3, [r7, #15]
 8000c8a:	f003 030f 	and.w	r3, r3, #15
 8000c8e:	3b04      	subs	r3, #4
 8000c90:	693a      	ldr	r2, [r7, #16]
 8000c92:	b2d2      	uxtb	r2, r2
 8000c94:	0112      	lsls	r2, r2, #4
 8000c96:	b2d2      	uxtb	r2, r2
 8000c98:	440b      	add	r3, r1
 8000c9a:	761a      	strb	r2, [r3, #24]
 8000c9c:	e009      	b.n	8000cb2 <HAL_NVIC_SetPriority+0x6e>
 8000c9e:	4908      	ldr	r1, [pc, #32]	; (8000cc0 <HAL_NVIC_SetPriority+0x7c>)
 8000ca0:	f997 300f 	ldrsb.w	r3, [r7, #15]
 8000ca4:	693a      	ldr	r2, [r7, #16]
 8000ca6:	b2d2      	uxtb	r2, r2
 8000ca8:	0112      	lsls	r2, r2, #4
 8000caa:	b2d2      	uxtb	r2, r2
 8000cac:	440b      	add	r3, r1
 8000cae:	f883 2300 	strb.w	r2, [r3, #768]	; 0x300
 8000cb2:	bf00      	nop
 8000cb4:	3718      	adds	r7, #24
 8000cb6:	46bd      	mov	sp, r7
 8000cb8:	bd80      	pop	{r7, pc}
 8000cba:	bf00      	nop
 8000cbc:	e000ed00 	.word	0xe000ed00
 8000cc0:	e000e100 	.word	0xe000e100

08000cc4 <nvic_encode_priority>:
 8000cc4:	b480      	push	{r7}
 8000cc6:	b089      	sub	sp, #36	; 0x24
 8000cc8:	af00      	add	r7, sp, #0
 8000cca:	60f8      	str	r0, [r7, #12]
 8000ccc:	60b9      	str	r1, [r7, #8]
 8000cce:	607a      	str	r2, [r7, #4]
 8000cd0:	68fb      	ldr	r3, [r7, #12]
 8000cd2:	f003 0307 	and.w	r3, r3, #7
 8000cd6:	617b      	str	r3, [r7, #20]
 8000cd8:	2300      	movs	r3, #0
 8000cda:	61fb      	str	r3, [r7, #28]
 8000cdc:	2300      	movs	r3, #0
 8000cde:	61bb      	str	r3, [r7, #24]
 8000ce0:	697b      	ldr	r3, [r7, #20]
 8000ce2:	f1c3 0307 	rsb	r3, r3, #7
 8000ce6:	2b04      	cmp	r3, #4
 8000ce8:	d902      	bls.n	8000cf0 <nvic_encode_priority+0x2c>
 8000cea:	2304      	movs	r3, #4
 8000cec:	61fb      	str	r3, [r7, #28]
 8000cee:	e003      	b.n	8000cf8 <nvic_encode_priority+0x34>
 8000cf0:	697b      	ldr	r3, [r7, #20]
 8000cf2:	f1c3 0307 	rsb	r3, r3, #7
 8000cf6:	61fb      	str	r3, [r7, #28]
 8000cf8:	697b      	ldr	r3, [r7, #20]
 8000cfa:	3304      	adds	r3, #4
 8000cfc:	2b06      	cmp	r3, #6
 8000cfe:	d802      	bhi.n	8000d06 <nvic_encode_priority+0x42>
 8000d00:	2300      	movs	r3, #0
 8000d02:	61bb      	str	r3, [r7, #24]
 8000d04:	e002      	b.n	8000d0c <nvic_encode_priority+0x48>
 8000d06:	697b      	ldr	r3, [r7, #20]
 8000d08:	3b03      	subs	r3, #3
 8000d0a:	61bb      	str	r3, [r7, #24]
 8000d0c:	2201      	movs	r2, #1
 8000d0e:	69fb      	ldr	r3, [r7, #28]
 8000d10:	fa02 f303 	lsl.w	r3, r2, r3
 8000d14:	1e5a      	subs	r2, r3, #1
 8000d16:	68bb      	ldr	r3, [r7, #8]
 8000d18:	401a      	ands	r2, r3
 8000d1a:	69bb      	ldr	r3, [r7, #24]
 8000d1c:	409a      	lsls	r2, r3
 8000d1e:	2101      	movs	r1, #1
 8000d20:	69bb      	ldr	r3, [r7, #24]
 8000d22:	fa01 f303 	lsl.w	r3, r1, r3
 8000d26:	1e59      	subs	r1, r3, #1
 8000d28:	687b      	ldr	r3, [r7, #4]
 8000d2a:	400b      	ands	r3, r1
 8000d2c:	4313      	orrs	r3, r2
 8000d2e:	4618      	mov	r0, r3
 8000d30:	3724      	adds	r7, #36	; 0x24
 8000d32:	46bd      	mov	sp, r7
 8000d34:	f85d 7b04 	ldr.w	r7, [sp], #4
 8000d38:	4770      	bx	lr

08000d3a <HAL_NVIC_EnableIRQ>:
 8000d3a:	b480      	push	{r7}
 8000d3c:	b083      	sub	sp, #12
 8000d3e:	af00      	add	r7, sp, #0
 8000d40:	4603      	mov	r3, r0
 8000d42:	71fb      	strb	r3, [r7, #7]
 8000d44:	f997 3007 	ldrsb.w	r3, [r7, #7]
 8000d48:	2b00      	cmp	r3, #0
 8000d4a:	d00e      	beq.n	8000d6a <HAL_NVIC_EnableIRQ+0x30>
 8000d4c:	79fb      	ldrb	r3, [r7, #7]
 8000d4e:	2b5a      	cmp	r3, #90	; 0x5a
 8000d50:	d80b      	bhi.n	8000d6a <HAL_NVIC_EnableIRQ+0x30>
 8000d52:	4909      	ldr	r1, [pc, #36]	; (8000d78 <HAL_NVIC_EnableIRQ+0x3e>)
 8000d54:	f997 3007 	ldrsb.w	r3, [r7, #7]
 8000d58:	095b      	lsrs	r3, r3, #5
 8000d5a:	79fa      	ldrb	r2, [r7, #7]
 8000d5c:	f002 021f 	and.w	r2, r2, #31
 8000d60:	2001      	movs	r0, #1
 8000d62:	fa00 f202 	lsl.w	r2, r0, r2
 8000d66:	f841 2023 	str.w	r2, [r1, r3, lsl #2]
 8000d6a:	bf00      	nop
 8000d6c:	370c      	adds	r7, #12
 8000d6e:	46bd      	mov	sp, r7
 8000d70:	f85d 7b04 	ldr.w	r7, [sp], #4
 8000d74:	4770      	bx	lr
 8000d76:	bf00      	nop
 8000d78:	e000e100 	.word	0xe000e100

08000d7c <HAL_SYSTICK_Config>:
 8000d7c:	b580      	push	{r7, lr}
 8000d7e:	b084      	sub	sp, #16
 8000d80:	af00      	add	r7, sp, #0
 8000d82:	6078      	str	r0, [r7, #4]
 8000d84:	2300      	movs	r3, #0
 8000d86:	60fb      	str	r3, [r7, #12]
 8000d88:	687b      	ldr	r3, [r7, #4]
 8000d8a:	3b01      	subs	r3, #1
 8000d8c:	f1b3 7f80 	cmp.w	r3, #16777216	; 0x1000000
 8000d90:	d302      	bcc.n	8000d98 <HAL_SYSTICK_Config+0x1c>
 8000d92:	2301      	movs	r3, #1
 8000d94:	60fb      	str	r3, [r7, #12]
 8000d96:	e00f      	b.n	8000db8 <HAL_SYSTICK_Config+0x3c>
 8000d98:	4a0a      	ldr	r2, [pc, #40]	; (8000dc4 <HAL_SYSTICK_Config+0x48>)
 8000d9a:	687b      	ldr	r3, [r7, #4]
 8000d9c:	3b01      	subs	r3, #1
 8000d9e:	6053      	str	r3, [r2, #4]
 8000da0:	2200      	movs	r2, #0
 8000da2:	210f      	movs	r1, #15
 8000da4:	f04f 30ff 	mov.w	r0, #4294967295
 8000da8:	f7ff ff4c 	bl	8000c44 <HAL_NVIC_SetPriority>
 8000dac:	4b05      	ldr	r3, [pc, #20]	; (8000dc4 <HAL_SYSTICK_Config+0x48>)
 8000dae:	2200      	movs	r2, #0
 8000db0:	609a      	str	r2, [r3, #8]
 8000db2:	4b04      	ldr	r3, [pc, #16]	; (8000dc4 <HAL_SYSTICK_Config+0x48>)
 8000db4:	2207      	movs	r2, #7
 8000db6:	601a      	str	r2, [r3, #0]
 8000db8:	68fb      	ldr	r3, [r7, #12]
 8000dba:	4618      	mov	r0, r3
 8000dbc:	3710      	adds	r7, #16
 8000dbe:	46bd      	mov	sp, r7
 8000dc0:	bd80      	pop	{r7, pc}
 8000dc2:	bf00      	nop
 8000dc4:	e000e010 	.word	0xe000e010

08000dc8 <HAL_GPIO_Init>:
 8000dc8:	b480      	push	{r7}
 8000dca:	b089      	sub	sp, #36	; 0x24
 8000dcc:	af00      	add	r7, sp, #0
 8000dce:	6078      	str	r0, [r7, #4]
 8000dd0:	6039      	str	r1, [r7, #0]
 8000dd2:	2300      	movs	r3, #0
 8000dd4:	61fb      	str	r3, [r7, #28]
 8000dd6:	2300      	movs	r3, #0
 8000dd8:	617b      	str	r3, [r7, #20]
 8000dda:	2300      	movs	r3, #0
 8000ddc:	613b      	str	r3, [r7, #16]
 8000dde:	2300      	movs	r3, #0
 8000de0:	60fb      	str	r3, [r7, #12]
 8000de2:	2300      	movs	r3, #0
 8000de4:	76fb      	strb	r3, [r7, #27]
 8000de6:	687b      	ldr	r3, [r7, #4]
 8000de8:	2b00      	cmp	r3, #0
 8000dea:	f000 818c 	beq.w	8001106 <HAL_GPIO_Init+0x33e>
 8000dee:	683b      	ldr	r3, [r7, #0]
 8000df0:	2b00      	cmp	r3, #0
 8000df2:	f000 8188 	beq.w	8001106 <HAL_GPIO_Init+0x33e>
 8000df6:	687b      	ldr	r3, [r7, #4]
 8000df8:	4a92      	ldr	r2, [pc, #584]	; (8001044 <HAL_GPIO_Init+0x27c>)
 8000dfa:	4293      	cmp	r3, r2
 8000dfc:	d00f      	beq.n	8000e1e <HAL_GPIO_Init+0x56>
 8000dfe:	687b      	ldr	r3, [r7, #4]
 8000e00:	4a91      	ldr	r2, [pc, #580]	; (8001048 <HAL_GPIO_Init+0x280>)
 8000e02:	4293      	cmp	r3, r2
 8000e04:	d00b      	beq.n	8000e1e <HAL_GPIO_Init+0x56>
 8000e06:	687b      	ldr	r3, [r7, #4]
 8000e08:	4a90      	ldr	r2, [pc, #576]	; (800104c <HAL_GPIO_Init+0x284>)
 8000e0a:	4293      	cmp	r3, r2
 8000e0c:	d007      	beq.n	8000e1e <HAL_GPIO_Init+0x56>
 8000e0e:	687b      	ldr	r3, [r7, #4]
 8000e10:	4a8f      	ldr	r2, [pc, #572]	; (8001050 <HAL_GPIO_Init+0x288>)
 8000e12:	4293      	cmp	r3, r2
 8000e14:	d003      	beq.n	8000e1e <HAL_GPIO_Init+0x56>
 8000e16:	687b      	ldr	r3, [r7, #4]
 8000e18:	4a8e      	ldr	r2, [pc, #568]	; (8001054 <HAL_GPIO_Init+0x28c>)
 8000e1a:	4293      	cmp	r3, r2
 8000e1c:	d101      	bne.n	8000e22 <HAL_GPIO_Init+0x5a>
 8000e1e:	2301      	movs	r3, #1
 8000e20:	e000      	b.n	8000e24 <HAL_GPIO_Init+0x5c>
 8000e22:	2300      	movs	r3, #0
 8000e24:	2b01      	cmp	r3, #1
 8000e26:	f040 816b 	bne.w	8001100 <HAL_GPIO_Init+0x338>
 8000e2a:	683b      	ldr	r3, [r7, #0]
 8000e2c:	681b      	ldr	r3, [r3, #0]
 8000e2e:	b29b      	uxth	r3, r3
 8000e30:	2b00      	cmp	r3, #0
 8000e32:	d007      	beq.n	8000e44 <HAL_GPIO_Init+0x7c>
 8000e34:	683b      	ldr	r3, [r7, #0]
 8000e36:	681b      	ldr	r3, [r3, #0]
 8000e38:	0c1b      	lsrs	r3, r3, #16
 8000e3a:	041b      	lsls	r3, r3, #16
 8000e3c:	2b00      	cmp	r3, #0
 8000e3e:	d101      	bne.n	8000e44 <HAL_GPIO_Init+0x7c>
 8000e40:	2301      	movs	r3, #1
 8000e42:	e000      	b.n	8000e46 <HAL_GPIO_Init+0x7e>
 8000e44:	2300      	movs	r3, #0
 8000e46:	2b01      	cmp	r3, #1
 8000e48:	f040 815a 	bne.w	8001100 <HAL_GPIO_Init+0x338>
 8000e4c:	683b      	ldr	r3, [r7, #0]
 8000e4e:	685b      	ldr	r3, [r3, #4]
 8000e50:	2b00      	cmp	r3, #0
 8000e52:	d013      	beq.n	8000e7c <HAL_GPIO_Init+0xb4>
 8000e54:	683b      	ldr	r3, [r7, #0]
 8000e56:	685b      	ldr	r3, [r3, #4]
 8000e58:	2b01      	cmp	r3, #1
 8000e5a:	d00f      	beq.n	8000e7c <HAL_GPIO_Init+0xb4>
 8000e5c:	683b      	ldr	r3, [r7, #0]
 8000e5e:	685b      	ldr	r3, [r3, #4]
 8000e60:	2b11      	cmp	r3, #17
 8000e62:	d00b      	beq.n	8000e7c <HAL_GPIO_Init+0xb4>
 8000e64:	683b      	ldr	r3, [r7, #0]
 8000e66:	685b      	ldr	r3, [r3, #4]
 8000e68:	2b02      	cmp	r3, #2
 8000e6a:	d007      	beq.n	8000e7c <HAL_GPIO_Init+0xb4>
 8000e6c:	683b      	ldr	r3, [r7, #0]
 8000e6e:	685b      	ldr	r3, [r3, #4]
 8000e70:	2b12      	cmp	r3, #18
 8000e72:	d003      	beq.n	8000e7c <HAL_GPIO_Init+0xb4>
 8000e74:	683b      	ldr	r3, [r7, #0]
 8000e76:	685b      	ldr	r3, [r3, #4]
 8000e78:	2b03      	cmp	r3, #3
 8000e7a:	d101      	bne.n	8000e80 <HAL_GPIO_Init+0xb8>
 8000e7c:	2301      	movs	r3, #1
 8000e7e:	e000      	b.n	8000e82 <HAL_GPIO_Init+0xba>
 8000e80:	2300      	movs	r3, #0
 8000e82:	2b01      	cmp	r3, #1
 8000e84:	f040 813c 	bne.w	8001100 <HAL_GPIO_Init+0x338>
 8000e88:	683b      	ldr	r3, [r7, #0]
 8000e8a:	689b      	ldr	r3, [r3, #8]
 8000e8c:	2b00      	cmp	r3, #0
 8000e8e:	d007      	beq.n	8000ea0 <HAL_GPIO_Init+0xd8>
 8000e90:	683b      	ldr	r3, [r7, #0]
 8000e92:	689b      	ldr	r3, [r3, #8]
 8000e94:	2b01      	cmp	r3, #1
 8000e96:	d003      	beq.n	8000ea0 <HAL_GPIO_Init+0xd8>
 8000e98:	683b      	ldr	r3, [r7, #0]
 8000e9a:	689b      	ldr	r3, [r3, #8]
 8000e9c:	2b02      	cmp	r3, #2
 8000e9e:	d101      	bne.n	8000ea4 <HAL_GPIO_Init+0xdc>
 8000ea0:	2301      	movs	r3, #1
 8000ea2:	e000      	b.n	8000ea6 <HAL_GPIO_Init+0xde>
 8000ea4:	2300      	movs	r3, #0
 8000ea6:	2b01      	cmp	r3, #1
 8000ea8:	f040 812a 	bne.w	8001100 <HAL_GPIO_Init+0x338>
 8000eac:	2300      	movs	r3, #0
 8000eae:	61fb      	str	r3, [r7, #28]
 8000eb0:	e121      	b.n	80010f6 <HAL_GPIO_Init+0x32e>
 8000eb2:	2201      	movs	r2, #1
 8000eb4:	69fb      	ldr	r3, [r7, #28]
 8000eb6:	fa02 f303 	lsl.w	r3, r2, r3
 8000eba:	617b      	str	r3, [r7, #20]
 8000ebc:	683b      	ldr	r3, [r7, #0]
 8000ebe:	681a      	ldr	r2, [r3, #0]
 8000ec0:	697b      	ldr	r3, [r7, #20]
 8000ec2:	4013      	ands	r3, r2
 8000ec4:	613b      	str	r3, [r7, #16]
 8000ec6:	693a      	ldr	r2, [r7, #16]
 8000ec8:	697b      	ldr	r3, [r7, #20]
 8000eca:	429a      	cmp	r2, r3
 8000ecc:	f040 8110 	bne.w	80010f0 <HAL_GPIO_Init+0x328>
 8000ed0:	683b      	ldr	r3, [r7, #0]
 8000ed2:	685b      	ldr	r3, [r3, #4]
 8000ed4:	2b02      	cmp	r3, #2
 8000ed6:	d003      	beq.n	8000ee0 <HAL_GPIO_Init+0x118>
 8000ed8:	683b      	ldr	r3, [r7, #0]
 8000eda:	685b      	ldr	r3, [r3, #4]
 8000edc:	2b12      	cmp	r3, #18
 8000ede:	d174      	bne.n	8000fca <HAL_GPIO_Init+0x202>
 8000ee0:	683b      	ldr	r3, [r7, #0]
 8000ee2:	691b      	ldr	r3, [r3, #16]
 8000ee4:	2b00      	cmp	r3, #0
 8000ee6:	d047      	beq.n	8000f78 <HAL_GPIO_Init+0x1b0>
 8000ee8:	683b      	ldr	r3, [r7, #0]
 8000eea:	691b      	ldr	r3, [r3, #16]
 8000eec:	2b01      	cmp	r3, #1
 8000eee:	d043      	beq.n	8000f78 <HAL_GPIO_Init+0x1b0>
 8000ef0:	683b      	ldr	r3, [r7, #0]
 8000ef2:	691b      	ldr	r3, [r3, #16]
 8000ef4:	2b01      	cmp	r3, #1
 8000ef6:	d03f      	beq.n	8000f78 <HAL_GPIO_Init+0x1b0>
 8000ef8:	683b      	ldr	r3, [r7, #0]
 8000efa:	691b      	ldr	r3, [r3, #16]
 8000efc:	2b02      	cmp	r3, #2
 8000efe:	d03b      	beq.n	8000f78 <HAL_GPIO_Init+0x1b0>
 8000f00:	683b      	ldr	r3, [r7, #0]
 8000f02:	691b      	ldr	r3, [r3, #16]
 8000f04:	2b02      	cmp	r3, #2
 8000f06:	d037      	beq.n	8000f78 <HAL_GPIO_Init+0x1b0>
 8000f08:	683b      	ldr	r3, [r7, #0]
 8000f0a:	691b      	ldr	r3, [r3, #16]
 8000f0c:	2b02      	cmp	r3, #2
 8000f0e:	d033      	beq.n	8000f78 <HAL_GPIO_Init+0x1b0>
 8000f10:	683b      	ldr	r3, [r7, #0]
 8000f12:	691b      	ldr	r3, [r3, #16]
 8000f14:	2b03      	cmp	r3, #3
 8000f16:	d02f      	beq.n	8000f78 <HAL_GPIO_Init+0x1b0>
 8000f18:	683b      	ldr	r3, [r7, #0]
 8000f1a:	691b      	ldr	r3, [r3, #16]
 8000f1c:	2b04      	cmp	r3, #4
 8000f1e:	d02b      	beq.n	8000f78 <HAL_GPIO_Init+0x1b0>
 8000f20:	683b      	ldr	r3, [r7, #0]
 8000f22:	691b      	ldr	r3, [r3, #16]
 8000f24:	2b04      	cmp	r3, #4
 8000f26:	d027      	beq.n	8000f78 <HAL_GPIO_Init+0x1b0>
 8000f28:	683b      	ldr	r3, [r7, #0]
 8000f2a:	691b      	ldr	r3, [r3, #16]
 8000f2c:	2b04      	cmp	r3, #4
 8000f2e:	d023      	beq.n	8000f78 <HAL_GPIO_Init+0x1b0>
 8000f30:	683b      	ldr	r3, [r7, #0]
 8000f32:	691b      	ldr	r3, [r3, #16]
 8000f34:	2b05      	cmp	r3, #5
 8000f36:	d01f      	beq.n	8000f78 <HAL_GPIO_Init+0x1b0>
 8000f38:	683b      	ldr	r3, [r7, #0]
 8000f3a:	691b      	ldr	r3, [r3, #16]
 8000f3c:	2b05      	cmp	r3, #5
 8000f3e:	d01b      	beq.n	8000f78 <HAL_GPIO_Init+0x1b0>
 8000f40:	683b      	ldr	r3, [r7, #0]
 8000f42:	691b      	ldr	r3, [r3, #16]
 8000f44:	2b09      	cmp	r3, #9
 8000f46:	d017      	beq.n	8000f78 <HAL_GPIO_Init+0x1b0>
 8000f48:	683b      	ldr	r3, [r7, #0]
 8000f4a:	691b      	ldr	r3, [r3, #16]
 8000f4c:	2b09      	cmp	r3, #9
 8000f4e:	d013      	beq.n	8000f78 <HAL_GPIO_Init+0x1b0>
 8000f50:	683b      	ldr	r3, [r7, #0]
 8000f52:	691b      	ldr	r3, [r3, #16]
 8000f54:	2b07      	cmp	r3, #7
 8000f56:	d00f      	beq.n	8000f78 <HAL_GPIO_Init+0x1b0>
 8000f58:	683b      	ldr	r3, [r7, #0]
 8000f5a:	691b      	ldr	r3, [r3, #16]
 8000f5c:	2b07      	cmp	r3, #7
 8000f5e:	d00b      	beq.n	8000f78 <HAL_GPIO_Init+0x1b0>
 8000f60:	683b      	ldr	r3, [r7, #0]
 8000f62:	691b      	ldr	r3, [r3, #16]
 8000f64:	2b09      	cmp	r3, #9
 8000f66:	d007      	beq.n	8000f78 <HAL_GPIO_Init+0x1b0>
 8000f68:	683b      	ldr	r3, [r7, #0]
 8000f6a:	691b      	ldr	r3, [r3, #16]
 8000f6c:	2b05      	cmp	r3, #5
 8000f6e:	d003      	beq.n	8000f78 <HAL_GPIO_Init+0x1b0>
 8000f70:	683b      	ldr	r3, [r7, #0]
 8000f72:	691b      	ldr	r3, [r3, #16]
 8000f74:	2b05      	cmp	r3, #5
 8000f76:	d101      	bne.n	8000f7c <HAL_GPIO_Init+0x1b4>
 8000f78:	2301      	movs	r3, #1
 8000f7a:	e000      	b.n	8000f7e <HAL_GPIO_Init+0x1b6>
 8000f7c:	2300      	movs	r3, #0
 8000f7e:	2b01      	cmp	r3, #1
 8000f80:	d123      	bne.n	8000fca <HAL_GPIO_Init+0x202>
 8000f82:	69fb      	ldr	r3, [r7, #28]
 8000f84:	08da      	lsrs	r2, r3, #3
 8000f86:	687b      	ldr	r3, [r7, #4]
 8000f88:	3208      	adds	r2, #8
 8000f8a:	f853 3022 	ldr.w	r3, [r3, r2, lsl #2]
 8000f8e:	60fb      	str	r3, [r7, #12]
 8000f90:	69fb      	ldr	r3, [r7, #28]
 8000f92:	f003 0307 	and.w	r3, r3, #7
 8000f96:	009b      	lsls	r3, r3, #2
 8000f98:	220f      	movs	r2, #15
 8000f9a:	fa02 f303 	lsl.w	r3, r2, r3
 8000f9e:	43db      	mvns	r3, r3
 8000fa0:	68fa      	ldr	r2, [r7, #12]
 8000fa2:	4013      	ands	r3, r2
 8000fa4:	60fb      	str	r3, [r7, #12]
 8000fa6:	683b      	ldr	r3, [r7, #0]
 8000fa8:	691a      	ldr	r2, [r3, #16]
 8000faa:	69fb      	ldr	r3, [r7, #28]
 8000fac:	f003 0307 	and.w	r3, r3, #7
 8000fb0:	009b      	lsls	r3, r3, #2
 8000fb2:	fa02 f303 	lsl.w	r3, r2, r3
 8000fb6:	68fa      	ldr	r2, [r7, #12]
 8000fb8:	4313      	orrs	r3, r2
 8000fba:	60fb      	str	r3, [r7, #12]
 8000fbc:	69fb      	ldr	r3, [r7, #28]
 8000fbe:	08da      	lsrs	r2, r3, #3
 8000fc0:	687b      	ldr	r3, [r7, #4]
 8000fc2:	3208      	adds	r2, #8
 8000fc4:	68f9      	ldr	r1, [r7, #12]
 8000fc6:	f843 1022 	str.w	r1, [r3, r2, lsl #2]
 8000fca:	687b      	ldr	r3, [r7, #4]
 8000fcc:	681b      	ldr	r3, [r3, #0]
 8000fce:	60fb      	str	r3, [r7, #12]
 8000fd0:	69fb      	ldr	r3, [r7, #28]
 8000fd2:	005b      	lsls	r3, r3, #1
 8000fd4:	2203      	movs	r2, #3
 8000fd6:	fa02 f303 	lsl.w	r3, r2, r3
 8000fda:	43db      	mvns	r3, r3
 8000fdc:	68fa      	ldr	r2, [r7, #12]
 8000fde:	4013      	ands	r3, r2
 8000fe0:	60fb      	str	r3, [r7, #12]
 8000fe2:	683b      	ldr	r3, [r7, #0]
 8000fe4:	685b      	ldr	r3, [r3, #4]
 8000fe6:	f003 0203 	and.w	r2, r3, #3
 8000fea:	69fb      	ldr	r3, [r7, #28]
 8000fec:	005b      	lsls	r3, r3, #1
 8000fee:	fa02 f303 	lsl.w	r3, r2, r3
 8000ff2:	68fa      	ldr	r2, [r7, #12]
 8000ff4:	4313      	orrs	r3, r2
 8000ff6:	60fb      	str	r3, [r7, #12]
 8000ff8:	687b      	ldr	r3, [r7, #4]
 8000ffa:	68fa      	ldr	r2, [r7, #12]
 8000ffc:	601a      	str	r2, [r3, #0]
 8000ffe:	683b      	ldr	r3, [r7, #0]
 8001000:	685b      	ldr	r3, [r3, #4]
 8001002:	2b01      	cmp	r3, #1
 8001004:	d00b      	beq.n	800101e <HAL_GPIO_Init+0x256>
 8001006:	683b      	ldr	r3, [r7, #0]
 8001008:	685b      	ldr	r3, [r3, #4]
 800100a:	2b02      	cmp	r3, #2
 800100c:	d007      	beq.n	800101e <HAL_GPIO_Init+0x256>
 800100e:	683b      	ldr	r3, [r7, #0]
 8001010:	685b      	ldr	r3, [r3, #4]
 8001012:	2b11      	cmp	r3, #17
 8001014:	d003      	beq.n	800101e <HAL_GPIO_Init+0x256>
 8001016:	683b      	ldr	r3, [r7, #0]
 8001018:	685b      	ldr	r3, [r3, #4]
 800101a:	2b12      	cmp	r3, #18
 800101c:	d150      	bne.n	80010c0 <HAL_GPIO_Init+0x2f8>
 800101e:	683b      	ldr	r3, [r7, #0]
 8001020:	68db      	ldr	r3, [r3, #12]
 8001022:	2b00      	cmp	r3, #0
 8001024:	d00b      	beq.n	800103e <HAL_GPIO_Init+0x276>
 8001026:	683b      	ldr	r3, [r7, #0]
 8001028:	68db      	ldr	r3, [r3, #12]
 800102a:	2b01      	cmp	r3, #1
 800102c:	d007      	beq.n	800103e <HAL_GPIO_Init+0x276>
 800102e:	683b      	ldr	r3, [r7, #0]
 8001030:	68db      	ldr	r3, [r3, #12]
 8001032:	2b02      	cmp	r3, #2
 8001034:	d003      	beq.n	800103e <HAL_GPIO_Init+0x276>
 8001036:	683b      	ldr	r3, [r7, #0]
 8001038:	68db      	ldr	r3, [r3, #12]
 800103a:	2b03      	cmp	r3, #3
 800103c:	d10c      	bne.n	8001058 <HAL_GPIO_Init+0x290>
 800103e:	2301      	movs	r3, #1
 8001040:	e00b      	b.n	800105a <HAL_GPIO_Init+0x292>
 8001042:	bf00      	nop
 8001044:	40020000 	.word	0x40020000
 8001048:	40020400 	.word	0x40020400
 800104c:	40020800 	.word	0x40020800
 8001050:	40020c00 	.word	0x40020c00
 8001054:	40021000 	.word	0x40021000
 8001058:	2300      	movs	r3, #0
 800105a:	2b01      	cmp	r3, #1
 800105c:	d130      	bne.n	80010c0 <HAL_GPIO_Init+0x2f8>
 800105e:	687b      	ldr	r3, [r7, #4]
 8001060:	689b      	ldr	r3, [r3, #8]
 8001062:	60fb      	str	r3, [r7, #12]
 8001064:	69fb      	ldr	r3, [r7, #28]
 8001066:	005b      	lsls	r3, r3, #1
 8001068:	2203      	movs	r2, #3
 800106a:	fa02 f303 	lsl.w	r3, r2, r3
 800106e:	43db      	mvns	r3, r3
 8001070:	68fa      	ldr	r2, [r7, #12]
 8001072:	4013      	ands	r3, r2
 8001074:	60fb      	str	r3, [r7, #12]
 8001076:	683b      	ldr	r3, [r7, #0]
 8001078:	68da      	ldr	r2, [r3, #12]
 800107a:	69fb      	ldr	r3, [r7, #28]
 800107c:	005b      	lsls	r3, r3, #1
 800107e:	fa02 f303 	lsl.w	r3, r2, r3
 8001082:	68fa      	ldr	r2, [r7, #12]
 8001084:	4313      	orrs	r3, r2
 8001086:	60fb      	str	r3, [r7, #12]
 8001088:	687b      	ldr	r3, [r7, #4]
 800108a:	68fa      	ldr	r2, [r7, #12]
 800108c:	609a      	str	r2, [r3, #8]
 800108e:	687b      	ldr	r3, [r7, #4]
 8001090:	685b      	ldr	r3, [r3, #4]
 8001092:	60fb      	str	r3, [r7, #12]
 8001094:	2201      	movs	r2, #1
 8001096:	69fb      	ldr	r3, [r7, #28]
 8001098:	fa02 f303 	lsl.w	r3, r2, r3
 800109c:	43db      	mvns	r3, r3
 800109e:	68fa      	ldr	r2, [r7, #12]
 80010a0:	4013      	ands	r3, r2
 80010a2:	60fb      	str	r3, [r7, #12]
 80010a4:	683b      	ldr	r3, [r7, #0]
 80010a6:	685b      	ldr	r3, [r3, #4]
 80010a8:	091b      	lsrs	r3, r3, #4
 80010aa:	f003 0201 	and.w	r2, r3, #1
 80010ae:	69fb      	ldr	r3, [r7, #28]
 80010b0:	fa02 f303 	lsl.w	r3, r2, r3
 80010b4:	68fa      	ldr	r2, [r7, #12]
 80010b6:	4313      	orrs	r3, r2
 80010b8:	60fb      	str	r3, [r7, #12]
 80010ba:	687b      	ldr	r3, [r7, #4]
 80010bc:	68fa      	ldr	r2, [r7, #12]
 80010be:	605a      	str	r2, [r3, #4]
 80010c0:	687b      	ldr	r3, [r7, #4]
 80010c2:	68db      	ldr	r3, [r3, #12]
 80010c4:	60fb      	str	r3, [r7, #12]
 80010c6:	69fb      	ldr	r3, [r7, #28]
 80010c8:	005b      	lsls	r3, r3, #1
 80010ca:	2203      	movs	r2, #3
 80010cc:	fa02 f303 	lsl.w	r3, r2, r3
 80010d0:	43db      	mvns	r3, r3
 80010d2:	68fa      	ldr	r2, [r7, #12]
 80010d4:	4013      	ands	r3, r2
 80010d6:	60fb      	str	r3, [r7, #12]
 80010d8:	683b      	ldr	r3, [r7, #0]
 80010da:	689a      	ldr	r2, [r3, #8]
 80010dc:	69fb      	ldr	r3, [r7, #28]
 80010de:	005b      	lsls	r3, r3, #1
 80010e0:	fa02 f303 	lsl.w	r3, r2, r3
 80010e4:	68fa      	ldr	r2, [r7, #12]
 80010e6:	4313      	orrs	r3, r2
 80010e8:	60fb      	str	r3, [r7, #12]
 80010ea:	687b      	ldr	r3, [r7, #4]
 80010ec:	68fa      	ldr	r2, [r7, #12]
 80010ee:	60da      	str	r2, [r3, #12]
 80010f0:	69fb      	ldr	r3, [r7, #28]
 80010f2:	3301      	adds	r3, #1
 80010f4:	61fb      	str	r3, [r7, #28]
 80010f6:	69fb      	ldr	r3, [r7, #28]
 80010f8:	2b0f      	cmp	r3, #15
 80010fa:	f67f aeda 	bls.w	8000eb2 <HAL_GPIO_Init+0xea>
 80010fe:	e004      	b.n	800110a <HAL_GPIO_Init+0x342>
 8001100:	2301      	movs	r3, #1
 8001102:	76fb      	strb	r3, [r7, #27]
 8001104:	e001      	b.n	800110a <HAL_GPIO_Init+0x342>
 8001106:	2301      	movs	r3, #1
 8001108:	76fb      	strb	r3, [r7, #27]
 800110a:	7efb      	ldrb	r3, [r7, #27]
 800110c:	4618      	mov	r0, r3
 800110e:	3724      	adds	r7, #36	; 0x24
 8001110:	46bd      	mov	sp, r7
 8001112:	f85d 7b04 	ldr.w	r7, [sp], #4
 8001116:	4770      	bx	lr

08001118 <HAL_GPIO_ReadPin>:
 8001118:	b480      	push	{r7}
 800111a:	b085      	sub	sp, #20
 800111c:	af00      	add	r7, sp, #0
 800111e:	6078      	str	r0, [r7, #4]
 8001120:	460b      	mov	r3, r1
 8001122:	807b      	strh	r3, [r7, #2]
 8001124:	2300      	movs	r3, #0
 8001126:	73fb      	strb	r3, [r7, #15]
 8001128:	687b      	ldr	r3, [r7, #4]
 800112a:	2b00      	cmp	r3, #0
 800112c:	d030      	beq.n	8001190 <HAL_GPIO_ReadPin+0x78>
 800112e:	887b      	ldrh	r3, [r7, #2]
 8001130:	2b00      	cmp	r3, #0
 8001132:	d006      	beq.n	8001142 <HAL_GPIO_ReadPin+0x2a>
 8001134:	887b      	ldrh	r3, [r7, #2]
 8001136:	0c1b      	lsrs	r3, r3, #16
 8001138:	041b      	lsls	r3, r3, #16
 800113a:	2b00      	cmp	r3, #0
 800113c:	d101      	bne.n	8001142 <HAL_GPIO_ReadPin+0x2a>
 800113e:	2301      	movs	r3, #1
 8001140:	e000      	b.n	8001144 <HAL_GPIO_ReadPin+0x2c>
 8001142:	2300      	movs	r3, #0
 8001144:	2b01      	cmp	r3, #1
 8001146:	d123      	bne.n	8001190 <HAL_GPIO_ReadPin+0x78>
 8001148:	687b      	ldr	r3, [r7, #4]
 800114a:	4a15      	ldr	r2, [pc, #84]	; (80011a0 <HAL_GPIO_ReadPin+0x88>)
 800114c:	4293      	cmp	r3, r2
 800114e:	d00f      	beq.n	8001170 <HAL_GPIO_ReadPin+0x58>
 8001150:	687b      	ldr	r3, [r7, #4]
 8001152:	4a14      	ldr	r2, [pc, #80]	; (80011a4 <HAL_GPIO_ReadPin+0x8c>)
 8001154:	4293      	cmp	r3, r2
 8001156:	d00b      	beq.n	8001170 <HAL_GPIO_ReadPin+0x58>
 8001158:	687b      	ldr	r3, [r7, #4]
 800115a:	4a13      	ldr	r2, [pc, #76]	; (80011a8 <HAL_GPIO_ReadPin+0x90>)
 800115c:	4293      	cmp	r3, r2
 800115e:	d007      	beq.n	8001170 <HAL_GPIO_ReadPin+0x58>
 8001160:	687b      	ldr	r3, [r7, #4]
 8001162:	4a12      	ldr	r2, [pc, #72]	; (80011ac <HAL_GPIO_ReadPin+0x94>)
 8001164:	4293      	cmp	r3, r2
 8001166:	d003      	beq.n	8001170 <HAL_GPIO_ReadPin+0x58>
 8001168:	687b      	ldr	r3, [r7, #4]
 800116a:	4a11      	ldr	r2, [pc, #68]	; (80011b0 <HAL_GPIO_ReadPin+0x98>)
 800116c:	4293      	cmp	r3, r2
 800116e:	d101      	bne.n	8001174 <HAL_GPIO_ReadPin+0x5c>
 8001170:	2301      	movs	r3, #1
 8001172:	e000      	b.n	8001176 <HAL_GPIO_ReadPin+0x5e>
 8001174:	2300      	movs	r3, #0
 8001176:	2b01      	cmp	r3, #1
 8001178:	d10a      	bne.n	8001190 <HAL_GPIO_ReadPin+0x78>
 800117a:	687b      	ldr	r3, [r7, #4]
 800117c:	691a      	ldr	r2, [r3, #16]
 800117e:	887b      	ldrh	r3, [r7, #2]
 8001180:	4013      	ands	r3, r2
 8001182:	2b00      	cmp	r3, #0
 8001184:	d002      	beq.n	800118c <HAL_GPIO_ReadPin+0x74>
 8001186:	2301      	movs	r3, #1
 8001188:	73fb      	strb	r3, [r7, #15]
 800118a:	e001      	b.n	8001190 <HAL_GPIO_ReadPin+0x78>
 800118c:	2300      	movs	r3, #0
 800118e:	73fb      	strb	r3, [r7, #15]
 8001190:	7bfb      	ldrb	r3, [r7, #15]
 8001192:	4618      	mov	r0, r3
 8001194:	3714      	adds	r7, #20
 8001196:	46bd      	mov	sp, r7
 8001198:	f85d 7b04 	ldr.w	r7, [sp], #4
 800119c:	4770      	bx	lr
 800119e:	bf00      	nop
 80011a0:	40020000 	.word	0x40020000
 80011a4:	40020400 	.word	0x40020400
 80011a8:	40020800 	.word	0x40020800
 80011ac:	40020c00 	.word	0x40020c00
 80011b0:	40021000 	.word	0x40021000

080011b4 <HAL_GPIO_WritePin>:
 80011b4:	b480      	push	{r7}
 80011b6:	b083      	sub	sp, #12
 80011b8:	af00      	add	r7, sp, #0
 80011ba:	6078      	str	r0, [r7, #4]
 80011bc:	460b      	mov	r3, r1
 80011be:	807b      	strh	r3, [r7, #2]
 80011c0:	4613      	mov	r3, r2
 80011c2:	707b      	strb	r3, [r7, #1]
 80011c4:	687b      	ldr	r3, [r7, #4]
 80011c6:	2b00      	cmp	r3, #0
 80011c8:	d03b      	beq.n	8001242 <HAL_GPIO_WritePin+0x8e>
 80011ca:	887b      	ldrh	r3, [r7, #2]
 80011cc:	2b00      	cmp	r3, #0
 80011ce:	d006      	beq.n	80011de <HAL_GPIO_WritePin+0x2a>
 80011d0:	887b      	ldrh	r3, [r7, #2]
 80011d2:	0c1b      	lsrs	r3, r3, #16
 80011d4:	041b      	lsls	r3, r3, #16
 80011d6:	2b00      	cmp	r3, #0
 80011d8:	d101      	bne.n	80011de <HAL_GPIO_WritePin+0x2a>
 80011da:	2301      	movs	r3, #1
 80011dc:	e000      	b.n	80011e0 <HAL_GPIO_WritePin+0x2c>
 80011de:	2300      	movs	r3, #0
 80011e0:	2b01      	cmp	r3, #1
 80011e2:	d12e      	bne.n	8001242 <HAL_GPIO_WritePin+0x8e>
 80011e4:	787b      	ldrb	r3, [r7, #1]
 80011e6:	2b00      	cmp	r3, #0
 80011e8:	d002      	beq.n	80011f0 <HAL_GPIO_WritePin+0x3c>
 80011ea:	787b      	ldrb	r3, [r7, #1]
 80011ec:	2b01      	cmp	r3, #1
 80011ee:	d101      	bne.n	80011f4 <HAL_GPIO_WritePin+0x40>
 80011f0:	2301      	movs	r3, #1
 80011f2:	e000      	b.n	80011f6 <HAL_GPIO_WritePin+0x42>
 80011f4:	2300      	movs	r3, #0
 80011f6:	2b01      	cmp	r3, #1
 80011f8:	d123      	bne.n	8001242 <HAL_GPIO_WritePin+0x8e>
 80011fa:	687b      	ldr	r3, [r7, #4]
 80011fc:	4a14      	ldr	r2, [pc, #80]	; (8001250 <HAL_GPIO_WritePin+0x9c>)
 80011fe:	4293      	cmp	r3, r2
 8001200:	d00f      	beq.n	8001222 <HAL_GPIO_WritePin+0x6e>
 8001202:	687b      	ldr	r3, [r7, #4]
 8001204:	4a13      	ldr	r2, [pc, #76]	; (8001254 <HAL_GPIO_WritePin+0xa0>)
 8001206:	4293      	cmp	r3, r2
 8001208:	d00b      	beq.n	8001222 <HAL_GPIO_WritePin+0x6e>
 800120a:	687b      	ldr	r3, [r7, #4]
 800120c:	4a12      	ldr	r2, [pc, #72]	; (8001258 <HAL_GPIO_WritePin+0xa4>)
 800120e:	4293      	cmp	r3, r2
 8001210:	d007      	beq.n	8001222 <HAL_GPIO_WritePin+0x6e>
 8001212:	687b      	ldr	r3, [r7, #4]
 8001214:	4a11      	ldr	r2, [pc, #68]	; (800125c <HAL_GPIO_WritePin+0xa8>)
 8001216:	4293      	cmp	r3, r2
 8001218:	d003      	beq.n	8001222 <HAL_GPIO_WritePin+0x6e>
 800121a:	687b      	ldr	r3, [r7, #4]
 800121c:	4a10      	ldr	r2, [pc, #64]	; (8001260 <HAL_GPIO_WritePin+0xac>)
 800121e:	4293      	cmp	r3, r2
 8001220:	d101      	bne.n	8001226 <HAL_GPIO_WritePin+0x72>
 8001222:	2301      	movs	r3, #1
 8001224:	e000      	b.n	8001228 <HAL_GPIO_WritePin+0x74>
 8001226:	2300      	movs	r3, #0
 8001228:	2b01      	cmp	r3, #1
 800122a:	d10a      	bne.n	8001242 <HAL_GPIO_WritePin+0x8e>
 800122c:	787b      	ldrb	r3, [r7, #1]
 800122e:	2b01      	cmp	r3, #1
 8001230:	d103      	bne.n	800123a <HAL_GPIO_WritePin+0x86>
 8001232:	887a      	ldrh	r2, [r7, #2]
 8001234:	687b      	ldr	r3, [r7, #4]
 8001236:	619a      	str	r2, [r3, #24]
 8001238:	e003      	b.n	8001242 <HAL_GPIO_WritePin+0x8e>
 800123a:	887b      	ldrh	r3, [r7, #2]
 800123c:	041a      	lsls	r2, r3, #16
 800123e:	687b      	ldr	r3, [r7, #4]
 8001240:	619a      	str	r2, [r3, #24]
 8001242:	bf00      	nop
 8001244:	370c      	adds	r7, #12
 8001246:	46bd      	mov	sp, r7
 8001248:	f85d 7b04 	ldr.w	r7, [sp], #4
 800124c:	4770      	bx	lr
 800124e:	bf00      	nop
 8001250:	40020000 	.word	0x40020000
 8001254:	40020400 	.word	0x40020400
 8001258:	40020800 	.word	0x40020800
 800125c:	40020c00 	.word	0x40020c00
 8001260:	40021000 	.word	0x40021000

08001264 <HAL_GPIO_TogglePin>:
 8001264:	b480      	push	{r7}
 8001266:	b083      	sub	sp, #12
 8001268:	af00      	add	r7, sp, #0
 800126a:	6078      	str	r0, [r7, #4]
 800126c:	460b      	mov	r3, r1
 800126e:	807b      	strh	r3, [r7, #2]
 8001270:	687b      	ldr	r3, [r7, #4]
 8001272:	2b00      	cmp	r3, #0
 8001274:	d02b      	beq.n	80012ce <HAL_GPIO_TogglePin+0x6a>
 8001276:	887b      	ldrh	r3, [r7, #2]
 8001278:	2b00      	cmp	r3, #0
 800127a:	d006      	beq.n	800128a <HAL_GPIO_TogglePin+0x26>
 800127c:	887b      	ldrh	r3, [r7, #2]
 800127e:	0c1b      	lsrs	r3, r3, #16
 8001280:	041b      	lsls	r3, r3, #16
 8001282:	2b00      	cmp	r3, #0
 8001284:	d101      	bne.n	800128a <HAL_GPIO_TogglePin+0x26>
 8001286:	2301      	movs	r3, #1
 8001288:	e000      	b.n	800128c <HAL_GPIO_TogglePin+0x28>
 800128a:	2300      	movs	r3, #0
 800128c:	2b01      	cmp	r3, #1
 800128e:	d11e      	bne.n	80012ce <HAL_GPIO_TogglePin+0x6a>
 8001290:	687b      	ldr	r3, [r7, #4]
 8001292:	4a12      	ldr	r2, [pc, #72]	; (80012dc <HAL_GPIO_TogglePin+0x78>)
 8001294:	4293      	cmp	r3, r2
 8001296:	d00f      	beq.n	80012b8 <HAL_GPIO_TogglePin+0x54>
 8001298:	687b      	ldr	r3, [r7, #4]
 800129a:	4a11      	ldr	r2, [pc, #68]	; (80012e0 <HAL_GPIO_TogglePin+0x7c>)
 800129c:	4293      	cmp	r3, r2
 800129e:	d00b      	beq.n	80012b8 <HAL_GPIO_TogglePin+0x54>
 80012a0:	687b      	ldr	r3, [r7, #4]
 80012a2:	4a10      	ldr	r2, [pc, #64]	; (80012e4 <HAL_GPIO_TogglePin+0x80>)
 80012a4:	4293      	cmp	r3, r2
 80012a6:	d007      	beq.n	80012b8 <HAL_GPIO_TogglePin+0x54>
 80012a8:	687b      	ldr	r3, [r7, #4]
 80012aa:	4a0f      	ldr	r2, [pc, #60]	; (80012e8 <HAL_GPIO_TogglePin+0x84>)
 80012ac:	4293      	cmp	r3, r2
 80012ae:	d003      	beq.n	80012b8 <HAL_GPIO_TogglePin+0x54>
 80012b0:	687b      	ldr	r3, [r7, #4]
 80012b2:	4a0e      	ldr	r2, [pc, #56]	; (80012ec <HAL_GPIO_TogglePin+0x88>)
 80012b4:	4293      	cmp	r3, r2
 80012b6:	d101      	bne.n	80012bc <HAL_GPIO_TogglePin+0x58>
 80012b8:	2301      	movs	r3, #1
 80012ba:	e000      	b.n	80012be <HAL_GPIO_TogglePin+0x5a>
 80012bc:	2300      	movs	r3, #0
 80012be:	2b01      	cmp	r3, #1
 80012c0:	d105      	bne.n	80012ce <HAL_GPIO_TogglePin+0x6a>
 80012c2:	687b      	ldr	r3, [r7, #4]
 80012c4:	695a      	ldr	r2, [r3, #20]
 80012c6:	887b      	ldrh	r3, [r7, #2]
 80012c8:	405a      	eors	r2, r3
 80012ca:	687b      	ldr	r3, [r7, #4]
 80012cc:	615a      	str	r2, [r3, #20]
 80012ce:	bf00      	nop
 80012d0:	370c      	adds	r7, #12
 80012d2:	46bd      	mov	sp, r7
 80012d4:	f85d 7b04 	ldr.w	r7, [sp], #4
 80012d8:	4770      	bx	lr
 80012da:	bf00      	nop
 80012dc:	40020000 	.word	0x40020000
 80012e0:	40020400 	.word	0x40020400
 80012e4:	40020800 	.word	0x40020800
 80012e8:	40020c00 	.word	0x40020c00
 80012ec:	40021000 	.word	0x40021000

080012f0 <HAL_I2C_Init>:
 80012f0:	b580      	push	{r7, lr}
 80012f2:	b084      	sub	sp, #16
 80012f4:	af00      	add	r7, sp, #0
 80012f6:	6078      	str	r0, [r7, #4]
 80012f8:	2300      	movs	r3, #0
 80012fa:	60fb      	str	r3, [r7, #12]
 80012fc:	2300      	movs	r3, #0
 80012fe:	60bb      	str	r3, [r7, #8]
 8001300:	687b      	ldr	r3, [r7, #4]
 8001302:	2224      	movs	r2, #36	; 0x24
 8001304:	f883 2034 	strb.w	r2, [r3, #52]	; 0x34
 8001308:	687b      	ldr	r3, [r7, #4]
 800130a:	681b      	ldr	r3, [r3, #0]
 800130c:	687a      	ldr	r2, [r7, #4]
 800130e:	6812      	ldr	r2, [r2, #0]
 8001310:	6812      	ldr	r2, [r2, #0]
 8001312:	f022 0201 	bic.w	r2, r2, #1
 8001316:	601a      	str	r2, [r3, #0]
 8001318:	f001 fa50 	bl	80027bc <HAL_RCC_GetPCLK1Freq>
 800131c:	60b8      	str	r0, [r7, #8]
 800131e:	68bb      	ldr	r3, [r7, #8]
 8001320:	4a5b      	ldr	r2, [pc, #364]	; (8001490 <HAL_I2C_Init+0x1a0>)
 8001322:	fba2 2303 	umull	r2, r3, r2, r3
 8001326:	0c9b      	lsrs	r3, r3, #18
 8001328:	60fb      	str	r3, [r7, #12]
 800132a:	687b      	ldr	r3, [r7, #4]
 800132c:	681b      	ldr	r3, [r3, #0]
 800132e:	68fa      	ldr	r2, [r7, #12]
 8001330:	605a      	str	r2, [r3, #4]
 8001332:	687b      	ldr	r3, [r7, #4]
 8001334:	681a      	ldr	r2, [r3, #0]
 8001336:	687b      	ldr	r3, [r7, #4]
 8001338:	685b      	ldr	r3, [r3, #4]
 800133a:	4956      	ldr	r1, [pc, #344]	; (8001494 <HAL_I2C_Init+0x1a4>)
 800133c:	428b      	cmp	r3, r1
 800133e:	d802      	bhi.n	8001346 <HAL_I2C_Init+0x56>
 8001340:	68fb      	ldr	r3, [r7, #12]
 8001342:	3301      	adds	r3, #1
 8001344:	e009      	b.n	800135a <HAL_I2C_Init+0x6a>
 8001346:	68fb      	ldr	r3, [r7, #12]
 8001348:	f44f 7196 	mov.w	r1, #300	; 0x12c
 800134c:	fb01 f303 	mul.w	r3, r1, r3
 8001350:	4951      	ldr	r1, [pc, #324]	; (8001498 <HAL_I2C_Init+0x1a8>)
 8001352:	fba1 1303 	umull	r1, r3, r1, r3
 8001356:	099b      	lsrs	r3, r3, #6
 8001358:	3301      	adds	r3, #1
 800135a:	6213      	str	r3, [r2, #32]
 800135c:	687b      	ldr	r3, [r7, #4]
 800135e:	6819      	ldr	r1, [r3, #0]
 8001360:	687b      	ldr	r3, [r7, #4]
 8001362:	685b      	ldr	r3, [r3, #4]
 8001364:	4a4b      	ldr	r2, [pc, #300]	; (8001494 <HAL_I2C_Init+0x1a4>)
 8001366:	4293      	cmp	r3, r2
 8001368:	d812      	bhi.n	8001390 <HAL_I2C_Init+0xa0>
 800136a:	687b      	ldr	r3, [r7, #4]
 800136c:	685b      	ldr	r3, [r3, #4]
 800136e:	005b      	lsls	r3, r3, #1
 8001370:	68ba      	ldr	r2, [r7, #8]
 8001372:	fbb2 f3f3 	udiv	r3, r2, r3
 8001376:	f3c3 030b 	ubfx	r3, r3, #0, #12
 800137a:	2b03      	cmp	r3, #3
 800137c:	d906      	bls.n	800138c <HAL_I2C_Init+0x9c>
 800137e:	687b      	ldr	r3, [r7, #4]
 8001380:	685b      	ldr	r3, [r3, #4]
 8001382:	005b      	lsls	r3, r3, #1
 8001384:	68ba      	ldr	r2, [r7, #8]
 8001386:	fbb2 f3f3 	udiv	r3, r2, r3
 800138a:	e045      	b.n	8001418 <HAL_I2C_Init+0x128>
 800138c:	2304      	movs	r3, #4
 800138e:	e043      	b.n	8001418 <HAL_I2C_Init+0x128>
 8001390:	687b      	ldr	r3, [r7, #4]
 8001392:	689b      	ldr	r3, [r3, #8]
 8001394:	2b00      	cmp	r3, #0
 8001396:	d10f      	bne.n	80013b8 <HAL_I2C_Init+0xc8>
 8001398:	687b      	ldr	r3, [r7, #4]
 800139a:	685a      	ldr	r2, [r3, #4]
 800139c:	4613      	mov	r3, r2
 800139e:	005b      	lsls	r3, r3, #1
 80013a0:	4413      	add	r3, r2
 80013a2:	68ba      	ldr	r2, [r7, #8]
 80013a4:	fbb2 f3f3 	udiv	r3, r2, r3
 80013a8:	f3c3 030b 	ubfx	r3, r3, #0, #12
 80013ac:	2b00      	cmp	r3, #0
 80013ae:	bf0c      	ite	eq
 80013b0:	2301      	moveq	r3, #1
 80013b2:	2300      	movne	r3, #0
 80013b4:	b2db      	uxtb	r3, r3
 80013b6:	e010      	b.n	80013da <HAL_I2C_Init+0xea>
 80013b8:	687b      	ldr	r3, [r7, #4]
 80013ba:	685a      	ldr	r2, [r3, #4]
 80013bc:	4613      	mov	r3, r2
 80013be:	009b      	lsls	r3, r3, #2
 80013c0:	4413      	add	r3, r2
 80013c2:	009a      	lsls	r2, r3, #2
 80013c4:	4413      	add	r3, r2
 80013c6:	68ba      	ldr	r2, [r7, #8]
 80013c8:	fbb2 f3f3 	udiv	r3, r2, r3
 80013cc:	f3c3 030b 	ubfx	r3, r3, #0, #12
 80013d0:	2b00      	cmp	r3, #0
 80013d2:	bf0c      	ite	eq
 80013d4:	2301      	moveq	r3, #1
 80013d6:	2300      	movne	r3, #0
 80013d8:	b2db      	uxtb	r3, r3
 80013da:	2b00      	cmp	r3, #0
 80013dc:	d001      	beq.n	80013e2 <HAL_I2C_Init+0xf2>
 80013de:	2301      	movs	r3, #1
 80013e0:	e01a      	b.n	8001418 <HAL_I2C_Init+0x128>
 80013e2:	687b      	ldr	r3, [r7, #4]
 80013e4:	689b      	ldr	r3, [r3, #8]
 80013e6:	2b00      	cmp	r3, #0
 80013e8:	d10a      	bne.n	8001400 <HAL_I2C_Init+0x110>
 80013ea:	687b      	ldr	r3, [r7, #4]
 80013ec:	685a      	ldr	r2, [r3, #4]
 80013ee:	4613      	mov	r3, r2
 80013f0:	005b      	lsls	r3, r3, #1
 80013f2:	4413      	add	r3, r2
 80013f4:	68ba      	ldr	r2, [r7, #8]
 80013f6:	fbb2 f3f3 	udiv	r3, r2, r3
 80013fa:	f443 4300 	orr.w	r3, r3, #32768	; 0x8000
 80013fe:	e00b      	b.n	8001418 <HAL_I2C_Init+0x128>
 8001400:	687b      	ldr	r3, [r7, #4]
 8001402:	685a      	ldr	r2, [r3, #4]
 8001404:	4613      	mov	r3, r2
 8001406:	009b      	lsls	r3, r3, #2
 8001408:	4413      	add	r3, r2
 800140a:	009a      	lsls	r2, r3, #2
 800140c:	4413      	add	r3, r2
 800140e:	68ba      	ldr	r2, [r7, #8]
 8001410:	fbb2 f3f3 	udiv	r3, r2, r3
 8001414:	f443 4340 	orr.w	r3, r3, #49152	; 0xc000
 8001418:	61cb      	str	r3, [r1, #28]
 800141a:	687b      	ldr	r3, [r7, #4]
 800141c:	681b      	ldr	r3, [r3, #0]
 800141e:	687a      	ldr	r2, [r7, #4]
 8001420:	69d1      	ldr	r1, [r2, #28]
 8001422:	687a      	ldr	r2, [r7, #4]
 8001424:	6a12      	ldr	r2, [r2, #32]
 8001426:	430a      	orrs	r2, r1
 8001428:	601a      	str	r2, [r3, #0]
 800142a:	687b      	ldr	r3, [r7, #4]
 800142c:	681b      	ldr	r3, [r3, #0]
 800142e:	687a      	ldr	r2, [r7, #4]
 8001430:	6911      	ldr	r1, [r2, #16]
 8001432:	687a      	ldr	r2, [r7, #4]
 8001434:	68d2      	ldr	r2, [r2, #12]
 8001436:	430a      	orrs	r2, r1
 8001438:	609a      	str	r2, [r3, #8]
 800143a:	687b      	ldr	r3, [r7, #4]
 800143c:	681b      	ldr	r3, [r3, #0]
 800143e:	687a      	ldr	r2, [r7, #4]
 8001440:	6951      	ldr	r1, [r2, #20]
 8001442:	687a      	ldr	r2, [r7, #4]
 8001444:	6992      	ldr	r2, [r2, #24]
 8001446:	430a      	orrs	r2, r1
 8001448:	60da      	str	r2, [r3, #12]
 800144a:	687b      	ldr	r3, [r7, #4]
 800144c:	681b      	ldr	r3, [r3, #0]
 800144e:	687a      	ldr	r2, [r7, #4]
 8001450:	6812      	ldr	r2, [r2, #0]
 8001452:	6a52      	ldr	r2, [r2, #36]	; 0x24
 8001454:	f022 021f 	bic.w	r2, r2, #31
 8001458:	625a      	str	r2, [r3, #36]	; 0x24
 800145a:	687b      	ldr	r3, [r7, #4]
 800145c:	681b      	ldr	r3, [r3, #0]
 800145e:	687a      	ldr	r2, [r7, #4]
 8001460:	6812      	ldr	r2, [r2, #0]
 8001462:	6812      	ldr	r2, [r2, #0]
 8001464:	f042 0201 	orr.w	r2, r2, #1
 8001468:	601a      	str	r2, [r3, #0]
 800146a:	687b      	ldr	r3, [r7, #4]
 800146c:	2200      	movs	r2, #0
 800146e:	639a      	str	r2, [r3, #56]	; 0x38
 8001470:	687b      	ldr	r3, [r7, #4]
 8001472:	2220      	movs	r2, #32
 8001474:	f883 2034 	strb.w	r2, [r3, #52]	; 0x34
 8001478:	687b      	ldr	r3, [r7, #4]
 800147a:	2200      	movs	r2, #0
 800147c:	631a      	str	r2, [r3, #48]	; 0x30
 800147e:	687b      	ldr	r3, [r7, #4]
 8001480:	2200      	movs	r2, #0
 8001482:	f883 2035 	strb.w	r2, [r3, #53]	; 0x35
 8001486:	bf00      	nop
 8001488:	3710      	adds	r7, #16
 800148a:	46bd      	mov	sp, r7
 800148c:	bd80      	pop	{r7, pc}
 800148e:	bf00      	nop
 8001490:	431bde83 	.word	0x431bde83
 8001494:	000186a0 	.word	0x000186a0
 8001498:	10624dd3 	.word	0x10624dd3

0800149c <HAL_I2C_Mem_Write>:
 800149c:	b580      	push	{r7, lr}
 800149e:	b088      	sub	sp, #32
 80014a0:	af02      	add	r7, sp, #8
 80014a2:	60f8      	str	r0, [r7, #12]
 80014a4:	4608      	mov	r0, r1
 80014a6:	4611      	mov	r1, r2
 80014a8:	461a      	mov	r2, r3
 80014aa:	4603      	mov	r3, r0
 80014ac:	817b      	strh	r3, [r7, #10]
 80014ae:	460b      	mov	r3, r1
 80014b0:	813b      	strh	r3, [r7, #8]
 80014b2:	4613      	mov	r3, r2
 80014b4:	80fb      	strh	r3, [r7, #6]
 80014b6:	2300      	movs	r3, #0
 80014b8:	613b      	str	r3, [r7, #16]
 80014ba:	2300      	movs	r3, #0
 80014bc:	75fb      	strb	r3, [r7, #23]
 80014be:	f001 fa5b 	bl	8002978 <HAL_GetTick>
 80014c2:	6138      	str	r0, [r7, #16]
 80014c4:	68fb      	ldr	r3, [r7, #12]
 80014c6:	2b00      	cmp	r3, #0
 80014c8:	f000 80e8 	beq.w	800169c <HAL_I2C_Mem_Write+0x200>
 80014cc:	6a3b      	ldr	r3, [r7, #32]
 80014ce:	2b00      	cmp	r3, #0
 80014d0:	f000 80e4 	beq.w	800169c <HAL_I2C_Mem_Write+0x200>
 80014d4:	88fb      	ldrh	r3, [r7, #6]
 80014d6:	2b01      	cmp	r3, #1
 80014d8:	d002      	beq.n	80014e0 <HAL_I2C_Mem_Write+0x44>
 80014da:	88fb      	ldrh	r3, [r7, #6]
 80014dc:	2b10      	cmp	r3, #16
 80014de:	d101      	bne.n	80014e4 <HAL_I2C_Mem_Write+0x48>
 80014e0:	2301      	movs	r3, #1
 80014e2:	e000      	b.n	80014e6 <HAL_I2C_Mem_Write+0x4a>
 80014e4:	2300      	movs	r3, #0
 80014e6:	2b01      	cmp	r3, #1
 80014e8:	f040 80d8 	bne.w	800169c <HAL_I2C_Mem_Write+0x200>
 80014ec:	68fb      	ldr	r3, [r7, #12]
 80014ee:	f893 3034 	ldrb.w	r3, [r3, #52]	; 0x34
 80014f2:	b2db      	uxtb	r3, r3
 80014f4:	2b20      	cmp	r3, #32
 80014f6:	f040 80ce 	bne.w	8001696 <HAL_I2C_Mem_Write+0x1fa>
 80014fa:	693b      	ldr	r3, [r7, #16]
 80014fc:	9300      	str	r3, [sp, #0]
 80014fe:	2319      	movs	r3, #25
 8001500:	2201      	movs	r2, #1
 8001502:	496a      	ldr	r1, [pc, #424]	; (80016ac <HAL_I2C_Mem_Write+0x210>)
 8001504:	68f8      	ldr	r0, [r7, #12]
 8001506:	f000 fcc7 	bl	8001e98 <i2c_wait_on_flag_until_timeout>
 800150a:	4603      	mov	r3, r0
 800150c:	2b00      	cmp	r3, #0
 800150e:	d002      	beq.n	8001516 <HAL_I2C_Mem_Write+0x7a>
 8001510:	2302      	movs	r3, #2
 8001512:	75fb      	strb	r3, [r7, #23]
 8001514:	e08b      	b.n	800162e <HAL_I2C_Mem_Write+0x192>
 8001516:	68fb      	ldr	r3, [r7, #12]
 8001518:	681b      	ldr	r3, [r3, #0]
 800151a:	68fa      	ldr	r2, [r7, #12]
 800151c:	6812      	ldr	r2, [r2, #0]
 800151e:	6812      	ldr	r2, [r2, #0]
 8001520:	f422 6200 	bic.w	r2, r2, #2048	; 0x800
 8001524:	601a      	str	r2, [r3, #0]
 8001526:	68fb      	ldr	r3, [r7, #12]
 8001528:	2221      	movs	r2, #33	; 0x21
 800152a:	f883 2034 	strb.w	r2, [r3, #52]	; 0x34
 800152e:	68fb      	ldr	r3, [r7, #12]
 8001530:	2240      	movs	r2, #64	; 0x40
 8001532:	f883 2035 	strb.w	r2, [r3, #53]	; 0x35
 8001536:	68fb      	ldr	r3, [r7, #12]
 8001538:	2200      	movs	r2, #0
 800153a:	639a      	str	r2, [r3, #56]	; 0x38
 800153c:	68fb      	ldr	r3, [r7, #12]
 800153e:	6a3a      	ldr	r2, [r7, #32]
 8001540:	625a      	str	r2, [r3, #36]	; 0x24
 8001542:	68fb      	ldr	r3, [r7, #12]
 8001544:	8cba      	ldrh	r2, [r7, #36]	; 0x24
 8001546:	855a      	strh	r2, [r3, #42]	; 0x2a
 8001548:	68fb      	ldr	r3, [r7, #12]
 800154a:	4a59      	ldr	r2, [pc, #356]	; (80016b0 <HAL_I2C_Mem_Write+0x214>)
 800154c:	62da      	str	r2, [r3, #44]	; 0x2c
 800154e:	68fb      	ldr	r3, [r7, #12]
 8001550:	8d5b      	ldrh	r3, [r3, #42]	; 0x2a
 8001552:	b29a      	uxth	r2, r3
 8001554:	68fb      	ldr	r3, [r7, #12]
 8001556:	851a      	strh	r2, [r3, #40]	; 0x28
 8001558:	88f8      	ldrh	r0, [r7, #6]
 800155a:	893a      	ldrh	r2, [r7, #8]
 800155c:	8979      	ldrh	r1, [r7, #10]
 800155e:	693b      	ldr	r3, [r7, #16]
 8001560:	9301      	str	r3, [sp, #4]
 8001562:	6abb      	ldr	r3, [r7, #40]	; 0x28
 8001564:	9300      	str	r3, [sp, #0]
 8001566:	4603      	mov	r3, r0
 8001568:	68f8      	ldr	r0, [r7, #12]
 800156a:	f000 faf7 	bl	8001b5c <i2c_request_memory_write>
 800156e:	4603      	mov	r3, r0
 8001570:	2b00      	cmp	r3, #0
 8001572:	d05c      	beq.n	800162e <HAL_I2C_Mem_Write+0x192>
 8001574:	68fb      	ldr	r3, [r7, #12]
 8001576:	6b9b      	ldr	r3, [r3, #56]	; 0x38
 8001578:	2b04      	cmp	r3, #4
 800157a:	d102      	bne.n	8001582 <HAL_I2C_Mem_Write+0xe6>
 800157c:	2301      	movs	r3, #1
 800157e:	75fb      	strb	r3, [r7, #23]
 8001580:	e055      	b.n	800162e <HAL_I2C_Mem_Write+0x192>
 8001582:	2303      	movs	r3, #3
 8001584:	75fb      	strb	r3, [r7, #23]
 8001586:	e052      	b.n	800162e <HAL_I2C_Mem_Write+0x192>
 8001588:	693a      	ldr	r2, [r7, #16]
 800158a:	6ab9      	ldr	r1, [r7, #40]	; 0x28
 800158c:	68f8      	ldr	r0, [r7, #12]
 800158e:	f000 fe55 	bl	800223c <i2c_wait_on_txe_flag_until_timeout>
 8001592:	4603      	mov	r3, r0
 8001594:	2b00      	cmp	r3, #0
 8001596:	d010      	beq.n	80015ba <HAL_I2C_Mem_Write+0x11e>
 8001598:	68fb      	ldr	r3, [r7, #12]
 800159a:	6b9b      	ldr	r3, [r3, #56]	; 0x38
 800159c:	2b04      	cmp	r3, #4
 800159e:	d10a      	bne.n	80015b6 <HAL_I2C_Mem_Write+0x11a>
 80015a0:	68fb      	ldr	r3, [r7, #12]
 80015a2:	681b      	ldr	r3, [r3, #0]
 80015a4:	68fa      	ldr	r2, [r7, #12]
 80015a6:	6812      	ldr	r2, [r2, #0]
 80015a8:	6812      	ldr	r2, [r2, #0]
 80015aa:	f442 7200 	orr.w	r2, r2, #512	; 0x200
 80015ae:	601a      	str	r2, [r3, #0]
 80015b0:	2301      	movs	r3, #1
 80015b2:	75fb      	strb	r3, [r7, #23]
 80015b4:	e001      	b.n	80015ba <HAL_I2C_Mem_Write+0x11e>
 80015b6:	2303      	movs	r3, #3
 80015b8:	75fb      	strb	r3, [r7, #23]
 80015ba:	7dfb      	ldrb	r3, [r7, #23]
 80015bc:	2b00      	cmp	r3, #0
 80015be:	d136      	bne.n	800162e <HAL_I2C_Mem_Write+0x192>
 80015c0:	68fb      	ldr	r3, [r7, #12]
 80015c2:	681a      	ldr	r2, [r3, #0]
 80015c4:	68fb      	ldr	r3, [r7, #12]
 80015c6:	6a5b      	ldr	r3, [r3, #36]	; 0x24
 80015c8:	1c58      	adds	r0, r3, #1
 80015ca:	68f9      	ldr	r1, [r7, #12]
 80015cc:	6248      	str	r0, [r1, #36]	; 0x24
 80015ce:	781b      	ldrb	r3, [r3, #0]
 80015d0:	6113      	str	r3, [r2, #16]
 80015d2:	68fb      	ldr	r3, [r7, #12]
 80015d4:	8d1b      	ldrh	r3, [r3, #40]	; 0x28
 80015d6:	3b01      	subs	r3, #1
 80015d8:	b29a      	uxth	r2, r3
 80015da:	68fb      	ldr	r3, [r7, #12]
 80015dc:	851a      	strh	r2, [r3, #40]	; 0x28
 80015de:	68fb      	ldr	r3, [r7, #12]
 80015e0:	8d5b      	ldrh	r3, [r3, #42]	; 0x2a
 80015e2:	b29b      	uxth	r3, r3
 80015e4:	3b01      	subs	r3, #1
 80015e6:	b29a      	uxth	r2, r3
 80015e8:	68fb      	ldr	r3, [r7, #12]
 80015ea:	855a      	strh	r2, [r3, #42]	; 0x2a
 80015ec:	68fb      	ldr	r3, [r7, #12]
 80015ee:	681b      	ldr	r3, [r3, #0]
 80015f0:	695b      	ldr	r3, [r3, #20]
 80015f2:	f003 0304 	and.w	r3, r3, #4
 80015f6:	2b04      	cmp	r3, #4
 80015f8:	d119      	bne.n	800162e <HAL_I2C_Mem_Write+0x192>
 80015fa:	68fb      	ldr	r3, [r7, #12]
 80015fc:	8d1b      	ldrh	r3, [r3, #40]	; 0x28
 80015fe:	2b00      	cmp	r3, #0
 8001600:	d015      	beq.n	800162e <HAL_I2C_Mem_Write+0x192>
 8001602:	68fb      	ldr	r3, [r7, #12]
 8001604:	681a      	ldr	r2, [r3, #0]
 8001606:	68fb      	ldr	r3, [r7, #12]
 8001608:	6a5b      	ldr	r3, [r3, #36]	; 0x24
 800160a:	1c58      	adds	r0, r3, #1
 800160c:	68f9      	ldr	r1, [r7, #12]
 800160e:	6248      	str	r0, [r1, #36]	; 0x24
 8001610:	781b      	ldrb	r3, [r3, #0]
 8001612:	6113      	str	r3, [r2, #16]
 8001614:	68fb      	ldr	r3, [r7, #12]
 8001616:	8d1b      	ldrh	r3, [r3, #40]	; 0x28
 8001618:	3b01      	subs	r3, #1
 800161a:	b29a      	uxth	r2, r3
 800161c:	68fb      	ldr	r3, [r7, #12]
 800161e:	851a      	strh	r2, [r3, #40]	; 0x28
 8001620:	68fb      	ldr	r3, [r7, #12]
 8001622:	8d5b      	ldrh	r3, [r3, #42]	; 0x2a
 8001624:	b29b      	uxth	r3, r3
 8001626:	3b01      	subs	r3, #1
 8001628:	b29a      	uxth	r2, r3
 800162a:	68fb      	ldr	r3, [r7, #12]
 800162c:	855a      	strh	r2, [r3, #42]	; 0x2a
 800162e:	68fb      	ldr	r3, [r7, #12]
 8001630:	8d1b      	ldrh	r3, [r3, #40]	; 0x28
 8001632:	2b00      	cmp	r3, #0
 8001634:	d002      	beq.n	800163c <HAL_I2C_Mem_Write+0x1a0>
 8001636:	7dfb      	ldrb	r3, [r7, #23]
 8001638:	2b00      	cmp	r3, #0
 800163a:	d0a5      	beq.n	8001588 <HAL_I2C_Mem_Write+0xec>
 800163c:	7dfb      	ldrb	r3, [r7, #23]
 800163e:	2b00      	cmp	r3, #0
 8001640:	d120      	bne.n	8001684 <HAL_I2C_Mem_Write+0x1e8>
 8001642:	693a      	ldr	r2, [r7, #16]
 8001644:	6ab9      	ldr	r1, [r7, #40]	; 0x28
 8001646:	68f8      	ldr	r0, [r7, #12]
 8001648:	f000 fe35 	bl	80022b6 <i2c_wait_on_btf_flag_until_timeout>
 800164c:	4603      	mov	r3, r0
 800164e:	2b00      	cmp	r3, #0
 8001650:	d010      	beq.n	8001674 <HAL_I2C_Mem_Write+0x1d8>
 8001652:	68fb      	ldr	r3, [r7, #12]
 8001654:	6b9b      	ldr	r3, [r3, #56]	; 0x38
 8001656:	2b04      	cmp	r3, #4
 8001658:	d10a      	bne.n	8001670 <HAL_I2C_Mem_Write+0x1d4>
 800165a:	68fb      	ldr	r3, [r7, #12]
 800165c:	681b      	ldr	r3, [r3, #0]
 800165e:	68fa      	ldr	r2, [r7, #12]
 8001660:	6812      	ldr	r2, [r2, #0]
 8001662:	6812      	ldr	r2, [r2, #0]
 8001664:	f442 7200 	orr.w	r2, r2, #512	; 0x200
 8001668:	601a      	str	r2, [r3, #0]
 800166a:	2301      	movs	r3, #1
 800166c:	75fb      	strb	r3, [r7, #23]
 800166e:	e001      	b.n	8001674 <HAL_I2C_Mem_Write+0x1d8>
 8001670:	2303      	movs	r3, #3
 8001672:	75fb      	strb	r3, [r7, #23]
 8001674:	68fb      	ldr	r3, [r7, #12]
 8001676:	681b      	ldr	r3, [r3, #0]
 8001678:	68fa      	ldr	r2, [r7, #12]
 800167a:	6812      	ldr	r2, [r2, #0]
 800167c:	6812      	ldr	r2, [r2, #0]
 800167e:	f442 7200 	orr.w	r2, r2, #512	; 0x200
 8001682:	601a      	str	r2, [r3, #0]
 8001684:	68fb      	ldr	r3, [r7, #12]
 8001686:	2220      	movs	r2, #32
 8001688:	f883 2034 	strb.w	r2, [r3, #52]	; 0x34
 800168c:	68fb      	ldr	r3, [r7, #12]
 800168e:	2200      	movs	r2, #0
 8001690:	f883 2035 	strb.w	r2, [r3, #53]	; 0x35
 8001694:	e004      	b.n	80016a0 <HAL_I2C_Mem_Write+0x204>
 8001696:	2302      	movs	r3, #2
 8001698:	75fb      	strb	r3, [r7, #23]
 800169a:	e001      	b.n	80016a0 <HAL_I2C_Mem_Write+0x204>
 800169c:	2301      	movs	r3, #1
 800169e:	75fb      	strb	r3, [r7, #23]
 80016a0:	7dfb      	ldrb	r3, [r7, #23]
 80016a2:	4618      	mov	r0, r3
 80016a4:	3718      	adds	r7, #24
 80016a6:	46bd      	mov	sp, r7
 80016a8:	bd80      	pop	{r7, pc}
 80016aa:	bf00      	nop
 80016ac:	00100002 	.word	0x00100002
 80016b0:	ffff0000 	.word	0xffff0000

080016b4 <HAL_I2C_Mem_Read>:
 80016b4:	b580      	push	{r7, lr}
 80016b6:	b08c      	sub	sp, #48	; 0x30
 80016b8:	af02      	add	r7, sp, #8
 80016ba:	60f8      	str	r0, [r7, #12]
 80016bc:	4608      	mov	r0, r1
 80016be:	4611      	mov	r1, r2
 80016c0:	461a      	mov	r2, r3
 80016c2:	4603      	mov	r3, r0
 80016c4:	817b      	strh	r3, [r7, #10]
 80016c6:	460b      	mov	r3, r1
 80016c8:	813b      	strh	r3, [r7, #8]
 80016ca:	4613      	mov	r3, r2
 80016cc:	80fb      	strh	r3, [r7, #6]
 80016ce:	2300      	movs	r3, #0
 80016d0:	623b      	str	r3, [r7, #32]
 80016d2:	2300      	movs	r3, #0
 80016d4:	f887 3027 	strb.w	r3, [r7, #39]	; 0x27
 80016d8:	f001 f94e 	bl	8002978 <HAL_GetTick>
 80016dc:	6238      	str	r0, [r7, #32]
 80016de:	68fb      	ldr	r3, [r7, #12]
 80016e0:	2b00      	cmp	r3, #0
 80016e2:	f000 8230 	beq.w	8001b46 <HAL_I2C_Mem_Read+0x492>
 80016e6:	6b3b      	ldr	r3, [r7, #48]	; 0x30
 80016e8:	2b00      	cmp	r3, #0
 80016ea:	f000 822c 	beq.w	8001b46 <HAL_I2C_Mem_Read+0x492>
 80016ee:	88fb      	ldrh	r3, [r7, #6]
 80016f0:	2b01      	cmp	r3, #1
 80016f2:	d002      	beq.n	80016fa <HAL_I2C_Mem_Read+0x46>
 80016f4:	88fb      	ldrh	r3, [r7, #6]
 80016f6:	2b10      	cmp	r3, #16
 80016f8:	d101      	bne.n	80016fe <HAL_I2C_Mem_Read+0x4a>
 80016fa:	2301      	movs	r3, #1
 80016fc:	e000      	b.n	8001700 <HAL_I2C_Mem_Read+0x4c>
 80016fe:	2300      	movs	r3, #0
 8001700:	2b01      	cmp	r3, #1
 8001702:	f040 8220 	bne.w	8001b46 <HAL_I2C_Mem_Read+0x492>
 8001706:	68fb      	ldr	r3, [r7, #12]
 8001708:	f893 3034 	ldrb.w	r3, [r3, #52]	; 0x34
 800170c:	b2db      	uxtb	r3, r3
 800170e:	2b20      	cmp	r3, #32
 8001710:	f040 8215 	bne.w	8001b3e <HAL_I2C_Mem_Read+0x48a>
 8001714:	6a3b      	ldr	r3, [r7, #32]
 8001716:	9300      	str	r3, [sp, #0]
 8001718:	2319      	movs	r3, #25
 800171a:	2201      	movs	r2, #1
 800171c:	4972      	ldr	r1, [pc, #456]	; (80018e8 <HAL_I2C_Mem_Read+0x234>)
 800171e:	68f8      	ldr	r0, [r7, #12]
 8001720:	f000 fbba 	bl	8001e98 <i2c_wait_on_flag_until_timeout>
 8001724:	4603      	mov	r3, r0
 8001726:	2b00      	cmp	r3, #0
 8001728:	d002      	beq.n	8001730 <HAL_I2C_Mem_Read+0x7c>
 800172a:	2302      	movs	r3, #2
 800172c:	f887 3027 	strb.w	r3, [r7, #39]	; 0x27
 8001730:	f897 3027 	ldrb.w	r3, [r7, #39]	; 0x27
 8001734:	2b00      	cmp	r3, #0
 8001736:	d139      	bne.n	80017ac <HAL_I2C_Mem_Read+0xf8>
 8001738:	68fb      	ldr	r3, [r7, #12]
 800173a:	681b      	ldr	r3, [r3, #0]
 800173c:	68fa      	ldr	r2, [r7, #12]
 800173e:	6812      	ldr	r2, [r2, #0]
 8001740:	6812      	ldr	r2, [r2, #0]
 8001742:	f422 6200 	bic.w	r2, r2, #2048	; 0x800
 8001746:	601a      	str	r2, [r3, #0]
 8001748:	68fb      	ldr	r3, [r7, #12]
 800174a:	2222      	movs	r2, #34	; 0x22
 800174c:	f883 2034 	strb.w	r2, [r3, #52]	; 0x34
 8001750:	68fb      	ldr	r3, [r7, #12]
 8001752:	2240      	movs	r2, #64	; 0x40
 8001754:	f883 2035 	strb.w	r2, [r3, #53]	; 0x35
 8001758:	68fb      	ldr	r3, [r7, #12]
 800175a:	2200      	movs	r2, #0
 800175c:	639a      	str	r2, [r3, #56]	; 0x38
 800175e:	68fb      	ldr	r3, [r7, #12]
 8001760:	6b3a      	ldr	r2, [r7, #48]	; 0x30
 8001762:	625a      	str	r2, [r3, #36]	; 0x24
 8001764:	68fb      	ldr	r3, [r7, #12]
 8001766:	8eba      	ldrh	r2, [r7, #52]	; 0x34
 8001768:	855a      	strh	r2, [r3, #42]	; 0x2a
 800176a:	68fb      	ldr	r3, [r7, #12]
 800176c:	4a5f      	ldr	r2, [pc, #380]	; (80018ec <HAL_I2C_Mem_Read+0x238>)
 800176e:	62da      	str	r2, [r3, #44]	; 0x2c
 8001770:	68fb      	ldr	r3, [r7, #12]
 8001772:	8d5b      	ldrh	r3, [r3, #42]	; 0x2a
 8001774:	b29a      	uxth	r2, r3
 8001776:	68fb      	ldr	r3, [r7, #12]
 8001778:	851a      	strh	r2, [r3, #40]	; 0x28
 800177a:	88f8      	ldrh	r0, [r7, #6]
 800177c:	893a      	ldrh	r2, [r7, #8]
 800177e:	8979      	ldrh	r1, [r7, #10]
 8001780:	6a3b      	ldr	r3, [r7, #32]
 8001782:	9301      	str	r3, [sp, #4]
 8001784:	6bbb      	ldr	r3, [r7, #56]	; 0x38
 8001786:	9300      	str	r3, [sp, #0]
 8001788:	4603      	mov	r3, r0
 800178a:	68f8      	ldr	r0, [r7, #12]
 800178c:	f000 fa88 	bl	8001ca0 <i2c_request_memory_read>
 8001790:	4603      	mov	r3, r0
 8001792:	2b00      	cmp	r3, #0
 8001794:	d00a      	beq.n	80017ac <HAL_I2C_Mem_Read+0xf8>
 8001796:	68fb      	ldr	r3, [r7, #12]
 8001798:	6b9b      	ldr	r3, [r3, #56]	; 0x38
 800179a:	2b04      	cmp	r3, #4
 800179c:	d103      	bne.n	80017a6 <HAL_I2C_Mem_Read+0xf2>
 800179e:	2301      	movs	r3, #1
 80017a0:	f887 3027 	strb.w	r3, [r7, #39]	; 0x27
 80017a4:	e002      	b.n	80017ac <HAL_I2C_Mem_Read+0xf8>
 80017a6:	2303      	movs	r3, #3
 80017a8:	f887 3027 	strb.w	r3, [r7, #39]	; 0x27
 80017ac:	f897 3027 	ldrb.w	r3, [r7, #39]	; 0x27
 80017b0:	2b00      	cmp	r3, #0
 80017b2:	f040 81b2 	bne.w	8001b1a <HAL_I2C_Mem_Read+0x466>
 80017b6:	68fb      	ldr	r3, [r7, #12]
 80017b8:	8d1b      	ldrh	r3, [r3, #40]	; 0x28
 80017ba:	2b00      	cmp	r3, #0
 80017bc:	d112      	bne.n	80017e4 <HAL_I2C_Mem_Read+0x130>
 80017be:	2300      	movs	r3, #0
 80017c0:	61fb      	str	r3, [r7, #28]
 80017c2:	68fb      	ldr	r3, [r7, #12]
 80017c4:	681b      	ldr	r3, [r3, #0]
 80017c6:	695b      	ldr	r3, [r3, #20]
 80017c8:	61fb      	str	r3, [r7, #28]
 80017ca:	68fb      	ldr	r3, [r7, #12]
 80017cc:	681b      	ldr	r3, [r3, #0]
 80017ce:	699b      	ldr	r3, [r3, #24]
 80017d0:	61fb      	str	r3, [r7, #28]
 80017d2:	68fb      	ldr	r3, [r7, #12]
 80017d4:	681b      	ldr	r3, [r3, #0]
 80017d6:	68fa      	ldr	r2, [r7, #12]
 80017d8:	6812      	ldr	r2, [r2, #0]
 80017da:	6812      	ldr	r2, [r2, #0]
 80017dc:	f442 7200 	orr.w	r2, r2, #512	; 0x200
 80017e0:	601a      	str	r2, [r3, #0]
 80017e2:	e19a      	b.n	8001b1a <HAL_I2C_Mem_Read+0x466>
 80017e4:	68fb      	ldr	r3, [r7, #12]
 80017e6:	8d1b      	ldrh	r3, [r3, #40]	; 0x28
 80017e8:	2b01      	cmp	r3, #1
 80017ea:	d11a      	bne.n	8001822 <HAL_I2C_Mem_Read+0x16e>
 80017ec:	68fb      	ldr	r3, [r7, #12]
 80017ee:	681b      	ldr	r3, [r3, #0]
 80017f0:	68fa      	ldr	r2, [r7, #12]
 80017f2:	6812      	ldr	r2, [r2, #0]
 80017f4:	6812      	ldr	r2, [r2, #0]
 80017f6:	f422 6280 	bic.w	r2, r2, #1024	; 0x400
 80017fa:	601a      	str	r2, [r3, #0]
 80017fc:	2300      	movs	r3, #0
 80017fe:	61bb      	str	r3, [r7, #24]
 8001800:	68fb      	ldr	r3, [r7, #12]
 8001802:	681b      	ldr	r3, [r3, #0]
 8001804:	695b      	ldr	r3, [r3, #20]
 8001806:	61bb      	str	r3, [r7, #24]
 8001808:	68fb      	ldr	r3, [r7, #12]
 800180a:	681b      	ldr	r3, [r3, #0]
 800180c:	699b      	ldr	r3, [r3, #24]
 800180e:	61bb      	str	r3, [r7, #24]
 8001810:	68fb      	ldr	r3, [r7, #12]
 8001812:	681b      	ldr	r3, [r3, #0]
 8001814:	68fa      	ldr	r2, [r7, #12]
 8001816:	6812      	ldr	r2, [r2, #0]
 8001818:	6812      	ldr	r2, [r2, #0]
 800181a:	f442 7200 	orr.w	r2, r2, #512	; 0x200
 800181e:	601a      	str	r2, [r3, #0]
 8001820:	e17b      	b.n	8001b1a <HAL_I2C_Mem_Read+0x466>
 8001822:	68fb      	ldr	r3, [r7, #12]
 8001824:	8d1b      	ldrh	r3, [r3, #40]	; 0x28
 8001826:	2b02      	cmp	r3, #2
 8001828:	d11a      	bne.n	8001860 <HAL_I2C_Mem_Read+0x1ac>
 800182a:	68fb      	ldr	r3, [r7, #12]
 800182c:	681b      	ldr	r3, [r3, #0]
 800182e:	68fa      	ldr	r2, [r7, #12]
 8001830:	6812      	ldr	r2, [r2, #0]
 8001832:	6812      	ldr	r2, [r2, #0]
 8001834:	f422 6280 	bic.w	r2, r2, #1024	; 0x400
 8001838:	601a      	str	r2, [r3, #0]
 800183a:	68fb      	ldr	r3, [r7, #12]
 800183c:	681b      	ldr	r3, [r3, #0]
 800183e:	68fa      	ldr	r2, [r7, #12]
 8001840:	6812      	ldr	r2, [r2, #0]
 8001842:	6812      	ldr	r2, [r2, #0]
 8001844:	f442 6200 	orr.w	r2, r2, #2048	; 0x800
 8001848:	601a      	str	r2, [r3, #0]
 800184a:	2300      	movs	r3, #0
 800184c:	617b      	str	r3, [r7, #20]
 800184e:	68fb      	ldr	r3, [r7, #12]
 8001850:	681b      	ldr	r3, [r3, #0]
 8001852:	695b      	ldr	r3, [r3, #20]
 8001854:	617b      	str	r3, [r7, #20]
 8001856:	68fb      	ldr	r3, [r7, #12]
 8001858:	681b      	ldr	r3, [r3, #0]
 800185a:	699b      	ldr	r3, [r3, #24]
 800185c:	617b      	str	r3, [r7, #20]
 800185e:	e15c      	b.n	8001b1a <HAL_I2C_Mem_Read+0x466>
 8001860:	2300      	movs	r3, #0
 8001862:	613b      	str	r3, [r7, #16]
 8001864:	68fb      	ldr	r3, [r7, #12]
 8001866:	681b      	ldr	r3, [r3, #0]
 8001868:	695b      	ldr	r3, [r3, #20]
 800186a:	613b      	str	r3, [r7, #16]
 800186c:	68fb      	ldr	r3, [r7, #12]
 800186e:	681b      	ldr	r3, [r3, #0]
 8001870:	699b      	ldr	r3, [r3, #24]
 8001872:	613b      	str	r3, [r7, #16]
 8001874:	e151      	b.n	8001b1a <HAL_I2C_Mem_Read+0x466>
 8001876:	68fb      	ldr	r3, [r7, #12]
 8001878:	8d1b      	ldrh	r3, [r3, #40]	; 0x28
 800187a:	2b03      	cmp	r3, #3
 800187c:	f200 8101 	bhi.w	8001a82 <HAL_I2C_Mem_Read+0x3ce>
 8001880:	68fb      	ldr	r3, [r7, #12]
 8001882:	8d1b      	ldrh	r3, [r3, #40]	; 0x28
 8001884:	2b01      	cmp	r3, #1
 8001886:	d133      	bne.n	80018f0 <HAL_I2C_Mem_Read+0x23c>
 8001888:	6a3a      	ldr	r2, [r7, #32]
 800188a:	6bb9      	ldr	r1, [r7, #56]	; 0x38
 800188c:	68f8      	ldr	r0, [r7, #12]
 800188e:	f000 fd4f 	bl	8002330 <i2c_wait_on_rxne_flag_until_timeout>
 8001892:	4603      	mov	r3, r0
 8001894:	2b00      	cmp	r3, #0
 8001896:	d00a      	beq.n	80018ae <HAL_I2C_Mem_Read+0x1fa>
 8001898:	68fb      	ldr	r3, [r7, #12]
 800189a:	6b9b      	ldr	r3, [r3, #56]	; 0x38
 800189c:	2b20      	cmp	r3, #32
 800189e:	d103      	bne.n	80018a8 <HAL_I2C_Mem_Read+0x1f4>
 80018a0:	2303      	movs	r3, #3
 80018a2:	f887 3027 	strb.w	r3, [r7, #39]	; 0x27
 80018a6:	e002      	b.n	80018ae <HAL_I2C_Mem_Read+0x1fa>
 80018a8:	2301      	movs	r3, #1
 80018aa:	f887 3027 	strb.w	r3, [r7, #39]	; 0x27
 80018ae:	f897 3027 	ldrb.w	r3, [r7, #39]	; 0x27
 80018b2:	2b00      	cmp	r3, #0
 80018b4:	f040 8131 	bne.w	8001b1a <HAL_I2C_Mem_Read+0x466>
 80018b8:	68fb      	ldr	r3, [r7, #12]
 80018ba:	6a5b      	ldr	r3, [r3, #36]	; 0x24
 80018bc:	1c59      	adds	r1, r3, #1
 80018be:	68fa      	ldr	r2, [r7, #12]
 80018c0:	6251      	str	r1, [r2, #36]	; 0x24
 80018c2:	68fa      	ldr	r2, [r7, #12]
 80018c4:	6812      	ldr	r2, [r2, #0]
 80018c6:	6912      	ldr	r2, [r2, #16]
 80018c8:	b2d2      	uxtb	r2, r2
 80018ca:	701a      	strb	r2, [r3, #0]
 80018cc:	68fb      	ldr	r3, [r7, #12]
 80018ce:	8d1b      	ldrh	r3, [r3, #40]	; 0x28
 80018d0:	3b01      	subs	r3, #1
 80018d2:	b29a      	uxth	r2, r3
 80018d4:	68fb      	ldr	r3, [r7, #12]
 80018d6:	851a      	strh	r2, [r3, #40]	; 0x28
 80018d8:	68fb      	ldr	r3, [r7, #12]
 80018da:	8d5b      	ldrh	r3, [r3, #42]	; 0x2a
 80018dc:	b29b      	uxth	r3, r3
 80018de:	3b01      	subs	r3, #1
 80018e0:	b29a      	uxth	r2, r3
 80018e2:	68fb      	ldr	r3, [r7, #12]
 80018e4:	855a      	strh	r2, [r3, #42]	; 0x2a
 80018e6:	e118      	b.n	8001b1a <HAL_I2C_Mem_Read+0x466>
 80018e8:	00100002 	.word	0x00100002
 80018ec:	ffff0000 	.word	0xffff0000
 80018f0:	68fb      	ldr	r3, [r7, #12]
 80018f2:	8d1b      	ldrh	r3, [r3, #40]	; 0x28
 80018f4:	2b02      	cmp	r3, #2
 80018f6:	d149      	bne.n	800198c <HAL_I2C_Mem_Read+0x2d8>
 80018f8:	6a3b      	ldr	r3, [r7, #32]
 80018fa:	9300      	str	r3, [sp, #0]
 80018fc:	6bbb      	ldr	r3, [r7, #56]	; 0x38
 80018fe:	2200      	movs	r2, #0
 8001900:	4995      	ldr	r1, [pc, #596]	; (8001b58 <HAL_I2C_Mem_Read+0x4a4>)
 8001902:	68f8      	ldr	r0, [r7, #12]
 8001904:	f000 fac8 	bl	8001e98 <i2c_wait_on_flag_until_timeout>
 8001908:	4603      	mov	r3, r0
 800190a:	2b00      	cmp	r3, #0
 800190c:	d002      	beq.n	8001914 <HAL_I2C_Mem_Read+0x260>
 800190e:	2303      	movs	r3, #3
 8001910:	f887 3027 	strb.w	r3, [r7, #39]	; 0x27
 8001914:	f897 3027 	ldrb.w	r3, [r7, #39]	; 0x27
 8001918:	2b00      	cmp	r3, #0
 800191a:	f040 80fe 	bne.w	8001b1a <HAL_I2C_Mem_Read+0x466>
 800191e:	68fb      	ldr	r3, [r7, #12]
 8001920:	681b      	ldr	r3, [r3, #0]
 8001922:	68fa      	ldr	r2, [r7, #12]
 8001924:	6812      	ldr	r2, [r2, #0]
 8001926:	6812      	ldr	r2, [r2, #0]
 8001928:	f442 7200 	orr.w	r2, r2, #512	; 0x200
 800192c:	601a      	str	r2, [r3, #0]
 800192e:	68fb      	ldr	r3, [r7, #12]
 8001930:	6a5b      	ldr	r3, [r3, #36]	; 0x24
 8001932:	1c59      	adds	r1, r3, #1
 8001934:	68fa      	ldr	r2, [r7, #12]
 8001936:	6251      	str	r1, [r2, #36]	; 0x24
 8001938:	68fa      	ldr	r2, [r7, #12]
 800193a:	6812      	ldr	r2, [r2, #0]
 800193c:	6912      	ldr	r2, [r2, #16]
 800193e:	b2d2      	uxtb	r2, r2
 8001940:	701a      	strb	r2, [r3, #0]
 8001942:	68fb      	ldr	r3, [r7, #12]
 8001944:	8d1b      	ldrh	r3, [r3, #40]	; 0x28
 8001946:	3b01      	subs	r3, #1
 8001948:	b29a      	uxth	r2, r3
 800194a:	68fb      	ldr	r3, [r7, #12]
 800194c:	851a      	strh	r2, [r3, #40]	; 0x28
 800194e:	68fb      	ldr	r3, [r7, #12]
 8001950:	8d5b      	ldrh	r3, [r3, #42]	; 0x2a
 8001952:	b29b      	uxth	r3, r3
 8001954:	3b01      	subs	r3, #1
 8001956:	b29a      	uxth	r2, r3
 8001958:	68fb      	ldr	r3, [r7, #12]
 800195a:	855a      	strh	r2, [r3, #42]	; 0x2a
 800195c:	68fb      	ldr	r3, [r7, #12]
 800195e:	6a5b      	ldr	r3, [r3, #36]	; 0x24
 8001960:	1c59      	adds	r1, r3, #1
 8001962:	68fa      	ldr	r2, [r7, #12]
 8001964:	6251      	str	r1, [r2, #36]	; 0x24
 8001966:	68fa      	ldr	r2, [r7, #12]
 8001968:	6812      	ldr	r2, [r2, #0]
 800196a:	6912      	ldr	r2, [r2, #16]
 800196c:	b2d2      	uxtb	r2, r2
 800196e:	701a      	strb	r2, [r3, #0]
 8001970:	68fb      	ldr	r3, [r7, #12]
 8001972:	8d1b      	ldrh	r3, [r3, #40]	; 0x28
 8001974:	3b01      	subs	r3, #1
 8001976:	b29a      	uxth	r2, r3
 8001978:	68fb      	ldr	r3, [r7, #12]
 800197a:	851a      	strh	r2, [r3, #40]	; 0x28
 800197c:	68fb      	ldr	r3, [r7, #12]
 800197e:	8d5b      	ldrh	r3, [r3, #42]	; 0x2a
 8001980:	b29b      	uxth	r3, r3
 8001982:	3b01      	subs	r3, #1
 8001984:	b29a      	uxth	r2, r3
 8001986:	68fb      	ldr	r3, [r7, #12]
 8001988:	855a      	strh	r2, [r3, #42]	; 0x2a
 800198a:	e0c6      	b.n	8001b1a <HAL_I2C_Mem_Read+0x466>
 800198c:	6a3b      	ldr	r3, [r7, #32]
 800198e:	9300      	str	r3, [sp, #0]
 8001990:	6bbb      	ldr	r3, [r7, #56]	; 0x38
 8001992:	2200      	movs	r2, #0
 8001994:	4970      	ldr	r1, [pc, #448]	; (8001b58 <HAL_I2C_Mem_Read+0x4a4>)
 8001996:	68f8      	ldr	r0, [r7, #12]
 8001998:	f000 fa7e 	bl	8001e98 <i2c_wait_on_flag_until_timeout>
 800199c:	4603      	mov	r3, r0
 800199e:	2b00      	cmp	r3, #0
 80019a0:	d002      	beq.n	80019a8 <HAL_I2C_Mem_Read+0x2f4>
 80019a2:	2303      	movs	r3, #3
 80019a4:	f887 3027 	strb.w	r3, [r7, #39]	; 0x27
 80019a8:	f897 3027 	ldrb.w	r3, [r7, #39]	; 0x27
 80019ac:	2b00      	cmp	r3, #0
 80019ae:	d11e      	bne.n	80019ee <HAL_I2C_Mem_Read+0x33a>
 80019b0:	68fb      	ldr	r3, [r7, #12]
 80019b2:	681b      	ldr	r3, [r3, #0]
 80019b4:	68fa      	ldr	r2, [r7, #12]
 80019b6:	6812      	ldr	r2, [r2, #0]
 80019b8:	6812      	ldr	r2, [r2, #0]
 80019ba:	f422 6280 	bic.w	r2, r2, #1024	; 0x400
 80019be:	601a      	str	r2, [r3, #0]
 80019c0:	68fb      	ldr	r3, [r7, #12]
 80019c2:	6a5b      	ldr	r3, [r3, #36]	; 0x24
 80019c4:	1c59      	adds	r1, r3, #1
 80019c6:	68fa      	ldr	r2, [r7, #12]
 80019c8:	6251      	str	r1, [r2, #36]	; 0x24
 80019ca:	68fa      	ldr	r2, [r7, #12]
 80019cc:	6812      	ldr	r2, [r2, #0]
 80019ce:	6912      	ldr	r2, [r2, #16]
 80019d0:	b2d2      	uxtb	r2, r2
 80019d2:	701a      	strb	r2, [r3, #0]
 80019d4:	68fb      	ldr	r3, [r7, #12]
 80019d6:	8d1b      	ldrh	r3, [r3, #40]	; 0x28
 80019d8:	3b01      	subs	r3, #1
 80019da:	b29a      	uxth	r2, r3
 80019dc:	68fb      	ldr	r3, [r7, #12]
 80019de:	851a      	strh	r2, [r3, #40]	; 0x28
 80019e0:	68fb      	ldr	r3, [r7, #12]
 80019e2:	8d5b      	ldrh	r3, [r3, #42]	; 0x2a
 80019e4:	b29b      	uxth	r3, r3
 80019e6:	3b01      	subs	r3, #1
 80019e8:	b29a      	uxth	r2, r3
 80019ea:	68fb      	ldr	r3, [r7, #12]
 80019ec:	855a      	strh	r2, [r3, #42]	; 0x2a
 80019ee:	6a3b      	ldr	r3, [r7, #32]
 80019f0:	9300      	str	r3, [sp, #0]
 80019f2:	6bbb      	ldr	r3, [r7, #56]	; 0x38
 80019f4:	2200      	movs	r2, #0
 80019f6:	4958      	ldr	r1, [pc, #352]	; (8001b58 <HAL_I2C_Mem_Read+0x4a4>)
 80019f8:	68f8      	ldr	r0, [r7, #12]
 80019fa:	f000 fa4d 	bl	8001e98 <i2c_wait_on_flag_until_timeout>
 80019fe:	4603      	mov	r3, r0
 8001a00:	2b00      	cmp	r3, #0
 8001a02:	d002      	beq.n	8001a0a <HAL_I2C_Mem_Read+0x356>
 8001a04:	2303      	movs	r3, #3
 8001a06:	f887 3027 	strb.w	r3, [r7, #39]	; 0x27
 8001a0a:	f897 3027 	ldrb.w	r3, [r7, #39]	; 0x27
 8001a0e:	2b00      	cmp	r3, #0
 8001a10:	f040 8083 	bne.w	8001b1a <HAL_I2C_Mem_Read+0x466>
 8001a14:	68fb      	ldr	r3, [r7, #12]
 8001a16:	681b      	ldr	r3, [r3, #0]
 8001a18:	68fa      	ldr	r2, [r7, #12]
 8001a1a:	6812      	ldr	r2, [r2, #0]
 8001a1c:	6812      	ldr	r2, [r2, #0]
 8001a1e:	f442 7200 	orr.w	r2, r2, #512	; 0x200
 8001a22:	601a      	str	r2, [r3, #0]
 8001a24:	68fb      	ldr	r3, [r7, #12]
 8001a26:	6a5b      	ldr	r3, [r3, #36]	; 0x24
 8001a28:	1c59      	adds	r1, r3, #1
 8001a2a:	68fa      	ldr	r2, [r7, #12]
 8001a2c:	6251      	str	r1, [r2, #36]	; 0x24
 8001a2e:	68fa      	ldr	r2, [r7, #12]
 8001a30:	6812      	ldr	r2, [r2, #0]
 8001a32:	6912      	ldr	r2, [r2, #16]
 8001a34:	b2d2      	uxtb	r2, r2
 8001a36:	701a      	strb	r2, [r3, #0]
 8001a38:	68fb      	ldr	r3, [r7, #12]
 8001a3a:	8d1b      	ldrh	r3, [r3, #40]	; 0x28
 8001a3c:	3b01      	subs	r3, #1
 8001a3e:	b29a      	uxth	r2, r3
 8001a40:	68fb      	ldr	r3, [r7, #12]
 8001a42:	851a      	strh	r2, [r3, #40]	; 0x28
 8001a44:	68fb      	ldr	r3, [r7, #12]
 8001a46:	8d5b      	ldrh	r3, [r3, #42]	; 0x2a
 8001a48:	b29b      	uxth	r3, r3
 8001a4a:	3b01      	subs	r3, #1
 8001a4c:	b29a      	uxth	r2, r3
 8001a4e:	68fb      	ldr	r3, [r7, #12]
 8001a50:	855a      	strh	r2, [r3, #42]	; 0x2a
 8001a52:	68fb      	ldr	r3, [r7, #12]
 8001a54:	6a5b      	ldr	r3, [r3, #36]	; 0x24
 8001a56:	1c59      	adds	r1, r3, #1
 8001a58:	68fa      	ldr	r2, [r7, #12]
 8001a5a:	6251      	str	r1, [r2, #36]	; 0x24
 8001a5c:	68fa      	ldr	r2, [r7, #12]
 8001a5e:	6812      	ldr	r2, [r2, #0]
 8001a60:	6912      	ldr	r2, [r2, #16]
 8001a62:	b2d2      	uxtb	r2, r2
 8001a64:	701a      	strb	r2, [r3, #0]
 8001a66:	68fb      	ldr	r3, [r7, #12]
 8001a68:	8d1b      	ldrh	r3, [r3, #40]	; 0x28
 8001a6a:	3b01      	subs	r3, #1
 8001a6c:	b29a      	uxth	r2, r3
 8001a6e:	68fb      	ldr	r3, [r7, #12]
 8001a70:	851a      	strh	r2, [r3, #40]	; 0x28
 8001a72:	68fb      	ldr	r3, [r7, #12]
 8001a74:	8d5b      	ldrh	r3, [r3, #42]	; 0x2a
 8001a76:	b29b      	uxth	r3, r3
 8001a78:	3b01      	subs	r3, #1
 8001a7a:	b29a      	uxth	r2, r3
 8001a7c:	68fb      	ldr	r3, [r7, #12]
 8001a7e:	855a      	strh	r2, [r3, #42]	; 0x2a
 8001a80:	e04b      	b.n	8001b1a <HAL_I2C_Mem_Read+0x466>
 8001a82:	6a3a      	ldr	r2, [r7, #32]
 8001a84:	6bb9      	ldr	r1, [r7, #56]	; 0x38
 8001a86:	68f8      	ldr	r0, [r7, #12]
 8001a88:	f000 fc52 	bl	8002330 <i2c_wait_on_rxne_flag_until_timeout>
 8001a8c:	4603      	mov	r3, r0
 8001a8e:	2b00      	cmp	r3, #0
 8001a90:	d00a      	beq.n	8001aa8 <HAL_I2C_Mem_Read+0x3f4>
 8001a92:	68fb      	ldr	r3, [r7, #12]
 8001a94:	6b9b      	ldr	r3, [r3, #56]	; 0x38
 8001a96:	2b20      	cmp	r3, #32
 8001a98:	d103      	bne.n	8001aa2 <HAL_I2C_Mem_Read+0x3ee>
 8001a9a:	2303      	movs	r3, #3
 8001a9c:	f887 3027 	strb.w	r3, [r7, #39]	; 0x27
 8001aa0:	e002      	b.n	8001aa8 <HAL_I2C_Mem_Read+0x3f4>
 8001aa2:	2301      	movs	r3, #1
 8001aa4:	f887 3027 	strb.w	r3, [r7, #39]	; 0x27
 8001aa8:	f897 3027 	ldrb.w	r3, [r7, #39]	; 0x27
 8001aac:	2b00      	cmp	r3, #0
 8001aae:	d134      	bne.n	8001b1a <HAL_I2C_Mem_Read+0x466>
 8001ab0:	68fb      	ldr	r3, [r7, #12]
 8001ab2:	6a5b      	ldr	r3, [r3, #36]	; 0x24
 8001ab4:	1c59      	adds	r1, r3, #1
 8001ab6:	68fa      	ldr	r2, [r7, #12]
 8001ab8:	6251      	str	r1, [r2, #36]	; 0x24
 8001aba:	68fa      	ldr	r2, [r7, #12]
 8001abc:	6812      	ldr	r2, [r2, #0]
 8001abe:	6912      	ldr	r2, [r2, #16]
 8001ac0:	b2d2      	uxtb	r2, r2
 8001ac2:	701a      	strb	r2, [r3, #0]
 8001ac4:	68fb      	ldr	r3, [r7, #12]
 8001ac6:	8d1b      	ldrh	r3, [r3, #40]	; 0x28
 8001ac8:	3b01      	subs	r3, #1
 8001aca:	b29a      	uxth	r2, r3
 8001acc:	68fb      	ldr	r3, [r7, #12]
 8001ace:	851a      	strh	r2, [r3, #40]	; 0x28
 8001ad0:	68fb      	ldr	r3, [r7, #12]
 8001ad2:	8d5b      	ldrh	r3, [r3, #42]	; 0x2a
 8001ad4:	b29b      	uxth	r3, r3
 8001ad6:	3b01      	subs	r3, #1
 8001ad8:	b29a      	uxth	r2, r3
 8001ada:	68fb      	ldr	r3, [r7, #12]
 8001adc:	855a      	strh	r2, [r3, #42]	; 0x2a
 8001ade:	68fb      	ldr	r3, [r7, #12]
 8001ae0:	681b      	ldr	r3, [r3, #0]
 8001ae2:	695b      	ldr	r3, [r3, #20]
 8001ae4:	f003 0304 	and.w	r3, r3, #4
 8001ae8:	2b04      	cmp	r3, #4
 8001aea:	d116      	bne.n	8001b1a <HAL_I2C_Mem_Read+0x466>
 8001aec:	68fb      	ldr	r3, [r7, #12]
 8001aee:	6a5b      	ldr	r3, [r3, #36]	; 0x24
 8001af0:	1c59      	adds	r1, r3, #1
 8001af2:	68fa      	ldr	r2, [r7, #12]
 8001af4:	6251      	str	r1, [r2, #36]	; 0x24
 8001af6:	68fa      	ldr	r2, [r7, #12]
 8001af8:	6812      	ldr	r2, [r2, #0]
 8001afa:	6912      	ldr	r2, [r2, #16]
 8001afc:	b2d2      	uxtb	r2, r2
 8001afe:	701a      	strb	r2, [r3, #0]
 8001b00:	68fb      	ldr	r3, [r7, #12]
 8001b02:	8d1b      	ldrh	r3, [r3, #40]	; 0x28
 8001b04:	3b01      	subs	r3, #1
 8001b06:	b29a      	uxth	r2, r3
 8001b08:	68fb      	ldr	r3, [r7, #12]
 8001b0a:	851a      	strh	r2, [r3, #40]	; 0x28
 8001b0c:	68fb      	ldr	r3, [r7, #12]
 8001b0e:	8d5b      	ldrh	r3, [r3, #42]	; 0x2a
 8001b10:	b29b      	uxth	r3, r3
 8001b12:	3b01      	subs	r3, #1
 8001b14:	b29a      	uxth	r2, r3
 8001b16:	68fb      	ldr	r3, [r7, #12]
 8001b18:	855a      	strh	r2, [r3, #42]	; 0x2a
 8001b1a:	68fb      	ldr	r3, [r7, #12]
 8001b1c:	8d1b      	ldrh	r3, [r3, #40]	; 0x28
 8001b1e:	2b00      	cmp	r3, #0
 8001b20:	d004      	beq.n	8001b2c <HAL_I2C_Mem_Read+0x478>
 8001b22:	f897 3027 	ldrb.w	r3, [r7, #39]	; 0x27
 8001b26:	2b00      	cmp	r3, #0
 8001b28:	f43f aea5 	beq.w	8001876 <HAL_I2C_Mem_Read+0x1c2>
 8001b2c:	68fb      	ldr	r3, [r7, #12]
 8001b2e:	2220      	movs	r2, #32
 8001b30:	f883 2034 	strb.w	r2, [r3, #52]	; 0x34
 8001b34:	68fb      	ldr	r3, [r7, #12]
 8001b36:	2200      	movs	r2, #0
 8001b38:	f883 2035 	strb.w	r2, [r3, #53]	; 0x35
 8001b3c:	e006      	b.n	8001b4c <HAL_I2C_Mem_Read+0x498>
 8001b3e:	2302      	movs	r3, #2
 8001b40:	f887 3027 	strb.w	r3, [r7, #39]	; 0x27
 8001b44:	e002      	b.n	8001b4c <HAL_I2C_Mem_Read+0x498>
 8001b46:	2301      	movs	r3, #1
 8001b48:	f887 3027 	strb.w	r3, [r7, #39]	; 0x27
 8001b4c:	f897 3027 	ldrb.w	r3, [r7, #39]	; 0x27
 8001b50:	4618      	mov	r0, r3
 8001b52:	3728      	adds	r7, #40	; 0x28
 8001b54:	46bd      	mov	sp, r7
 8001b56:	bd80      	pop	{r7, pc}
 8001b58:	00010004 	.word	0x00010004

08001b5c <i2c_request_memory_write>:
 8001b5c:	b580      	push	{r7, lr}
 8001b5e:	b088      	sub	sp, #32
 8001b60:	af02      	add	r7, sp, #8
 8001b62:	60f8      	str	r0, [r7, #12]
 8001b64:	4608      	mov	r0, r1
 8001b66:	4611      	mov	r1, r2
 8001b68:	461a      	mov	r2, r3
 8001b6a:	4603      	mov	r3, r0
 8001b6c:	817b      	strh	r3, [r7, #10]
 8001b6e:	460b      	mov	r3, r1
 8001b70:	813b      	strh	r3, [r7, #8]
 8001b72:	4613      	mov	r3, r2
 8001b74:	80fb      	strh	r3, [r7, #6]
 8001b76:	2300      	movs	r3, #0
 8001b78:	75fb      	strb	r3, [r7, #23]
 8001b7a:	68fb      	ldr	r3, [r7, #12]
 8001b7c:	681b      	ldr	r3, [r3, #0]
 8001b7e:	68fa      	ldr	r2, [r7, #12]
 8001b80:	6812      	ldr	r2, [r2, #0]
 8001b82:	6812      	ldr	r2, [r2, #0]
 8001b84:	f442 7280 	orr.w	r2, r2, #256	; 0x100
 8001b88:	601a      	str	r2, [r3, #0]
 8001b8a:	6a7b      	ldr	r3, [r7, #36]	; 0x24
 8001b8c:	9300      	str	r3, [sp, #0]
 8001b8e:	6a3b      	ldr	r3, [r7, #32]
 8001b90:	2200      	movs	r2, #0
 8001b92:	f04f 1101 	mov.w	r1, #65537	; 0x10001
 8001b96:	68f8      	ldr	r0, [r7, #12]
 8001b98:	f000 f97e 	bl	8001e98 <i2c_wait_on_flag_until_timeout>
 8001b9c:	4603      	mov	r3, r0
 8001b9e:	2b00      	cmp	r3, #0
 8001ba0:	d001      	beq.n	8001ba6 <i2c_request_memory_write+0x4a>
 8001ba2:	2303      	movs	r3, #3
 8001ba4:	75fb      	strb	r3, [r7, #23]
 8001ba6:	7dfb      	ldrb	r3, [r7, #23]
 8001ba8:	2b00      	cmp	r3, #0
 8001baa:	d118      	bne.n	8001bde <i2c_request_memory_write+0x82>
 8001bac:	68fb      	ldr	r3, [r7, #12]
 8001bae:	681b      	ldr	r3, [r3, #0]
 8001bb0:	897a      	ldrh	r2, [r7, #10]
 8001bb2:	b2d2      	uxtb	r2, r2
 8001bb4:	f002 02fe 	and.w	r2, r2, #254	; 0xfe
 8001bb8:	611a      	str	r2, [r3, #16]
 8001bba:	6a7b      	ldr	r3, [r7, #36]	; 0x24
 8001bbc:	6a3a      	ldr	r2, [r7, #32]
 8001bbe:	4937      	ldr	r1, [pc, #220]	; (8001c9c <i2c_request_memory_write+0x140>)
 8001bc0:	68f8      	ldr	r0, [r7, #12]
 8001bc2:	f000 fa63 	bl	800208c <i2c_wait_on_master_address_flag_until_timeout>
 8001bc6:	4603      	mov	r3, r0
 8001bc8:	2b00      	cmp	r3, #0
 8001bca:	d008      	beq.n	8001bde <i2c_request_memory_write+0x82>
 8001bcc:	68fb      	ldr	r3, [r7, #12]
 8001bce:	6b9b      	ldr	r3, [r3, #56]	; 0x38
 8001bd0:	2b04      	cmp	r3, #4
 8001bd2:	d102      	bne.n	8001bda <i2c_request_memory_write+0x7e>
 8001bd4:	2301      	movs	r3, #1
 8001bd6:	75fb      	strb	r3, [r7, #23]
 8001bd8:	e001      	b.n	8001bde <i2c_request_memory_write+0x82>
 8001bda:	2303      	movs	r3, #3
 8001bdc:	75fb      	strb	r3, [r7, #23]
 8001bde:	7dfb      	ldrb	r3, [r7, #23]
 8001be0:	2b00      	cmp	r3, #0
 8001be2:	d122      	bne.n	8001c2a <i2c_request_memory_write+0xce>
 8001be4:	2300      	movs	r3, #0
 8001be6:	613b      	str	r3, [r7, #16]
 8001be8:	68fb      	ldr	r3, [r7, #12]
 8001bea:	681b      	ldr	r3, [r3, #0]
 8001bec:	695b      	ldr	r3, [r3, #20]
 8001bee:	613b      	str	r3, [r7, #16]
 8001bf0:	68fb      	ldr	r3, [r7, #12]
 8001bf2:	681b      	ldr	r3, [r3, #0]
 8001bf4:	699b      	ldr	r3, [r3, #24]
 8001bf6:	613b      	str	r3, [r7, #16]
 8001bf8:	6a7a      	ldr	r2, [r7, #36]	; 0x24
 8001bfa:	6a39      	ldr	r1, [r7, #32]
 8001bfc:	68f8      	ldr	r0, [r7, #12]
 8001bfe:	f000 fb1d 	bl	800223c <i2c_wait_on_txe_flag_until_timeout>
 8001c02:	4603      	mov	r3, r0
 8001c04:	2b00      	cmp	r3, #0
 8001c06:	d010      	beq.n	8001c2a <i2c_request_memory_write+0xce>
 8001c08:	68fb      	ldr	r3, [r7, #12]
 8001c0a:	6b9b      	ldr	r3, [r3, #56]	; 0x38
 8001c0c:	2b04      	cmp	r3, #4
 8001c0e:	d10a      	bne.n	8001c26 <i2c_request_memory_write+0xca>
 8001c10:	68fb      	ldr	r3, [r7, #12]
 8001c12:	681b      	ldr	r3, [r3, #0]
 8001c14:	68fa      	ldr	r2, [r7, #12]
 8001c16:	6812      	ldr	r2, [r2, #0]
 8001c18:	6812      	ldr	r2, [r2, #0]
 8001c1a:	f442 7200 	orr.w	r2, r2, #512	; 0x200
 8001c1e:	601a      	str	r2, [r3, #0]
 8001c20:	2301      	movs	r3, #1
 8001c22:	75fb      	strb	r3, [r7, #23]
 8001c24:	e001      	b.n	8001c2a <i2c_request_memory_write+0xce>
 8001c26:	2303      	movs	r3, #3
 8001c28:	75fb      	strb	r3, [r7, #23]
 8001c2a:	7dfb      	ldrb	r3, [r7, #23]
 8001c2c:	2b00      	cmp	r3, #0
 8001c2e:	d130      	bne.n	8001c92 <i2c_request_memory_write+0x136>
 8001c30:	88fb      	ldrh	r3, [r7, #6]
 8001c32:	2b01      	cmp	r3, #1
 8001c34:	d105      	bne.n	8001c42 <i2c_request_memory_write+0xe6>
 8001c36:	68fb      	ldr	r3, [r7, #12]
 8001c38:	681b      	ldr	r3, [r3, #0]
 8001c3a:	893a      	ldrh	r2, [r7, #8]
 8001c3c:	b2d2      	uxtb	r2, r2
 8001c3e:	611a      	str	r2, [r3, #16]
 8001c40:	e01f      	b.n	8001c82 <i2c_request_memory_write+0x126>
 8001c42:	68fb      	ldr	r3, [r7, #12]
 8001c44:	681b      	ldr	r3, [r3, #0]
 8001c46:	893a      	ldrh	r2, [r7, #8]
 8001c48:	0a12      	lsrs	r2, r2, #8
 8001c4a:	b292      	uxth	r2, r2
 8001c4c:	b2d2      	uxtb	r2, r2
 8001c4e:	611a      	str	r2, [r3, #16]
 8001c50:	6a7a      	ldr	r2, [r7, #36]	; 0x24
 8001c52:	6a39      	ldr	r1, [r7, #32]
 8001c54:	68f8      	ldr	r0, [r7, #12]
 8001c56:	f000 faf1 	bl	800223c <i2c_wait_on_txe_flag_until_timeout>
 8001c5a:	4603      	mov	r3, r0
 8001c5c:	2b00      	cmp	r3, #0
 8001c5e:	d010      	beq.n	8001c82 <i2c_request_memory_write+0x126>
 8001c60:	68fb      	ldr	r3, [r7, #12]
 8001c62:	6b9b      	ldr	r3, [r3, #56]	; 0x38
 8001c64:	2b04      	cmp	r3, #4
 8001c66:	d10a      	bne.n	8001c7e <i2c_request_memory_write+0x122>
 8001c68:	68fb      	ldr	r3, [r7, #12]
 8001c6a:	681b      	ldr	r3, [r3, #0]
 8001c6c:	68fa      	ldr	r2, [r7, #12]
 8001c6e:	6812      	ldr	r2, [r2, #0]
 8001c70:	6812      	ldr	r2, [r2, #0]
 8001c72:	f442 7200 	orr.w	r2, r2, #512	; 0x200
 8001c76:	601a      	str	r2, [r3, #0]
 8001c78:	2301      	movs	r3, #1
 8001c7a:	75fb      	strb	r3, [r7, #23]
 8001c7c:	e001      	b.n	8001c82 <i2c_request_memory_write+0x126>
 8001c7e:	2303      	movs	r3, #3
 8001c80:	75fb      	strb	r3, [r7, #23]
 8001c82:	7dfb      	ldrb	r3, [r7, #23]
 8001c84:	2b00      	cmp	r3, #0
 8001c86:	d104      	bne.n	8001c92 <i2c_request_memory_write+0x136>
 8001c88:	68fb      	ldr	r3, [r7, #12]
 8001c8a:	681b      	ldr	r3, [r3, #0]
 8001c8c:	893a      	ldrh	r2, [r7, #8]
 8001c8e:	b2d2      	uxtb	r2, r2
 8001c90:	611a      	str	r2, [r3, #16]
 8001c92:	7dfb      	ldrb	r3, [r7, #23]
 8001c94:	4618      	mov	r0, r3
 8001c96:	3718      	adds	r7, #24
 8001c98:	46bd      	mov	sp, r7
 8001c9a:	bd80      	pop	{r7, pc}
 8001c9c:	00010002 	.word	0x00010002

08001ca0 <i2c_request_memory_read>:
 8001ca0:	b580      	push	{r7, lr}
 8001ca2:	b088      	sub	sp, #32
 8001ca4:	af02      	add	r7, sp, #8
 8001ca6:	60f8      	str	r0, [r7, #12]
 8001ca8:	4608      	mov	r0, r1
 8001caa:	4611      	mov	r1, r2
 8001cac:	461a      	mov	r2, r3
 8001cae:	4603      	mov	r3, r0
 8001cb0:	817b      	strh	r3, [r7, #10]
 8001cb2:	460b      	mov	r3, r1
 8001cb4:	813b      	strh	r3, [r7, #8]
 8001cb6:	4613      	mov	r3, r2
 8001cb8:	80fb      	strh	r3, [r7, #6]
 8001cba:	2300      	movs	r3, #0
 8001cbc:	75fb      	strb	r3, [r7, #23]
 8001cbe:	68fb      	ldr	r3, [r7, #12]
 8001cc0:	681b      	ldr	r3, [r3, #0]
 8001cc2:	68fa      	ldr	r2, [r7, #12]
 8001cc4:	6812      	ldr	r2, [r2, #0]
 8001cc6:	6812      	ldr	r2, [r2, #0]
 8001cc8:	f442 6280 	orr.w	r2, r2, #1024	; 0x400
 8001ccc:	601a      	str	r2, [r3, #0]
 8001cce:	68fb      	ldr	r3, [r7, #12]
 8001cd0:	681b      	ldr	r3, [r3, #0]
 8001cd2:	68fa      	ldr	r2, [r7, #12]
 8001cd4:	6812      	ldr	r2, [r2, #0]
 8001cd6:	6812      	ldr	r2, [r2, #0]
 8001cd8:	f442 7280 	orr.w	r2, r2, #256	; 0x100
 8001cdc:	601a      	str	r2, [r3, #0]
 8001cde:	6a7b      	ldr	r3, [r7, #36]	; 0x24
 8001ce0:	9300      	str	r3, [sp, #0]
 8001ce2:	6a3b      	ldr	r3, [r7, #32]
 8001ce4:	2200      	movs	r2, #0
 8001ce6:	f04f 1101 	mov.w	r1, #65537	; 0x10001
 8001cea:	68f8      	ldr	r0, [r7, #12]
 8001cec:	f000 f8d4 	bl	8001e98 <i2c_wait_on_flag_until_timeout>
 8001cf0:	4603      	mov	r3, r0
 8001cf2:	2b00      	cmp	r3, #0
 8001cf4:	d001      	beq.n	8001cfa <i2c_request_memory_read+0x5a>
 8001cf6:	2303      	movs	r3, #3
 8001cf8:	75fb      	strb	r3, [r7, #23]
 8001cfa:	7dfb      	ldrb	r3, [r7, #23]
 8001cfc:	2b00      	cmp	r3, #0
 8001cfe:	d118      	bne.n	8001d32 <i2c_request_memory_read+0x92>
 8001d00:	68fb      	ldr	r3, [r7, #12]
 8001d02:	681b      	ldr	r3, [r3, #0]
 8001d04:	897a      	ldrh	r2, [r7, #10]
 8001d06:	b2d2      	uxtb	r2, r2
 8001d08:	f002 02fe 	and.w	r2, r2, #254	; 0xfe
 8001d0c:	611a      	str	r2, [r3, #16]
 8001d0e:	6a7b      	ldr	r3, [r7, #36]	; 0x24
 8001d10:	6a3a      	ldr	r2, [r7, #32]
 8001d12:	4960      	ldr	r1, [pc, #384]	; (8001e94 <i2c_request_memory_read+0x1f4>)
 8001d14:	68f8      	ldr	r0, [r7, #12]
 8001d16:	f000 f9b9 	bl	800208c <i2c_wait_on_master_address_flag_until_timeout>
 8001d1a:	4603      	mov	r3, r0
 8001d1c:	2b00      	cmp	r3, #0
 8001d1e:	d008      	beq.n	8001d32 <i2c_request_memory_read+0x92>
 8001d20:	68fb      	ldr	r3, [r7, #12]
 8001d22:	6b9b      	ldr	r3, [r3, #56]	; 0x38
 8001d24:	2b04      	cmp	r3, #4
 8001d26:	d102      	bne.n	8001d2e <i2c_request_memory_read+0x8e>
 8001d28:	2301      	movs	r3, #1
 8001d2a:	75fb      	strb	r3, [r7, #23]
 8001d2c:	e001      	b.n	8001d32 <i2c_request_memory_read+0x92>
 8001d2e:	2303      	movs	r3, #3
 8001d30:	75fb      	strb	r3, [r7, #23]
 8001d32:	7dfb      	ldrb	r3, [r7, #23]
 8001d34:	2b00      	cmp	r3, #0
 8001d36:	d122      	bne.n	8001d7e <i2c_request_memory_read+0xde>
 8001d38:	2300      	movs	r3, #0
 8001d3a:	613b      	str	r3, [r7, #16]
 8001d3c:	68fb      	ldr	r3, [r7, #12]
 8001d3e:	681b      	ldr	r3, [r3, #0]
 8001d40:	695b      	ldr	r3, [r3, #20]
 8001d42:	613b      	str	r3, [r7, #16]
 8001d44:	68fb      	ldr	r3, [r7, #12]
 8001d46:	681b      	ldr	r3, [r3, #0]
 8001d48:	699b      	ldr	r3, [r3, #24]
 8001d4a:	613b      	str	r3, [r7, #16]
 8001d4c:	6a7a      	ldr	r2, [r7, #36]	; 0x24
 8001d4e:	6a39      	ldr	r1, [r7, #32]
 8001d50:	68f8      	ldr	r0, [r7, #12]
 8001d52:	f000 fa73 	bl	800223c <i2c_wait_on_txe_flag_until_timeout>
 8001d56:	4603      	mov	r3, r0
 8001d58:	2b00      	cmp	r3, #0
 8001d5a:	d010      	beq.n	8001d7e <i2c_request_memory_read+0xde>
 8001d5c:	68fb      	ldr	r3, [r7, #12]
 8001d5e:	6b9b      	ldr	r3, [r3, #56]	; 0x38
 8001d60:	2b04      	cmp	r3, #4
 8001d62:	d10a      	bne.n	8001d7a <i2c_request_memory_read+0xda>
 8001d64:	68fb      	ldr	r3, [r7, #12]
 8001d66:	681b      	ldr	r3, [r3, #0]
 8001d68:	68fa      	ldr	r2, [r7, #12]
 8001d6a:	6812      	ldr	r2, [r2, #0]
 8001d6c:	6812      	ldr	r2, [r2, #0]
 8001d6e:	f442 7200 	orr.w	r2, r2, #512	; 0x200
 8001d72:	601a      	str	r2, [r3, #0]
 8001d74:	2301      	movs	r3, #1
 8001d76:	75fb      	strb	r3, [r7, #23]
 8001d78:	e001      	b.n	8001d7e <i2c_request_memory_read+0xde>
 8001d7a:	2303      	movs	r3, #3
 8001d7c:	75fb      	strb	r3, [r7, #23]
 8001d7e:	7dfb      	ldrb	r3, [r7, #23]
 8001d80:	2b00      	cmp	r3, #0
 8001d82:	d130      	bne.n	8001de6 <i2c_request_memory_read+0x146>
 8001d84:	88fb      	ldrh	r3, [r7, #6]
 8001d86:	2b01      	cmp	r3, #1
 8001d88:	d105      	bne.n	8001d96 <i2c_request_memory_read+0xf6>
 8001d8a:	68fb      	ldr	r3, [r7, #12]
 8001d8c:	681b      	ldr	r3, [r3, #0]
 8001d8e:	893a      	ldrh	r2, [r7, #8]
 8001d90:	b2d2      	uxtb	r2, r2
 8001d92:	611a      	str	r2, [r3, #16]
 8001d94:	e027      	b.n	8001de6 <i2c_request_memory_read+0x146>
 8001d96:	68fb      	ldr	r3, [r7, #12]
 8001d98:	681b      	ldr	r3, [r3, #0]
 8001d9a:	893a      	ldrh	r2, [r7, #8]
 8001d9c:	0a12      	lsrs	r2, r2, #8
 8001d9e:	b292      	uxth	r2, r2
 8001da0:	b2d2      	uxtb	r2, r2
 8001da2:	611a      	str	r2, [r3, #16]
 8001da4:	6a7a      	ldr	r2, [r7, #36]	; 0x24
 8001da6:	6a39      	ldr	r1, [r7, #32]
 8001da8:	68f8      	ldr	r0, [r7, #12]
 8001daa:	f000 fa47 	bl	800223c <i2c_wait_on_txe_flag_until_timeout>
 8001dae:	4603      	mov	r3, r0
 8001db0:	2b00      	cmp	r3, #0
 8001db2:	d010      	beq.n	8001dd6 <i2c_request_memory_read+0x136>
 8001db4:	68fb      	ldr	r3, [r7, #12]
 8001db6:	6b9b      	ldr	r3, [r3, #56]	; 0x38
 8001db8:	2b04      	cmp	r3, #4
 8001dba:	d10a      	bne.n	8001dd2 <i2c_request_memory_read+0x132>
 8001dbc:	68fb      	ldr	r3, [r7, #12]
 8001dbe:	681b      	ldr	r3, [r3, #0]
 8001dc0:	68fa      	ldr	r2, [r7, #12]
 8001dc2:	6812      	ldr	r2, [r2, #0]
 8001dc4:	6812      	ldr	r2, [r2, #0]
 8001dc6:	f442 7200 	orr.w	r2, r2, #512	; 0x200
 8001dca:	601a      	str	r2, [r3, #0]
 8001dcc:	2301      	movs	r3, #1
 8001dce:	75fb      	strb	r3, [r7, #23]
 8001dd0:	e001      	b.n	8001dd6 <i2c_request_memory_read+0x136>
 8001dd2:	2303      	movs	r3, #3
 8001dd4:	75fb      	strb	r3, [r7, #23]
 8001dd6:	7dfb      	ldrb	r3, [r7, #23]
 8001dd8:	2b00      	cmp	r3, #0
 8001dda:	d104      	bne.n	8001de6 <i2c_request_memory_read+0x146>
 8001ddc:	68fb      	ldr	r3, [r7, #12]
 8001dde:	681b      	ldr	r3, [r3, #0]
 8001de0:	893a      	ldrh	r2, [r7, #8]
 8001de2:	b2d2      	uxtb	r2, r2
 8001de4:	611a      	str	r2, [r3, #16]
 8001de6:	7dfb      	ldrb	r3, [r7, #23]
 8001de8:	2b00      	cmp	r3, #0
 8001dea:	d118      	bne.n	8001e1e <i2c_request_memory_read+0x17e>
 8001dec:	6a7a      	ldr	r2, [r7, #36]	; 0x24
 8001dee:	6a39      	ldr	r1, [r7, #32]
 8001df0:	68f8      	ldr	r0, [r7, #12]
 8001df2:	f000 fa23 	bl	800223c <i2c_wait_on_txe_flag_until_timeout>
 8001df6:	4603      	mov	r3, r0
 8001df8:	2b00      	cmp	r3, #0
 8001dfa:	d010      	beq.n	8001e1e <i2c_request_memory_read+0x17e>
 8001dfc:	68fb      	ldr	r3, [r7, #12]
 8001dfe:	6b9b      	ldr	r3, [r3, #56]	; 0x38
 8001e00:	2b04      	cmp	r3, #4
 8001e02:	d10a      	bne.n	8001e1a <i2c_request_memory_read+0x17a>
 8001e04:	68fb      	ldr	r3, [r7, #12]
 8001e06:	681b      	ldr	r3, [r3, #0]
 8001e08:	68fa      	ldr	r2, [r7, #12]
 8001e0a:	6812      	ldr	r2, [r2, #0]
 8001e0c:	6812      	ldr	r2, [r2, #0]
 8001e0e:	f442 7200 	orr.w	r2, r2, #512	; 0x200
 8001e12:	601a      	str	r2, [r3, #0]
 8001e14:	2301      	movs	r3, #1
 8001e16:	75fb      	strb	r3, [r7, #23]
 8001e18:	e001      	b.n	8001e1e <i2c_request_memory_read+0x17e>
 8001e1a:	2303      	movs	r3, #3
 8001e1c:	75fb      	strb	r3, [r7, #23]
 8001e1e:	7dfb      	ldrb	r3, [r7, #23]
 8001e20:	2b00      	cmp	r3, #0
 8001e22:	d115      	bne.n	8001e50 <i2c_request_memory_read+0x1b0>
 8001e24:	68fb      	ldr	r3, [r7, #12]
 8001e26:	681b      	ldr	r3, [r3, #0]
 8001e28:	68fa      	ldr	r2, [r7, #12]
 8001e2a:	6812      	ldr	r2, [r2, #0]
 8001e2c:	6812      	ldr	r2, [r2, #0]
 8001e2e:	f442 7280 	orr.w	r2, r2, #256	; 0x100
 8001e32:	601a      	str	r2, [r3, #0]
 8001e34:	6a7b      	ldr	r3, [r7, #36]	; 0x24
 8001e36:	9300      	str	r3, [sp, #0]
 8001e38:	6a3b      	ldr	r3, [r7, #32]
 8001e3a:	2200      	movs	r2, #0
 8001e3c:	f04f 1101 	mov.w	r1, #65537	; 0x10001
 8001e40:	68f8      	ldr	r0, [r7, #12]
 8001e42:	f000 f829 	bl	8001e98 <i2c_wait_on_flag_until_timeout>
 8001e46:	4603      	mov	r3, r0
 8001e48:	2b00      	cmp	r3, #0
 8001e4a:	d001      	beq.n	8001e50 <i2c_request_memory_read+0x1b0>
 8001e4c:	2303      	movs	r3, #3
 8001e4e:	75fb      	strb	r3, [r7, #23]
 8001e50:	7dfb      	ldrb	r3, [r7, #23]
 8001e52:	2b00      	cmp	r3, #0
 8001e54:	d119      	bne.n	8001e8a <i2c_request_memory_read+0x1ea>
 8001e56:	68fb      	ldr	r3, [r7, #12]
 8001e58:	681b      	ldr	r3, [r3, #0]
 8001e5a:	897a      	ldrh	r2, [r7, #10]
 8001e5c:	b2d2      	uxtb	r2, r2
 8001e5e:	f042 0201 	orr.w	r2, r2, #1
 8001e62:	b2d2      	uxtb	r2, r2
 8001e64:	611a      	str	r2, [r3, #16]
 8001e66:	6a7b      	ldr	r3, [r7, #36]	; 0x24
 8001e68:	6a3a      	ldr	r2, [r7, #32]
 8001e6a:	490a      	ldr	r1, [pc, #40]	; (8001e94 <i2c_request_memory_read+0x1f4>)
 8001e6c:	68f8      	ldr	r0, [r7, #12]
 8001e6e:	f000 f90d 	bl	800208c <i2c_wait_on_master_address_flag_until_timeout>
 8001e72:	4603      	mov	r3, r0
 8001e74:	2b00      	cmp	r3, #0
 8001e76:	d008      	beq.n	8001e8a <i2c_request_memory_read+0x1ea>
 8001e78:	68fb      	ldr	r3, [r7, #12]
 8001e7a:	6b9b      	ldr	r3, [r3, #56]	; 0x38
 8001e7c:	2b04      	cmp	r3, #4
 8001e7e:	d102      	bne.n	8001e86 <i2c_request_memory_read+0x1e6>
 8001e80:	2301      	movs	r3, #1
 8001e82:	75fb      	strb	r3, [r7, #23]
 8001e84:	e001      	b.n	8001e8a <i2c_request_memory_read+0x1ea>
 8001e86:	2303      	movs	r3, #3
 8001e88:	75fb      	strb	r3, [r7, #23]
 8001e8a:	7dfb      	ldrb	r3, [r7, #23]
 8001e8c:	4618      	mov	r0, r3
 8001e8e:	3718      	adds	r7, #24
 8001e90:	46bd      	mov	sp, r7
 8001e92:	bd80      	pop	{r7, pc}
 8001e94:	00010002 	.word	0x00010002

08001e98 <i2c_wait_on_flag_until_timeout>:
 8001e98:	b580      	push	{r7, lr}
 8001e9a:	b086      	sub	sp, #24
 8001e9c:	af00      	add	r7, sp, #0
 8001e9e:	60f8      	str	r0, [r7, #12]
 8001ea0:	60b9      	str	r1, [r7, #8]
 8001ea2:	603b      	str	r3, [r7, #0]
 8001ea4:	4613      	mov	r3, r2
 8001ea6:	71fb      	strb	r3, [r7, #7]
 8001ea8:	2300      	movs	r3, #0
 8001eaa:	75fb      	strb	r3, [r7, #23]
 8001eac:	2300      	movs	r3, #0
 8001eae:	75bb      	strb	r3, [r7, #22]
 8001eb0:	68fb      	ldr	r3, [r7, #12]
 8001eb2:	2b00      	cmp	r3, #0
 8001eb4:	f000 80c7 	beq.w	8002046 <i2c_wait_on_flag_until_timeout+0x1ae>
 8001eb8:	68bb      	ldr	r3, [r7, #8]
 8001eba:	f5b3 3fc0 	cmp.w	r3, #98304	; 0x18000
 8001ebe:	d04f      	beq.n	8001f60 <i2c_wait_on_flag_until_timeout+0xc8>
 8001ec0:	68bb      	ldr	r3, [r7, #8]
 8001ec2:	f5b3 3fa0 	cmp.w	r3, #81920	; 0x14000
 8001ec6:	d04b      	beq.n	8001f60 <i2c_wait_on_flag_until_timeout+0xc8>
 8001ec8:	68bb      	ldr	r3, [r7, #8]
 8001eca:	f5b3 3f88 	cmp.w	r3, #69632	; 0x11000
 8001ece:	d047      	beq.n	8001f60 <i2c_wait_on_flag_until_timeout+0xc8>
 8001ed0:	68bb      	ldr	r3, [r7, #8]
 8001ed2:	f5b3 3f84 	cmp.w	r3, #67584	; 0x10800
 8001ed6:	d043      	beq.n	8001f60 <i2c_wait_on_flag_until_timeout+0xc8>
 8001ed8:	68bb      	ldr	r3, [r7, #8]
 8001eda:	f5b3 3f82 	cmp.w	r3, #66560	; 0x10400
 8001ede:	d03f      	beq.n	8001f60 <i2c_wait_on_flag_until_timeout+0xc8>
 8001ee0:	68bb      	ldr	r3, [r7, #8]
 8001ee2:	f5b3 3f81 	cmp.w	r3, #66048	; 0x10200
 8001ee6:	d03b      	beq.n	8001f60 <i2c_wait_on_flag_until_timeout+0xc8>
 8001ee8:	68bb      	ldr	r3, [r7, #8]
 8001eea:	4a5b      	ldr	r2, [pc, #364]	; (8002058 <i2c_wait_on_flag_until_timeout+0x1c0>)
 8001eec:	4293      	cmp	r3, r2
 8001eee:	d037      	beq.n	8001f60 <i2c_wait_on_flag_until_timeout+0xc8>
 8001ef0:	68bb      	ldr	r3, [r7, #8]
 8001ef2:	4a5a      	ldr	r2, [pc, #360]	; (800205c <i2c_wait_on_flag_until_timeout+0x1c4>)
 8001ef4:	4293      	cmp	r3, r2
 8001ef6:	d033      	beq.n	8001f60 <i2c_wait_on_flag_until_timeout+0xc8>
 8001ef8:	68bb      	ldr	r3, [r7, #8]
 8001efa:	4a59      	ldr	r2, [pc, #356]	; (8002060 <i2c_wait_on_flag_until_timeout+0x1c8>)
 8001efc:	4293      	cmp	r3, r2
 8001efe:	d02f      	beq.n	8001f60 <i2c_wait_on_flag_until_timeout+0xc8>
 8001f00:	68bb      	ldr	r3, [r7, #8]
 8001f02:	4a58      	ldr	r2, [pc, #352]	; (8002064 <i2c_wait_on_flag_until_timeout+0x1cc>)
 8001f04:	4293      	cmp	r3, r2
 8001f06:	d02b      	beq.n	8001f60 <i2c_wait_on_flag_until_timeout+0xc8>
 8001f08:	68bb      	ldr	r3, [r7, #8]
 8001f0a:	4a57      	ldr	r2, [pc, #348]	; (8002068 <i2c_wait_on_flag_until_timeout+0x1d0>)
 8001f0c:	4293      	cmp	r3, r2
 8001f0e:	d027      	beq.n	8001f60 <i2c_wait_on_flag_until_timeout+0xc8>
 8001f10:	68bb      	ldr	r3, [r7, #8]
 8001f12:	4a56      	ldr	r2, [pc, #344]	; (800206c <i2c_wait_on_flag_until_timeout+0x1d4>)
 8001f14:	4293      	cmp	r3, r2
 8001f16:	d023      	beq.n	8001f60 <i2c_wait_on_flag_until_timeout+0xc8>
 8001f18:	68bb      	ldr	r3, [r7, #8]
 8001f1a:	4a55      	ldr	r2, [pc, #340]	; (8002070 <i2c_wait_on_flag_until_timeout+0x1d8>)
 8001f1c:	4293      	cmp	r3, r2
 8001f1e:	d01f      	beq.n	8001f60 <i2c_wait_on_flag_until_timeout+0xc8>
 8001f20:	68bb      	ldr	r3, [r7, #8]
 8001f22:	f1b3 1f01 	cmp.w	r3, #65537	; 0x10001
 8001f26:	d01b      	beq.n	8001f60 <i2c_wait_on_flag_until_timeout+0xc8>
 8001f28:	68bb      	ldr	r3, [r7, #8]
 8001f2a:	4a52      	ldr	r2, [pc, #328]	; (8002074 <i2c_wait_on_flag_until_timeout+0x1dc>)
 8001f2c:	4293      	cmp	r3, r2
 8001f2e:	d017      	beq.n	8001f60 <i2c_wait_on_flag_until_timeout+0xc8>
 8001f30:	68bb      	ldr	r3, [r7, #8]
 8001f32:	4a51      	ldr	r2, [pc, #324]	; (8002078 <i2c_wait_on_flag_until_timeout+0x1e0>)
 8001f34:	4293      	cmp	r3, r2
 8001f36:	d013      	beq.n	8001f60 <i2c_wait_on_flag_until_timeout+0xc8>
 8001f38:	68bb      	ldr	r3, [r7, #8]
 8001f3a:	4a50      	ldr	r2, [pc, #320]	; (800207c <i2c_wait_on_flag_until_timeout+0x1e4>)
 8001f3c:	4293      	cmp	r3, r2
 8001f3e:	d00f      	beq.n	8001f60 <i2c_wait_on_flag_until_timeout+0xc8>
 8001f40:	68bb      	ldr	r3, [r7, #8]
 8001f42:	f1b3 1f10 	cmp.w	r3, #1048592	; 0x100010
 8001f46:	d00b      	beq.n	8001f60 <i2c_wait_on_flag_until_timeout+0xc8>
 8001f48:	68bb      	ldr	r3, [r7, #8]
 8001f4a:	4a4d      	ldr	r2, [pc, #308]	; (8002080 <i2c_wait_on_flag_until_timeout+0x1e8>)
 8001f4c:	4293      	cmp	r3, r2
 8001f4e:	d007      	beq.n	8001f60 <i2c_wait_on_flag_until_timeout+0xc8>
 8001f50:	68bb      	ldr	r3, [r7, #8]
 8001f52:	4a4c      	ldr	r2, [pc, #304]	; (8002084 <i2c_wait_on_flag_until_timeout+0x1ec>)
 8001f54:	4293      	cmp	r3, r2
 8001f56:	d003      	beq.n	8001f60 <i2c_wait_on_flag_until_timeout+0xc8>
 8001f58:	68bb      	ldr	r3, [r7, #8]
 8001f5a:	4a4b      	ldr	r2, [pc, #300]	; (8002088 <i2c_wait_on_flag_until_timeout+0x1f0>)
 8001f5c:	4293      	cmp	r3, r2
 8001f5e:	d101      	bne.n	8001f64 <i2c_wait_on_flag_until_timeout+0xcc>
 8001f60:	2301      	movs	r3, #1
 8001f62:	e000      	b.n	8001f66 <i2c_wait_on_flag_until_timeout+0xce>
 8001f64:	2300      	movs	r3, #0
 8001f66:	2b01      	cmp	r3, #1
 8001f68:	d16d      	bne.n	8002046 <i2c_wait_on_flag_until_timeout+0x1ae>
 8001f6a:	79fb      	ldrb	r3, [r7, #7]
 8001f6c:	2b01      	cmp	r3, #1
 8001f6e:	d002      	beq.n	8001f76 <i2c_wait_on_flag_until_timeout+0xde>
 8001f70:	79fb      	ldrb	r3, [r7, #7]
 8001f72:	2b00      	cmp	r3, #0
 8001f74:	d167      	bne.n	8002046 <i2c_wait_on_flag_until_timeout+0x1ae>
 8001f76:	68bb      	ldr	r3, [r7, #8]
 8001f78:	0c1b      	lsrs	r3, r3, #16
 8001f7a:	b2db      	uxtb	r3, r3
 8001f7c:	2b01      	cmp	r3, #1
 8001f7e:	d10c      	bne.n	8001f9a <i2c_wait_on_flag_until_timeout+0x102>
 8001f80:	68fb      	ldr	r3, [r7, #12]
 8001f82:	681b      	ldr	r3, [r3, #0]
 8001f84:	695b      	ldr	r3, [r3, #20]
 8001f86:	43da      	mvns	r2, r3
 8001f88:	68bb      	ldr	r3, [r7, #8]
 8001f8a:	4013      	ands	r3, r2
 8001f8c:	b29b      	uxth	r3, r3
 8001f8e:	2b00      	cmp	r3, #0
 8001f90:	bf0c      	ite	eq
 8001f92:	2301      	moveq	r3, #1
 8001f94:	2300      	movne	r3, #0
 8001f96:	b2db      	uxtb	r3, r3
 8001f98:	e00b      	b.n	8001fb2 <i2c_wait_on_flag_until_timeout+0x11a>
 8001f9a:	68fb      	ldr	r3, [r7, #12]
 8001f9c:	681b      	ldr	r3, [r3, #0]
 8001f9e:	699b      	ldr	r3, [r3, #24]
 8001fa0:	43da      	mvns	r2, r3
 8001fa2:	68bb      	ldr	r3, [r7, #8]
 8001fa4:	4013      	ands	r3, r2
 8001fa6:	b29b      	uxth	r3, r3
 8001fa8:	2b00      	cmp	r3, #0
 8001faa:	bf0c      	ite	eq
 8001fac:	2301      	moveq	r3, #1
 8001fae:	2300      	movne	r3, #0
 8001fb0:	b2db      	uxtb	r3, r3
 8001fb2:	2b00      	cmp	r3, #0
 8001fb4:	d002      	beq.n	8001fbc <i2c_wait_on_flag_until_timeout+0x124>
 8001fb6:	2301      	movs	r3, #1
 8001fb8:	75bb      	strb	r3, [r7, #22]
 8001fba:	e03c      	b.n	8002036 <i2c_wait_on_flag_until_timeout+0x19e>
 8001fbc:	2300      	movs	r3, #0
 8001fbe:	75bb      	strb	r3, [r7, #22]
 8001fc0:	e039      	b.n	8002036 <i2c_wait_on_flag_until_timeout+0x19e>
 8001fc2:	f000 fcd9 	bl	8002978 <HAL_GetTick>
 8001fc6:	4602      	mov	r2, r0
 8001fc8:	6a3b      	ldr	r3, [r7, #32]
 8001fca:	1ad2      	subs	r2, r2, r3
 8001fcc:	683b      	ldr	r3, [r7, #0]
 8001fce:	429a      	cmp	r2, r3
 8001fd0:	d90c      	bls.n	8001fec <i2c_wait_on_flag_until_timeout+0x154>
 8001fd2:	68fb      	ldr	r3, [r7, #12]
 8001fd4:	2200      	movs	r2, #0
 8001fd6:	631a      	str	r2, [r3, #48]	; 0x30
 8001fd8:	68fb      	ldr	r3, [r7, #12]
 8001fda:	2220      	movs	r2, #32
 8001fdc:	f883 2034 	strb.w	r2, [r3, #52]	; 0x34
 8001fe0:	68fb      	ldr	r3, [r7, #12]
 8001fe2:	2200      	movs	r2, #0
 8001fe4:	f883 2035 	strb.w	r2, [r3, #53]	; 0x35
 8001fe8:	2303      	movs	r3, #3
 8001fea:	75fb      	strb	r3, [r7, #23]
 8001fec:	68bb      	ldr	r3, [r7, #8]
 8001fee:	0c1b      	lsrs	r3, r3, #16
 8001ff0:	b2db      	uxtb	r3, r3
 8001ff2:	2b01      	cmp	r3, #1
 8001ff4:	d10c      	bne.n	8002010 <i2c_wait_on_flag_until_timeout+0x178>
 8001ff6:	68fb      	ldr	r3, [r7, #12]
 8001ff8:	681b      	ldr	r3, [r3, #0]
 8001ffa:	695b      	ldr	r3, [r3, #20]
 8001ffc:	43da      	mvns	r2, r3
 8001ffe:	68bb      	ldr	r3, [r7, #8]
 8002000:	4013      	ands	r3, r2
 8002002:	b29b      	uxth	r3, r3
 8002004:	2b00      	cmp	r3, #0
 8002006:	bf0c      	ite	eq
 8002008:	2301      	moveq	r3, #1
 800200a:	2300      	movne	r3, #0
 800200c:	b2db      	uxtb	r3, r3
 800200e:	e00b      	b.n	8002028 <i2c_wait_on_flag_until_timeout+0x190>
 8002010:	68fb      	ldr	r3, [r7, #12]
 8002012:	681b      	ldr	r3, [r3, #0]
 8002014:	699b      	ldr	r3, [r3, #24]
 8002016:	43da      	mvns	r2, r3
 8002018:	68bb      	ldr	r3, [r7, #8]
 800201a:	4013      	ands	r3, r2
 800201c:	b29b      	uxth	r3, r3
 800201e:	2b00      	cmp	r3, #0
 8002020:	bf0c      	ite	eq
 8002022:	2301      	moveq	r3, #1
 8002024:	2300      	movne	r3, #0
 8002026:	b2db      	uxtb	r3, r3
 8002028:	2b00      	cmp	r3, #0
 800202a:	d002      	beq.n	8002032 <i2c_wait_on_flag_until_timeout+0x19a>
 800202c:	2301      	movs	r3, #1
 800202e:	75bb      	strb	r3, [r7, #22]
 8002030:	e001      	b.n	8002036 <i2c_wait_on_flag_until_timeout+0x19e>
 8002032:	2300      	movs	r3, #0
 8002034:	75bb      	strb	r3, [r7, #22]
 8002036:	7dba      	ldrb	r2, [r7, #22]
 8002038:	79fb      	ldrb	r3, [r7, #7]
 800203a:	429a      	cmp	r2, r3
 800203c:	d106      	bne.n	800204c <i2c_wait_on_flag_until_timeout+0x1b4>
 800203e:	7dfb      	ldrb	r3, [r7, #23]
 8002040:	2b00      	cmp	r3, #0
 8002042:	d0be      	beq.n	8001fc2 <i2c_wait_on_flag_until_timeout+0x12a>
 8002044:	e002      	b.n	800204c <i2c_wait_on_flag_until_timeout+0x1b4>
 8002046:	2301      	movs	r3, #1
 8002048:	75fb      	strb	r3, [r7, #23]
 800204a:	e000      	b.n	800204e <i2c_wait_on_flag_until_timeout+0x1b6>
 800204c:	bf00      	nop
 800204e:	7dfb      	ldrb	r3, [r7, #23]
 8002050:	4618      	mov	r0, r3
 8002052:	3718      	adds	r7, #24
 8002054:	46bd      	mov	sp, r7
 8002056:	bd80      	pop	{r7, pc}
 8002058:	00010100 	.word	0x00010100
 800205c:	00010080 	.word	0x00010080
 8002060:	00010040 	.word	0x00010040
 8002064:	00010010 	.word	0x00010010
 8002068:	00010008 	.word	0x00010008
 800206c:	00010004 	.word	0x00010004
 8002070:	00010002 	.word	0x00010002
 8002074:	00100080 	.word	0x00100080
 8002078:	00100040 	.word	0x00100040
 800207c:	00100020 	.word	0x00100020
 8002080:	00100004 	.word	0x00100004
 8002084:	00100002 	.word	0x00100002
 8002088:	00100001 	.word	0x00100001

0800208c <i2c_wait_on_master_address_flag_until_timeout>:
 800208c:	b580      	push	{r7, lr}
 800208e:	b086      	sub	sp, #24
 8002090:	af00      	add	r7, sp, #0
 8002092:	60f8      	str	r0, [r7, #12]
 8002094:	60b9      	str	r1, [r7, #8]
 8002096:	607a      	str	r2, [r7, #4]
 8002098:	603b      	str	r3, [r7, #0]
 800209a:	2300      	movs	r3, #0
 800209c:	75fb      	strb	r3, [r7, #23]
 800209e:	68fb      	ldr	r3, [r7, #12]
 80020a0:	2b00      	cmp	r3, #0
 80020a2:	f000 80a8 	beq.w	80021f6 <i2c_wait_on_master_address_flag_until_timeout+0x16a>
 80020a6:	68bb      	ldr	r3, [r7, #8]
 80020a8:	f5b3 3fc0 	cmp.w	r3, #98304	; 0x18000
 80020ac:	d04f      	beq.n	800214e <i2c_wait_on_master_address_flag_until_timeout+0xc2>
 80020ae:	68bb      	ldr	r3, [r7, #8]
 80020b0:	f5b3 3fa0 	cmp.w	r3, #81920	; 0x14000
 80020b4:	d04b      	beq.n	800214e <i2c_wait_on_master_address_flag_until_timeout+0xc2>
 80020b6:	68bb      	ldr	r3, [r7, #8]
 80020b8:	f5b3 3f88 	cmp.w	r3, #69632	; 0x11000
 80020bc:	d047      	beq.n	800214e <i2c_wait_on_master_address_flag_until_timeout+0xc2>
 80020be:	68bb      	ldr	r3, [r7, #8]
 80020c0:	f5b3 3f84 	cmp.w	r3, #67584	; 0x10800
 80020c4:	d043      	beq.n	800214e <i2c_wait_on_master_address_flag_until_timeout+0xc2>
 80020c6:	68bb      	ldr	r3, [r7, #8]
 80020c8:	f5b3 3f82 	cmp.w	r3, #66560	; 0x10400
 80020cc:	d03f      	beq.n	800214e <i2c_wait_on_master_address_flag_until_timeout+0xc2>
 80020ce:	68bb      	ldr	r3, [r7, #8]
 80020d0:	f5b3 3f81 	cmp.w	r3, #66048	; 0x10200
 80020d4:	d03b      	beq.n	800214e <i2c_wait_on_master_address_flag_until_timeout+0xc2>
 80020d6:	68bb      	ldr	r3, [r7, #8]
 80020d8:	4a4b      	ldr	r2, [pc, #300]	; (8002208 <i2c_wait_on_master_address_flag_until_timeout+0x17c>)
 80020da:	4293      	cmp	r3, r2
 80020dc:	d037      	beq.n	800214e <i2c_wait_on_master_address_flag_until_timeout+0xc2>
 80020de:	68bb      	ldr	r3, [r7, #8]
 80020e0:	4a4a      	ldr	r2, [pc, #296]	; (800220c <i2c_wait_on_master_address_flag_until_timeout+0x180>)
 80020e2:	4293      	cmp	r3, r2
 80020e4:	d033      	beq.n	800214e <i2c_wait_on_master_address_flag_until_timeout+0xc2>
 80020e6:	68bb      	ldr	r3, [r7, #8]
 80020e8:	4a49      	ldr	r2, [pc, #292]	; (8002210 <i2c_wait_on_master_address_flag_until_timeout+0x184>)
 80020ea:	4293      	cmp	r3, r2
 80020ec:	d02f      	beq.n	800214e <i2c_wait_on_master_address_flag_until_timeout+0xc2>
 80020ee:	68bb      	ldr	r3, [r7, #8]
 80020f0:	4a48      	ldr	r2, [pc, #288]	; (8002214 <i2c_wait_on_master_address_flag_until_timeout+0x188>)
 80020f2:	4293      	cmp	r3, r2
 80020f4:	d02b      	beq.n	800214e <i2c_wait_on_master_address_flag_until_timeout+0xc2>
 80020f6:	68bb      	ldr	r3, [r7, #8]
 80020f8:	4a47      	ldr	r2, [pc, #284]	; (8002218 <i2c_wait_on_master_address_flag_until_timeout+0x18c>)
 80020fa:	4293      	cmp	r3, r2
 80020fc:	d027      	beq.n	800214e <i2c_wait_on_master_address_flag_until_timeout+0xc2>
 80020fe:	68bb      	ldr	r3, [r7, #8]
 8002100:	4a46      	ldr	r2, [pc, #280]	; (800221c <i2c_wait_on_master_address_flag_until_timeout+0x190>)
 8002102:	4293      	cmp	r3, r2
 8002104:	d023      	beq.n	800214e <i2c_wait_on_master_address_flag_until_timeout+0xc2>
 8002106:	68bb      	ldr	r3, [r7, #8]
 8002108:	4a45      	ldr	r2, [pc, #276]	; (8002220 <i2c_wait_on_master_address_flag_until_timeout+0x194>)
 800210a:	4293      	cmp	r3, r2
 800210c:	d01f      	beq.n	800214e <i2c_wait_on_master_address_flag_until_timeout+0xc2>
 800210e:	68bb      	ldr	r3, [r7, #8]
 8002110:	f1b3 1f01 	cmp.w	r3, #65537	; 0x10001
 8002114:	d01b      	beq.n	800214e <i2c_wait_on_master_address_flag_until_timeout+0xc2>
 8002116:	68bb      	ldr	r3, [r7, #8]
 8002118:	4a42      	ldr	r2, [pc, #264]	; (8002224 <i2c_wait_on_master_address_flag_until_timeout+0x198>)
 800211a:	4293      	cmp	r3, r2
 800211c:	d017      	beq.n	800214e <i2c_wait_on_master_address_flag_until_timeout+0xc2>
 800211e:	68bb      	ldr	r3, [r7, #8]
 8002120:	4a41      	ldr	r2, [pc, #260]	; (8002228 <i2c_wait_on_master_address_flag_until_timeout+0x19c>)
 8002122:	4293      	cmp	r3, r2
 8002124:	d013      	beq.n	800214e <i2c_wait_on_master_address_flag_until_timeout+0xc2>
 8002126:	68bb      	ldr	r3, [r7, #8]
 8002128:	4a40      	ldr	r2, [pc, #256]	; (800222c <i2c_wait_on_master_address_flag_until_timeout+0x1a0>)
 800212a:	4293      	cmp	r3, r2
 800212c:	d00f      	beq.n	800214e <i2c_wait_on_master_address_flag_until_timeout+0xc2>
 800212e:	68bb      	ldr	r3, [r7, #8]
 8002130:	f1b3 1f10 	cmp.w	r3, #1048592	; 0x100010
 8002134:	d00b      	beq.n	800214e <i2c_wait_on_master_address_flag_until_timeout+0xc2>
 8002136:	68bb      	ldr	r3, [r7, #8]
 8002138:	4a3d      	ldr	r2, [pc, #244]	; (8002230 <i2c_wait_on_master_address_flag_until_timeout+0x1a4>)
 800213a:	4293      	cmp	r3, r2
 800213c:	d007      	beq.n	800214e <i2c_wait_on_master_address_flag_until_timeout+0xc2>
 800213e:	68bb      	ldr	r3, [r7, #8]
 8002140:	4a3c      	ldr	r2, [pc, #240]	; (8002234 <i2c_wait_on_master_address_flag_until_timeout+0x1a8>)
 8002142:	4293      	cmp	r3, r2
 8002144:	d003      	beq.n	800214e <i2c_wait_on_master_address_flag_until_timeout+0xc2>
 8002146:	68bb      	ldr	r3, [r7, #8]
 8002148:	4a3b      	ldr	r2, [pc, #236]	; (8002238 <i2c_wait_on_master_address_flag_until_timeout+0x1ac>)
 800214a:	4293      	cmp	r3, r2
 800214c:	d101      	bne.n	8002152 <i2c_wait_on_master_address_flag_until_timeout+0xc6>
 800214e:	2301      	movs	r3, #1
 8002150:	e000      	b.n	8002154 <i2c_wait_on_master_address_flag_until_timeout+0xc8>
 8002152:	2300      	movs	r3, #0
 8002154:	2b01      	cmp	r3, #1
 8002156:	d14e      	bne.n	80021f6 <i2c_wait_on_master_address_flag_until_timeout+0x16a>
 8002158:	e031      	b.n	80021be <i2c_wait_on_master_address_flag_until_timeout+0x132>
 800215a:	68fb      	ldr	r3, [r7, #12]
 800215c:	681b      	ldr	r3, [r3, #0]
 800215e:	695b      	ldr	r3, [r3, #20]
 8002160:	f403 6380 	and.w	r3, r3, #1024	; 0x400
 8002164:	f5b3 6f80 	cmp.w	r3, #1024	; 0x400
 8002168:	d118      	bne.n	800219c <i2c_wait_on_master_address_flag_until_timeout+0x110>
 800216a:	68fb      	ldr	r3, [r7, #12]
 800216c:	681b      	ldr	r3, [r3, #0]
 800216e:	68fa      	ldr	r2, [r7, #12]
 8002170:	6812      	ldr	r2, [r2, #0]
 8002172:	6812      	ldr	r2, [r2, #0]
 8002174:	f442 7200 	orr.w	r2, r2, #512	; 0x200
 8002178:	601a      	str	r2, [r3, #0]
 800217a:	68fb      	ldr	r3, [r7, #12]
 800217c:	681b      	ldr	r3, [r3, #0]
 800217e:	f46f 6280 	mvn.w	r2, #1024	; 0x400
 8002182:	615a      	str	r2, [r3, #20]
 8002184:	68fb      	ldr	r3, [r7, #12]
 8002186:	2204      	movs	r2, #4
 8002188:	639a      	str	r2, [r3, #56]	; 0x38
 800218a:	68fb      	ldr	r3, [r7, #12]
 800218c:	2200      	movs	r2, #0
 800218e:	631a      	str	r2, [r3, #48]	; 0x30
 8002190:	68fb      	ldr	r3, [r7, #12]
 8002192:	2220      	movs	r2, #32
 8002194:	f883 2034 	strb.w	r2, [r3, #52]	; 0x34
 8002198:	2301      	movs	r3, #1
 800219a:	75fb      	strb	r3, [r7, #23]
 800219c:	f000 fbec 	bl	8002978 <HAL_GetTick>
 80021a0:	4602      	mov	r2, r0
 80021a2:	683b      	ldr	r3, [r7, #0]
 80021a4:	1ad2      	subs	r2, r2, r3
 80021a6:	687b      	ldr	r3, [r7, #4]
 80021a8:	429a      	cmp	r2, r3
 80021aa:	d908      	bls.n	80021be <i2c_wait_on_master_address_flag_until_timeout+0x132>
 80021ac:	68fb      	ldr	r3, [r7, #12]
 80021ae:	2200      	movs	r2, #0
 80021b0:	631a      	str	r2, [r3, #48]	; 0x30
 80021b2:	68fb      	ldr	r3, [r7, #12]
 80021b4:	2220      	movs	r2, #32
 80021b6:	f883 2034 	strb.w	r2, [r3, #52]	; 0x34
 80021ba:	2303      	movs	r3, #3
 80021bc:	75fb      	strb	r3, [r7, #23]
 80021be:	68bb      	ldr	r3, [r7, #8]
 80021c0:	0c1b      	lsrs	r3, r3, #16
 80021c2:	b2db      	uxtb	r3, r3
 80021c4:	2b01      	cmp	r3, #1
 80021c6:	d109      	bne.n	80021dc <i2c_wait_on_master_address_flag_until_timeout+0x150>
 80021c8:	68fb      	ldr	r3, [r7, #12]
 80021ca:	681b      	ldr	r3, [r3, #0]
 80021cc:	695b      	ldr	r3, [r3, #20]
 80021ce:	43da      	mvns	r2, r3
 80021d0:	68bb      	ldr	r3, [r7, #8]
 80021d2:	4013      	ands	r3, r2
 80021d4:	b29b      	uxth	r3, r3
 80021d6:	2b00      	cmp	r3, #0
 80021d8:	d109      	bne.n	80021ee <i2c_wait_on_master_address_flag_until_timeout+0x162>
 80021da:	e00f      	b.n	80021fc <i2c_wait_on_master_address_flag_until_timeout+0x170>
 80021dc:	68fb      	ldr	r3, [r7, #12]
 80021de:	681b      	ldr	r3, [r3, #0]
 80021e0:	699b      	ldr	r3, [r3, #24]
 80021e2:	43da      	mvns	r2, r3
 80021e4:	68bb      	ldr	r3, [r7, #8]
 80021e6:	4013      	ands	r3, r2
 80021e8:	b29b      	uxth	r3, r3
 80021ea:	2b00      	cmp	r3, #0
 80021ec:	d006      	beq.n	80021fc <i2c_wait_on_master_address_flag_until_timeout+0x170>
 80021ee:	7dfb      	ldrb	r3, [r7, #23]
 80021f0:	2b00      	cmp	r3, #0
 80021f2:	d0b2      	beq.n	800215a <i2c_wait_on_master_address_flag_until_timeout+0xce>
 80021f4:	e002      	b.n	80021fc <i2c_wait_on_master_address_flag_until_timeout+0x170>
 80021f6:	2301      	movs	r3, #1
 80021f8:	75fb      	strb	r3, [r7, #23]
 80021fa:	e000      	b.n	80021fe <i2c_wait_on_master_address_flag_until_timeout+0x172>
 80021fc:	bf00      	nop
 80021fe:	7dfb      	ldrb	r3, [r7, #23]
 8002200:	4618      	mov	r0, r3
 8002202:	3718      	adds	r7, #24
 8002204:	46bd      	mov	sp, r7
 8002206:	bd80      	pop	{r7, pc}
 8002208:	00010100 	.word	0x00010100
 800220c:	00010080 	.word	0x00010080
 8002210:	00010040 	.word	0x00010040
 8002214:	00010010 	.word	0x00010010
 8002218:	00010008 	.word	0x00010008
 800221c:	00010004 	.word	0x00010004
 8002220:	00010002 	.word	0x00010002
 8002224:	00100080 	.word	0x00100080
 8002228:	00100040 	.word	0x00100040
 800222c:	00100020 	.word	0x00100020
 8002230:	00100004 	.word	0x00100004
 8002234:	00100002 	.word	0x00100002
 8002238:	00100001 	.word	0x00100001

0800223c <i2c_wait_on_txe_flag_until_timeout>:
 800223c:	b580      	push	{r7, lr}
 800223e:	b086      	sub	sp, #24
 8002240:	af00      	add	r7, sp, #0
 8002242:	60f8      	str	r0, [r7, #12]
 8002244:	60b9      	str	r1, [r7, #8]
 8002246:	607a      	str	r2, [r7, #4]
 8002248:	2300      	movs	r3, #0
 800224a:	75fb      	strb	r3, [r7, #23]
 800224c:	68fb      	ldr	r3, [r7, #12]
 800224e:	2b00      	cmp	r3, #0
 8002250:	d02a      	beq.n	80022a8 <i2c_wait_on_txe_flag_until_timeout+0x6c>
 8002252:	e01e      	b.n	8002292 <i2c_wait_on_txe_flag_until_timeout+0x56>
 8002254:	68f8      	ldr	r0, [r7, #12]
 8002256:	f000 f8b8 	bl	80023ca <i2c_is_acknowledge_failed>
 800225a:	4603      	mov	r3, r0
 800225c:	75fb      	strb	r3, [r7, #23]
 800225e:	7dfb      	ldrb	r3, [r7, #23]
 8002260:	2b00      	cmp	r3, #0
 8002262:	d116      	bne.n	8002292 <i2c_wait_on_txe_flag_until_timeout+0x56>
 8002264:	f000 fb88 	bl	8002978 <HAL_GetTick>
 8002268:	4602      	mov	r2, r0
 800226a:	687b      	ldr	r3, [r7, #4]
 800226c:	1ad2      	subs	r2, r2, r3
 800226e:	68bb      	ldr	r3, [r7, #8]
 8002270:	429a      	cmp	r2, r3
 8002272:	d90e      	bls.n	8002292 <i2c_wait_on_txe_flag_until_timeout+0x56>
 8002274:	68fb      	ldr	r3, [r7, #12]
 8002276:	6b9b      	ldr	r3, [r3, #56]	; 0x38
 8002278:	f043 0220 	orr.w	r2, r3, #32
 800227c:	68fb      	ldr	r3, [r7, #12]
 800227e:	639a      	str	r2, [r3, #56]	; 0x38
 8002280:	68fb      	ldr	r3, [r7, #12]
 8002282:	2200      	movs	r2, #0
 8002284:	631a      	str	r2, [r3, #48]	; 0x30
 8002286:	68fb      	ldr	r3, [r7, #12]
 8002288:	2220      	movs	r2, #32
 800228a:	f883 2034 	strb.w	r2, [r3, #52]	; 0x34
 800228e:	2303      	movs	r3, #3
 8002290:	75fb      	strb	r3, [r7, #23]
 8002292:	68fb      	ldr	r3, [r7, #12]
 8002294:	681b      	ldr	r3, [r3, #0]
 8002296:	695b      	ldr	r3, [r3, #20]
 8002298:	f003 0380 	and.w	r3, r3, #128	; 0x80
 800229c:	2b80      	cmp	r3, #128	; 0x80
 800229e:	d005      	beq.n	80022ac <i2c_wait_on_txe_flag_until_timeout+0x70>
 80022a0:	7dfb      	ldrb	r3, [r7, #23]
 80022a2:	2b00      	cmp	r3, #0
 80022a4:	d0d6      	beq.n	8002254 <i2c_wait_on_txe_flag_until_timeout+0x18>
 80022a6:	e001      	b.n	80022ac <i2c_wait_on_txe_flag_until_timeout+0x70>
 80022a8:	2301      	movs	r3, #1
 80022aa:	75fb      	strb	r3, [r7, #23]
 80022ac:	7dfb      	ldrb	r3, [r7, #23]
 80022ae:	4618      	mov	r0, r3
 80022b0:	3718      	adds	r7, #24
 80022b2:	46bd      	mov	sp, r7
 80022b4:	bd80      	pop	{r7, pc}

080022b6 <i2c_wait_on_btf_flag_until_timeout>:
 80022b6:	b580      	push	{r7, lr}
 80022b8:	b086      	sub	sp, #24
 80022ba:	af00      	add	r7, sp, #0
 80022bc:	60f8      	str	r0, [r7, #12]
 80022be:	60b9      	str	r1, [r7, #8]
 80022c0:	607a      	str	r2, [r7, #4]
 80022c2:	2300      	movs	r3, #0
 80022c4:	75fb      	strb	r3, [r7, #23]
 80022c6:	68fb      	ldr	r3, [r7, #12]
 80022c8:	2b00      	cmp	r3, #0
 80022ca:	d02a      	beq.n	8002322 <i2c_wait_on_btf_flag_until_timeout+0x6c>
 80022cc:	e01e      	b.n	800230c <i2c_wait_on_btf_flag_until_timeout+0x56>
 80022ce:	68f8      	ldr	r0, [r7, #12]
 80022d0:	f000 f87b 	bl	80023ca <i2c_is_acknowledge_failed>
 80022d4:	4603      	mov	r3, r0
 80022d6:	75fb      	strb	r3, [r7, #23]
 80022d8:	7dfb      	ldrb	r3, [r7, #23]
 80022da:	2b00      	cmp	r3, #0
 80022dc:	d116      	bne.n	800230c <i2c_wait_on_btf_flag_until_timeout+0x56>
 80022de:	f000 fb4b 	bl	8002978 <HAL_GetTick>
 80022e2:	4602      	mov	r2, r0
 80022e4:	687b      	ldr	r3, [r7, #4]
 80022e6:	1ad2      	subs	r2, r2, r3
 80022e8:	68bb      	ldr	r3, [r7, #8]
 80022ea:	429a      	cmp	r2, r3
 80022ec:	d90e      	bls.n	800230c <i2c_wait_on_btf_flag_until_timeout+0x56>
 80022ee:	68fb      	ldr	r3, [r7, #12]
 80022f0:	6b9b      	ldr	r3, [r3, #56]	; 0x38
 80022f2:	f043 0220 	orr.w	r2, r3, #32
 80022f6:	68fb      	ldr	r3, [r7, #12]
 80022f8:	639a      	str	r2, [r3, #56]	; 0x38
 80022fa:	68fb      	ldr	r3, [r7, #12]
 80022fc:	2200      	movs	r2, #0
 80022fe:	631a      	str	r2, [r3, #48]	; 0x30
 8002300:	68fb      	ldr	r3, [r7, #12]
 8002302:	2220      	movs	r2, #32
 8002304:	f883 2034 	strb.w	r2, [r3, #52]	; 0x34
 8002308:	2303      	movs	r3, #3
 800230a:	75fb      	strb	r3, [r7, #23]
 800230c:	68fb      	ldr	r3, [r7, #12]
 800230e:	681b      	ldr	r3, [r3, #0]
 8002310:	695b      	ldr	r3, [r3, #20]
 8002312:	f003 0304 	and.w	r3, r3, #4
 8002316:	2b04      	cmp	r3, #4
 8002318:	d005      	beq.n	8002326 <i2c_wait_on_btf_flag_until_timeout+0x70>
 800231a:	7dfb      	ldrb	r3, [r7, #23]
 800231c:	2b00      	cmp	r3, #0
 800231e:	d0d6      	beq.n	80022ce <i2c_wait_on_btf_flag_until_timeout+0x18>
 8002320:	e001      	b.n	8002326 <i2c_wait_on_btf_flag_until_timeout+0x70>
 8002322:	2301      	movs	r3, #1
 8002324:	75fb      	strb	r3, [r7, #23]
 8002326:	7dfb      	ldrb	r3, [r7, #23]
 8002328:	4618      	mov	r0, r3
 800232a:	3718      	adds	r7, #24
 800232c:	46bd      	mov	sp, r7
 800232e:	bd80      	pop	{r7, pc}

08002330 <i2c_wait_on_rxne_flag_until_timeout>:
 8002330:	b580      	push	{r7, lr}
 8002332:	b086      	sub	sp, #24
 8002334:	af00      	add	r7, sp, #0
 8002336:	60f8      	str	r0, [r7, #12]
 8002338:	60b9      	str	r1, [r7, #8]
 800233a:	607a      	str	r2, [r7, #4]
 800233c:	2300      	movs	r3, #0
 800233e:	75fb      	strb	r3, [r7, #23]
 8002340:	68fb      	ldr	r3, [r7, #12]
 8002342:	2b00      	cmp	r3, #0
 8002344:	d03a      	beq.n	80023bc <i2c_wait_on_rxne_flag_until_timeout+0x8c>
 8002346:	e02e      	b.n	80023a6 <i2c_wait_on_rxne_flag_until_timeout+0x76>
 8002348:	68fb      	ldr	r3, [r7, #12]
 800234a:	681b      	ldr	r3, [r3, #0]
 800234c:	695b      	ldr	r3, [r3, #20]
 800234e:	f003 0310 	and.w	r3, r3, #16
 8002352:	2b10      	cmp	r3, #16
 8002354:	d110      	bne.n	8002378 <i2c_wait_on_rxne_flag_until_timeout+0x48>
 8002356:	68fb      	ldr	r3, [r7, #12]
 8002358:	681b      	ldr	r3, [r3, #0]
 800235a:	f06f 0210 	mvn.w	r2, #16
 800235e:	615a      	str	r2, [r3, #20]
 8002360:	68fb      	ldr	r3, [r7, #12]
 8002362:	2200      	movs	r2, #0
 8002364:	639a      	str	r2, [r3, #56]	; 0x38
 8002366:	68fb      	ldr	r3, [r7, #12]
 8002368:	2200      	movs	r2, #0
 800236a:	631a      	str	r2, [r3, #48]	; 0x30
 800236c:	68fb      	ldr	r3, [r7, #12]
 800236e:	2220      	movs	r2, #32
 8002370:	f883 2034 	strb.w	r2, [r3, #52]	; 0x34
 8002374:	2301      	movs	r3, #1
 8002376:	75fb      	strb	r3, [r7, #23]
 8002378:	7dfb      	ldrb	r3, [r7, #23]
 800237a:	2b00      	cmp	r3, #0
 800237c:	d113      	bne.n	80023a6 <i2c_wait_on_rxne_flag_until_timeout+0x76>
 800237e:	f000 fafb 	bl	8002978 <HAL_GetTick>
 8002382:	4602      	mov	r2, r0
 8002384:	687b      	ldr	r3, [r7, #4]
 8002386:	1ad2      	subs	r2, r2, r3
 8002388:	68bb      	ldr	r3, [r7, #8]
 800238a:	429a      	cmp	r2, r3
 800238c:	d90b      	bls.n	80023a6 <i2c_wait_on_rxne_flag_until_timeout+0x76>
 800238e:	68fb      	ldr	r3, [r7, #12]
 8002390:	6b9b      	ldr	r3, [r3, #56]	; 0x38
 8002392:	f043 0220 	orr.w	r2, r3, #32
 8002396:	68fb      	ldr	r3, [r7, #12]
 8002398:	639a      	str	r2, [r3, #56]	; 0x38
 800239a:	68fb      	ldr	r3, [r7, #12]
 800239c:	2220      	movs	r2, #32
 800239e:	f883 2034 	strb.w	r2, [r3, #52]	; 0x34
 80023a2:	2303      	movs	r3, #3
 80023a4:	75fb      	strb	r3, [r7, #23]
 80023a6:	68fb      	ldr	r3, [r7, #12]
 80023a8:	681b      	ldr	r3, [r3, #0]
 80023aa:	695b      	ldr	r3, [r3, #20]
 80023ac:	f003 0340 	and.w	r3, r3, #64	; 0x40
 80023b0:	2b40      	cmp	r3, #64	; 0x40
 80023b2:	d005      	beq.n	80023c0 <i2c_wait_on_rxne_flag_until_timeout+0x90>
 80023b4:	7dfb      	ldrb	r3, [r7, #23]
 80023b6:	2b00      	cmp	r3, #0
 80023b8:	d0c6      	beq.n	8002348 <i2c_wait_on_rxne_flag_until_timeout+0x18>
 80023ba:	e001      	b.n	80023c0 <i2c_wait_on_rxne_flag_until_timeout+0x90>
 80023bc:	2301      	movs	r3, #1
 80023be:	75fb      	strb	r3, [r7, #23]
 80023c0:	7dfb      	ldrb	r3, [r7, #23]
 80023c2:	4618      	mov	r0, r3
 80023c4:	3718      	adds	r7, #24
 80023c6:	46bd      	mov	sp, r7
 80023c8:	bd80      	pop	{r7, pc}

080023ca <i2c_is_acknowledge_failed>:
 80023ca:	b480      	push	{r7}
 80023cc:	b085      	sub	sp, #20
 80023ce:	af00      	add	r7, sp, #0
 80023d0:	6078      	str	r0, [r7, #4]
 80023d2:	2300      	movs	r3, #0
 80023d4:	73fb      	strb	r3, [r7, #15]
 80023d6:	687b      	ldr	r3, [r7, #4]
 80023d8:	2b00      	cmp	r3, #0
 80023da:	d019      	beq.n	8002410 <i2c_is_acknowledge_failed+0x46>
 80023dc:	687b      	ldr	r3, [r7, #4]
 80023de:	681b      	ldr	r3, [r3, #0]
 80023e0:	695b      	ldr	r3, [r3, #20]
 80023e2:	f403 6380 	and.w	r3, r3, #1024	; 0x400
 80023e6:	f5b3 6f80 	cmp.w	r3, #1024	; 0x400
 80023ea:	d113      	bne.n	8002414 <i2c_is_acknowledge_failed+0x4a>
 80023ec:	687b      	ldr	r3, [r7, #4]
 80023ee:	681b      	ldr	r3, [r3, #0]
 80023f0:	f46f 6280 	mvn.w	r2, #1024	; 0x400
 80023f4:	615a      	str	r2, [r3, #20]
 80023f6:	687b      	ldr	r3, [r7, #4]
 80023f8:	2204      	movs	r2, #4
 80023fa:	639a      	str	r2, [r3, #56]	; 0x38
 80023fc:	687b      	ldr	r3, [r7, #4]
 80023fe:	2200      	movs	r2, #0
 8002400:	631a      	str	r2, [r3, #48]	; 0x30
 8002402:	687b      	ldr	r3, [r7, #4]
 8002404:	2220      	movs	r2, #32
 8002406:	f883 2034 	strb.w	r2, [r3, #52]	; 0x34
 800240a:	2301      	movs	r3, #1
 800240c:	73fb      	strb	r3, [r7, #15]
 800240e:	e001      	b.n	8002414 <i2c_is_acknowledge_failed+0x4a>
 8002410:	2301      	movs	r3, #1
 8002412:	73fb      	strb	r3, [r7, #15]
 8002414:	7bfb      	ldrb	r3, [r7, #15]
 8002416:	4618      	mov	r0, r3
 8002418:	3714      	adds	r7, #20
 800241a:	46bd      	mov	sp, r7
 800241c:	f85d 7b04 	ldr.w	r7, [sp], #4
 8002420:	4770      	bx	lr
 8002422:	bf00      	nop

08002424 <HAL_RCC_OscConfig>:
 8002424:	b580      	push	{r7, lr}
 8002426:	b088      	sub	sp, #32
 8002428:	af00      	add	r7, sp, #0
 800242a:	2300      	movs	r3, #0
 800242c:	61bb      	str	r3, [r7, #24]
 800242e:	2300      	movs	r3, #0
 8002430:	77fb      	strb	r3, [r7, #31]
 8002432:	f44f 0380 	mov.w	r3, #4194304	; 0x400000
 8002436:	617b      	str	r3, [r7, #20]
 8002438:	2319      	movs	r3, #25
 800243a:	613b      	str	r3, [r7, #16]
 800243c:	f44f 73a8 	mov.w	r3, #336	; 0x150
 8002440:	60fb      	str	r3, [r7, #12]
 8002442:	2302      	movs	r3, #2
 8002444:	60bb      	str	r3, [r7, #8]
 8002446:	2304      	movs	r3, #4
 8002448:	607b      	str	r3, [r7, #4]
 800244a:	4a59      	ldr	r2, [pc, #356]	; (80025b0 <HAL_RCC_OscConfig+0x18c>)
 800244c:	4b58      	ldr	r3, [pc, #352]	; (80025b0 <HAL_RCC_OscConfig+0x18c>)
 800244e:	681b      	ldr	r3, [r3, #0]
 8002450:	f443 3380 	orr.w	r3, r3, #65536	; 0x10000
 8002454:	6013      	str	r3, [r2, #0]
 8002456:	f000 fa8f 	bl	8002978 <HAL_GetTick>
 800245a:	61b8      	str	r0, [r7, #24]
 800245c:	e008      	b.n	8002470 <HAL_RCC_OscConfig+0x4c>
 800245e:	f000 fa8b 	bl	8002978 <HAL_GetTick>
 8002462:	4602      	mov	r2, r0
 8002464:	69bb      	ldr	r3, [r7, #24]
 8002466:	1ad3      	subs	r3, r2, r3
 8002468:	2b64      	cmp	r3, #100	; 0x64
 800246a:	d901      	bls.n	8002470 <HAL_RCC_OscConfig+0x4c>
 800246c:	2303      	movs	r3, #3
 800246e:	77fb      	strb	r3, [r7, #31]
 8002470:	4b4f      	ldr	r3, [pc, #316]	; (80025b0 <HAL_RCC_OscConfig+0x18c>)
 8002472:	681b      	ldr	r3, [r3, #0]
 8002474:	f403 3300 	and.w	r3, r3, #131072	; 0x20000
 8002478:	2b00      	cmp	r3, #0
 800247a:	d102      	bne.n	8002482 <HAL_RCC_OscConfig+0x5e>
 800247c:	7ffb      	ldrb	r3, [r7, #31]
 800247e:	2b00      	cmp	r3, #0
 8002480:	d0ed      	beq.n	800245e <HAL_RCC_OscConfig+0x3a>
 8002482:	7ffb      	ldrb	r3, [r7, #31]
 8002484:	2b00      	cmp	r3, #0
 8002486:	d121      	bne.n	80024cc <HAL_RCC_OscConfig+0xa8>
 8002488:	4b4a      	ldr	r3, [pc, #296]	; (80025b4 <HAL_RCC_OscConfig+0x190>)
 800248a:	681b      	ldr	r3, [r3, #0]
 800248c:	f403 7380 	and.w	r3, r3, #256	; 0x100
 8002490:	2b00      	cmp	r3, #0
 8002492:	d11b      	bne.n	80024cc <HAL_RCC_OscConfig+0xa8>
 8002494:	4a47      	ldr	r2, [pc, #284]	; (80025b4 <HAL_RCC_OscConfig+0x190>)
 8002496:	4b47      	ldr	r3, [pc, #284]	; (80025b4 <HAL_RCC_OscConfig+0x190>)
 8002498:	681b      	ldr	r3, [r3, #0]
 800249a:	f443 7380 	orr.w	r3, r3, #256	; 0x100
 800249e:	6013      	str	r3, [r2, #0]
 80024a0:	f000 fa6a 	bl	8002978 <HAL_GetTick>
 80024a4:	61b8      	str	r0, [r7, #24]
 80024a6:	e008      	b.n	80024ba <HAL_RCC_OscConfig+0x96>
 80024a8:	f000 fa66 	bl	8002978 <HAL_GetTick>
 80024ac:	4602      	mov	r2, r0
 80024ae:	69bb      	ldr	r3, [r7, #24]
 80024b0:	1ad3      	subs	r3, r2, r3
 80024b2:	2b02      	cmp	r3, #2
 80024b4:	d901      	bls.n	80024ba <HAL_RCC_OscConfig+0x96>
 80024b6:	2303      	movs	r3, #3
 80024b8:	77fb      	strb	r3, [r7, #31]
 80024ba:	4b3e      	ldr	r3, [pc, #248]	; (80025b4 <HAL_RCC_OscConfig+0x190>)
 80024bc:	681b      	ldr	r3, [r3, #0]
 80024be:	f403 7380 	and.w	r3, r3, #256	; 0x100
 80024c2:	2b00      	cmp	r3, #0
 80024c4:	d102      	bne.n	80024cc <HAL_RCC_OscConfig+0xa8>
 80024c6:	7ffb      	ldrb	r3, [r7, #31]
 80024c8:	2b00      	cmp	r3, #0
 80024ca:	d0ed      	beq.n	80024a8 <HAL_RCC_OscConfig+0x84>
 80024cc:	7ffb      	ldrb	r3, [r7, #31]
 80024ce:	2b00      	cmp	r3, #0
 80024d0:	d11b      	bne.n	800250a <HAL_RCC_OscConfig+0xe6>
 80024d2:	4a37      	ldr	r2, [pc, #220]	; (80025b0 <HAL_RCC_OscConfig+0x18c>)
 80024d4:	4b36      	ldr	r3, [pc, #216]	; (80025b0 <HAL_RCC_OscConfig+0x18c>)
 80024d6:	6f1b      	ldr	r3, [r3, #112]	; 0x70
 80024d8:	f043 0301 	orr.w	r3, r3, #1
 80024dc:	6713      	str	r3, [r2, #112]	; 0x70
 80024de:	f000 fa4b 	bl	8002978 <HAL_GetTick>
 80024e2:	61b8      	str	r0, [r7, #24]
 80024e4:	e008      	b.n	80024f8 <HAL_RCC_OscConfig+0xd4>
 80024e6:	f000 fa47 	bl	8002978 <HAL_GetTick>
 80024ea:	4602      	mov	r2, r0
 80024ec:	69bb      	ldr	r3, [r7, #24]
 80024ee:	1ad3      	subs	r3, r2, r3
 80024f0:	2b64      	cmp	r3, #100	; 0x64
 80024f2:	d901      	bls.n	80024f8 <HAL_RCC_OscConfig+0xd4>
 80024f4:	2303      	movs	r3, #3
 80024f6:	77fb      	strb	r3, [r7, #31]
 80024f8:	4b2d      	ldr	r3, [pc, #180]	; (80025b0 <HAL_RCC_OscConfig+0x18c>)
 80024fa:	6f1b      	ldr	r3, [r3, #112]	; 0x70
 80024fc:	f003 0302 	and.w	r3, r3, #2
 8002500:	2b00      	cmp	r3, #0
 8002502:	d102      	bne.n	800250a <HAL_RCC_OscConfig+0xe6>
 8002504:	7ffb      	ldrb	r3, [r7, #31]
 8002506:	2b00      	cmp	r3, #0
 8002508:	d0ed      	beq.n	80024e6 <HAL_RCC_OscConfig+0xc2>
 800250a:	7ffb      	ldrb	r3, [r7, #31]
 800250c:	2b00      	cmp	r3, #0
 800250e:	d14a      	bne.n	80025a6 <HAL_RCC_OscConfig+0x182>
 8002510:	4a27      	ldr	r2, [pc, #156]	; (80025b0 <HAL_RCC_OscConfig+0x18c>)
 8002512:	4b27      	ldr	r3, [pc, #156]	; (80025b0 <HAL_RCC_OscConfig+0x18c>)
 8002514:	681b      	ldr	r3, [r3, #0]
 8002516:	f023 7380 	bic.w	r3, r3, #16777216	; 0x1000000
 800251a:	6013      	str	r3, [r2, #0]
 800251c:	f000 fa2c 	bl	8002978 <HAL_GetTick>
 8002520:	61b8      	str	r0, [r7, #24]
 8002522:	e008      	b.n	8002536 <HAL_RCC_OscConfig+0x112>
 8002524:	f000 fa28 	bl	8002978 <HAL_GetTick>
 8002528:	4602      	mov	r2, r0
 800252a:	69bb      	ldr	r3, [r7, #24]
 800252c:	1ad3      	subs	r3, r2, r3
 800252e:	2b02      	cmp	r3, #2
 8002530:	d901      	bls.n	8002536 <HAL_RCC_OscConfig+0x112>
 8002532:	2303      	movs	r3, #3
 8002534:	77fb      	strb	r3, [r7, #31]
 8002536:	4b1e      	ldr	r3, [pc, #120]	; (80025b0 <HAL_RCC_OscConfig+0x18c>)
 8002538:	681b      	ldr	r3, [r3, #0]
 800253a:	f003 7300 	and.w	r3, r3, #33554432	; 0x2000000
 800253e:	2b00      	cmp	r3, #0
 8002540:	d002      	beq.n	8002548 <HAL_RCC_OscConfig+0x124>
 8002542:	7ffb      	ldrb	r3, [r7, #31]
 8002544:	2b00      	cmp	r3, #0
 8002546:	d0ed      	beq.n	8002524 <HAL_RCC_OscConfig+0x100>
 8002548:	7ffb      	ldrb	r3, [r7, #31]
 800254a:	2b00      	cmp	r3, #0
 800254c:	d12b      	bne.n	80025a6 <HAL_RCC_OscConfig+0x182>
 800254e:	4918      	ldr	r1, [pc, #96]	; (80025b0 <HAL_RCC_OscConfig+0x18c>)
 8002550:	697a      	ldr	r2, [r7, #20]
 8002552:	693b      	ldr	r3, [r7, #16]
 8002554:	431a      	orrs	r2, r3
 8002556:	68fb      	ldr	r3, [r7, #12]
 8002558:	019b      	lsls	r3, r3, #6
 800255a:	431a      	orrs	r2, r3
 800255c:	68bb      	ldr	r3, [r7, #8]
 800255e:	085b      	lsrs	r3, r3, #1
 8002560:	3b01      	subs	r3, #1
 8002562:	041b      	lsls	r3, r3, #16
 8002564:	431a      	orrs	r2, r3
 8002566:	687b      	ldr	r3, [r7, #4]
 8002568:	061b      	lsls	r3, r3, #24
 800256a:	4313      	orrs	r3, r2
 800256c:	604b      	str	r3, [r1, #4]
 800256e:	4a10      	ldr	r2, [pc, #64]	; (80025b0 <HAL_RCC_OscConfig+0x18c>)
 8002570:	4b0f      	ldr	r3, [pc, #60]	; (80025b0 <HAL_RCC_OscConfig+0x18c>)
 8002572:	681b      	ldr	r3, [r3, #0]
 8002574:	f043 7380 	orr.w	r3, r3, #16777216	; 0x1000000
 8002578:	6013      	str	r3, [r2, #0]
 800257a:	f000 f9fd 	bl	8002978 <HAL_GetTick>
 800257e:	61b8      	str	r0, [r7, #24]
 8002580:	e008      	b.n	8002594 <HAL_RCC_OscConfig+0x170>
 8002582:	f000 f9f9 	bl	8002978 <HAL_GetTick>
 8002586:	4602      	mov	r2, r0
 8002588:	69bb      	ldr	r3, [r7, #24]
 800258a:	1ad3      	subs	r3, r2, r3
 800258c:	2b02      	cmp	r3, #2
 800258e:	d901      	bls.n	8002594 <HAL_RCC_OscConfig+0x170>
 8002590:	2303      	movs	r3, #3
 8002592:	77fb      	strb	r3, [r7, #31]
 8002594:	4b06      	ldr	r3, [pc, #24]	; (80025b0 <HAL_RCC_OscConfig+0x18c>)
 8002596:	681b      	ldr	r3, [r3, #0]
 8002598:	f003 7300 	and.w	r3, r3, #33554432	; 0x2000000
 800259c:	2b00      	cmp	r3, #0
 800259e:	d102      	bne.n	80025a6 <HAL_RCC_OscConfig+0x182>
 80025a0:	7ffb      	ldrb	r3, [r7, #31]
 80025a2:	2b00      	cmp	r3, #0
 80025a4:	d0ed      	beq.n	8002582 <HAL_RCC_OscConfig+0x15e>
 80025a6:	7ffb      	ldrb	r3, [r7, #31]
 80025a8:	4618      	mov	r0, r3
 80025aa:	3720      	adds	r7, #32
 80025ac:	46bd      	mov	sp, r7
 80025ae:	bd80      	pop	{r7, pc}
 80025b0:	40023800 	.word	0x40023800
 80025b4:	40007000 	.word	0x40007000

080025b8 <HAL_RCC_ClockConfig>:
 80025b8:	b590      	push	{r4, r7, lr}
 80025ba:	b08b      	sub	sp, #44	; 0x2c
 80025bc:	af00      	add	r7, sp, #0
 80025be:	2300      	movs	r3, #0
 80025c0:	623b      	str	r3, [r7, #32]
 80025c2:	f44f 53a0 	mov.w	r3, #5120	; 0x1400
 80025c6:	61fb      	str	r3, [r7, #28]
 80025c8:	f44f 5380 	mov.w	r3, #4096	; 0x1000
 80025cc:	61bb      	str	r3, [r7, #24]
 80025ce:	2300      	movs	r3, #0
 80025d0:	617b      	str	r3, [r7, #20]
 80025d2:	2300      	movs	r3, #0
 80025d4:	613b      	str	r3, [r7, #16]
 80025d6:	2300      	movs	r3, #0
 80025d8:	60fb      	str	r3, [r7, #12]
 80025da:	2300      	movs	r3, #0
 80025dc:	60bb      	str	r3, [r7, #8]
 80025de:	2300      	movs	r3, #0
 80025e0:	607b      	str	r3, [r7, #4]
 80025e2:	2300      	movs	r3, #0
 80025e4:	f887 3027 	strb.w	r3, [r7, #39]	; 0x27
 80025e8:	2305      	movs	r3, #5
 80025ea:	603b      	str	r3, [r7, #0]
 80025ec:	4b6e      	ldr	r3, [pc, #440]	; (80027a8 <HAL_RCC_ClockConfig+0x1f0>)
 80025ee:	681b      	ldr	r3, [r3, #0]
 80025f0:	f003 020f 	and.w	r2, r3, #15
 80025f4:	683b      	ldr	r3, [r7, #0]
 80025f6:	429a      	cmp	r2, r3
 80025f8:	d20d      	bcs.n	8002616 <HAL_RCC_ClockConfig+0x5e>
 80025fa:	4b6b      	ldr	r3, [pc, #428]	; (80027a8 <HAL_RCC_ClockConfig+0x1f0>)
 80025fc:	683a      	ldr	r2, [r7, #0]
 80025fe:	b2d2      	uxtb	r2, r2
 8002600:	701a      	strb	r2, [r3, #0]
 8002602:	4b69      	ldr	r3, [pc, #420]	; (80027a8 <HAL_RCC_ClockConfig+0x1f0>)
 8002604:	681b      	ldr	r3, [r3, #0]
 8002606:	f003 020f 	and.w	r2, r3, #15
 800260a:	683b      	ldr	r3, [r7, #0]
 800260c:	429a      	cmp	r2, r3
 800260e:	d002      	beq.n	8002616 <HAL_RCC_ClockConfig+0x5e>
 8002610:	2301      	movs	r3, #1
 8002612:	f887 3027 	strb.w	r3, [r7, #39]	; 0x27
 8002616:	f897 3027 	ldrb.w	r3, [r7, #39]	; 0x27
 800261a:	2b00      	cmp	r3, #0
 800261c:	d113      	bne.n	8002646 <HAL_RCC_ClockConfig+0x8e>
 800261e:	4a63      	ldr	r2, [pc, #396]	; (80027ac <HAL_RCC_ClockConfig+0x1f4>)
 8002620:	4b62      	ldr	r3, [pc, #392]	; (80027ac <HAL_RCC_ClockConfig+0x1f4>)
 8002622:	689b      	ldr	r3, [r3, #8]
 8002624:	f443 53e0 	orr.w	r3, r3, #7168	; 0x1c00
 8002628:	6093      	str	r3, [r2, #8]
 800262a:	4a60      	ldr	r2, [pc, #384]	; (80027ac <HAL_RCC_ClockConfig+0x1f4>)
 800262c:	4b5f      	ldr	r3, [pc, #380]	; (80027ac <HAL_RCC_ClockConfig+0x1f4>)
 800262e:	689b      	ldr	r3, [r3, #8]
 8002630:	f443 4360 	orr.w	r3, r3, #57344	; 0xe000
 8002634:	6093      	str	r3, [r2, #8]
 8002636:	495d      	ldr	r1, [pc, #372]	; (80027ac <HAL_RCC_ClockConfig+0x1f4>)
 8002638:	4b5c      	ldr	r3, [pc, #368]	; (80027ac <HAL_RCC_ClockConfig+0x1f4>)
 800263a:	689b      	ldr	r3, [r3, #8]
 800263c:	f023 02f0 	bic.w	r2, r3, #240	; 0xf0
 8002640:	6a3b      	ldr	r3, [r7, #32]
 8002642:	4313      	orrs	r3, r2
 8002644:	608b      	str	r3, [r1, #8]
 8002646:	f897 3027 	ldrb.w	r3, [r7, #39]	; 0x27
 800264a:	2b00      	cmp	r3, #0
 800264c:	d12d      	bne.n	80026aa <HAL_RCC_ClockConfig+0xf2>
 800264e:	4b57      	ldr	r3, [pc, #348]	; (80027ac <HAL_RCC_ClockConfig+0x1f4>)
 8002650:	681b      	ldr	r3, [r3, #0]
 8002652:	f003 7300 	and.w	r3, r3, #33554432	; 0x2000000
 8002656:	2b00      	cmp	r3, #0
 8002658:	d102      	bne.n	8002660 <HAL_RCC_ClockConfig+0xa8>
 800265a:	2301      	movs	r3, #1
 800265c:	f887 3027 	strb.w	r3, [r7, #39]	; 0x27
 8002660:	f897 3027 	ldrb.w	r3, [r7, #39]	; 0x27
 8002664:	2b00      	cmp	r3, #0
 8002666:	d120      	bne.n	80026aa <HAL_RCC_ClockConfig+0xf2>
 8002668:	4a50      	ldr	r2, [pc, #320]	; (80027ac <HAL_RCC_ClockConfig+0x1f4>)
 800266a:	4b50      	ldr	r3, [pc, #320]	; (80027ac <HAL_RCC_ClockConfig+0x1f4>)
 800266c:	689b      	ldr	r3, [r3, #8]
 800266e:	f023 0303 	bic.w	r3, r3, #3
 8002672:	f043 0302 	orr.w	r3, r3, #2
 8002676:	6093      	str	r3, [r2, #8]
 8002678:	f000 f97e 	bl	8002978 <HAL_GetTick>
 800267c:	6178      	str	r0, [r7, #20]
 800267e:	e00a      	b.n	8002696 <HAL_RCC_ClockConfig+0xde>
 8002680:	f000 f97a 	bl	8002978 <HAL_GetTick>
 8002684:	4602      	mov	r2, r0
 8002686:	697b      	ldr	r3, [r7, #20]
 8002688:	1ad3      	subs	r3, r2, r3
 800268a:	f5b3 7ffa 	cmp.w	r3, #500	; 0x1f4
 800268e:	d902      	bls.n	8002696 <HAL_RCC_ClockConfig+0xde>
 8002690:	2303      	movs	r3, #3
 8002692:	f887 3027 	strb.w	r3, [r7, #39]	; 0x27
 8002696:	f897 3027 	ldrb.w	r3, [r7, #39]	; 0x27
 800269a:	2b00      	cmp	r3, #0
 800269c:	d105      	bne.n	80026aa <HAL_RCC_ClockConfig+0xf2>
 800269e:	4b43      	ldr	r3, [pc, #268]	; (80027ac <HAL_RCC_ClockConfig+0x1f4>)
 80026a0:	689b      	ldr	r3, [r3, #8]
 80026a2:	f003 030c 	and.w	r3, r3, #12
 80026a6:	2b08      	cmp	r3, #8
 80026a8:	d1ea      	bne.n	8002680 <HAL_RCC_ClockConfig+0xc8>
 80026aa:	f897 3027 	ldrb.w	r3, [r7, #39]	; 0x27
 80026ae:	2b00      	cmp	r3, #0
 80026b0:	d114      	bne.n	80026dc <HAL_RCC_ClockConfig+0x124>
 80026b2:	4b3d      	ldr	r3, [pc, #244]	; (80027a8 <HAL_RCC_ClockConfig+0x1f0>)
 80026b4:	681b      	ldr	r3, [r3, #0]
 80026b6:	f003 020f 	and.w	r2, r3, #15
 80026ba:	683b      	ldr	r3, [r7, #0]
 80026bc:	429a      	cmp	r2, r3
 80026be:	d90d      	bls.n	80026dc <HAL_RCC_ClockConfig+0x124>
 80026c0:	4b39      	ldr	r3, [pc, #228]	; (80027a8 <HAL_RCC_ClockConfig+0x1f0>)
 80026c2:	683a      	ldr	r2, [r7, #0]
 80026c4:	b2d2      	uxtb	r2, r2
 80026c6:	701a      	strb	r2, [r3, #0]
 80026c8:	4b37      	ldr	r3, [pc, #220]	; (80027a8 <HAL_RCC_ClockConfig+0x1f0>)
 80026ca:	681b      	ldr	r3, [r3, #0]
 80026cc:	f003 020f 	and.w	r2, r3, #15
 80026d0:	683b      	ldr	r3, [r7, #0]
 80026d2:	429a      	cmp	r2, r3
 80026d4:	d002      	beq.n	80026dc <HAL_RCC_ClockConfig+0x124>
 80026d6:	2301      	movs	r3, #1
 80026d8:	f887 3027 	strb.w	r3, [r7, #39]	; 0x27
 80026dc:	f897 3027 	ldrb.w	r3, [r7, #39]	; 0x27
 80026e0:	2b00      	cmp	r3, #0
 80026e2:	d15a      	bne.n	800279a <HAL_RCC_ClockConfig+0x1e2>
 80026e4:	4931      	ldr	r1, [pc, #196]	; (80027ac <HAL_RCC_ClockConfig+0x1f4>)
 80026e6:	4b31      	ldr	r3, [pc, #196]	; (80027ac <HAL_RCC_ClockConfig+0x1f4>)
 80026e8:	689b      	ldr	r3, [r3, #8]
 80026ea:	f423 52e0 	bic.w	r2, r3, #7168	; 0x1c00
 80026ee:	69fb      	ldr	r3, [r7, #28]
 80026f0:	4313      	orrs	r3, r2
 80026f2:	608b      	str	r3, [r1, #8]
 80026f4:	492d      	ldr	r1, [pc, #180]	; (80027ac <HAL_RCC_ClockConfig+0x1f4>)
 80026f6:	4b2d      	ldr	r3, [pc, #180]	; (80027ac <HAL_RCC_ClockConfig+0x1f4>)
 80026f8:	689b      	ldr	r3, [r3, #8]
 80026fa:	f423 4260 	bic.w	r2, r3, #57344	; 0xe000
 80026fe:	69bb      	ldr	r3, [r7, #24]
 8002700:	00db      	lsls	r3, r3, #3
 8002702:	4313      	orrs	r3, r2
 8002704:	608b      	str	r3, [r1, #8]
 8002706:	4b29      	ldr	r3, [pc, #164]	; (80027ac <HAL_RCC_ClockConfig+0x1f4>)
 8002708:	685b      	ldr	r3, [r3, #4]
 800270a:	f003 033f 	and.w	r3, r3, #63	; 0x3f
 800270e:	613b      	str	r3, [r7, #16]
 8002710:	4b26      	ldr	r3, [pc, #152]	; (80027ac <HAL_RCC_ClockConfig+0x1f4>)
 8002712:	685b      	ldr	r3, [r3, #4]
 8002714:	099b      	lsrs	r3, r3, #6
 8002716:	f04f 0400 	mov.w	r4, #0
 800271a:	f240 11ff 	movw	r1, #511	; 0x1ff
 800271e:	f04f 0200 	mov.w	r2, #0
 8002722:	ea03 0301 	and.w	r3, r3, r1
 8002726:	ea04 0402 	and.w	r4, r4, r2
 800272a:	4a21      	ldr	r2, [pc, #132]	; (80027b0 <HAL_RCC_ClockConfig+0x1f8>)
 800272c:	fb02 f104 	mul.w	r1, r2, r4
 8002730:	2200      	movs	r2, #0
 8002732:	fb02 f203 	mul.w	r2, r2, r3
 8002736:	440a      	add	r2, r1
 8002738:	491d      	ldr	r1, [pc, #116]	; (80027b0 <HAL_RCC_ClockConfig+0x1f8>)
 800273a:	fba3 0101 	umull	r0, r1, r3, r1
 800273e:	1853      	adds	r3, r2, r1
 8002740:	4619      	mov	r1, r3
 8002742:	693b      	ldr	r3, [r7, #16]
 8002744:	f04f 0400 	mov.w	r4, #0
 8002748:	461a      	mov	r2, r3
 800274a:	4623      	mov	r3, r4
 800274c:	f008 fc90 	bl	800b070 <__aeabi_uldivmod>
 8002750:	4603      	mov	r3, r0
 8002752:	460c      	mov	r4, r1
 8002754:	60fb      	str	r3, [r7, #12]
 8002756:	4b15      	ldr	r3, [pc, #84]	; (80027ac <HAL_RCC_ClockConfig+0x1f4>)
 8002758:	685b      	ldr	r3, [r3, #4]
 800275a:	0c1b      	lsrs	r3, r3, #16
 800275c:	f003 0303 	and.w	r3, r3, #3
 8002760:	3301      	adds	r3, #1
 8002762:	005b      	lsls	r3, r3, #1
 8002764:	60bb      	str	r3, [r7, #8]
 8002766:	68fa      	ldr	r2, [r7, #12]
 8002768:	68bb      	ldr	r3, [r7, #8]
 800276a:	fbb2 f3f3 	udiv	r3, r2, r3
 800276e:	607b      	str	r3, [r7, #4]
 8002770:	4b0e      	ldr	r3, [pc, #56]	; (80027ac <HAL_RCC_ClockConfig+0x1f4>)
 8002772:	689b      	ldr	r3, [r3, #8]
 8002774:	091b      	lsrs	r3, r3, #4
 8002776:	f003 030f 	and.w	r3, r3, #15
 800277a:	4a0e      	ldr	r2, [pc, #56]	; (80027b4 <HAL_RCC_ClockConfig+0x1fc>)
 800277c:	5cd3      	ldrb	r3, [r2, r3]
 800277e:	461a      	mov	r2, r3
 8002780:	687b      	ldr	r3, [r7, #4]
 8002782:	40d3      	lsrs	r3, r2
 8002784:	4a0c      	ldr	r2, [pc, #48]	; (80027b8 <HAL_RCC_ClockConfig+0x200>)
 8002786:	6013      	str	r3, [r2, #0]
 8002788:	f000 f8bc 	bl	8002904 <hal_init_tick>
 800278c:	4603      	mov	r3, r0
 800278e:	461a      	mov	r2, r3
 8002790:	f897 3027 	ldrb.w	r3, [r7, #39]	; 0x27
 8002794:	4313      	orrs	r3, r2
 8002796:	f887 3027 	strb.w	r3, [r7, #39]	; 0x27
 800279a:	f897 3027 	ldrb.w	r3, [r7, #39]	; 0x27
 800279e:	4618      	mov	r0, r3
 80027a0:	372c      	adds	r7, #44	; 0x2c
 80027a2:	46bd      	mov	sp, r7
 80027a4:	bd90      	pop	{r4, r7, pc}
 80027a6:	bf00      	nop
 80027a8:	40023c00 	.word	0x40023c00
 80027ac:	40023800 	.word	0x40023800
 80027b0:	017d7840 	.word	0x017d7840
 80027b4:	0800b450 	.word	0x0800b450
 80027b8:	20000060 	.word	0x20000060

080027bc <HAL_RCC_GetPCLK1Freq>:
 80027bc:	b480      	push	{r7}
 80027be:	af00      	add	r7, sp, #0
 80027c0:	4b07      	ldr	r3, [pc, #28]	; (80027e0 <HAL_RCC_GetPCLK1Freq+0x24>)
 80027c2:	681b      	ldr	r3, [r3, #0]
 80027c4:	4a07      	ldr	r2, [pc, #28]	; (80027e4 <HAL_RCC_GetPCLK1Freq+0x28>)
 80027c6:	6892      	ldr	r2, [r2, #8]
 80027c8:	0a92      	lsrs	r2, r2, #10
 80027ca:	f002 0207 	and.w	r2, r2, #7
 80027ce:	4906      	ldr	r1, [pc, #24]	; (80027e8 <HAL_RCC_GetPCLK1Freq+0x2c>)
 80027d0:	5c8a      	ldrb	r2, [r1, r2]
 80027d2:	40d3      	lsrs	r3, r2
 80027d4:	4618      	mov	r0, r3
 80027d6:	46bd      	mov	sp, r7
 80027d8:	f85d 7b04 	ldr.w	r7, [sp], #4
 80027dc:	4770      	bx	lr
 80027de:	bf00      	nop
 80027e0:	20000060 	.word	0x20000060
 80027e4:	40023800 	.word	0x40023800
 80027e8:	0800b460 	.word	0x0800b460

080027ec <HAL_RCC_GetPCLK2Freq>:
 80027ec:	b480      	push	{r7}
 80027ee:	af00      	add	r7, sp, #0
 80027f0:	4b07      	ldr	r3, [pc, #28]	; (8002810 <HAL_RCC_GetPCLK2Freq+0x24>)
 80027f2:	681b      	ldr	r3, [r3, #0]
 80027f4:	4a07      	ldr	r2, [pc, #28]	; (8002814 <HAL_RCC_GetPCLK2Freq+0x28>)
 80027f6:	6892      	ldr	r2, [r2, #8]
 80027f8:	0b52      	lsrs	r2, r2, #13
 80027fa:	f002 0207 	and.w	r2, r2, #7
 80027fe:	4906      	ldr	r1, [pc, #24]	; (8002818 <HAL_RCC_GetPCLK2Freq+0x2c>)
 8002800:	5c8a      	ldrb	r2, [r1, r2]
 8002802:	40d3      	lsrs	r3, r2
 8002804:	4618      	mov	r0, r3
 8002806:	46bd      	mov	sp, r7
 8002808:	f85d 7b04 	ldr.w	r7, [sp], #4
 800280c:	4770      	bx	lr
 800280e:	bf00      	nop
 8002810:	20000060 	.word	0x20000060
 8002814:	40023800 	.word	0x40023800
 8002818:	0800b460 	.word	0x0800b460

0800281c <HAL_RCCEx_PeriphCLKConfig>:
 800281c:	b580      	push	{r7, lr}
 800281e:	b084      	sub	sp, #16
 8002820:	af00      	add	r7, sp, #0
 8002822:	2300      	movs	r3, #0
 8002824:	60bb      	str	r3, [r7, #8]
 8002826:	2300      	movs	r3, #0
 8002828:	607b      	str	r3, [r7, #4]
 800282a:	2300      	movs	r3, #0
 800282c:	73fb      	strb	r3, [r7, #15]
 800282e:	4a33      	ldr	r2, [pc, #204]	; (80028fc <HAL_RCCEx_PeriphCLKConfig+0xe0>)
 8002830:	4b32      	ldr	r3, [pc, #200]	; (80028fc <HAL_RCCEx_PeriphCLKConfig+0xe0>)
 8002832:	681b      	ldr	r3, [r3, #0]
 8002834:	f443 7380 	orr.w	r3, r3, #256	; 0x100
 8002838:	6013      	str	r3, [r2, #0]
 800283a:	f000 f89d 	bl	8002978 <HAL_GetTick>
 800283e:	60b8      	str	r0, [r7, #8]
 8002840:	e008      	b.n	8002854 <HAL_RCCEx_PeriphCLKConfig+0x38>
 8002842:	f000 f899 	bl	8002978 <HAL_GetTick>
 8002846:	4602      	mov	r2, r0
 8002848:	68bb      	ldr	r3, [r7, #8]
 800284a:	1ad3      	subs	r3, r2, r3
 800284c:	2b02      	cmp	r3, #2
 800284e:	d901      	bls.n	8002854 <HAL_RCCEx_PeriphCLKConfig+0x38>
 8002850:	2303      	movs	r3, #3
 8002852:	73fb      	strb	r3, [r7, #15]
 8002854:	4b29      	ldr	r3, [pc, #164]	; (80028fc <HAL_RCCEx_PeriphCLKConfig+0xe0>)
 8002856:	681b      	ldr	r3, [r3, #0]
 8002858:	f403 7380 	and.w	r3, r3, #256	; 0x100
 800285c:	2b00      	cmp	r3, #0
 800285e:	d0f0      	beq.n	8002842 <HAL_RCCEx_PeriphCLKConfig+0x26>
 8002860:	4b27      	ldr	r3, [pc, #156]	; (8002900 <HAL_RCCEx_PeriphCLKConfig+0xe4>)
 8002862:	6f1b      	ldr	r3, [r3, #112]	; 0x70
 8002864:	f403 7340 	and.w	r3, r3, #768	; 0x300
 8002868:	607b      	str	r3, [r7, #4]
 800286a:	687b      	ldr	r3, [r7, #4]
 800286c:	2b00      	cmp	r3, #0
 800286e:	d033      	beq.n	80028d8 <HAL_RCCEx_PeriphCLKConfig+0xbc>
 8002870:	687b      	ldr	r3, [r7, #4]
 8002872:	f5b3 7f80 	cmp.w	r3, #256	; 0x100
 8002876:	d02f      	beq.n	80028d8 <HAL_RCCEx_PeriphCLKConfig+0xbc>
 8002878:	4b21      	ldr	r3, [pc, #132]	; (8002900 <HAL_RCCEx_PeriphCLKConfig+0xe4>)
 800287a:	6f1b      	ldr	r3, [r3, #112]	; 0x70
 800287c:	f423 7340 	bic.w	r3, r3, #768	; 0x300
 8002880:	607b      	str	r3, [r7, #4]
 8002882:	4a1f      	ldr	r2, [pc, #124]	; (8002900 <HAL_RCCEx_PeriphCLKConfig+0xe4>)
 8002884:	4b1e      	ldr	r3, [pc, #120]	; (8002900 <HAL_RCCEx_PeriphCLKConfig+0xe4>)
 8002886:	6f1b      	ldr	r3, [r3, #112]	; 0x70
 8002888:	f443 3380 	orr.w	r3, r3, #65536	; 0x10000
 800288c:	6713      	str	r3, [r2, #112]	; 0x70
 800288e:	4a1c      	ldr	r2, [pc, #112]	; (8002900 <HAL_RCCEx_PeriphCLKConfig+0xe4>)
 8002890:	4b1b      	ldr	r3, [pc, #108]	; (8002900 <HAL_RCCEx_PeriphCLKConfig+0xe4>)
 8002892:	6f1b      	ldr	r3, [r3, #112]	; 0x70
 8002894:	f423 3380 	bic.w	r3, r3, #65536	; 0x10000
 8002898:	6713      	str	r3, [r2, #112]	; 0x70
 800289a:	4a19      	ldr	r2, [pc, #100]	; (8002900 <HAL_RCCEx_PeriphCLKConfig+0xe4>)
 800289c:	687b      	ldr	r3, [r7, #4]
 800289e:	6713      	str	r3, [r2, #112]	; 0x70
 80028a0:	4b17      	ldr	r3, [pc, #92]	; (8002900 <HAL_RCCEx_PeriphCLKConfig+0xe4>)
 80028a2:	6f1b      	ldr	r3, [r3, #112]	; 0x70
 80028a4:	f003 0301 	and.w	r3, r3, #1
 80028a8:	2b00      	cmp	r3, #0
 80028aa:	d015      	beq.n	80028d8 <HAL_RCCEx_PeriphCLKConfig+0xbc>
 80028ac:	f000 f864 	bl	8002978 <HAL_GetTick>
 80028b0:	60b8      	str	r0, [r7, #8]
 80028b2:	e008      	b.n	80028c6 <HAL_RCCEx_PeriphCLKConfig+0xaa>
 80028b4:	f000 f860 	bl	8002978 <HAL_GetTick>
 80028b8:	4602      	mov	r2, r0
 80028ba:	68bb      	ldr	r3, [r7, #8]
 80028bc:	1ad3      	subs	r3, r2, r3
 80028be:	2b64      	cmp	r3, #100	; 0x64
 80028c0:	d901      	bls.n	80028c6 <HAL_RCCEx_PeriphCLKConfig+0xaa>
 80028c2:	2303      	movs	r3, #3
 80028c4:	73fb      	strb	r3, [r7, #15]
 80028c6:	4b0e      	ldr	r3, [pc, #56]	; (8002900 <HAL_RCCEx_PeriphCLKConfig+0xe4>)
 80028c8:	6f1b      	ldr	r3, [r3, #112]	; 0x70
 80028ca:	f003 0302 	and.w	r3, r3, #2
 80028ce:	2b00      	cmp	r3, #0
 80028d0:	d102      	bne.n	80028d8 <HAL_RCCEx_PeriphCLKConfig+0xbc>
 80028d2:	7bfb      	ldrb	r3, [r7, #15]
 80028d4:	2b00      	cmp	r3, #0
 80028d6:	d0ed      	beq.n	80028b4 <HAL_RCCEx_PeriphCLKConfig+0x98>
 80028d8:	4a09      	ldr	r2, [pc, #36]	; (8002900 <HAL_RCCEx_PeriphCLKConfig+0xe4>)
 80028da:	4b09      	ldr	r3, [pc, #36]	; (8002900 <HAL_RCCEx_PeriphCLKConfig+0xe4>)
 80028dc:	689b      	ldr	r3, [r3, #8]
 80028de:	f423 13f8 	bic.w	r3, r3, #2031616	; 0x1f0000
 80028e2:	6093      	str	r3, [r2, #8]
 80028e4:	4a06      	ldr	r2, [pc, #24]	; (8002900 <HAL_RCCEx_PeriphCLKConfig+0xe4>)
 80028e6:	4b06      	ldr	r3, [pc, #24]	; (8002900 <HAL_RCCEx_PeriphCLKConfig+0xe4>)
 80028e8:	6f1b      	ldr	r3, [r3, #112]	; 0x70
 80028ea:	f443 7380 	orr.w	r3, r3, #256	; 0x100
 80028ee:	6713      	str	r3, [r2, #112]	; 0x70
 80028f0:	7bfb      	ldrb	r3, [r7, #15]
 80028f2:	4618      	mov	r0, r3
 80028f4:	3710      	adds	r7, #16
 80028f6:	46bd      	mov	sp, r7
 80028f8:	bd80      	pop	{r7, pc}
 80028fa:	bf00      	nop
 80028fc:	40007000 	.word	0x40007000
 8002900:	40023800 	.word	0x40023800

08002904 <hal_init_tick>:
 8002904:	b580      	push	{r7, lr}
 8002906:	b082      	sub	sp, #8
 8002908:	af00      	add	r7, sp, #0
 800290a:	2300      	movs	r3, #0
 800290c:	71fb      	strb	r3, [r7, #7]
 800290e:	4b0f      	ldr	r3, [pc, #60]	; (800294c <hal_init_tick+0x48>)
 8002910:	681a      	ldr	r2, [r3, #0]
 8002912:	4b0f      	ldr	r3, [pc, #60]	; (8002950 <hal_init_tick+0x4c>)
 8002914:	681b      	ldr	r3, [r3, #0]
 8002916:	f44f 717a 	mov.w	r1, #1000	; 0x3e8
 800291a:	fbb1 f3f3 	udiv	r3, r1, r3
 800291e:	fbb2 f3f3 	udiv	r3, r2, r3
 8002922:	4618      	mov	r0, r3
 8002924:	f7fe fa2a 	bl	8000d7c <HAL_SYSTICK_Config>
 8002928:	4603      	mov	r3, r0
 800292a:	2b00      	cmp	r3, #0
 800292c:	d002      	beq.n	8002934 <hal_init_tick+0x30>
 800292e:	2301      	movs	r3, #1
 8002930:	71fb      	strb	r3, [r7, #7]
 8002932:	e005      	b.n	8002940 <hal_init_tick+0x3c>
 8002934:	2200      	movs	r2, #0
 8002936:	2100      	movs	r1, #0
 8002938:	f04f 30ff 	mov.w	r0, #4294967295
 800293c:	f7fe f982 	bl	8000c44 <HAL_NVIC_SetPriority>
 8002940:	79fb      	ldrb	r3, [r7, #7]
 8002942:	4618      	mov	r0, r3
 8002944:	3708      	adds	r7, #8
 8002946:	46bd      	mov	sp, r7
 8002948:	bd80      	pop	{r7, pc}
 800294a:	bf00      	nop
 800294c:	20000060 	.word	0x20000060
 8002950:	2000005c 	.word	0x2000005c

08002954 <HAL_IncTick>:
 8002954:	b480      	push	{r7}
 8002956:	af00      	add	r7, sp, #0
 8002958:	4b05      	ldr	r3, [pc, #20]	; (8002970 <HAL_IncTick+0x1c>)
 800295a:	681a      	ldr	r2, [r3, #0]
 800295c:	4b05      	ldr	r3, [pc, #20]	; (8002974 <HAL_IncTick+0x20>)
 800295e:	681b      	ldr	r3, [r3, #0]
 8002960:	4413      	add	r3, r2
 8002962:	4a03      	ldr	r2, [pc, #12]	; (8002970 <HAL_IncTick+0x1c>)
 8002964:	6013      	str	r3, [r2, #0]
 8002966:	bf00      	nop
 8002968:	46bd      	mov	sp, r7
 800296a:	f85d 7b04 	ldr.w	r7, [sp], #4
 800296e:	4770      	bx	lr
 8002970:	20000a5c 	.word	0x20000a5c
 8002974:	2000005c 	.word	0x2000005c

08002978 <HAL_GetTick>:
 8002978:	b480      	push	{r7}
 800297a:	af00      	add	r7, sp, #0
 800297c:	4b03      	ldr	r3, [pc, #12]	; (800298c <HAL_GetTick+0x14>)
 800297e:	681b      	ldr	r3, [r3, #0]
 8002980:	4618      	mov	r0, r3
 8002982:	46bd      	mov	sp, r7
 8002984:	f85d 7b04 	ldr.w	r7, [sp], #4
 8002988:	4770      	bx	lr
 800298a:	bf00      	nop
 800298c:	20000a5c 	.word	0x20000a5c

08002990 <HAL_Delay>:
 8002990:	b480      	push	{r7}
 8002992:	b083      	sub	sp, #12
 8002994:	af00      	add	r7, sp, #0
 8002996:	6078      	str	r0, [r7, #4]
 8002998:	4b09      	ldr	r3, [pc, #36]	; (80029c0 <HAL_Delay+0x30>)
 800299a:	681b      	ldr	r3, [r3, #0]
 800299c:	e007      	b.n	80029ae <HAL_Delay+0x1e>
 800299e:	4b08      	ldr	r3, [pc, #32]	; (80029c0 <HAL_Delay+0x30>)
 80029a0:	681b      	ldr	r3, [r3, #0]
 80029a2:	0c1b      	lsrs	r3, r3, #16
 80029a4:	f003 0301 	and.w	r3, r3, #1
 80029a8:	687a      	ldr	r2, [r7, #4]
 80029aa:	1ad3      	subs	r3, r2, r3
 80029ac:	607b      	str	r3, [r7, #4]
 80029ae:	687b      	ldr	r3, [r7, #4]
